{
	"mocks/MockTokenFee.sol": {
		"MockFeeToken": {
			"abi": [
				{
					"inputs": [],
					"stateMutability": "nonpayable",
					"type": "constructor"
				},
				{
					"inputs": [
						{
							"internalType": "address",
							"name": "",
							"type": "address"
						},
						{
							"internalType": "address",
							"name": "",
							"type": "address"
						}
					],
					"name": "allowance",
					"outputs": [
						{
							"internalType": "uint256",
							"name": "",
							"type": "uint256"
						}
					],
					"stateMutability": "view",
					"type": "function"
				},
				{
					"inputs": [
						{
							"internalType": "address",
							"name": "spender",
							"type": "address"
						},
						{
							"internalType": "uint256",
							"name": "amount",
							"type": "uint256"
						}
					],
					"name": "approve",
					"outputs": [
						{
							"internalType": "bool",
							"name": "",
							"type": "bool"
						}
					],
					"stateMutability": "nonpayable",
					"type": "function"
				},
				{
					"inputs": [
						{
							"internalType": "address",
							"name": "",
							"type": "address"
						}
					],
					"name": "balanceOf",
					"outputs": [
						{
							"internalType": "uint256",
							"name": "",
							"type": "uint256"
						}
					],
					"stateMutability": "view",
					"type": "function"
				},
				{
					"inputs": [
						{
							"internalType": "address",
							"name": "to",
							"type": "address"
						},
						{
							"internalType": "uint256",
							"name": "amount",
							"type": "uint256"
						}
					],
					"name": "mint",
					"outputs": [],
					"stateMutability": "nonpayable",
					"type": "function"
				},
				{
					"inputs": [
						{
							"internalType": "address",
							"name": "to",
							"type": "address"
						},
						{
							"internalType": "uint256",
							"name": "amount",
							"type": "uint256"
						}
					],
					"name": "transfer",
					"outputs": [
						{
							"internalType": "bool",
							"name": "",
							"type": "bool"
						}
					],
					"stateMutability": "nonpayable",
					"type": "function"
				},
				{
					"inputs": [
						{
							"internalType": "address",
							"name": "from",
							"type": "address"
						},
						{
							"internalType": "address",
							"name": "to",
							"type": "address"
						},
						{
							"internalType": "uint256",
							"name": "amount",
							"type": "uint256"
						}
					],
					"name": "transferFrom",
					"outputs": [
						{
							"internalType": "bool",
							"name": "",
							"type": "bool"
						}
					],
					"stateMutability": "nonpayable",
					"type": "function"
				}
			],
			"devdoc": {
				"kind": "dev",
				"methods": {},
				"version": 1
			},
			"evm": {
				"assembly": "    /* \"mocks/MockTokenFee.sol\":57:1083  contract MockFeeToken {... */\n  mstore(0x40, 0x80)\n    /* \"mocks/MockTokenFee.sol\":206:274  constructor() {... */\n  callvalue\n  dup1\n  iszero\n  tag_1\n  jumpi\n  revert(0x00, 0x00)\ntag_1:\n  pop\n    /* \"mocks/MockTokenFee.sol\":240:250  msg.sender */\n  caller\n    /* \"mocks/MockTokenFee.sol\":230:239  balanceOf */\n  0x00\n    /* \"mocks/MockTokenFee.sol\":230:251  balanceOf[msg.sender] */\n  swap1\n  dup2\n  mstore\n  0x20\n  dup2\n  swap1\n  mstore\n  0x40\n  swap1\n  keccak256\n    /* \"mocks/MockTokenFee.sol\":254:267  1000000 ether */\n  0xd3c21bcecceda1000000\n    /* \"mocks/MockTokenFee.sol\":230:267  balanceOf[msg.sender] = 1000000 ether */\n  swap1\n  sstore\n    /* \"mocks/MockTokenFee.sol\":57:1083  contract MockFeeToken {... */\n  dataSize(sub_0)\n  dup1\n  dataOffset(sub_0)\n  0x00\n  codecopy\n  0x00\n  return\nstop\n\nsub_0: assembly {\n        /* \"mocks/MockTokenFee.sol\":57:1083  contract MockFeeToken {... */\n      mstore(0x40, 0x80)\n      callvalue\n      dup1\n      iszero\n      tag_1\n      jumpi\n      revert(0x00, 0x00)\n    tag_1:\n      pop\n      jumpi(tag_2, lt(calldatasize, 0x04))\n      shr(0xe0, calldataload(0x00))\n      dup1\n      0x095ea7b3\n      eq\n      tag_3\n      jumpi\n      dup1\n      0x23b872dd\n      eq\n      tag_4\n      jumpi\n      dup1\n      0x40c10f19\n      eq\n      tag_5\n      jumpi\n      dup1\n      0x70a08231\n      eq\n      tag_6\n      jumpi\n      dup1\n      0xa9059cbb\n      eq\n      tag_7\n      jumpi\n      dup1\n      0xdd62ed3e\n      eq\n      tag_8\n      jumpi\n    tag_2:\n      revert(0x00, 0x00)\n        /* \"mocks/MockTokenFee.sol\":377:528  function approve(address spender, uint256 amount) external returns (bool) {... */\n    tag_3:\n      tag_9\n      tag_10\n      calldatasize\n      0x04\n      tag_11\n      jump\t// in\n    tag_10:\n      tag_12\n      jump\t// in\n    tag_9:\n      mload(0x40)\n        /* \"#utility.yul\":662:676   */\n      swap1\n      iszero\n        /* \"#utility.yul\":655:677   */\n      iszero\n        /* \"#utility.yul\":637:678   */\n      dup2\n      mstore\n        /* \"#utility.yul\":625:627   */\n      0x20\n        /* \"#utility.yul\":610:628   */\n      add\n        /* \"mocks/MockTokenFee.sol\":377:528  function approve(address spender, uint256 amount) external returns (bool) {... */\n    tag_13:\n      mload(0x40)\n      dup1\n      swap2\n      sub\n      swap1\n      return\n        /* \"mocks/MockTokenFee.sol\":534:829  function transferFrom(address from, address to, uint256 amount) external returns (bool) {... */\n    tag_4:\n      tag_9\n      tag_16\n      calldatasize\n      0x04\n      tag_17\n      jump\t// in\n    tag_16:\n      tag_18\n      jump\t// in\n        /* \"mocks/MockTokenFee.sol\":280:371  function mint(address to, uint256 amount) external {... */\n    tag_5:\n      tag_20\n      tag_21\n      calldatasize\n      0x04\n      tag_11\n      jump\t// in\n    tag_21:\n      tag_22\n      jump\t// in\n    tag_20:\n      stop\n        /* \"mocks/MockTokenFee.sol\":85:129  mapping(address => uint256) public balanceOf */\n    tag_6:\n      tag_23\n      tag_24\n      calldatasize\n      0x04\n      tag_25\n      jump\t// in\n    tag_24:\n      0x00\n      0x20\n      dup2\n      swap1\n      mstore\n      swap1\n      dup2\n      mstore\n      0x40\n      swap1\n      keccak256\n      sload\n      dup2\n      jump\n    tag_23:\n      mload(0x40)\n        /* \"#utility.yul\":1405:1430   */\n      swap1\n      dup2\n      mstore\n        /* \"#utility.yul\":1393:1395   */\n      0x20\n        /* \"#utility.yul\":1378:1396   */\n      add\n        /* \"mocks/MockTokenFee.sol\":85:129  mapping(address => uint256) public balanceOf */\n      tag_13\n        /* \"#utility.yul\":1259:1436   */\n      jump\n        /* \"mocks/MockTokenFee.sol\":835:1081  function transfer(address to, uint256 amount) external returns (bool) {... */\n    tag_7:\n      tag_9\n      tag_30\n      calldatasize\n      0x04\n      tag_11\n      jump\t// in\n    tag_30:\n      tag_31\n      jump\t// in\n        /* \"mocks/MockTokenFee.sol\":135:199  mapping(address => mapping(address => uint256)) public allowance */\n    tag_8:\n      tag_23\n      tag_34\n      calldatasize\n      0x04\n      tag_35\n      jump\t// in\n    tag_34:\n      0x01\n      0x20\n      swap1\n      dup2\n      mstore\n      0x00\n      swap3\n      dup4\n      mstore\n      0x40\n      dup1\n      dup5\n      keccak256\n      swap1\n      swap2\n      mstore\n      swap1\n      dup3\n      mstore\n      swap1\n      keccak256\n      sload\n      dup2\n      jump\n        /* \"mocks/MockTokenFee.sol\":377:528  function approve(address spender, uint256 amount) external returns (bool) {... */\n    tag_12:\n        /* \"mocks/MockTokenFee.sol\":471:481  msg.sender */\n      caller\n        /* \"mocks/MockTokenFee.sol\":445:449  bool */\n      0x00\n        /* \"mocks/MockTokenFee.sol\":461:482  allowance[msg.sender] */\n      swap1\n      dup2\n      mstore\n        /* \"mocks/MockTokenFee.sol\":461:470  allowance */\n      0x01\n        /* \"mocks/MockTokenFee.sol\":461:482  allowance[msg.sender] */\n      0x20\n      dup2\n      dup2\n      mstore\n      0x40\n      dup1\n      dup5\n      keccak256\n      sub(shl(0xa0, 0x01), 0x01)\n        /* \"mocks/MockTokenFee.sol\":461:491  allowance[msg.sender][spender] */\n      dup8\n      and\n      dup6\n      mstore\n      swap1\n      swap2\n      mstore\n      swap1\n      swap2\n      keccak256\n        /* \"mocks/MockTokenFee.sol\":461:500  allowance[msg.sender][spender] = amount */\n      dup3\n      swap1\n      sstore\n        /* \"mocks/MockTokenFee.sol\":377:528  function approve(address spender, uint256 amount) external returns (bool) {... */\n    tag_38:\n      swap3\n      swap2\n      pop\n      pop\n      jump\t// out\n        /* \"mocks/MockTokenFee.sol\":534:829  function transferFrom(address from, address to, uint256 amount) external returns (bool) {... */\n    tag_18:\n        /* \"mocks/MockTokenFee.sol\":616:620  bool */\n      0x00\n      dup1\n        /* \"mocks/MockTokenFee.sol\":646:658  amount / 100 */\n      tag_40\n        /* \"mocks/MockTokenFee.sol\":655:658  100 */\n      0x64\n        /* \"mocks/MockTokenFee.sol\":646:652  amount */\n      dup5\n        /* \"mocks/MockTokenFee.sol\":646:658  amount / 100 */\n      tag_41\n      jump\t// in\n    tag_40:\n        /* \"mocks/MockTokenFee.sol\":632:658  uint256 fee = amount / 100 */\n      swap1\n      pop\n        /* \"mocks/MockTokenFee.sol\":678:700  uint256 amountReceived */\n      0x00\n        /* \"mocks/MockTokenFee.sol\":703:715  amount - fee */\n      tag_42\n        /* \"mocks/MockTokenFee.sol\":632:658  uint256 fee = amount / 100 */\n      dup3\n        /* \"mocks/MockTokenFee.sol\":703:709  amount */\n      dup6\n        /* \"mocks/MockTokenFee.sol\":703:715  amount - fee */\n      tag_43\n      jump\t// in\n    tag_42:\n        /* \"mocks/MockTokenFee.sol\":678:715  uint256 amountReceived = amount - fee */\n      swap1\n      pop\n        /* \"mocks/MockTokenFee.sol\":753:759  amount */\n      dup4\n        /* \"mocks/MockTokenFee.sol\":734:743  balanceOf */\n      0x00\n        /* \"mocks/MockTokenFee.sol\":734:749  balanceOf[from] */\n      0x00\n        /* \"mocks/MockTokenFee.sol\":744:748  from */\n      dup9\n      sub(shl(0xa0, 0x01), 0x01)\n        /* \"mocks/MockTokenFee.sol\":734:749  balanceOf[from] */\n      and\n      sub(shl(0xa0, 0x01), 0x01)\n      and\n      dup2\n      mstore\n      0x20\n      add\n      swap1\n      dup2\n      mstore\n      0x20\n      add\n      0x00\n      keccak256\n      0x00\n        /* \"mocks/MockTokenFee.sol\":734:759  balanceOf[from] -= amount */\n      dup3\n      dup3\n      sload\n      tag_44\n      swap2\n      swap1\n      tag_43\n      jump\t// in\n    tag_44:\n      swap1\n      swap2\n      sstore\n      pop\n      pop\n      sub(shl(0xa0, 0x01), 0x01)\n        /* \"mocks/MockTokenFee.sol\":769:782  balanceOf[to] */\n      dup6\n      and\n        /* \"mocks/MockTokenFee.sol\":769:778  balanceOf */\n      0x00\n        /* \"mocks/MockTokenFee.sol\":769:782  balanceOf[to] */\n      swap1\n      dup2\n      mstore\n      0x20\n      dup2\n      swap1\n      mstore\n      0x40\n      dup2\n      keccak256\n        /* \"mocks/MockTokenFee.sol\":769:800  balanceOf[to] += amountReceived */\n      dup1\n      sload\n        /* \"mocks/MockTokenFee.sol\":786:800  amountReceived */\n      dup4\n      swap3\n        /* \"mocks/MockTokenFee.sol\":769:778  balanceOf */\n      swap1\n        /* \"mocks/MockTokenFee.sol\":769:800  balanceOf[to] += amountReceived */\n      tag_45\n      swap1\n        /* \"mocks/MockTokenFee.sol\":786:800  amountReceived */\n      dup5\n      swap1\n        /* \"mocks/MockTokenFee.sol\":769:800  balanceOf[to] += amountReceived */\n      tag_46\n      jump\t// in\n    tag_45:\n      swap1\n      swap2\n      sstore\n      pop\n        /* \"mocks/MockTokenFee.sol\":818:822  true */\n      0x01\n      swap8\n        /* \"mocks/MockTokenFee.sol\":534:829  function transferFrom(address from, address to, uint256 amount) external returns (bool) {... */\n      swap7\n      pop\n      pop\n      pop\n      pop\n      pop\n      pop\n      pop\n      jump\t// out\n        /* \"mocks/MockTokenFee.sol\":280:371  function mint(address to, uint256 amount) external {... */\n    tag_22:\n      sub(shl(0xa0, 0x01), 0x01)\n        /* \"mocks/MockTokenFee.sol\":341:354  balanceOf[to] */\n      dup3\n      and\n        /* \"mocks/MockTokenFee.sol\":341:350  balanceOf */\n      0x00\n        /* \"mocks/MockTokenFee.sol\":341:354  balanceOf[to] */\n      swap1\n      dup2\n      mstore\n      0x20\n      dup2\n      swap1\n      mstore\n      0x40\n      dup2\n      keccak256\n        /* \"mocks/MockTokenFee.sol\":341:364  balanceOf[to] += amount */\n      dup1\n      sload\n        /* \"mocks/MockTokenFee.sol\":358:364  amount */\n      dup4\n      swap3\n        /* \"mocks/MockTokenFee.sol\":341:350  balanceOf */\n      swap1\n        /* \"mocks/MockTokenFee.sol\":341:364  balanceOf[to] += amount */\n      tag_48\n      swap1\n        /* \"mocks/MockTokenFee.sol\":358:364  amount */\n      dup5\n      swap1\n        /* \"mocks/MockTokenFee.sol\":341:364  balanceOf[to] += amount */\n      tag_46\n      jump\t// in\n    tag_48:\n      swap1\n      swap2\n      sstore\n      pop\n      pop\n      pop\n      pop\n        /* \"mocks/MockTokenFee.sol\":280:371  function mint(address to, uint256 amount) external {... */\n      jump\t// out\n        /* \"mocks/MockTokenFee.sol\":835:1081  function transfer(address to, uint256 amount) external returns (bool) {... */\n    tag_31:\n        /* \"mocks/MockTokenFee.sol\":933:943  msg.sender */\n      caller\n        /* \"mocks/MockTokenFee.sol\":899:903  bool */\n      0x00\n        /* \"mocks/MockTokenFee.sol\":923:944  balanceOf[msg.sender] */\n      swap1\n      dup2\n      mstore\n      0x20\n      dup2\n      swap1\n      mstore\n      0x40\n      dup2\n      keccak256\n      sload\n        /* \"mocks/MockTokenFee.sol\":923:954  balanceOf[msg.sender] >= amount */\n      dup3\n      gt\n      iszero\n        /* \"mocks/MockTokenFee.sol\":915:979  require(balanceOf[msg.sender] >= amount, \"Insufficient balance\") */\n      tag_50\n      jumpi\n      mload(0x40)\n      shl(0xe5, 0x461bcd)\n      dup2\n      mstore\n        /* \"#utility.yul\":2525:2527   */\n      0x20\n        /* \"mocks/MockTokenFee.sol\":915:979  require(balanceOf[msg.sender] >= amount, \"Insufficient balance\") */\n      0x04\n      dup3\n      add\n        /* \"#utility.yul\":2507:2528   */\n      mstore\n        /* \"#utility.yul\":2564:2566   */\n      0x14\n        /* \"#utility.yul\":2544:2562   */\n      0x24\n      dup3\n      add\n        /* \"#utility.yul\":2537:2567   */\n      mstore\n      shl(0x60, 0x496e73756666696369656e742062616c616e6365)\n        /* \"#utility.yul\":2583:2601   */\n      0x44\n      dup3\n      add\n        /* \"#utility.yul\":2576:2626   */\n      mstore\n        /* \"#utility.yul\":2643:2661   */\n      0x64\n      add\n        /* \"mocks/MockTokenFee.sol\":915:979  require(balanceOf[msg.sender] >= amount, \"Insufficient balance\") */\n      mload(0x40)\n      dup1\n      swap2\n      sub\n      swap1\n      revert\n    tag_50:\n        /* \"mocks/MockTokenFee.sol\":999:1009  msg.sender */\n      caller\n        /* \"mocks/MockTokenFee.sol\":989:998  balanceOf */\n      0x00\n        /* \"mocks/MockTokenFee.sol\":989:1010  balanceOf[msg.sender] */\n      swap1\n      dup2\n      mstore\n      0x20\n      dup2\n      swap1\n      mstore\n      0x40\n      dup2\n      keccak256\n        /* \"mocks/MockTokenFee.sol\":989:1020  balanceOf[msg.sender] -= amount */\n      dup1\n      sload\n        /* \"mocks/MockTokenFee.sol\":1014:1020  amount */\n      dup5\n      swap3\n        /* \"mocks/MockTokenFee.sol\":989:998  balanceOf */\n      swap1\n        /* \"mocks/MockTokenFee.sol\":989:1020  balanceOf[msg.sender] -= amount */\n      tag_53\n      swap1\n        /* \"mocks/MockTokenFee.sol\":1014:1020  amount */\n      dup5\n      swap1\n        /* \"mocks/MockTokenFee.sol\":989:1020  balanceOf[msg.sender] -= amount */\n      tag_43\n      jump\t// in\n    tag_53:\n      swap1\n      swap2\n      sstore\n      pop\n      pop\n      sub(shl(0xa0, 0x01), 0x01)\n        /* \"mocks/MockTokenFee.sol\":1030:1043  balanceOf[to] */\n      dup4\n      and\n        /* \"mocks/MockTokenFee.sol\":1030:1039  balanceOf */\n      0x00\n        /* \"mocks/MockTokenFee.sol\":1030:1043  balanceOf[to] */\n      swap1\n      dup2\n      mstore\n      0x20\n      dup2\n      swap1\n      mstore\n      0x40\n      dup2\n      keccak256\n        /* \"mocks/MockTokenFee.sol\":1030:1053  balanceOf[to] += amount */\n      dup1\n      sload\n        /* \"mocks/MockTokenFee.sol\":1047:1053  amount */\n      dup5\n      swap3\n        /* \"mocks/MockTokenFee.sol\":1030:1039  balanceOf */\n      swap1\n        /* \"mocks/MockTokenFee.sol\":1030:1053  balanceOf[to] += amount */\n      tag_54\n      swap1\n        /* \"mocks/MockTokenFee.sol\":1047:1053  amount */\n      dup5\n      swap1\n        /* \"mocks/MockTokenFee.sol\":1030:1053  balanceOf[to] += amount */\n      tag_46\n      jump\t// in\n    tag_54:\n      swap1\n      swap2\n      sstore\n      pop\n        /* \"mocks/MockTokenFee.sol\":1070:1074  true */\n      0x01\n      swap5\n        /* \"mocks/MockTokenFee.sol\":835:1081  function transfer(address to, uint256 amount) external returns (bool) {... */\n      swap4\n      pop\n      pop\n      pop\n      pop\n      jump\t// out\n        /* \"#utility.yul\":14:187   */\n    tag_55:\n        /* \"#utility.yul\":82:102   */\n      dup1\n      calldataload\n      sub(shl(0xa0, 0x01), 0x01)\n        /* \"#utility.yul\":131:162   */\n      dup2\n      and\n        /* \"#utility.yul\":121:163   */\n      dup2\n      eq\n        /* \"#utility.yul\":111:181   */\n      tag_59\n      jumpi\n        /* \"#utility.yul\":177:178   */\n      0x00\n        /* \"#utility.yul\":174:175   */\n      0x00\n        /* \"#utility.yul\":167:179   */\n      revert\n        /* \"#utility.yul\":111:181   */\n    tag_59:\n        /* \"#utility.yul\":14:187   */\n      swap2\n      swap1\n      pop\n      jump\t// out\n        /* \"#utility.yul\":192:492   */\n    tag_11:\n        /* \"#utility.yul\":260:266   */\n      0x00\n        /* \"#utility.yul\":268:274   */\n      0x00\n        /* \"#utility.yul\":321:323   */\n      0x40\n        /* \"#utility.yul\":309:318   */\n      dup4\n        /* \"#utility.yul\":300:307   */\n      dup6\n        /* \"#utility.yul\":296:319   */\n      sub\n        /* \"#utility.yul\":292:324   */\n      slt\n        /* \"#utility.yul\":289:341   */\n      iszero\n      tag_61\n      jumpi\n        /* \"#utility.yul\":337:338   */\n      0x00\n        /* \"#utility.yul\":334:335   */\n      0x00\n        /* \"#utility.yul\":327:339   */\n      revert\n        /* \"#utility.yul\":289:341   */\n    tag_61:\n        /* \"#utility.yul\":360:389   */\n      tag_62\n        /* \"#utility.yul\":379:388   */\n      dup4\n        /* \"#utility.yul\":360:389   */\n      tag_55\n      jump\t// in\n    tag_62:\n        /* \"#utility.yul\":350:389   */\n      swap5\n        /* \"#utility.yul\":458:460   */\n      0x20\n        /* \"#utility.yul\":443:461   */\n      swap4\n      swap1\n      swap4\n      add\n        /* \"#utility.yul\":430:462   */\n      calldataload\n      swap4\n      pop\n      pop\n      pop\n        /* \"#utility.yul\":192:492   */\n      jump\t// out\n        /* \"#utility.yul\":689:1063   */\n    tag_17:\n        /* \"#utility.yul\":766:772   */\n      0x00\n        /* \"#utility.yul\":774:780   */\n      0x00\n        /* \"#utility.yul\":782:788   */\n      0x00\n        /* \"#utility.yul\":835:837   */\n      0x60\n        /* \"#utility.yul\":823:832   */\n      dup5\n        /* \"#utility.yul\":814:821   */\n      dup7\n        /* \"#utility.yul\":810:833   */\n      sub\n        /* \"#utility.yul\":806:838   */\n      slt\n        /* \"#utility.yul\":803:855   */\n      iszero\n      tag_65\n      jumpi\n        /* \"#utility.yul\":851:852   */\n      0x00\n        /* \"#utility.yul\":848:849   */\n      0x00\n        /* \"#utility.yul\":841:853   */\n      revert\n        /* \"#utility.yul\":803:855   */\n    tag_65:\n        /* \"#utility.yul\":874:903   */\n      tag_66\n        /* \"#utility.yul\":893:902   */\n      dup5\n        /* \"#utility.yul\":874:903   */\n      tag_55\n      jump\t// in\n    tag_66:\n        /* \"#utility.yul\":864:903   */\n      swap3\n      pop\n        /* \"#utility.yul\":922:960   */\n      tag_67\n        /* \"#utility.yul\":956:958   */\n      0x20\n        /* \"#utility.yul\":945:954   */\n      dup6\n        /* \"#utility.yul\":941:959   */\n      add\n        /* \"#utility.yul\":922:960   */\n      tag_55\n      jump\t// in\n    tag_67:\n        /* \"#utility.yul\":689:1063   */\n      swap3\n      swap6\n        /* \"#utility.yul\":912:960   */\n      swap3\n      swap5\n      pop\n      pop\n      pop\n        /* \"#utility.yul\":1029:1031   */\n      0x40\n        /* \"#utility.yul\":1014:1032   */\n      swap2\n      swap1\n      swap2\n      add\n        /* \"#utility.yul\":1001:1033   */\n      calldataload\n      swap1\n        /* \"#utility.yul\":689:1063   */\n      jump\t// out\n        /* \"#utility.yul\":1068:1254   */\n    tag_25:\n        /* \"#utility.yul\":1127:1133   */\n      0x00\n        /* \"#utility.yul\":1180:1182   */\n      0x20\n        /* \"#utility.yul\":1168:1177   */\n      dup3\n        /* \"#utility.yul\":1159:1166   */\n      dup5\n        /* \"#utility.yul\":1155:1178   */\n      sub\n        /* \"#utility.yul\":1151:1183   */\n      slt\n        /* \"#utility.yul\":1148:1200   */\n      iszero\n      tag_69\n      jumpi\n        /* \"#utility.yul\":1196:1197   */\n      0x00\n        /* \"#utility.yul\":1193:1194   */\n      0x00\n        /* \"#utility.yul\":1186:1198   */\n      revert\n        /* \"#utility.yul\":1148:1200   */\n    tag_69:\n        /* \"#utility.yul\":1219:1248   */\n      tag_70\n        /* \"#utility.yul\":1238:1247   */\n      dup3\n        /* \"#utility.yul\":1219:1248   */\n      tag_55\n      jump\t// in\n    tag_70:\n        /* \"#utility.yul\":1209:1248   */\n      swap4\n        /* \"#utility.yul\":1068:1254   */\n      swap3\n      pop\n      pop\n      pop\n      jump\t// out\n        /* \"#utility.yul\":1441:1701   */\n    tag_35:\n        /* \"#utility.yul\":1509:1515   */\n      0x00\n        /* \"#utility.yul\":1517:1523   */\n      0x00\n        /* \"#utility.yul\":1570:1572   */\n      0x40\n        /* \"#utility.yul\":1558:1567   */\n      dup4\n        /* \"#utility.yul\":1549:1556   */\n      dup6\n        /* \"#utility.yul\":1545:1568   */\n      sub\n        /* \"#utility.yul\":1541:1573   */\n      slt\n        /* \"#utility.yul\":1538:1590   */\n      iszero\n      tag_73\n      jumpi\n        /* \"#utility.yul\":1586:1587   */\n      0x00\n        /* \"#utility.yul\":1583:1584   */\n      0x00\n        /* \"#utility.yul\":1576:1588   */\n      revert\n        /* \"#utility.yul\":1538:1590   */\n    tag_73:\n        /* \"#utility.yul\":1609:1638   */\n      tag_74\n        /* \"#utility.yul\":1628:1637   */\n      dup4\n        /* \"#utility.yul\":1609:1638   */\n      tag_55\n      jump\t// in\n    tag_74:\n        /* \"#utility.yul\":1599:1638   */\n      swap2\n      pop\n        /* \"#utility.yul\":1657:1695   */\n      tag_75\n        /* \"#utility.yul\":1691:1693   */\n      0x20\n        /* \"#utility.yul\":1680:1689   */\n      dup5\n        /* \"#utility.yul\":1676:1694   */\n      add\n        /* \"#utility.yul\":1657:1695   */\n      tag_55\n      jump\t// in\n    tag_75:\n        /* \"#utility.yul\":1647:1695   */\n      swap1\n      pop\n        /* \"#utility.yul\":1441:1701   */\n      swap3\n      pop\n      swap3\n      swap1\n      pop\n      jump\t// out\n        /* \"#utility.yul\":1706:1833   */\n    tag_56:\n        /* \"#utility.yul\":1767:1777   */\n      0x4e487b71\n        /* \"#utility.yul\":1762:1765   */\n      0xe0\n        /* \"#utility.yul\":1758:1778   */\n      shl\n        /* \"#utility.yul\":1755:1756   */\n      0x00\n        /* \"#utility.yul\":1748:1779   */\n      mstore\n        /* \"#utility.yul\":1798:1802   */\n      0x11\n        /* \"#utility.yul\":1795:1796   */\n      0x04\n        /* \"#utility.yul\":1788:1803   */\n      mstore\n        /* \"#utility.yul\":1822:1826   */\n      0x24\n        /* \"#utility.yul\":1819:1820   */\n      0x00\n        /* \"#utility.yul\":1812:1827   */\n      revert\n        /* \"#utility.yul\":1838:2055   */\n    tag_41:\n        /* \"#utility.yul\":1878:1879   */\n      0x00\n        /* \"#utility.yul\":1904:1905   */\n      dup3\n        /* \"#utility.yul\":1894:2026   */\n      tag_78\n      jumpi\n        /* \"#utility.yul\":1948:1958   */\n      0x4e487b71\n        /* \"#utility.yul\":1943:1946   */\n      0xe0\n        /* \"#utility.yul\":1939:1959   */\n      shl\n        /* \"#utility.yul\":1936:1937   */\n      0x00\n        /* \"#utility.yul\":1929:1960   */\n      mstore\n        /* \"#utility.yul\":1983:1987   */\n      0x12\n        /* \"#utility.yul\":1980:1981   */\n      0x04\n        /* \"#utility.yul\":1973:1988   */\n      mstore\n        /* \"#utility.yul\":2011:2015   */\n      0x24\n        /* \"#utility.yul\":2008:2009   */\n      0x00\n        /* \"#utility.yul\":2001:2016   */\n      revert\n        /* \"#utility.yul\":1894:2026   */\n    tag_78:\n      pop\n        /* \"#utility.yul\":2040:2049   */\n      div\n      swap1\n        /* \"#utility.yul\":1838:2055   */\n      jump\t// out\n        /* \"#utility.yul\":2060:2188   */\n    tag_43:\n        /* \"#utility.yul\":2127:2136   */\n      dup2\n      dup2\n      sub\n        /* \"#utility.yul\":2148:2159   */\n      dup2\n      dup2\n      gt\n        /* \"#utility.yul\":2145:2182   */\n      iszero\n      tag_38\n      jumpi\n        /* \"#utility.yul\":2162:2180   */\n      tag_38\n      tag_56\n      jump\t// in\n        /* \"#utility.yul\":2193:2318   */\n    tag_46:\n        /* \"#utility.yul\":2258:2267   */\n      dup1\n      dup3\n      add\n        /* \"#utility.yul\":2279:2289   */\n      dup1\n      dup3\n      gt\n        /* \"#utility.yul\":2276:2312   */\n      iszero\n      tag_38\n      jumpi\n        /* \"#utility.yul\":2292:2310   */\n      tag_38\n      tag_56\n      jump\t// in\n\n    auxdata: 0xa264697066735822122048f3e2373765ce1eaa500f3afab16c237720f3a3a5f0bb602d235fc4c12b60d864736f6c634300081e0033\n}\n",
				"bytecode": {
					"linkReferences": {},
					"object": "6080604052348015600e575f5ffd5b50335f90815260208190526040902069d3c21bcecceda10000009055610413806100375f395ff3fe608060405234801561000f575f5ffd5b5060043610610060575f3560e01c8063095ea7b31461006457806323b872dd1461008c57806340c10f191461009f57806370a08231146100b4578063a9059cbb146100e1578063dd62ed3e146100f4575b5f5ffd5b6100776100723660046102d1565b61011e565b60405190151581526020015b60405180910390f35b61007761009a3660046102f9565b61014b565b6100b26100ad3660046102d1565b6101d5565b005b6100d36100c2366004610333565b5f6020819052908152604090205481565b604051908152602001610083565b6100776100ef3660046102d1565b610205565b6100d3610102366004610353565b600160209081525f928352604080842090915290825290205481565b335f9081526001602081815260408084206001600160a01b03871685529091529091208290555b92915050565b5f80610158606484610398565b90505f61016582856103b7565b9050835f5f886001600160a01b03166001600160a01b031681526020019081526020015f205f82825461019891906103b7565b90915550506001600160a01b0385165f90815260208190526040812080548392906101c49084906103ca565b909155506001979650505050505050565b6001600160a01b0382165f90815260208190526040812080548392906101fc9084906103ca565b90915550505050565b335f9081526020819052604081205482111561025e5760405162461bcd60e51b8152602060048201526014602482015273496e73756666696369656e742062616c616e636560601b604482015260640160405180910390fd5b335f908152602081905260408120805484929061027c9084906103b7565b90915550506001600160a01b0383165f90815260208190526040812080548492906102a89084906103ca565b909155506001949350505050565b80356001600160a01b03811681146102cc575f5ffd5b919050565b5f5f604083850312156102e2575f5ffd5b6102eb836102b6565b946020939093013593505050565b5f5f5f6060848603121561030b575f5ffd5b610314846102b6565b9250610322602085016102b6565b929592945050506040919091013590565b5f60208284031215610343575f5ffd5b61034c826102b6565b9392505050565b5f5f60408385031215610364575f5ffd5b61036d836102b6565b915061037b602084016102b6565b90509250929050565b634e487b7160e01b5f52601160045260245ffd5b5f826103b257634e487b7160e01b5f52601260045260245ffd5b500490565b8181038181111561014557610145610384565b808201808211156101455761014561038456fea264697066735822122048f3e2373765ce1eaa500f3afab16c237720f3a3a5f0bb602d235fc4c12b60d864736f6c634300081e0033",
					"opcodes": "PUSH1 0x80 PUSH1 0x40 MSTORE CALLVALUE DUP1 ISZERO PUSH1 0xE JUMPI PUSH0 PUSH0 REVERT JUMPDEST POP CALLER PUSH0 SWAP1 DUP2 MSTORE PUSH1 0x20 DUP2 SWAP1 MSTORE PUSH1 0x40 SWAP1 KECCAK256 PUSH10 0xD3C21BCECCEDA1000000 SWAP1 SSTORE PUSH2 0x413 DUP1 PUSH2 0x37 PUSH0 CODECOPY PUSH0 RETURN INVALID PUSH1 0x80 PUSH1 0x40 MSTORE CALLVALUE DUP1 ISZERO PUSH2 0xF JUMPI PUSH0 PUSH0 REVERT JUMPDEST POP PUSH1 0x4 CALLDATASIZE LT PUSH2 0x60 JUMPI PUSH0 CALLDATALOAD PUSH1 0xE0 SHR DUP1 PUSH4 0x95EA7B3 EQ PUSH2 0x64 JUMPI DUP1 PUSH4 0x23B872DD EQ PUSH2 0x8C JUMPI DUP1 PUSH4 0x40C10F19 EQ PUSH2 0x9F JUMPI DUP1 PUSH4 0x70A08231 EQ PUSH2 0xB4 JUMPI DUP1 PUSH4 0xA9059CBB EQ PUSH2 0xE1 JUMPI DUP1 PUSH4 0xDD62ED3E EQ PUSH2 0xF4 JUMPI JUMPDEST PUSH0 PUSH0 REVERT JUMPDEST PUSH2 0x77 PUSH2 0x72 CALLDATASIZE PUSH1 0x4 PUSH2 0x2D1 JUMP JUMPDEST PUSH2 0x11E JUMP JUMPDEST PUSH1 0x40 MLOAD SWAP1 ISZERO ISZERO DUP2 MSTORE PUSH1 0x20 ADD JUMPDEST PUSH1 0x40 MLOAD DUP1 SWAP2 SUB SWAP1 RETURN JUMPDEST PUSH2 0x77 PUSH2 0x9A CALLDATASIZE PUSH1 0x4 PUSH2 0x2F9 JUMP JUMPDEST PUSH2 0x14B JUMP JUMPDEST PUSH2 0xB2 PUSH2 0xAD CALLDATASIZE PUSH1 0x4 PUSH2 0x2D1 JUMP JUMPDEST PUSH2 0x1D5 JUMP JUMPDEST STOP JUMPDEST PUSH2 0xD3 PUSH2 0xC2 CALLDATASIZE PUSH1 0x4 PUSH2 0x333 JUMP JUMPDEST PUSH0 PUSH1 0x20 DUP2 SWAP1 MSTORE SWAP1 DUP2 MSTORE PUSH1 0x40 SWAP1 KECCAK256 SLOAD DUP2 JUMP JUMPDEST PUSH1 0x40 MLOAD SWAP1 DUP2 MSTORE PUSH1 0x20 ADD PUSH2 0x83 JUMP JUMPDEST PUSH2 0x77 PUSH2 0xEF CALLDATASIZE PUSH1 0x4 PUSH2 0x2D1 JUMP JUMPDEST PUSH2 0x205 JUMP JUMPDEST PUSH2 0xD3 PUSH2 0x102 CALLDATASIZE PUSH1 0x4 PUSH2 0x353 JUMP JUMPDEST PUSH1 0x1 PUSH1 0x20 SWAP1 DUP2 MSTORE PUSH0 SWAP3 DUP4 MSTORE PUSH1 0x40 DUP1 DUP5 KECCAK256 SWAP1 SWAP2 MSTORE SWAP1 DUP3 MSTORE SWAP1 KECCAK256 SLOAD DUP2 JUMP JUMPDEST CALLER PUSH0 SWAP1 DUP2 MSTORE PUSH1 0x1 PUSH1 0x20 DUP2 DUP2 MSTORE PUSH1 0x40 DUP1 DUP5 KECCAK256 PUSH1 0x1 PUSH1 0x1 PUSH1 0xA0 SHL SUB DUP8 AND DUP6 MSTORE SWAP1 SWAP2 MSTORE SWAP1 SWAP2 KECCAK256 DUP3 SWAP1 SSTORE JUMPDEST SWAP3 SWAP2 POP POP JUMP JUMPDEST PUSH0 DUP1 PUSH2 0x158 PUSH1 0x64 DUP5 PUSH2 0x398 JUMP JUMPDEST SWAP1 POP PUSH0 PUSH2 0x165 DUP3 DUP6 PUSH2 0x3B7 JUMP JUMPDEST SWAP1 POP DUP4 PUSH0 PUSH0 DUP9 PUSH1 0x1 PUSH1 0x1 PUSH1 0xA0 SHL SUB AND PUSH1 0x1 PUSH1 0x1 PUSH1 0xA0 SHL SUB AND DUP2 MSTORE PUSH1 0x20 ADD SWAP1 DUP2 MSTORE PUSH1 0x20 ADD PUSH0 KECCAK256 PUSH0 DUP3 DUP3 SLOAD PUSH2 0x198 SWAP2 SWAP1 PUSH2 0x3B7 JUMP JUMPDEST SWAP1 SWAP2 SSTORE POP POP PUSH1 0x1 PUSH1 0x1 PUSH1 0xA0 SHL SUB DUP6 AND PUSH0 SWAP1 DUP2 MSTORE PUSH1 0x20 DUP2 SWAP1 MSTORE PUSH1 0x40 DUP2 KECCAK256 DUP1 SLOAD DUP4 SWAP3 SWAP1 PUSH2 0x1C4 SWAP1 DUP5 SWAP1 PUSH2 0x3CA JUMP JUMPDEST SWAP1 SWAP2 SSTORE POP PUSH1 0x1 SWAP8 SWAP7 POP POP POP POP POP POP POP JUMP JUMPDEST PUSH1 0x1 PUSH1 0x1 PUSH1 0xA0 SHL SUB DUP3 AND PUSH0 SWAP1 DUP2 MSTORE PUSH1 0x20 DUP2 SWAP1 MSTORE PUSH1 0x40 DUP2 KECCAK256 DUP1 SLOAD DUP4 SWAP3 SWAP1 PUSH2 0x1FC SWAP1 DUP5 SWAP1 PUSH2 0x3CA JUMP JUMPDEST SWAP1 SWAP2 SSTORE POP POP POP POP JUMP JUMPDEST CALLER PUSH0 SWAP1 DUP2 MSTORE PUSH1 0x20 DUP2 SWAP1 MSTORE PUSH1 0x40 DUP2 KECCAK256 SLOAD DUP3 GT ISZERO PUSH2 0x25E JUMPI PUSH1 0x40 MLOAD PUSH3 0x461BCD PUSH1 0xE5 SHL DUP2 MSTORE PUSH1 0x20 PUSH1 0x4 DUP3 ADD MSTORE PUSH1 0x14 PUSH1 0x24 DUP3 ADD MSTORE PUSH20 0x496E73756666696369656E742062616C616E6365 PUSH1 0x60 SHL PUSH1 0x44 DUP3 ADD MSTORE PUSH1 0x64 ADD PUSH1 0x40 MLOAD DUP1 SWAP2 SUB SWAP1 REVERT JUMPDEST CALLER PUSH0 SWAP1 DUP2 MSTORE PUSH1 0x20 DUP2 SWAP1 MSTORE PUSH1 0x40 DUP2 KECCAK256 DUP1 SLOAD DUP5 SWAP3 SWAP1 PUSH2 0x27C SWAP1 DUP5 SWAP1 PUSH2 0x3B7 JUMP JUMPDEST SWAP1 SWAP2 SSTORE POP POP PUSH1 0x1 PUSH1 0x1 PUSH1 0xA0 SHL SUB DUP4 AND PUSH0 SWAP1 DUP2 MSTORE PUSH1 0x20 DUP2 SWAP1 MSTORE PUSH1 0x40 DUP2 KECCAK256 DUP1 SLOAD DUP5 SWAP3 SWAP1 PUSH2 0x2A8 SWAP1 DUP5 SWAP1 PUSH2 0x3CA JUMP JUMPDEST SWAP1 SWAP2 SSTORE POP PUSH1 0x1 SWAP5 SWAP4 POP POP POP POP JUMP JUMPDEST DUP1 CALLDATALOAD PUSH1 0x1 PUSH1 0x1 PUSH1 0xA0 SHL SUB DUP2 AND DUP2 EQ PUSH2 0x2CC JUMPI PUSH0 PUSH0 REVERT JUMPDEST SWAP2 SWAP1 POP JUMP JUMPDEST PUSH0 PUSH0 PUSH1 0x40 DUP4 DUP6 SUB SLT ISZERO PUSH2 0x2E2 JUMPI PUSH0 PUSH0 REVERT JUMPDEST PUSH2 0x2EB DUP4 PUSH2 0x2B6 JUMP JUMPDEST SWAP5 PUSH1 0x20 SWAP4 SWAP1 SWAP4 ADD CALLDATALOAD SWAP4 POP POP POP JUMP JUMPDEST PUSH0 PUSH0 PUSH0 PUSH1 0x60 DUP5 DUP7 SUB SLT ISZERO PUSH2 0x30B JUMPI PUSH0 PUSH0 REVERT JUMPDEST PUSH2 0x314 DUP5 PUSH2 0x2B6 JUMP JUMPDEST SWAP3 POP PUSH2 0x322 PUSH1 0x20 DUP6 ADD PUSH2 0x2B6 JUMP JUMPDEST SWAP3 SWAP6 SWAP3 SWAP5 POP POP POP PUSH1 0x40 SWAP2 SWAP1 SWAP2 ADD CALLDATALOAD SWAP1 JUMP JUMPDEST PUSH0 PUSH1 0x20 DUP3 DUP5 SUB SLT ISZERO PUSH2 0x343 JUMPI PUSH0 PUSH0 REVERT JUMPDEST PUSH2 0x34C DUP3 PUSH2 0x2B6 JUMP JUMPDEST SWAP4 SWAP3 POP POP POP JUMP JUMPDEST PUSH0 PUSH0 PUSH1 0x40 DUP4 DUP6 SUB SLT ISZERO PUSH2 0x364 JUMPI PUSH0 PUSH0 REVERT JUMPDEST PUSH2 0x36D DUP4 PUSH2 0x2B6 JUMP JUMPDEST SWAP2 POP PUSH2 0x37B PUSH1 0x20 DUP5 ADD PUSH2 0x2B6 JUMP JUMPDEST SWAP1 POP SWAP3 POP SWAP3 SWAP1 POP JUMP JUMPDEST PUSH4 0x4E487B71 PUSH1 0xE0 SHL PUSH0 MSTORE PUSH1 0x11 PUSH1 0x4 MSTORE PUSH1 0x24 PUSH0 REVERT JUMPDEST PUSH0 DUP3 PUSH2 0x3B2 JUMPI PUSH4 0x4E487B71 PUSH1 0xE0 SHL PUSH0 MSTORE PUSH1 0x12 PUSH1 0x4 MSTORE PUSH1 0x24 PUSH0 REVERT JUMPDEST POP DIV SWAP1 JUMP JUMPDEST DUP2 DUP2 SUB DUP2 DUP2 GT ISZERO PUSH2 0x145 JUMPI PUSH2 0x145 PUSH2 0x384 JUMP JUMPDEST DUP1 DUP3 ADD DUP1 DUP3 GT ISZERO PUSH2 0x145 JUMPI PUSH2 0x145 PUSH2 0x384 JUMP INVALID LOG2 PUSH5 0x6970667358 0x22 SLT KECCAK256 BASEFEE RETURN 0xE2 CALLDATACOPY CALLDATACOPY PUSH6 0xCE1EAA500F3A STATICCALL 0xB1 PUSH13 0x237720F3A3A5F0BB602D235FC4 0xC1 0x2B PUSH1 0xD8 PUSH5 0x736F6C6343 STOP ADDMOD 0x1E STOP CALLER "
				},
				"gasEstimates": {
					"creation": {
						"codeDepositCost": "208600",
						"executionCost": "22428",
						"totalCost": "231028"
					},
					"external": {
						"allowance(address,address)": "infinite",
						"approve(address,uint256)": "22630",
						"balanceOf(address)": "2563",
						"mint(address,uint256)": "24738",
						"transfer(address,uint256)": "infinite",
						"transferFrom(address,address,uint256)": "infinite"
					}
				},
				"methodIdentifiers": {
					"allowance(address,address)": "dd62ed3e",
					"approve(address,uint256)": "095ea7b3",
					"balanceOf(address)": "70a08231",
					"mint(address,uint256)": "40c10f19",
					"transfer(address,uint256)": "a9059cbb",
					"transferFrom(address,address,uint256)": "23b872dd"
				}
			},
			"storageLayout": {
				"storage": [
					{
						"astId": 5,
						"contract": "mocks/MockTokenFee.sol:MockFeeToken",
						"label": "balanceOf",
						"offset": 0,
						"slot": "0",
						"type": "t_mapping(t_address,t_uint256)"
					},
					{
						"astId": 11,
						"contract": "mocks/MockTokenFee.sol:MockFeeToken",
						"label": "allowance",
						"offset": 0,
						"slot": "1",
						"type": "t_mapping(t_address,t_mapping(t_address,t_uint256))"
					}
				],
				"types": {
					"t_address": {
						"encoding": "inplace",
						"label": "address",
						"numberOfBytes": "20"
					},
					"t_mapping(t_address,t_mapping(t_address,t_uint256))": {
						"encoding": "mapping",
						"key": "t_address",
						"label": "mapping(address => mapping(address => uint256))",
						"numberOfBytes": "32",
						"value": "t_mapping(t_address,t_uint256)"
					},
					"t_mapping(t_address,t_uint256)": {
						"encoding": "mapping",
						"key": "t_address",
						"label": "mapping(address => uint256)",
						"numberOfBytes": "32",
						"value": "t_uint256"
					},
					"t_uint256": {
						"encoding": "inplace",
						"label": "uint256",
						"numberOfBytes": "32"
					}
				}
			},
			"userdoc": {
				"kind": "user",
				"methods": {},
				"version": 1
			}
		}
	}
}