{
	"GetHash.sol": {
		"GetHash": {
			"abi": [
				{
					"inputs": [
						{
							"internalType": "address",
							"name": "investor",
							"type": "address"
						},
						{
							"internalType": "address",
							"name": "saleContract",
							"type": "address"
						},
						{
							"internalType": "uint256",
							"name": "investAmount",
							"type": "uint256"
						},
						{
							"internalType": "uint256",
							"name": "tokenAllocationRate",
							"type": "uint256"
						},
						{
							"internalType": "uint8",
							"name": "action",
							"type": "uint8"
						}
					],
					"name": "getHash",
					"outputs": [
						{
							"internalType": "bytes32",
							"name": "",
							"type": "bytes32"
						}
					],
					"stateMutability": "pure",
					"type": "function"
				}
			],
			"devdoc": {
				"kind": "dev",
				"methods": {},
				"version": 1
			},
			"evm": {
				"assembly": "    /* \"GetHash.sol\":57:594  contract GetHash {... */\n  mstore(0x40, 0x80)\n  callvalue\n  dup1\n  iszero\n  tag_1\n  jumpi\n  revert(0x00, 0x00)\ntag_1:\n  pop\n  dataSize(sub_0)\n  dup1\n  dataOffset(sub_0)\n  0x00\n  codecopy\n  0x00\n  return\nstop\n\nsub_0: assembly {\n        /* \"GetHash.sol\":57:594  contract GetHash {... */\n      mstore(0x40, 0x80)\n      callvalue\n      dup1\n      iszero\n      tag_1\n      jumpi\n      revert(0x00, 0x00)\n    tag_1:\n      pop\n      jumpi(tag_2, lt(calldatasize, 0x04))\n      shr(0xe0, calldataload(0x00))\n      dup1\n      0xe9683c98\n      eq\n      tag_3\n      jumpi\n    tag_2:\n      revert(0x00, 0x00)\n        /* \"GetHash.sol\":160:592  function getHash(... */\n    tag_3:\n      tag_4\n      tag_5\n      calldatasize\n      0x04\n      tag_6\n      jump\t// in\n    tag_5:\n        /* \"GetHash.sol\":398:575  abi.encodePacked(... */\n      0x40\n      dup1\n      mload\n        /* \"#utility.yul\":1297:1299   */\n      0x60\n        /* \"#utility.yul\":1293:1308   */\n      swap7\n      dup8\n      shl\n      not(0xffffffffffffffffffffffff)\n        /* \"#utility.yul\":1289:1342   */\n      swap1\n      dup2\n      and\n        /* \"GetHash.sol\":398:575  abi.encodePacked(... */\n      0x20\n      dup1\n      dup5\n      add\n        /* \"#utility.yul\":1277:1343   */\n      swap2\n      swap1\n      swap2\n      mstore\n        /* \"#utility.yul\":1377:1392   */\n      swap7\n      swap1\n      swap8\n      shl\n        /* \"#utility.yul\":1373:1426   */\n      swap1\n      swap7\n      and\n        /* \"#utility.yul\":1359:1371   */\n      0x34\n      dup8\n      add\n        /* \"#utility.yul\":1352:1427   */\n      mstore\n        /* \"#utility.yul\":1443:1455   */\n      0x48\n      dup7\n      add\n        /* \"#utility.yul\":1436:1464   */\n      swap4\n      swap1\n      swap4\n      mstore\n        /* \"#utility.yul\":1480:1492   */\n      0x68\n      dup6\n      add\n        /* \"#utility.yul\":1473:1501   */\n      swap2\n      swap1\n      swap2\n      mstore\n        /* \"#utility.yul\":1558:1561   */\n      0xf8\n        /* \"#utility.yul\":1536:1552   */\n      shl\n      not(sub(shl(0xf8, 0x01), 0x01))\n        /* \"#utility.yul\":1532:1568   */\n      and\n        /* \"#utility.yul\":1517:1530   */\n      0x88\n      dup5\n      add\n        /* \"#utility.yul\":1510:1569   */\n      mstore\n        /* \"GetHash.sol\":398:575  abi.encodePacked(... */\n      dup1\n      mload\n      0x69\n      dup2\n      dup6\n      sub\n      add\n      dup2\n      mstore\n        /* \"#utility.yul\":1585:1598   */\n      0x89\n      swap1\n      swap4\n      add\n        /* \"GetHash.sol\":398:575  abi.encodePacked(... */\n      swap1\n      mstore\n        /* \"GetHash.sol\":375:585  keccak256(... */\n      dup2\n      mload\n      swap2\n      add\n      keccak256\n      swap1\n        /* \"GetHash.sol\":160:592  function getHash(... */\n      jump\n    tag_4:\n      mload(0x40)\n        /* \"#utility.yul\":1004:1029   */\n      swap1\n      dup2\n      mstore\n        /* \"#utility.yul\":992:994   */\n      0x20\n        /* \"#utility.yul\":977:995   */\n      add\n        /* \"GetHash.sol\":160:592  function getHash(... */\n      mload(0x40)\n      dup1\n      swap2\n      sub\n      swap1\n      return\n        /* \"#utility.yul\":14:187   */\n    tag_13:\n        /* \"#utility.yul\":82:102   */\n      dup1\n      calldataload\n      sub(shl(0xa0, 0x01), 0x01)\n        /* \"#utility.yul\":131:162   */\n      dup2\n      and\n        /* \"#utility.yul\":121:163   */\n      dup2\n      eq\n        /* \"#utility.yul\":111:181   */\n      tag_16\n      jumpi\n        /* \"#utility.yul\":177:178   */\n      0x00\n        /* \"#utility.yul\":174:175   */\n      0x00\n        /* \"#utility.yul\":167:179   */\n      revert\n        /* \"#utility.yul\":111:181   */\n    tag_16:\n        /* \"#utility.yul\":14:187   */\n      swap2\n      swap1\n      pop\n      jump\t// out\n        /* \"#utility.yul\":192:853   */\n    tag_6:\n        /* \"#utility.yul\":285:291   */\n      0x00\n        /* \"#utility.yul\":293:299   */\n      0x00\n        /* \"#utility.yul\":301:307   */\n      0x00\n        /* \"#utility.yul\":309:315   */\n      0x00\n        /* \"#utility.yul\":317:323   */\n      0x00\n        /* \"#utility.yul\":370:373   */\n      0xa0\n        /* \"#utility.yul\":358:367   */\n      dup7\n        /* \"#utility.yul\":349:356   */\n      dup9\n        /* \"#utility.yul\":345:368   */\n      sub\n        /* \"#utility.yul\":341:374   */\n      slt\n        /* \"#utility.yul\":338:391   */\n      iszero\n      tag_18\n      jumpi\n        /* \"#utility.yul\":387:388   */\n      0x00\n        /* \"#utility.yul\":384:385   */\n      0x00\n        /* \"#utility.yul\":377:389   */\n      revert\n        /* \"#utility.yul\":338:391   */\n    tag_18:\n        /* \"#utility.yul\":410:439   */\n      tag_19\n        /* \"#utility.yul\":429:438   */\n      dup7\n        /* \"#utility.yul\":410:439   */\n      tag_13\n      jump\t// in\n    tag_19:\n        /* \"#utility.yul\":400:439   */\n      swap5\n      pop\n        /* \"#utility.yul\":458:496   */\n      tag_20\n        /* \"#utility.yul\":492:494   */\n      0x20\n        /* \"#utility.yul\":481:490   */\n      dup8\n        /* \"#utility.yul\":477:495   */\n      add\n        /* \"#utility.yul\":458:496   */\n      tag_13\n      jump\t// in\n    tag_20:\n        /* \"#utility.yul\":448:496   */\n      swap4\n      pop\n        /* \"#utility.yul\":565:567   */\n      0x40\n        /* \"#utility.yul\":550:568   */\n      dup7\n      add\n        /* \"#utility.yul\":537:569   */\n      calldataload\n      swap3\n      pop\n        /* \"#utility.yul\":666:668   */\n      0x60\n        /* \"#utility.yul\":651:669   */\n      dup7\n      add\n        /* \"#utility.yul\":638:670   */\n      calldataload\n      swap2\n      pop\n        /* \"#utility.yul\":748:751   */\n      0x80\n        /* \"#utility.yul\":733:752   */\n      dup7\n      add\n        /* \"#utility.yul\":720:753   */\n      calldataload\n        /* \"#utility.yul\":797:801   */\n      0xff\n        /* \"#utility.yul\":784:802   */\n      dup2\n      and\n        /* \"#utility.yul\":772:803   */\n      dup2\n      eq\n        /* \"#utility.yul\":762:821   */\n      tag_21\n      jumpi\n        /* \"#utility.yul\":817:818   */\n      0x00\n        /* \"#utility.yul\":814:815   */\n      0x00\n        /* \"#utility.yul\":807:819   */\n      revert\n        /* \"#utility.yul\":762:821   */\n    tag_21:\n        /* \"#utility.yul\":840:847   */\n      dup1\n        /* \"#utility.yul\":830:847   */\n      swap2\n      pop\n      pop\n        /* \"#utility.yul\":192:853   */\n      swap3\n      swap6\n      pop\n      swap3\n      swap6\n      swap1\n      swap4\n      pop\n      jump\t// out\n\n    auxdata: 0xa26469706673582212202b60586775c5f00de9f552c31d628b4e33e1c1aa5194e75032f0d2ab2bb3cd9064736f6c634300081e0033\n}\n",
				"bytecode": {
					"linkReferences": {},
					"object": "6080604052348015600e575f5ffd5b506101648061001c5f395ff3fe608060405234801561000f575f5ffd5b5060043610610029575f3560e01c8063e9683c981461002d575b5f5ffd5b6100a561003b3660046100d2565b60408051606096871b6bffffffffffffffffffffffff199081166020808401919091529690971b90961660348701526048860193909352606885019190915260f81b6001600160f81b03191660888401528051606981850301815260899093019052815191012090565b60405190815260200160405180910390f35b80356001600160a01b03811681146100cd575f5ffd5b919050565b5f5f5f5f5f60a086880312156100e6575f5ffd5b6100ef866100b7565b94506100fd602087016100b7565b93506040860135925060608601359150608086013560ff81168114610120575f5ffd5b80915050929550929590935056fea26469706673582212202b60586775c5f00de9f552c31d628b4e33e1c1aa5194e75032f0d2ab2bb3cd9064736f6c634300081e0033",
					"opcodes": "PUSH1 0x80 PUSH1 0x40 MSTORE CALLVALUE DUP1 ISZERO PUSH1 0xE JUMPI PUSH0 PUSH0 REVERT JUMPDEST POP PUSH2 0x164 DUP1 PUSH2 0x1C PUSH0 CODECOPY PUSH0 RETURN INVALID PUSH1 0x80 PUSH1 0x40 MSTORE CALLVALUE DUP1 ISZERO PUSH2 0xF JUMPI PUSH0 PUSH0 REVERT JUMPDEST POP PUSH1 0x4 CALLDATASIZE LT PUSH2 0x29 JUMPI PUSH0 CALLDATALOAD PUSH1 0xE0 SHR DUP1 PUSH4 0xE9683C98 EQ PUSH2 0x2D JUMPI JUMPDEST PUSH0 PUSH0 REVERT JUMPDEST PUSH2 0xA5 PUSH2 0x3B CALLDATASIZE PUSH1 0x4 PUSH2 0xD2 JUMP JUMPDEST PUSH1 0x40 DUP1 MLOAD PUSH1 0x60 SWAP7 DUP8 SHL PUSH12 0xFFFFFFFFFFFFFFFFFFFFFFFF NOT SWAP1 DUP2 AND PUSH1 0x20 DUP1 DUP5 ADD SWAP2 SWAP1 SWAP2 MSTORE SWAP7 SWAP1 SWAP8 SHL SWAP1 SWAP7 AND PUSH1 0x34 DUP8 ADD MSTORE PUSH1 0x48 DUP7 ADD SWAP4 SWAP1 SWAP4 MSTORE PUSH1 0x68 DUP6 ADD SWAP2 SWAP1 SWAP2 MSTORE PUSH1 0xF8 SHL PUSH1 0x1 PUSH1 0x1 PUSH1 0xF8 SHL SUB NOT AND PUSH1 0x88 DUP5 ADD MSTORE DUP1 MLOAD PUSH1 0x69 DUP2 DUP6 SUB ADD DUP2 MSTORE PUSH1 0x89 SWAP1 SWAP4 ADD SWAP1 MSTORE DUP2 MLOAD SWAP2 ADD KECCAK256 SWAP1 JUMP JUMPDEST PUSH1 0x40 MLOAD SWAP1 DUP2 MSTORE PUSH1 0x20 ADD PUSH1 0x40 MLOAD DUP1 SWAP2 SUB SWAP1 RETURN JUMPDEST DUP1 CALLDATALOAD PUSH1 0x1 PUSH1 0x1 PUSH1 0xA0 SHL SUB DUP2 AND DUP2 EQ PUSH2 0xCD JUMPI PUSH0 PUSH0 REVERT JUMPDEST SWAP2 SWAP1 POP JUMP JUMPDEST PUSH0 PUSH0 PUSH0 PUSH0 PUSH0 PUSH1 0xA0 DUP7 DUP9 SUB SLT ISZERO PUSH2 0xE6 JUMPI PUSH0 PUSH0 REVERT JUMPDEST PUSH2 0xEF DUP7 PUSH2 0xB7 JUMP JUMPDEST SWAP5 POP PUSH2 0xFD PUSH1 0x20 DUP8 ADD PUSH2 0xB7 JUMP JUMPDEST SWAP4 POP PUSH1 0x40 DUP7 ADD CALLDATALOAD SWAP3 POP PUSH1 0x60 DUP7 ADD CALLDATALOAD SWAP2 POP PUSH1 0x80 DUP7 ADD CALLDATALOAD PUSH1 0xFF DUP2 AND DUP2 EQ PUSH2 0x120 JUMPI PUSH0 PUSH0 REVERT JUMPDEST DUP1 SWAP2 POP POP SWAP3 SWAP6 POP SWAP3 SWAP6 SWAP1 SWAP4 POP JUMP INVALID LOG2 PUSH5 0x6970667358 0x22 SLT KECCAK256 0x2B PUSH1 0x58 PUSH8 0x75C5F00DE9F552C3 SAR PUSH3 0x8B4E33 RJUMPI 0xC1AA MLOAD SWAP5 SWAPN 0x50 ORIGIN CREATE 0xD2 0xAB 0x2B 0xB3 0xCD SWAP1 PUSH5 0x736F6C6343 STOP ADDMOD 0x1E STOP CALLER "
				},
				"gasEstimates": {
					"creation": {
						"codeDepositCost": "71200",
						"executionCost": "121",
						"totalCost": "71321"
					},
					"external": {
						"getHash(address,address,uint256,uint256,uint8)": "infinite"
					}
				},
				"methodIdentifiers": {
					"getHash(address,address,uint256,uint256,uint8)": "e9683c98"
				}
			},
			"storageLayout": {
				"storage": [],
				"types": null
			},
			"userdoc": {
				"kind": "user",
				"methods": {},
				"version": 1
			}
		}
	}
}