{
	"mocks/MockRegAttack.sol": {
		"MockRegAttack": {
			"abi": [
				{
					"inputs": [
						{
							"internalType": "bytes32",
							"name": "id",
							"type": "bytes32"
						}
					],
					"name": "getLegionAddress",
					"outputs": [
						{
							"internalType": "address",
							"name": "",
							"type": "address"
						}
					],
					"stateMutability": "view",
					"type": "function"
				},
				{
					"inputs": [
						{
							"internalType": "bytes32",
							"name": "id",
							"type": "bytes32"
						},
						{
							"internalType": "address",
							"name": "addr",
							"type": "address"
						}
					],
					"name": "setLegionAddress",
					"outputs": [],
					"stateMutability": "nonpayable",
					"type": "function"
				}
			],
			"devdoc": {
				"kind": "dev",
				"methods": {},
				"version": 1
			},
			"evm": {
				"assembly": "    /* \"mocks/MockRegAttack.sol\":57:357  contract MockRegAttack {... */\n  mstore(0x40, 0x80)\n  callvalue\n  dup1\n  iszero\n  tag_1\n  jumpi\n  revert(0x00, 0x00)\ntag_1:\n  pop\n  dataSize(sub_0)\n  dup1\n  dataOffset(sub_0)\n  0x00\n  codecopy\n  0x00\n  return\nstop\n\nsub_0: assembly {\n        /* \"mocks/MockRegAttack.sol\":57:357  contract MockRegAttack {... */\n      mstore(0x40, 0x80)\n      callvalue\n      dup1\n      iszero\n      tag_1\n      jumpi\n      revert(0x00, 0x00)\n    tag_1:\n      pop\n      jumpi(tag_2, lt(calldatasize, 0x04))\n      shr(0xe0, calldataload(0x00))\n      dup1\n      0x970559cf\n      eq\n      tag_3\n      jumpi\n      dup1\n      0xc7340e70\n      eq\n      tag_4\n      jumpi\n    tag_2:\n      revert(0x00, 0x00)\n        /* \"mocks/MockRegAttack.sol\":246:355  function getLegionAddress(bytes32 id) external view returns (address) {... */\n    tag_3:\n      tag_5\n      tag_6\n      calldatasize\n      0x04\n      tag_7\n      jump\t// in\n    tag_6:\n        /* \"mocks/MockRegAttack.sol\":307:314  address */\n      0x00\n        /* \"mocks/MockRegAttack.sol\":333:348  s_addresses[id] */\n      swap1\n      dup2\n      mstore\n      0x20\n      dup2\n      swap1\n      mstore\n      0x40\n      swap1\n      keccak256\n      sload\n      sub(shl(0xa0, 0x01), 0x01)\n      and\n      swap1\n        /* \"mocks/MockRegAttack.sol\":246:355  function getLegionAddress(bytes32 id) external view returns (address) {... */\n      jump\n    tag_5:\n      mload(0x40)\n      sub(shl(0xa0, 0x01), 0x01)\n        /* \"#utility.yul\":409:441   */\n      swap1\n      swap2\n      and\n        /* \"#utility.yul\":391:442   */\n      dup2\n      mstore\n        /* \"#utility.yul\":379:381   */\n      0x20\n        /* \"#utility.yul\":364:382   */\n      add\n        /* \"mocks/MockRegAttack.sol\":246:355  function getLegionAddress(bytes32 id) external view returns (address) {... */\n      mload(0x40)\n      dup1\n      swap2\n      sub\n      swap1\n      return\n        /* \"mocks/MockRegAttack.sol\":140:240  function setLegionAddress(bytes32 id, address addr) external {... */\n    tag_4:\n      tag_11\n      tag_12\n      calldatasize\n      0x04\n      tag_13\n      jump\t// in\n    tag_12:\n        /* \"mocks/MockRegAttack.sol\":211:222  s_addresses */\n      0x00\n        /* \"mocks/MockRegAttack.sol\":211:226  s_addresses[id] */\n      swap2\n      dup3\n      mstore\n      0x20\n      dup3\n      swap1\n      mstore\n      0x40\n      swap1\n      swap2\n      keccak256\n        /* \"mocks/MockRegAttack.sol\":211:233  s_addresses[id] = addr */\n      dup1\n      sload\n      not(sub(shl(0xa0, 0x01), 0x01))\n      and\n      sub(shl(0xa0, 0x01), 0x01)\n      swap1\n      swap3\n      and\n      swap2\n      swap1\n      swap2\n      or\n      swap1\n      sstore\n        /* \"mocks/MockRegAttack.sol\":140:240  function setLegionAddress(bytes32 id, address addr) external {... */\n      jump\n    tag_11:\n      stop\n        /* \"#utility.yul\":14:240   */\n    tag_7:\n        /* \"#utility.yul\":73:79   */\n      0x00\n        /* \"#utility.yul\":126:128   */\n      0x20\n        /* \"#utility.yul\":114:123   */\n      dup3\n        /* \"#utility.yul\":105:112   */\n      dup5\n        /* \"#utility.yul\":101:124   */\n      sub\n        /* \"#utility.yul\":97:129   */\n      slt\n        /* \"#utility.yul\":94:146   */\n      iszero\n      tag_19\n      jumpi\n        /* \"#utility.yul\":142:143   */\n      0x00\n        /* \"#utility.yul\":139:140   */\n      0x00\n        /* \"#utility.yul\":132:144   */\n      revert\n        /* \"#utility.yul\":94:146   */\n    tag_19:\n      pop\n        /* \"#utility.yul\":187:210   */\n      calldataload\n      swap2\n        /* \"#utility.yul\":14:240   */\n      swap1\n      pop\n      jump\t// out\n        /* \"#utility.yul\":453:861   */\n    tag_13:\n        /* \"#utility.yul\":521:527   */\n      0x00\n        /* \"#utility.yul\":529:535   */\n      0x00\n        /* \"#utility.yul\":582:584   */\n      0x40\n        /* \"#utility.yul\":570:579   */\n      dup4\n        /* \"#utility.yul\":561:568   */\n      dup6\n        /* \"#utility.yul\":557:580   */\n      sub\n        /* \"#utility.yul\":553:585   */\n      slt\n        /* \"#utility.yul\":550:602   */\n      iszero\n      tag_22\n      jumpi\n        /* \"#utility.yul\":598:599   */\n      0x00\n        /* \"#utility.yul\":595:596   */\n      0x00\n        /* \"#utility.yul\":588:600   */\n      revert\n        /* \"#utility.yul\":550:602   */\n    tag_22:\n        /* \"#utility.yul\":643:666   */\n      dup3\n      calldataload\n      swap2\n      pop\n        /* \"#utility.yul\":742:744   */\n      0x20\n        /* \"#utility.yul\":727:745   */\n      dup4\n      add\n        /* \"#utility.yul\":714:746   */\n      calldataload\n      sub(shl(0xa0, 0x01), 0x01)\n        /* \"#utility.yul\":777:810   */\n      dup2\n      and\n        /* \"#utility.yul\":765:811   */\n      dup2\n      eq\n        /* \"#utility.yul\":755:829   */\n      tag_23\n      jumpi\n        /* \"#utility.yul\":825:826   */\n      0x00\n        /* \"#utility.yul\":822:823   */\n      0x00\n        /* \"#utility.yul\":815:827   */\n      revert\n        /* \"#utility.yul\":755:829   */\n    tag_23:\n        /* \"#utility.yul\":848:855   */\n      dup1\n        /* \"#utility.yul\":838:855   */\n      swap2\n      pop\n      pop\n        /* \"#utility.yul\":453:861   */\n      swap3\n      pop\n      swap3\n      swap1\n      pop\n      jump\t// out\n\n    auxdata: 0xa264697066735822122079e028399091d344c9e198bb76b21261aa46b1c0a0b15784db6e09dc5ff13c3964736f6c634300081e0033\n}\n",
				"bytecode": {
					"linkReferences": {},
					"object": "6080604052348015600e575f5ffd5b506101328061001c5f395ff3fe6080604052348015600e575f5ffd5b50600436106030575f3560e01c8063970559cf146034578063c7340e70146075575b5f5ffd5b6059603f36600460af565b5f908152602081905260409020546001600160a01b031690565b6040516001600160a01b03909116815260200160405180910390f35b60ad608036600460c5565b5f9182526020829052604090912080546001600160a01b0319166001600160a01b03909216919091179055565b005b5f6020828403121560be575f5ffd5b5035919050565b5f5f6040838503121560d5575f5ffd5b8235915060208301356001600160a01b038116811460f1575f5ffd5b80915050925092905056fea264697066735822122079e028399091d344c9e198bb76b21261aa46b1c0a0b15784db6e09dc5ff13c3964736f6c634300081e0033",
					"opcodes": "PUSH1 0x80 PUSH1 0x40 MSTORE CALLVALUE DUP1 ISZERO PUSH1 0xE JUMPI PUSH0 PUSH0 REVERT JUMPDEST POP PUSH2 0x132 DUP1 PUSH2 0x1C PUSH0 CODECOPY PUSH0 RETURN INVALID PUSH1 0x80 PUSH1 0x40 MSTORE CALLVALUE DUP1 ISZERO PUSH1 0xE JUMPI PUSH0 PUSH0 REVERT JUMPDEST POP PUSH1 0x4 CALLDATASIZE LT PUSH1 0x30 JUMPI PUSH0 CALLDATALOAD PUSH1 0xE0 SHR DUP1 PUSH4 0x970559CF EQ PUSH1 0x34 JUMPI DUP1 PUSH4 0xC7340E70 EQ PUSH1 0x75 JUMPI JUMPDEST PUSH0 PUSH0 REVERT JUMPDEST PUSH1 0x59 PUSH1 0x3F CALLDATASIZE PUSH1 0x4 PUSH1 0xAF JUMP JUMPDEST PUSH0 SWAP1 DUP2 MSTORE PUSH1 0x20 DUP2 SWAP1 MSTORE PUSH1 0x40 SWAP1 KECCAK256 SLOAD PUSH1 0x1 PUSH1 0x1 PUSH1 0xA0 SHL SUB AND SWAP1 JUMP JUMPDEST PUSH1 0x40 MLOAD PUSH1 0x1 PUSH1 0x1 PUSH1 0xA0 SHL SUB SWAP1 SWAP2 AND DUP2 MSTORE PUSH1 0x20 ADD PUSH1 0x40 MLOAD DUP1 SWAP2 SUB SWAP1 RETURN JUMPDEST PUSH1 0xAD PUSH1 0x80 CALLDATASIZE PUSH1 0x4 PUSH1 0xC5 JUMP JUMPDEST PUSH0 SWAP2 DUP3 MSTORE PUSH1 0x20 DUP3 SWAP1 MSTORE PUSH1 0x40 SWAP1 SWAP2 KECCAK256 DUP1 SLOAD PUSH1 0x1 PUSH1 0x1 PUSH1 0xA0 SHL SUB NOT AND PUSH1 0x1 PUSH1 0x1 PUSH1 0xA0 SHL SUB SWAP1 SWAP3 AND SWAP2 SWAP1 SWAP2 OR SWAP1 SSTORE JUMP JUMPDEST STOP JUMPDEST PUSH0 PUSH1 0x20 DUP3 DUP5 SUB SLT ISZERO PUSH1 0xBE JUMPI PUSH0 PUSH0 REVERT JUMPDEST POP CALLDATALOAD SWAP2 SWAP1 POP JUMP JUMPDEST PUSH0 PUSH0 PUSH1 0x40 DUP4 DUP6 SUB SLT ISZERO PUSH1 0xD5 JUMPI PUSH0 PUSH0 REVERT JUMPDEST DUP3 CALLDATALOAD SWAP2 POP PUSH1 0x20 DUP4 ADD CALLDATALOAD PUSH1 0x1 PUSH1 0x1 PUSH1 0xA0 SHL SUB DUP2 AND DUP2 EQ PUSH1 0xF1 JUMPI PUSH0 PUSH0 REVERT JUMPDEST DUP1 SWAP2 POP POP SWAP3 POP SWAP3 SWAP1 POP JUMP INVALID LOG2 PUSH5 0x6970667358 0x22 SLT KECCAK256 PUSH26 0xE028399091D344C9E198BB76B21261AA46B1C0A0B15784DB6E09 0xDC PUSH0 CALL EXTCODECOPY CODECOPY PUSH5 0x736F6C6343 STOP ADDMOD 0x1E STOP CALLER "
				},
				"gasEstimates": {
					"creation": {
						"codeDepositCost": "61200",
						"executionCost": "109",
						"totalCost": "61309"
					},
					"external": {
						"getLegionAddress(bytes32)": "2443",
						"setLegionAddress(bytes32,address)": "24620"
					}
				},
				"methodIdentifiers": {
					"getLegionAddress(bytes32)": "970559cf",
					"setLegionAddress(bytes32,address)": "c7340e70"
				}
			},
			"storageLayout": {
				"storage": [
					{
						"astId": 5,
						"contract": "mocks/MockRegAttack.sol:MockRegAttack",
						"label": "s_addresses",
						"offset": 0,
						"slot": "0",
						"type": "t_mapping(t_bytes32,t_address)"
					}
				],
				"types": {
					"t_address": {
						"encoding": "inplace",
						"label": "address",
						"numberOfBytes": "20"
					},
					"t_bytes32": {
						"encoding": "inplace",
						"label": "bytes32",
						"numberOfBytes": "32"
					},
					"t_mapping(t_bytes32,t_address)": {
						"encoding": "mapping",
						"key": "t_bytes32",
						"label": "mapping(bytes32 => address)",
						"numberOfBytes": "32",
						"value": "t_address"
					}
				}
			},
			"userdoc": {
				"kind": "user",
				"methods": {},
				"version": 1
			}
		}
	}
}