{
	"data": {
		"bytecode": {
			"linkReferences": {},
			"object": "6080604052600380546001600160a01b031990811630179091556004805490911681179055348015602e575f5ffd5b50612d188061003c5f395ff3fe608060405234801561000f575f5ffd5b5060043610610029575f3560e01c8063de6b62d41461002d575b5f5ffd5b610035610037565b005b604051610043906103c4565b604051809103905ff08015801561005c573d5f5f3e3d5ffd5b50600180546001600160a01b0319166001600160a01b0392909216919091179055604051610089906103d1565b604051809103905ff0801580156100a2573d5f5f3e3d5ffd5b50600280546001600160a01b0319166001600160a01b03929092169190911790556040516100cf906103dd565b604051809103905ff0801580156100e8573d5f5f3e3d5ffd5b505f80546001600160a01b0319166001600160a01b0392831690811782556040805160e08101825283815260208101938452600480548616828401908152600154871660608401908152600254881660808501908152600354891660a0860190815268056bc75e2d6310000060c087019081529651632a36d04360e01b8152865161ffff9081169682019690965298519094166024890152915188166044880152518716606487015251861660848601525190941660a48401525160c483015290632a36d0439060e4015f604051808303815f87803b1580156101c9575f5ffd5b505af11580156101db573d5f5f3e3d5ffd5b50506001545f5460405163095ea7b360e01b81526001600160a01b03918216600482015268056bc75e2d6310000060248201529116925063095ea7b391506044016020604051808303815f875af1158015610238573d5f5f3e3d5ffd5b505050506040513d601f19601f8201168201806040525081019061025c91906103ea565b505f805460405163cc6ae75560e01b815268056bc75e2d6310000060048201526024810183905260448101929092526001600160a01b03169063cc6ae755906064015f604051808303815f87803b1580156102b5575f5ffd5b505af11580156102c7573d5f5f3e3d5ffd5b50506001545f80546040516370a0823160e01b81526001600160a01b03918216600482015291945090911691506370a0823190602401602060405180830381865afa158015610318573d5f5f3e3d5ffd5b505050506040513d601f19601f8201168201806040525081019061033c9190610410565b905068056bc75e2d6310000081106103c05760405162461bcd60e51b815260206004820152603c60248201527f54657374204661696c65643a2046656520776173206e6f74206465647563746560448201527f642c20696e736f6c76656e6379206e6f7420726570726f647563656400000000606482015260840160405180910390fd5b5050565b61044a8061042883390190565b605d8061087283390190565b612414806108cf83390190565b5f602082840312156103fa575f5ffd5b81518015158114610409575f5ffd5b9392505050565b5f60208284031215610420575f5ffd5b505191905056fe6080604052348015600e575f5ffd5b50335f90815260208190526040902069d3c21bcecceda10000009055610413806100375f395ff3fe608060405234801561000f575f5ffd5b5060043610610060575f3560e01c8063095ea7b31461006457806323b872dd1461008c57806340c10f191461009f57806370a08231146100b4578063a9059cbb146100e1578063dd62ed3e146100f4575b5f5ffd5b6100776100723660046102d1565b61011e565b60405190151581526020015b60405180910390f35b61007761009a3660046102f9565b61014b565b6100b26100ad3660046102d1565b6101d5565b005b6100d36100c2366004610333565b5f6020819052908152604090205481565b604051908152602001610083565b6100776100ef3660046102d1565b610205565b6100d3610102366004610353565b600160209081525f928352604080842090915290825290205481565b335f9081526001602081815260408084206001600160a01b03871685529091529091208290555b92915050565b5f80610158606484610398565b90505f61016582856103b7565b9050835f5f886001600160a01b03166001600160a01b031681526020019081526020015f205f82825461019891906103b7565b90915550506001600160a01b0385165f90815260208190526040812080548392906101c49084906103ca565b909155506001979650505050505050565b6001600160a01b0382165f90815260208190526040812080548392906101fc9084906103ca565b90915550505050565b335f9081526020819052604081205482111561025e5760405162461bcd60e51b8152602060048201526014602482015273496e73756666696369656e742062616c616e636560601b604482015260640160405180910390fd5b335f908152602081905260408120805484929061027c9084906103b7565b90915550506001600160a01b0383165f90815260208190526040812080548492906102a89084906103ca565b909155506001949350505050565b80356001600160a01b03811681146102cc575f5ffd5b919050565b5f5f604083850312156102e2575f5ffd5b6102eb836102b6565b946020939093013593505050565b5f5f5f6060848603121561030b575f5ffd5b610314846102b6565b9250610322602085016102b6565b929592945050506040919091013590565b5f60208284031215610343575f5ffd5b61034c826102b6565b9392505050565b5f5f60408385031215610364575f5ffd5b61036d836102b6565b915061037b602084016102b6565b90509250929050565b634e487b7160e01b5f52601160045260245ffd5b5f826103b257634e487b7160e01b5f52601260045260245ffd5b500490565b8181038181111561014557610145610384565b808201808211156101455761014561038456fea26469706673582212204eb31484a7ed820779a04ac3de7790f607f4ab5a58b3283ead77ccaeb174850264736f6c634300081e00336080604052348015600e575f5ffd5b50604380601a5f395ff3fe608060405260015f5260205ff3fea2646970667358221220cb1af0f9e9b51fd30708c2a6e1c0cd787237f3f74bb13f7a86f96bc6e56d176e64736f6c634300081e00336080604052348015600e575f5ffd5b506123f88061001c5f395ff3fe608060405234801561000f575f5ffd5b50600436106100cb575f3560e01c806357e72d9f116100885780638456cb59116100635780638456cb591461031257806384cbd9cd1461031a578063cc6ae7551461039a578063e63ea408146103ad575f5ffd5b806357e72d9f1461025d5780635c975abb14610270578063699c299414610286575f5ffd5b80630a636d5b146100cf5780630d7c730b146100d95780632a36d043146101ee5780633cccebc5146102015780633f4ba83a1461024d57806354dd1da414610255575b5f5ffd5b6100d76103c0565b005b6101d860408051610180810182525f80825260208201819052918101829052606081018290526080810182905260a0810182905260c0810182905260e0810182905261010081018290526101208101829052610140810182905261016081019190915250604080516101808101825260035461ffff8082168352620100008204166020830152640100000000900460ff16151591810191909152600454606082015260055460808201526006546001600160a01b0390811660a0830152600754811660c0830152600854811660e08301526009548116610100830152600a548116610120830152600b548116610140830152600c541661016082015290565b6040516101e59190611e62565b60405180910390f35b6100d76101fc366004611f8e565b6103f5565b6040805180820182525f80825260209182018190528251808401845290546001600160a01b039081168083526001548216928401928352845190815291511691810191909152016101e5565b6100d761046e565b6100d76104a1565b6100d761026b366004611fec565b610574565b60025460ff1660405190151581526020016101e5565b61029961029436600461208b565b610766565b6040516101e591905f60e0820190506001600160401b0383511682526001600160401b0360208401511660208301526001600160401b0360408401511660408301526001600160401b0360608401511660608301526080830151608083015260a083015160a083015260c083015160c083015292915050565b6100d7610afe565b61037461032836600461208b565b6040805180820182525f80825260209182018190526001600160a01b039384168152600d825282902082518084019093525460ff81161515835261010090049092169181019190915290565b604080518251151581526020928301516001600160a01b031692810192909252016101e5565b6100d76103a83660046120ad565b610b31565b6100d76103bb3660046120d6565b610d47565b6008546001600160a01b031633146103eb57604051631634f9a360e31b815260040160405180910390fd5b6103f3610dcd565b565b63409feecd19805460038255801561042b5760018160011c14303b106104225763f92ee8a95f526004601cfd5b818160ff1b1b91505b506104358261111c565b801561046a576002815560016020527fc7f505b2f371ae2175ee4913f4499e1f2633a7b5936321eed1cdaeb6115181d2602080a15b5050565b6008546001600160a01b0316331461049957604051631634f9a360e31b815260040160405180910390fd5b6103f3611252565b6104a961129f565b335f908152600d602052604090205461010090046001600160a01b0316806104e45760405163b840f60b60e01b815260040160405180910390fd5b6040513381527f6a6394c66a3a0959731c67d80d271a6a6391982dd49ba59b4440c9d72a0123d09060200160405180910390a1600654604051631916558760e01b81526001600160a01b039182166004820152908216906319165587906024015f604051808303815f87803b15801561055b575f5ffd5b505af115801561056d573d5f5f3e3d5ffd5b5050505050565b61057c61129f565b610585856112c3565b61058d611539565b6105988685856115be565b6105a38282876116c6565b335f908152600d60205260408120805460ff1916600117815560058054919289926105cf908490612128565b9091555050604080516101808101825260035461ffff8082168352620100008204166020830152640100000000900460ff16151591810191909152600454606082015260055460808201526006546001600160a01b0390811660a0830152600754811660c080840191909152600854821660e0808501919091526009548316610100850152600a548316610120850152600b548316610140850152600c549092166101608401525f91670de0b6b3a764000091610690918b01908b0161215f565b6106a3906001600160401b03168b61217a565b6106ad9190612191565b90505f6106ba828b6121b0565b6040805182815260208101859052338183015290519192507f2d5e35638cf358db0cb3c0b403fecdecfd5660da5ec0ce5d29106ee59da69a6c919081900360600190a18015610745575f6107128a8560a0015161175d565b8554610100600160a81b0319166101006001600160a01b0383160217865560a085015190915061074390828461186e565b505b811561075a5761075a8360a00151338461186e565b50505050505050505050565b6040805160e0810182525f80825260208201819052918101829052606081018290526080810182905260a0810182905260c08101919091526001600160a01b038083165f908152600d6020526040902054610100900416806107c85781610af7565b6040518060e00160405280826001600160a01b031663be9a65556040518163ffffffff1660e01b8152600401602060405180830381865afa15801561080f573d5f5f3e3d5ffd5b505050506040513d601f19601f8201168201806040525081019061083391906121c3565b6001600160401b03168152602001826001600160a01b031663efbe1c1c6040518163ffffffff1660e01b8152600401602060405180830381865afa15801561087d573d5f5f3e3d5ffd5b505050506040513d601f19601f820116820180604052508101906108a191906121c3565b6001600160401b03168152602001826001600160a01b031663e8a6fed16040518163ffffffff1660e01b8152600401602060405180830381865afa1580156108eb573d5f5f3e3d5ffd5b505050506040513d601f19601f8201168201806040525081019061090f91906121c3565b6001600160401b03168152602001826001600160a01b0316630fb5a6b46040518163ffffffff1660e01b8152600401602060405180830381865afa158015610959573d5f5f3e3d5ffd5b505050506040513d601f19601f8201168201806040525081019061097d91906121c3565b6001600160401b03168152600654604051632614965760e21b81526001600160a01b03918216600482015260209092019190841690639852595c90602401602060405180830381865afa1580156109d6573d5f5f3e3d5ffd5b505050506040513d601f19601f820116820180604052508101906109fa91906121de565b81526006546040516351fc756760e11b81526001600160a01b0391821660048201526020909201919084169063a3f8eace90602401602060405180830381865afa158015610a4a573d5f5f3e3d5ffd5b505050506040513d601f19601f82011682018060405250810190610a6e91906121de565b815260065460405163810ec23b60e01b81526001600160a01b0391821660048201526001600160401b03421660248201526020909201919084169063810ec23b90604401602060405180830381865afa158015610acd573d5f5f3e3d5ffd5b505050506040513d601f19601f82011682018060405250810190610af191906121de565b90529150815b5050919050565b6008546001600160a01b03163314610b2957604051631634f9a360e31b815260040160405180910390fd5b6103f36118b8565b6007546001600160a01b03163314610b5c576040516301312f1f60e11b815260040160405180910390fd5b610b6461129f565b610b6d836118f5565b6003805464010000000064ff00000000198216811792839055604080516101808101825261ffff938416808252620100008604909416602082015260ff9290940491909116151590830152600454606083015260055460808301526006546001600160a01b0390811660a0840152600754811660c0840152600854811660e08401526009548116610100840152600a548116610120840152600b548116610140840152600c54166101608301525f9061271090610c2b90879061217a565b610c359190612191565b90505f61271061ffff1686846020015161ffff16610c53919061217a565b610c5d9190612191565b9050818514610c8e576040516354dff7e960e01b815260048101869052602481018390526044015b60405180910390fd5b808414610cb8576040516354dff7e960e01b81526004810185905260248101829052604401610c85565b60408051878152602081018790529081018590527feb6ecff67790f9432b928d86593a8ef9296b4f8562a4e1856e2b17372fa218fb9060600160405180910390a1610d098360a001513330896119e0565b8415610d2457610d248360a0015133856101000151886119e0565b8315610d3f57610d3f8360a0015133856101200151876119e0565b505050505050565b6008546001600160a01b03163314610d7257604051631634f9a360e31b815260040160405180910390fd5b604080516001600160a01b038086168252841660208201529081018290527ff24ef89f38eadc1bde50701ad6e4d6d11a2dc24f7cf834a486991f38833285049060600160405180910390a1610dc882848361186e565b505050565b600c5460405163970559cf60e01b81526d2622a3a4a7a72fa127aaa721a2a960911b60048201526001600160a01b039091169063970559cf90602401602060405180830381865afa158015610e24573d5f5f3e3d5ffd5b505050506040513d601f19601f82011682018060405250810190610e4891906121f5565b600880546001600160a01b0319166001600160a01b03928316179055600c5460405163970559cf60e01b81526c2622a3a4a7a72fa9a4a3a722a960991b600482015291169063970559cf90602401602060405180830381865afa158015610eb1573d5f5f3e3d5ffd5b505050506040513d601f19601f82011682018060405250810190610ed591906121f5565b600b80546001600160a01b0319166001600160a01b03928316179055600c5460405163970559cf60e01b8152722622a3a4a7a72fa322a2afa922a1a2a4ab22a960691b600482015291169063970559cf90602401602060405180830381865afa158015610f44573d5f5f3e3d5ffd5b505050506040513d601f19601f82011682018060405250810190610f6891906121f5565b600980546001600160a01b0319166001600160a01b03928316179055600c5460405163970559cf60e01b8152754c4547494f4e5f56455354494e475f464143544f525960501b600482015291169063970559cf90602401602060405180830381865afa158015610fda573d5f5f3e3d5ffd5b505050506040513d601f19601f82011682018060405250810190610ffe91906121f5565b5f80546001600160a01b0319166001600160a01b03928316179055600c5460405163970559cf60e01b81527f4c4547494f4e5f56455354494e475f434f4e54524f4c4c455200000000000000600482015291169063970559cf90602401602060405180830381865afa158015611076573d5f5f3e3d5ffd5b505050506040513d601f19601f8201168201806040525081019061109a91906121f5565b600180546001600160a01b0319166001600160a01b03928316908117909155600854600b546009545f54604080519487168552928616602085015290851691830191909152909216606083015260808201527f4b02015c8d0e47cc44a723bc061abdfa651fefc86f2ac5387e9f992f732b35289060a0015b60405180910390a1565b611124611a39565b61112d81611a55565b60c08101356004556111426020820182612210565b6003805461ffff191661ffff929092169190911790556111686040820160208301612210565b6003805461ffff92909216620100000263ffff000019909216919091179055611197606082016040830161208b565b600a80546001600160a01b0319166001600160a01b03929092169190911790556111c7608082016060830161208b565b600680546001600160a01b0319166001600160a01b03929092169190911790556111f760a082016080830161208b565b600c80546001600160a01b0319166001600160a01b039290921691909117905561122760c0820160a0830161208b565b600780546001600160a01b0319166001600160a01b039290921691909117905561124f610dcd565b50565b61125a611af6565b6002805460ff191690557f5db9ee0a495bf2e6ff9c91a7834c1ba4fdd244a5e8aa4e537bd38aeae4b073aa335b6040516001600160a01b039091168152602001611112565b60025460ff16156103f35760405163d93c066560e01b815260040160405180910390fd5b6112d1426312bed400612128565b6112de602083018361215f565b6001600160401b0316118061130e57506312bed400611303604083016020840161215f565b6001600160401b0316115b806113485750611324604082016020830161215f565b6001600160401b031661133d606083016040840161215f565b6001600160401b0316115b806113725750670de0b6b3a764000061136760e0830160c0840161215f565b6001600160401b0316115b1561144857611387608082016060830161223f565b600181111561139857611398612258565b6113a5602083018361215f565b6113b5604084016020850161215f565b6113c5606085016040860161215f565b6113d560a086016080870161215f565b6113e560c0870160a0880161215f565b6113f560e0880160c0890161215f565b604051631bf0976560e01b815260ff90971660048801526001600160401b0395861660248801529385166044870152918416606486015283166084850152821660a48401521660c482015260e401610c85565b600161145a608083016060840161223f565b600181111561146b5761146b612258565b0361124f576312bed40061148560a083016080840161215f565b61149560c0840160a0850161215f565b61149f919061226c565b6001600160401b031611806114fe57506114bf604082016020830161215f565b6001600160401b03166114d860a083016080840161215f565b6114e860c0840160a0850161215f565b6114f2919061226c565b6001600160401b031614155b8061152457506301dfe20061151960a083016080840161215f565b6001600160401b0316115b1561124f57611387608082016060830161223f565b335f908152600d602090815260409182902082518084019093525460ff808216151584526101009091046001600160a01b03169183019190915260035464010000000090041661159c576040516328b1bbfb60e01b815260040160405180910390fd5b80511561124f5760405163edf08ce160e01b8152336004820152602401610c85565b6040516bffffffffffffffffffffffff1933606090811b8216602084015230901b166034820152466048820152606881018490525f90611644906088015b604051602081830303815290604052805190602001207f19457468657265756d205369676e6564204d6573736167653a0a3332000000005f908152601c91909152603c902090565b600b54604080516020601f87018190048102820181019092528581529293506001600160a01b03909116916116959186908690819084018382808284375f920191909152508693925050611b199050565b6001600160a01b0316146116c0578282604051633dd7420b60e11b8152600401610c8592919061228e565b50505050565b5f6116e1333046856040516020016115fc94939291906122dc565b600b54604080516020601f88018190048102820181019092528681529293506001600160a01b03909116916117329187908790819084018382808284375f920191909152508693925050611b199050565b6001600160a01b0316146116c0578383604051633dd7420b60e11b8152600401610c8592919061228e565b5f8061176f608085016060860161223f565b600181111561178057611780612258565b036117d2576001545f546117cf9133916001600160a01b0391821691166117aa602088018861215f565b6117ba6040890160208a0161215f565b6117ca60608a0160408b0161215f565b611b41565b90505b60016117e4608085016060860161223f565b60018111156117f5576117f5612258565b03611868576001545f546118659133916001600160a01b03918216911685611820602089018961215f565b61183060408a0160208b0161215f565b61184060608b0160408c0161215f565b61185060a08c0160808d0161215f565b61186060c08d0160a08e0161215f565b611bdf565b90505b92915050565b816014528060345263a9059cbb60601b5f5260205f604460105f875af18060015f5114166118ae57803d853b1517106118ae576390b8ec185f526004601cfd5b505f603452505050565b6118c061129f565b6002805460ff191660011790557f62e78cea01bee320cd4e420270b5ea74000d11b0c9f74754ebdbfc544b05a2586112873390565b604080516101808101825260035461ffff8082168352620100008204166020830152640100000000900460ff1615801592820192909252600454606082015260055460808201526006546001600160a01b0390811660a0830152600754811660c0830152600854811660e08301526009548116610100830152600a548116610120830152600b548116610140830152600c5416610160820152906119ac576040516368754d4b60e11b815260040160405180910390fd5b8060600151821461046a57606081015160405163028d05ab60e51b8152610c85918491600401918252602082015260400190565b60405181606052826040528360601b602c526323b872dd60601b600c5260205f6064601c5f895af18060015f511416611a2b57803d873b151710611a2b57637939f4245f526004601cfd5b505f60605260405250505050565b63409feecd19805460011661124f5763d7e6bcf85f526004601cfd5b5f611a6660c0830160a0840161208b565b6001600160a01b03161480611a9257505f611a8760a083016080840161208b565b6001600160a01b0316145b80611ab457505f611aa9608083016060840161208b565b6001600160a01b0316145b15611ad25760405163b840f60b60e01b815260040160405180910390fd5b8060c001355f0361124f57604051631e44f25360e01b815260040160405180910390fd5b60025460ff166103f357604051638dfc202b60e01b815260040160405180910390fd5b5f5f5f5f611b278686611c99565b925092509250611b378282611ce2565b5090949350505050565b604051632331871f60e01b81526001600160a01b03878116600483015286811660248301526001600160401b0380861660448401528085166064840152831660848301525f9190861690632331871f9060a4016020604051808303815f875af1158015611bb0573d5f5f3e3d5ffd5b505050506040513d601f19601f82011682018060405250810190611bd491906121f5565b979650505050505050565b60405163478a83a160e01b81526001600160a01b038a81166004830152898116602483015287811660448301526001600160401b038088166064840152808716608484015280861660a484015280851660c4840152831660e48301525f919089169063478a83a190610104016020604051808303815f875af1158015611c67573d5f5f3e3d5ffd5b505050506040513d601f19601f82011682018060405250810190611c8b91906121f5565b9a9950505050505050505050565b5f5f5f8351604103611cd0576020840151604085015160608601515f1a611cc288828585611d9a565b955095509550505050611cdb565b505081515f91506002905b9250925092565b5f826003811115611cf557611cf5612258565b03611cfe575050565b6001826003811115611d1257611d12612258565b03611d305760405163f645eedf60e01b815260040160405180910390fd5b6002826003811115611d4457611d44612258565b03611d655760405163fce698f760e01b815260048101829052602401610c85565b6003826003811115611d7957611d79612258565b0361046a576040516335e2f38360e21b815260048101829052602401610c85565b5f80807f7fffffffffffffffffffffffffffffff5d576e7357a4501ddfe92f46681b20a0841115611dd357505f91506003905082611e58565b604080515f808252602082018084528a905260ff891692820192909252606081018790526080810186905260019060a0016020604051602081039080840390855afa158015611e24573d5f5f3e3d5ffd5b5050604051601f1901519150506001600160a01b038116611e4f57505f925060019150829050611e58565b92505f91508190505b9450945094915050565b815161ffff16815261018081016020830151611e84602084018261ffff169052565b506040830151611e98604084018215159052565b50606083015160608301526080830151608083015260a0830151611ec760a08401826001600160a01b03169052565b5060c0830151611ee260c08401826001600160a01b03169052565b5060e0830151611efd60e08401826001600160a01b03169052565b50610100830151611f1a6101008401826001600160a01b03169052565b50610120830151611f376101208401826001600160a01b03169052565b50610140830151611f546101408401826001600160a01b03169052565b50610160830151611f716101608401826001600160a01b03169052565b5092915050565b5f60e08284031215611f88575f5ffd5b50919050565b5f60e08284031215611f9e575f5ffd5b6118658383611f78565b5f5f83601f840112611fb8575f5ffd5b5081356001600160401b03811115611fce575f5ffd5b602083019150836020828501011115611fe5575f5ffd5b9250929050565b5f5f5f5f5f5f6101408789031215612002575f5ffd5b863595506120138860208901611f78565b94506101008701356001600160401b0381111561202e575f5ffd5b61203a89828a01611fa8565b9095509350506101208701356001600160401b03811115612059575f5ffd5b61206589828a01611fa8565b979a9699509497509295939492505050565b6001600160a01b038116811461124f575f5ffd5b5f6020828403121561209b575f5ffd5b81356120a681612077565b9392505050565b5f5f5f606084860312156120bf575f5ffd5b505081359360208301359350604090920135919050565b5f5f5f606084860312156120e8575f5ffd5b83356120f381612077565b9250602084013561210381612077565b929592945050506040919091013590565b634e487b7160e01b5f52601160045260245ffd5b8082018082111561186857611868612114565b6001600160401b038116811461124f575f5ffd5b803561215a8161213b565b919050565b5f6020828403121561216f575f5ffd5b81356120a68161213b565b808202811582820484141761186857611868612114565b5f826121ab57634e487b7160e01b5f52601260045260245ffd5b500490565b8181038181111561186857611868612114565b5f602082840312156121d3575f5ffd5b81516120a68161213b565b5f602082840312156121ee575f5ffd5b5051919050565b5f60208284031215612205575f5ffd5b81516120a681612077565b5f60208284031215612220575f5ffd5b813561ffff811681146120a6575f5ffd5b80356002811061215a575f5ffd5b5f6020828403121561224f575f5ffd5b61186582612231565b634e487b7160e01b5f52602160045260245ffd5b6001600160401b038181168382160290811690818114611f7157611f71612114565b60208152816020820152818360408301375f818301604090810191909152601f909201601f19160101919050565b600281106122d857634e487b7160e01b5f52602160045260245ffd5b9052565b6001600160a01b0385811682528416602082015260408101839052610140810182356123078161213b565b6001600160401b0316606083015260208301356123238161213b565b6001600160401b03166080830152604083013561233f8161213b565b6001600160401b031660a083015261235960608401612231565b61236660c08401826122bc565b506123736080840161214f565b6001600160401b031660e083015261238d60a0840161214f565b6001600160401b03166101008301526123a860c0840161214f565b6001600160401b038116610120840152509594505050505056fea26469706673582212204218748688e128765020243d71978b5cdbdb39764fc9f8e395c1d41c69dc92f064736f6c634300081e0033a264697066735822122038d73d33b8e9d8e635934c530373ab8a06860ae866ee19d694f821356c4019d364736f6c634300081e0033",
			"opcodes": "PUSH1 0x80 PUSH1 0x40 MSTORE PUSH1 0x3 DUP1 SLOAD PUSH1 0x1 PUSH1 0x1 PUSH1 0xA0 SHL SUB NOT SWAP1 DUP2 AND ADDRESS OR SWAP1 SWAP2 SSTORE PUSH1 0x4 DUP1 SLOAD SWAP1 SWAP2 AND DUP2 OR SWAP1 SSTORE CALLVALUE DUP1 ISZERO PUSH1 0x2E JUMPI PUSH0 PUSH0 REVERT JUMPDEST POP PUSH2 0x2D18 DUP1 PUSH2 0x3C PUSH0 CODECOPY PUSH0 RETURN INVALID PUSH1 0x80 PUSH1 0x40 MSTORE CALLVALUE DUP1 ISZERO PUSH2 0xF JUMPI PUSH0 PUSH0 REVERT JUMPDEST POP PUSH1 0x4 CALLDATASIZE LT PUSH2 0x29 JUMPI PUSH0 CALLDATALOAD PUSH1 0xE0 SHR DUP1 PUSH4 0xDE6B62D4 EQ PUSH2 0x2D JUMPI JUMPDEST PUSH0 PUSH0 REVERT JUMPDEST PUSH2 0x35 PUSH2 0x37 JUMP JUMPDEST STOP JUMPDEST PUSH1 0x40 MLOAD PUSH2 0x43 SWAP1 PUSH2 0x3C4 JUMP JUMPDEST PUSH1 0x40 MLOAD DUP1 SWAP2 SUB SWAP1 PUSH0 CREATE DUP1 ISZERO DUP1 ISZERO PUSH2 0x5C JUMPI RETURNDATASIZE PUSH0 PUSH0 RETURNDATACOPY RETURNDATASIZE PUSH0 REVERT JUMPDEST POP PUSH1 0x1 DUP1 SLOAD PUSH1 0x1 PUSH1 0x1 PUSH1 0xA0 SHL SUB NOT AND PUSH1 0x1 PUSH1 0x1 PUSH1 0xA0 SHL SUB SWAP3 SWAP1 SWAP3 AND SWAP2 SWAP1 SWAP2 OR SWAP1 SSTORE PUSH1 0x40 MLOAD PUSH2 0x89 SWAP1 PUSH2 0x3D1 JUMP JUMPDEST PUSH1 0x40 MLOAD DUP1 SWAP2 SUB SWAP1 PUSH0 CREATE DUP1 ISZERO DUP1 ISZERO PUSH2 0xA2 JUMPI RETURNDATASIZE PUSH0 PUSH0 RETURNDATACOPY RETURNDATASIZE PUSH0 REVERT JUMPDEST POP PUSH1 0x2 DUP1 SLOAD PUSH1 0x1 PUSH1 0x1 PUSH1 0xA0 SHL SUB NOT AND PUSH1 0x1 PUSH1 0x1 PUSH1 0xA0 SHL SUB SWAP3 SWAP1 SWAP3 AND SWAP2 SWAP1 SWAP2 OR SWAP1 SSTORE PUSH1 0x40 MLOAD PUSH2 0xCF SWAP1 PUSH2 0x3DD JUMP JUMPDEST PUSH1 0x40 MLOAD DUP1 SWAP2 SUB SWAP1 PUSH0 CREATE DUP1 ISZERO DUP1 ISZERO PUSH2 0xE8 JUMPI RETURNDATASIZE PUSH0 PUSH0 RETURNDATACOPY RETURNDATASIZE PUSH0 REVERT JUMPDEST POP PUSH0 DUP1 SLOAD PUSH1 0x1 PUSH1 0x1 PUSH1 0xA0 SHL SUB NOT AND PUSH1 0x1 PUSH1 0x1 PUSH1 0xA0 SHL SUB SWAP3 DUP4 AND SWAP1 DUP2 OR DUP3 SSTORE PUSH1 0x40 DUP1 MLOAD PUSH1 0xE0 DUP2 ADD DUP3 MSTORE DUP4 DUP2 MSTORE PUSH1 0x20 DUP2 ADD SWAP4 DUP5 MSTORE PUSH1 0x4 DUP1 SLOAD DUP7 AND DUP3 DUP5 ADD SWAP1 DUP2 MSTORE PUSH1 0x1 SLOAD DUP8 AND PUSH1 0x60 DUP5 ADD SWAP1 DUP2 MSTORE PUSH1 0x2 SLOAD DUP9 AND PUSH1 0x80 DUP6 ADD SWAP1 DUP2 MSTORE PUSH1 0x3 SLOAD DUP10 AND PUSH1 0xA0 DUP7 ADD SWAP1 DUP2 MSTORE PUSH9 0x56BC75E2D63100000 PUSH1 0xC0 DUP8 ADD SWAP1 DUP2 MSTORE SWAP7 MLOAD PUSH4 0x2A36D043 PUSH1 0xE0 SHL DUP2 MSTORE DUP7 MLOAD PUSH2 0xFFFF SWAP1 DUP2 AND SWAP7 DUP3 ADD SWAP7 SWAP1 SWAP7 MSTORE SWAP9 MLOAD SWAP1 SWAP5 AND PUSH1 0x24 DUP10 ADD MSTORE SWAP2 MLOAD DUP9 AND PUSH1 0x44 DUP9 ADD MSTORE MLOAD DUP8 AND PUSH1 0x64 DUP8 ADD MSTORE MLOAD DUP7 AND PUSH1 0x84 DUP7 ADD MSTORE MLOAD SWAP1 SWAP5 AND PUSH1 0xA4 DUP5 ADD MSTORE MLOAD PUSH1 0xC4 DUP4 ADD MSTORE SWAP1 PUSH4 0x2A36D043 SWAP1 PUSH1 0xE4 ADD PUSH0 PUSH1 0x40 MLOAD DUP1 DUP4 SUB DUP2 PUSH0 DUP8 DUP1 EXTCODESIZE ISZERO DUP1 ISZERO PUSH2 0x1C9 JUMPI PUSH0 PUSH0 REVERT JUMPDEST POP GAS CALL ISZERO DUP1 ISZERO PUSH2 0x1DB JUMPI RETURNDATASIZE PUSH0 PUSH0 RETURNDATACOPY RETURNDATASIZE PUSH0 REVERT JUMPDEST POP POP PUSH1 0x1 SLOAD PUSH0 SLOAD PUSH1 0x40 MLOAD PUSH4 0x95EA7B3 PUSH1 0xE0 SHL DUP2 MSTORE PUSH1 0x1 PUSH1 0x1 PUSH1 0xA0 SHL SUB SWAP2 DUP3 AND PUSH1 0x4 DUP3 ADD MSTORE PUSH9 0x56BC75E2D63100000 PUSH1 0x24 DUP3 ADD MSTORE SWAP2 AND SWAP3 POP PUSH4 0x95EA7B3 SWAP2 POP PUSH1 0x44 ADD PUSH1 0x20 PUSH1 0x40 MLOAD DUP1 DUP4 SUB DUP2 PUSH0 DUP8 GAS CALL ISZERO DUP1 ISZERO PUSH2 0x238 JUMPI RETURNDATASIZE PUSH0 PUSH0 RETURNDATACOPY RETURNDATASIZE PUSH0 REVERT JUMPDEST POP POP POP POP PUSH1 0x40 MLOAD RETURNDATASIZE PUSH1 0x1F NOT PUSH1 0x1F DUP3 ADD AND DUP3 ADD DUP1 PUSH1 0x40 MSTORE POP DUP2 ADD SWAP1 PUSH2 0x25C SWAP2 SWAP1 PUSH2 0x3EA JUMP JUMPDEST POP PUSH0 DUP1 SLOAD PUSH1 0x40 MLOAD PUSH4 0xCC6AE755 PUSH1 0xE0 SHL DUP2 MSTORE PUSH9 0x56BC75E2D63100000 PUSH1 0x4 DUP3 ADD MSTORE PUSH1 0x24 DUP2 ADD DUP4 SWAP1 MSTORE PUSH1 0x44 DUP2 ADD SWAP3 SWAP1 SWAP3 MSTORE PUSH1 0x1 PUSH1 0x1 PUSH1 0xA0 SHL SUB AND SWAP1 PUSH4 0xCC6AE755 SWAP1 PUSH1 0x64 ADD PUSH0 PUSH1 0x40 MLOAD DUP1 DUP4 SUB DUP2 PUSH0 DUP8 DUP1 EXTCODESIZE ISZERO DUP1 ISZERO PUSH2 0x2B5 JUMPI PUSH0 PUSH0 REVERT JUMPDEST POP GAS CALL ISZERO DUP1 ISZERO PUSH2 0x2C7 JUMPI RETURNDATASIZE PUSH0 PUSH0 RETURNDATACOPY RETURNDATASIZE PUSH0 REVERT JUMPDEST POP POP PUSH1 0x1 SLOAD PUSH0 DUP1 SLOAD PUSH1 0x40 MLOAD PUSH4 0x70A08231 PUSH1 0xE0 SHL DUP2 MSTORE PUSH1 0x1 PUSH1 0x1 PUSH1 0xA0 SHL SUB SWAP2 DUP3 AND PUSH1 0x4 DUP3 ADD MSTORE SWAP2 SWAP5 POP SWAP1 SWAP2 AND SWAP2 POP PUSH4 0x70A08231 SWAP1 PUSH1 0x24 ADD PUSH1 0x20 PUSH1 0x40 MLOAD DUP1 DUP4 SUB DUP2 DUP7 GAS STATICCALL ISZERO DUP1 ISZERO PUSH2 0x318 JUMPI RETURNDATASIZE PUSH0 PUSH0 RETURNDATACOPY RETURNDATASIZE PUSH0 REVERT JUMPDEST POP POP POP POP PUSH1 0x40 MLOAD RETURNDATASIZE PUSH1 0x1F NOT PUSH1 0x1F DUP3 ADD AND DUP3 ADD DUP1 PUSH1 0x40 MSTORE POP DUP2 ADD SWAP1 PUSH2 0x33C SWAP2 SWAP1 PUSH2 0x410 JUMP JUMPDEST SWAP1 POP PUSH9 0x56BC75E2D63100000 DUP2 LT PUSH2 0x3C0 JUMPI PUSH1 0x40 MLOAD PUSH3 0x461BCD PUSH1 0xE5 SHL DUP2 MSTORE PUSH1 0x20 PUSH1 0x4 DUP3 ADD MSTORE PUSH1 0x3C PUSH1 0x24 DUP3 ADD MSTORE PUSH32 0x54657374204661696C65643A2046656520776173206E6F742064656475637465 PUSH1 0x44 DUP3 ADD MSTORE PUSH32 0x642C20696E736F6C76656E6379206E6F7420726570726F647563656400000000 PUSH1 0x64 DUP3 ADD MSTORE PUSH1 0x84 ADD PUSH1 0x40 MLOAD DUP1 SWAP2 SUB SWAP1 REVERT JUMPDEST POP POP JUMP JUMPDEST PUSH2 0x44A DUP1 PUSH2 0x428 DUP4 CODECOPY ADD SWAP1 JUMP JUMPDEST PUSH1 0x5D DUP1 PUSH2 0x872 DUP4 CODECOPY ADD SWAP1 JUMP JUMPDEST PUSH2 0x2414 DUP1 PUSH2 0x8CF DUP4 CODECOPY ADD SWAP1 JUMP JUMPDEST PUSH0 PUSH1 0x20 DUP3 DUP5 SUB SLT ISZERO PUSH2 0x3FA JUMPI PUSH0 PUSH0 REVERT JUMPDEST DUP2 MLOAD DUP1 ISZERO ISZERO DUP2 EQ PUSH2 0x409 JUMPI PUSH0 PUSH0 REVERT JUMPDEST SWAP4 SWAP3 POP POP POP JUMP JUMPDEST PUSH0 PUSH1 0x20 DUP3 DUP5 SUB SLT ISZERO PUSH2 0x420 JUMPI PUSH0 PUSH0 REVERT JUMPDEST POP MLOAD SWAP2 SWAP1 POP JUMP INVALID PUSH1 0x80 PUSH1 0x40 MSTORE CALLVALUE DUP1 ISZERO PUSH1 0xE JUMPI PUSH0 PUSH0 REVERT JUMPDEST POP CALLER PUSH0 SWAP1 DUP2 MSTORE PUSH1 0x20 DUP2 SWAP1 MSTORE PUSH1 0x40 SWAP1 KECCAK256 PUSH10 0xD3C21BCECCEDA1000000 SWAP1 SSTORE PUSH2 0x413 DUP1 PUSH2 0x37 PUSH0 CODECOPY PUSH0 RETURN INVALID PUSH1 0x80 PUSH1 0x40 MSTORE CALLVALUE DUP1 ISZERO PUSH2 0xF JUMPI PUSH0 PUSH0 REVERT JUMPDEST POP PUSH1 0x4 CALLDATASIZE LT PUSH2 0x60 JUMPI PUSH0 CALLDATALOAD PUSH1 0xE0 SHR DUP1 PUSH4 0x95EA7B3 EQ PUSH2 0x64 JUMPI DUP1 PUSH4 0x23B872DD EQ PUSH2 0x8C JUMPI DUP1 PUSH4 0x40C10F19 EQ PUSH2 0x9F JUMPI DUP1 PUSH4 0x70A08231 EQ PUSH2 0xB4 JUMPI DUP1 PUSH4 0xA9059CBB EQ PUSH2 0xE1 JUMPI DUP1 PUSH4 0xDD62ED3E EQ PUSH2 0xF4 JUMPI JUMPDEST PUSH0 PUSH0 REVERT JUMPDEST PUSH2 0x77 PUSH2 0x72 CALLDATASIZE PUSH1 0x4 PUSH2 0x2D1 JUMP JUMPDEST PUSH2 0x11E JUMP JUMPDEST PUSH1 0x40 MLOAD SWAP1 ISZERO ISZERO DUP2 MSTORE PUSH1 0x20 ADD JUMPDEST PUSH1 0x40 MLOAD DUP1 SWAP2 SUB SWAP1 RETURN JUMPDEST PUSH2 0x77 PUSH2 0x9A CALLDATASIZE PUSH1 0x4 PUSH2 0x2F9 JUMP JUMPDEST PUSH2 0x14B JUMP JUMPDEST PUSH2 0xB2 PUSH2 0xAD CALLDATASIZE PUSH1 0x4 PUSH2 0x2D1 JUMP JUMPDEST PUSH2 0x1D5 JUMP JUMPDEST STOP JUMPDEST PUSH2 0xD3 PUSH2 0xC2 CALLDATASIZE PUSH1 0x4 PUSH2 0x333 JUMP JUMPDEST PUSH0 PUSH1 0x20 DUP2 SWAP1 MSTORE SWAP1 DUP2 MSTORE PUSH1 0x40 SWAP1 KECCAK256 SLOAD DUP2 JUMP JUMPDEST PUSH1 0x40 MLOAD SWAP1 DUP2 MSTORE PUSH1 0x20 ADD PUSH2 0x83 JUMP JUMPDEST PUSH2 0x77 PUSH2 0xEF CALLDATASIZE PUSH1 0x4 PUSH2 0x2D1 JUMP JUMPDEST PUSH2 0x205 JUMP JUMPDEST PUSH2 0xD3 PUSH2 0x102 CALLDATASIZE PUSH1 0x4 PUSH2 0x353 JUMP JUMPDEST PUSH1 0x1 PUSH1 0x20 SWAP1 DUP2 MSTORE PUSH0 SWAP3 DUP4 MSTORE PUSH1 0x40 DUP1 DUP5 KECCAK256 SWAP1 SWAP2 MSTORE SWAP1 DUP3 MSTORE SWAP1 KECCAK256 SLOAD DUP2 JUMP JUMPDEST CALLER PUSH0 SWAP1 DUP2 MSTORE PUSH1 0x1 PUSH1 0x20 DUP2 DUP2 MSTORE PUSH1 0x40 DUP1 DUP5 KECCAK256 PUSH1 0x1 PUSH1 0x1 PUSH1 0xA0 SHL SUB DUP8 AND DUP6 MSTORE SWAP1 SWAP2 MSTORE SWAP1 SWAP2 KECCAK256 DUP3 SWAP1 SSTORE JUMPDEST SWAP3 SWAP2 POP POP JUMP JUMPDEST PUSH0 DUP1 PUSH2 0x158 PUSH1 0x64 DUP5 PUSH2 0x398 JUMP JUMPDEST SWAP1 POP PUSH0 PUSH2 0x165 DUP3 DUP6 PUSH2 0x3B7 JUMP JUMPDEST SWAP1 POP DUP4 PUSH0 PUSH0 DUP9 PUSH1 0x1 PUSH1 0x1 PUSH1 0xA0 SHL SUB AND PUSH1 0x1 PUSH1 0x1 PUSH1 0xA0 SHL SUB AND DUP2 MSTORE PUSH1 0x20 ADD SWAP1 DUP2 MSTORE PUSH1 0x20 ADD PUSH0 KECCAK256 PUSH0 DUP3 DUP3 SLOAD PUSH2 0x198 SWAP2 SWAP1 PUSH2 0x3B7 JUMP JUMPDEST SWAP1 SWAP2 SSTORE POP POP PUSH1 0x1 PUSH1 0x1 PUSH1 0xA0 SHL SUB DUP6 AND PUSH0 SWAP1 DUP2 MSTORE PUSH1 0x20 DUP2 SWAP1 MSTORE PUSH1 0x40 DUP2 KECCAK256 DUP1 SLOAD DUP4 SWAP3 SWAP1 PUSH2 0x1C4 SWAP1 DUP5 SWAP1 PUSH2 0x3CA JUMP JUMPDEST SWAP1 SWAP2 SSTORE POP PUSH1 0x1 SWAP8 SWAP7 POP POP POP POP POP POP POP JUMP JUMPDEST PUSH1 0x1 PUSH1 0x1 PUSH1 0xA0 SHL SUB DUP3 AND PUSH0 SWAP1 DUP2 MSTORE PUSH1 0x20 DUP2 SWAP1 MSTORE PUSH1 0x40 DUP2 KECCAK256 DUP1 SLOAD DUP4 SWAP3 SWAP1 PUSH2 0x1FC SWAP1 DUP5 SWAP1 PUSH2 0x3CA JUMP JUMPDEST SWAP1 SWAP2 SSTORE POP POP POP POP JUMP JUMPDEST CALLER PUSH0 SWAP1 DUP2 MSTORE PUSH1 0x20 DUP2 SWAP1 MSTORE PUSH1 0x40 DUP2 KECCAK256 SLOAD DUP3 GT ISZERO PUSH2 0x25E JUMPI PUSH1 0x40 MLOAD PUSH3 0x461BCD PUSH1 0xE5 SHL DUP2 MSTORE PUSH1 0x20 PUSH1 0x4 DUP3 ADD MSTORE PUSH1 0x14 PUSH1 0x24 DUP3 ADD MSTORE PUSH20 0x496E73756666696369656E742062616C616E6365 PUSH1 0x60 SHL PUSH1 0x44 DUP3 ADD MSTORE PUSH1 0x64 ADD PUSH1 0x40 MLOAD DUP1 SWAP2 SUB SWAP1 REVERT JUMPDEST CALLER PUSH0 SWAP1 DUP2 MSTORE PUSH1 0x20 DUP2 SWAP1 MSTORE PUSH1 0x40 DUP2 KECCAK256 DUP1 SLOAD DUP5 SWAP3 SWAP1 PUSH2 0x27C SWAP1 DUP5 SWAP1 PUSH2 0x3B7 JUMP JUMPDEST SWAP1 SWAP2 SSTORE POP POP PUSH1 0x1 PUSH1 0x1 PUSH1 0xA0 SHL SUB DUP4 AND PUSH0 SWAP1 DUP2 MSTORE PUSH1 0x20 DUP2 SWAP1 MSTORE PUSH1 0x40 DUP2 KECCAK256 DUP1 SLOAD DUP5 SWAP3 SWAP1 PUSH2 0x2A8 SWAP1 DUP5 SWAP1 PUSH2 0x3CA JUMP JUMPDEST SWAP1 SWAP2 SSTORE POP PUSH1 0x1 SWAP5 SWAP4 POP POP POP POP JUMP JUMPDEST DUP1 CALLDATALOAD PUSH1 0x1 PUSH1 0x1 PUSH1 0xA0 SHL SUB DUP2 AND DUP2 EQ PUSH2 0x2CC JUMPI PUSH0 PUSH0 REVERT JUMPDEST SWAP2 SWAP1 POP JUMP JUMPDEST PUSH0 PUSH0 PUSH1 0x40 DUP4 DUP6 SUB SLT ISZERO PUSH2 0x2E2 JUMPI PUSH0 PUSH0 REVERT JUMPDEST PUSH2 0x2EB DUP4 PUSH2 0x2B6 JUMP JUMPDEST SWAP5 PUSH1 0x20 SWAP4 SWAP1 SWAP4 ADD CALLDATALOAD SWAP4 POP POP POP JUMP JUMPDEST PUSH0 PUSH0 PUSH0 PUSH1 0x60 DUP5 DUP7 SUB SLT ISZERO PUSH2 0x30B JUMPI PUSH0 PUSH0 REVERT JUMPDEST PUSH2 0x314 DUP5 PUSH2 0x2B6 JUMP JUMPDEST SWAP3 POP PUSH2 0x322 PUSH1 0x20 DUP6 ADD PUSH2 0x2B6 JUMP JUMPDEST SWAP3 SWAP6 SWAP3 SWAP5 POP POP POP PUSH1 0x40 SWAP2 SWAP1 SWAP2 ADD CALLDATALOAD SWAP1 JUMP JUMPDEST PUSH0 PUSH1 0x20 DUP3 DUP5 SUB SLT ISZERO PUSH2 0x343 JUMPI PUSH0 PUSH0 REVERT JUMPDEST PUSH2 0x34C DUP3 PUSH2 0x2B6 JUMP JUMPDEST SWAP4 SWAP3 POP POP POP JUMP JUMPDEST PUSH0 PUSH0 PUSH1 0x40 DUP4 DUP6 SUB SLT ISZERO PUSH2 0x364 JUMPI PUSH0 PUSH0 REVERT JUMPDEST PUSH2 0x36D DUP4 PUSH2 0x2B6 JUMP JUMPDEST SWAP2 POP PUSH2 0x37B PUSH1 0x20 DUP5 ADD PUSH2 0x2B6 JUMP JUMPDEST SWAP1 POP SWAP3 POP SWAP3 SWAP1 POP JUMP JUMPDEST PUSH4 0x4E487B71 PUSH1 0xE0 SHL PUSH0 MSTORE PUSH1 0x11 PUSH1 0x4 MSTORE PUSH1 0x24 PUSH0 REVERT JUMPDEST PUSH0 DUP3 PUSH2 0x3B2 JUMPI PUSH4 0x4E487B71 PUSH1 0xE0 SHL PUSH0 MSTORE PUSH1 0x12 PUSH1 0x4 MSTORE PUSH1 0x24 PUSH0 REVERT JUMPDEST POP DIV SWAP1 JUMP JUMPDEST DUP2 DUP2 SUB DUP2 DUP2 GT ISZERO PUSH2 0x145 JUMPI PUSH2 0x145 PUSH2 0x384 JUMP JUMPDEST DUP1 DUP3 ADD DUP1 DUP3 GT ISZERO PUSH2 0x145 JUMPI PUSH2 0x145 PUSH2 0x384 JUMP INVALID LOG2 PUSH5 0x6970667358 0x22 SLT KECCAK256 0x4E 0xB3 EQ DUP5 0xA7 0xED DUP3 SMOD PUSH26 0xA04AC3DE7790F607F4AB5A58B3283EAD77CCAEB174850264736F PUSH13 0x634300081E0033608060405234 DUP1 ISZERO PUSH1 0xE JUMPI PUSH0 PUSH0 REVERT JUMPDEST POP PUSH1 0x43 DUP1 PUSH1 0x1A PUSH0 CODECOPY PUSH0 RETURN INVALID PUSH1 0x80 PUSH1 0x40 MSTORE PUSH1 0x1 PUSH0 MSTORE PUSH1 0x20 PUSH0 RETURN INVALID LOG2 PUSH5 0x6970667358 0x22 SLT KECCAK256 0xCB BYTE CREATE EXTDELEGATECALL 0xE9 0xB5 0x1F 0xD3 SMOD ADDMOD 0xC2 0xA6 RJUMPI 0xC0CD PUSH25 0x7237F3F74BB13F7A86F96BC6E56D176E64736F6C634300081E STOP CALLER PUSH1 0x80 PUSH1 0x40 MSTORE CALLVALUE DUP1 ISZERO PUSH1 0xE JUMPI PUSH0 PUSH0 REVERT JUMPDEST POP PUSH2 0x23F8 DUP1 PUSH2 0x1C PUSH0 CODECOPY PUSH0 RETURN INVALID PUSH1 0x80 PUSH1 0x40 MSTORE CALLVALUE DUP1 ISZERO PUSH2 0xF JUMPI PUSH0 PUSH0 REVERT JUMPDEST POP PUSH1 0x4 CALLDATASIZE LT PUSH2 0xCB JUMPI PUSH0 CALLDATALOAD PUSH1 0xE0 SHR DUP1 PUSH4 0x57E72D9F GT PUSH2 0x88 JUMPI DUP1 PUSH4 0x8456CB59 GT PUSH2 0x63 JUMPI DUP1 PUSH4 0x8456CB59 EQ PUSH2 0x312 JUMPI DUP1 PUSH4 0x84CBD9CD EQ PUSH2 0x31A JUMPI DUP1 PUSH4 0xCC6AE755 EQ PUSH2 0x39A JUMPI DUP1 PUSH4 0xE63EA408 EQ PUSH2 0x3AD JUMPI PUSH0 PUSH0 REVERT JUMPDEST DUP1 PUSH4 0x57E72D9F EQ PUSH2 0x25D JUMPI DUP1 PUSH4 0x5C975ABB EQ PUSH2 0x270 JUMPI DUP1 PUSH4 0x699C2994 EQ PUSH2 0x286 JUMPI PUSH0 PUSH0 REVERT JUMPDEST DUP1 PUSH4 0xA636D5B EQ PUSH2 0xCF JUMPI DUP1 PUSH4 0xD7C730B EQ PUSH2 0xD9 JUMPI DUP1 PUSH4 0x2A36D043 EQ PUSH2 0x1EE JUMPI DUP1 PUSH4 0x3CCCEBC5 EQ PUSH2 0x201 JUMPI DUP1 PUSH4 0x3F4BA83A EQ PUSH2 0x24D JUMPI DUP1 PUSH4 0x54DD1DA4 EQ PUSH2 0x255 JUMPI JUMPDEST PUSH0 PUSH0 REVERT JUMPDEST PUSH2 0xD7 PUSH2 0x3C0 JUMP JUMPDEST STOP JUMPDEST PUSH2 0x1D8 PUSH1 0x40 DUP1 MLOAD PUSH2 0x180 DUP2 ADD DUP3 MSTORE PUSH0 DUP1 DUP3 MSTORE PUSH1 0x20 DUP3 ADD DUP2 SWAP1 MSTORE SWAP2 DUP2 ADD DUP3 SWAP1 MSTORE PUSH1 0x60 DUP2 ADD DUP3 SWAP1 MSTORE PUSH1 0x80 DUP2 ADD DUP3 SWAP1 MSTORE PUSH1 0xA0 DUP2 ADD DUP3 SWAP1 MSTORE PUSH1 0xC0 DUP2 ADD DUP3 SWAP1 MSTORE PUSH1 0xE0 DUP2 ADD DUP3 SWAP1 MSTORE PUSH2 0x100 DUP2 ADD DUP3 SWAP1 MSTORE PUSH2 0x120 DUP2 ADD DUP3 SWAP1 MSTORE PUSH2 0x140 DUP2 ADD DUP3 SWAP1 MSTORE PUSH2 0x160 DUP2 ADD SWAP2 SWAP1 SWAP2 MSTORE POP PUSH1 0x40 DUP1 MLOAD PUSH2 0x180 DUP2 ADD DUP3 MSTORE PUSH1 0x3 SLOAD PUSH2 0xFFFF DUP1 DUP3 AND DUP4 MSTORE PUSH3 0x10000 DUP3 DIV AND PUSH1 0x20 DUP4 ADD MSTORE PUSH5 0x100000000 SWAP1 DIV PUSH1 0xFF AND ISZERO ISZERO SWAP2 DUP2 ADD SWAP2 SWAP1 SWAP2 MSTORE PUSH1 0x4 SLOAD PUSH1 0x60 DUP3 ADD MSTORE PUSH1 0x5 SLOAD PUSH1 0x80 DUP3 ADD MSTORE PUSH1 0x6 SLOAD PUSH1 0x1 PUSH1 0x1 PUSH1 0xA0 SHL SUB SWAP1 DUP2 AND PUSH1 0xA0 DUP4 ADD MSTORE PUSH1 0x7 SLOAD DUP2 AND PUSH1 0xC0 DUP4 ADD MSTORE PUSH1 0x8 SLOAD DUP2 AND PUSH1 0xE0 DUP4 ADD MSTORE PUSH1 0x9 SLOAD DUP2 AND PUSH2 0x100 DUP4 ADD MSTORE PUSH1 0xA SLOAD DUP2 AND PUSH2 0x120 DUP4 ADD MSTORE PUSH1 0xB SLOAD DUP2 AND PUSH2 0x140 DUP4 ADD MSTORE PUSH1 0xC SLOAD AND PUSH2 0x160 DUP3 ADD MSTORE SWAP1 JUMP JUMPDEST PUSH1 0x40 MLOAD PUSH2 0x1E5 SWAP2 SWAP1 PUSH2 0x1E62 JUMP JUMPDEST PUSH1 0x40 MLOAD DUP1 SWAP2 SUB SWAP1 RETURN JUMPDEST PUSH2 0xD7 PUSH2 0x1FC CALLDATASIZE PUSH1 0x4 PUSH2 0x1F8E JUMP JUMPDEST PUSH2 0x3F5 JUMP JUMPDEST PUSH1 0x40 DUP1 MLOAD DUP1 DUP3 ADD DUP3 MSTORE PUSH0 DUP1 DUP3 MSTORE PUSH1 0x20 SWAP2 DUP3 ADD DUP2 SWAP1 MSTORE DUP3 MLOAD DUP1 DUP5 ADD DUP5 MSTORE SWAP1 SLOAD PUSH1 0x1 PUSH1 0x1 PUSH1 0xA0 SHL SUB SWAP1 DUP2 AND DUP1 DUP4 MSTORE PUSH1 0x1 SLOAD DUP3 AND SWAP3 DUP5 ADD SWAP3 DUP4 MSTORE DUP5 MLOAD SWAP1 DUP2 MSTORE SWAP2 MLOAD AND SWAP2 DUP2 ADD SWAP2 SWAP1 SWAP2 MSTORE ADD PUSH2 0x1E5 JUMP JUMPDEST PUSH2 0xD7 PUSH2 0x46E JUMP JUMPDEST PUSH2 0xD7 PUSH2 0x4A1 JUMP JUMPDEST PUSH2 0xD7 PUSH2 0x26B CALLDATASIZE PUSH1 0x4 PUSH2 0x1FEC JUMP JUMPDEST PUSH2 0x574 JUMP JUMPDEST PUSH1 0x2 SLOAD PUSH1 0xFF AND PUSH1 0x40 MLOAD SWAP1 ISZERO ISZERO DUP2 MSTORE PUSH1 0x20 ADD PUSH2 0x1E5 JUMP JUMPDEST PUSH2 0x299 PUSH2 0x294 CALLDATASIZE PUSH1 0x4 PUSH2 0x208B JUMP JUMPDEST PUSH2 0x766 JUMP JUMPDEST PUSH1 0x40 MLOAD PUSH2 0x1E5 SWAP2 SWAP1 PUSH0 PUSH1 0xE0 DUP3 ADD SWAP1 POP PUSH1 0x1 PUSH1 0x1 PUSH1 0x40 SHL SUB DUP4 MLOAD AND DUP3 MSTORE PUSH1 0x1 PUSH1 0x1 PUSH1 0x40 SHL SUB PUSH1 0x20 DUP5 ADD MLOAD AND PUSH1 0x20 DUP4 ADD MSTORE PUSH1 0x1 PUSH1 0x1 PUSH1 0x40 SHL SUB PUSH1 0x40 DUP5 ADD MLOAD AND PUSH1 0x40 DUP4 ADD MSTORE PUSH1 0x1 PUSH1 0x1 PUSH1 0x40 SHL SUB PUSH1 0x60 DUP5 ADD MLOAD AND PUSH1 0x60 DUP4 ADD MSTORE PUSH1 0x80 DUP4 ADD MLOAD PUSH1 0x80 DUP4 ADD MSTORE PUSH1 0xA0 DUP4 ADD MLOAD PUSH1 0xA0 DUP4 ADD MSTORE PUSH1 0xC0 DUP4 ADD MLOAD PUSH1 0xC0 DUP4 ADD MSTORE SWAP3 SWAP2 POP POP JUMP JUMPDEST PUSH2 0xD7 PUSH2 0xAFE JUMP JUMPDEST PUSH2 0x374 PUSH2 0x328 CALLDATASIZE PUSH1 0x4 PUSH2 0x208B JUMP JUMPDEST PUSH1 0x40 DUP1 MLOAD DUP1 DUP3 ADD DUP3 MSTORE PUSH0 DUP1 DUP3 MSTORE PUSH1 0x20 SWAP2 DUP3 ADD DUP2 SWAP1 MSTORE PUSH1 0x1 PUSH1 0x1 PUSH1 0xA0 SHL SUB SWAP4 DUP5 AND DUP2 MSTORE PUSH1 0xD DUP3 MSTORE DUP3 SWAP1 KECCAK256 DUP3 MLOAD DUP1 DUP5 ADD SWAP1 SWAP4 MSTORE SLOAD PUSH1 0xFF DUP2 AND ISZERO ISZERO DUP4 MSTORE PUSH2 0x100 SWAP1 DIV SWAP1 SWAP3 AND SWAP2 DUP2 ADD SWAP2 SWAP1 SWAP2 MSTORE SWAP1 JUMP JUMPDEST PUSH1 0x40 DUP1 MLOAD DUP3 MLOAD ISZERO ISZERO DUP2 MSTORE PUSH1 0x20 SWAP3 DUP4 ADD MLOAD PUSH1 0x1 PUSH1 0x1 PUSH1 0xA0 SHL SUB AND SWAP3 DUP2 ADD SWAP3 SWAP1 SWAP3 MSTORE ADD PUSH2 0x1E5 JUMP JUMPDEST PUSH2 0xD7 PUSH2 0x3A8 CALLDATASIZE PUSH1 0x4 PUSH2 0x20AD JUMP JUMPDEST PUSH2 0xB31 JUMP JUMPDEST PUSH2 0xD7 PUSH2 0x3BB CALLDATASIZE PUSH1 0x4 PUSH2 0x20D6 JUMP JUMPDEST PUSH2 0xD47 JUMP JUMPDEST PUSH1 0x8 SLOAD PUSH1 0x1 PUSH1 0x1 PUSH1 0xA0 SHL SUB AND CALLER EQ PUSH2 0x3EB JUMPI PUSH1 0x40 MLOAD PUSH4 0x1634F9A3 PUSH1 0xE3 SHL DUP2 MSTORE PUSH1 0x4 ADD PUSH1 0x40 MLOAD DUP1 SWAP2 SUB SWAP1 REVERT JUMPDEST PUSH2 0x3F3 PUSH2 0xDCD JUMP JUMPDEST JUMP JUMPDEST PUSH4 0x409FEECD NOT DUP1 SLOAD PUSH1 0x3 DUP3 SSTORE DUP1 ISZERO PUSH2 0x42B JUMPI PUSH1 0x1 DUP2 PUSH1 0x1 SHR EQ ADDRESS EXTCODESIZE LT PUSH2 0x422 JUMPI PUSH4 0xF92EE8A9 PUSH0 MSTORE PUSH1 0x4 PUSH1 0x1C REVERT JUMPDEST DUP2 DUP2 PUSH1 0xFF SHL SHL SWAP2 POP JUMPDEST POP PUSH2 0x435 DUP3 PUSH2 0x111C JUMP JUMPDEST DUP1 ISZERO PUSH2 0x46A JUMPI PUSH1 0x2 DUP2 SSTORE PUSH1 0x1 PUSH1 0x20 MSTORE PUSH32 0xC7F505B2F371AE2175EE4913F4499E1F2633A7B5936321EED1CDAEB6115181D2 PUSH1 0x20 DUP1 LOG1 JUMPDEST POP POP JUMP JUMPDEST PUSH1 0x8 SLOAD PUSH1 0x1 PUSH1 0x1 PUSH1 0xA0 SHL SUB AND CALLER EQ PUSH2 0x499 JUMPI PUSH1 0x40 MLOAD PUSH4 0x1634F9A3 PUSH1 0xE3 SHL DUP2 MSTORE PUSH1 0x4 ADD PUSH1 0x40 MLOAD DUP1 SWAP2 SUB SWAP1 REVERT JUMPDEST PUSH2 0x3F3 PUSH2 0x1252 JUMP JUMPDEST PUSH2 0x4A9 PUSH2 0x129F JUMP JUMPDEST CALLER PUSH0 SWAP1 DUP2 MSTORE PUSH1 0xD PUSH1 0x20 MSTORE PUSH1 0x40 SWAP1 KECCAK256 SLOAD PUSH2 0x100 SWAP1 DIV PUSH1 0x1 PUSH1 0x1 PUSH1 0xA0 SHL SUB AND DUP1 PUSH2 0x4E4 JUMPI PUSH1 0x40 MLOAD PUSH4 0xB840F60B PUSH1 0xE0 SHL DUP2 MSTORE PUSH1 0x4 ADD PUSH1 0x40 MLOAD DUP1 SWAP2 SUB SWAP1 REVERT JUMPDEST PUSH1 0x40 MLOAD CALLER DUP2 MSTORE PUSH32 0x6A6394C66A3A0959731C67D80D271A6A6391982DD49BA59B4440C9D72A0123D0 SWAP1 PUSH1 0x20 ADD PUSH1 0x40 MLOAD DUP1 SWAP2 SUB SWAP1 LOG1 PUSH1 0x6 SLOAD PUSH1 0x40 MLOAD PUSH4 0x19165587 PUSH1 0xE0 SHL DUP2 MSTORE PUSH1 0x1 PUSH1 0x1 PUSH1 0xA0 SHL SUB SWAP2 DUP3 AND PUSH1 0x4 DUP3 ADD MSTORE SWAP1 DUP3 AND SWAP1 PUSH4 0x19165587 SWAP1 PUSH1 0x24 ADD PUSH0 PUSH1 0x40 MLOAD DUP1 DUP4 SUB DUP2 PUSH0 DUP8 DUP1 EXTCODESIZE ISZERO DUP1 ISZERO PUSH2 0x55B JUMPI PUSH0 PUSH0 REVERT JUMPDEST POP GAS CALL ISZERO DUP1 ISZERO PUSH2 0x56D JUMPI RETURNDATASIZE PUSH0 PUSH0 RETURNDATACOPY RETURNDATASIZE PUSH0 REVERT JUMPDEST POP POP POP POP POP JUMP JUMPDEST PUSH2 0x57C PUSH2 0x129F JUMP JUMPDEST PUSH2 0x585 DUP6 PUSH2 0x12C3 JUMP JUMPDEST PUSH2 0x58D PUSH2 0x1539 JUMP JUMPDEST PUSH2 0x598 DUP7 DUP6 DUP6 PUSH2 0x15BE JUMP JUMPDEST PUSH2 0x5A3 DUP3 DUP3 DUP8 PUSH2 0x16C6 JUMP JUMPDEST CALLER PUSH0 SWAP1 DUP2 MSTORE PUSH1 0xD PUSH1 0x20 MSTORE PUSH1 0x40 DUP2 KECCAK256 DUP1 SLOAD PUSH1 0xFF NOT AND PUSH1 0x1 OR DUP2 SSTORE PUSH1 0x5 DUP1 SLOAD SWAP2 SWAP3 DUP10 SWAP3 PUSH2 0x5CF SWAP1 DUP5 SWAP1 PUSH2 0x2128 JUMP JUMPDEST SWAP1 SWAP2 SSTORE POP POP PUSH1 0x40 DUP1 MLOAD PUSH2 0x180 DUP2 ADD DUP3 MSTORE PUSH1 0x3 SLOAD PUSH2 0xFFFF DUP1 DUP3 AND DUP4 MSTORE PUSH3 0x10000 DUP3 DIV AND PUSH1 0x20 DUP4 ADD MSTORE PUSH5 0x100000000 SWAP1 DIV PUSH1 0xFF AND ISZERO ISZERO SWAP2 DUP2 ADD SWAP2 SWAP1 SWAP2 MSTORE PUSH1 0x4 SLOAD PUSH1 0x60 DUP3 ADD MSTORE PUSH1 0x5 SLOAD PUSH1 0x80 DUP3 ADD MSTORE PUSH1 0x6 SLOAD PUSH1 0x1 PUSH1 0x1 PUSH1 0xA0 SHL SUB SWAP1 DUP2 AND PUSH1 0xA0 DUP4 ADD MSTORE PUSH1 0x7 SLOAD DUP2 AND PUSH1 0xC0 DUP1 DUP5 ADD SWAP2 SWAP1 SWAP2 MSTORE PUSH1 0x8 SLOAD DUP3 AND PUSH1 0xE0 DUP1 DUP6 ADD SWAP2 SWAP1 SWAP2 MSTORE PUSH1 0x9 SLOAD DUP4 AND PUSH2 0x100 DUP6 ADD MSTORE PUSH1 0xA SLOAD DUP4 AND PUSH2 0x120 DUP6 ADD MSTORE PUSH1 0xB SLOAD DUP4 AND PUSH2 0x140 DUP6 ADD MSTORE PUSH1 0xC SLOAD SWAP1 SWAP3 AND PUSH2 0x160 DUP5 ADD MSTORE PUSH0 SWAP2 PUSH8 0xDE0B6B3A7640000 SWAP2 PUSH2 0x690 SWAP2 DUP12 ADD SWAP1 DUP12 ADD PUSH2 0x215F JUMP JUMPDEST PUSH2 0x6A3 SWAP1 PUSH1 0x1 PUSH1 0x1 PUSH1 0x40 SHL SUB AND DUP12 PUSH2 0x217A JUMP JUMPDEST PUSH2 0x6AD SWAP2 SWAP1 PUSH2 0x2191 JUMP JUMPDEST SWAP1 POP PUSH0 PUSH2 0x6BA DUP3 DUP12 PUSH2 0x21B0 JUMP JUMPDEST PUSH1 0x40 DUP1 MLOAD DUP3 DUP2 MSTORE PUSH1 0x20 DUP2 ADD DUP6 SWAP1 MSTORE CALLER DUP2 DUP4 ADD MSTORE SWAP1 MLOAD SWAP2 SWAP3 POP PUSH32 0x2D5E35638CF358DB0CB3C0B403FECDECFD5660DA5EC0CE5D29106EE59DA69A6C SWAP2 SWAP1 DUP2 SWAP1 SUB PUSH1 0x60 ADD SWAP1 LOG1 DUP1 ISZERO PUSH2 0x745 JUMPI PUSH0 PUSH2 0x712 DUP11 DUP6 PUSH1 0xA0 ADD MLOAD PUSH2 0x175D JUMP JUMPDEST DUP6 SLOAD PUSH2 0x100 PUSH1 0x1 PUSH1 0xA8 SHL SUB NOT AND PUSH2 0x100 PUSH1 0x1 PUSH1 0x1 PUSH1 0xA0 SHL SUB DUP4 AND MUL OR DUP7 SSTORE PUSH1 0xA0 DUP6 ADD MLOAD SWAP1 SWAP2 POP PUSH2 0x743 SWAP1 DUP3 DUP5 PUSH2 0x186E JUMP JUMPDEST POP JUMPDEST DUP2 ISZERO PUSH2 0x75A JUMPI PUSH2 0x75A DUP4 PUSH1 0xA0 ADD MLOAD CALLER DUP5 PUSH2 0x186E JUMP JUMPDEST POP POP POP POP POP POP POP POP POP POP JUMP JUMPDEST PUSH1 0x40 DUP1 MLOAD PUSH1 0xE0 DUP2 ADD DUP3 MSTORE PUSH0 DUP1 DUP3 MSTORE PUSH1 0x20 DUP3 ADD DUP2 SWAP1 MSTORE SWAP2 DUP2 ADD DUP3 SWAP1 MSTORE PUSH1 0x60 DUP2 ADD DUP3 SWAP1 MSTORE PUSH1 0x80 DUP2 ADD DUP3 SWAP1 MSTORE PUSH1 0xA0 DUP2 ADD DUP3 SWAP1 MSTORE PUSH1 0xC0 DUP2 ADD SWAP2 SWAP1 SWAP2 MSTORE PUSH1 0x1 PUSH1 0x1 PUSH1 0xA0 SHL SUB DUP1 DUP4 AND PUSH0 SWAP1 DUP2 MSTORE PUSH1 0xD PUSH1 0x20 MSTORE PUSH1 0x40 SWAP1 KECCAK256 SLOAD PUSH2 0x100 SWAP1 DIV AND DUP1 PUSH2 0x7C8 JUMPI DUP2 PUSH2 0xAF7 JUMP JUMPDEST PUSH1 0x40 MLOAD DUP1 PUSH1 0xE0 ADD PUSH1 0x40 MSTORE DUP1 DUP3 PUSH1 0x1 PUSH1 0x1 PUSH1 0xA0 SHL SUB AND PUSH4 0xBE9A6555 PUSH1 0x40 MLOAD DUP2 PUSH4 0xFFFFFFFF AND PUSH1 0xE0 SHL DUP2 MSTORE PUSH1 0x4 ADD PUSH1 0x20 PUSH1 0x40 MLOAD DUP1 DUP4 SUB DUP2 DUP7 GAS STATICCALL ISZERO DUP1 ISZERO PUSH2 0x80F JUMPI RETURNDATASIZE PUSH0 PUSH0 RETURNDATACOPY RETURNDATASIZE PUSH0 REVERT JUMPDEST POP POP POP POP PUSH1 0x40 MLOAD RETURNDATASIZE PUSH1 0x1F NOT PUSH1 0x1F DUP3 ADD AND DUP3 ADD DUP1 PUSH1 0x40 MSTORE POP DUP2 ADD SWAP1 PUSH2 0x833 SWAP2 SWAP1 PUSH2 0x21C3 JUMP JUMPDEST PUSH1 0x1 PUSH1 0x1 PUSH1 0x40 SHL SUB AND DUP2 MSTORE PUSH1 0x20 ADD DUP3 PUSH1 0x1 PUSH1 0x1 PUSH1 0xA0 SHL SUB AND PUSH4 0xEFBE1C1C PUSH1 0x40 MLOAD DUP2 PUSH4 0xFFFFFFFF AND PUSH1 0xE0 SHL DUP2 MSTORE PUSH1 0x4 ADD PUSH1 0x20 PUSH1 0x40 MLOAD DUP1 DUP4 SUB DUP2 DUP7 GAS STATICCALL ISZERO DUP1 ISZERO PUSH2 0x87D JUMPI RETURNDATASIZE PUSH0 PUSH0 RETURNDATACOPY RETURNDATASIZE PUSH0 REVERT JUMPDEST POP POP POP POP PUSH1 0x40 MLOAD RETURNDATASIZE PUSH1 0x1F NOT PUSH1 0x1F DUP3 ADD AND DUP3 ADD DUP1 PUSH1 0x40 MSTORE POP DUP2 ADD SWAP1 PUSH2 0x8A1 SWAP2 SWAP1 PUSH2 0x21C3 JUMP JUMPDEST PUSH1 0x1 PUSH1 0x1 PUSH1 0x40 SHL SUB AND DUP2 MSTORE PUSH1 0x20 ADD DUP3 PUSH1 0x1 PUSH1 0x1 PUSH1 0xA0 SHL SUB AND PUSH4 0xE8A6FED1 PUSH1 0x40 MLOAD DUP2 PUSH4 0xFFFFFFFF AND PUSH1 0xE0 SHL DUP2 MSTORE PUSH1 0x4 ADD PUSH1 0x20 PUSH1 0x40 MLOAD DUP1 DUP4 SUB DUP2 DUP7 GAS STATICCALL ISZERO DUP1 ISZERO PUSH2 0x8EB JUMPI RETURNDATASIZE PUSH0 PUSH0 RETURNDATACOPY RETURNDATASIZE PUSH0 REVERT JUMPDEST POP POP POP POP PUSH1 0x40 MLOAD RETURNDATASIZE PUSH1 0x1F NOT PUSH1 0x1F DUP3 ADD AND DUP3 ADD DUP1 PUSH1 0x40 MSTORE POP DUP2 ADD SWAP1 PUSH2 0x90F SWAP2 SWAP1 PUSH2 0x21C3 JUMP JUMPDEST PUSH1 0x1 PUSH1 0x1 PUSH1 0x40 SHL SUB AND DUP2 MSTORE PUSH1 0x20 ADD DUP3 PUSH1 0x1 PUSH1 0x1 PUSH1 0xA0 SHL SUB AND PUSH4 0xFB5A6B4 PUSH1 0x40 MLOAD DUP2 PUSH4 0xFFFFFFFF AND PUSH1 0xE0 SHL DUP2 MSTORE PUSH1 0x4 ADD PUSH1 0x20 PUSH1 0x40 MLOAD DUP1 DUP4 SUB DUP2 DUP7 GAS STATICCALL ISZERO DUP1 ISZERO PUSH2 0x959 JUMPI RETURNDATASIZE PUSH0 PUSH0 RETURNDATACOPY RETURNDATASIZE PUSH0 REVERT JUMPDEST POP POP POP POP PUSH1 0x40 MLOAD RETURNDATASIZE PUSH1 0x1F NOT PUSH1 0x1F DUP3 ADD AND DUP3 ADD DUP1 PUSH1 0x40 MSTORE POP DUP2 ADD SWAP1 PUSH2 0x97D SWAP2 SWAP1 PUSH2 0x21C3 JUMP JUMPDEST PUSH1 0x1 PUSH1 0x1 PUSH1 0x40 SHL SUB AND DUP2 MSTORE PUSH1 0x6 SLOAD PUSH1 0x40 MLOAD PUSH4 0x26149657 PUSH1 0xE2 SHL DUP2 MSTORE PUSH1 0x1 PUSH1 0x1 PUSH1 0xA0 SHL SUB SWAP2 DUP3 AND PUSH1 0x4 DUP3 ADD MSTORE PUSH1 0x20 SWAP1 SWAP3 ADD SWAP2 SWAP1 DUP5 AND SWAP1 PUSH4 0x9852595C SWAP1 PUSH1 0x24 ADD PUSH1 0x20 PUSH1 0x40 MLOAD DUP1 DUP4 SUB DUP2 DUP7 GAS STATICCALL ISZERO DUP1 ISZERO PUSH2 0x9D6 JUMPI RETURNDATASIZE PUSH0 PUSH0 RETURNDATACOPY RETURNDATASIZE PUSH0 REVERT JUMPDEST POP POP POP POP PUSH1 0x40 MLOAD RETURNDATASIZE PUSH1 0x1F NOT PUSH1 0x1F DUP3 ADD AND DUP3 ADD DUP1 PUSH1 0x40 MSTORE POP DUP2 ADD SWAP1 PUSH2 0x9FA SWAP2 SWAP1 PUSH2 0x21DE JUMP JUMPDEST DUP2 MSTORE PUSH1 0x6 SLOAD PUSH1 0x40 MLOAD PUSH4 0x51FC7567 PUSH1 0xE1 SHL DUP2 MSTORE PUSH1 0x1 PUSH1 0x1 PUSH1 0xA0 SHL SUB SWAP2 DUP3 AND PUSH1 0x4 DUP3 ADD MSTORE PUSH1 0x20 SWAP1 SWAP3 ADD SWAP2 SWAP1 DUP5 AND SWAP1 PUSH4 0xA3F8EACE SWAP1 PUSH1 0x24 ADD PUSH1 0x20 PUSH1 0x40 MLOAD DUP1 DUP4 SUB DUP2 DUP7 GAS STATICCALL ISZERO DUP1 ISZERO PUSH2 0xA4A JUMPI RETURNDATASIZE PUSH0 PUSH0 RETURNDATACOPY RETURNDATASIZE PUSH0 REVERT JUMPDEST POP POP POP POP PUSH1 0x40 MLOAD RETURNDATASIZE PUSH1 0x1F NOT PUSH1 0x1F DUP3 ADD AND DUP3 ADD DUP1 PUSH1 0x40 MSTORE POP DUP2 ADD SWAP1 PUSH2 0xA6E SWAP2 SWAP1 PUSH2 0x21DE JUMP JUMPDEST DUP2 MSTORE PUSH1 0x6 SLOAD PUSH1 0x40 MLOAD PUSH4 0x810EC23B PUSH1 0xE0 SHL DUP2 MSTORE PUSH1 0x1 PUSH1 0x1 PUSH1 0xA0 SHL SUB SWAP2 DUP3 AND PUSH1 0x4 DUP3 ADD MSTORE PUSH1 0x1 PUSH1 0x1 PUSH1 0x40 SHL SUB TIMESTAMP AND PUSH1 0x24 DUP3 ADD MSTORE PUSH1 0x20 SWAP1 SWAP3 ADD SWAP2 SWAP1 DUP5 AND SWAP1 PUSH4 0x810EC23B SWAP1 PUSH1 0x44 ADD PUSH1 0x20 PUSH1 0x40 MLOAD DUP1 DUP4 SUB DUP2 DUP7 GAS STATICCALL ISZERO DUP1 ISZERO PUSH2 0xACD JUMPI RETURNDATASIZE PUSH0 PUSH0 RETURNDATACOPY RETURNDATASIZE PUSH0 REVERT JUMPDEST POP POP POP POP PUSH1 0x40 MLOAD RETURNDATASIZE PUSH1 0x1F NOT PUSH1 0x1F DUP3 ADD AND DUP3 ADD DUP1 PUSH1 0x40 MSTORE POP DUP2 ADD SWAP1 PUSH2 0xAF1 SWAP2 SWAP1 PUSH2 0x21DE JUMP JUMPDEST SWAP1 MSTORE SWAP2 POP DUP2 JUMPDEST POP POP SWAP2 SWAP1 POP JUMP JUMPDEST PUSH1 0x8 SLOAD PUSH1 0x1 PUSH1 0x1 PUSH1 0xA0 SHL SUB AND CALLER EQ PUSH2 0xB29 JUMPI PUSH1 0x40 MLOAD PUSH4 0x1634F9A3 PUSH1 0xE3 SHL DUP2 MSTORE PUSH1 0x4 ADD PUSH1 0x40 MLOAD DUP1 SWAP2 SUB SWAP1 REVERT JUMPDEST PUSH2 0x3F3 PUSH2 0x18B8 JUMP JUMPDEST PUSH1 0x7 SLOAD PUSH1 0x1 PUSH1 0x1 PUSH1 0xA0 SHL SUB AND CALLER EQ PUSH2 0xB5C JUMPI PUSH1 0x40 MLOAD PUSH4 0x1312F1F PUSH1 0xE1 SHL DUP2 MSTORE PUSH1 0x4 ADD PUSH1 0x40 MLOAD DUP1 SWAP2 SUB SWAP1 REVERT JUMPDEST PUSH2 0xB64 PUSH2 0x129F JUMP JUMPDEST PUSH2 0xB6D DUP4 PUSH2 0x18F5 JUMP JUMPDEST PUSH1 0x3 DUP1 SLOAD PUSH5 0x100000000 PUSH5 0xFF00000000 NOT DUP3 AND DUP2 OR SWAP3 DUP4 SWAP1 SSTORE PUSH1 0x40 DUP1 MLOAD PUSH2 0x180 DUP2 ADD DUP3 MSTORE PUSH2 0xFFFF SWAP4 DUP5 AND DUP1 DUP3 MSTORE PUSH3 0x10000 DUP7 DIV SWAP1 SWAP5 AND PUSH1 0x20 DUP3 ADD MSTORE PUSH1 0xFF SWAP3 SWAP1 SWAP5 DIV SWAP2 SWAP1 SWAP2 AND ISZERO ISZERO SWAP1 DUP4 ADD MSTORE PUSH1 0x4 SLOAD PUSH1 0x60 DUP4 ADD MSTORE PUSH1 0x5 SLOAD PUSH1 0x80 DUP4 ADD MSTORE PUSH1 0x6 SLOAD PUSH1 0x1 PUSH1 0x1 PUSH1 0xA0 SHL SUB SWAP1 DUP2 AND PUSH1 0xA0 DUP5 ADD MSTORE PUSH1 0x7 SLOAD DUP2 AND PUSH1 0xC0 DUP5 ADD MSTORE PUSH1 0x8 SLOAD DUP2 AND PUSH1 0xE0 DUP5 ADD MSTORE PUSH1 0x9 SLOAD DUP2 AND PUSH2 0x100 DUP5 ADD MSTORE PUSH1 0xA SLOAD DUP2 AND PUSH2 0x120 DUP5 ADD MSTORE PUSH1 0xB SLOAD DUP2 AND PUSH2 0x140 DUP5 ADD MSTORE PUSH1 0xC SLOAD AND PUSH2 0x160 DUP4 ADD MSTORE PUSH0 SWAP1 PUSH2 0x2710 SWAP1 PUSH2 0xC2B SWAP1 DUP8 SWAP1 PUSH2 0x217A JUMP JUMPDEST PUSH2 0xC35 SWAP2 SWAP1 PUSH2 0x2191 JUMP JUMPDEST SWAP1 POP PUSH0 PUSH2 0x2710 PUSH2 0xFFFF AND DUP7 DUP5 PUSH1 0x20 ADD MLOAD PUSH2 0xFFFF AND PUSH2 0xC53 SWAP2 SWAP1 PUSH2 0x217A JUMP JUMPDEST PUSH2 0xC5D SWAP2 SWAP1 PUSH2 0x2191 JUMP JUMPDEST SWAP1 POP DUP2 DUP6 EQ PUSH2 0xC8E JUMPI PUSH1 0x40 MLOAD PUSH4 0x54DFF7E9 PUSH1 0xE0 SHL DUP2 MSTORE PUSH1 0x4 DUP2 ADD DUP7 SWAP1 MSTORE PUSH1 0x24 DUP2 ADD DUP4 SWAP1 MSTORE PUSH1 0x44 ADD JUMPDEST PUSH1 0x40 MLOAD DUP1 SWAP2 SUB SWAP1 REVERT JUMPDEST DUP1 DUP5 EQ PUSH2 0xCB8 JUMPI PUSH1 0x40 MLOAD PUSH4 0x54DFF7E9 PUSH1 0xE0 SHL DUP2 MSTORE PUSH1 0x4 DUP2 ADD DUP6 SWAP1 MSTORE PUSH1 0x24 DUP2 ADD DUP3 SWAP1 MSTORE PUSH1 0x44 ADD PUSH2 0xC85 JUMP JUMPDEST PUSH1 0x40 DUP1 MLOAD DUP8 DUP2 MSTORE PUSH1 0x20 DUP2 ADD DUP8 SWAP1 MSTORE SWAP1 DUP2 ADD DUP6 SWAP1 MSTORE PUSH32 0xEB6ECFF67790F9432B928D86593A8EF9296B4F8562A4E1856E2B17372FA218FB SWAP1 PUSH1 0x60 ADD PUSH1 0x40 MLOAD DUP1 SWAP2 SUB SWAP1 LOG1 PUSH2 0xD09 DUP4 PUSH1 0xA0 ADD MLOAD CALLER ADDRESS DUP10 PUSH2 0x19E0 JUMP JUMPDEST DUP5 ISZERO PUSH2 0xD24 JUMPI PUSH2 0xD24 DUP4 PUSH1 0xA0 ADD MLOAD CALLER DUP6 PUSH2 0x100 ADD MLOAD DUP9 PUSH2 0x19E0 JUMP JUMPDEST DUP4 ISZERO PUSH2 0xD3F JUMPI PUSH2 0xD3F DUP4 PUSH1 0xA0 ADD MLOAD CALLER DUP6 PUSH2 0x120 ADD MLOAD DUP8 PUSH2 0x19E0 JUMP JUMPDEST POP POP POP POP POP POP JUMP JUMPDEST PUSH1 0x8 SLOAD PUSH1 0x1 PUSH1 0x1 PUSH1 0xA0 SHL SUB AND CALLER EQ PUSH2 0xD72 JUMPI PUSH1 0x40 MLOAD PUSH4 0x1634F9A3 PUSH1 0xE3 SHL DUP2 MSTORE PUSH1 0x4 ADD PUSH1 0x40 MLOAD DUP1 SWAP2 SUB SWAP1 REVERT JUMPDEST PUSH1 0x40 DUP1 MLOAD PUSH1 0x1 PUSH1 0x1 PUSH1 0xA0 SHL SUB DUP1 DUP7 AND DUP3 MSTORE DUP5 AND PUSH1 0x20 DUP3 ADD MSTORE SWAP1 DUP2 ADD DUP3 SWAP1 MSTORE PUSH32 0xF24EF89F38EADC1BDE50701AD6E4D6D11A2DC24F7CF834A486991F3883328504 SWAP1 PUSH1 0x60 ADD PUSH1 0x40 MLOAD DUP1 SWAP2 SUB SWAP1 LOG1 PUSH2 0xDC8 DUP3 DUP5 DUP4 PUSH2 0x186E JUMP JUMPDEST POP POP POP JUMP JUMPDEST PUSH1 0xC SLOAD PUSH1 0x40 MLOAD PUSH4 0x970559CF PUSH1 0xE0 SHL DUP2 MSTORE PUSH14 0x2622A3A4A7A72FA127AAA721A2A9 PUSH1 0x91 SHL PUSH1 0x4 DUP3 ADD MSTORE PUSH1 0x1 PUSH1 0x1 PUSH1 0xA0 SHL SUB SWAP1 SWAP2 AND SWAP1 PUSH4 0x970559CF SWAP1 PUSH1 0x24 ADD PUSH1 0x20 PUSH1 0x40 MLOAD DUP1 DUP4 SUB DUP2 DUP7 GAS STATICCALL ISZERO DUP1 ISZERO PUSH2 0xE24 JUMPI RETURNDATASIZE PUSH0 PUSH0 RETURNDATACOPY RETURNDATASIZE PUSH0 REVERT JUMPDEST POP POP POP POP PUSH1 0x40 MLOAD RETURNDATASIZE PUSH1 0x1F NOT PUSH1 0x1F DUP3 ADD AND DUP3 ADD DUP1 PUSH1 0x40 MSTORE POP DUP2 ADD SWAP1 PUSH2 0xE48 SWAP2 SWAP1 PUSH2 0x21F5 JUMP JUMPDEST PUSH1 0x8 DUP1 SLOAD PUSH1 0x1 PUSH1 0x1 PUSH1 0xA0 SHL SUB NOT AND PUSH1 0x1 PUSH1 0x1 PUSH1 0xA0 SHL SUB SWAP3 DUP4 AND OR SWAP1 SSTORE PUSH1 0xC SLOAD PUSH1 0x40 MLOAD PUSH4 0x970559CF PUSH1 0xE0 SHL DUP2 MSTORE PUSH13 0x2622A3A4A7A72FA9A4A3A722A9 PUSH1 0x99 SHL PUSH1 0x4 DUP3 ADD MSTORE SWAP2 AND SWAP1 PUSH4 0x970559CF SWAP1 PUSH1 0x24 ADD PUSH1 0x20 PUSH1 0x40 MLOAD DUP1 DUP4 SUB DUP2 DUP7 GAS STATICCALL ISZERO DUP1 ISZERO PUSH2 0xEB1 JUMPI RETURNDATASIZE PUSH0 PUSH0 RETURNDATACOPY RETURNDATASIZE PUSH0 REVERT JUMPDEST POP POP POP POP PUSH1 0x40 MLOAD RETURNDATASIZE PUSH1 0x1F NOT PUSH1 0x1F DUP3 ADD AND DUP3 ADD DUP1 PUSH1 0x40 MSTORE POP DUP2 ADD SWAP1 PUSH2 0xED5 SWAP2 SWAP1 PUSH2 0x21F5 JUMP JUMPDEST PUSH1 0xB DUP1 SLOAD PUSH1 0x1 PUSH1 0x1 PUSH1 0xA0 SHL SUB NOT AND PUSH1 0x1 PUSH1 0x1 PUSH1 0xA0 SHL SUB SWAP3 DUP4 AND OR SWAP1 SSTORE PUSH1 0xC SLOAD PUSH1 0x40 MLOAD PUSH4 0x970559CF PUSH1 0xE0 SHL DUP2 MSTORE PUSH19 0x2622A3A4A7A72FA322A2AFA922A1A2A4AB22A9 PUSH1 0x69 SHL PUSH1 0x4 DUP3 ADD MSTORE SWAP2 AND SWAP1 PUSH4 0x970559CF SWAP1 PUSH1 0x24 ADD PUSH1 0x20 PUSH1 0x40 MLOAD DUP1 DUP4 SUB DUP2 DUP7 GAS STATICCALL ISZERO DUP1 ISZERO PUSH2 0xF44 JUMPI RETURNDATASIZE PUSH0 PUSH0 RETURNDATACOPY RETURNDATASIZE PUSH0 REVERT JUMPDEST POP POP POP POP PUSH1 0x40 MLOAD RETURNDATASIZE PUSH1 0x1F NOT PUSH1 0x1F DUP3 ADD AND DUP3 ADD DUP1 PUSH1 0x40 MSTORE POP DUP2 ADD SWAP1 PUSH2 0xF68 SWAP2 SWAP1 PUSH2 0x21F5 JUMP JUMPDEST PUSH1 0x9 DUP1 SLOAD PUSH1 0x1 PUSH1 0x1 PUSH1 0xA0 SHL SUB NOT AND PUSH1 0x1 PUSH1 0x1 PUSH1 0xA0 SHL SUB SWAP3 DUP4 AND OR SWAP1 SSTORE PUSH1 0xC SLOAD PUSH1 0x40 MLOAD PUSH4 0x970559CF PUSH1 0xE0 SHL DUP2 MSTORE PUSH22 0x4C4547494F4E5F56455354494E475F464143544F5259 PUSH1 0x50 SHL PUSH1 0x4 DUP3 ADD MSTORE SWAP2 AND SWAP1 PUSH4 0x970559CF SWAP1 PUSH1 0x24 ADD PUSH1 0x20 PUSH1 0x40 MLOAD DUP1 DUP4 SUB DUP2 DUP7 GAS STATICCALL ISZERO DUP1 ISZERO PUSH2 0xFDA JUMPI RETURNDATASIZE PUSH0 PUSH0 RETURNDATACOPY RETURNDATASIZE PUSH0 REVERT JUMPDEST POP POP POP POP PUSH1 0x40 MLOAD RETURNDATASIZE PUSH1 0x1F NOT PUSH1 0x1F DUP3 ADD AND DUP3 ADD DUP1 PUSH1 0x40 MSTORE POP DUP2 ADD SWAP1 PUSH2 0xFFE SWAP2 SWAP1 PUSH2 0x21F5 JUMP JUMPDEST PUSH0 DUP1 SLOAD PUSH1 0x1 PUSH1 0x1 PUSH1 0xA0 SHL SUB NOT AND PUSH1 0x1 PUSH1 0x1 PUSH1 0xA0 SHL SUB SWAP3 DUP4 AND OR SWAP1 SSTORE PUSH1 0xC SLOAD PUSH1 0x40 MLOAD PUSH4 0x970559CF PUSH1 0xE0 SHL DUP2 MSTORE PUSH32 0x4C4547494F4E5F56455354494E475F434F4E54524F4C4C455200000000000000 PUSH1 0x4 DUP3 ADD MSTORE SWAP2 AND SWAP1 PUSH4 0x970559CF SWAP1 PUSH1 0x24 ADD PUSH1 0x20 PUSH1 0x40 MLOAD DUP1 DUP4 SUB DUP2 DUP7 GAS STATICCALL ISZERO DUP1 ISZERO PUSH2 0x1076 JUMPI RETURNDATASIZE PUSH0 PUSH0 RETURNDATACOPY RETURNDATASIZE PUSH0 REVERT JUMPDEST POP POP POP POP PUSH1 0x40 MLOAD RETURNDATASIZE PUSH1 0x1F NOT PUSH1 0x1F DUP3 ADD AND DUP3 ADD DUP1 PUSH1 0x40 MSTORE POP DUP2 ADD SWAP1 PUSH2 0x109A SWAP2 SWAP1 PUSH2 0x21F5 JUMP JUMPDEST PUSH1 0x1 DUP1 SLOAD PUSH1 0x1 PUSH1 0x1 PUSH1 0xA0 SHL SUB NOT AND PUSH1 0x1 PUSH1 0x1 PUSH1 0xA0 SHL SUB SWAP3 DUP4 AND SWAP1 DUP2 OR SWAP1 SWAP2 SSTORE PUSH1 0x8 SLOAD PUSH1 0xB SLOAD PUSH1 0x9 SLOAD PUSH0 SLOAD PUSH1 0x40 DUP1 MLOAD SWAP5 DUP8 AND DUP6 MSTORE SWAP3 DUP7 AND PUSH1 0x20 DUP6 ADD MSTORE SWAP1 DUP6 AND SWAP2 DUP4 ADD SWAP2 SWAP1 SWAP2 MSTORE SWAP1 SWAP3 AND PUSH1 0x60 DUP4 ADD MSTORE PUSH1 0x80 DUP3 ADD MSTORE PUSH32 0x4B02015C8D0E47CC44A723BC061ABDFA651FEFC86F2AC5387E9F992F732B3528 SWAP1 PUSH1 0xA0 ADD JUMPDEST PUSH1 0x40 MLOAD DUP1 SWAP2 SUB SWAP1 LOG1 JUMP JUMPDEST PUSH2 0x1124 PUSH2 0x1A39 JUMP JUMPDEST PUSH2 0x112D DUP2 PUSH2 0x1A55 JUMP JUMPDEST PUSH1 0xC0 DUP2 ADD CALLDATALOAD PUSH1 0x4 SSTORE PUSH2 0x1142 PUSH1 0x20 DUP3 ADD DUP3 PUSH2 0x2210 JUMP JUMPDEST PUSH1 0x3 DUP1 SLOAD PUSH2 0xFFFF NOT AND PUSH2 0xFFFF SWAP3 SWAP1 SWAP3 AND SWAP2 SWAP1 SWAP2 OR SWAP1 SSTORE PUSH2 0x1168 PUSH1 0x40 DUP3 ADD PUSH1 0x20 DUP4 ADD PUSH2 0x2210 JUMP JUMPDEST PUSH1 0x3 DUP1 SLOAD PUSH2 0xFFFF SWAP3 SWAP1 SWAP3 AND PUSH3 0x10000 MUL PUSH4 0xFFFF0000 NOT SWAP1 SWAP3 AND SWAP2 SWAP1 SWAP2 OR SWAP1 SSTORE PUSH2 0x1197 PUSH1 0x60 DUP3 ADD PUSH1 0x40 DUP4 ADD PUSH2 0x208B JUMP JUMPDEST PUSH1 0xA DUP1 SLOAD PUSH1 0x1 PUSH1 0x1 PUSH1 0xA0 SHL SUB NOT AND PUSH1 0x1 PUSH1 0x1 PUSH1 0xA0 SHL SUB SWAP3 SWAP1 SWAP3 AND SWAP2 SWAP1 SWAP2 OR SWAP1 SSTORE PUSH2 0x11C7 PUSH1 0x80 DUP3 ADD PUSH1 0x60 DUP4 ADD PUSH2 0x208B JUMP JUMPDEST PUSH1 0x6 DUP1 SLOAD PUSH1 0x1 PUSH1 0x1 PUSH1 0xA0 SHL SUB NOT AND PUSH1 0x1 PUSH1 0x1 PUSH1 0xA0 SHL SUB SWAP3 SWAP1 SWAP3 AND SWAP2 SWAP1 SWAP2 OR SWAP1 SSTORE PUSH2 0x11F7 PUSH1 0xA0 DUP3 ADD PUSH1 0x80 DUP4 ADD PUSH2 0x208B JUMP JUMPDEST PUSH1 0xC DUP1 SLOAD PUSH1 0x1 PUSH1 0x1 PUSH1 0xA0 SHL SUB NOT AND PUSH1 0x1 PUSH1 0x1 PUSH1 0xA0 SHL SUB SWAP3 SWAP1 SWAP3 AND SWAP2 SWAP1 SWAP2 OR SWAP1 SSTORE PUSH2 0x1227 PUSH1 0xC0 DUP3 ADD PUSH1 0xA0 DUP4 ADD PUSH2 0x208B JUMP JUMPDEST PUSH1 0x7 DUP1 SLOAD PUSH1 0x1 PUSH1 0x1 PUSH1 0xA0 SHL SUB NOT AND PUSH1 0x1 PUSH1 0x1 PUSH1 0xA0 SHL SUB SWAP3 SWAP1 SWAP3 AND SWAP2 SWAP1 SWAP2 OR SWAP1 SSTORE PUSH2 0x124F PUSH2 0xDCD JUMP JUMPDEST POP JUMP JUMPDEST PUSH2 0x125A PUSH2 0x1AF6 JUMP JUMPDEST PUSH1 0x2 DUP1 SLOAD PUSH1 0xFF NOT AND SWAP1 SSTORE PUSH32 0x5DB9EE0A495BF2E6FF9C91A7834C1BA4FDD244A5E8AA4E537BD38AEAE4B073AA CALLER JUMPDEST PUSH1 0x40 MLOAD PUSH1 0x1 PUSH1 0x1 PUSH1 0xA0 SHL SUB SWAP1 SWAP2 AND DUP2 MSTORE PUSH1 0x20 ADD PUSH2 0x1112 JUMP JUMPDEST PUSH1 0x2 SLOAD PUSH1 0xFF AND ISZERO PUSH2 0x3F3 JUMPI PUSH1 0x40 MLOAD PUSH4 0xD93C0665 PUSH1 0xE0 SHL DUP2 MSTORE PUSH1 0x4 ADD PUSH1 0x40 MLOAD DUP1 SWAP2 SUB SWAP1 REVERT JUMPDEST PUSH2 0x12D1 TIMESTAMP PUSH4 0x12BED400 PUSH2 0x2128 JUMP JUMPDEST PUSH2 0x12DE PUSH1 0x20 DUP4 ADD DUP4 PUSH2 0x215F JUMP JUMPDEST PUSH1 0x1 PUSH1 0x1 PUSH1 0x40 SHL SUB AND GT DUP1 PUSH2 0x130E JUMPI POP PUSH4 0x12BED400 PUSH2 0x1303 PUSH1 0x40 DUP4 ADD PUSH1 0x20 DUP5 ADD PUSH2 0x215F JUMP JUMPDEST PUSH1 0x1 PUSH1 0x1 PUSH1 0x40 SHL SUB AND GT JUMPDEST DUP1 PUSH2 0x1348 JUMPI POP PUSH2 0x1324 PUSH1 0x40 DUP3 ADD PUSH1 0x20 DUP4 ADD PUSH2 0x215F JUMP JUMPDEST PUSH1 0x1 PUSH1 0x1 PUSH1 0x40 SHL SUB AND PUSH2 0x133D PUSH1 0x60 DUP4 ADD PUSH1 0x40 DUP5 ADD PUSH2 0x215F JUMP JUMPDEST PUSH1 0x1 PUSH1 0x1 PUSH1 0x40 SHL SUB AND GT JUMPDEST DUP1 PUSH2 0x1372 JUMPI POP PUSH8 0xDE0B6B3A7640000 PUSH2 0x1367 PUSH1 0xE0 DUP4 ADD PUSH1 0xC0 DUP5 ADD PUSH2 0x215F JUMP JUMPDEST PUSH1 0x1 PUSH1 0x1 PUSH1 0x40 SHL SUB AND GT JUMPDEST ISZERO PUSH2 0x1448 JUMPI PUSH2 0x1387 PUSH1 0x80 DUP3 ADD PUSH1 0x60 DUP4 ADD PUSH2 0x223F JUMP JUMPDEST PUSH1 0x1 DUP2 GT ISZERO PUSH2 0x1398 JUMPI PUSH2 0x1398 PUSH2 0x2258 JUMP JUMPDEST PUSH2 0x13A5 PUSH1 0x20 DUP4 ADD DUP4 PUSH2 0x215F JUMP JUMPDEST PUSH2 0x13B5 PUSH1 0x40 DUP5 ADD PUSH1 0x20 DUP6 ADD PUSH2 0x215F JUMP JUMPDEST PUSH2 0x13C5 PUSH1 0x60 DUP6 ADD PUSH1 0x40 DUP7 ADD PUSH2 0x215F JUMP JUMPDEST PUSH2 0x13D5 PUSH1 0xA0 DUP7 ADD PUSH1 0x80 DUP8 ADD PUSH2 0x215F JUMP JUMPDEST PUSH2 0x13E5 PUSH1 0xC0 DUP8 ADD PUSH1 0xA0 DUP9 ADD PUSH2 0x215F JUMP JUMPDEST PUSH2 0x13F5 PUSH1 0xE0 DUP9 ADD PUSH1 0xC0 DUP10 ADD PUSH2 0x215F JUMP JUMPDEST PUSH1 0x40 MLOAD PUSH4 0x1BF09765 PUSH1 0xE0 SHL DUP2 MSTORE PUSH1 0xFF SWAP1 SWAP8 AND PUSH1 0x4 DUP9 ADD MSTORE PUSH1 0x1 PUSH1 0x1 PUSH1 0x40 SHL SUB SWAP6 DUP7 AND PUSH1 0x24 DUP9 ADD MSTORE SWAP4 DUP6 AND PUSH1 0x44 DUP8 ADD MSTORE SWAP2 DUP5 AND PUSH1 0x64 DUP7 ADD MSTORE DUP4 AND PUSH1 0x84 DUP6 ADD MSTORE DUP3 AND PUSH1 0xA4 DUP5 ADD MSTORE AND PUSH1 0xC4 DUP3 ADD MSTORE PUSH1 0xE4 ADD PUSH2 0xC85 JUMP JUMPDEST PUSH1 0x1 PUSH2 0x145A PUSH1 0x80 DUP4 ADD PUSH1 0x60 DUP5 ADD PUSH2 0x223F JUMP JUMPDEST PUSH1 0x1 DUP2 GT ISZERO PUSH2 0x146B JUMPI PUSH2 0x146B PUSH2 0x2258 JUMP JUMPDEST SUB PUSH2 0x124F JUMPI PUSH4 0x12BED400 PUSH2 0x1485 PUSH1 0xA0 DUP4 ADD PUSH1 0x80 DUP5 ADD PUSH2 0x215F JUMP JUMPDEST PUSH2 0x1495 PUSH1 0xC0 DUP5 ADD PUSH1 0xA0 DUP6 ADD PUSH2 0x215F JUMP JUMPDEST PUSH2 0x149F SWAP2 SWAP1 PUSH2 0x226C JUMP JUMPDEST PUSH1 0x1 PUSH1 0x1 PUSH1 0x40 SHL SUB AND GT DUP1 PUSH2 0x14FE JUMPI POP PUSH2 0x14BF PUSH1 0x40 DUP3 ADD PUSH1 0x20 DUP4 ADD PUSH2 0x215F JUMP JUMPDEST PUSH1 0x1 PUSH1 0x1 PUSH1 0x40 SHL SUB AND PUSH2 0x14D8 PUSH1 0xA0 DUP4 ADD PUSH1 0x80 DUP5 ADD PUSH2 0x215F JUMP JUMPDEST PUSH2 0x14E8 PUSH1 0xC0 DUP5 ADD PUSH1 0xA0 DUP6 ADD PUSH2 0x215F JUMP JUMPDEST PUSH2 0x14F2 SWAP2 SWAP1 PUSH2 0x226C JUMP JUMPDEST PUSH1 0x1 PUSH1 0x1 PUSH1 0x40 SHL SUB AND EQ ISZERO JUMPDEST DUP1 PUSH2 0x1524 JUMPI POP PUSH4 0x1DFE200 PUSH2 0x1519 PUSH1 0xA0 DUP4 ADD PUSH1 0x80 DUP5 ADD PUSH2 0x215F JUMP JUMPDEST PUSH1 0x1 PUSH1 0x1 PUSH1 0x40 SHL SUB AND GT JUMPDEST ISZERO PUSH2 0x124F JUMPI PUSH2 0x1387 PUSH1 0x80 DUP3 ADD PUSH1 0x60 DUP4 ADD PUSH2 0x223F JUMP JUMPDEST CALLER PUSH0 SWAP1 DUP2 MSTORE PUSH1 0xD PUSH1 0x20 SWAP1 DUP2 MSTORE PUSH1 0x40 SWAP2 DUP3 SWAP1 KECCAK256 DUP3 MLOAD DUP1 DUP5 ADD SWAP1 SWAP4 MSTORE SLOAD PUSH1 0xFF DUP1 DUP3 AND ISZERO ISZERO DUP5 MSTORE PUSH2 0x100 SWAP1 SWAP2 DIV PUSH1 0x1 PUSH1 0x1 PUSH1 0xA0 SHL SUB AND SWAP2 DUP4 ADD SWAP2 SWAP1 SWAP2 MSTORE PUSH1 0x3 SLOAD PUSH5 0x100000000 SWAP1 DIV AND PUSH2 0x159C JUMPI PUSH1 0x40 MLOAD PUSH4 0x28B1BBFB PUSH1 0xE0 SHL DUP2 MSTORE PUSH1 0x4 ADD PUSH1 0x40 MLOAD DUP1 SWAP2 SUB SWAP1 REVERT JUMPDEST DUP1 MLOAD ISZERO PUSH2 0x124F JUMPI PUSH1 0x40 MLOAD PUSH4 0xEDF08CE1 PUSH1 0xE0 SHL DUP2 MSTORE CALLER PUSH1 0x4 DUP3 ADD MSTORE PUSH1 0x24 ADD PUSH2 0xC85 JUMP JUMPDEST PUSH1 0x40 MLOAD PUSH12 0xFFFFFFFFFFFFFFFFFFFFFFFF NOT CALLER PUSH1 0x60 SWAP1 DUP2 SHL DUP3 AND PUSH1 0x20 DUP5 ADD MSTORE ADDRESS SWAP1 SHL AND PUSH1 0x34 DUP3 ADD MSTORE CHAINID PUSH1 0x48 DUP3 ADD MSTORE PUSH1 0x68 DUP2 ADD DUP5 SWAP1 MSTORE PUSH0 SWAP1 PUSH2 0x1644 SWAP1 PUSH1 0x88 ADD JUMPDEST PUSH1 0x40 MLOAD PUSH1 0x20 DUP2 DUP4 SUB SUB DUP2 MSTORE SWAP1 PUSH1 0x40 MSTORE DUP1 MLOAD SWAP1 PUSH1 0x20 ADD KECCAK256 PUSH32 0x19457468657265756D205369676E6564204D6573736167653A0A333200000000 PUSH0 SWAP1 DUP2 MSTORE PUSH1 0x1C SWAP2 SWAP1 SWAP2 MSTORE PUSH1 0x3C SWAP1 KECCAK256 SWAP1 JUMP JUMPDEST PUSH1 0xB SLOAD PUSH1 0x40 DUP1 MLOAD PUSH1 0x20 PUSH1 0x1F DUP8 ADD DUP2 SWAP1 DIV DUP2 MUL DUP3 ADD DUP2 ADD SWAP1 SWAP3 MSTORE DUP6 DUP2 MSTORE SWAP3 SWAP4 POP PUSH1 0x1 PUSH1 0x1 PUSH1 0xA0 SHL SUB SWAP1 SWAP2 AND SWAP2 PUSH2 0x1695 SWAP2 DUP7 SWAP1 DUP7 SWAP1 DUP2 SWAP1 DUP5 ADD DUP4 DUP3 DUP1 DUP3 DUP5 CALLDATACOPY PUSH0 SWAP3 ADD SWAP2 SWAP1 SWAP2 MSTORE POP DUP7 SWAP4 SWAP3 POP POP PUSH2 0x1B19 SWAP1 POP JUMP JUMPDEST PUSH1 0x1 PUSH1 0x1 PUSH1 0xA0 SHL SUB AND EQ PUSH2 0x16C0 JUMPI DUP3 DUP3 PUSH1 0x40 MLOAD PUSH4 0x3DD7420B PUSH1 0xE1 SHL DUP2 MSTORE PUSH1 0x4 ADD PUSH2 0xC85 SWAP3 SWAP2 SWAP1 PUSH2 0x228E JUMP JUMPDEST POP POP POP POP JUMP JUMPDEST PUSH0 PUSH2 0x16E1 CALLER ADDRESS CHAINID DUP6 PUSH1 0x40 MLOAD PUSH1 0x20 ADD PUSH2 0x15FC SWAP5 SWAP4 SWAP3 SWAP2 SWAP1 PUSH2 0x22DC JUMP JUMPDEST PUSH1 0xB SLOAD PUSH1 0x40 DUP1 MLOAD PUSH1 0x20 PUSH1 0x1F DUP9 ADD DUP2 SWAP1 DIV DUP2 MUL DUP3 ADD DUP2 ADD SWAP1 SWAP3 MSTORE DUP7 DUP2 MSTORE SWAP3 SWAP4 POP PUSH1 0x1 PUSH1 0x1 PUSH1 0xA0 SHL SUB SWAP1 SWAP2 AND SWAP2 PUSH2 0x1732 SWAP2 DUP8 SWAP1 DUP8 SWAP1 DUP2 SWAP1 DUP5 ADD DUP4 DUP3 DUP1 DUP3 DUP5 CALLDATACOPY PUSH0 SWAP3 ADD SWAP2 SWAP1 SWAP2 MSTORE POP DUP7 SWAP4 SWAP3 POP POP PUSH2 0x1B19 SWAP1 POP JUMP JUMPDEST PUSH1 0x1 PUSH1 0x1 PUSH1 0xA0 SHL SUB AND EQ PUSH2 0x16C0 JUMPI DUP4 DUP4 PUSH1 0x40 MLOAD PUSH4 0x3DD7420B PUSH1 0xE1 SHL DUP2 MSTORE PUSH1 0x4 ADD PUSH2 0xC85 SWAP3 SWAP2 SWAP1 PUSH2 0x228E JUMP JUMPDEST PUSH0 DUP1 PUSH2 0x176F PUSH1 0x80 DUP6 ADD PUSH1 0x60 DUP7 ADD PUSH2 0x223F JUMP JUMPDEST PUSH1 0x1 DUP2 GT ISZERO PUSH2 0x1780 JUMPI PUSH2 0x1780 PUSH2 0x2258 JUMP JUMPDEST SUB PUSH2 0x17D2 JUMPI PUSH1 0x1 SLOAD PUSH0 SLOAD PUSH2 0x17CF SWAP2 CALLER SWAP2 PUSH1 0x1 PUSH1 0x1 PUSH1 0xA0 SHL SUB SWAP2 DUP3 AND SWAP2 AND PUSH2 0x17AA PUSH1 0x20 DUP9 ADD DUP9 PUSH2 0x215F JUMP JUMPDEST PUSH2 0x17BA PUSH1 0x40 DUP10 ADD PUSH1 0x20 DUP11 ADD PUSH2 0x215F JUMP JUMPDEST PUSH2 0x17CA PUSH1 0x60 DUP11 ADD PUSH1 0x40 DUP12 ADD PUSH2 0x215F JUMP JUMPDEST PUSH2 0x1B41 JUMP JUMPDEST SWAP1 POP JUMPDEST PUSH1 0x1 PUSH2 0x17E4 PUSH1 0x80 DUP6 ADD PUSH1 0x60 DUP7 ADD PUSH2 0x223F JUMP JUMPDEST PUSH1 0x1 DUP2 GT ISZERO PUSH2 0x17F5 JUMPI PUSH2 0x17F5 PUSH2 0x2258 JUMP JUMPDEST SUB PUSH2 0x1868 JUMPI PUSH1 0x1 SLOAD PUSH0 SLOAD PUSH2 0x1865 SWAP2 CALLER SWAP2 PUSH1 0x1 PUSH1 0x1 PUSH1 0xA0 SHL SUB SWAP2 DUP3 AND SWAP2 AND DUP6 PUSH2 0x1820 PUSH1 0x20 DUP10 ADD DUP10 PUSH2 0x215F JUMP JUMPDEST PUSH2 0x1830 PUSH1 0x40 DUP11 ADD PUSH1 0x20 DUP12 ADD PUSH2 0x215F JUMP JUMPDEST PUSH2 0x1840 PUSH1 0x60 DUP12 ADD PUSH1 0x40 DUP13 ADD PUSH2 0x215F JUMP JUMPDEST PUSH2 0x1850 PUSH1 0xA0 DUP13 ADD PUSH1 0x80 DUP14 ADD PUSH2 0x215F JUMP JUMPDEST PUSH2 0x1860 PUSH1 0xC0 DUP14 ADD PUSH1 0xA0 DUP15 ADD PUSH2 0x215F JUMP JUMPDEST PUSH2 0x1BDF JUMP JUMPDEST SWAP1 POP JUMPDEST SWAP3 SWAP2 POP POP JUMP JUMPDEST DUP2 PUSH1 0x14 MSTORE DUP1 PUSH1 0x34 MSTORE PUSH4 0xA9059CBB PUSH1 0x60 SHL PUSH0 MSTORE PUSH1 0x20 PUSH0 PUSH1 0x44 PUSH1 0x10 PUSH0 DUP8 GAS CALL DUP1 PUSH1 0x1 PUSH0 MLOAD EQ AND PUSH2 0x18AE JUMPI DUP1 RETURNDATASIZE DUP6 EXTCODESIZE ISZERO OR LT PUSH2 0x18AE JUMPI PUSH4 0x90B8EC18 PUSH0 MSTORE PUSH1 0x4 PUSH1 0x1C REVERT JUMPDEST POP PUSH0 PUSH1 0x34 MSTORE POP POP POP JUMP JUMPDEST PUSH2 0x18C0 PUSH2 0x129F JUMP JUMPDEST PUSH1 0x2 DUP1 SLOAD PUSH1 0xFF NOT AND PUSH1 0x1 OR SWAP1 SSTORE PUSH32 0x62E78CEA01BEE320CD4E420270B5EA74000D11B0C9F74754EBDBFC544B05A258 PUSH2 0x1287 CALLER SWAP1 JUMP JUMPDEST PUSH1 0x40 DUP1 MLOAD PUSH2 0x180 DUP2 ADD DUP3 MSTORE PUSH1 0x3 SLOAD PUSH2 0xFFFF DUP1 DUP3 AND DUP4 MSTORE PUSH3 0x10000 DUP3 DIV AND PUSH1 0x20 DUP4 ADD MSTORE PUSH5 0x100000000 SWAP1 DIV PUSH1 0xFF AND ISZERO DUP1 ISZERO SWAP3 DUP3 ADD SWAP3 SWAP1 SWAP3 MSTORE PUSH1 0x4 SLOAD PUSH1 0x60 DUP3 ADD MSTORE PUSH1 0x5 SLOAD PUSH1 0x80 DUP3 ADD MSTORE PUSH1 0x6 SLOAD PUSH1 0x1 PUSH1 0x1 PUSH1 0xA0 SHL SUB SWAP1 DUP2 AND PUSH1 0xA0 DUP4 ADD MSTORE PUSH1 0x7 SLOAD DUP2 AND PUSH1 0xC0 DUP4 ADD MSTORE PUSH1 0x8 SLOAD DUP2 AND PUSH1 0xE0 DUP4 ADD MSTORE PUSH1 0x9 SLOAD DUP2 AND PUSH2 0x100 DUP4 ADD MSTORE PUSH1 0xA SLOAD DUP2 AND PUSH2 0x120 DUP4 ADD MSTORE PUSH1 0xB SLOAD DUP2 AND PUSH2 0x140 DUP4 ADD MSTORE PUSH1 0xC SLOAD AND PUSH2 0x160 DUP3 ADD MSTORE SWAP1 PUSH2 0x19AC JUMPI PUSH1 0x40 MLOAD PUSH4 0x68754D4B PUSH1 0xE1 SHL DUP2 MSTORE PUSH1 0x4 ADD PUSH1 0x40 MLOAD DUP1 SWAP2 SUB SWAP1 REVERT JUMPDEST DUP1 PUSH1 0x60 ADD MLOAD DUP3 EQ PUSH2 0x46A JUMPI PUSH1 0x60 DUP2 ADD MLOAD PUSH1 0x40 MLOAD PUSH4 0x28D05AB PUSH1 0xE5 SHL DUP2 MSTORE PUSH2 0xC85 SWAP2 DUP5 SWAP2 PUSH1 0x4 ADD SWAP2 DUP3 MSTORE PUSH1 0x20 DUP3 ADD MSTORE PUSH1 0x40 ADD SWAP1 JUMP JUMPDEST PUSH1 0x40 MLOAD DUP2 PUSH1 0x60 MSTORE DUP3 PUSH1 0x40 MSTORE DUP4 PUSH1 0x60 SHL PUSH1 0x2C MSTORE PUSH4 0x23B872DD PUSH1 0x60 SHL PUSH1 0xC MSTORE PUSH1 0x20 PUSH0 PUSH1 0x64 PUSH1 0x1C PUSH0 DUP10 GAS CALL DUP1 PUSH1 0x1 PUSH0 MLOAD EQ AND PUSH2 0x1A2B JUMPI DUP1 RETURNDATASIZE DUP8 EXTCODESIZE ISZERO OR LT PUSH2 0x1A2B JUMPI PUSH4 0x7939F424 PUSH0 MSTORE PUSH1 0x4 PUSH1 0x1C REVERT JUMPDEST POP PUSH0 PUSH1 0x60 MSTORE PUSH1 0x40 MSTORE POP POP POP POP JUMP JUMPDEST PUSH4 0x409FEECD NOT DUP1 SLOAD PUSH1 0x1 AND PUSH2 0x124F JUMPI PUSH4 0xD7E6BCF8 PUSH0 MSTORE PUSH1 0x4 PUSH1 0x1C REVERT JUMPDEST PUSH0 PUSH2 0x1A66 PUSH1 0xC0 DUP4 ADD PUSH1 0xA0 DUP5 ADD PUSH2 0x208B JUMP JUMPDEST PUSH1 0x1 PUSH1 0x1 PUSH1 0xA0 SHL SUB AND EQ DUP1 PUSH2 0x1A92 JUMPI POP PUSH0 PUSH2 0x1A87 PUSH1 0xA0 DUP4 ADD PUSH1 0x80 DUP5 ADD PUSH2 0x208B JUMP JUMPDEST PUSH1 0x1 PUSH1 0x1 PUSH1 0xA0 SHL SUB AND EQ JUMPDEST DUP1 PUSH2 0x1AB4 JUMPI POP PUSH0 PUSH2 0x1AA9 PUSH1 0x80 DUP4 ADD PUSH1 0x60 DUP5 ADD PUSH2 0x208B JUMP JUMPDEST PUSH1 0x1 PUSH1 0x1 PUSH1 0xA0 SHL SUB AND EQ JUMPDEST ISZERO PUSH2 0x1AD2 JUMPI PUSH1 0x40 MLOAD PUSH4 0xB840F60B PUSH1 0xE0 SHL DUP2 MSTORE PUSH1 0x4 ADD PUSH1 0x40 MLOAD DUP1 SWAP2 SUB SWAP1 REVERT JUMPDEST DUP1 PUSH1 0xC0 ADD CALLDATALOAD PUSH0 SUB PUSH2 0x124F JUMPI PUSH1 0x40 MLOAD PUSH4 0x1E44F253 PUSH1 0xE0 SHL DUP2 MSTORE PUSH1 0x4 ADD PUSH1 0x40 MLOAD DUP1 SWAP2 SUB SWAP1 REVERT JUMPDEST PUSH1 0x2 SLOAD PUSH1 0xFF AND PUSH2 0x3F3 JUMPI PUSH1 0x40 MLOAD PUSH4 0x8DFC202B PUSH1 0xE0 SHL DUP2 MSTORE PUSH1 0x4 ADD PUSH1 0x40 MLOAD DUP1 SWAP2 SUB SWAP1 REVERT JUMPDEST PUSH0 PUSH0 PUSH0 PUSH0 PUSH2 0x1B27 DUP7 DUP7 PUSH2 0x1C99 JUMP JUMPDEST SWAP3 POP SWAP3 POP SWAP3 POP PUSH2 0x1B37 DUP3 DUP3 PUSH2 0x1CE2 JUMP JUMPDEST POP SWAP1 SWAP5 SWAP4 POP POP POP POP JUMP JUMPDEST PUSH1 0x40 MLOAD PUSH4 0x2331871F PUSH1 0xE0 SHL DUP2 MSTORE PUSH1 0x1 PUSH1 0x1 PUSH1 0xA0 SHL SUB DUP8 DUP2 AND PUSH1 0x4 DUP4 ADD MSTORE DUP7 DUP2 AND PUSH1 0x24 DUP4 ADD MSTORE PUSH1 0x1 PUSH1 0x1 PUSH1 0x40 SHL SUB DUP1 DUP7 AND PUSH1 0x44 DUP5 ADD MSTORE DUP1 DUP6 AND PUSH1 0x64 DUP5 ADD MSTORE DUP4 AND PUSH1 0x84 DUP4 ADD MSTORE PUSH0 SWAP2 SWAP1 DUP7 AND SWAP1 PUSH4 0x2331871F SWAP1 PUSH1 0xA4 ADD PUSH1 0x20 PUSH1 0x40 MLOAD DUP1 DUP4 SUB DUP2 PUSH0 DUP8 GAS CALL ISZERO DUP1 ISZERO PUSH2 0x1BB0 JUMPI RETURNDATASIZE PUSH0 PUSH0 RETURNDATACOPY RETURNDATASIZE PUSH0 REVERT JUMPDEST POP POP POP POP PUSH1 0x40 MLOAD RETURNDATASIZE PUSH1 0x1F NOT PUSH1 0x1F DUP3 ADD AND DUP3 ADD DUP1 PUSH1 0x40 MSTORE POP DUP2 ADD SWAP1 PUSH2 0x1BD4 SWAP2 SWAP1 PUSH2 0x21F5 JUMP JUMPDEST SWAP8 SWAP7 POP POP POP POP POP POP POP JUMP JUMPDEST PUSH1 0x40 MLOAD PUSH4 0x478A83A1 PUSH1 0xE0 SHL DUP2 MSTORE PUSH1 0x1 PUSH1 0x1 PUSH1 0xA0 SHL SUB DUP11 DUP2 AND PUSH1 0x4 DUP4 ADD MSTORE DUP10 DUP2 AND PUSH1 0x24 DUP4 ADD MSTORE DUP8 DUP2 AND PUSH1 0x44 DUP4 ADD MSTORE PUSH1 0x1 PUSH1 0x1 PUSH1 0x40 SHL SUB DUP1 DUP9 AND PUSH1 0x64 DUP5 ADD MSTORE DUP1 DUP8 AND PUSH1 0x84 DUP5 ADD MSTORE DUP1 DUP7 AND PUSH1 0xA4 DUP5 ADD MSTORE DUP1 DUP6 AND PUSH1 0xC4 DUP5 ADD MSTORE DUP4 AND PUSH1 0xE4 DUP4 ADD MSTORE PUSH0 SWAP2 SWAP1 DUP10 AND SWAP1 PUSH4 0x478A83A1 SWAP1 PUSH2 0x104 ADD PUSH1 0x20 PUSH1 0x40 MLOAD DUP1 DUP4 SUB DUP2 PUSH0 DUP8 GAS CALL ISZERO DUP1 ISZERO PUSH2 0x1C67 JUMPI RETURNDATASIZE PUSH0 PUSH0 RETURNDATACOPY RETURNDATASIZE PUSH0 REVERT JUMPDEST POP POP POP POP PUSH1 0x40 MLOAD RETURNDATASIZE PUSH1 0x1F NOT PUSH1 0x1F DUP3 ADD AND DUP3 ADD DUP1 PUSH1 0x40 MSTORE POP DUP2 ADD SWAP1 PUSH2 0x1C8B SWAP2 SWAP1 PUSH2 0x21F5 JUMP JUMPDEST SWAP11 SWAP10 POP POP POP POP POP POP POP POP POP POP JUMP JUMPDEST PUSH0 PUSH0 PUSH0 DUP4 MLOAD PUSH1 0x41 SUB PUSH2 0x1CD0 JUMPI PUSH1 0x20 DUP5 ADD MLOAD PUSH1 0x40 DUP6 ADD MLOAD PUSH1 0x60 DUP7 ADD MLOAD PUSH0 BYTE PUSH2 0x1CC2 DUP9 DUP3 DUP6 DUP6 PUSH2 0x1D9A JUMP JUMPDEST SWAP6 POP SWAP6 POP SWAP6 POP POP POP POP PUSH2 0x1CDB JUMP JUMPDEST POP POP DUP2 MLOAD PUSH0 SWAP2 POP PUSH1 0x2 SWAP1 JUMPDEST SWAP3 POP SWAP3 POP SWAP3 JUMP JUMPDEST PUSH0 DUP3 PUSH1 0x3 DUP2 GT ISZERO PUSH2 0x1CF5 JUMPI PUSH2 0x1CF5 PUSH2 0x2258 JUMP JUMPDEST SUB PUSH2 0x1CFE JUMPI POP POP JUMP JUMPDEST PUSH1 0x1 DUP3 PUSH1 0x3 DUP2 GT ISZERO PUSH2 0x1D12 JUMPI PUSH2 0x1D12 PUSH2 0x2258 JUMP JUMPDEST SUB PUSH2 0x1D30 JUMPI PUSH1 0x40 MLOAD PUSH4 0xF645EEDF PUSH1 0xE0 SHL DUP2 MSTORE PUSH1 0x4 ADD PUSH1 0x40 MLOAD DUP1 SWAP2 SUB SWAP1 REVERT JUMPDEST PUSH1 0x2 DUP3 PUSH1 0x3 DUP2 GT ISZERO PUSH2 0x1D44 JUMPI PUSH2 0x1D44 PUSH2 0x2258 JUMP JUMPDEST SUB PUSH2 0x1D65 JUMPI PUSH1 0x40 MLOAD PUSH4 0xFCE698F7 PUSH1 0xE0 SHL DUP2 MSTORE PUSH1 0x4 DUP2 ADD DUP3 SWAP1 MSTORE PUSH1 0x24 ADD PUSH2 0xC85 JUMP JUMPDEST PUSH1 0x3 DUP3 PUSH1 0x3 DUP2 GT ISZERO PUSH2 0x1D79 JUMPI PUSH2 0x1D79 PUSH2 0x2258 JUMP JUMPDEST SUB PUSH2 0x46A JUMPI PUSH1 0x40 MLOAD PUSH4 0x35E2F383 PUSH1 0xE2 SHL DUP2 MSTORE PUSH1 0x4 DUP2 ADD DUP3 SWAP1 MSTORE PUSH1 0x24 ADD PUSH2 0xC85 JUMP JUMPDEST PUSH0 DUP1 DUP1 PUSH32 0x7FFFFFFFFFFFFFFFFFFFFFFFFFFFFFFF5D576E7357A4501DDFE92F46681B20A0 DUP5 GT ISZERO PUSH2 0x1DD3 JUMPI POP PUSH0 SWAP2 POP PUSH1 0x3 SWAP1 POP DUP3 PUSH2 0x1E58 JUMP JUMPDEST PUSH1 0x40 DUP1 MLOAD PUSH0 DUP1 DUP3 MSTORE PUSH1 0x20 DUP3 ADD DUP1 DUP5 MSTORE DUP11 SWAP1 MSTORE PUSH1 0xFF DUP10 AND SWAP3 DUP3 ADD SWAP3 SWAP1 SWAP3 MSTORE PUSH1 0x60 DUP2 ADD DUP8 SWAP1 MSTORE PUSH1 0x80 DUP2 ADD DUP7 SWAP1 MSTORE PUSH1 0x1 SWAP1 PUSH1 0xA0 ADD PUSH1 0x20 PUSH1 0x40 MLOAD PUSH1 0x20 DUP2 SUB SWAP1 DUP1 DUP5 SUB SWAP1 DUP6 GAS STATICCALL ISZERO DUP1 ISZERO PUSH2 0x1E24 JUMPI RETURNDATASIZE PUSH0 PUSH0 RETURNDATACOPY RETURNDATASIZE PUSH0 REVERT JUMPDEST POP POP PUSH1 0x40 MLOAD PUSH1 0x1F NOT ADD MLOAD SWAP2 POP POP PUSH1 0x1 PUSH1 0x1 PUSH1 0xA0 SHL SUB DUP2 AND PUSH2 0x1E4F JUMPI POP PUSH0 SWAP3 POP PUSH1 0x1 SWAP2 POP DUP3 SWAP1 POP PUSH2 0x1E58 JUMP JUMPDEST SWAP3 POP PUSH0 SWAP2 POP DUP2 SWAP1 POP JUMPDEST SWAP5 POP SWAP5 POP SWAP5 SWAP2 POP POP JUMP JUMPDEST DUP2 MLOAD PUSH2 0xFFFF AND DUP2 MSTORE PUSH2 0x180 DUP2 ADD PUSH1 0x20 DUP4 ADD MLOAD PUSH2 0x1E84 PUSH1 0x20 DUP5 ADD DUP3 PUSH2 0xFFFF AND SWAP1 MSTORE JUMP JUMPDEST POP PUSH1 0x40 DUP4 ADD MLOAD PUSH2 0x1E98 PUSH1 0x40 DUP5 ADD DUP3 ISZERO ISZERO SWAP1 MSTORE JUMP JUMPDEST POP PUSH1 0x60 DUP4 ADD MLOAD PUSH1 0x60 DUP4 ADD MSTORE PUSH1 0x80 DUP4 ADD MLOAD PUSH1 0x80 DUP4 ADD MSTORE PUSH1 0xA0 DUP4 ADD MLOAD PUSH2 0x1EC7 PUSH1 0xA0 DUP5 ADD DUP3 PUSH1 0x1 PUSH1 0x1 PUSH1 0xA0 SHL SUB AND SWAP1 MSTORE JUMP JUMPDEST POP PUSH1 0xC0 DUP4 ADD MLOAD PUSH2 0x1EE2 PUSH1 0xC0 DUP5 ADD DUP3 PUSH1 0x1 PUSH1 0x1 PUSH1 0xA0 SHL SUB AND SWAP1 MSTORE JUMP JUMPDEST POP PUSH1 0xE0 DUP4 ADD MLOAD PUSH2 0x1EFD PUSH1 0xE0 DUP5 ADD DUP3 PUSH1 0x1 PUSH1 0x1 PUSH1 0xA0 SHL SUB AND SWAP1 MSTORE JUMP JUMPDEST POP PUSH2 0x100 DUP4 ADD MLOAD PUSH2 0x1F1A PUSH2 0x100 DUP5 ADD DUP3 PUSH1 0x1 PUSH1 0x1 PUSH1 0xA0 SHL SUB AND SWAP1 MSTORE JUMP JUMPDEST POP PUSH2 0x120 DUP4 ADD MLOAD PUSH2 0x1F37 PUSH2 0x120 DUP5 ADD DUP3 PUSH1 0x1 PUSH1 0x1 PUSH1 0xA0 SHL SUB AND SWAP1 MSTORE JUMP JUMPDEST POP PUSH2 0x140 DUP4 ADD MLOAD PUSH2 0x1F54 PUSH2 0x140 DUP5 ADD DUP3 PUSH1 0x1 PUSH1 0x1 PUSH1 0xA0 SHL SUB AND SWAP1 MSTORE JUMP JUMPDEST POP PUSH2 0x160 DUP4 ADD MLOAD PUSH2 0x1F71 PUSH2 0x160 DUP5 ADD DUP3 PUSH1 0x1 PUSH1 0x1 PUSH1 0xA0 SHL SUB AND SWAP1 MSTORE JUMP JUMPDEST POP SWAP3 SWAP2 POP POP JUMP JUMPDEST PUSH0 PUSH1 0xE0 DUP3 DUP5 SUB SLT ISZERO PUSH2 0x1F88 JUMPI PUSH0 PUSH0 REVERT JUMPDEST POP SWAP2 SWAP1 POP JUMP JUMPDEST PUSH0 PUSH1 0xE0 DUP3 DUP5 SUB SLT ISZERO PUSH2 0x1F9E JUMPI PUSH0 PUSH0 REVERT JUMPDEST PUSH2 0x1865 DUP4 DUP4 PUSH2 0x1F78 JUMP JUMPDEST PUSH0 PUSH0 DUP4 PUSH1 0x1F DUP5 ADD SLT PUSH2 0x1FB8 JUMPI PUSH0 PUSH0 REVERT JUMPDEST POP DUP2 CALLDATALOAD PUSH1 0x1 PUSH1 0x1 PUSH1 0x40 SHL SUB DUP2 GT ISZERO PUSH2 0x1FCE JUMPI PUSH0 PUSH0 REVERT JUMPDEST PUSH1 0x20 DUP4 ADD SWAP2 POP DUP4 PUSH1 0x20 DUP3 DUP6 ADD ADD GT ISZERO PUSH2 0x1FE5 JUMPI PUSH0 PUSH0 REVERT JUMPDEST SWAP3 POP SWAP3 SWAP1 POP JUMP JUMPDEST PUSH0 PUSH0 PUSH0 PUSH0 PUSH0 PUSH0 PUSH2 0x140 DUP8 DUP10 SUB SLT ISZERO PUSH2 0x2002 JUMPI PUSH0 PUSH0 REVERT JUMPDEST DUP7 CALLDATALOAD SWAP6 POP PUSH2 0x2013 DUP9 PUSH1 0x20 DUP10 ADD PUSH2 0x1F78 JUMP JUMPDEST SWAP5 POP PUSH2 0x100 DUP8 ADD CALLDATALOAD PUSH1 0x1 PUSH1 0x1 PUSH1 0x40 SHL SUB DUP2 GT ISZERO PUSH2 0x202E JUMPI PUSH0 PUSH0 REVERT JUMPDEST PUSH2 0x203A DUP10 DUP3 DUP11 ADD PUSH2 0x1FA8 JUMP JUMPDEST SWAP1 SWAP6 POP SWAP4 POP POP PUSH2 0x120 DUP8 ADD CALLDATALOAD PUSH1 0x1 PUSH1 0x1 PUSH1 0x40 SHL SUB DUP2 GT ISZERO PUSH2 0x2059 JUMPI PUSH0 PUSH0 REVERT JUMPDEST PUSH2 0x2065 DUP10 DUP3 DUP11 ADD PUSH2 0x1FA8 JUMP JUMPDEST SWAP8 SWAP11 SWAP7 SWAP10 POP SWAP5 SWAP8 POP SWAP3 SWAP6 SWAP4 SWAP5 SWAP3 POP POP POP JUMP JUMPDEST PUSH1 0x1 PUSH1 0x1 PUSH1 0xA0 SHL SUB DUP2 AND DUP2 EQ PUSH2 0x124F JUMPI PUSH0 PUSH0 REVERT JUMPDEST PUSH0 PUSH1 0x20 DUP3 DUP5 SUB SLT ISZERO PUSH2 0x209B JUMPI PUSH0 PUSH0 REVERT JUMPDEST DUP2 CALLDATALOAD PUSH2 0x20A6 DUP2 PUSH2 0x2077 JUMP JUMPDEST SWAP4 SWAP3 POP POP POP JUMP JUMPDEST PUSH0 PUSH0 PUSH0 PUSH1 0x60 DUP5 DUP7 SUB SLT ISZERO PUSH2 0x20BF JUMPI PUSH0 PUSH0 REVERT JUMPDEST POP POP DUP2 CALLDATALOAD SWAP4 PUSH1 0x20 DUP4 ADD CALLDATALOAD SWAP4 POP PUSH1 0x40 SWAP1 SWAP3 ADD CALLDATALOAD SWAP2 SWAP1 POP JUMP JUMPDEST PUSH0 PUSH0 PUSH0 PUSH1 0x60 DUP5 DUP7 SUB SLT ISZERO PUSH2 0x20E8 JUMPI PUSH0 PUSH0 REVERT JUMPDEST DUP4 CALLDATALOAD PUSH2 0x20F3 DUP2 PUSH2 0x2077 JUMP JUMPDEST SWAP3 POP PUSH1 0x20 DUP5 ADD CALLDATALOAD PUSH2 0x2103 DUP2 PUSH2 0x2077 JUMP JUMPDEST SWAP3 SWAP6 SWAP3 SWAP5 POP POP POP PUSH1 0x40 SWAP2 SWAP1 SWAP2 ADD CALLDATALOAD SWAP1 JUMP JUMPDEST PUSH4 0x4E487B71 PUSH1 0xE0 SHL PUSH0 MSTORE PUSH1 0x11 PUSH1 0x4 MSTORE PUSH1 0x24 PUSH0 REVERT JUMPDEST DUP1 DUP3 ADD DUP1 DUP3 GT ISZERO PUSH2 0x1868 JUMPI PUSH2 0x1868 PUSH2 0x2114 JUMP JUMPDEST PUSH1 0x1 PUSH1 0x1 PUSH1 0x40 SHL SUB DUP2 AND DUP2 EQ PUSH2 0x124F JUMPI PUSH0 PUSH0 REVERT JUMPDEST DUP1 CALLDATALOAD PUSH2 0x215A DUP2 PUSH2 0x213B JUMP JUMPDEST SWAP2 SWAP1 POP JUMP JUMPDEST PUSH0 PUSH1 0x20 DUP3 DUP5 SUB SLT ISZERO PUSH2 0x216F JUMPI PUSH0 PUSH0 REVERT JUMPDEST DUP2 CALLDATALOAD PUSH2 0x20A6 DUP2 PUSH2 0x213B JUMP JUMPDEST DUP1 DUP3 MUL DUP2 ISZERO DUP3 DUP3 DIV DUP5 EQ OR PUSH2 0x1868 JUMPI PUSH2 0x1868 PUSH2 0x2114 JUMP JUMPDEST PUSH0 DUP3 PUSH2 0x21AB JUMPI PUSH4 0x4E487B71 PUSH1 0xE0 SHL PUSH0 MSTORE PUSH1 0x12 PUSH1 0x4 MSTORE PUSH1 0x24 PUSH0 REVERT JUMPDEST POP DIV SWAP1 JUMP JUMPDEST DUP2 DUP2 SUB DUP2 DUP2 GT ISZERO PUSH2 0x1868 JUMPI PUSH2 0x1868 PUSH2 0x2114 JUMP JUMPDEST PUSH0 PUSH1 0x20 DUP3 DUP5 SUB SLT ISZERO PUSH2 0x21D3 JUMPI PUSH0 PUSH0 REVERT JUMPDEST DUP2 MLOAD PUSH2 0x20A6 DUP2 PUSH2 0x213B JUMP JUMPDEST PUSH0 PUSH1 0x20 DUP3 DUP5 SUB SLT ISZERO PUSH2 0x21EE JUMPI PUSH0 PUSH0 REVERT JUMPDEST POP MLOAD SWAP2 SWAP1 POP JUMP JUMPDEST PUSH0 PUSH1 0x20 DUP3 DUP5 SUB SLT ISZERO PUSH2 0x2205 JUMPI PUSH0 PUSH0 REVERT JUMPDEST DUP2 MLOAD PUSH2 0x20A6 DUP2 PUSH2 0x2077 JUMP JUMPDEST PUSH0 PUSH1 0x20 DUP3 DUP5 SUB SLT ISZERO PUSH2 0x2220 JUMPI PUSH0 PUSH0 REVERT JUMPDEST DUP2 CALLDATALOAD PUSH2 0xFFFF DUP2 AND DUP2 EQ PUSH2 0x20A6 JUMPI PUSH0 PUSH0 REVERT JUMPDEST DUP1 CALLDATALOAD PUSH1 0x2 DUP2 LT PUSH2 0x215A JUMPI PUSH0 PUSH0 REVERT JUMPDEST PUSH0 PUSH1 0x20 DUP3 DUP5 SUB SLT ISZERO PUSH2 0x224F JUMPI PUSH0 PUSH0 REVERT JUMPDEST PUSH2 0x1865 DUP3 PUSH2 0x2231 JUMP JUMPDEST PUSH4 0x4E487B71 PUSH1 0xE0 SHL PUSH0 MSTORE PUSH1 0x21 PUSH1 0x4 MSTORE PUSH1 0x24 PUSH0 REVERT JUMPDEST PUSH1 0x1 PUSH1 0x1 PUSH1 0x40 SHL SUB DUP2 DUP2 AND DUP4 DUP3 AND MUL SWAP1 DUP2 AND SWAP1 DUP2 DUP2 EQ PUSH2 0x1F71 JUMPI PUSH2 0x1F71 PUSH2 0x2114 JUMP JUMPDEST PUSH1 0x20 DUP2 MSTORE DUP2 PUSH1 0x20 DUP3 ADD MSTORE DUP2 DUP4 PUSH1 0x40 DUP4 ADD CALLDATACOPY PUSH0 DUP2 DUP4 ADD PUSH1 0x40 SWAP1 DUP2 ADD SWAP2 SWAP1 SWAP2 MSTORE PUSH1 0x1F SWAP1 SWAP3 ADD PUSH1 0x1F NOT AND ADD ADD SWAP2 SWAP1 POP JUMP JUMPDEST PUSH1 0x2 DUP2 LT PUSH2 0x22D8 JUMPI PUSH4 0x4E487B71 PUSH1 0xE0 SHL PUSH0 MSTORE PUSH1 0x21 PUSH1 0x4 MSTORE PUSH1 0x24 PUSH0 REVERT JUMPDEST SWAP1 MSTORE JUMP JUMPDEST PUSH1 0x1 PUSH1 0x1 PUSH1 0xA0 SHL SUB DUP6 DUP2 AND DUP3 MSTORE DUP5 AND PUSH1 0x20 DUP3 ADD MSTORE PUSH1 0x40 DUP2 ADD DUP4 SWAP1 MSTORE PUSH2 0x140 DUP2 ADD DUP3 CALLDATALOAD PUSH2 0x2307 DUP2 PUSH2 0x213B JUMP JUMPDEST PUSH1 0x1 PUSH1 0x1 PUSH1 0x40 SHL SUB AND PUSH1 0x60 DUP4 ADD MSTORE PUSH1 0x20 DUP4 ADD CALLDATALOAD PUSH2 0x2323 DUP2 PUSH2 0x213B JUMP JUMPDEST PUSH1 0x1 PUSH1 0x1 PUSH1 0x40 SHL SUB AND PUSH1 0x80 DUP4 ADD MSTORE PUSH1 0x40 DUP4 ADD CALLDATALOAD PUSH2 0x233F DUP2 PUSH2 0x213B JUMP JUMPDEST PUSH1 0x1 PUSH1 0x1 PUSH1 0x40 SHL SUB AND PUSH1 0xA0 DUP4 ADD MSTORE PUSH2 0x2359 PUSH1 0x60 DUP5 ADD PUSH2 0x2231 JUMP JUMPDEST PUSH2 0x2366 PUSH1 0xC0 DUP5 ADD DUP3 PUSH2 0x22BC JUMP JUMPDEST POP PUSH2 0x2373 PUSH1 0x80 DUP5 ADD PUSH2 0x214F JUMP JUMPDEST PUSH1 0x1 PUSH1 0x1 PUSH1 0x40 SHL SUB AND PUSH1 0xE0 DUP4 ADD MSTORE PUSH2 0x238D PUSH1 0xA0 DUP5 ADD PUSH2 0x214F JUMP JUMPDEST PUSH1 0x1 PUSH1 0x1 PUSH1 0x40 SHL SUB AND PUSH2 0x100 DUP4 ADD MSTORE PUSH2 0x23A8 PUSH1 0xC0 DUP5 ADD PUSH2 0x214F JUMP JUMPDEST PUSH1 0x1 PUSH1 0x1 PUSH1 0x40 SHL SUB DUP2 AND PUSH2 0x120 DUP5 ADD MSTORE POP SWAP6 SWAP5 POP POP POP POP POP JUMP INVALID LOG2 PUSH5 0x6970667358 0x22 SLT KECCAK256 TIMESTAMP XOR PUSH21 0x8688E128765020243D71978B5CDBDB39764FC9F8E3 SWAP6 0xC1 0xD4 SHR PUSH10 0xDC92F064736F6C634300 ADDMOD 0x1E STOP CALLER LOG2 PUSH5 0x6970667358 0x22 SLT KECCAK256 CODESIZE 0xD7 RETURNDATASIZE CALLER 0xB8 0xE9 0xD8 DUPN 0x35 SWAP4 0x4C MSTORE8 SUB PUSH20 0xAB8A06860AE866EE19D694F821356C4019D36473 PUSH16 0x6C634300081E00330000000000000000 "
		},
		"gasEstimates": {
			"creation": {
				"codeDepositCost": "2308800",
				"executionCost": "50937",
				"totalCost": "2359737"
			},
			"external": {
				"test_InsolvencyWithFeeToken()": "infinite"
			}
		},
		"methodIdentifiers": {
			"test_InsolvencyWithFeeToken()": "de6b62d4"
		}
	},
	"abi": [
		{
			"inputs": [],
			"name": "test_InsolvencyWithFeeToken",
			"outputs": [],
			"stateMutability": "nonpayable",
			"type": "function"
		}
	]
}