{
	"data": {
		"bytecode": {
			"linkReferences": {},
			"object": "6080604052348015600e575f5ffd5b506008805460ff19169055615239806100265f395ff3fe608060405260043610610233575f3560e01c80638456cb5911610129578063d8a5bf9f116100a8578063edcc1c1e1161006d578063edcc1c1e1461088c578063efbe1c1c146108ab578063f68c1d49146108bf578063f71c2364146108d3578063f9020e33146108e7575f5ffd5b8063d8a5bf9f146107e7578063e5f6738214610806578063e63ea40814610825578063e985e9c514610844578063ea8a1af014610878575f5ffd5b8063a83c2063116100ee578063a83c206314610758578063b45a3c0e14610777578063b88d4fde14610796578063c87b56dd146107a9578063cc6ae755146107c8575f5ffd5b80638456cb591461056657806384cbd9cd1461057a57806390dbb806146105f957806395d89b4114610725578063a22cb46514610739575f5ffd5b80633fdbdcd9116101b5578063590e1ae31161017a578063590e1ae3146104575780635c975abb1461046b5780636352211e14610482578063699c2994146104a157806370a0823114610539575f5ffd5b80633fdbdcd9146103ce57806342842e0e146103f25780634bd31fb11461040557806354dd1da4146104245780635570fdbf14610438575f5ffd5b80630a636d5b116101fb5780630a636d5b1461031c57806323b872dd1461033057806337dc027d146103435780633cccebc5146103625780633f4ba83a146103ba575f5ffd5b806301ffc9a71461023757806306fdde0314610290578063081812fc146102b157806308af6e25146102e8578063095ea7b314610309575b5f5ffd5b348015610242575f5ffd5b5061027b610251366004614703565b6301ffc9a760e09190911c9081146380ac58cd821417635b5e139f82141763b45a3c0e9091141790565b60405190151581526020015b60405180910390f35b34801561029b575f5ffd5b506102a46109f7565b6040516102879190614758565b3480156102bc575f5ffd5b506102d06102cb36600461476a565b610a89565b6040516001600160a01b039091168152602001610287565b3480156102f3575f5ffd5b50610307610302366004614795565b610ac4565b005b6103076103173660046147d3565b610b28565b348015610327575f5ffd5b50610307610b37565b61030761033e366004614795565b610b6c565b34801561034e575f5ffd5b5061030761035d366004614841565b610c63565b34801561036d575f5ffd5b506040805180820182525f80825260209182018190528251808401845290546001600160a01b03908116808352600154821692840192835284519081529151169181019190915201610287565b3480156103c5575f5ffd5b50610307610eee565b3480156103d9575f5ffd5b506103e2610f21565b60405161028794939291906148df565b610307610400366004614795565b6110cf565b348015610410575f5ffd5b5061030761041f366004614929565b6110fb565b34801561042f575f5ffd5b5061030761124a565b348015610443575f5ffd5b5061030761045236600461476a565b6112f2565b348015610462575f5ffd5b50610307611379565b348015610476575f5ffd5b5060085460ff1661027b565b34801561048d575f5ffd5b506102d061049c36600461476a565b611449565b3480156104ac575f5ffd5b506104c06104bb366004614984565b611485565b60405161028791905f60e0820190506001600160401b0383511682526001600160401b0360208401511660208301526001600160401b0360408401511660408301526001600160401b0360608401511660608301526080830151608083015260a083015160a083015260c083015160c083015292915050565b348015610544575f5ffd5b50610558610553366004614984565b611826565b604051908152602001610287565b348015610571575f5ffd5b5061030761185e565b348015610585575f5ffd5b50610599610594366004614984565b611891565b604051610287919081516001600160a01b0316815260208083015190820152604080830151908201526060808301519082015260808083015115159082015260a08281015115159082015260c09182015115159181019190915260e00190565b348015610604575f5ffd5b5061071860408051610180810182525f80825260208201819052918101829052606081018290526080810182905260a0810182905260c0810182905260e081018290526101008101829052610120810182905261014081018290526101608101919091525060408051610180810182526009546001600160a01b039081168252600a5481166020830152600b54811692820192909252600c5482166060820152600d5482166080820152600e54821660a0820152600f5491821660c08201526001600160401b03600160a01b83041660e082015261ffff600160e01b83048116610100830152600160f01b909204821661012082015260105480831661014083015262010000900490911661016082015290565b604051610287919061499f565b348015610730575f5ffd5b506102a461195a565b348015610744575f5ffd5b50610307610753366004614ad4565b61196c565b348015610763575f5ffd5b50610307610772366004614b0f565b6119bf565b348015610782575f5ffd5b5061027b61079136600461476a565b611a6f565b6103076107a4366004614b41565b611ac0565b3480156107b4575f5ffd5b506102a46107c336600461476a565b611b1a565b3480156107d3575f5ffd5b506103076107e2366004614b91565b611c81565b3480156107f2575f5ffd5b50610307610801366004614bba565b611f4d565b348015610811575f5ffd5b50610307610820366004614b41565b611fc5565b348015610830575f5ffd5b5061030761083f366004614795565b612016565b34801561084f575f5ffd5b5061027b61085e366004614bf1565b601c52670a5a2e7a000000006008525f526030600c205490565b348015610883575f5ffd5b50610307612097565b348015610897575f5ffd5b506103076108a6366004614929565b61213d565b3480156108b6575f5ffd5b50610307612290565b3480156108ca575f5ffd5b50610307612392565b3480156108de575f5ffd5b50610307612568565b3480156108f2575f5ffd5b506109ea60408051610160810182525f80825260208201819052918101829052606081018290526080810182905260a0810182905260c0810182905260e08101829052610100810182905261012081018290526101408101919091525060408051610160810182526011546001600160a01b031681526012546020820152601354918101919091526014546060820152601554608082015260165460a08201526017546001600160401b0380821660c0840152600160401b82041660e083015260ff600160801b820481161515610100840152600160881b820481161515610120840152600160901b90910416151561014082015290565b6040516102879190614c1d565b606060035f018054610a0890614cd8565b80601f0160208091040260200160405190810160405280929190818152602001828054610a3490614cd8565b8015610a7f5780601f10610a5657610100808354040283529160200191610a7f565b820191905f5260205f20905b815481529060010190602001808311610a6257829003601f168201915b5050505050905090565b5f815f52673ec412a9852d173d60c11b601c5260205f2082018201805460601b610aba5763ceea21b65f526004601cfd5b6001015492915050565b600c546001600160a01b03163314610aef57604051631634f9a360e31b815260040160405180910390fd5b610af761264b565b610aff61266f565b610b0761269a565b610b0f6126e2565b610b1881612703565b610b238383836127b6565b505050565b610b33338383612951565b5050565b600c546001600160a01b03163314610b6257604051631634f9a360e31b815260040160405180910390fd5b610b6a6129eb565b565b610b77838383612d3a565b5f818152673ec412a9852d173d60c11b3317601c52602090208101810180546001600160a01b039485169493841693811691908286148302610bc85767ceea21b6a1148100831560021b526004601cfd5b855f528160010154925082331486331417610bf4576030600c2054610bf457634b6e7f185f526004601cfd5b8215610c01575f82600101555b85851818905550601c600c81812080545f190190555f84905220805460010163ffffffff81168402610c425767ea553b3401336cea841560021b526004601cfd5b90558082845f5160206151e45f395f51905f525f38a4610b23838383612da1565b610c6b61264b565b610c7361266f565b610c7b61269a565b610c83612df7565b5f610c8d33612e21565b9050610c9881612e3b565b610ca181612e5b565b610caa86612e94565b610cb38161310a565b610cbe8888836131a1565b610ccb85858360026131d7565b610cd783838389613356565b610ce185856133ef565b5f81815260186020908152604080832033845260199092529182902091519091600191610d119089908990614d10565b9081526040805160209281900383018120805460ff1916941515949094179093556004840180546201000062ff000019909116179055610160830181526011546001600160a01b03168352601254918301829052601354908301526014546060830152601554608083015260165460a08301526017546001600160401b0380821660c0850152600160401b82041660e084015260ff600160801b820481161515610100850152600160881b820481161515610120850152600160901b90910416151561014083015260038301545f91670de0b6b3a764000091610df391614d33565b610dfd9190614d4a565b90505f670de0b6b3a7640000610e1960e08c0160c08d01614d88565b610e2c906001600160401b031684614d33565b610e369190614d4a565b90505f610e438284614da3565b604080518281526020810185905233818301526060810189905290519192507fb8b27c9366ae0d3a9eecbcc98c26bd18ca7bdd47293088cdf8ccdc683354520d919081900360800190a18015610ecc575f610ea18c865f0151613443565b86546001600160a01b0319166001600160a01b0382161787558551909150610eca908284613554565b505b8115610edf578351610edf903384613554565b50505050505050505050505050565b600c546001600160a01b03163314610f1957604051631634f9a360e31b815260040160405180910390fd5b610b6a61359e565b600380548190610f3090614cd8565b80601f0160208091040260200160405190810160405280929190818152602001828054610f5c90614cd8565b8015610fa75780601f10610f7e57610100808354040283529160200191610fa7565b820191905f5260205f20905b815481529060010190602001808311610f8a57829003601f168201915b505050505090806001018054610fbc90614cd8565b80601f0160208091040260200160405190810160405280929190818152602001828054610fe890614cd8565b80156110335780601f1061100a57610100808354040283529160200191611033565b820191905f5260205f20905b81548152906001019060200180831161101657829003601f168201915b50505050509080600201805461104890614cd8565b80601f016020809104026020016040519081016040528092919081815260200182805461107490614cd8565b80156110bf5780601f10611096576101008083540402835291602001916110bf565b820191905f5260205f20905b8154815290600101906020018083116110a257829003601f168201915b5050505050908060030154905084565b6110da838383610b6c565b813b15610b2357610b2383838360405180602001604052805f8152506135eb565b61110361264b565b61110b61266f565b5f61111533612e21565b905061112081612e3b565b61112a83836133ef565b6111338161366c565b335f90815260196020526040908190209051600191906111569086908690614d10565b90815260408051918290036020908101909220805493151560ff199485161790555f848152601890925281206004018054909216600117909155601380548892906111a2908490614da3565b90915550505f81815260186020526040812060010180548892906111c7908490614da3565b909155506111d890508585836131a1565b6111e583838360016131d7565b604080518781523360208201529081018290527f6341dcb064edac8070b059a7351278f06df48f417dbb63f02402409059b030539060600160405180910390a1851561124257600954611242906001600160a01b03163388613554565b505050505050565b61125261264b565b5f61125c33612e21565b905061126781612e3b565b5f818152601860205260409020546001600160a01b03168061129c5760405163b840f60b60e01b815260040160405180910390fd5b601154604051631916558760e01b81526001600160a01b039182166004820152908216906319165587906024015f604051808303815f87803b1580156112e0575f5ffd5b505af1158015611242573d5f5f3e3d5ffd5b600c546001600160a01b0316331461131d57604051631634f9a360e31b815260040160405180910390fd5b61132561264b565b61132d61266f565b61133561269a565b61133d613703565b60148190556040518181527f151ffe84d1482d5bbfdf5b150b651aba0a2f69514da2bb748a985de46aa7be36906020015b60405180910390a150565b61138161264b565b61138961266f565b611391613727565b5f61139b33612e21565b90506113a681612e3b565b6113af81612e5b565b5f8181526018602052604081206001810180549083905560048201805461ff00191661010017905560138054929391928392906113ed908490614da3565b9091555050604080518281523360208201529081018490527f2f7421f68549e714bc710199519c8b35139cb8bd9e49984836621b29f676101a9060600160405180910390a1600954610b23906001600160a01b03163383613554565b5f818152673ec412a9852d173d60c11b601c526020902081018101546001600160a01b0316806114805763ceea21b65f526004601cfd5b919050565b6040805160e0810182525f80825260208201819052918101829052606081018290526080810182905260a0810182905260c08101829052906114c683612e21565b90506114d181612e3b565b5f818152601860205260409020546011546001600160a01b039182169116816114fa578361181d565b6040518060e00160405280836001600160a01b031663be9a65556040518163ffffffff1660e01b8152600401602060405180830381865afa158015611541573d5f5f3e3d5ffd5b505050506040513d601f19601f820116820180604052508101906115659190614db6565b6001600160401b03168152602001836001600160a01b031663efbe1c1c6040518163ffffffff1660e01b8152600401602060405180830381865afa1580156115af573d5f5f3e3d5ffd5b505050506040513d601f19601f820116820180604052508101906115d39190614db6565b6001600160401b03168152602001836001600160a01b031663e8a6fed16040518163ffffffff1660e01b8152600401602060405180830381865afa15801561161d573d5f5f3e3d5ffd5b505050506040513d601f19601f820116820180604052508101906116419190614db6565b6001600160401b03168152602001836001600160a01b0316630fb5a6b46040518163ffffffff1660e01b8152600401602060405180830381865afa15801561168b573d5f5f3e3d5ffd5b505050506040513d601f19601f820116820180604052508101906116af9190614db6565b6001600160401b03168152604051632614965760e21b81526001600160a01b038481166004830152602090920191851690639852595c90602401602060405180830381865afa158015611704573d5f5f3e3d5ffd5b505050506040513d601f19601f820116820180604052508101906117289190614dd1565b81526040516351fc756760e11b81526001600160a01b03848116600483015260209092019185169063a3f8eace90602401602060405180830381865afa158015611774573d5f5f3e3d5ffd5b505050506040513d601f19601f820116820180604052508101906117989190614dd1565b815260405163810ec23b60e01b81526001600160a01b0384811660048301526001600160401b034216602483015260209092019185169063810ec23b90604401602060405180830381865afa1580156117f3573d5f5f3e3d5ffd5b505050506040513d601f19601f820116820180604052508101906118179190614dd1565b90529350835b50505050919050565b5f8161183957638f4eb6045f526004601cfd5b673ec412a9852d173d60c11b601c52815f5263ffffffff601c600c2054169050919050565b600c546001600160a01b0316331461188957604051631634f9a360e31b815260040160405180910390fd5b610b6a613770565b6040805160e0810182525f80825260208201819052918101829052606081018290526080810182905260a0810182905260c08101829052906118d283612e21565b90506118dd81612e3b565b5f90815260186020908152604091829020825160e08101845281546001600160a01b031681526001820154928101929092526002810154928201929092526003820154606082015260049091015460ff8082161515608084015261010082048116151560a08401526201000090910416151560c082015292915050565b606060036001018054610a0890614cd8565b801515905081601c52670a5a2e7a00000000600852335f52806030600c2055805f528160601b60601c337f17307eab39ab6107e8899845ad3d59bd9653f200f220920489ca2b5937696c3160205fa35050565b600c546001600160a01b031633146119ea57604051631634f9a360e31b815260040160405180910390fd5b6119f261264b565b6119fa61266f565b611a0261269a565b601180546001600160a01b0319166001600160a01b03851690811790915560128390556015829055604080519182526020820184905281018290527fccd6e700239003e767ba46ba2f503be5ab97e5000b9dfa95dab928f273844dc99060600160405180910390a1505050565b5f818152673ec412a9852d173d60c11b601c5260208120820182015460601b611aab5760405163677510db60e11b815260040160405180910390fd5b505f9081526002602052604090205460ff1690565b611acb858585610b6c565b833b15611b1357611b1385858585858080601f0160208091040260200160405190810160405280939291908181526020018383808284375f920191909152506135eb92505050565b5050505050565b6060611b43825f818152673ec412a9852d173d60c11b601c52602090208101015460601b151590565b611ba45760405162461bcd60e51b815260206004820152602760248201527f4552433732313a2055524920717565727920666f72206e6f6e6578697374656e6044820152663a103a37b5b2b760c91b60648201526084015b60405180910390fd5b5f60036002018054611bb590614cd8565b80601f0160208091040260200160405190810160405280929190818152602001828054611be190614cd8565b8015611c2c5780601f10611c0357610100808354040283529160200191611c2c565b820191905f5260205f20905b815481529060010190602001808311611c0f57829003601f168201915b505050505090505f815111611c4f5760405180602001604052805f815250611c7a565b80611c59846137ad565b604051602001611c6a929190614dff565b6040516020818303038152906040525b9392505050565b600a546001600160a01b03163314611cac576040516301312f1f60e11b815260040160405180910390fd5b611cb461264b565b611cbc61266f565b611cc461383c565b611ccd83613867565b6017805460ff60881b1916600160881b17905560408051610180810182526009546001600160a01b039081168252600a5481166020830152600b54811692820192909252600c5482166060820152600d5482166080820152600e54821660a0820152600f5491821660c08201526001600160401b03600160a01b83041660e082015261ffff600160e01b83048116610100830152600160f01b90920482166101208201819052601054808416610140840152620100009004909216610160820152905f9061271090611da0908790614d33565b611daa9190614d4a565b6010549091505f9061271090611dcb90889062010000900461ffff16614d33565b611dd59190614d4a565b9050818514611e01576040516354dff7e960e01b81526004810186905260248101839052604401611b9b565b808414611e2b576040516354dff7e960e01b81526004810185905260248101829052604401611b9b565b60408051878152602081018790529081018590527feb6ecff67790f9432b928d86593a8ef9296b4f8562a4e1856e2b17372fa218fb9060600160405180910390a160408051610160810182526011546001600160a01b03168082526012546020830152601354928201929092526014546060820152601554608082015260165460a08201526017546001600160401b0380821660c0840152600160401b82041660e083015260ff600160801b820481161515610100840152600160881b820481161515610120840152600160901b90910416151561014082015290611f129033308a6138b5565b8515611f2b57611f2b815f0151338660a00151896138b5565b8415611f4457611f44815f0151338660c00151886138b5565b50505050505050565b63409feecd198054600382558015611f835760018160011c14303b10611f7a5763f92ee8a95f526004601cfd5b818160ff1b1b91505b50611f8d8261390e565b8015610b33576002815560016020527fc7f505b2f371ae2175ee4913f4499e1f2633a7b5936321eed1cdaeb6115181d2602080a15050565b611fcd61264b565b611fd561266f565b611fdd61269a565b611fe56126e2565b600d54612002908690869086906001600160a01b03168686613b32565b61200b83612703565b611b138585856127b6565b600c546001600160a01b0316331461204157604051631634f9a360e31b815260040160405180910390fd5b604080516001600160a01b038086168252841660208201529081018290527ff24ef89f38eadc1bde50701ad6e4d6d11a2dc24f7cf834a486991f38833285049060600160405180910390a1610b23828483613554565b600a546001600160a01b031633146120c2576040516301312f1f60e11b815260040160405180910390fd5b6120ca61264b565b6120d261266f565b6120da61383c565b6016546017805460ff60801b1916600160801b1790556040517f0943552b21b3bcfb11bcb560653f2703faf49c76ac2a791e285b130c0117678a905f90a1801561213a575f60165560095461213a906001600160a01b03163330846138b5565b50565b61214561264b565b61214d61266f565b612155613bff565b5f61215f33612e21565b1561217857335f90815260076020526040902054612181565b61218133613c2c565b905061218c81612e5b565b61219683836133ef565b61219f8161366c565b5f81815260186020526040812060138054919289926121bf908490614e1b565b9250508190555086816001015f8282546121d99190614e1b565b9091555050335f90815260196020526040908190209051600191906122019087908790614d10565b908152604051908190036020019020805491151560ff1990921691909117905561222c8686846131a1565b6122388484845f6131d7565b604080518881523360208201529081018390527f4043c8d45eb629e6b7f94bf2f65c2a7756f860bbe48747c7bc599ca0353b47989060600160405180910390a1600954611f44906001600160a01b031633308a6138b5565b600a546001600160a01b031633148015906122b65750600c546001600160a01b03163314155b156122d4576040516310ad0ba160e31b815260040160405180910390fd5b6122dc61264b565b6122e461266f565b6122ec613bff565b601780546001600160401b034281811672ff00000000000000000000ffffffffffffffff1990931692909217600160901b17909255600f5461233792600160a01b9091041690614e2e565b601780546001600160401b0392909216600160401b026fffffffffffffffff0000000000000000199092169190911790556040517f0bd8a3eb532e5fbcd3f5b00335f0fb42fdc11969e9af0fab7c9e71a36ae0d31a905f90a1565b600a546001600160a01b031633146123bd576040516301312f1f60e11b815260040160405180910390fd5b6123c561264b565b6123cd61266f565b6123d561269a565b6123dd613c69565b601454601681905560408051610180810182526009546001600160a01b039081168252600a5481166020830152600b54811692820192909252600c5482166060820152600d5482166080820152600e54821660a0820152600f5491821660c08201526001600160401b03600160a01b83041660e082015261ffff600160e01b830481166101008301819052600160f01b909304811661012083015260105480821661014084015262010000900416610160820152905f90612710906124a3908590614d33565b6124ad9190614d4a565b90505f61271061ffff168484610140015161ffff166124cc9190614d33565b6124d69190614d4a565b90507f3ae35a082057a5be9e6d5f35595c7af95c80661ebf74fdbb3790f6ef55c75e4f8460405161250991815260200190565b60405180910390a182516125329033836125238689614da3565b61252d9190614da3565b613554565b811561254a5761254a835f01518460a0015184613554565b801561256257612562835f01518460c0015183613554565b50505050565b61257061264b565b612578613d45565b5f61258233612e21565b905061258d81612e3b565b61259681612e5b565b5f81815260186020526040812060010154908190036125ca576040516342fe459760e01b81525f6004820152602401611b9b565b5f828152601860205260408120600101819055601380548392906125ef908490614da3565b9091555050604080518281523360208201529081018390527fda124931709a9de02389de043bd0be501cc2a5d726a4c49ac615aebdd41b29679060600160405180910390a1600954610b33906001600160a01b03163383613554565b60085460ff1615610b6a5760405163d93c066560e01b815260040160405180910390fd5b601754600160801b900460ff1615610b6a576040516326c4177d60e01b815260040160405180910390fd5b601754600160401b90046001600160401b031680158015906126bb57508042105b1561213a57604051630a0e099960e01b815242600482015260248101829052604401611b9b565b60155415610b6a57604051631e557c2560e21b815260040160405180910390fd5b5f81815260186020908152604091829020825160e08101845281546001600160a01b031681526001820154928101929092526002810154928201929092526003820154606082015260049091015460ff8082161515608084015261010082048116151560a084018190526201000090920416151560c08301528061278857508060c001515b8061279557508060800151155b15610b335760405163141664ff60e21b815260048101839052602401611b9b565b6001600160a01b0382165f908152600760205260409020548015612946575f828152601860208181526040808420815160e08101835281546001600160a01b031681526001820154818501526002820154818401526003820154606082015260049182015460ff808216151560808401526101008083048216151560a0850152620100009092048116151560c084015288885295909452919094209384015490939291900416806128715750600481015462010000900460ff165b806128815750600481015460ff16155b156128a25760405163a1504f3b60e01b815260048101849052602401611b9b565b8160200151816001015f8282546128b99190614e1b565b909155505060608201516003820180545f906128d6908490614e1b565b909155505060408201516002820180545f906128f3908490614e1b565b90915550505f84815260186020526040812080546001600160a01b031916815560018101829055600281018290556003810191909155600401805462ffffff1916905561293f86613d6f565b5050612562565b612562848484613daa565b5f1960601c82811692508381169350815f5283673ec412a9852d173d60c11b17601c5260205f2082018201805482169150816129945763ceea21b65f526004601cfd5b8185148515176129b857815f526030600c20546129b857634b6e7f185f526004601cfd5b6001018390558183827f8c5be1e5ebec7d5bd14f71427d1e84f3dd0314c0f7b2291e5b200ac8c7c3b9255f38a450505050565b600b5460405163970559cf60e01b81526d2622a3a4a7a72fa127aaa721a2a960911b60048201526001600160a01b039091169063970559cf90602401602060405180830381865afa158015612a42573d5f5f3e3d5ffd5b505050506040513d601f19601f82011682018060405250810190612a669190614e4d565b600c80546001600160a01b0319166001600160a01b03928316179055600b5460405163970559cf60e01b81526c2622a3a4a7a72fa9a4a3a722a960991b600482015291169063970559cf90602401602060405180830381865afa158015612acf573d5f5f3e3d5ffd5b505050506040513d601f19601f82011682018060405250810190612af39190614e4d565b600d80546001600160a01b0319166001600160a01b03928316179055600b5460405163970559cf60e01b8152722622a3a4a7a72fa322a2afa922a1a2a4ab22a960691b600482015291169063970559cf90602401602060405180830381865afa158015612b62573d5f5f3e3d5ffd5b505050506040513d601f19601f82011682018060405250810190612b869190614e4d565b600e80546001600160a01b0319166001600160a01b03928316179055600b5460405163970559cf60e01b8152754c4547494f4e5f56455354494e475f464143544f525960501b600482015291169063970559cf90602401602060405180830381865afa158015612bf8573d5f5f3e3d5ffd5b505050506040513d601f19601f82011682018060405250810190612c1c9190614e4d565b5f80546001600160a01b0319166001600160a01b03928316179055600b5460405163970559cf60e01b81527f4c4547494f4e5f56455354494e475f434f4e54524f4c4c455200000000000000600482015291169063970559cf90602401602060405180830381865afa158015612c94573d5f5f3e3d5ffd5b505050506040513d601f19601f82011682018060405250810190612cb89190614e4d565b600180546001600160a01b0319166001600160a01b03928316908117909155600c54600d54600e545f54604080519487168552928616602085015290851691830191909152909216606083015260808201527f4b02015c8d0e47cc44a723bc061abdfa651fefc86f2ac5387e9f992f732b35289060a0015b60405180910390a1565b5f8181526002602052604090205460ff1615612d6c57604051633eaa5a6560e21b815260048101829052602401611b9b565b816001600160a01b0316836001600160a01b031603610b235760405163a9f93fb960e01b815260048101829052602401611b9b565b6001600160a01b03831615801590612dc157506001600160a01b03821615155b15612dec576001600160a01b038084165f908152600760205260408082208290559184168152208190555b610b23838383613dbf565b601754600160881b900460ff16610b6a576040516328b1bbfb60e01b815260040160405180910390fd5b6001600160a01b03165f9081526007602052604090205490565b805f0361213a5760405163060d1e1760e11b815260040160405180910390fd5b5f81815260186020526040902060040154610100900460ff161561213a5760405163029a96bb60e01b8152336004820152602401611b9b565b612ea2426312bed400614e1b565b612eaf6020830183614d88565b6001600160401b03161180612edf57506312bed400612ed46040830160208401614d88565b6001600160401b0316115b80612f195750612ef56040820160208301614d88565b6001600160401b0316612f0e6060830160408401614d88565b6001600160401b0316115b80612f435750670de0b6b3a7640000612f3860e0830160c08401614d88565b6001600160401b0316115b1561301957612f586080820160608301614e76565b6001811115612f6957612f69614e8f565b612f766020830183614d88565b612f866040840160208501614d88565b612f966060850160408601614d88565b612fa660a0860160808701614d88565b612fb660c0870160a08801614d88565b612fc660e0880160c08901614d88565b604051631bf0976560e01b815260ff90971660048801526001600160401b0395861660248801529385166044870152918416606486015283166084850152821660a48401521660c482015260e401611b9b565b600161302b6080830160608401614e76565b600181111561303c5761303c614e8f565b0361213a576312bed40061305660a0830160808401614d88565b61306660c0840160a08501614d88565b6130709190614ea3565b6001600160401b031611806130cf57506130906040820160208301614d88565b6001600160401b03166130a960a0830160808401614d88565b6130b960c0840160a08501614d88565b6130c39190614ea3565b6001600160401b031614155b806130f557506301dfe2006130ea60a0830160808401614d88565b6001600160401b0316115b1561213a57612f586080820160608301614e76565b5f81815260186020908152604091829020825160e08101845281546001600160a01b031681526001820154928101929092526002810154928201929092526003820154606082015260049091015460ff8082161515608084015261010082048116151560a0840152620100009091041615801560c0830152610b335760405163edf08ce160e01b8152336004820152602401611b9b565b5f818152601860205260409020600281015484146131c157600281018490555b8281600301541461256257600301919091555050565b5f82815260186020908152604091829020825160e08101845281546001600160a01b03168152600182015492810183905260028201549381018490526003820154606082015260049091015460ff8082161515608084015261010082048116151560a08401526201000090910416151560c0820152911461326d5760405163dc240ac160e01b8152336004820152602401611b9b565b5f6132da33308460400151856060015187604051602001613292959493929190614ec5565b604051602081830303815290604052805190602001207f19457468657265756d205369676e6564204d6573736167653a0a3332000000005f908152601c91909152603c902090565b600d54604080516020601f8a018190048102820181019092528881529293506001600160a01b039091169161332b9189908990819084018382808284375f920191909152508693925050613dca9050565b6001600160a01b031614611242578585604051633dd7420b60e11b8152600401611b9b929190614f26565b5f6133733330468686604051602001613292959493929190614f68565b600d54604080516020601f89018190048102820181019092528781529293506001600160a01b03909116916133c49188908890819084018382808284375f920191909152508693925050613dca9050565b6001600160a01b031614611b13578484604051633dd7420b60e11b8152600401611b9b929190614f26565b335f9081526019602052604090819020905161340e9084908490614d10565b9081526040519081900360200190205460ff1615610b33578181604051639e5b81a760e01b8152600401611b9b929190614f26565b5f806134556080850160608601614e76565b600181111561346657613466614e8f565b036134b8576001545f546134b59133916001600160a01b0391821691166134906020880188614d88565b6134a06040890160208a01614d88565b6134b060608a0160408b01614d88565b613df2565b90505b60016134ca6080850160608601614e76565b60018111156134db576134db614e8f565b0361354e576001545f5461354b9133916001600160a01b039182169116856135066020890189614d88565b61351660408a0160208b01614d88565b61352660608b0160408c01614d88565b61353660a08c0160808d01614d88565b61354660c08d0160a08e01614d88565b613e90565b90505b92915050565b816014528060345263a9059cbb60601b5f5260205f604460105f875af18060015f51141661359457803d853b151710613594576390b8ec185f526004601cfd5b505f603452505050565b6135a6613f4a565b6008805460ff191690557f5db9ee0a495bf2e6ff9c91a7834c1ba4fdd244a5e8aa4e537bd38aeae4b073aa335b6040516001600160a01b039091168152602001612d30565b60405163150b7a028082523360208301528560601b60601c604083015283606083015260808083015282518060a08401528015613632578060c08401826020870160045afa505b60208360a48301601c86015f8a5af1613653573d15613653573d5f843e3d83fd5b508060e01b8251146112425763d1a57ed65f526004601cfd5b5f81815260186020908152604091829020825160e08101845281546001600160a01b031681526001820154928101929092526002810154928201929092526003820154606082015260049091015460ff808216158015608085015261010083048216151560a08501526201000090920416151560c0830152610b33576040516303f0bf7d60e21b8152336004820152602401611b9b565b60145415610b6a5760405160016260ce3d60e01b0319815260040160405180910390fd5b601754600160401b90046001600160401b031680158015906137495750804210155b1561213a5760405163e155e52d60e01b815242600482015260248101829052604401611b9b565b61377861264b565b6008805460ff191660011790557f62e78cea01bee320cd4e420270b5ea74000d11b0c9f74754ebdbfc544b05a2586135d33390565b60605f6137b983613f6d565b60010190505f816001600160401b038111156137d7576137d7615057565b6040519080825280601f01601f191660200182016040528015613801576020820181803683370190505b5090508181016020015b5f19016f181899199a1a9b1b9c1cb0b131b232b360811b600a86061a8153600a850494508461380b57509392505050565b601754600160881b900460ff1615610b6a576040516368754d4b60e11b815260040160405180910390fd5b6015545f81900361388b57604051634141447d60e11b815260040160405180910390fd5b808214610b335760405163028d05ab60e51b81526004810183905260248101829052604401611b9b565b60405181606052826040528360601b602c526323b872dd60601b600c5260205f6064601c5f895af18060015f51141661390057803d873b15171061390057637939f4245f526004601cfd5b505f60605260405250505050565b613916614044565b61391f81614060565b61392f60a0820160808301614d88565b600f80546001600160401b0392909216600160a01b0267ffffffffffffffff60a01b1990921691909117905561396b60c0820160a0830161506b565b600f805461ffff92909216600160e01b0261ffff60e01b1990921691909117905561399c60e0820160c0830161506b565b600f805461ffff92909216600160f01b026001600160f01b039092169190911790556139cf610100820160e0830161506b565b6010805461ffff191661ffff929092169190911790556139f76101208201610100830161506b565b6010805461ffff92909216620100000263ffff000019909216919091179055613a236020820182614984565b600980546001600160a01b0319166001600160a01b0392909216919091179055613a536040820160208301614984565b600a80546001600160a01b0319166001600160a01b0392909216919091179055613a836060820160408301614984565b600b80546001600160a01b0319166001600160a01b0392909216919091179055613ab36080820160608301614984565b600f80546001600160a01b0319166001600160a01b0392909216919091179055613ae161012082018261508c565b600391613aef919083615112565b50613afe61014082018261508c565b600491613b0c919083615112565b50613b1b61016082018261508c565b600591613b29919083615112565b5061213a6129eb565b6040516bffffffffffffffffffffffff19606088811b8216602084015287811b821660348401526048830187905233811b8216606884015230901b16607c8201524660908201525f90613b879060b001613292565b9050836001600160a01b0316613bd484848080601f0160208091040260200160405190810160405280939291908181526020018383808284375f920191909152508693925050613dca9050565b6001600160a01b031614611f44578282604051633dd7420b60e11b8152600401611b9b929190614f26565b601754600160901b900460ff1615610b6a5760405163a4d5021560e01b8152426004820152602401611b9b565b5f600380015f8154613c3d906151cb565b90915550506006546001600160a01b0382165f9081526007602052604090208190556114808282614196565b60408051610160810182526011546001600160a01b031681526012546020820152601354918101919091526014546060820152601554608082015260165460a082018190526017546001600160401b0380821660c0850152600160401b82041660e084015260ff600160801b820481161515610100850152600160881b820481161515610120850152600160901b90910416151561014083015215613d215760405163c2820ca760e01b815260040160405180910390fd5b80606001515f0361213a57604051635c84879d60e01b815260040160405180910390fd5b601754600160801b900460ff16610b6a5760405163289f971560e01b815260040160405180910390fd5b6001600160a01b0381165f90815260076020526040902054613d90816141f6565b506001600160a01b03165f90815260076020526040812055565b613db4815f614244565b610b238383836142c6565b610b23816001614244565b5f5f5f5f613dd886866142d2565b925092509250613de8828261431b565b5090949350505050565b604051632331871f60e01b81526001600160a01b03878116600483015286811660248301526001600160401b0380861660448401528085166064840152831660848301525f9190861690632331871f9060a4016020604051808303815f875af1158015613e61573d5f5f3e3d5ffd5b505050506040513d601f19601f82011682018060405250810190613e859190614e4d565b979650505050505050565b60405163478a83a160e01b81526001600160a01b038a81166004830152898116602483015287811660448301526001600160401b038088166064840152808716608484015280861660a484015280851660c4840152831660e48301525f919089169063478a83a190610104016020604051808303815f875af1158015613f18573d5f5f3e3d5ffd5b505050506040513d601f19601f82011682018060405250810190613f3c9190614e4d565b9a9950505050505050505050565b60085460ff16610b6a57604051638dfc202b60e01b815260040160405180910390fd5b5f8072184f03e93ff9f4daa797ed6e38ed64bf6a1f0160401b8310613fab5772184f03e93ff9f4daa797ed6e38ed64bf6a1f0160401b830492506040015b6d04ee2d6d415b85acef81000000008310613fd7576d04ee2d6d415b85acef8100000000830492506020015b662386f26fc100008310613ff557662386f26fc10000830492506010015b6305f5e100831061400d576305f5e100830492506008015b612710831061402157612710830492506004015b60648310614033576064830492506002015b600a831061354e5760010192915050565b63409feecd19805460011661213a5763d7e6bcf85f526004601cfd5b5f61406e6020830183614984565b6001600160a01b0316148061409a57505f61408f6040830160208401614984565b6001600160a01b0316145b806140bc57505f6140b16060830160408401614984565b6001600160a01b0316145b156140da5760405163b840f60b60e01b815260040160405180910390fd5b6140ea60a0820160808301614d88565b6001600160401b0316158061410c575061410861012082018261508c565b1590505b80614124575061412061014082018261508c565b1590505b8061413c575061413861016082018261508c565b1590505b1561415a57604051631e44f25360e01b815260040160405180910390fd5b6212750061416e60a0830160808401614d88565b6001600160401b0316111561213a57604051633118917360e11b815260040160405180910390fd5b6141a082826143d3565b5f8181526002602052604090819020805460ff19166001179055517f032bc66be43dbccb7487781d168eb7bda224628a3b2c3388bdf69b532a3a1611906141ea9083815260200190565b60405180910390a15050565b5f818152600260205260409020805460ff191690556142148161446e565b6040518181527ff27b6ce5b2f5e68ddb2fd95a8a909d4ecf1daaac270935fff052feacb24f18429060200161136e565b5f828152600260205260409020805460ff19168215801591909117909155614296576040518281527f032bc66be43dbccb7487781d168eb7bda224628a3b2c3388bdf69b532a3a1611906020016141ea565b6040518281527ff27b6ce5b2f5e68ddb2fd95a8a909d4ecf1daaac270935fff052feacb24f1842906020016141ea565b610b235f848484614478565b5f5f5f8351604103614309576020840151604085015160608601515f1a6142fb88828585614577565b955095509550505050614314565b505081515f91506002905b9250925092565b5f82600381111561432e5761432e614e8f565b03614337575050565b600182600381111561434b5761434b614e8f565b036143695760405163f645eedf60e01b815260040160405180910390fd5b600282600381111561437d5761437d614e8f565b0361439e5760405163fce698f760e01b815260048101829052602401611b9b565b60038260038111156143b2576143b2614e8f565b03610b33576040516335e2f38360e21b815260048101829052602401611b9b565b6143de5f8383612d3a565b8160601b60601c9150805f52673ec412a9852d173d60c11b601c5260205f208101810180548060601b156144195763c991cbb15f526004601cfd5b831790555f829052601c600c20805460010163ffffffff8116840261444d5767ea553b3401336cea841560021b526004601cfd5b905580825f5f5160206151e45f395f51905f528138a4610b335f8383612da1565b61213a5f8261463f565b614483838383612d3a565b5f8181526001600160a01b03948516673ec412a9852d173d60c11b8117601c5260209091208201820180549195948516949384169382169182861483026144d95767ceea21b6a1148100831560021b526004601cfd5b855f528160010154925082871486881417871517614508576030600c205461450857634b6e7f185f526004601cfd5b8215614515575f82600101555b85851818905550601c600c81812080545f190190555f84905220805460010163ffffffff811684026145565767ea553b3401336cea841560021b526004601cfd5b90558082845f5160206151e45f395f51905f525f38a4612562838383612da1565b5f80807f7fffffffffffffffffffffffffffffff5d576e7357a4501ddfe92f46681b20a08411156145b057505f91506003905082614635565b604080515f808252602082018084528a905260ff891692820192909252606081018790526080810186905260019060a0016020604051602081039080840390855afa158015614601573d5f5f3e3d5ffd5b5050604051601f1901519150506001600160a01b03811661462c57505f925060019150829050614635565b92505f91508190505b9450945094915050565b5f61464982611449565b9050614656815f84612d3a565b505f8181526001600160a01b03928316673ec412a9852d173d60c11b8117601c5260209091208201820180549193821691826146995763ceea21b65f526004601cfd5b825f528160010154808614848714178615176146c6576030600c20546146c657634b6e7f185f526004601cfd5b80156146d3575f83600101555b5082189055601c600c2080545f19019055815f825f5160206151e45f395f51905f528238a4610b23815f84612da1565b5f60208284031215614713575f5ffd5b81356001600160e01b031981168114611c7a575f5ffd5b5f81518084528060208401602086015e5f602082860101526020601f19601f83011685010191505092915050565b602081525f61354b602083018461472a565b5f6020828403121561477a575f5ffd5b5035919050565b6001600160a01b038116811461213a575f5ffd5b5f5f5f606084860312156147a7575f5ffd5b83356147b281614781565b925060208401356147c281614781565b929592945050506040919091013590565b5f5f604083850312156147e4575f5ffd5b82356147ef81614781565b946020939093013593505050565b5f5f83601f84011261480d575f5ffd5b5081356001600160401b03811115614823575f5ffd5b60208301915083602082850101111561483a575f5ffd5b9250929050565b5f5f5f5f5f5f5f878903610160811215614859575f5ffd5b883597506020890135965060e0603f1982011215614875575f5ffd5b506040880194506101208801356001600160401b03811115614895575f5ffd5b6148a18a828b016147fd565b9095509350506101408801356001600160401b038111156148c0575f5ffd5b6148cc8a828b016147fd565b989b979a50959850939692959293505050565b608081525f6148f1608083018761472a565b8281036020840152614903818761472a565b90508281036040840152614917818661472a565b91505082606083015295945050505050565b5f5f5f5f5f6080868803121561493d575f5ffd5b85359450602086013593506040860135925060608601356001600160401b03811115614967575f5ffd5b614973888289016147fd565b969995985093965092949392505050565b5f60208284031215614994575f5ffd5b8135611c7a81614781565b81516001600160a01b03168152610180810160208301516149cb60208401826001600160a01b03169052565b5060408301516149e660408401826001600160a01b03169052565b506060830151614a0160608401826001600160a01b03169052565b506080830151614a1c60808401826001600160a01b03169052565b5060a0830151614a3760a08401826001600160a01b03169052565b5060c0830151614a5260c08401826001600160a01b03169052565b5060e0830151614a6d60e08401826001600160401b03169052565b50610100830151614a8561010084018261ffff169052565b50610120830151614a9d61012084018261ffff169052565b50610140830151614ab561014084018261ffff169052565b50610160830151614acd61016084018261ffff169052565b5092915050565b5f5f60408385031215614ae5575f5ffd5b8235614af081614781565b915060208301358015158114614b04575f5ffd5b809150509250929050565b5f5f5f60608486031215614b21575f5ffd5b8335614b2c81614781565b95602085013595506040909401359392505050565b5f5f5f5f5f60808688031215614b55575f5ffd5b8535614b6081614781565b94506020860135614b7081614781565b93506040860135925060608601356001600160401b03811115614967575f5ffd5b5f5f5f60608486031215614ba3575f5ffd5b505081359360208301359350604090920135919050565b5f60208284031215614bca575f5ffd5b81356001600160401b03811115614bdf575f5ffd5b82016101808185031215611c7a575f5ffd5b5f5f60408385031215614c02575f5ffd5b8235614c0d81614781565b91506020830135614b0481614781565b81516001600160a01b0316815261016081016020830151602083015260408301516040830152606083015160608301526080830151608083015260a083015160a083015260c0830151614c7b60c08401826001600160401b03169052565b5060e0830151614c9660e08401826001600160401b03169052565b50610100830151614cac61010084018215159052565b50610120830151614cc261012084018215159052565b50610140830151614acd61014084018215159052565b600181811c90821680614cec57607f821691505b602082108103614d0a57634e487b7160e01b5f52602260045260245ffd5b50919050565b818382375f9101908152919050565b634e487b7160e01b5f52601160045260245ffd5b808202811582820484141761354e5761354e614d1f565b5f82614d6457634e487b7160e01b5f52601260045260245ffd5b500490565b6001600160401b038116811461213a575f5ffd5b803561148081614d69565b5f60208284031215614d98575f5ffd5b8135611c7a81614d69565b8181038181111561354e5761354e614d1f565b5f60208284031215614dc6575f5ffd5b8151611c7a81614d69565b5f60208284031215614de1575f5ffd5b5051919050565b5f81518060208401855e5f93019283525090919050565b5f614e13614e0d8386614de8565b84614de8565b949350505050565b8082018082111561354e5761354e614d1f565b6001600160401b03818116838216019081111561354e5761354e614d1f565b5f60208284031215614e5d575f5ffd5b8151611c7a81614781565b803560028110611480575f5ffd5b5f60208284031215614e86575f5ffd5b61354b82614e68565b634e487b7160e01b5f52602160045260245ffd5b6001600160401b038181168382160290811690818114614acd57614acd614d1f565b6bffffffffffffffffffffffff198660601b1681526bffffffffffffffffffffffff198560601b1660148201528360288201528260488201525f60038310614f0f57614f0f614e8f565b5060f89190911b6068820152606901949350505050565b60208152816020820152818360408301375f818301604090810191909152601f909201601f19160101919050565b60028110614f6457614f64614e8f565b9052565b6001600160a01b03868116825285166020820152604081018490526060810183905261016081018235614f9a81614d69565b6001600160401b031660808301526020830135614fb681614d69565b6001600160401b031660a08301526040830135614fd281614d69565b6001600160401b031660c0830152614fec60608401614e68565b614ff960e0840182614f54565b5061500660808401614d7d565b6001600160401b031661010083015261502160a08401614d7d565b6001600160401b031661012083015261503c60c08401614d7d565b6001600160401b038116610140840152509695505050505050565b634e487b7160e01b5f52604160045260245ffd5b5f6020828403121561507b575f5ffd5b813561ffff81168114611c7a575f5ffd5b5f5f8335601e198436030181126150a1575f5ffd5b8301803591506001600160401b038211156150ba575f5ffd5b60200191503681900382131561483a575f5ffd5b601f821115610b2357805f5260205f20601f840160051c810160208510156150f35750805b601f840160051c820191505b81811015611b13575f81556001016150ff565b6001600160401b0383111561512957615129615057565b61513d836151378354614cd8565b836150ce565b5f601f84116001811461516e575f85156151575750838201355b5f19600387901b1c1916600186901b178355611b13565b5f83815260208120601f198716915b8281101561519d578685013582556020948501946001909201910161517d565b50868210156151b9575f1960f88860031b161c19848701351681555b505060018560011b0183555050505050565b5f600182016151dc576151dc614d1f565b506001019056feddf252ad1be2c89b69c2b068fc378daa952ba7f163c4a11628f55a4df523b3efa26469706673582212202e45c998df9946250e53fdeb4595fad5d38b1f636b454b1f846bc8757640d49764736f6c634300081e0033",
			"opcodes": "PUSH1 0x80 PUSH1 0x40 MSTORE CALLVALUE DUP1 ISZERO PUSH1 0xE JUMPI PUSH0 PUSH0 REVERT JUMPDEST POP PUSH1 0x8 DUP1 SLOAD PUSH1 0xFF NOT AND SWAP1 SSTORE PUSH2 0x5239 DUP1 PUSH2 0x26 PUSH0 CODECOPY PUSH0 RETURN INVALID PUSH1 0x80 PUSH1 0x40 MSTORE PUSH1 0x4 CALLDATASIZE LT PUSH2 0x233 JUMPI PUSH0 CALLDATALOAD PUSH1 0xE0 SHR DUP1 PUSH4 0x8456CB59 GT PUSH2 0x129 JUMPI DUP1 PUSH4 0xD8A5BF9F GT PUSH2 0xA8 JUMPI DUP1 PUSH4 0xEDCC1C1E GT PUSH2 0x6D JUMPI DUP1 PUSH4 0xEDCC1C1E EQ PUSH2 0x88C JUMPI DUP1 PUSH4 0xEFBE1C1C EQ PUSH2 0x8AB JUMPI DUP1 PUSH4 0xF68C1D49 EQ PUSH2 0x8BF JUMPI DUP1 PUSH4 0xF71C2364 EQ PUSH2 0x8D3 JUMPI DUP1 PUSH4 0xF9020E33 EQ PUSH2 0x8E7 JUMPI PUSH0 PUSH0 REVERT JUMPDEST DUP1 PUSH4 0xD8A5BF9F EQ PUSH2 0x7E7 JUMPI DUP1 PUSH4 0xE5F67382 EQ PUSH2 0x806 JUMPI DUP1 PUSH4 0xE63EA408 EQ PUSH2 0x825 JUMPI DUP1 PUSH4 0xE985E9C5 EQ PUSH2 0x844 JUMPI DUP1 PUSH4 0xEA8A1AF0 EQ PUSH2 0x878 JUMPI PUSH0 PUSH0 REVERT JUMPDEST DUP1 PUSH4 0xA83C2063 GT PUSH2 0xEE JUMPI DUP1 PUSH4 0xA83C2063 EQ PUSH2 0x758 JUMPI DUP1 PUSH4 0xB45A3C0E EQ PUSH2 0x777 JUMPI DUP1 PUSH4 0xB88D4FDE EQ PUSH2 0x796 JUMPI DUP1 PUSH4 0xC87B56DD EQ PUSH2 0x7A9 JUMPI DUP1 PUSH4 0xCC6AE755 EQ PUSH2 0x7C8 JUMPI PUSH0 PUSH0 REVERT JUMPDEST DUP1 PUSH4 0x8456CB59 EQ PUSH2 0x566 JUMPI DUP1 PUSH4 0x84CBD9CD EQ PUSH2 0x57A JUMPI DUP1 PUSH4 0x90DBB806 EQ PUSH2 0x5F9 JUMPI DUP1 PUSH4 0x95D89B41 EQ PUSH2 0x725 JUMPI DUP1 PUSH4 0xA22CB465 EQ PUSH2 0x739 JUMPI PUSH0 PUSH0 REVERT JUMPDEST DUP1 PUSH4 0x3FDBDCD9 GT PUSH2 0x1B5 JUMPI DUP1 PUSH4 0x590E1AE3 GT PUSH2 0x17A JUMPI DUP1 PUSH4 0x590E1AE3 EQ PUSH2 0x457 JUMPI DUP1 PUSH4 0x5C975ABB EQ PUSH2 0x46B JUMPI DUP1 PUSH4 0x6352211E EQ PUSH2 0x482 JUMPI DUP1 PUSH4 0x699C2994 EQ PUSH2 0x4A1 JUMPI DUP1 PUSH4 0x70A08231 EQ PUSH2 0x539 JUMPI PUSH0 PUSH0 REVERT JUMPDEST DUP1 PUSH4 0x3FDBDCD9 EQ PUSH2 0x3CE JUMPI DUP1 PUSH4 0x42842E0E EQ PUSH2 0x3F2 JUMPI DUP1 PUSH4 0x4BD31FB1 EQ PUSH2 0x405 JUMPI DUP1 PUSH4 0x54DD1DA4 EQ PUSH2 0x424 JUMPI DUP1 PUSH4 0x5570FDBF EQ PUSH2 0x438 JUMPI PUSH0 PUSH0 REVERT JUMPDEST DUP1 PUSH4 0xA636D5B GT PUSH2 0x1FB JUMPI DUP1 PUSH4 0xA636D5B EQ PUSH2 0x31C JUMPI DUP1 PUSH4 0x23B872DD EQ PUSH2 0x330 JUMPI DUP1 PUSH4 0x37DC027D EQ PUSH2 0x343 JUMPI DUP1 PUSH4 0x3CCCEBC5 EQ PUSH2 0x362 JUMPI DUP1 PUSH4 0x3F4BA83A EQ PUSH2 0x3BA JUMPI PUSH0 PUSH0 REVERT JUMPDEST DUP1 PUSH4 0x1FFC9A7 EQ PUSH2 0x237 JUMPI DUP1 PUSH4 0x6FDDE03 EQ PUSH2 0x290 JUMPI DUP1 PUSH4 0x81812FC EQ PUSH2 0x2B1 JUMPI DUP1 PUSH4 0x8AF6E25 EQ PUSH2 0x2E8 JUMPI DUP1 PUSH4 0x95EA7B3 EQ PUSH2 0x309 JUMPI JUMPDEST PUSH0 PUSH0 REVERT JUMPDEST CALLVALUE DUP1 ISZERO PUSH2 0x242 JUMPI PUSH0 PUSH0 REVERT JUMPDEST POP PUSH2 0x27B PUSH2 0x251 CALLDATASIZE PUSH1 0x4 PUSH2 0x4703 JUMP JUMPDEST PUSH4 0x1FFC9A7 PUSH1 0xE0 SWAP2 SWAP1 SWAP2 SHR SWAP1 DUP2 EQ PUSH4 0x80AC58CD DUP3 EQ OR PUSH4 0x5B5E139F DUP3 EQ OR PUSH4 0xB45A3C0E SWAP1 SWAP2 EQ OR SWAP1 JUMP JUMPDEST PUSH1 0x40 MLOAD SWAP1 ISZERO ISZERO DUP2 MSTORE PUSH1 0x20 ADD JUMPDEST PUSH1 0x40 MLOAD DUP1 SWAP2 SUB SWAP1 RETURN JUMPDEST CALLVALUE DUP1 ISZERO PUSH2 0x29B JUMPI PUSH0 PUSH0 REVERT JUMPDEST POP PUSH2 0x2A4 PUSH2 0x9F7 JUMP JUMPDEST PUSH1 0x40 MLOAD PUSH2 0x287 SWAP2 SWAP1 PUSH2 0x4758 JUMP JUMPDEST CALLVALUE DUP1 ISZERO PUSH2 0x2BC JUMPI PUSH0 PUSH0 REVERT JUMPDEST POP PUSH2 0x2D0 PUSH2 0x2CB CALLDATASIZE PUSH1 0x4 PUSH2 0x476A JUMP JUMPDEST PUSH2 0xA89 JUMP JUMPDEST PUSH1 0x40 MLOAD PUSH1 0x1 PUSH1 0x1 PUSH1 0xA0 SHL SUB SWAP1 SWAP2 AND DUP2 MSTORE PUSH1 0x20 ADD PUSH2 0x287 JUMP JUMPDEST CALLVALUE DUP1 ISZERO PUSH2 0x2F3 JUMPI PUSH0 PUSH0 REVERT JUMPDEST POP PUSH2 0x307 PUSH2 0x302 CALLDATASIZE PUSH1 0x4 PUSH2 0x4795 JUMP JUMPDEST PUSH2 0xAC4 JUMP JUMPDEST STOP JUMPDEST PUSH2 0x307 PUSH2 0x317 CALLDATASIZE PUSH1 0x4 PUSH2 0x47D3 JUMP JUMPDEST PUSH2 0xB28 JUMP JUMPDEST CALLVALUE DUP1 ISZERO PUSH2 0x327 JUMPI PUSH0 PUSH0 REVERT JUMPDEST POP PUSH2 0x307 PUSH2 0xB37 JUMP JUMPDEST PUSH2 0x307 PUSH2 0x33E CALLDATASIZE PUSH1 0x4 PUSH2 0x4795 JUMP JUMPDEST PUSH2 0xB6C JUMP JUMPDEST CALLVALUE DUP1 ISZERO PUSH2 0x34E JUMPI PUSH0 PUSH0 REVERT JUMPDEST POP PUSH2 0x307 PUSH2 0x35D CALLDATASIZE PUSH1 0x4 PUSH2 0x4841 JUMP JUMPDEST PUSH2 0xC63 JUMP JUMPDEST CALLVALUE DUP1 ISZERO PUSH2 0x36D JUMPI PUSH0 PUSH0 REVERT JUMPDEST POP PUSH1 0x40 DUP1 MLOAD DUP1 DUP3 ADD DUP3 MSTORE PUSH0 DUP1 DUP3 MSTORE PUSH1 0x20 SWAP2 DUP3 ADD DUP2 SWAP1 MSTORE DUP3 MLOAD DUP1 DUP5 ADD DUP5 MSTORE SWAP1 SLOAD PUSH1 0x1 PUSH1 0x1 PUSH1 0xA0 SHL SUB SWAP1 DUP2 AND DUP1 DUP4 MSTORE PUSH1 0x1 SLOAD DUP3 AND SWAP3 DUP5 ADD SWAP3 DUP4 MSTORE DUP5 MLOAD SWAP1 DUP2 MSTORE SWAP2 MLOAD AND SWAP2 DUP2 ADD SWAP2 SWAP1 SWAP2 MSTORE ADD PUSH2 0x287 JUMP JUMPDEST CALLVALUE DUP1 ISZERO PUSH2 0x3C5 JUMPI PUSH0 PUSH0 REVERT JUMPDEST POP PUSH2 0x307 PUSH2 0xEEE JUMP JUMPDEST CALLVALUE DUP1 ISZERO PUSH2 0x3D9 JUMPI PUSH0 PUSH0 REVERT JUMPDEST POP PUSH2 0x3E2 PUSH2 0xF21 JUMP JUMPDEST PUSH1 0x40 MLOAD PUSH2 0x287 SWAP5 SWAP4 SWAP3 SWAP2 SWAP1 PUSH2 0x48DF JUMP JUMPDEST PUSH2 0x307 PUSH2 0x400 CALLDATASIZE PUSH1 0x4 PUSH2 0x4795 JUMP JUMPDEST PUSH2 0x10CF JUMP JUMPDEST CALLVALUE DUP1 ISZERO PUSH2 0x410 JUMPI PUSH0 PUSH0 REVERT JUMPDEST POP PUSH2 0x307 PUSH2 0x41F CALLDATASIZE PUSH1 0x4 PUSH2 0x4929 JUMP JUMPDEST PUSH2 0x10FB JUMP JUMPDEST CALLVALUE DUP1 ISZERO PUSH2 0x42F JUMPI PUSH0 PUSH0 REVERT JUMPDEST POP PUSH2 0x307 PUSH2 0x124A JUMP JUMPDEST CALLVALUE DUP1 ISZERO PUSH2 0x443 JUMPI PUSH0 PUSH0 REVERT JUMPDEST POP PUSH2 0x307 PUSH2 0x452 CALLDATASIZE PUSH1 0x4 PUSH2 0x476A JUMP JUMPDEST PUSH2 0x12F2 JUMP JUMPDEST CALLVALUE DUP1 ISZERO PUSH2 0x462 JUMPI PUSH0 PUSH0 REVERT JUMPDEST POP PUSH2 0x307 PUSH2 0x1379 JUMP JUMPDEST CALLVALUE DUP1 ISZERO PUSH2 0x476 JUMPI PUSH0 PUSH0 REVERT JUMPDEST POP PUSH1 0x8 SLOAD PUSH1 0xFF AND PUSH2 0x27B JUMP JUMPDEST CALLVALUE DUP1 ISZERO PUSH2 0x48D JUMPI PUSH0 PUSH0 REVERT JUMPDEST POP PUSH2 0x2D0 PUSH2 0x49C CALLDATASIZE PUSH1 0x4 PUSH2 0x476A JUMP JUMPDEST PUSH2 0x1449 JUMP JUMPDEST CALLVALUE DUP1 ISZERO PUSH2 0x4AC JUMPI PUSH0 PUSH0 REVERT JUMPDEST POP PUSH2 0x4C0 PUSH2 0x4BB CALLDATASIZE PUSH1 0x4 PUSH2 0x4984 JUMP JUMPDEST PUSH2 0x1485 JUMP JUMPDEST PUSH1 0x40 MLOAD PUSH2 0x287 SWAP2 SWAP1 PUSH0 PUSH1 0xE0 DUP3 ADD SWAP1 POP PUSH1 0x1 PUSH1 0x1 PUSH1 0x40 SHL SUB DUP4 MLOAD AND DUP3 MSTORE PUSH1 0x1 PUSH1 0x1 PUSH1 0x40 SHL SUB PUSH1 0x20 DUP5 ADD MLOAD AND PUSH1 0x20 DUP4 ADD MSTORE PUSH1 0x1 PUSH1 0x1 PUSH1 0x40 SHL SUB PUSH1 0x40 DUP5 ADD MLOAD AND PUSH1 0x40 DUP4 ADD MSTORE PUSH1 0x1 PUSH1 0x1 PUSH1 0x40 SHL SUB PUSH1 0x60 DUP5 ADD MLOAD AND PUSH1 0x60 DUP4 ADD MSTORE PUSH1 0x80 DUP4 ADD MLOAD PUSH1 0x80 DUP4 ADD MSTORE PUSH1 0xA0 DUP4 ADD MLOAD PUSH1 0xA0 DUP4 ADD MSTORE PUSH1 0xC0 DUP4 ADD MLOAD PUSH1 0xC0 DUP4 ADD MSTORE SWAP3 SWAP2 POP POP JUMP JUMPDEST CALLVALUE DUP1 ISZERO PUSH2 0x544 JUMPI PUSH0 PUSH0 REVERT JUMPDEST POP PUSH2 0x558 PUSH2 0x553 CALLDATASIZE PUSH1 0x4 PUSH2 0x4984 JUMP JUMPDEST PUSH2 0x1826 JUMP JUMPDEST PUSH1 0x40 MLOAD SWAP1 DUP2 MSTORE PUSH1 0x20 ADD PUSH2 0x287 JUMP JUMPDEST CALLVALUE DUP1 ISZERO PUSH2 0x571 JUMPI PUSH0 PUSH0 REVERT JUMPDEST POP PUSH2 0x307 PUSH2 0x185E JUMP JUMPDEST CALLVALUE DUP1 ISZERO PUSH2 0x585 JUMPI PUSH0 PUSH0 REVERT JUMPDEST POP PUSH2 0x599 PUSH2 0x594 CALLDATASIZE PUSH1 0x4 PUSH2 0x4984 JUMP JUMPDEST PUSH2 0x1891 JUMP JUMPDEST PUSH1 0x40 MLOAD PUSH2 0x287 SWAP2 SWAP1 DUP2 MLOAD PUSH1 0x1 PUSH1 0x1 PUSH1 0xA0 SHL SUB AND DUP2 MSTORE PUSH1 0x20 DUP1 DUP4 ADD MLOAD SWAP1 DUP3 ADD MSTORE PUSH1 0x40 DUP1 DUP4 ADD MLOAD SWAP1 DUP3 ADD MSTORE PUSH1 0x60 DUP1 DUP4 ADD MLOAD SWAP1 DUP3 ADD MSTORE PUSH1 0x80 DUP1 DUP4 ADD MLOAD ISZERO ISZERO SWAP1 DUP3 ADD MSTORE PUSH1 0xA0 DUP3 DUP2 ADD MLOAD ISZERO ISZERO SWAP1 DUP3 ADD MSTORE PUSH1 0xC0 SWAP2 DUP3 ADD MLOAD ISZERO ISZERO SWAP2 DUP2 ADD SWAP2 SWAP1 SWAP2 MSTORE PUSH1 0xE0 ADD SWAP1 JUMP JUMPDEST CALLVALUE DUP1 ISZERO PUSH2 0x604 JUMPI PUSH0 PUSH0 REVERT JUMPDEST POP PUSH2 0x718 PUSH1 0x40 DUP1 MLOAD PUSH2 0x180 DUP2 ADD DUP3 MSTORE PUSH0 DUP1 DUP3 MSTORE PUSH1 0x20 DUP3 ADD DUP2 SWAP1 MSTORE SWAP2 DUP2 ADD DUP3 SWAP1 MSTORE PUSH1 0x60 DUP2 ADD DUP3 SWAP1 MSTORE PUSH1 0x80 DUP2 ADD DUP3 SWAP1 MSTORE PUSH1 0xA0 DUP2 ADD DUP3 SWAP1 MSTORE PUSH1 0xC0 DUP2 ADD DUP3 SWAP1 MSTORE PUSH1 0xE0 DUP2 ADD DUP3 SWAP1 MSTORE PUSH2 0x100 DUP2 ADD DUP3 SWAP1 MSTORE PUSH2 0x120 DUP2 ADD DUP3 SWAP1 MSTORE PUSH2 0x140 DUP2 ADD DUP3 SWAP1 MSTORE PUSH2 0x160 DUP2 ADD SWAP2 SWAP1 SWAP2 MSTORE POP PUSH1 0x40 DUP1 MLOAD PUSH2 0x180 DUP2 ADD DUP3 MSTORE PUSH1 0x9 SLOAD PUSH1 0x1 PUSH1 0x1 PUSH1 0xA0 SHL SUB SWAP1 DUP2 AND DUP3 MSTORE PUSH1 0xA SLOAD DUP2 AND PUSH1 0x20 DUP4 ADD MSTORE PUSH1 0xB SLOAD DUP2 AND SWAP3 DUP3 ADD SWAP3 SWAP1 SWAP3 MSTORE PUSH1 0xC SLOAD DUP3 AND PUSH1 0x60 DUP3 ADD MSTORE PUSH1 0xD SLOAD DUP3 AND PUSH1 0x80 DUP3 ADD MSTORE PUSH1 0xE SLOAD DUP3 AND PUSH1 0xA0 DUP3 ADD MSTORE PUSH1 0xF SLOAD SWAP2 DUP3 AND PUSH1 0xC0 DUP3 ADD MSTORE PUSH1 0x1 PUSH1 0x1 PUSH1 0x40 SHL SUB PUSH1 0x1 PUSH1 0xA0 SHL DUP4 DIV AND PUSH1 0xE0 DUP3 ADD MSTORE PUSH2 0xFFFF PUSH1 0x1 PUSH1 0xE0 SHL DUP4 DIV DUP2 AND PUSH2 0x100 DUP4 ADD MSTORE PUSH1 0x1 PUSH1 0xF0 SHL SWAP1 SWAP3 DIV DUP3 AND PUSH2 0x120 DUP3 ADD MSTORE PUSH1 0x10 SLOAD DUP1 DUP4 AND PUSH2 0x140 DUP4 ADD MSTORE PUSH3 0x10000 SWAP1 DIV SWAP1 SWAP2 AND PUSH2 0x160 DUP3 ADD MSTORE SWAP1 JUMP JUMPDEST PUSH1 0x40 MLOAD PUSH2 0x287 SWAP2 SWAP1 PUSH2 0x499F JUMP JUMPDEST CALLVALUE DUP1 ISZERO PUSH2 0x730 JUMPI PUSH0 PUSH0 REVERT JUMPDEST POP PUSH2 0x2A4 PUSH2 0x195A JUMP JUMPDEST CALLVALUE DUP1 ISZERO PUSH2 0x744 JUMPI PUSH0 PUSH0 REVERT JUMPDEST POP PUSH2 0x307 PUSH2 0x753 CALLDATASIZE PUSH1 0x4 PUSH2 0x4AD4 JUMP JUMPDEST PUSH2 0x196C JUMP JUMPDEST CALLVALUE DUP1 ISZERO PUSH2 0x763 JUMPI PUSH0 PUSH0 REVERT JUMPDEST POP PUSH2 0x307 PUSH2 0x772 CALLDATASIZE PUSH1 0x4 PUSH2 0x4B0F JUMP JUMPDEST PUSH2 0x19BF JUMP JUMPDEST CALLVALUE DUP1 ISZERO PUSH2 0x782 JUMPI PUSH0 PUSH0 REVERT JUMPDEST POP PUSH2 0x27B PUSH2 0x791 CALLDATASIZE PUSH1 0x4 PUSH2 0x476A JUMP JUMPDEST PUSH2 0x1A6F JUMP JUMPDEST PUSH2 0x307 PUSH2 0x7A4 CALLDATASIZE PUSH1 0x4 PUSH2 0x4B41 JUMP JUMPDEST PUSH2 0x1AC0 JUMP JUMPDEST CALLVALUE DUP1 ISZERO PUSH2 0x7B4 JUMPI PUSH0 PUSH0 REVERT JUMPDEST POP PUSH2 0x2A4 PUSH2 0x7C3 CALLDATASIZE PUSH1 0x4 PUSH2 0x476A JUMP JUMPDEST PUSH2 0x1B1A JUMP JUMPDEST CALLVALUE DUP1 ISZERO PUSH2 0x7D3 JUMPI PUSH0 PUSH0 REVERT JUMPDEST POP PUSH2 0x307 PUSH2 0x7E2 CALLDATASIZE PUSH1 0x4 PUSH2 0x4B91 JUMP JUMPDEST PUSH2 0x1C81 JUMP JUMPDEST CALLVALUE DUP1 ISZERO PUSH2 0x7F2 JUMPI PUSH0 PUSH0 REVERT JUMPDEST POP PUSH2 0x307 PUSH2 0x801 CALLDATASIZE PUSH1 0x4 PUSH2 0x4BBA JUMP JUMPDEST PUSH2 0x1F4D JUMP JUMPDEST CALLVALUE DUP1 ISZERO PUSH2 0x811 JUMPI PUSH0 PUSH0 REVERT JUMPDEST POP PUSH2 0x307 PUSH2 0x820 CALLDATASIZE PUSH1 0x4 PUSH2 0x4B41 JUMP JUMPDEST PUSH2 0x1FC5 JUMP JUMPDEST CALLVALUE DUP1 ISZERO PUSH2 0x830 JUMPI PUSH0 PUSH0 REVERT JUMPDEST POP PUSH2 0x307 PUSH2 0x83F CALLDATASIZE PUSH1 0x4 PUSH2 0x4795 JUMP JUMPDEST PUSH2 0x2016 JUMP JUMPDEST CALLVALUE DUP1 ISZERO PUSH2 0x84F JUMPI PUSH0 PUSH0 REVERT JUMPDEST POP PUSH2 0x27B PUSH2 0x85E CALLDATASIZE PUSH1 0x4 PUSH2 0x4BF1 JUMP JUMPDEST PUSH1 0x1C MSTORE PUSH8 0xA5A2E7A00000000 PUSH1 0x8 MSTORE PUSH0 MSTORE PUSH1 0x30 PUSH1 0xC KECCAK256 SLOAD SWAP1 JUMP JUMPDEST CALLVALUE DUP1 ISZERO PUSH2 0x883 JUMPI PUSH0 PUSH0 REVERT JUMPDEST POP PUSH2 0x307 PUSH2 0x2097 JUMP JUMPDEST CALLVALUE DUP1 ISZERO PUSH2 0x897 JUMPI PUSH0 PUSH0 REVERT JUMPDEST POP PUSH2 0x307 PUSH2 0x8A6 CALLDATASIZE PUSH1 0x4 PUSH2 0x4929 JUMP JUMPDEST PUSH2 0x213D JUMP JUMPDEST CALLVALUE DUP1 ISZERO PUSH2 0x8B6 JUMPI PUSH0 PUSH0 REVERT JUMPDEST POP PUSH2 0x307 PUSH2 0x2290 JUMP JUMPDEST CALLVALUE DUP1 ISZERO PUSH2 0x8CA JUMPI PUSH0 PUSH0 REVERT JUMPDEST POP PUSH2 0x307 PUSH2 0x2392 JUMP JUMPDEST CALLVALUE DUP1 ISZERO PUSH2 0x8DE JUMPI PUSH0 PUSH0 REVERT JUMPDEST POP PUSH2 0x307 PUSH2 0x2568 JUMP JUMPDEST CALLVALUE DUP1 ISZERO PUSH2 0x8F2 JUMPI PUSH0 PUSH0 REVERT JUMPDEST POP PUSH2 0x9EA PUSH1 0x40 DUP1 MLOAD PUSH2 0x160 DUP2 ADD DUP3 MSTORE PUSH0 DUP1 DUP3 MSTORE PUSH1 0x20 DUP3 ADD DUP2 SWAP1 MSTORE SWAP2 DUP2 ADD DUP3 SWAP1 MSTORE PUSH1 0x60 DUP2 ADD DUP3 SWAP1 MSTORE PUSH1 0x80 DUP2 ADD DUP3 SWAP1 MSTORE PUSH1 0xA0 DUP2 ADD DUP3 SWAP1 MSTORE PUSH1 0xC0 DUP2 ADD DUP3 SWAP1 MSTORE PUSH1 0xE0 DUP2 ADD DUP3 SWAP1 MSTORE PUSH2 0x100 DUP2 ADD DUP3 SWAP1 MSTORE PUSH2 0x120 DUP2 ADD DUP3 SWAP1 MSTORE PUSH2 0x140 DUP2 ADD SWAP2 SWAP1 SWAP2 MSTORE POP PUSH1 0x40 DUP1 MLOAD PUSH2 0x160 DUP2 ADD DUP3 MSTORE PUSH1 0x11 SLOAD PUSH1 0x1 PUSH1 0x1 PUSH1 0xA0 SHL SUB AND DUP2 MSTORE PUSH1 0x12 SLOAD PUSH1 0x20 DUP3 ADD MSTORE PUSH1 0x13 SLOAD SWAP2 DUP2 ADD SWAP2 SWAP1 SWAP2 MSTORE PUSH1 0x14 SLOAD PUSH1 0x60 DUP3 ADD MSTORE PUSH1 0x15 SLOAD PUSH1 0x80 DUP3 ADD MSTORE PUSH1 0x16 SLOAD PUSH1 0xA0 DUP3 ADD MSTORE PUSH1 0x17 SLOAD PUSH1 0x1 PUSH1 0x1 PUSH1 0x40 SHL SUB DUP1 DUP3 AND PUSH1 0xC0 DUP5 ADD MSTORE PUSH1 0x1 PUSH1 0x40 SHL DUP3 DIV AND PUSH1 0xE0 DUP4 ADD MSTORE PUSH1 0xFF PUSH1 0x1 PUSH1 0x80 SHL DUP3 DIV DUP2 AND ISZERO ISZERO PUSH2 0x100 DUP5 ADD MSTORE PUSH1 0x1 PUSH1 0x88 SHL DUP3 DIV DUP2 AND ISZERO ISZERO PUSH2 0x120 DUP5 ADD MSTORE PUSH1 0x1 PUSH1 0x90 SHL SWAP1 SWAP2 DIV AND ISZERO ISZERO PUSH2 0x140 DUP3 ADD MSTORE SWAP1 JUMP JUMPDEST PUSH1 0x40 MLOAD PUSH2 0x287 SWAP2 SWAP1 PUSH2 0x4C1D JUMP JUMPDEST PUSH1 0x60 PUSH1 0x3 PUSH0 ADD DUP1 SLOAD PUSH2 0xA08 SWAP1 PUSH2 0x4CD8 JUMP JUMPDEST DUP1 PUSH1 0x1F ADD PUSH1 0x20 DUP1 SWAP2 DIV MUL PUSH1 0x20 ADD PUSH1 0x40 MLOAD SWAP1 DUP2 ADD PUSH1 0x40 MSTORE DUP1 SWAP3 SWAP2 SWAP1 DUP2 DUP2 MSTORE PUSH1 0x20 ADD DUP3 DUP1 SLOAD PUSH2 0xA34 SWAP1 PUSH2 0x4CD8 JUMP JUMPDEST DUP1 ISZERO PUSH2 0xA7F JUMPI DUP1 PUSH1 0x1F LT PUSH2 0xA56 JUMPI PUSH2 0x100 DUP1 DUP4 SLOAD DIV MUL DUP4 MSTORE SWAP2 PUSH1 0x20 ADD SWAP2 PUSH2 0xA7F JUMP JUMPDEST DUP3 ADD SWAP2 SWAP1 PUSH0 MSTORE PUSH1 0x20 PUSH0 KECCAK256 SWAP1 JUMPDEST DUP2 SLOAD DUP2 MSTORE SWAP1 PUSH1 0x1 ADD SWAP1 PUSH1 0x20 ADD DUP1 DUP4 GT PUSH2 0xA62 JUMPI DUP3 SWAP1 SUB PUSH1 0x1F AND DUP3 ADD SWAP2 JUMPDEST POP POP POP POP POP SWAP1 POP SWAP1 JUMP JUMPDEST PUSH0 DUP2 PUSH0 MSTORE PUSH8 0x3EC412A9852D173D PUSH1 0xC1 SHL PUSH1 0x1C MSTORE PUSH1 0x20 PUSH0 KECCAK256 DUP3 ADD DUP3 ADD DUP1 SLOAD PUSH1 0x60 SHL PUSH2 0xABA JUMPI PUSH4 0xCEEA21B6 PUSH0 MSTORE PUSH1 0x4 PUSH1 0x1C REVERT JUMPDEST PUSH1 0x1 ADD SLOAD SWAP3 SWAP2 POP POP JUMP JUMPDEST PUSH1 0xC SLOAD PUSH1 0x1 PUSH1 0x1 PUSH1 0xA0 SHL SUB AND CALLER EQ PUSH2 0xAEF JUMPI PUSH1 0x40 MLOAD PUSH4 0x1634F9A3 PUSH1 0xE3 SHL DUP2 MSTORE PUSH1 0x4 ADD PUSH1 0x40 MLOAD DUP1 SWAP2 SUB SWAP1 REVERT JUMPDEST PUSH2 0xAF7 PUSH2 0x264B JUMP JUMPDEST PUSH2 0xAFF PUSH2 0x266F JUMP JUMPDEST PUSH2 0xB07 PUSH2 0x269A JUMP JUMPDEST PUSH2 0xB0F PUSH2 0x26E2 JUMP JUMPDEST PUSH2 0xB18 DUP2 PUSH2 0x2703 JUMP JUMPDEST PUSH2 0xB23 DUP4 DUP4 DUP4 PUSH2 0x27B6 JUMP JUMPDEST POP POP POP JUMP JUMPDEST PUSH2 0xB33 CALLER DUP4 DUP4 PUSH2 0x2951 JUMP JUMPDEST POP POP JUMP JUMPDEST PUSH1 0xC SLOAD PUSH1 0x1 PUSH1 0x1 PUSH1 0xA0 SHL SUB AND CALLER EQ PUSH2 0xB62 JUMPI PUSH1 0x40 MLOAD PUSH4 0x1634F9A3 PUSH1 0xE3 SHL DUP2 MSTORE PUSH1 0x4 ADD PUSH1 0x40 MLOAD DUP1 SWAP2 SUB SWAP1 REVERT JUMPDEST PUSH2 0xB6A PUSH2 0x29EB JUMP JUMPDEST JUMP JUMPDEST PUSH2 0xB77 DUP4 DUP4 DUP4 PUSH2 0x2D3A JUMP JUMPDEST PUSH0 DUP2 DUP2 MSTORE PUSH8 0x3EC412A9852D173D PUSH1 0xC1 SHL CALLER OR PUSH1 0x1C MSTORE PUSH1 0x20 SWAP1 KECCAK256 DUP2 ADD DUP2 ADD DUP1 SLOAD PUSH1 0x1 PUSH1 0x1 PUSH1 0xA0 SHL SUB SWAP5 DUP6 AND SWAP5 SWAP4 DUP5 AND SWAP4 DUP2 AND SWAP2 SWAP1 DUP3 DUP7 EQ DUP4 MUL PUSH2 0xBC8 JUMPI PUSH8 0xCEEA21B6A1148100 DUP4 ISZERO PUSH1 0x2 SHL MSTORE PUSH1 0x4 PUSH1 0x1C REVERT JUMPDEST DUP6 PUSH0 MSTORE DUP2 PUSH1 0x1 ADD SLOAD SWAP3 POP DUP3 CALLER EQ DUP7 CALLER EQ OR PUSH2 0xBF4 JUMPI PUSH1 0x30 PUSH1 0xC KECCAK256 SLOAD PUSH2 0xBF4 JUMPI PUSH4 0x4B6E7F18 PUSH0 MSTORE PUSH1 0x4 PUSH1 0x1C REVERT JUMPDEST DUP3 ISZERO PUSH2 0xC01 JUMPI PUSH0 DUP3 PUSH1 0x1 ADD SSTORE JUMPDEST DUP6 DUP6 XOR XOR SWAP1 SSTORE POP PUSH1 0x1C PUSH1 0xC DUP2 DUP2 KECCAK256 DUP1 SLOAD PUSH0 NOT ADD SWAP1 SSTORE PUSH0 DUP5 SWAP1 MSTORE KECCAK256 DUP1 SLOAD PUSH1 0x1 ADD PUSH4 0xFFFFFFFF DUP2 AND DUP5 MUL PUSH2 0xC42 JUMPI PUSH8 0xEA553B3401336CEA DUP5 ISZERO PUSH1 0x2 SHL MSTORE PUSH1 0x4 PUSH1 0x1C REVERT JUMPDEST SWAP1 SSTORE DUP1 DUP3 DUP5 PUSH0 MLOAD PUSH1 0x20 PUSH2 0x51E4 PUSH0 CODECOPY PUSH0 MLOAD SWAP1 PUSH0 MSTORE PUSH0 CODESIZE LOG4 PUSH2 0xB23 DUP4 DUP4 DUP4 PUSH2 0x2DA1 JUMP JUMPDEST PUSH2 0xC6B PUSH2 0x264B JUMP JUMPDEST PUSH2 0xC73 PUSH2 0x266F JUMP JUMPDEST PUSH2 0xC7B PUSH2 0x269A JUMP JUMPDEST PUSH2 0xC83 PUSH2 0x2DF7 JUMP JUMPDEST PUSH0 PUSH2 0xC8D CALLER PUSH2 0x2E21 JUMP JUMPDEST SWAP1 POP PUSH2 0xC98 DUP2 PUSH2 0x2E3B JUMP JUMPDEST PUSH2 0xCA1 DUP2 PUSH2 0x2E5B JUMP JUMPDEST PUSH2 0xCAA DUP7 PUSH2 0x2E94 JUMP JUMPDEST PUSH2 0xCB3 DUP2 PUSH2 0x310A JUMP JUMPDEST PUSH2 0xCBE DUP9 DUP9 DUP4 PUSH2 0x31A1 JUMP JUMPDEST PUSH2 0xCCB DUP6 DUP6 DUP4 PUSH1 0x2 PUSH2 0x31D7 JUMP JUMPDEST PUSH2 0xCD7 DUP4 DUP4 DUP4 DUP10 PUSH2 0x3356 JUMP JUMPDEST PUSH2 0xCE1 DUP6 DUP6 PUSH2 0x33EF JUMP JUMPDEST PUSH0 DUP2 DUP2 MSTORE PUSH1 0x18 PUSH1 0x20 SWAP1 DUP2 MSTORE PUSH1 0x40 DUP1 DUP4 KECCAK256 CALLER DUP5 MSTORE PUSH1 0x19 SWAP1 SWAP3 MSTORE SWAP2 DUP3 SWAP1 KECCAK256 SWAP2 MLOAD SWAP1 SWAP2 PUSH1 0x1 SWAP2 PUSH2 0xD11 SWAP1 DUP10 SWAP1 DUP10 SWAP1 PUSH2 0x4D10 JUMP JUMPDEST SWAP1 DUP2 MSTORE PUSH1 0x40 DUP1 MLOAD PUSH1 0x20 SWAP3 DUP2 SWAP1 SUB DUP4 ADD DUP2 KECCAK256 DUP1 SLOAD PUSH1 0xFF NOT AND SWAP5 ISZERO ISZERO SWAP5 SWAP1 SWAP5 OR SWAP1 SWAP4 SSTORE PUSH1 0x4 DUP5 ADD DUP1 SLOAD PUSH3 0x10000 PUSH3 0xFF0000 NOT SWAP1 SWAP2 AND OR SWAP1 SSTORE PUSH2 0x160 DUP4 ADD DUP2 MSTORE PUSH1 0x11 SLOAD PUSH1 0x1 PUSH1 0x1 PUSH1 0xA0 SHL SUB AND DUP4 MSTORE PUSH1 0x12 SLOAD SWAP2 DUP4 ADD DUP3 SWAP1 MSTORE PUSH1 0x13 SLOAD SWAP1 DUP4 ADD MSTORE PUSH1 0x14 SLOAD PUSH1 0x60 DUP4 ADD MSTORE PUSH1 0x15 SLOAD PUSH1 0x80 DUP4 ADD MSTORE PUSH1 0x16 SLOAD PUSH1 0xA0 DUP4 ADD MSTORE PUSH1 0x17 SLOAD PUSH1 0x1 PUSH1 0x1 PUSH1 0x40 SHL SUB DUP1 DUP3 AND PUSH1 0xC0 DUP6 ADD MSTORE PUSH1 0x1 PUSH1 0x40 SHL DUP3 DIV AND PUSH1 0xE0 DUP5 ADD MSTORE PUSH1 0xFF PUSH1 0x1 PUSH1 0x80 SHL DUP3 DIV DUP2 AND ISZERO ISZERO PUSH2 0x100 DUP6 ADD MSTORE PUSH1 0x1 PUSH1 0x88 SHL DUP3 DIV DUP2 AND ISZERO ISZERO PUSH2 0x120 DUP6 ADD MSTORE PUSH1 0x1 PUSH1 0x90 SHL SWAP1 SWAP2 DIV AND ISZERO ISZERO PUSH2 0x140 DUP4 ADD MSTORE PUSH1 0x3 DUP4 ADD SLOAD PUSH0 SWAP2 PUSH8 0xDE0B6B3A7640000 SWAP2 PUSH2 0xDF3 SWAP2 PUSH2 0x4D33 JUMP JUMPDEST PUSH2 0xDFD SWAP2 SWAP1 PUSH2 0x4D4A JUMP JUMPDEST SWAP1 POP PUSH0 PUSH8 0xDE0B6B3A7640000 PUSH2 0xE19 PUSH1 0xE0 DUP13 ADD PUSH1 0xC0 DUP14 ADD PUSH2 0x4D88 JUMP JUMPDEST PUSH2 0xE2C SWAP1 PUSH1 0x1 PUSH1 0x1 PUSH1 0x40 SHL SUB AND DUP5 PUSH2 0x4D33 JUMP JUMPDEST PUSH2 0xE36 SWAP2 SWAP1 PUSH2 0x4D4A JUMP JUMPDEST SWAP1 POP PUSH0 PUSH2 0xE43 DUP3 DUP5 PUSH2 0x4DA3 JUMP JUMPDEST PUSH1 0x40 DUP1 MLOAD DUP3 DUP2 MSTORE PUSH1 0x20 DUP2 ADD DUP6 SWAP1 MSTORE CALLER DUP2 DUP4 ADD MSTORE PUSH1 0x60 DUP2 ADD DUP10 SWAP1 MSTORE SWAP1 MLOAD SWAP2 SWAP3 POP PUSH32 0xB8B27C9366AE0D3A9EECBCC98C26BD18CA7BDD47293088CDF8CCDC683354520D SWAP2 SWAP1 DUP2 SWAP1 SUB PUSH1 0x80 ADD SWAP1 LOG1 DUP1 ISZERO PUSH2 0xECC JUMPI PUSH0 PUSH2 0xEA1 DUP13 DUP7 PUSH0 ADD MLOAD PUSH2 0x3443 JUMP JUMPDEST DUP7 SLOAD PUSH1 0x1 PUSH1 0x1 PUSH1 0xA0 SHL SUB NOT AND PUSH1 0x1 PUSH1 0x1 PUSH1 0xA0 SHL SUB DUP3 AND OR DUP8 SSTORE DUP6 MLOAD SWAP1 SWAP2 POP PUSH2 0xECA SWAP1 DUP3 DUP5 PUSH2 0x3554 JUMP JUMPDEST POP JUMPDEST DUP2 ISZERO PUSH2 0xEDF JUMPI DUP4 MLOAD PUSH2 0xEDF SWAP1 CALLER DUP5 PUSH2 0x3554 JUMP JUMPDEST POP POP POP POP POP POP POP POP POP POP POP POP POP JUMP JUMPDEST PUSH1 0xC SLOAD PUSH1 0x1 PUSH1 0x1 PUSH1 0xA0 SHL SUB AND CALLER EQ PUSH2 0xF19 JUMPI PUSH1 0x40 MLOAD PUSH4 0x1634F9A3 PUSH1 0xE3 SHL DUP2 MSTORE PUSH1 0x4 ADD PUSH1 0x40 MLOAD DUP1 SWAP2 SUB SWAP1 REVERT JUMPDEST PUSH2 0xB6A PUSH2 0x359E JUMP JUMPDEST PUSH1 0x3 DUP1 SLOAD DUP2 SWAP1 PUSH2 0xF30 SWAP1 PUSH2 0x4CD8 JUMP JUMPDEST DUP1 PUSH1 0x1F ADD PUSH1 0x20 DUP1 SWAP2 DIV MUL PUSH1 0x20 ADD PUSH1 0x40 MLOAD SWAP1 DUP2 ADD PUSH1 0x40 MSTORE DUP1 SWAP3 SWAP2 SWAP1 DUP2 DUP2 MSTORE PUSH1 0x20 ADD DUP3 DUP1 SLOAD PUSH2 0xF5C SWAP1 PUSH2 0x4CD8 JUMP JUMPDEST DUP1 ISZERO PUSH2 0xFA7 JUMPI DUP1 PUSH1 0x1F LT PUSH2 0xF7E JUMPI PUSH2 0x100 DUP1 DUP4 SLOAD DIV MUL DUP4 MSTORE SWAP2 PUSH1 0x20 ADD SWAP2 PUSH2 0xFA7 JUMP JUMPDEST DUP3 ADD SWAP2 SWAP1 PUSH0 MSTORE PUSH1 0x20 PUSH0 KECCAK256 SWAP1 JUMPDEST DUP2 SLOAD DUP2 MSTORE SWAP1 PUSH1 0x1 ADD SWAP1 PUSH1 0x20 ADD DUP1 DUP4 GT PUSH2 0xF8A JUMPI DUP3 SWAP1 SUB PUSH1 0x1F AND DUP3 ADD SWAP2 JUMPDEST POP POP POP POP POP SWAP1 DUP1 PUSH1 0x1 ADD DUP1 SLOAD PUSH2 0xFBC SWAP1 PUSH2 0x4CD8 JUMP JUMPDEST DUP1 PUSH1 0x1F ADD PUSH1 0x20 DUP1 SWAP2 DIV MUL PUSH1 0x20 ADD PUSH1 0x40 MLOAD SWAP1 DUP2 ADD PUSH1 0x40 MSTORE DUP1 SWAP3 SWAP2 SWAP1 DUP2 DUP2 MSTORE PUSH1 0x20 ADD DUP3 DUP1 SLOAD PUSH2 0xFE8 SWAP1 PUSH2 0x4CD8 JUMP JUMPDEST DUP1 ISZERO PUSH2 0x1033 JUMPI DUP1 PUSH1 0x1F LT PUSH2 0x100A JUMPI PUSH2 0x100 DUP1 DUP4 SLOAD DIV MUL DUP4 MSTORE SWAP2 PUSH1 0x20 ADD SWAP2 PUSH2 0x1033 JUMP JUMPDEST DUP3 ADD SWAP2 SWAP1 PUSH0 MSTORE PUSH1 0x20 PUSH0 KECCAK256 SWAP1 JUMPDEST DUP2 SLOAD DUP2 MSTORE SWAP1 PUSH1 0x1 ADD SWAP1 PUSH1 0x20 ADD DUP1 DUP4 GT PUSH2 0x1016 JUMPI DUP3 SWAP1 SUB PUSH1 0x1F AND DUP3 ADD SWAP2 JUMPDEST POP POP POP POP POP SWAP1 DUP1 PUSH1 0x2 ADD DUP1 SLOAD PUSH2 0x1048 SWAP1 PUSH2 0x4CD8 JUMP JUMPDEST DUP1 PUSH1 0x1F ADD PUSH1 0x20 DUP1 SWAP2 DIV MUL PUSH1 0x20 ADD PUSH1 0x40 MLOAD SWAP1 DUP2 ADD PUSH1 0x40 MSTORE DUP1 SWAP3 SWAP2 SWAP1 DUP2 DUP2 MSTORE PUSH1 0x20 ADD DUP3 DUP1 SLOAD PUSH2 0x1074 SWAP1 PUSH2 0x4CD8 JUMP JUMPDEST DUP1 ISZERO PUSH2 0x10BF JUMPI DUP1 PUSH1 0x1F LT PUSH2 0x1096 JUMPI PUSH2 0x100 DUP1 DUP4 SLOAD DIV MUL DUP4 MSTORE SWAP2 PUSH1 0x20 ADD SWAP2 PUSH2 0x10BF JUMP JUMPDEST DUP3 ADD SWAP2 SWAP1 PUSH0 MSTORE PUSH1 0x20 PUSH0 KECCAK256 SWAP1 JUMPDEST DUP2 SLOAD DUP2 MSTORE SWAP1 PUSH1 0x1 ADD SWAP1 PUSH1 0x20 ADD DUP1 DUP4 GT PUSH2 0x10A2 JUMPI DUP3 SWAP1 SUB PUSH1 0x1F AND DUP3 ADD SWAP2 JUMPDEST POP POP POP POP POP SWAP1 DUP1 PUSH1 0x3 ADD SLOAD SWAP1 POP DUP5 JUMP JUMPDEST PUSH2 0x10DA DUP4 DUP4 DUP4 PUSH2 0xB6C JUMP JUMPDEST DUP2 EXTCODESIZE ISZERO PUSH2 0xB23 JUMPI PUSH2 0xB23 DUP4 DUP4 DUP4 PUSH1 0x40 MLOAD DUP1 PUSH1 0x20 ADD PUSH1 0x40 MSTORE DUP1 PUSH0 DUP2 MSTORE POP PUSH2 0x35EB JUMP JUMPDEST PUSH2 0x1103 PUSH2 0x264B JUMP JUMPDEST PUSH2 0x110B PUSH2 0x266F JUMP JUMPDEST PUSH0 PUSH2 0x1115 CALLER PUSH2 0x2E21 JUMP JUMPDEST SWAP1 POP PUSH2 0x1120 DUP2 PUSH2 0x2E3B JUMP JUMPDEST PUSH2 0x112A DUP4 DUP4 PUSH2 0x33EF JUMP JUMPDEST PUSH2 0x1133 DUP2 PUSH2 0x366C JUMP JUMPDEST CALLER PUSH0 SWAP1 DUP2 MSTORE PUSH1 0x19 PUSH1 0x20 MSTORE PUSH1 0x40 SWAP1 DUP2 SWAP1 KECCAK256 SWAP1 MLOAD PUSH1 0x1 SWAP2 SWAP1 PUSH2 0x1156 SWAP1 DUP7 SWAP1 DUP7 SWAP1 PUSH2 0x4D10 JUMP JUMPDEST SWAP1 DUP2 MSTORE PUSH1 0x40 DUP1 MLOAD SWAP2 DUP3 SWAP1 SUB PUSH1 0x20 SWAP1 DUP2 ADD SWAP1 SWAP3 KECCAK256 DUP1 SLOAD SWAP4 ISZERO ISZERO PUSH1 0xFF NOT SWAP5 DUP6 AND OR SWAP1 SSTORE PUSH0 DUP5 DUP2 MSTORE PUSH1 0x18 SWAP1 SWAP3 MSTORE DUP2 KECCAK256 PUSH1 0x4 ADD DUP1 SLOAD SWAP1 SWAP3 AND PUSH1 0x1 OR SWAP1 SWAP2 SSTORE PUSH1 0x13 DUP1 SLOAD DUP9 SWAP3 SWAP1 PUSH2 0x11A2 SWAP1 DUP5 SWAP1 PUSH2 0x4DA3 JUMP JUMPDEST SWAP1 SWAP2 SSTORE POP POP PUSH0 DUP2 DUP2 MSTORE PUSH1 0x18 PUSH1 0x20 MSTORE PUSH1 0x40 DUP2 KECCAK256 PUSH1 0x1 ADD DUP1 SLOAD DUP9 SWAP3 SWAP1 PUSH2 0x11C7 SWAP1 DUP5 SWAP1 PUSH2 0x4DA3 JUMP JUMPDEST SWAP1 SWAP2 SSTORE POP PUSH2 0x11D8 SWAP1 POP DUP6 DUP6 DUP4 PUSH2 0x31A1 JUMP JUMPDEST PUSH2 0x11E5 DUP4 DUP4 DUP4 PUSH1 0x1 PUSH2 0x31D7 JUMP JUMPDEST PUSH1 0x40 DUP1 MLOAD DUP8 DUP2 MSTORE CALLER PUSH1 0x20 DUP3 ADD MSTORE SWAP1 DUP2 ADD DUP3 SWAP1 MSTORE PUSH32 0x6341DCB064EDAC8070B059A7351278F06DF48F417DBB63F02402409059B03053 SWAP1 PUSH1 0x60 ADD PUSH1 0x40 MLOAD DUP1 SWAP2 SUB SWAP1 LOG1 DUP6 ISZERO PUSH2 0x1242 JUMPI PUSH1 0x9 SLOAD PUSH2 0x1242 SWAP1 PUSH1 0x1 PUSH1 0x1 PUSH1 0xA0 SHL SUB AND CALLER DUP9 PUSH2 0x3554 JUMP JUMPDEST POP POP POP POP POP POP JUMP JUMPDEST PUSH2 0x1252 PUSH2 0x264B JUMP JUMPDEST PUSH0 PUSH2 0x125C CALLER PUSH2 0x2E21 JUMP JUMPDEST SWAP1 POP PUSH2 0x1267 DUP2 PUSH2 0x2E3B JUMP JUMPDEST PUSH0 DUP2 DUP2 MSTORE PUSH1 0x18 PUSH1 0x20 MSTORE PUSH1 0x40 SWAP1 KECCAK256 SLOAD PUSH1 0x1 PUSH1 0x1 PUSH1 0xA0 SHL SUB AND DUP1 PUSH2 0x129C JUMPI PUSH1 0x40 MLOAD PUSH4 0xB840F60B PUSH1 0xE0 SHL DUP2 MSTORE PUSH1 0x4 ADD PUSH1 0x40 MLOAD DUP1 SWAP2 SUB SWAP1 REVERT JUMPDEST PUSH1 0x11 SLOAD PUSH1 0x40 MLOAD PUSH4 0x19165587 PUSH1 0xE0 SHL DUP2 MSTORE PUSH1 0x1 PUSH1 0x1 PUSH1 0xA0 SHL SUB SWAP2 DUP3 AND PUSH1 0x4 DUP3 ADD MSTORE SWAP1 DUP3 AND SWAP1 PUSH4 0x19165587 SWAP1 PUSH1 0x24 ADD PUSH0 PUSH1 0x40 MLOAD DUP1 DUP4 SUB DUP2 PUSH0 DUP8 DUP1 EXTCODESIZE ISZERO DUP1 ISZERO PUSH2 0x12E0 JUMPI PUSH0 PUSH0 REVERT JUMPDEST POP GAS CALL ISZERO DUP1 ISZERO PUSH2 0x1242 JUMPI RETURNDATASIZE PUSH0 PUSH0 RETURNDATACOPY RETURNDATASIZE PUSH0 REVERT JUMPDEST PUSH1 0xC SLOAD PUSH1 0x1 PUSH1 0x1 PUSH1 0xA0 SHL SUB AND CALLER EQ PUSH2 0x131D JUMPI PUSH1 0x40 MLOAD PUSH4 0x1634F9A3 PUSH1 0xE3 SHL DUP2 MSTORE PUSH1 0x4 ADD PUSH1 0x40 MLOAD DUP1 SWAP2 SUB SWAP1 REVERT JUMPDEST PUSH2 0x1325 PUSH2 0x264B JUMP JUMPDEST PUSH2 0x132D PUSH2 0x266F JUMP JUMPDEST PUSH2 0x1335 PUSH2 0x269A JUMP JUMPDEST PUSH2 0x133D PUSH2 0x3703 JUMP JUMPDEST PUSH1 0x14 DUP2 SWAP1 SSTORE PUSH1 0x40 MLOAD DUP2 DUP2 MSTORE PUSH32 0x151FFE84D1482D5BBFDF5B150B651ABA0A2F69514DA2BB748A985DE46AA7BE36 SWAP1 PUSH1 0x20 ADD JUMPDEST PUSH1 0x40 MLOAD DUP1 SWAP2 SUB SWAP1 LOG1 POP JUMP JUMPDEST PUSH2 0x1381 PUSH2 0x264B JUMP JUMPDEST PUSH2 0x1389 PUSH2 0x266F JUMP JUMPDEST PUSH2 0x1391 PUSH2 0x3727 JUMP JUMPDEST PUSH0 PUSH2 0x139B CALLER PUSH2 0x2E21 JUMP JUMPDEST SWAP1 POP PUSH2 0x13A6 DUP2 PUSH2 0x2E3B JUMP JUMPDEST PUSH2 0x13AF DUP2 PUSH2 0x2E5B JUMP JUMPDEST PUSH0 DUP2 DUP2 MSTORE PUSH1 0x18 PUSH1 0x20 MSTORE PUSH1 0x40 DUP2 KECCAK256 PUSH1 0x1 DUP2 ADD DUP1 SLOAD SWAP1 DUP4 SWAP1 SSTORE PUSH1 0x4 DUP3 ADD DUP1 SLOAD PUSH2 0xFF00 NOT AND PUSH2 0x100 OR SWAP1 SSTORE PUSH1 0x13 DUP1 SLOAD SWAP3 SWAP4 SWAP2 SWAP3 DUP4 SWAP3 SWAP1 PUSH2 0x13ED SWAP1 DUP5 SWAP1 PUSH2 0x4DA3 JUMP JUMPDEST SWAP1 SWAP2 SSTORE POP POP PUSH1 0x40 DUP1 MLOAD DUP3 DUP2 MSTORE CALLER PUSH1 0x20 DUP3 ADD MSTORE SWAP1 DUP2 ADD DUP5 SWAP1 MSTORE PUSH32 0x2F7421F68549E714BC710199519C8B35139CB8BD9E49984836621B29F676101A SWAP1 PUSH1 0x60 ADD PUSH1 0x40 MLOAD DUP1 SWAP2 SUB SWAP1 LOG1 PUSH1 0x9 SLOAD PUSH2 0xB23 SWAP1 PUSH1 0x1 PUSH1 0x1 PUSH1 0xA0 SHL SUB AND CALLER DUP4 PUSH2 0x3554 JUMP JUMPDEST PUSH0 DUP2 DUP2 MSTORE PUSH8 0x3EC412A9852D173D PUSH1 0xC1 SHL PUSH1 0x1C MSTORE PUSH1 0x20 SWAP1 KECCAK256 DUP2 ADD DUP2 ADD SLOAD PUSH1 0x1 PUSH1 0x1 PUSH1 0xA0 SHL SUB AND DUP1 PUSH2 0x1480 JUMPI PUSH4 0xCEEA21B6 PUSH0 MSTORE PUSH1 0x4 PUSH1 0x1C REVERT JUMPDEST SWAP2 SWAP1 POP JUMP JUMPDEST PUSH1 0x40 DUP1 MLOAD PUSH1 0xE0 DUP2 ADD DUP3 MSTORE PUSH0 DUP1 DUP3 MSTORE PUSH1 0x20 DUP3 ADD DUP2 SWAP1 MSTORE SWAP2 DUP2 ADD DUP3 SWAP1 MSTORE PUSH1 0x60 DUP2 ADD DUP3 SWAP1 MSTORE PUSH1 0x80 DUP2 ADD DUP3 SWAP1 MSTORE PUSH1 0xA0 DUP2 ADD DUP3 SWAP1 MSTORE PUSH1 0xC0 DUP2 ADD DUP3 SWAP1 MSTORE SWAP1 PUSH2 0x14C6 DUP4 PUSH2 0x2E21 JUMP JUMPDEST SWAP1 POP PUSH2 0x14D1 DUP2 PUSH2 0x2E3B JUMP JUMPDEST PUSH0 DUP2 DUP2 MSTORE PUSH1 0x18 PUSH1 0x20 MSTORE PUSH1 0x40 SWAP1 KECCAK256 SLOAD PUSH1 0x11 SLOAD PUSH1 0x1 PUSH1 0x1 PUSH1 0xA0 SHL SUB SWAP2 DUP3 AND SWAP2 AND DUP2 PUSH2 0x14FA JUMPI DUP4 PUSH2 0x181D JUMP JUMPDEST PUSH1 0x40 MLOAD DUP1 PUSH1 0xE0 ADD PUSH1 0x40 MSTORE DUP1 DUP4 PUSH1 0x1 PUSH1 0x1 PUSH1 0xA0 SHL SUB AND PUSH4 0xBE9A6555 PUSH1 0x40 MLOAD DUP2 PUSH4 0xFFFFFFFF AND PUSH1 0xE0 SHL DUP2 MSTORE PUSH1 0x4 ADD PUSH1 0x20 PUSH1 0x40 MLOAD DUP1 DUP4 SUB DUP2 DUP7 GAS STATICCALL ISZERO DUP1 ISZERO PUSH2 0x1541 JUMPI RETURNDATASIZE PUSH0 PUSH0 RETURNDATACOPY RETURNDATASIZE PUSH0 REVERT JUMPDEST POP POP POP POP PUSH1 0x40 MLOAD RETURNDATASIZE PUSH1 0x1F NOT PUSH1 0x1F DUP3 ADD AND DUP3 ADD DUP1 PUSH1 0x40 MSTORE POP DUP2 ADD SWAP1 PUSH2 0x1565 SWAP2 SWAP1 PUSH2 0x4DB6 JUMP JUMPDEST PUSH1 0x1 PUSH1 0x1 PUSH1 0x40 SHL SUB AND DUP2 MSTORE PUSH1 0x20 ADD DUP4 PUSH1 0x1 PUSH1 0x1 PUSH1 0xA0 SHL SUB AND PUSH4 0xEFBE1C1C PUSH1 0x40 MLOAD DUP2 PUSH4 0xFFFFFFFF AND PUSH1 0xE0 SHL DUP2 MSTORE PUSH1 0x4 ADD PUSH1 0x20 PUSH1 0x40 MLOAD DUP1 DUP4 SUB DUP2 DUP7 GAS STATICCALL ISZERO DUP1 ISZERO PUSH2 0x15AF JUMPI RETURNDATASIZE PUSH0 PUSH0 RETURNDATACOPY RETURNDATASIZE PUSH0 REVERT JUMPDEST POP POP POP POP PUSH1 0x40 MLOAD RETURNDATASIZE PUSH1 0x1F NOT PUSH1 0x1F DUP3 ADD AND DUP3 ADD DUP1 PUSH1 0x40 MSTORE POP DUP2 ADD SWAP1 PUSH2 0x15D3 SWAP2 SWAP1 PUSH2 0x4DB6 JUMP JUMPDEST PUSH1 0x1 PUSH1 0x1 PUSH1 0x40 SHL SUB AND DUP2 MSTORE PUSH1 0x20 ADD DUP4 PUSH1 0x1 PUSH1 0x1 PUSH1 0xA0 SHL SUB AND PUSH4 0xE8A6FED1 PUSH1 0x40 MLOAD DUP2 PUSH4 0xFFFFFFFF AND PUSH1 0xE0 SHL DUP2 MSTORE PUSH1 0x4 ADD PUSH1 0x20 PUSH1 0x40 MLOAD DUP1 DUP4 SUB DUP2 DUP7 GAS STATICCALL ISZERO DUP1 ISZERO PUSH2 0x161D JUMPI RETURNDATASIZE PUSH0 PUSH0 RETURNDATACOPY RETURNDATASIZE PUSH0 REVERT JUMPDEST POP POP POP POP PUSH1 0x40 MLOAD RETURNDATASIZE PUSH1 0x1F NOT PUSH1 0x1F DUP3 ADD AND DUP3 ADD DUP1 PUSH1 0x40 MSTORE POP DUP2 ADD SWAP1 PUSH2 0x1641 SWAP2 SWAP1 PUSH2 0x4DB6 JUMP JUMPDEST PUSH1 0x1 PUSH1 0x1 PUSH1 0x40 SHL SUB AND DUP2 MSTORE PUSH1 0x20 ADD DUP4 PUSH1 0x1 PUSH1 0x1 PUSH1 0xA0 SHL SUB AND PUSH4 0xFB5A6B4 PUSH1 0x40 MLOAD DUP2 PUSH4 0xFFFFFFFF AND PUSH1 0xE0 SHL DUP2 MSTORE PUSH1 0x4 ADD PUSH1 0x20 PUSH1 0x40 MLOAD DUP1 DUP4 SUB DUP2 DUP7 GAS STATICCALL ISZERO DUP1 ISZERO PUSH2 0x168B JUMPI RETURNDATASIZE PUSH0 PUSH0 RETURNDATACOPY RETURNDATASIZE PUSH0 REVERT JUMPDEST POP POP POP POP PUSH1 0x40 MLOAD RETURNDATASIZE PUSH1 0x1F NOT PUSH1 0x1F DUP3 ADD AND DUP3 ADD DUP1 PUSH1 0x40 MSTORE POP DUP2 ADD SWAP1 PUSH2 0x16AF SWAP2 SWAP1 PUSH2 0x4DB6 JUMP JUMPDEST PUSH1 0x1 PUSH1 0x1 PUSH1 0x40 SHL SUB AND DUP2 MSTORE PUSH1 0x40 MLOAD PUSH4 0x26149657 PUSH1 0xE2 SHL DUP2 MSTORE PUSH1 0x1 PUSH1 0x1 PUSH1 0xA0 SHL SUB DUP5 DUP2 AND PUSH1 0x4 DUP4 ADD MSTORE PUSH1 0x20 SWAP1 SWAP3 ADD SWAP2 DUP6 AND SWAP1 PUSH4 0x9852595C SWAP1 PUSH1 0x24 ADD PUSH1 0x20 PUSH1 0x40 MLOAD DUP1 DUP4 SUB DUP2 DUP7 GAS STATICCALL ISZERO DUP1 ISZERO PUSH2 0x1704 JUMPI RETURNDATASIZE PUSH0 PUSH0 RETURNDATACOPY RETURNDATASIZE PUSH0 REVERT JUMPDEST POP POP POP POP PUSH1 0x40 MLOAD RETURNDATASIZE PUSH1 0x1F NOT PUSH1 0x1F DUP3 ADD AND DUP3 ADD DUP1 PUSH1 0x40 MSTORE POP DUP2 ADD SWAP1 PUSH2 0x1728 SWAP2 SWAP1 PUSH2 0x4DD1 JUMP JUMPDEST DUP2 MSTORE PUSH1 0x40 MLOAD PUSH4 0x51FC7567 PUSH1 0xE1 SHL DUP2 MSTORE PUSH1 0x1 PUSH1 0x1 PUSH1 0xA0 SHL SUB DUP5 DUP2 AND PUSH1 0x4 DUP4 ADD MSTORE PUSH1 0x20 SWAP1 SWAP3 ADD SWAP2 DUP6 AND SWAP1 PUSH4 0xA3F8EACE SWAP1 PUSH1 0x24 ADD PUSH1 0x20 PUSH1 0x40 MLOAD DUP1 DUP4 SUB DUP2 DUP7 GAS STATICCALL ISZERO DUP1 ISZERO PUSH2 0x1774 JUMPI RETURNDATASIZE PUSH0 PUSH0 RETURNDATACOPY RETURNDATASIZE PUSH0 REVERT JUMPDEST POP POP POP POP PUSH1 0x40 MLOAD RETURNDATASIZE PUSH1 0x1F NOT PUSH1 0x1F DUP3 ADD AND DUP3 ADD DUP1 PUSH1 0x40 MSTORE POP DUP2 ADD SWAP1 PUSH2 0x1798 SWAP2 SWAP1 PUSH2 0x4DD1 JUMP JUMPDEST DUP2 MSTORE PUSH1 0x40 MLOAD PUSH4 0x810EC23B PUSH1 0xE0 SHL DUP2 MSTORE PUSH1 0x1 PUSH1 0x1 PUSH1 0xA0 SHL SUB DUP5 DUP2 AND PUSH1 0x4 DUP4 ADD MSTORE PUSH1 0x1 PUSH1 0x1 PUSH1 0x40 SHL SUB TIMESTAMP AND PUSH1 0x24 DUP4 ADD MSTORE PUSH1 0x20 SWAP1 SWAP3 ADD SWAP2 DUP6 AND SWAP1 PUSH4 0x810EC23B SWAP1 PUSH1 0x44 ADD PUSH1 0x20 PUSH1 0x40 MLOAD DUP1 DUP4 SUB DUP2 DUP7 GAS STATICCALL ISZERO DUP1 ISZERO PUSH2 0x17F3 JUMPI RETURNDATASIZE PUSH0 PUSH0 RETURNDATACOPY RETURNDATASIZE PUSH0 REVERT JUMPDEST POP POP POP POP PUSH1 0x40 MLOAD RETURNDATASIZE PUSH1 0x1F NOT PUSH1 0x1F DUP3 ADD AND DUP3 ADD DUP1 PUSH1 0x40 MSTORE POP DUP2 ADD SWAP1 PUSH2 0x1817 SWAP2 SWAP1 PUSH2 0x4DD1 JUMP JUMPDEST SWAP1 MSTORE SWAP4 POP DUP4 JUMPDEST POP POP POP POP SWAP2 SWAP1 POP JUMP JUMPDEST PUSH0 DUP2 PUSH2 0x1839 JUMPI PUSH4 0x8F4EB604 PUSH0 MSTORE PUSH1 0x4 PUSH1 0x1C REVERT JUMPDEST PUSH8 0x3EC412A9852D173D PUSH1 0xC1 SHL PUSH1 0x1C MSTORE DUP2 PUSH0 MSTORE PUSH4 0xFFFFFFFF PUSH1 0x1C PUSH1 0xC KECCAK256 SLOAD AND SWAP1 POP SWAP2 SWAP1 POP JUMP JUMPDEST PUSH1 0xC SLOAD PUSH1 0x1 PUSH1 0x1 PUSH1 0xA0 SHL SUB AND CALLER EQ PUSH2 0x1889 JUMPI PUSH1 0x40 MLOAD PUSH4 0x1634F9A3 PUSH1 0xE3 SHL DUP2 MSTORE PUSH1 0x4 ADD PUSH1 0x40 MLOAD DUP1 SWAP2 SUB SWAP1 REVERT JUMPDEST PUSH2 0xB6A PUSH2 0x3770 JUMP JUMPDEST PUSH1 0x40 DUP1 MLOAD PUSH1 0xE0 DUP2 ADD DUP3 MSTORE PUSH0 DUP1 DUP3 MSTORE PUSH1 0x20 DUP3 ADD DUP2 SWAP1 MSTORE SWAP2 DUP2 ADD DUP3 SWAP1 MSTORE PUSH1 0x60 DUP2 ADD DUP3 SWAP1 MSTORE PUSH1 0x80 DUP2 ADD DUP3 SWAP1 MSTORE PUSH1 0xA0 DUP2 ADD DUP3 SWAP1 MSTORE PUSH1 0xC0 DUP2 ADD DUP3 SWAP1 MSTORE SWAP1 PUSH2 0x18D2 DUP4 PUSH2 0x2E21 JUMP JUMPDEST SWAP1 POP PUSH2 0x18DD DUP2 PUSH2 0x2E3B JUMP JUMPDEST PUSH0 SWAP1 DUP2 MSTORE PUSH1 0x18 PUSH1 0x20 SWAP1 DUP2 MSTORE PUSH1 0x40 SWAP2 DUP3 SWAP1 KECCAK256 DUP3 MLOAD PUSH1 0xE0 DUP2 ADD DUP5 MSTORE DUP2 SLOAD PUSH1 0x1 PUSH1 0x1 PUSH1 0xA0 SHL SUB AND DUP2 MSTORE PUSH1 0x1 DUP3 ADD SLOAD SWAP3 DUP2 ADD SWAP3 SWAP1 SWAP3 MSTORE PUSH1 0x2 DUP2 ADD SLOAD SWAP3 DUP3 ADD SWAP3 SWAP1 SWAP3 MSTORE PUSH1 0x3 DUP3 ADD SLOAD PUSH1 0x60 DUP3 ADD MSTORE PUSH1 0x4 SWAP1 SWAP2 ADD SLOAD PUSH1 0xFF DUP1 DUP3 AND ISZERO ISZERO PUSH1 0x80 DUP5 ADD MSTORE PUSH2 0x100 DUP3 DIV DUP2 AND ISZERO ISZERO PUSH1 0xA0 DUP5 ADD MSTORE PUSH3 0x10000 SWAP1 SWAP2 DIV AND ISZERO ISZERO PUSH1 0xC0 DUP3 ADD MSTORE SWAP3 SWAP2 POP POP JUMP JUMPDEST PUSH1 0x60 PUSH1 0x3 PUSH1 0x1 ADD DUP1 SLOAD PUSH2 0xA08 SWAP1 PUSH2 0x4CD8 JUMP JUMPDEST DUP1 ISZERO ISZERO SWAP1 POP DUP2 PUSH1 0x1C MSTORE PUSH8 0xA5A2E7A00000000 PUSH1 0x8 MSTORE CALLER PUSH0 MSTORE DUP1 PUSH1 0x30 PUSH1 0xC KECCAK256 SSTORE DUP1 PUSH0 MSTORE DUP2 PUSH1 0x60 SHL PUSH1 0x60 SHR CALLER PUSH32 0x17307EAB39AB6107E8899845AD3D59BD9653F200F220920489CA2B5937696C31 PUSH1 0x20 PUSH0 LOG3 POP POP JUMP JUMPDEST PUSH1 0xC SLOAD PUSH1 0x1 PUSH1 0x1 PUSH1 0xA0 SHL SUB AND CALLER EQ PUSH2 0x19EA JUMPI PUSH1 0x40 MLOAD PUSH4 0x1634F9A3 PUSH1 0xE3 SHL DUP2 MSTORE PUSH1 0x4 ADD PUSH1 0x40 MLOAD DUP1 SWAP2 SUB SWAP1 REVERT JUMPDEST PUSH2 0x19F2 PUSH2 0x264B JUMP JUMPDEST PUSH2 0x19FA PUSH2 0x266F JUMP JUMPDEST PUSH2 0x1A02 PUSH2 0x269A JUMP JUMPDEST PUSH1 0x11 DUP1 SLOAD PUSH1 0x1 PUSH1 0x1 PUSH1 0xA0 SHL SUB NOT AND PUSH1 0x1 PUSH1 0x1 PUSH1 0xA0 SHL SUB DUP6 AND SWAP1 DUP2 OR SWAP1 SWAP2 SSTORE PUSH1 0x12 DUP4 SWAP1 SSTORE PUSH1 0x15 DUP3 SWAP1 SSTORE PUSH1 0x40 DUP1 MLOAD SWAP2 DUP3 MSTORE PUSH1 0x20 DUP3 ADD DUP5 SWAP1 MSTORE DUP2 ADD DUP3 SWAP1 MSTORE PUSH32 0xCCD6E700239003E767BA46BA2F503BE5AB97E5000B9DFA95DAB928F273844DC9 SWAP1 PUSH1 0x60 ADD PUSH1 0x40 MLOAD DUP1 SWAP2 SUB SWAP1 LOG1 POP POP POP JUMP JUMPDEST PUSH0 DUP2 DUP2 MSTORE PUSH8 0x3EC412A9852D173D PUSH1 0xC1 SHL PUSH1 0x1C MSTORE PUSH1 0x20 DUP2 KECCAK256 DUP3 ADD DUP3 ADD SLOAD PUSH1 0x60 SHL PUSH2 0x1AAB JUMPI PUSH1 0x40 MLOAD PUSH4 0x677510DB PUSH1 0xE1 SHL DUP2 MSTORE PUSH1 0x4 ADD PUSH1 0x40 MLOAD DUP1 SWAP2 SUB SWAP1 REVERT JUMPDEST POP PUSH0 SWAP1 DUP2 MSTORE PUSH1 0x2 PUSH1 0x20 MSTORE PUSH1 0x40 SWAP1 KECCAK256 SLOAD PUSH1 0xFF AND SWAP1 JUMP JUMPDEST PUSH2 0x1ACB DUP6 DUP6 DUP6 PUSH2 0xB6C JUMP JUMPDEST DUP4 EXTCODESIZE ISZERO PUSH2 0x1B13 JUMPI PUSH2 0x1B13 DUP6 DUP6 DUP6 DUP6 DUP6 DUP1 DUP1 PUSH1 0x1F ADD PUSH1 0x20 DUP1 SWAP2 DIV MUL PUSH1 0x20 ADD PUSH1 0x40 MLOAD SWAP1 DUP2 ADD PUSH1 0x40 MSTORE DUP1 SWAP4 SWAP3 SWAP2 SWAP1 DUP2 DUP2 MSTORE PUSH1 0x20 ADD DUP4 DUP4 DUP1 DUP3 DUP5 CALLDATACOPY PUSH0 SWAP3 ADD SWAP2 SWAP1 SWAP2 MSTORE POP PUSH2 0x35EB SWAP3 POP POP POP JUMP JUMPDEST POP POP POP POP POP JUMP JUMPDEST PUSH1 0x60 PUSH2 0x1B43 DUP3 PUSH0 DUP2 DUP2 MSTORE PUSH8 0x3EC412A9852D173D PUSH1 0xC1 SHL PUSH1 0x1C MSTORE PUSH1 0x20 SWAP1 KECCAK256 DUP2 ADD ADD SLOAD PUSH1 0x60 SHL ISZERO ISZERO SWAP1 JUMP JUMPDEST PUSH2 0x1BA4 JUMPI PUSH1 0x40 MLOAD PUSH3 0x461BCD PUSH1 0xE5 SHL DUP2 MSTORE PUSH1 0x20 PUSH1 0x4 DUP3 ADD MSTORE PUSH1 0x27 PUSH1 0x24 DUP3 ADD MSTORE PUSH32 0x4552433732313A2055524920717565727920666F72206E6F6E6578697374656E PUSH1 0x44 DUP3 ADD MSTORE PUSH7 0x3A103A37B5B2B7 PUSH1 0xC9 SHL PUSH1 0x64 DUP3 ADD MSTORE PUSH1 0x84 ADD JUMPDEST PUSH1 0x40 MLOAD DUP1 SWAP2 SUB SWAP1 REVERT JUMPDEST PUSH0 PUSH1 0x3 PUSH1 0x2 ADD DUP1 SLOAD PUSH2 0x1BB5 SWAP1 PUSH2 0x4CD8 JUMP JUMPDEST DUP1 PUSH1 0x1F ADD PUSH1 0x20 DUP1 SWAP2 DIV MUL PUSH1 0x20 ADD PUSH1 0x40 MLOAD SWAP1 DUP2 ADD PUSH1 0x40 MSTORE DUP1 SWAP3 SWAP2 SWAP1 DUP2 DUP2 MSTORE PUSH1 0x20 ADD DUP3 DUP1 SLOAD PUSH2 0x1BE1 SWAP1 PUSH2 0x4CD8 JUMP JUMPDEST DUP1 ISZERO PUSH2 0x1C2C JUMPI DUP1 PUSH1 0x1F LT PUSH2 0x1C03 JUMPI PUSH2 0x100 DUP1 DUP4 SLOAD DIV MUL DUP4 MSTORE SWAP2 PUSH1 0x20 ADD SWAP2 PUSH2 0x1C2C JUMP JUMPDEST DUP3 ADD SWAP2 SWAP1 PUSH0 MSTORE PUSH1 0x20 PUSH0 KECCAK256 SWAP1 JUMPDEST DUP2 SLOAD DUP2 MSTORE SWAP1 PUSH1 0x1 ADD SWAP1 PUSH1 0x20 ADD DUP1 DUP4 GT PUSH2 0x1C0F JUMPI DUP3 SWAP1 SUB PUSH1 0x1F AND DUP3 ADD SWAP2 JUMPDEST POP POP POP POP POP SWAP1 POP PUSH0 DUP2 MLOAD GT PUSH2 0x1C4F JUMPI PUSH1 0x40 MLOAD DUP1 PUSH1 0x20 ADD PUSH1 0x40 MSTORE DUP1 PUSH0 DUP2 MSTORE POP PUSH2 0x1C7A JUMP JUMPDEST DUP1 PUSH2 0x1C59 DUP5 PUSH2 0x37AD JUMP JUMPDEST PUSH1 0x40 MLOAD PUSH1 0x20 ADD PUSH2 0x1C6A SWAP3 SWAP2 SWAP1 PUSH2 0x4DFF JUMP JUMPDEST PUSH1 0x40 MLOAD PUSH1 0x20 DUP2 DUP4 SUB SUB DUP2 MSTORE SWAP1 PUSH1 0x40 MSTORE JUMPDEST SWAP4 SWAP3 POP POP POP JUMP JUMPDEST PUSH1 0xA SLOAD PUSH1 0x1 PUSH1 0x1 PUSH1 0xA0 SHL SUB AND CALLER EQ PUSH2 0x1CAC JUMPI PUSH1 0x40 MLOAD PUSH4 0x1312F1F PUSH1 0xE1 SHL DUP2 MSTORE PUSH1 0x4 ADD PUSH1 0x40 MLOAD DUP1 SWAP2 SUB SWAP1 REVERT JUMPDEST PUSH2 0x1CB4 PUSH2 0x264B JUMP JUMPDEST PUSH2 0x1CBC PUSH2 0x266F JUMP JUMPDEST PUSH2 0x1CC4 PUSH2 0x383C JUMP JUMPDEST PUSH2 0x1CCD DUP4 PUSH2 0x3867 JUMP JUMPDEST PUSH1 0x17 DUP1 SLOAD PUSH1 0xFF PUSH1 0x88 SHL NOT AND PUSH1 0x1 PUSH1 0x88 SHL OR SWAP1 SSTORE PUSH1 0x40 DUP1 MLOAD PUSH2 0x180 DUP2 ADD DUP3 MSTORE PUSH1 0x9 SLOAD PUSH1 0x1 PUSH1 0x1 PUSH1 0xA0 SHL SUB SWAP1 DUP2 AND DUP3 MSTORE PUSH1 0xA SLOAD DUP2 AND PUSH1 0x20 DUP4 ADD MSTORE PUSH1 0xB SLOAD DUP2 AND SWAP3 DUP3 ADD SWAP3 SWAP1 SWAP3 MSTORE PUSH1 0xC SLOAD DUP3 AND PUSH1 0x60 DUP3 ADD MSTORE PUSH1 0xD SLOAD DUP3 AND PUSH1 0x80 DUP3 ADD MSTORE PUSH1 0xE SLOAD DUP3 AND PUSH1 0xA0 DUP3 ADD MSTORE PUSH1 0xF SLOAD SWAP2 DUP3 AND PUSH1 0xC0 DUP3 ADD MSTORE PUSH1 0x1 PUSH1 0x1 PUSH1 0x40 SHL SUB PUSH1 0x1 PUSH1 0xA0 SHL DUP4 DIV AND PUSH1 0xE0 DUP3 ADD MSTORE PUSH2 0xFFFF PUSH1 0x1 PUSH1 0xE0 SHL DUP4 DIV DUP2 AND PUSH2 0x100 DUP4 ADD MSTORE PUSH1 0x1 PUSH1 0xF0 SHL SWAP1 SWAP3 DIV DUP3 AND PUSH2 0x120 DUP3 ADD DUP2 SWAP1 MSTORE PUSH1 0x10 SLOAD DUP1 DUP5 AND PUSH2 0x140 DUP5 ADD MSTORE PUSH3 0x10000 SWAP1 DIV SWAP1 SWAP3 AND PUSH2 0x160 DUP3 ADD MSTORE SWAP1 PUSH0 SWAP1 PUSH2 0x2710 SWAP1 PUSH2 0x1DA0 SWAP1 DUP8 SWAP1 PUSH2 0x4D33 JUMP JUMPDEST PUSH2 0x1DAA SWAP2 SWAP1 PUSH2 0x4D4A JUMP JUMPDEST PUSH1 0x10 SLOAD SWAP1 SWAP2 POP PUSH0 SWAP1 PUSH2 0x2710 SWAP1 PUSH2 0x1DCB SWAP1 DUP9 SWAP1 PUSH3 0x10000 SWAP1 DIV PUSH2 0xFFFF AND PUSH2 0x4D33 JUMP JUMPDEST PUSH2 0x1DD5 SWAP2 SWAP1 PUSH2 0x4D4A JUMP JUMPDEST SWAP1 POP DUP2 DUP6 EQ PUSH2 0x1E01 JUMPI PUSH1 0x40 MLOAD PUSH4 0x54DFF7E9 PUSH1 0xE0 SHL DUP2 MSTORE PUSH1 0x4 DUP2 ADD DUP7 SWAP1 MSTORE PUSH1 0x24 DUP2 ADD DUP4 SWAP1 MSTORE PUSH1 0x44 ADD PUSH2 0x1B9B JUMP JUMPDEST DUP1 DUP5 EQ PUSH2 0x1E2B JUMPI PUSH1 0x40 MLOAD PUSH4 0x54DFF7E9 PUSH1 0xE0 SHL DUP2 MSTORE PUSH1 0x4 DUP2 ADD DUP6 SWAP1 MSTORE PUSH1 0x24 DUP2 ADD DUP3 SWAP1 MSTORE PUSH1 0x44 ADD PUSH2 0x1B9B JUMP JUMPDEST PUSH1 0x40 DUP1 MLOAD DUP8 DUP2 MSTORE PUSH1 0x20 DUP2 ADD DUP8 SWAP1 MSTORE SWAP1 DUP2 ADD DUP6 SWAP1 MSTORE PUSH32 0xEB6ECFF67790F9432B928D86593A8EF9296B4F8562A4E1856E2B17372FA218FB SWAP1 PUSH1 0x60 ADD PUSH1 0x40 MLOAD DUP1 SWAP2 SUB SWAP1 LOG1 PUSH1 0x40 DUP1 MLOAD PUSH2 0x160 DUP2 ADD DUP3 MSTORE PUSH1 0x11 SLOAD PUSH1 0x1 PUSH1 0x1 PUSH1 0xA0 SHL SUB AND DUP1 DUP3 MSTORE PUSH1 0x12 SLOAD PUSH1 0x20 DUP4 ADD MSTORE PUSH1 0x13 SLOAD SWAP3 DUP3 ADD SWAP3 SWAP1 SWAP3 MSTORE PUSH1 0x14 SLOAD PUSH1 0x60 DUP3 ADD MSTORE PUSH1 0x15 SLOAD PUSH1 0x80 DUP3 ADD MSTORE PUSH1 0x16 SLOAD PUSH1 0xA0 DUP3 ADD MSTORE PUSH1 0x17 SLOAD PUSH1 0x1 PUSH1 0x1 PUSH1 0x40 SHL SUB DUP1 DUP3 AND PUSH1 0xC0 DUP5 ADD MSTORE PUSH1 0x1 PUSH1 0x40 SHL DUP3 DIV AND PUSH1 0xE0 DUP4 ADD MSTORE PUSH1 0xFF PUSH1 0x1 PUSH1 0x80 SHL DUP3 DIV DUP2 AND ISZERO ISZERO PUSH2 0x100 DUP5 ADD MSTORE PUSH1 0x1 PUSH1 0x88 SHL DUP3 DIV DUP2 AND ISZERO ISZERO PUSH2 0x120 DUP5 ADD MSTORE PUSH1 0x1 PUSH1 0x90 SHL SWAP1 SWAP2 DIV AND ISZERO ISZERO PUSH2 0x140 DUP3 ADD MSTORE SWAP1 PUSH2 0x1F12 SWAP1 CALLER ADDRESS DUP11 PUSH2 0x38B5 JUMP JUMPDEST DUP6 ISZERO PUSH2 0x1F2B JUMPI PUSH2 0x1F2B DUP2 PUSH0 ADD MLOAD CALLER DUP7 PUSH1 0xA0 ADD MLOAD DUP10 PUSH2 0x38B5 JUMP JUMPDEST DUP5 ISZERO PUSH2 0x1F44 JUMPI PUSH2 0x1F44 DUP2 PUSH0 ADD MLOAD CALLER DUP7 PUSH1 0xC0 ADD MLOAD DUP9 PUSH2 0x38B5 JUMP JUMPDEST POP POP POP POP POP POP POP JUMP JUMPDEST PUSH4 0x409FEECD NOT DUP1 SLOAD PUSH1 0x3 DUP3 SSTORE DUP1 ISZERO PUSH2 0x1F83 JUMPI PUSH1 0x1 DUP2 PUSH1 0x1 SHR EQ ADDRESS EXTCODESIZE LT PUSH2 0x1F7A JUMPI PUSH4 0xF92EE8A9 PUSH0 MSTORE PUSH1 0x4 PUSH1 0x1C REVERT JUMPDEST DUP2 DUP2 PUSH1 0xFF SHL SHL SWAP2 POP JUMPDEST POP PUSH2 0x1F8D DUP3 PUSH2 0x390E JUMP JUMPDEST DUP1 ISZERO PUSH2 0xB33 JUMPI PUSH1 0x2 DUP2 SSTORE PUSH1 0x1 PUSH1 0x20 MSTORE PUSH32 0xC7F505B2F371AE2175EE4913F4499E1F2633A7B5936321EED1CDAEB6115181D2 PUSH1 0x20 DUP1 LOG1 POP POP JUMP JUMPDEST PUSH2 0x1FCD PUSH2 0x264B JUMP JUMPDEST PUSH2 0x1FD5 PUSH2 0x266F JUMP JUMPDEST PUSH2 0x1FDD PUSH2 0x269A JUMP JUMPDEST PUSH2 0x1FE5 PUSH2 0x26E2 JUMP JUMPDEST PUSH1 0xD SLOAD PUSH2 0x2002 SWAP1 DUP7 SWAP1 DUP7 SWAP1 DUP7 SWAP1 PUSH1 0x1 PUSH1 0x1 PUSH1 0xA0 SHL SUB AND DUP7 DUP7 PUSH2 0x3B32 JUMP JUMPDEST PUSH2 0x200B DUP4 PUSH2 0x2703 JUMP JUMPDEST PUSH2 0x1B13 DUP6 DUP6 DUP6 PUSH2 0x27B6 JUMP JUMPDEST PUSH1 0xC SLOAD PUSH1 0x1 PUSH1 0x1 PUSH1 0xA0 SHL SUB AND CALLER EQ PUSH2 0x2041 JUMPI PUSH1 0x40 MLOAD PUSH4 0x1634F9A3 PUSH1 0xE3 SHL DUP2 MSTORE PUSH1 0x4 ADD PUSH1 0x40 MLOAD DUP1 SWAP2 SUB SWAP1 REVERT JUMPDEST PUSH1 0x40 DUP1 MLOAD PUSH1 0x1 PUSH1 0x1 PUSH1 0xA0 SHL SUB DUP1 DUP7 AND DUP3 MSTORE DUP5 AND PUSH1 0x20 DUP3 ADD MSTORE SWAP1 DUP2 ADD DUP3 SWAP1 MSTORE PUSH32 0xF24EF89F38EADC1BDE50701AD6E4D6D11A2DC24F7CF834A486991F3883328504 SWAP1 PUSH1 0x60 ADD PUSH1 0x40 MLOAD DUP1 SWAP2 SUB SWAP1 LOG1 PUSH2 0xB23 DUP3 DUP5 DUP4 PUSH2 0x3554 JUMP JUMPDEST PUSH1 0xA SLOAD PUSH1 0x1 PUSH1 0x1 PUSH1 0xA0 SHL SUB AND CALLER EQ PUSH2 0x20C2 JUMPI PUSH1 0x40 MLOAD PUSH4 0x1312F1F PUSH1 0xE1 SHL DUP2 MSTORE PUSH1 0x4 ADD PUSH1 0x40 MLOAD DUP1 SWAP2 SUB SWAP1 REVERT JUMPDEST PUSH2 0x20CA PUSH2 0x264B JUMP JUMPDEST PUSH2 0x20D2 PUSH2 0x266F JUMP JUMPDEST PUSH2 0x20DA PUSH2 0x383C JUMP JUMPDEST PUSH1 0x16 SLOAD PUSH1 0x17 DUP1 SLOAD PUSH1 0xFF PUSH1 0x80 SHL NOT AND PUSH1 0x1 PUSH1 0x80 SHL OR SWAP1 SSTORE PUSH1 0x40 MLOAD PUSH32 0x943552B21B3BCFB11BCB560653F2703FAF49C76AC2A791E285B130C0117678A SWAP1 PUSH0 SWAP1 LOG1 DUP1 ISZERO PUSH2 0x213A JUMPI PUSH0 PUSH1 0x16 SSTORE PUSH1 0x9 SLOAD PUSH2 0x213A SWAP1 PUSH1 0x1 PUSH1 0x1 PUSH1 0xA0 SHL SUB AND CALLER ADDRESS DUP5 PUSH2 0x38B5 JUMP JUMPDEST POP JUMP JUMPDEST PUSH2 0x2145 PUSH2 0x264B JUMP JUMPDEST PUSH2 0x214D PUSH2 0x266F JUMP JUMPDEST PUSH2 0x2155 PUSH2 0x3BFF JUMP JUMPDEST PUSH0 PUSH2 0x215F CALLER PUSH2 0x2E21 JUMP JUMPDEST ISZERO PUSH2 0x2178 JUMPI CALLER PUSH0 SWAP1 DUP2 MSTORE PUSH1 0x7 PUSH1 0x20 MSTORE PUSH1 0x40 SWAP1 KECCAK256 SLOAD PUSH2 0x2181 JUMP JUMPDEST PUSH2 0x2181 CALLER PUSH2 0x3C2C JUMP JUMPDEST SWAP1 POP PUSH2 0x218C DUP2 PUSH2 0x2E5B JUMP JUMPDEST PUSH2 0x2196 DUP4 DUP4 PUSH2 0x33EF JUMP JUMPDEST PUSH2 0x219F DUP2 PUSH2 0x366C JUMP JUMPDEST PUSH0 DUP2 DUP2 MSTORE PUSH1 0x18 PUSH1 0x20 MSTORE PUSH1 0x40 DUP2 KECCAK256 PUSH1 0x13 DUP1 SLOAD SWAP2 SWAP3 DUP10 SWAP3 PUSH2 0x21BF SWAP1 DUP5 SWAP1 PUSH2 0x4E1B JUMP JUMPDEST SWAP3 POP POP DUP2 SWAP1 SSTORE POP DUP7 DUP2 PUSH1 0x1 ADD PUSH0 DUP3 DUP3 SLOAD PUSH2 0x21D9 SWAP2 SWAP1 PUSH2 0x4E1B JUMP JUMPDEST SWAP1 SWAP2 SSTORE POP POP CALLER PUSH0 SWAP1 DUP2 MSTORE PUSH1 0x19 PUSH1 0x20 MSTORE PUSH1 0x40 SWAP1 DUP2 SWAP1 KECCAK256 SWAP1 MLOAD PUSH1 0x1 SWAP2 SWAP1 PUSH2 0x2201 SWAP1 DUP8 SWAP1 DUP8 SWAP1 PUSH2 0x4D10 JUMP JUMPDEST SWAP1 DUP2 MSTORE PUSH1 0x40 MLOAD SWAP1 DUP2 SWAP1 SUB PUSH1 0x20 ADD SWAP1 KECCAK256 DUP1 SLOAD SWAP2 ISZERO ISZERO PUSH1 0xFF NOT SWAP1 SWAP3 AND SWAP2 SWAP1 SWAP2 OR SWAP1 SSTORE PUSH2 0x222C DUP7 DUP7 DUP5 PUSH2 0x31A1 JUMP JUMPDEST PUSH2 0x2238 DUP5 DUP5 DUP5 PUSH0 PUSH2 0x31D7 JUMP JUMPDEST PUSH1 0x40 DUP1 MLOAD DUP9 DUP2 MSTORE CALLER PUSH1 0x20 DUP3 ADD MSTORE SWAP1 DUP2 ADD DUP4 SWAP1 MSTORE PUSH32 0x4043C8D45EB629E6B7F94BF2F65C2A7756F860BBE48747C7BC599CA0353B4798 SWAP1 PUSH1 0x60 ADD PUSH1 0x40 MLOAD DUP1 SWAP2 SUB SWAP1 LOG1 PUSH1 0x9 SLOAD PUSH2 0x1F44 SWAP1 PUSH1 0x1 PUSH1 0x1 PUSH1 0xA0 SHL SUB AND CALLER ADDRESS DUP11 PUSH2 0x38B5 JUMP JUMPDEST PUSH1 0xA SLOAD PUSH1 0x1 PUSH1 0x1 PUSH1 0xA0 SHL SUB AND CALLER EQ DUP1 ISZERO SWAP1 PUSH2 0x22B6 JUMPI POP PUSH1 0xC SLOAD PUSH1 0x1 PUSH1 0x1 PUSH1 0xA0 SHL SUB AND CALLER EQ ISZERO JUMPDEST ISZERO PUSH2 0x22D4 JUMPI PUSH1 0x40 MLOAD PUSH4 0x10AD0BA1 PUSH1 0xE3 SHL DUP2 MSTORE PUSH1 0x4 ADD PUSH1 0x40 MLOAD DUP1 SWAP2 SUB SWAP1 REVERT JUMPDEST PUSH2 0x22DC PUSH2 0x264B JUMP JUMPDEST PUSH2 0x22E4 PUSH2 0x266F JUMP JUMPDEST PUSH2 0x22EC PUSH2 0x3BFF JUMP JUMPDEST PUSH1 0x17 DUP1 SLOAD PUSH1 0x1 PUSH1 0x1 PUSH1 0x40 SHL SUB TIMESTAMP DUP2 DUP2 AND PUSH19 0xFF00000000000000000000FFFFFFFFFFFFFFFF NOT SWAP1 SWAP4 AND SWAP3 SWAP1 SWAP3 OR PUSH1 0x1 PUSH1 0x90 SHL OR SWAP1 SWAP3 SSTORE PUSH1 0xF SLOAD PUSH2 0x2337 SWAP3 PUSH1 0x1 PUSH1 0xA0 SHL SWAP1 SWAP2 DIV AND SWAP1 PUSH2 0x4E2E JUMP JUMPDEST PUSH1 0x17 DUP1 SLOAD PUSH1 0x1 PUSH1 0x1 PUSH1 0x40 SHL SUB SWAP3 SWAP1 SWAP3 AND PUSH1 0x1 PUSH1 0x40 SHL MUL PUSH16 0xFFFFFFFFFFFFFFFF0000000000000000 NOT SWAP1 SWAP3 AND SWAP2 SWAP1 SWAP2 OR SWAP1 SSTORE PUSH1 0x40 MLOAD PUSH32 0xBD8A3EB532E5FBCD3F5B00335F0FB42FDC11969E9AF0FAB7C9E71A36AE0D31A SWAP1 PUSH0 SWAP1 LOG1 JUMP JUMPDEST PUSH1 0xA SLOAD PUSH1 0x1 PUSH1 0x1 PUSH1 0xA0 SHL SUB AND CALLER EQ PUSH2 0x23BD JUMPI PUSH1 0x40 MLOAD PUSH4 0x1312F1F PUSH1 0xE1 SHL DUP2 MSTORE PUSH1 0x4 ADD PUSH1 0x40 MLOAD DUP1 SWAP2 SUB SWAP1 REVERT JUMPDEST PUSH2 0x23C5 PUSH2 0x264B JUMP JUMPDEST PUSH2 0x23CD PUSH2 0x266F JUMP JUMPDEST PUSH2 0x23D5 PUSH2 0x269A JUMP JUMPDEST PUSH2 0x23DD PUSH2 0x3C69 JUMP JUMPDEST PUSH1 0x14 SLOAD PUSH1 0x16 DUP2 SWAP1 SSTORE PUSH1 0x40 DUP1 MLOAD PUSH2 0x180 DUP2 ADD DUP3 MSTORE PUSH1 0x9 SLOAD PUSH1 0x1 PUSH1 0x1 PUSH1 0xA0 SHL SUB SWAP1 DUP2 AND DUP3 MSTORE PUSH1 0xA SLOAD DUP2 AND PUSH1 0x20 DUP4 ADD MSTORE PUSH1 0xB SLOAD DUP2 AND SWAP3 DUP3 ADD SWAP3 SWAP1 SWAP3 MSTORE PUSH1 0xC SLOAD DUP3 AND PUSH1 0x60 DUP3 ADD MSTORE PUSH1 0xD SLOAD DUP3 AND PUSH1 0x80 DUP3 ADD MSTORE PUSH1 0xE SLOAD DUP3 AND PUSH1 0xA0 DUP3 ADD MSTORE PUSH1 0xF SLOAD SWAP2 DUP3 AND PUSH1 0xC0 DUP3 ADD MSTORE PUSH1 0x1 PUSH1 0x1 PUSH1 0x40 SHL SUB PUSH1 0x1 PUSH1 0xA0 SHL DUP4 DIV AND PUSH1 0xE0 DUP3 ADD MSTORE PUSH2 0xFFFF PUSH1 0x1 PUSH1 0xE0 SHL DUP4 DIV DUP2 AND PUSH2 0x100 DUP4 ADD DUP2 SWAP1 MSTORE PUSH1 0x1 PUSH1 0xF0 SHL SWAP1 SWAP4 DIV DUP2 AND PUSH2 0x120 DUP4 ADD MSTORE PUSH1 0x10 SLOAD DUP1 DUP3 AND PUSH2 0x140 DUP5 ADD MSTORE PUSH3 0x10000 SWAP1 DIV AND PUSH2 0x160 DUP3 ADD MSTORE SWAP1 PUSH0 SWAP1 PUSH2 0x2710 SWAP1 PUSH2 0x24A3 SWAP1 DUP6 SWAP1 PUSH2 0x4D33 JUMP JUMPDEST PUSH2 0x24AD SWAP2 SWAP1 PUSH2 0x4D4A JUMP JUMPDEST SWAP1 POP PUSH0 PUSH2 0x2710 PUSH2 0xFFFF AND DUP5 DUP5 PUSH2 0x140 ADD MLOAD PUSH2 0xFFFF AND PUSH2 0x24CC SWAP2 SWAP1 PUSH2 0x4D33 JUMP JUMPDEST PUSH2 0x24D6 SWAP2 SWAP1 PUSH2 0x4D4A JUMP JUMPDEST SWAP1 POP PUSH32 0x3AE35A082057A5BE9E6D5F35595C7AF95C80661EBF74FDBB3790F6EF55C75E4F DUP5 PUSH1 0x40 MLOAD PUSH2 0x2509 SWAP2 DUP2 MSTORE PUSH1 0x20 ADD SWAP1 JUMP JUMPDEST PUSH1 0x40 MLOAD DUP1 SWAP2 SUB SWAP1 LOG1 DUP3 MLOAD PUSH2 0x2532 SWAP1 CALLER DUP4 PUSH2 0x2523 DUP7 DUP10 PUSH2 0x4DA3 JUMP JUMPDEST PUSH2 0x252D SWAP2 SWAP1 PUSH2 0x4DA3 JUMP JUMPDEST PUSH2 0x3554 JUMP JUMPDEST DUP2 ISZERO PUSH2 0x254A JUMPI PUSH2 0x254A DUP4 PUSH0 ADD MLOAD DUP5 PUSH1 0xA0 ADD MLOAD DUP5 PUSH2 0x3554 JUMP JUMPDEST DUP1 ISZERO PUSH2 0x2562 JUMPI PUSH2 0x2562 DUP4 PUSH0 ADD MLOAD DUP5 PUSH1 0xC0 ADD MLOAD DUP4 PUSH2 0x3554 JUMP JUMPDEST POP POP POP POP JUMP JUMPDEST PUSH2 0x2570 PUSH2 0x264B JUMP JUMPDEST PUSH2 0x2578 PUSH2 0x3D45 JUMP JUMPDEST PUSH0 PUSH2 0x2582 CALLER PUSH2 0x2E21 JUMP JUMPDEST SWAP1 POP PUSH2 0x258D DUP2 PUSH2 0x2E3B JUMP JUMPDEST PUSH2 0x2596 DUP2 PUSH2 0x2E5B JUMP JUMPDEST PUSH0 DUP2 DUP2 MSTORE PUSH1 0x18 PUSH1 0x20 MSTORE PUSH1 0x40 DUP2 KECCAK256 PUSH1 0x1 ADD SLOAD SWAP1 DUP2 SWAP1 SUB PUSH2 0x25CA JUMPI PUSH1 0x40 MLOAD PUSH4 0x42FE4597 PUSH1 0xE0 SHL DUP2 MSTORE PUSH0 PUSH1 0x4 DUP3 ADD MSTORE PUSH1 0x24 ADD PUSH2 0x1B9B JUMP JUMPDEST PUSH0 DUP3 DUP2 MSTORE PUSH1 0x18 PUSH1 0x20 MSTORE PUSH1 0x40 DUP2 KECCAK256 PUSH1 0x1 ADD DUP2 SWAP1 SSTORE PUSH1 0x13 DUP1 SLOAD DUP4 SWAP3 SWAP1 PUSH2 0x25EF SWAP1 DUP5 SWAP1 PUSH2 0x4DA3 JUMP JUMPDEST SWAP1 SWAP2 SSTORE POP POP PUSH1 0x40 DUP1 MLOAD DUP3 DUP2 MSTORE CALLER PUSH1 0x20 DUP3 ADD MSTORE SWAP1 DUP2 ADD DUP4 SWAP1 MSTORE PUSH32 0xDA124931709A9DE02389DE043BD0BE501CC2A5D726A4C49AC615AEBDD41B2967 SWAP1 PUSH1 0x60 ADD PUSH1 0x40 MLOAD DUP1 SWAP2 SUB SWAP1 LOG1 PUSH1 0x9 SLOAD PUSH2 0xB33 SWAP1 PUSH1 0x1 PUSH1 0x1 PUSH1 0xA0 SHL SUB AND CALLER DUP4 PUSH2 0x3554 JUMP JUMPDEST PUSH1 0x8 SLOAD PUSH1 0xFF AND ISZERO PUSH2 0xB6A JUMPI PUSH1 0x40 MLOAD PUSH4 0xD93C0665 PUSH1 0xE0 SHL DUP2 MSTORE PUSH1 0x4 ADD PUSH1 0x40 MLOAD DUP1 SWAP2 SUB SWAP1 REVERT JUMPDEST PUSH1 0x17 SLOAD PUSH1 0x1 PUSH1 0x80 SHL SWAP1 DIV PUSH1 0xFF AND ISZERO PUSH2 0xB6A JUMPI PUSH1 0x40 MLOAD PUSH4 0x26C4177D PUSH1 0xE0 SHL DUP2 MSTORE PUSH1 0x4 ADD PUSH1 0x40 MLOAD DUP1 SWAP2 SUB SWAP1 REVERT JUMPDEST PUSH1 0x17 SLOAD PUSH1 0x1 PUSH1 0x40 SHL SWAP1 DIV PUSH1 0x1 PUSH1 0x1 PUSH1 0x40 SHL SUB AND DUP1 ISZERO DUP1 ISZERO SWAP1 PUSH2 0x26BB JUMPI POP DUP1 TIMESTAMP LT JUMPDEST ISZERO PUSH2 0x213A JUMPI PUSH1 0x40 MLOAD PUSH4 0xA0E0999 PUSH1 0xE0 SHL DUP2 MSTORE TIMESTAMP PUSH1 0x4 DUP3 ADD MSTORE PUSH1 0x24 DUP2 ADD DUP3 SWAP1 MSTORE PUSH1 0x44 ADD PUSH2 0x1B9B JUMP JUMPDEST PUSH1 0x15 SLOAD ISZERO PUSH2 0xB6A JUMPI PUSH1 0x40 MLOAD PUSH4 0x1E557C25 PUSH1 0xE2 SHL DUP2 MSTORE PUSH1 0x4 ADD PUSH1 0x40 MLOAD DUP1 SWAP2 SUB SWAP1 REVERT JUMPDEST PUSH0 DUP2 DUP2 MSTORE PUSH1 0x18 PUSH1 0x20 SWAP1 DUP2 MSTORE PUSH1 0x40 SWAP2 DUP3 SWAP1 KECCAK256 DUP3 MLOAD PUSH1 0xE0 DUP2 ADD DUP5 MSTORE DUP2 SLOAD PUSH1 0x1 PUSH1 0x1 PUSH1 0xA0 SHL SUB AND DUP2 MSTORE PUSH1 0x1 DUP3 ADD SLOAD SWAP3 DUP2 ADD SWAP3 SWAP1 SWAP3 MSTORE PUSH1 0x2 DUP2 ADD SLOAD SWAP3 DUP3 ADD SWAP3 SWAP1 SWAP3 MSTORE PUSH1 0x3 DUP3 ADD SLOAD PUSH1 0x60 DUP3 ADD MSTORE PUSH1 0x4 SWAP1 SWAP2 ADD SLOAD PUSH1 0xFF DUP1 DUP3 AND ISZERO ISZERO PUSH1 0x80 DUP5 ADD MSTORE PUSH2 0x100 DUP3 DIV DUP2 AND ISZERO ISZERO PUSH1 0xA0 DUP5 ADD DUP2 SWAP1 MSTORE PUSH3 0x10000 SWAP1 SWAP3 DIV AND ISZERO ISZERO PUSH1 0xC0 DUP4 ADD MSTORE DUP1 PUSH2 0x2788 JUMPI POP DUP1 PUSH1 0xC0 ADD MLOAD JUMPDEST DUP1 PUSH2 0x2795 JUMPI POP DUP1 PUSH1 0x80 ADD MLOAD ISZERO JUMPDEST ISZERO PUSH2 0xB33 JUMPI PUSH1 0x40 MLOAD PUSH4 0x141664FF PUSH1 0xE2 SHL DUP2 MSTORE PUSH1 0x4 DUP2 ADD DUP4 SWAP1 MSTORE PUSH1 0x24 ADD PUSH2 0x1B9B JUMP JUMPDEST PUSH1 0x1 PUSH1 0x1 PUSH1 0xA0 SHL SUB DUP3 AND PUSH0 SWAP1 DUP2 MSTORE PUSH1 0x7 PUSH1 0x20 MSTORE PUSH1 0x40 SWAP1 KECCAK256 SLOAD DUP1 ISZERO PUSH2 0x2946 JUMPI PUSH0 DUP3 DUP2 MSTORE PUSH1 0x18 PUSH1 0x20 DUP2 DUP2 MSTORE PUSH1 0x40 DUP1 DUP5 KECCAK256 DUP2 MLOAD PUSH1 0xE0 DUP2 ADD DUP4 MSTORE DUP2 SLOAD PUSH1 0x1 PUSH1 0x1 PUSH1 0xA0 SHL SUB AND DUP2 MSTORE PUSH1 0x1 DUP3 ADD SLOAD DUP2 DUP6 ADD MSTORE PUSH1 0x2 DUP3 ADD SLOAD DUP2 DUP5 ADD MSTORE PUSH1 0x3 DUP3 ADD SLOAD PUSH1 0x60 DUP3 ADD MSTORE PUSH1 0x4 SWAP2 DUP3 ADD SLOAD PUSH1 0xFF DUP1 DUP3 AND ISZERO ISZERO PUSH1 0x80 DUP5 ADD MSTORE PUSH2 0x100 DUP1 DUP4 DIV DUP3 AND ISZERO ISZERO PUSH1 0xA0 DUP6 ADD MSTORE PUSH3 0x10000 SWAP1 SWAP3 DIV DUP2 AND ISZERO ISZERO PUSH1 0xC0 DUP5 ADD MSTORE DUP9 DUP9 MSTORE SWAP6 SWAP1 SWAP5 MSTORE SWAP2 SWAP1 SWAP5 KECCAK256 SWAP4 DUP5 ADD SLOAD SWAP1 SWAP4 SWAP3 SWAP2 SWAP1 DIV AND DUP1 PUSH2 0x2871 JUMPI POP PUSH1 0x4 DUP2 ADD SLOAD PUSH3 0x10000 SWAP1 DIV PUSH1 0xFF AND JUMPDEST DUP1 PUSH2 0x2881 JUMPI POP PUSH1 0x4 DUP2 ADD SLOAD PUSH1 0xFF AND ISZERO JUMPDEST ISZERO PUSH2 0x28A2 JUMPI PUSH1 0x40 MLOAD PUSH4 0xA1504F3B PUSH1 0xE0 SHL DUP2 MSTORE PUSH1 0x4 DUP2 ADD DUP5 SWAP1 MSTORE PUSH1 0x24 ADD PUSH2 0x1B9B JUMP JUMPDEST DUP2 PUSH1 0x20 ADD MLOAD DUP2 PUSH1 0x1 ADD PUSH0 DUP3 DUP3 SLOAD PUSH2 0x28B9 SWAP2 SWAP1 PUSH2 0x4E1B JUMP JUMPDEST SWAP1 SWAP2 SSTORE POP POP PUSH1 0x60 DUP3 ADD MLOAD PUSH1 0x3 DUP3 ADD DUP1 SLOAD PUSH0 SWAP1 PUSH2 0x28D6 SWAP1 DUP5 SWAP1 PUSH2 0x4E1B JUMP JUMPDEST SWAP1 SWAP2 SSTORE POP POP PUSH1 0x40 DUP3 ADD MLOAD PUSH1 0x2 DUP3 ADD DUP1 SLOAD PUSH0 SWAP1 PUSH2 0x28F3 SWAP1 DUP5 SWAP1 PUSH2 0x4E1B JUMP JUMPDEST SWAP1 SWAP2 SSTORE POP POP PUSH0 DUP5 DUP2 MSTORE PUSH1 0x18 PUSH1 0x20 MSTORE PUSH1 0x40 DUP2 KECCAK256 DUP1 SLOAD PUSH1 0x1 PUSH1 0x1 PUSH1 0xA0 SHL SUB NOT AND DUP2 SSTORE PUSH1 0x1 DUP2 ADD DUP3 SWAP1 SSTORE PUSH1 0x2 DUP2 ADD DUP3 SWAP1 SSTORE PUSH1 0x3 DUP2 ADD SWAP2 SWAP1 SWAP2 SSTORE PUSH1 0x4 ADD DUP1 SLOAD PUSH3 0xFFFFFF NOT AND SWAP1 SSTORE PUSH2 0x293F DUP7 PUSH2 0x3D6F JUMP JUMPDEST POP POP PUSH2 0x2562 JUMP JUMPDEST PUSH2 0x2562 DUP5 DUP5 DUP5 PUSH2 0x3DAA JUMP JUMPDEST PUSH0 NOT PUSH1 0x60 SHR DUP3 DUP2 AND SWAP3 POP DUP4 DUP2 AND SWAP4 POP DUP2 PUSH0 MSTORE DUP4 PUSH8 0x3EC412A9852D173D PUSH1 0xC1 SHL OR PUSH1 0x1C MSTORE PUSH1 0x20 PUSH0 KECCAK256 DUP3 ADD DUP3 ADD DUP1 SLOAD DUP3 AND SWAP2 POP DUP2 PUSH2 0x2994 JUMPI PUSH4 0xCEEA21B6 PUSH0 MSTORE PUSH1 0x4 PUSH1 0x1C REVERT JUMPDEST DUP2 DUP6 EQ DUP6 ISZERO OR PUSH2 0x29B8 JUMPI DUP2 PUSH0 MSTORE PUSH1 0x30 PUSH1 0xC KECCAK256 SLOAD PUSH2 0x29B8 JUMPI PUSH4 0x4B6E7F18 PUSH0 MSTORE PUSH1 0x4 PUSH1 0x1C REVERT JUMPDEST PUSH1 0x1 ADD DUP4 SWAP1 SSTORE DUP2 DUP4 DUP3 PUSH32 0x8C5BE1E5EBEC7D5BD14F71427D1E84F3DD0314C0F7B2291E5B200AC8C7C3B925 PUSH0 CODESIZE LOG4 POP POP POP POP JUMP JUMPDEST PUSH1 0xB SLOAD PUSH1 0x40 MLOAD PUSH4 0x970559CF PUSH1 0xE0 SHL DUP2 MSTORE PUSH14 0x2622A3A4A7A72FA127AAA721A2A9 PUSH1 0x91 SHL PUSH1 0x4 DUP3 ADD MSTORE PUSH1 0x1 PUSH1 0x1 PUSH1 0xA0 SHL SUB SWAP1 SWAP2 AND SWAP1 PUSH4 0x970559CF SWAP1 PUSH1 0x24 ADD PUSH1 0x20 PUSH1 0x40 MLOAD DUP1 DUP4 SUB DUP2 DUP7 GAS STATICCALL ISZERO DUP1 ISZERO PUSH2 0x2A42 JUMPI RETURNDATASIZE PUSH0 PUSH0 RETURNDATACOPY RETURNDATASIZE PUSH0 REVERT JUMPDEST POP POP POP POP PUSH1 0x40 MLOAD RETURNDATASIZE PUSH1 0x1F NOT PUSH1 0x1F DUP3 ADD AND DUP3 ADD DUP1 PUSH1 0x40 MSTORE POP DUP2 ADD SWAP1 PUSH2 0x2A66 SWAP2 SWAP1 PUSH2 0x4E4D JUMP JUMPDEST PUSH1 0xC DUP1 SLOAD PUSH1 0x1 PUSH1 0x1 PUSH1 0xA0 SHL SUB NOT AND PUSH1 0x1 PUSH1 0x1 PUSH1 0xA0 SHL SUB SWAP3 DUP4 AND OR SWAP1 SSTORE PUSH1 0xB SLOAD PUSH1 0x40 MLOAD PUSH4 0x970559CF PUSH1 0xE0 SHL DUP2 MSTORE PUSH13 0x2622A3A4A7A72FA9A4A3A722A9 PUSH1 0x99 SHL PUSH1 0x4 DUP3 ADD MSTORE SWAP2 AND SWAP1 PUSH4 0x970559CF SWAP1 PUSH1 0x24 ADD PUSH1 0x20 PUSH1 0x40 MLOAD DUP1 DUP4 SUB DUP2 DUP7 GAS STATICCALL ISZERO DUP1 ISZERO PUSH2 0x2ACF JUMPI RETURNDATASIZE PUSH0 PUSH0 RETURNDATACOPY RETURNDATASIZE PUSH0 REVERT JUMPDEST POP POP POP POP PUSH1 0x40 MLOAD RETURNDATASIZE PUSH1 0x1F NOT PUSH1 0x1F DUP3 ADD AND DUP3 ADD DUP1 PUSH1 0x40 MSTORE POP DUP2 ADD SWAP1 PUSH2 0x2AF3 SWAP2 SWAP1 PUSH2 0x4E4D JUMP JUMPDEST PUSH1 0xD DUP1 SLOAD PUSH1 0x1 PUSH1 0x1 PUSH1 0xA0 SHL SUB NOT AND PUSH1 0x1 PUSH1 0x1 PUSH1 0xA0 SHL SUB SWAP3 DUP4 AND OR SWAP1 SSTORE PUSH1 0xB SLOAD PUSH1 0x40 MLOAD PUSH4 0x970559CF PUSH1 0xE0 SHL DUP2 MSTORE PUSH19 0x2622A3A4A7A72FA322A2AFA922A1A2A4AB22A9 PUSH1 0x69 SHL PUSH1 0x4 DUP3 ADD MSTORE SWAP2 AND SWAP1 PUSH4 0x970559CF SWAP1 PUSH1 0x24 ADD PUSH1 0x20 PUSH1 0x40 MLOAD DUP1 DUP4 SUB DUP2 DUP7 GAS STATICCALL ISZERO DUP1 ISZERO PUSH2 0x2B62 JUMPI RETURNDATASIZE PUSH0 PUSH0 RETURNDATACOPY RETURNDATASIZE PUSH0 REVERT JUMPDEST POP POP POP POP PUSH1 0x40 MLOAD RETURNDATASIZE PUSH1 0x1F NOT PUSH1 0x1F DUP3 ADD AND DUP3 ADD DUP1 PUSH1 0x40 MSTORE POP DUP2 ADD SWAP1 PUSH2 0x2B86 SWAP2 SWAP1 PUSH2 0x4E4D JUMP JUMPDEST PUSH1 0xE DUP1 SLOAD PUSH1 0x1 PUSH1 0x1 PUSH1 0xA0 SHL SUB NOT AND PUSH1 0x1 PUSH1 0x1 PUSH1 0xA0 SHL SUB SWAP3 DUP4 AND OR SWAP1 SSTORE PUSH1 0xB SLOAD PUSH1 0x40 MLOAD PUSH4 0x970559CF PUSH1 0xE0 SHL DUP2 MSTORE PUSH22 0x4C4547494F4E5F56455354494E475F464143544F5259 PUSH1 0x50 SHL PUSH1 0x4 DUP3 ADD MSTORE SWAP2 AND SWAP1 PUSH4 0x970559CF SWAP1 PUSH1 0x24 ADD PUSH1 0x20 PUSH1 0x40 MLOAD DUP1 DUP4 SUB DUP2 DUP7 GAS STATICCALL ISZERO DUP1 ISZERO PUSH2 0x2BF8 JUMPI RETURNDATASIZE PUSH0 PUSH0 RETURNDATACOPY RETURNDATASIZE PUSH0 REVERT JUMPDEST POP POP POP POP PUSH1 0x40 MLOAD RETURNDATASIZE PUSH1 0x1F NOT PUSH1 0x1F DUP3 ADD AND DUP3 ADD DUP1 PUSH1 0x40 MSTORE POP DUP2 ADD SWAP1 PUSH2 0x2C1C SWAP2 SWAP1 PUSH2 0x4E4D JUMP JUMPDEST PUSH0 DUP1 SLOAD PUSH1 0x1 PUSH1 0x1 PUSH1 0xA0 SHL SUB NOT AND PUSH1 0x1 PUSH1 0x1 PUSH1 0xA0 SHL SUB SWAP3 DUP4 AND OR SWAP1 SSTORE PUSH1 0xB SLOAD PUSH1 0x40 MLOAD PUSH4 0x970559CF PUSH1 0xE0 SHL DUP2 MSTORE PUSH32 0x4C4547494F4E5F56455354494E475F434F4E54524F4C4C455200000000000000 PUSH1 0x4 DUP3 ADD MSTORE SWAP2 AND SWAP1 PUSH4 0x970559CF SWAP1 PUSH1 0x24 ADD PUSH1 0x20 PUSH1 0x40 MLOAD DUP1 DUP4 SUB DUP2 DUP7 GAS STATICCALL ISZERO DUP1 ISZERO PUSH2 0x2C94 JUMPI RETURNDATASIZE PUSH0 PUSH0 RETURNDATACOPY RETURNDATASIZE PUSH0 REVERT JUMPDEST POP POP POP POP PUSH1 0x40 MLOAD RETURNDATASIZE PUSH1 0x1F NOT PUSH1 0x1F DUP3 ADD AND DUP3 ADD DUP1 PUSH1 0x40 MSTORE POP DUP2 ADD SWAP1 PUSH2 0x2CB8 SWAP2 SWAP1 PUSH2 0x4E4D JUMP JUMPDEST PUSH1 0x1 DUP1 SLOAD PUSH1 0x1 PUSH1 0x1 PUSH1 0xA0 SHL SUB NOT AND PUSH1 0x1 PUSH1 0x1 PUSH1 0xA0 SHL SUB SWAP3 DUP4 AND SWAP1 DUP2 OR SWAP1 SWAP2 SSTORE PUSH1 0xC SLOAD PUSH1 0xD SLOAD PUSH1 0xE SLOAD PUSH0 SLOAD PUSH1 0x40 DUP1 MLOAD SWAP5 DUP8 AND DUP6 MSTORE SWAP3 DUP7 AND PUSH1 0x20 DUP6 ADD MSTORE SWAP1 DUP6 AND SWAP2 DUP4 ADD SWAP2 SWAP1 SWAP2 MSTORE SWAP1 SWAP3 AND PUSH1 0x60 DUP4 ADD MSTORE PUSH1 0x80 DUP3 ADD MSTORE PUSH32 0x4B02015C8D0E47CC44A723BC061ABDFA651FEFC86F2AC5387E9F992F732B3528 SWAP1 PUSH1 0xA0 ADD JUMPDEST PUSH1 0x40 MLOAD DUP1 SWAP2 SUB SWAP1 LOG1 JUMP JUMPDEST PUSH0 DUP2 DUP2 MSTORE PUSH1 0x2 PUSH1 0x20 MSTORE PUSH1 0x40 SWAP1 KECCAK256 SLOAD PUSH1 0xFF AND ISZERO PUSH2 0x2D6C JUMPI PUSH1 0x40 MLOAD PUSH4 0x3EAA5A65 PUSH1 0xE2 SHL DUP2 MSTORE PUSH1 0x4 DUP2 ADD DUP3 SWAP1 MSTORE PUSH1 0x24 ADD PUSH2 0x1B9B JUMP JUMPDEST DUP2 PUSH1 0x1 PUSH1 0x1 PUSH1 0xA0 SHL SUB AND DUP4 PUSH1 0x1 PUSH1 0x1 PUSH1 0xA0 SHL SUB AND SUB PUSH2 0xB23 JUMPI PUSH1 0x40 MLOAD PUSH4 0xA9F93FB9 PUSH1 0xE0 SHL DUP2 MSTORE PUSH1 0x4 DUP2 ADD DUP3 SWAP1 MSTORE PUSH1 0x24 ADD PUSH2 0x1B9B JUMP JUMPDEST PUSH1 0x1 PUSH1 0x1 PUSH1 0xA0 SHL SUB DUP4 AND ISZERO DUP1 ISZERO SWAP1 PUSH2 0x2DC1 JUMPI POP PUSH1 0x1 PUSH1 0x1 PUSH1 0xA0 SHL SUB DUP3 AND ISZERO ISZERO JUMPDEST ISZERO PUSH2 0x2DEC JUMPI PUSH1 0x1 PUSH1 0x1 PUSH1 0xA0 SHL SUB DUP1 DUP5 AND PUSH0 SWAP1 DUP2 MSTORE PUSH1 0x7 PUSH1 0x20 MSTORE PUSH1 0x40 DUP1 DUP3 KECCAK256 DUP3 SWAP1 SSTORE SWAP2 DUP5 AND DUP2 MSTORE KECCAK256 DUP2 SWAP1 SSTORE JUMPDEST PUSH2 0xB23 DUP4 DUP4 DUP4 PUSH2 0x3DBF JUMP JUMPDEST PUSH1 0x17 SLOAD PUSH1 0x1 PUSH1 0x88 SHL SWAP1 DIV PUSH1 0xFF AND PUSH2 0xB6A JUMPI PUSH1 0x40 MLOAD PUSH4 0x28B1BBFB PUSH1 0xE0 SHL DUP2 MSTORE PUSH1 0x4 ADD PUSH1 0x40 MLOAD DUP1 SWAP2 SUB SWAP1 REVERT JUMPDEST PUSH1 0x1 PUSH1 0x1 PUSH1 0xA0 SHL SUB AND PUSH0 SWAP1 DUP2 MSTORE PUSH1 0x7 PUSH1 0x20 MSTORE PUSH1 0x40 SWAP1 KECCAK256 SLOAD SWAP1 JUMP JUMPDEST DUP1 PUSH0 SUB PUSH2 0x213A JUMPI PUSH1 0x40 MLOAD PUSH4 0x60D1E17 PUSH1 0xE1 SHL DUP2 MSTORE PUSH1 0x4 ADD PUSH1 0x40 MLOAD DUP1 SWAP2 SUB SWAP1 REVERT JUMPDEST PUSH0 DUP2 DUP2 MSTORE PUSH1 0x18 PUSH1 0x20 MSTORE PUSH1 0x40 SWAP1 KECCAK256 PUSH1 0x4 ADD SLOAD PUSH2 0x100 SWAP1 DIV PUSH1 0xFF AND ISZERO PUSH2 0x213A JUMPI PUSH1 0x40 MLOAD PUSH4 0x29A96BB PUSH1 0xE0 SHL DUP2 MSTORE CALLER PUSH1 0x4 DUP3 ADD MSTORE PUSH1 0x24 ADD PUSH2 0x1B9B JUMP JUMPDEST PUSH2 0x2EA2 TIMESTAMP PUSH4 0x12BED400 PUSH2 0x4E1B JUMP JUMPDEST PUSH2 0x2EAF PUSH1 0x20 DUP4 ADD DUP4 PUSH2 0x4D88 JUMP JUMPDEST PUSH1 0x1 PUSH1 0x1 PUSH1 0x40 SHL SUB AND GT DUP1 PUSH2 0x2EDF JUMPI POP PUSH4 0x12BED400 PUSH2 0x2ED4 PUSH1 0x40 DUP4 ADD PUSH1 0x20 DUP5 ADD PUSH2 0x4D88 JUMP JUMPDEST PUSH1 0x1 PUSH1 0x1 PUSH1 0x40 SHL SUB AND GT JUMPDEST DUP1 PUSH2 0x2F19 JUMPI POP PUSH2 0x2EF5 PUSH1 0x40 DUP3 ADD PUSH1 0x20 DUP4 ADD PUSH2 0x4D88 JUMP JUMPDEST PUSH1 0x1 PUSH1 0x1 PUSH1 0x40 SHL SUB AND PUSH2 0x2F0E PUSH1 0x60 DUP4 ADD PUSH1 0x40 DUP5 ADD PUSH2 0x4D88 JUMP JUMPDEST PUSH1 0x1 PUSH1 0x1 PUSH1 0x40 SHL SUB AND GT JUMPDEST DUP1 PUSH2 0x2F43 JUMPI POP PUSH8 0xDE0B6B3A7640000 PUSH2 0x2F38 PUSH1 0xE0 DUP4 ADD PUSH1 0xC0 DUP5 ADD PUSH2 0x4D88 JUMP JUMPDEST PUSH1 0x1 PUSH1 0x1 PUSH1 0x40 SHL SUB AND GT JUMPDEST ISZERO PUSH2 0x3019 JUMPI PUSH2 0x2F58 PUSH1 0x80 DUP3 ADD PUSH1 0x60 DUP4 ADD PUSH2 0x4E76 JUMP JUMPDEST PUSH1 0x1 DUP2 GT ISZERO PUSH2 0x2F69 JUMPI PUSH2 0x2F69 PUSH2 0x4E8F JUMP JUMPDEST PUSH2 0x2F76 PUSH1 0x20 DUP4 ADD DUP4 PUSH2 0x4D88 JUMP JUMPDEST PUSH2 0x2F86 PUSH1 0x40 DUP5 ADD PUSH1 0x20 DUP6 ADD PUSH2 0x4D88 JUMP JUMPDEST PUSH2 0x2F96 PUSH1 0x60 DUP6 ADD PUSH1 0x40 DUP7 ADD PUSH2 0x4D88 JUMP JUMPDEST PUSH2 0x2FA6 PUSH1 0xA0 DUP7 ADD PUSH1 0x80 DUP8 ADD PUSH2 0x4D88 JUMP JUMPDEST PUSH2 0x2FB6 PUSH1 0xC0 DUP8 ADD PUSH1 0xA0 DUP9 ADD PUSH2 0x4D88 JUMP JUMPDEST PUSH2 0x2FC6 PUSH1 0xE0 DUP9 ADD PUSH1 0xC0 DUP10 ADD PUSH2 0x4D88 JUMP JUMPDEST PUSH1 0x40 MLOAD PUSH4 0x1BF09765 PUSH1 0xE0 SHL DUP2 MSTORE PUSH1 0xFF SWAP1 SWAP8 AND PUSH1 0x4 DUP9 ADD MSTORE PUSH1 0x1 PUSH1 0x1 PUSH1 0x40 SHL SUB SWAP6 DUP7 AND PUSH1 0x24 DUP9 ADD MSTORE SWAP4 DUP6 AND PUSH1 0x44 DUP8 ADD MSTORE SWAP2 DUP5 AND PUSH1 0x64 DUP7 ADD MSTORE DUP4 AND PUSH1 0x84 DUP6 ADD MSTORE DUP3 AND PUSH1 0xA4 DUP5 ADD MSTORE AND PUSH1 0xC4 DUP3 ADD MSTORE PUSH1 0xE4 ADD PUSH2 0x1B9B JUMP JUMPDEST PUSH1 0x1 PUSH2 0x302B PUSH1 0x80 DUP4 ADD PUSH1 0x60 DUP5 ADD PUSH2 0x4E76 JUMP JUMPDEST PUSH1 0x1 DUP2 GT ISZERO PUSH2 0x303C JUMPI PUSH2 0x303C PUSH2 0x4E8F JUMP JUMPDEST SUB PUSH2 0x213A JUMPI PUSH4 0x12BED400 PUSH2 0x3056 PUSH1 0xA0 DUP4 ADD PUSH1 0x80 DUP5 ADD PUSH2 0x4D88 JUMP JUMPDEST PUSH2 0x3066 PUSH1 0xC0 DUP5 ADD PUSH1 0xA0 DUP6 ADD PUSH2 0x4D88 JUMP JUMPDEST PUSH2 0x3070 SWAP2 SWAP1 PUSH2 0x4EA3 JUMP JUMPDEST PUSH1 0x1 PUSH1 0x1 PUSH1 0x40 SHL SUB AND GT DUP1 PUSH2 0x30CF JUMPI POP PUSH2 0x3090 PUSH1 0x40 DUP3 ADD PUSH1 0x20 DUP4 ADD PUSH2 0x4D88 JUMP JUMPDEST PUSH1 0x1 PUSH1 0x1 PUSH1 0x40 SHL SUB AND PUSH2 0x30A9 PUSH1 0xA0 DUP4 ADD PUSH1 0x80 DUP5 ADD PUSH2 0x4D88 JUMP JUMPDEST PUSH2 0x30B9 PUSH1 0xC0 DUP5 ADD PUSH1 0xA0 DUP6 ADD PUSH2 0x4D88 JUMP JUMPDEST PUSH2 0x30C3 SWAP2 SWAP1 PUSH2 0x4EA3 JUMP JUMPDEST PUSH1 0x1 PUSH1 0x1 PUSH1 0x40 SHL SUB AND EQ ISZERO JUMPDEST DUP1 PUSH2 0x30F5 JUMPI POP PUSH4 0x1DFE200 PUSH2 0x30EA PUSH1 0xA0 DUP4 ADD PUSH1 0x80 DUP5 ADD PUSH2 0x4D88 JUMP JUMPDEST PUSH1 0x1 PUSH1 0x1 PUSH1 0x40 SHL SUB AND GT JUMPDEST ISZERO PUSH2 0x213A JUMPI PUSH2 0x2F58 PUSH1 0x80 DUP3 ADD PUSH1 0x60 DUP4 ADD PUSH2 0x4E76 JUMP JUMPDEST PUSH0 DUP2 DUP2 MSTORE PUSH1 0x18 PUSH1 0x20 SWAP1 DUP2 MSTORE PUSH1 0x40 SWAP2 DUP3 SWAP1 KECCAK256 DUP3 MLOAD PUSH1 0xE0 DUP2 ADD DUP5 MSTORE DUP2 SLOAD PUSH1 0x1 PUSH1 0x1 PUSH1 0xA0 SHL SUB AND DUP2 MSTORE PUSH1 0x1 DUP3 ADD SLOAD SWAP3 DUP2 ADD SWAP3 SWAP1 SWAP3 MSTORE PUSH1 0x2 DUP2 ADD SLOAD SWAP3 DUP3 ADD SWAP3 SWAP1 SWAP3 MSTORE PUSH1 0x3 DUP3 ADD SLOAD PUSH1 0x60 DUP3 ADD MSTORE PUSH1 0x4 SWAP1 SWAP2 ADD SLOAD PUSH1 0xFF DUP1 DUP3 AND ISZERO ISZERO PUSH1 0x80 DUP5 ADD MSTORE PUSH2 0x100 DUP3 DIV DUP2 AND ISZERO ISZERO PUSH1 0xA0 DUP5 ADD MSTORE PUSH3 0x10000 SWAP1 SWAP2 DIV AND ISZERO DUP1 ISZERO PUSH1 0xC0 DUP4 ADD MSTORE PUSH2 0xB33 JUMPI PUSH1 0x40 MLOAD PUSH4 0xEDF08CE1 PUSH1 0xE0 SHL DUP2 MSTORE CALLER PUSH1 0x4 DUP3 ADD MSTORE PUSH1 0x24 ADD PUSH2 0x1B9B JUMP JUMPDEST PUSH0 DUP2 DUP2 MSTORE PUSH1 0x18 PUSH1 0x20 MSTORE PUSH1 0x40 SWAP1 KECCAK256 PUSH1 0x2 DUP2 ADD SLOAD DUP5 EQ PUSH2 0x31C1 JUMPI PUSH1 0x2 DUP2 ADD DUP5 SWAP1 SSTORE JUMPDEST DUP3 DUP2 PUSH1 0x3 ADD SLOAD EQ PUSH2 0x2562 JUMPI PUSH1 0x3 ADD SWAP2 SWAP1 SWAP2 SSTORE POP POP JUMP JUMPDEST PUSH0 DUP3 DUP2 MSTORE PUSH1 0x18 PUSH1 0x20 SWAP1 DUP2 MSTORE PUSH1 0x40 SWAP2 DUP3 SWAP1 KECCAK256 DUP3 MLOAD PUSH1 0xE0 DUP2 ADD DUP5 MSTORE DUP2 SLOAD PUSH1 0x1 PUSH1 0x1 PUSH1 0xA0 SHL SUB AND DUP2 MSTORE PUSH1 0x1 DUP3 ADD SLOAD SWAP3 DUP2 ADD DUP4 SWAP1 MSTORE PUSH1 0x2 DUP3 ADD SLOAD SWAP4 DUP2 ADD DUP5 SWAP1 MSTORE PUSH1 0x3 DUP3 ADD SLOAD PUSH1 0x60 DUP3 ADD MSTORE PUSH1 0x4 SWAP1 SWAP2 ADD SLOAD PUSH1 0xFF DUP1 DUP3 AND ISZERO ISZERO PUSH1 0x80 DUP5 ADD MSTORE PUSH2 0x100 DUP3 DIV DUP2 AND ISZERO ISZERO PUSH1 0xA0 DUP5 ADD MSTORE PUSH3 0x10000 SWAP1 SWAP2 DIV AND ISZERO ISZERO PUSH1 0xC0 DUP3 ADD MSTORE SWAP2 EQ PUSH2 0x326D JUMPI PUSH1 0x40 MLOAD PUSH4 0xDC240AC1 PUSH1 0xE0 SHL DUP2 MSTORE CALLER PUSH1 0x4 DUP3 ADD MSTORE PUSH1 0x24 ADD PUSH2 0x1B9B JUMP JUMPDEST PUSH0 PUSH2 0x32DA CALLER ADDRESS DUP5 PUSH1 0x40 ADD MLOAD DUP6 PUSH1 0x60 ADD MLOAD DUP8 PUSH1 0x40 MLOAD PUSH1 0x20 ADD PUSH2 0x3292 SWAP6 SWAP5 SWAP4 SWAP3 SWAP2 SWAP1 PUSH2 0x4EC5 JUMP JUMPDEST PUSH1 0x40 MLOAD PUSH1 0x20 DUP2 DUP4 SUB SUB DUP2 MSTORE SWAP1 PUSH1 0x40 MSTORE DUP1 MLOAD SWAP1 PUSH1 0x20 ADD KECCAK256 PUSH32 0x19457468657265756D205369676E6564204D6573736167653A0A333200000000 PUSH0 SWAP1 DUP2 MSTORE PUSH1 0x1C SWAP2 SWAP1 SWAP2 MSTORE PUSH1 0x3C SWAP1 KECCAK256 SWAP1 JUMP JUMPDEST PUSH1 0xD SLOAD PUSH1 0x40 DUP1 MLOAD PUSH1 0x20 PUSH1 0x1F DUP11 ADD DUP2 SWAP1 DIV DUP2 MUL DUP3 ADD DUP2 ADD SWAP1 SWAP3 MSTORE DUP9 DUP2 MSTORE SWAP3 SWAP4 POP PUSH1 0x1 PUSH1 0x1 PUSH1 0xA0 SHL SUB SWAP1 SWAP2 AND SWAP2 PUSH2 0x332B SWAP2 DUP10 SWAP1 DUP10 SWAP1 DUP2 SWAP1 DUP5 ADD DUP4 DUP3 DUP1 DUP3 DUP5 CALLDATACOPY PUSH0 SWAP3 ADD SWAP2 SWAP1 SWAP2 MSTORE POP DUP7 SWAP4 SWAP3 POP POP PUSH2 0x3DCA SWAP1 POP JUMP JUMPDEST PUSH1 0x1 PUSH1 0x1 PUSH1 0xA0 SHL SUB AND EQ PUSH2 0x1242 JUMPI DUP6 DUP6 PUSH1 0x40 MLOAD PUSH4 0x3DD7420B PUSH1 0xE1 SHL DUP2 MSTORE PUSH1 0x4 ADD PUSH2 0x1B9B SWAP3 SWAP2 SWAP1 PUSH2 0x4F26 JUMP JUMPDEST PUSH0 PUSH2 0x3373 CALLER ADDRESS CHAINID DUP7 DUP7 PUSH1 0x40 MLOAD PUSH1 0x20 ADD PUSH2 0x3292 SWAP6 SWAP5 SWAP4 SWAP3 SWAP2 SWAP1 PUSH2 0x4F68 JUMP JUMPDEST PUSH1 0xD SLOAD PUSH1 0x40 DUP1 MLOAD PUSH1 0x20 PUSH1 0x1F DUP10 ADD DUP2 SWAP1 DIV DUP2 MUL DUP3 ADD DUP2 ADD SWAP1 SWAP3 MSTORE DUP8 DUP2 MSTORE SWAP3 SWAP4 POP PUSH1 0x1 PUSH1 0x1 PUSH1 0xA0 SHL SUB SWAP1 SWAP2 AND SWAP2 PUSH2 0x33C4 SWAP2 DUP9 SWAP1 DUP9 SWAP1 DUP2 SWAP1 DUP5 ADD DUP4 DUP3 DUP1 DUP3 DUP5 CALLDATACOPY PUSH0 SWAP3 ADD SWAP2 SWAP1 SWAP2 MSTORE POP DUP7 SWAP4 SWAP3 POP POP PUSH2 0x3DCA SWAP1 POP JUMP JUMPDEST PUSH1 0x1 PUSH1 0x1 PUSH1 0xA0 SHL SUB AND EQ PUSH2 0x1B13 JUMPI DUP5 DUP5 PUSH1 0x40 MLOAD PUSH4 0x3DD7420B PUSH1 0xE1 SHL DUP2 MSTORE PUSH1 0x4 ADD PUSH2 0x1B9B SWAP3 SWAP2 SWAP1 PUSH2 0x4F26 JUMP JUMPDEST CALLER PUSH0 SWAP1 DUP2 MSTORE PUSH1 0x19 PUSH1 0x20 MSTORE PUSH1 0x40 SWAP1 DUP2 SWAP1 KECCAK256 SWAP1 MLOAD PUSH2 0x340E SWAP1 DUP5 SWAP1 DUP5 SWAP1 PUSH2 0x4D10 JUMP JUMPDEST SWAP1 DUP2 MSTORE PUSH1 0x40 MLOAD SWAP1 DUP2 SWAP1 SUB PUSH1 0x20 ADD SWAP1 KECCAK256 SLOAD PUSH1 0xFF AND ISZERO PUSH2 0xB33 JUMPI DUP2 DUP2 PUSH1 0x40 MLOAD PUSH4 0x9E5B81A7 PUSH1 0xE0 SHL DUP2 MSTORE PUSH1 0x4 ADD PUSH2 0x1B9B SWAP3 SWAP2 SWAP1 PUSH2 0x4F26 JUMP JUMPDEST PUSH0 DUP1 PUSH2 0x3455 PUSH1 0x80 DUP6 ADD PUSH1 0x60 DUP7 ADD PUSH2 0x4E76 JUMP JUMPDEST PUSH1 0x1 DUP2 GT ISZERO PUSH2 0x3466 JUMPI PUSH2 0x3466 PUSH2 0x4E8F JUMP JUMPDEST SUB PUSH2 0x34B8 JUMPI PUSH1 0x1 SLOAD PUSH0 SLOAD PUSH2 0x34B5 SWAP2 CALLER SWAP2 PUSH1 0x1 PUSH1 0x1 PUSH1 0xA0 SHL SUB SWAP2 DUP3 AND SWAP2 AND PUSH2 0x3490 PUSH1 0x20 DUP9 ADD DUP9 PUSH2 0x4D88 JUMP JUMPDEST PUSH2 0x34A0 PUSH1 0x40 DUP10 ADD PUSH1 0x20 DUP11 ADD PUSH2 0x4D88 JUMP JUMPDEST PUSH2 0x34B0 PUSH1 0x60 DUP11 ADD PUSH1 0x40 DUP12 ADD PUSH2 0x4D88 JUMP JUMPDEST PUSH2 0x3DF2 JUMP JUMPDEST SWAP1 POP JUMPDEST PUSH1 0x1 PUSH2 0x34CA PUSH1 0x80 DUP6 ADD PUSH1 0x60 DUP7 ADD PUSH2 0x4E76 JUMP JUMPDEST PUSH1 0x1 DUP2 GT ISZERO PUSH2 0x34DB JUMPI PUSH2 0x34DB PUSH2 0x4E8F JUMP JUMPDEST SUB PUSH2 0x354E JUMPI PUSH1 0x1 SLOAD PUSH0 SLOAD PUSH2 0x354B SWAP2 CALLER SWAP2 PUSH1 0x1 PUSH1 0x1 PUSH1 0xA0 SHL SUB SWAP2 DUP3 AND SWAP2 AND DUP6 PUSH2 0x3506 PUSH1 0x20 DUP10 ADD DUP10 PUSH2 0x4D88 JUMP JUMPDEST PUSH2 0x3516 PUSH1 0x40 DUP11 ADD PUSH1 0x20 DUP12 ADD PUSH2 0x4D88 JUMP JUMPDEST PUSH2 0x3526 PUSH1 0x60 DUP12 ADD PUSH1 0x40 DUP13 ADD PUSH2 0x4D88 JUMP JUMPDEST PUSH2 0x3536 PUSH1 0xA0 DUP13 ADD PUSH1 0x80 DUP14 ADD PUSH2 0x4D88 JUMP JUMPDEST PUSH2 0x3546 PUSH1 0xC0 DUP14 ADD PUSH1 0xA0 DUP15 ADD PUSH2 0x4D88 JUMP JUMPDEST PUSH2 0x3E90 JUMP JUMPDEST SWAP1 POP JUMPDEST SWAP3 SWAP2 POP POP JUMP JUMPDEST DUP2 PUSH1 0x14 MSTORE DUP1 PUSH1 0x34 MSTORE PUSH4 0xA9059CBB PUSH1 0x60 SHL PUSH0 MSTORE PUSH1 0x20 PUSH0 PUSH1 0x44 PUSH1 0x10 PUSH0 DUP8 GAS CALL DUP1 PUSH1 0x1 PUSH0 MLOAD EQ AND PUSH2 0x3594 JUMPI DUP1 RETURNDATASIZE DUP6 EXTCODESIZE ISZERO OR LT PUSH2 0x3594 JUMPI PUSH4 0x90B8EC18 PUSH0 MSTORE PUSH1 0x4 PUSH1 0x1C REVERT JUMPDEST POP PUSH0 PUSH1 0x34 MSTORE POP POP POP JUMP JUMPDEST PUSH2 0x35A6 PUSH2 0x3F4A JUMP JUMPDEST PUSH1 0x8 DUP1 SLOAD PUSH1 0xFF NOT AND SWAP1 SSTORE PUSH32 0x5DB9EE0A495BF2E6FF9C91A7834C1BA4FDD244A5E8AA4E537BD38AEAE4B073AA CALLER JUMPDEST PUSH1 0x40 MLOAD PUSH1 0x1 PUSH1 0x1 PUSH1 0xA0 SHL SUB SWAP1 SWAP2 AND DUP2 MSTORE PUSH1 0x20 ADD PUSH2 0x2D30 JUMP JUMPDEST PUSH1 0x40 MLOAD PUSH4 0x150B7A02 DUP1 DUP3 MSTORE CALLER PUSH1 0x20 DUP4 ADD MSTORE DUP6 PUSH1 0x60 SHL PUSH1 0x60 SHR PUSH1 0x40 DUP4 ADD MSTORE DUP4 PUSH1 0x60 DUP4 ADD MSTORE PUSH1 0x80 DUP1 DUP4 ADD MSTORE DUP3 MLOAD DUP1 PUSH1 0xA0 DUP5 ADD MSTORE DUP1 ISZERO PUSH2 0x3632 JUMPI DUP1 PUSH1 0xC0 DUP5 ADD DUP3 PUSH1 0x20 DUP8 ADD PUSH1 0x4 GAS STATICCALL POP JUMPDEST PUSH1 0x20 DUP4 PUSH1 0xA4 DUP4 ADD PUSH1 0x1C DUP7 ADD PUSH0 DUP11 GAS CALL PUSH2 0x3653 JUMPI RETURNDATASIZE ISZERO PUSH2 0x3653 JUMPI RETURNDATASIZE PUSH0 DUP5 RETURNDATACOPY RETURNDATASIZE DUP4 REVERT JUMPDEST POP DUP1 PUSH1 0xE0 SHL DUP3 MLOAD EQ PUSH2 0x1242 JUMPI PUSH4 0xD1A57ED6 PUSH0 MSTORE PUSH1 0x4 PUSH1 0x1C REVERT JUMPDEST PUSH0 DUP2 DUP2 MSTORE PUSH1 0x18 PUSH1 0x20 SWAP1 DUP2 MSTORE PUSH1 0x40 SWAP2 DUP3 SWAP1 KECCAK256 DUP3 MLOAD PUSH1 0xE0 DUP2 ADD DUP5 MSTORE DUP2 SLOAD PUSH1 0x1 PUSH1 0x1 PUSH1 0xA0 SHL SUB AND DUP2 MSTORE PUSH1 0x1 DUP3 ADD SLOAD SWAP3 DUP2 ADD SWAP3 SWAP1 SWAP3 MSTORE PUSH1 0x2 DUP2 ADD SLOAD SWAP3 DUP3 ADD SWAP3 SWAP1 SWAP3 MSTORE PUSH1 0x3 DUP3 ADD SLOAD PUSH1 0x60 DUP3 ADD MSTORE PUSH1 0x4 SWAP1 SWAP2 ADD SLOAD PUSH1 0xFF DUP1 DUP3 AND ISZERO DUP1 ISZERO PUSH1 0x80 DUP6 ADD MSTORE PUSH2 0x100 DUP4 DIV DUP3 AND ISZERO ISZERO PUSH1 0xA0 DUP6 ADD MSTORE PUSH3 0x10000 SWAP1 SWAP3 DIV AND ISZERO ISZERO PUSH1 0xC0 DUP4 ADD MSTORE PUSH2 0xB33 JUMPI PUSH1 0x40 MLOAD PUSH4 0x3F0BF7D PUSH1 0xE2 SHL DUP2 MSTORE CALLER PUSH1 0x4 DUP3 ADD MSTORE PUSH1 0x24 ADD PUSH2 0x1B9B JUMP JUMPDEST PUSH1 0x14 SLOAD ISZERO PUSH2 0xB6A JUMPI PUSH1 0x40 MLOAD PUSH1 0x1 PUSH3 0x60CE3D PUSH1 0xE0 SHL SUB NOT DUP2 MSTORE PUSH1 0x4 ADD PUSH1 0x40 MLOAD DUP1 SWAP2 SUB SWAP1 REVERT JUMPDEST PUSH1 0x17 SLOAD PUSH1 0x1 PUSH1 0x40 SHL SWAP1 DIV PUSH1 0x1 PUSH1 0x1 PUSH1 0x40 SHL SUB AND DUP1 ISZERO DUP1 ISZERO SWAP1 PUSH2 0x3749 JUMPI POP DUP1 TIMESTAMP LT ISZERO JUMPDEST ISZERO PUSH2 0x213A JUMPI PUSH1 0x40 MLOAD PUSH4 0xE155E52D PUSH1 0xE0 SHL DUP2 MSTORE TIMESTAMP PUSH1 0x4 DUP3 ADD MSTORE PUSH1 0x24 DUP2 ADD DUP3 SWAP1 MSTORE PUSH1 0x44 ADD PUSH2 0x1B9B JUMP JUMPDEST PUSH2 0x3778 PUSH2 0x264B JUMP JUMPDEST PUSH1 0x8 DUP1 SLOAD PUSH1 0xFF NOT AND PUSH1 0x1 OR SWAP1 SSTORE PUSH32 0x62E78CEA01BEE320CD4E420270B5EA74000D11B0C9F74754EBDBFC544B05A258 PUSH2 0x35D3 CALLER SWAP1 JUMP JUMPDEST PUSH1 0x60 PUSH0 PUSH2 0x37B9 DUP4 PUSH2 0x3F6D JUMP JUMPDEST PUSH1 0x1 ADD SWAP1 POP PUSH0 DUP2 PUSH1 0x1 PUSH1 0x1 PUSH1 0x40 SHL SUB DUP2 GT ISZERO PUSH2 0x37D7 JUMPI PUSH2 0x37D7 PUSH2 0x5057 JUMP JUMPDEST PUSH1 0x40 MLOAD SWAP1 DUP1 DUP3 MSTORE DUP1 PUSH1 0x1F ADD PUSH1 0x1F NOT AND PUSH1 0x20 ADD DUP3 ADD PUSH1 0x40 MSTORE DUP1 ISZERO PUSH2 0x3801 JUMPI PUSH1 0x20 DUP3 ADD DUP2 DUP1 CALLDATASIZE DUP4 CALLDATACOPY ADD SWAP1 POP JUMPDEST POP SWAP1 POP DUP2 DUP2 ADD PUSH1 0x20 ADD JUMPDEST PUSH0 NOT ADD PUSH16 0x181899199A1A9B1B9C1CB0B131B232B3 PUSH1 0x81 SHL PUSH1 0xA DUP7 MOD BYTE DUP2 MSTORE8 PUSH1 0xA DUP6 DIV SWAP5 POP DUP5 PUSH2 0x380B JUMPI POP SWAP4 SWAP3 POP POP POP JUMP JUMPDEST PUSH1 0x17 SLOAD PUSH1 0x1 PUSH1 0x88 SHL SWAP1 DIV PUSH1 0xFF AND ISZERO PUSH2 0xB6A JUMPI PUSH1 0x40 MLOAD PUSH4 0x68754D4B PUSH1 0xE1 SHL DUP2 MSTORE PUSH1 0x4 ADD PUSH1 0x40 MLOAD DUP1 SWAP2 SUB SWAP1 REVERT JUMPDEST PUSH1 0x15 SLOAD PUSH0 DUP2 SWAP1 SUB PUSH2 0x388B JUMPI PUSH1 0x40 MLOAD PUSH4 0x4141447D PUSH1 0xE1 SHL DUP2 MSTORE PUSH1 0x4 ADD PUSH1 0x40 MLOAD DUP1 SWAP2 SUB SWAP1 REVERT JUMPDEST DUP1 DUP3 EQ PUSH2 0xB33 JUMPI PUSH1 0x40 MLOAD PUSH4 0x28D05AB PUSH1 0xE5 SHL DUP2 MSTORE PUSH1 0x4 DUP2 ADD DUP4 SWAP1 MSTORE PUSH1 0x24 DUP2 ADD DUP3 SWAP1 MSTORE PUSH1 0x44 ADD PUSH2 0x1B9B JUMP JUMPDEST PUSH1 0x40 MLOAD DUP2 PUSH1 0x60 MSTORE DUP3 PUSH1 0x40 MSTORE DUP4 PUSH1 0x60 SHL PUSH1 0x2C MSTORE PUSH4 0x23B872DD PUSH1 0x60 SHL PUSH1 0xC MSTORE PUSH1 0x20 PUSH0 PUSH1 0x64 PUSH1 0x1C PUSH0 DUP10 GAS CALL DUP1 PUSH1 0x1 PUSH0 MLOAD EQ AND PUSH2 0x3900 JUMPI DUP1 RETURNDATASIZE DUP8 EXTCODESIZE ISZERO OR LT PUSH2 0x3900 JUMPI PUSH4 0x7939F424 PUSH0 MSTORE PUSH1 0x4 PUSH1 0x1C REVERT JUMPDEST POP PUSH0 PUSH1 0x60 MSTORE PUSH1 0x40 MSTORE POP POP POP POP JUMP JUMPDEST PUSH2 0x3916 PUSH2 0x4044 JUMP JUMPDEST PUSH2 0x391F DUP2 PUSH2 0x4060 JUMP JUMPDEST PUSH2 0x392F PUSH1 0xA0 DUP3 ADD PUSH1 0x80 DUP4 ADD PUSH2 0x4D88 JUMP JUMPDEST PUSH1 0xF DUP1 SLOAD PUSH1 0x1 PUSH1 0x1 PUSH1 0x40 SHL SUB SWAP3 SWAP1 SWAP3 AND PUSH1 0x1 PUSH1 0xA0 SHL MUL PUSH8 0xFFFFFFFFFFFFFFFF PUSH1 0xA0 SHL NOT SWAP1 SWAP3 AND SWAP2 SWAP1 SWAP2 OR SWAP1 SSTORE PUSH2 0x396B PUSH1 0xC0 DUP3 ADD PUSH1 0xA0 DUP4 ADD PUSH2 0x506B JUMP JUMPDEST PUSH1 0xF DUP1 SLOAD PUSH2 0xFFFF SWAP3 SWAP1 SWAP3 AND PUSH1 0x1 PUSH1 0xE0 SHL MUL PUSH2 0xFFFF PUSH1 0xE0 SHL NOT SWAP1 SWAP3 AND SWAP2 SWAP1 SWAP2 OR SWAP1 SSTORE PUSH2 0x399C PUSH1 0xE0 DUP3 ADD PUSH1 0xC0 DUP4 ADD PUSH2 0x506B JUMP JUMPDEST PUSH1 0xF DUP1 SLOAD PUSH2 0xFFFF SWAP3 SWAP1 SWAP3 AND PUSH1 0x1 PUSH1 0xF0 SHL MUL PUSH1 0x1 PUSH1 0x1 PUSH1 0xF0 SHL SUB SWAP1 SWAP3 AND SWAP2 SWAP1 SWAP2 OR SWAP1 SSTORE PUSH2 0x39CF PUSH2 0x100 DUP3 ADD PUSH1 0xE0 DUP4 ADD PUSH2 0x506B JUMP JUMPDEST PUSH1 0x10 DUP1 SLOAD PUSH2 0xFFFF NOT AND PUSH2 0xFFFF SWAP3 SWAP1 SWAP3 AND SWAP2 SWAP1 SWAP2 OR SWAP1 SSTORE PUSH2 0x39F7 PUSH2 0x120 DUP3 ADD PUSH2 0x100 DUP4 ADD PUSH2 0x506B JUMP JUMPDEST PUSH1 0x10 DUP1 SLOAD PUSH2 0xFFFF SWAP3 SWAP1 SWAP3 AND PUSH3 0x10000 MUL PUSH4 0xFFFF0000 NOT SWAP1 SWAP3 AND SWAP2 SWAP1 SWAP2 OR SWAP1 SSTORE PUSH2 0x3A23 PUSH1 0x20 DUP3 ADD DUP3 PUSH2 0x4984 JUMP JUMPDEST PUSH1 0x9 DUP1 SLOAD PUSH1 0x1 PUSH1 0x1 PUSH1 0xA0 SHL SUB NOT AND PUSH1 0x1 PUSH1 0x1 PUSH1 0xA0 SHL SUB SWAP3 SWAP1 SWAP3 AND SWAP2 SWAP1 SWAP2 OR SWAP1 SSTORE PUSH2 0x3A53 PUSH1 0x40 DUP3 ADD PUSH1 0x20 DUP4 ADD PUSH2 0x4984 JUMP JUMPDEST PUSH1 0xA DUP1 SLOAD PUSH1 0x1 PUSH1 0x1 PUSH1 0xA0 SHL SUB NOT AND PUSH1 0x1 PUSH1 0x1 PUSH1 0xA0 SHL SUB SWAP3 SWAP1 SWAP3 AND SWAP2 SWAP1 SWAP2 OR SWAP1 SSTORE PUSH2 0x3A83 PUSH1 0x60 DUP3 ADD PUSH1 0x40 DUP4 ADD PUSH2 0x4984 JUMP JUMPDEST PUSH1 0xB DUP1 SLOAD PUSH1 0x1 PUSH1 0x1 PUSH1 0xA0 SHL SUB NOT AND PUSH1 0x1 PUSH1 0x1 PUSH1 0xA0 SHL SUB SWAP3 SWAP1 SWAP3 AND SWAP2 SWAP1 SWAP2 OR SWAP1 SSTORE PUSH2 0x3AB3 PUSH1 0x80 DUP3 ADD PUSH1 0x60 DUP4 ADD PUSH2 0x4984 JUMP JUMPDEST PUSH1 0xF DUP1 SLOAD PUSH1 0x1 PUSH1 0x1 PUSH1 0xA0 SHL SUB NOT AND PUSH1 0x1 PUSH1 0x1 PUSH1 0xA0 SHL SUB SWAP3 SWAP1 SWAP3 AND SWAP2 SWAP1 SWAP2 OR SWAP1 SSTORE PUSH2 0x3AE1 PUSH2 0x120 DUP3 ADD DUP3 PUSH2 0x508C JUMP JUMPDEST PUSH1 0x3 SWAP2 PUSH2 0x3AEF SWAP2 SWAP1 DUP4 PUSH2 0x5112 JUMP JUMPDEST POP PUSH2 0x3AFE PUSH2 0x140 DUP3 ADD DUP3 PUSH2 0x508C JUMP JUMPDEST PUSH1 0x4 SWAP2 PUSH2 0x3B0C SWAP2 SWAP1 DUP4 PUSH2 0x5112 JUMP JUMPDEST POP PUSH2 0x3B1B PUSH2 0x160 DUP3 ADD DUP3 PUSH2 0x508C JUMP JUMPDEST PUSH1 0x5 SWAP2 PUSH2 0x3B29 SWAP2 SWAP1 DUP4 PUSH2 0x5112 JUMP JUMPDEST POP PUSH2 0x213A PUSH2 0x29EB JUMP JUMPDEST PUSH1 0x40 MLOAD PUSH12 0xFFFFFFFFFFFFFFFFFFFFFFFF NOT PUSH1 0x60 DUP9 DUP2 SHL DUP3 AND PUSH1 0x20 DUP5 ADD MSTORE DUP8 DUP2 SHL DUP3 AND PUSH1 0x34 DUP5 ADD MSTORE PUSH1 0x48 DUP4 ADD DUP8 SWAP1 MSTORE CALLER DUP2 SHL DUP3 AND PUSH1 0x68 DUP5 ADD MSTORE ADDRESS SWAP1 SHL AND PUSH1 0x7C DUP3 ADD MSTORE CHAINID PUSH1 0x90 DUP3 ADD MSTORE PUSH0 SWAP1 PUSH2 0x3B87 SWAP1 PUSH1 0xB0 ADD PUSH2 0x3292 JUMP JUMPDEST SWAP1 POP DUP4 PUSH1 0x1 PUSH1 0x1 PUSH1 0xA0 SHL SUB AND PUSH2 0x3BD4 DUP5 DUP5 DUP1 DUP1 PUSH1 0x1F ADD PUSH1 0x20 DUP1 SWAP2 DIV MUL PUSH1 0x20 ADD PUSH1 0x40 MLOAD SWAP1 DUP2 ADD PUSH1 0x40 MSTORE DUP1 SWAP4 SWAP3 SWAP2 SWAP1 DUP2 DUP2 MSTORE PUSH1 0x20 ADD DUP4 DUP4 DUP1 DUP3 DUP5 CALLDATACOPY PUSH0 SWAP3 ADD SWAP2 SWAP1 SWAP2 MSTORE POP DUP7 SWAP4 SWAP3 POP POP PUSH2 0x3DCA SWAP1 POP JUMP JUMPDEST PUSH1 0x1 PUSH1 0x1 PUSH1 0xA0 SHL SUB AND EQ PUSH2 0x1F44 JUMPI DUP3 DUP3 PUSH1 0x40 MLOAD PUSH4 0x3DD7420B PUSH1 0xE1 SHL DUP2 MSTORE PUSH1 0x4 ADD PUSH2 0x1B9B SWAP3 SWAP2 SWAP1 PUSH2 0x4F26 JUMP JUMPDEST PUSH1 0x17 SLOAD PUSH1 0x1 PUSH1 0x90 SHL SWAP1 DIV PUSH1 0xFF AND ISZERO PUSH2 0xB6A JUMPI PUSH1 0x40 MLOAD PUSH4 0xA4D50215 PUSH1 0xE0 SHL DUP2 MSTORE TIMESTAMP PUSH1 0x4 DUP3 ADD MSTORE PUSH1 0x24 ADD PUSH2 0x1B9B JUMP JUMPDEST PUSH0 PUSH1 0x3 DUP1 ADD PUSH0 DUP2 SLOAD PUSH2 0x3C3D SWAP1 PUSH2 0x51CB JUMP JUMPDEST SWAP1 SWAP2 SSTORE POP POP PUSH1 0x6 SLOAD PUSH1 0x1 PUSH1 0x1 PUSH1 0xA0 SHL SUB DUP3 AND PUSH0 SWAP1 DUP2 MSTORE PUSH1 0x7 PUSH1 0x20 MSTORE PUSH1 0x40 SWAP1 KECCAK256 DUP2 SWAP1 SSTORE PUSH2 0x1480 DUP3 DUP3 PUSH2 0x4196 JUMP JUMPDEST PUSH1 0x40 DUP1 MLOAD PUSH2 0x160 DUP2 ADD DUP3 MSTORE PUSH1 0x11 SLOAD PUSH1 0x1 PUSH1 0x1 PUSH1 0xA0 SHL SUB AND DUP2 MSTORE PUSH1 0x12 SLOAD PUSH1 0x20 DUP3 ADD MSTORE PUSH1 0x13 SLOAD SWAP2 DUP2 ADD SWAP2 SWAP1 SWAP2 MSTORE PUSH1 0x14 SLOAD PUSH1 0x60 DUP3 ADD MSTORE PUSH1 0x15 SLOAD PUSH1 0x80 DUP3 ADD MSTORE PUSH1 0x16 SLOAD PUSH1 0xA0 DUP3 ADD DUP2 SWAP1 MSTORE PUSH1 0x17 SLOAD PUSH1 0x1 PUSH1 0x1 PUSH1 0x40 SHL SUB DUP1 DUP3 AND PUSH1 0xC0 DUP6 ADD MSTORE PUSH1 0x1 PUSH1 0x40 SHL DUP3 DIV AND PUSH1 0xE0 DUP5 ADD MSTORE PUSH1 0xFF PUSH1 0x1 PUSH1 0x80 SHL DUP3 DIV DUP2 AND ISZERO ISZERO PUSH2 0x100 DUP6 ADD MSTORE PUSH1 0x1 PUSH1 0x88 SHL DUP3 DIV DUP2 AND ISZERO ISZERO PUSH2 0x120 DUP6 ADD MSTORE PUSH1 0x1 PUSH1 0x90 SHL SWAP1 SWAP2 DIV AND ISZERO ISZERO PUSH2 0x140 DUP4 ADD MSTORE ISZERO PUSH2 0x3D21 JUMPI PUSH1 0x40 MLOAD PUSH4 0xC2820CA7 PUSH1 0xE0 SHL DUP2 MSTORE PUSH1 0x4 ADD PUSH1 0x40 MLOAD DUP1 SWAP2 SUB SWAP1 REVERT JUMPDEST DUP1 PUSH1 0x60 ADD MLOAD PUSH0 SUB PUSH2 0x213A JUMPI PUSH1 0x40 MLOAD PUSH4 0x5C84879D PUSH1 0xE0 SHL DUP2 MSTORE PUSH1 0x4 ADD PUSH1 0x40 MLOAD DUP1 SWAP2 SUB SWAP1 REVERT JUMPDEST PUSH1 0x17 SLOAD PUSH1 0x1 PUSH1 0x80 SHL SWAP1 DIV PUSH1 0xFF AND PUSH2 0xB6A JUMPI PUSH1 0x40 MLOAD PUSH4 0x289F9715 PUSH1 0xE0 SHL DUP2 MSTORE PUSH1 0x4 ADD PUSH1 0x40 MLOAD DUP1 SWAP2 SUB SWAP1 REVERT JUMPDEST PUSH1 0x1 PUSH1 0x1 PUSH1 0xA0 SHL SUB DUP2 AND PUSH0 SWAP1 DUP2 MSTORE PUSH1 0x7 PUSH1 0x20 MSTORE PUSH1 0x40 SWAP1 KECCAK256 SLOAD PUSH2 0x3D90 DUP2 PUSH2 0x41F6 JUMP JUMPDEST POP PUSH1 0x1 PUSH1 0x1 PUSH1 0xA0 SHL SUB AND PUSH0 SWAP1 DUP2 MSTORE PUSH1 0x7 PUSH1 0x20 MSTORE PUSH1 0x40 DUP2 KECCAK256 SSTORE JUMP JUMPDEST PUSH2 0x3DB4 DUP2 PUSH0 PUSH2 0x4244 JUMP JUMPDEST PUSH2 0xB23 DUP4 DUP4 DUP4 PUSH2 0x42C6 JUMP JUMPDEST PUSH2 0xB23 DUP2 PUSH1 0x1 PUSH2 0x4244 JUMP JUMPDEST PUSH0 PUSH0 PUSH0 PUSH0 PUSH2 0x3DD8 DUP7 DUP7 PUSH2 0x42D2 JUMP JUMPDEST SWAP3 POP SWAP3 POP SWAP3 POP PUSH2 0x3DE8 DUP3 DUP3 PUSH2 0x431B JUMP JUMPDEST POP SWAP1 SWAP5 SWAP4 POP POP POP POP JUMP JUMPDEST PUSH1 0x40 MLOAD PUSH4 0x2331871F PUSH1 0xE0 SHL DUP2 MSTORE PUSH1 0x1 PUSH1 0x1 PUSH1 0xA0 SHL SUB DUP8 DUP2 AND PUSH1 0x4 DUP4 ADD MSTORE DUP7 DUP2 AND PUSH1 0x24 DUP4 ADD MSTORE PUSH1 0x1 PUSH1 0x1 PUSH1 0x40 SHL SUB DUP1 DUP7 AND PUSH1 0x44 DUP5 ADD MSTORE DUP1 DUP6 AND PUSH1 0x64 DUP5 ADD MSTORE DUP4 AND PUSH1 0x84 DUP4 ADD MSTORE PUSH0 SWAP2 SWAP1 DUP7 AND SWAP1 PUSH4 0x2331871F SWAP1 PUSH1 0xA4 ADD PUSH1 0x20 PUSH1 0x40 MLOAD DUP1 DUP4 SUB DUP2 PUSH0 DUP8 GAS CALL ISZERO DUP1 ISZERO PUSH2 0x3E61 JUMPI RETURNDATASIZE PUSH0 PUSH0 RETURNDATACOPY RETURNDATASIZE PUSH0 REVERT JUMPDEST POP POP POP POP PUSH1 0x40 MLOAD RETURNDATASIZE PUSH1 0x1F NOT PUSH1 0x1F DUP3 ADD AND DUP3 ADD DUP1 PUSH1 0x40 MSTORE POP DUP2 ADD SWAP1 PUSH2 0x3E85 SWAP2 SWAP1 PUSH2 0x4E4D JUMP JUMPDEST SWAP8 SWAP7 POP POP POP POP POP POP POP JUMP JUMPDEST PUSH1 0x40 MLOAD PUSH4 0x478A83A1 PUSH1 0xE0 SHL DUP2 MSTORE PUSH1 0x1 PUSH1 0x1 PUSH1 0xA0 SHL SUB DUP11 DUP2 AND PUSH1 0x4 DUP4 ADD MSTORE DUP10 DUP2 AND PUSH1 0x24 DUP4 ADD MSTORE DUP8 DUP2 AND PUSH1 0x44 DUP4 ADD MSTORE PUSH1 0x1 PUSH1 0x1 PUSH1 0x40 SHL SUB DUP1 DUP9 AND PUSH1 0x64 DUP5 ADD MSTORE DUP1 DUP8 AND PUSH1 0x84 DUP5 ADD MSTORE DUP1 DUP7 AND PUSH1 0xA4 DUP5 ADD MSTORE DUP1 DUP6 AND PUSH1 0xC4 DUP5 ADD MSTORE DUP4 AND PUSH1 0xE4 DUP4 ADD MSTORE PUSH0 SWAP2 SWAP1 DUP10 AND SWAP1 PUSH4 0x478A83A1 SWAP1 PUSH2 0x104 ADD PUSH1 0x20 PUSH1 0x40 MLOAD DUP1 DUP4 SUB DUP2 PUSH0 DUP8 GAS CALL ISZERO DUP1 ISZERO PUSH2 0x3F18 JUMPI RETURNDATASIZE PUSH0 PUSH0 RETURNDATACOPY RETURNDATASIZE PUSH0 REVERT JUMPDEST POP POP POP POP PUSH1 0x40 MLOAD RETURNDATASIZE PUSH1 0x1F NOT PUSH1 0x1F DUP3 ADD AND DUP3 ADD DUP1 PUSH1 0x40 MSTORE POP DUP2 ADD SWAP1 PUSH2 0x3F3C SWAP2 SWAP1 PUSH2 0x4E4D JUMP JUMPDEST SWAP11 SWAP10 POP POP POP POP POP POP POP POP POP POP JUMP JUMPDEST PUSH1 0x8 SLOAD PUSH1 0xFF AND PUSH2 0xB6A JUMPI PUSH1 0x40 MLOAD PUSH4 0x8DFC202B PUSH1 0xE0 SHL DUP2 MSTORE PUSH1 0x4 ADD PUSH1 0x40 MLOAD DUP1 SWAP2 SUB SWAP1 REVERT JUMPDEST PUSH0 DUP1 PUSH19 0x184F03E93FF9F4DAA797ED6E38ED64BF6A1F01 PUSH1 0x40 SHL DUP4 LT PUSH2 0x3FAB JUMPI PUSH19 0x184F03E93FF9F4DAA797ED6E38ED64BF6A1F01 PUSH1 0x40 SHL DUP4 DIV SWAP3 POP PUSH1 0x40 ADD JUMPDEST PUSH14 0x4EE2D6D415B85ACEF8100000000 DUP4 LT PUSH2 0x3FD7 JUMPI PUSH14 0x4EE2D6D415B85ACEF8100000000 DUP4 DIV SWAP3 POP PUSH1 0x20 ADD JUMPDEST PUSH7 0x2386F26FC10000 DUP4 LT PUSH2 0x3FF5 JUMPI PUSH7 0x2386F26FC10000 DUP4 DIV SWAP3 POP PUSH1 0x10 ADD JUMPDEST PUSH4 0x5F5E100 DUP4 LT PUSH2 0x400D JUMPI PUSH4 0x5F5E100 DUP4 DIV SWAP3 POP PUSH1 0x8 ADD JUMPDEST PUSH2 0x2710 DUP4 LT PUSH2 0x4021 JUMPI PUSH2 0x2710 DUP4 DIV SWAP3 POP PUSH1 0x4 ADD JUMPDEST PUSH1 0x64 DUP4 LT PUSH2 0x4033 JUMPI PUSH1 0x64 DUP4 DIV SWAP3 POP PUSH1 0x2 ADD JUMPDEST PUSH1 0xA DUP4 LT PUSH2 0x354E JUMPI PUSH1 0x1 ADD SWAP3 SWAP2 POP POP JUMP JUMPDEST PUSH4 0x409FEECD NOT DUP1 SLOAD PUSH1 0x1 AND PUSH2 0x213A JUMPI PUSH4 0xD7E6BCF8 PUSH0 MSTORE PUSH1 0x4 PUSH1 0x1C REVERT JUMPDEST PUSH0 PUSH2 0x406E PUSH1 0x20 DUP4 ADD DUP4 PUSH2 0x4984 JUMP JUMPDEST PUSH1 0x1 PUSH1 0x1 PUSH1 0xA0 SHL SUB AND EQ DUP1 PUSH2 0x409A JUMPI POP PUSH0 PUSH2 0x408F PUSH1 0x40 DUP4 ADD PUSH1 0x20 DUP5 ADD PUSH2 0x4984 JUMP JUMPDEST PUSH1 0x1 PUSH1 0x1 PUSH1 0xA0 SHL SUB AND EQ JUMPDEST DUP1 PUSH2 0x40BC JUMPI POP PUSH0 PUSH2 0x40B1 PUSH1 0x60 DUP4 ADD PUSH1 0x40 DUP5 ADD PUSH2 0x4984 JUMP JUMPDEST PUSH1 0x1 PUSH1 0x1 PUSH1 0xA0 SHL SUB AND EQ JUMPDEST ISZERO PUSH2 0x40DA JUMPI PUSH1 0x40 MLOAD PUSH4 0xB840F60B PUSH1 0xE0 SHL DUP2 MSTORE PUSH1 0x4 ADD PUSH1 0x40 MLOAD DUP1 SWAP2 SUB SWAP1 REVERT JUMPDEST PUSH2 0x40EA PUSH1 0xA0 DUP3 ADD PUSH1 0x80 DUP4 ADD PUSH2 0x4D88 JUMP JUMPDEST PUSH1 0x1 PUSH1 0x1 PUSH1 0x40 SHL SUB AND ISZERO DUP1 PUSH2 0x410C JUMPI POP PUSH2 0x4108 PUSH2 0x120 DUP3 ADD DUP3 PUSH2 0x508C JUMP JUMPDEST ISZERO SWAP1 POP JUMPDEST DUP1 PUSH2 0x4124 JUMPI POP PUSH2 0x4120 PUSH2 0x140 DUP3 ADD DUP3 PUSH2 0x508C JUMP JUMPDEST ISZERO SWAP1 POP JUMPDEST DUP1 PUSH2 0x413C JUMPI POP PUSH2 0x4138 PUSH2 0x160 DUP3 ADD DUP3 PUSH2 0x508C JUMP JUMPDEST ISZERO SWAP1 POP JUMPDEST ISZERO PUSH2 0x415A JUMPI PUSH1 0x40 MLOAD PUSH4 0x1E44F253 PUSH1 0xE0 SHL DUP2 MSTORE PUSH1 0x4 ADD PUSH1 0x40 MLOAD DUP1 SWAP2 SUB SWAP1 REVERT JUMPDEST PUSH3 0x127500 PUSH2 0x416E PUSH1 0xA0 DUP4 ADD PUSH1 0x80 DUP5 ADD PUSH2 0x4D88 JUMP JUMPDEST PUSH1 0x1 PUSH1 0x1 PUSH1 0x40 SHL SUB AND GT ISZERO PUSH2 0x213A JUMPI PUSH1 0x40 MLOAD PUSH4 0x31189173 PUSH1 0xE1 SHL DUP2 MSTORE PUSH1 0x4 ADD PUSH1 0x40 MLOAD DUP1 SWAP2 SUB SWAP1 REVERT JUMPDEST PUSH2 0x41A0 DUP3 DUP3 PUSH2 0x43D3 JUMP JUMPDEST PUSH0 DUP2 DUP2 MSTORE PUSH1 0x2 PUSH1 0x20 MSTORE PUSH1 0x40 SWAP1 DUP2 SWAP1 KECCAK256 DUP1 SLOAD PUSH1 0xFF NOT AND PUSH1 0x1 OR SWAP1 SSTORE MLOAD PUSH32 0x32BC66BE43DBCCB7487781D168EB7BDA224628A3B2C3388BDF69B532A3A1611 SWAP1 PUSH2 0x41EA SWAP1 DUP4 DUP2 MSTORE PUSH1 0x20 ADD SWAP1 JUMP JUMPDEST PUSH1 0x40 MLOAD DUP1 SWAP2 SUB SWAP1 LOG1 POP POP JUMP JUMPDEST PUSH0 DUP2 DUP2 MSTORE PUSH1 0x2 PUSH1 0x20 MSTORE PUSH1 0x40 SWAP1 KECCAK256 DUP1 SLOAD PUSH1 0xFF NOT AND SWAP1 SSTORE PUSH2 0x4214 DUP2 PUSH2 0x446E JUMP JUMPDEST PUSH1 0x40 MLOAD DUP2 DUP2 MSTORE PUSH32 0xF27B6CE5B2F5E68DDB2FD95A8A909D4ECF1DAAAC270935FFF052FEACB24F1842 SWAP1 PUSH1 0x20 ADD PUSH2 0x136E JUMP JUMPDEST PUSH0 DUP3 DUP2 MSTORE PUSH1 0x2 PUSH1 0x20 MSTORE PUSH1 0x40 SWAP1 KECCAK256 DUP1 SLOAD PUSH1 0xFF NOT AND DUP3 ISZERO DUP1 ISZERO SWAP2 SWAP1 SWAP2 OR SWAP1 SWAP2 SSTORE PUSH2 0x4296 JUMPI PUSH1 0x40 MLOAD DUP3 DUP2 MSTORE PUSH32 0x32BC66BE43DBCCB7487781D168EB7BDA224628A3B2C3388BDF69B532A3A1611 SWAP1 PUSH1 0x20 ADD PUSH2 0x41EA JUMP JUMPDEST PUSH1 0x40 MLOAD DUP3 DUP2 MSTORE PUSH32 0xF27B6CE5B2F5E68DDB2FD95A8A909D4ECF1DAAAC270935FFF052FEACB24F1842 SWAP1 PUSH1 0x20 ADD PUSH2 0x41EA JUMP JUMPDEST PUSH2 0xB23 PUSH0 DUP5 DUP5 DUP5 PUSH2 0x4478 JUMP JUMPDEST PUSH0 PUSH0 PUSH0 DUP4 MLOAD PUSH1 0x41 SUB PUSH2 0x4309 JUMPI PUSH1 0x20 DUP5 ADD MLOAD PUSH1 0x40 DUP6 ADD MLOAD PUSH1 0x60 DUP7 ADD MLOAD PUSH0 BYTE PUSH2 0x42FB DUP9 DUP3 DUP6 DUP6 PUSH2 0x4577 JUMP JUMPDEST SWAP6 POP SWAP6 POP SWAP6 POP POP POP POP PUSH2 0x4314 JUMP JUMPDEST POP POP DUP2 MLOAD PUSH0 SWAP2 POP PUSH1 0x2 SWAP1 JUMPDEST SWAP3 POP SWAP3 POP SWAP3 JUMP JUMPDEST PUSH0 DUP3 PUSH1 0x3 DUP2 GT ISZERO PUSH2 0x432E JUMPI PUSH2 0x432E PUSH2 0x4E8F JUMP JUMPDEST SUB PUSH2 0x4337 JUMPI POP POP JUMP JUMPDEST PUSH1 0x1 DUP3 PUSH1 0x3 DUP2 GT ISZERO PUSH2 0x434B JUMPI PUSH2 0x434B PUSH2 0x4E8F JUMP JUMPDEST SUB PUSH2 0x4369 JUMPI PUSH1 0x40 MLOAD PUSH4 0xF645EEDF PUSH1 0xE0 SHL DUP2 MSTORE PUSH1 0x4 ADD PUSH1 0x40 MLOAD DUP1 SWAP2 SUB SWAP1 REVERT JUMPDEST PUSH1 0x2 DUP3 PUSH1 0x3 DUP2 GT ISZERO PUSH2 0x437D JUMPI PUSH2 0x437D PUSH2 0x4E8F JUMP JUMPDEST SUB PUSH2 0x439E JUMPI PUSH1 0x40 MLOAD PUSH4 0xFCE698F7 PUSH1 0xE0 SHL DUP2 MSTORE PUSH1 0x4 DUP2 ADD DUP3 SWAP1 MSTORE PUSH1 0x24 ADD PUSH2 0x1B9B JUMP JUMPDEST PUSH1 0x3 DUP3 PUSH1 0x3 DUP2 GT ISZERO PUSH2 0x43B2 JUMPI PUSH2 0x43B2 PUSH2 0x4E8F JUMP JUMPDEST SUB PUSH2 0xB33 JUMPI PUSH1 0x40 MLOAD PUSH4 0x35E2F383 PUSH1 0xE2 SHL DUP2 MSTORE PUSH1 0x4 DUP2 ADD DUP3 SWAP1 MSTORE PUSH1 0x24 ADD PUSH2 0x1B9B JUMP JUMPDEST PUSH2 0x43DE PUSH0 DUP4 DUP4 PUSH2 0x2D3A JUMP JUMPDEST DUP2 PUSH1 0x60 SHL PUSH1 0x60 SHR SWAP2 POP DUP1 PUSH0 MSTORE PUSH8 0x3EC412A9852D173D PUSH1 0xC1 SHL PUSH1 0x1C MSTORE PUSH1 0x20 PUSH0 KECCAK256 DUP2 ADD DUP2 ADD DUP1 SLOAD DUP1 PUSH1 0x60 SHL ISZERO PUSH2 0x4419 JUMPI PUSH4 0xC991CBB1 PUSH0 MSTORE PUSH1 0x4 PUSH1 0x1C REVERT JUMPDEST DUP4 OR SWAP1 SSTORE PUSH0 DUP3 SWAP1 MSTORE PUSH1 0x1C PUSH1 0xC KECCAK256 DUP1 SLOAD PUSH1 0x1 ADD PUSH4 0xFFFFFFFF DUP2 AND DUP5 MUL PUSH2 0x444D JUMPI PUSH8 0xEA553B3401336CEA DUP5 ISZERO PUSH1 0x2 SHL MSTORE PUSH1 0x4 PUSH1 0x1C REVERT JUMPDEST SWAP1 SSTORE DUP1 DUP3 PUSH0 PUSH0 MLOAD PUSH1 0x20 PUSH2 0x51E4 PUSH0 CODECOPY PUSH0 MLOAD SWAP1 PUSH0 MSTORE DUP2 CODESIZE LOG4 PUSH2 0xB33 PUSH0 DUP4 DUP4 PUSH2 0x2DA1 JUMP JUMPDEST PUSH2 0x213A PUSH0 DUP3 PUSH2 0x463F JUMP JUMPDEST PUSH2 0x4483 DUP4 DUP4 DUP4 PUSH2 0x2D3A JUMP JUMPDEST PUSH0 DUP2 DUP2 MSTORE PUSH1 0x1 PUSH1 0x1 PUSH1 0xA0 SHL SUB SWAP5 DUP6 AND PUSH8 0x3EC412A9852D173D PUSH1 0xC1 SHL DUP2 OR PUSH1 0x1C MSTORE PUSH1 0x20 SWAP1 SWAP2 KECCAK256 DUP3 ADD DUP3 ADD DUP1 SLOAD SWAP2 SWAP6 SWAP5 DUP6 AND SWAP5 SWAP4 DUP5 AND SWAP4 DUP3 AND SWAP2 DUP3 DUP7 EQ DUP4 MUL PUSH2 0x44D9 JUMPI PUSH8 0xCEEA21B6A1148100 DUP4 ISZERO PUSH1 0x2 SHL MSTORE PUSH1 0x4 PUSH1 0x1C REVERT JUMPDEST DUP6 PUSH0 MSTORE DUP2 PUSH1 0x1 ADD SLOAD SWAP3 POP DUP3 DUP8 EQ DUP7 DUP9 EQ OR DUP8 ISZERO OR PUSH2 0x4508 JUMPI PUSH1 0x30 PUSH1 0xC KECCAK256 SLOAD PUSH2 0x4508 JUMPI PUSH4 0x4B6E7F18 PUSH0 MSTORE PUSH1 0x4 PUSH1 0x1C REVERT JUMPDEST DUP3 ISZERO PUSH2 0x4515 JUMPI PUSH0 DUP3 PUSH1 0x1 ADD SSTORE JUMPDEST DUP6 DUP6 XOR XOR SWAP1 SSTORE POP PUSH1 0x1C PUSH1 0xC DUP2 DUP2 KECCAK256 DUP1 SLOAD PUSH0 NOT ADD SWAP1 SSTORE PUSH0 DUP5 SWAP1 MSTORE KECCAK256 DUP1 SLOAD PUSH1 0x1 ADD PUSH4 0xFFFFFFFF DUP2 AND DUP5 MUL PUSH2 0x4556 JUMPI PUSH8 0xEA553B3401336CEA DUP5 ISZERO PUSH1 0x2 SHL MSTORE PUSH1 0x4 PUSH1 0x1C REVERT JUMPDEST SWAP1 SSTORE DUP1 DUP3 DUP5 PUSH0 MLOAD PUSH1 0x20 PUSH2 0x51E4 PUSH0 CODECOPY PUSH0 MLOAD SWAP1 PUSH0 MSTORE PUSH0 CODESIZE LOG4 PUSH2 0x2562 DUP4 DUP4 DUP4 PUSH2 0x2DA1 JUMP JUMPDEST PUSH0 DUP1 DUP1 PUSH32 0x7FFFFFFFFFFFFFFFFFFFFFFFFFFFFFFF5D576E7357A4501DDFE92F46681B20A0 DUP5 GT ISZERO PUSH2 0x45B0 JUMPI POP PUSH0 SWAP2 POP PUSH1 0x3 SWAP1 POP DUP3 PUSH2 0x4635 JUMP JUMPDEST PUSH1 0x40 DUP1 MLOAD PUSH0 DUP1 DUP3 MSTORE PUSH1 0x20 DUP3 ADD DUP1 DUP5 MSTORE DUP11 SWAP1 MSTORE PUSH1 0xFF DUP10 AND SWAP3 DUP3 ADD SWAP3 SWAP1 SWAP3 MSTORE PUSH1 0x60 DUP2 ADD DUP8 SWAP1 MSTORE PUSH1 0x80 DUP2 ADD DUP7 SWAP1 MSTORE PUSH1 0x1 SWAP1 PUSH1 0xA0 ADD PUSH1 0x20 PUSH1 0x40 MLOAD PUSH1 0x20 DUP2 SUB SWAP1 DUP1 DUP5 SUB SWAP1 DUP6 GAS STATICCALL ISZERO DUP1 ISZERO PUSH2 0x4601 JUMPI RETURNDATASIZE PUSH0 PUSH0 RETURNDATACOPY RETURNDATASIZE PUSH0 REVERT JUMPDEST POP POP PUSH1 0x40 MLOAD PUSH1 0x1F NOT ADD MLOAD SWAP2 POP POP PUSH1 0x1 PUSH1 0x1 PUSH1 0xA0 SHL SUB DUP2 AND PUSH2 0x462C JUMPI POP PUSH0 SWAP3 POP PUSH1 0x1 SWAP2 POP DUP3 SWAP1 POP PUSH2 0x4635 JUMP JUMPDEST SWAP3 POP PUSH0 SWAP2 POP DUP2 SWAP1 POP JUMPDEST SWAP5 POP SWAP5 POP SWAP5 SWAP2 POP POP JUMP JUMPDEST PUSH0 PUSH2 0x4649 DUP3 PUSH2 0x1449 JUMP JUMPDEST SWAP1 POP PUSH2 0x4656 DUP2 PUSH0 DUP5 PUSH2 0x2D3A JUMP JUMPDEST POP PUSH0 DUP2 DUP2 MSTORE PUSH1 0x1 PUSH1 0x1 PUSH1 0xA0 SHL SUB SWAP3 DUP4 AND PUSH8 0x3EC412A9852D173D PUSH1 0xC1 SHL DUP2 OR PUSH1 0x1C MSTORE PUSH1 0x20 SWAP1 SWAP2 KECCAK256 DUP3 ADD DUP3 ADD DUP1 SLOAD SWAP2 SWAP4 DUP3 AND SWAP2 DUP3 PUSH2 0x4699 JUMPI PUSH4 0xCEEA21B6 PUSH0 MSTORE PUSH1 0x4 PUSH1 0x1C REVERT JUMPDEST DUP3 PUSH0 MSTORE DUP2 PUSH1 0x1 ADD SLOAD DUP1 DUP7 EQ DUP5 DUP8 EQ OR DUP7 ISZERO OR PUSH2 0x46C6 JUMPI PUSH1 0x30 PUSH1 0xC KECCAK256 SLOAD PUSH2 0x46C6 JUMPI PUSH4 0x4B6E7F18 PUSH0 MSTORE PUSH1 0x4 PUSH1 0x1C REVERT JUMPDEST DUP1 ISZERO PUSH2 0x46D3 JUMPI PUSH0 DUP4 PUSH1 0x1 ADD SSTORE JUMPDEST POP DUP3 XOR SWAP1 SSTORE PUSH1 0x1C PUSH1 0xC KECCAK256 DUP1 SLOAD PUSH0 NOT ADD SWAP1 SSTORE DUP2 PUSH0 DUP3 PUSH0 MLOAD PUSH1 0x20 PUSH2 0x51E4 PUSH0 CODECOPY PUSH0 MLOAD SWAP1 PUSH0 MSTORE DUP3 CODESIZE LOG4 PUSH2 0xB23 DUP2 PUSH0 DUP5 PUSH2 0x2DA1 JUMP JUMPDEST PUSH0 PUSH1 0x20 DUP3 DUP5 SUB SLT ISZERO PUSH2 0x4713 JUMPI PUSH0 PUSH0 REVERT JUMPDEST DUP2 CALLDATALOAD PUSH1 0x1 PUSH1 0x1 PUSH1 0xE0 SHL SUB NOT DUP2 AND DUP2 EQ PUSH2 0x1C7A JUMPI PUSH0 PUSH0 REVERT JUMPDEST PUSH0 DUP2 MLOAD DUP1 DUP5 MSTORE DUP1 PUSH1 0x20 DUP5 ADD PUSH1 0x20 DUP7 ADD MCOPY PUSH0 PUSH1 0x20 DUP3 DUP7 ADD ADD MSTORE PUSH1 0x20 PUSH1 0x1F NOT PUSH1 0x1F DUP4 ADD AND DUP6 ADD ADD SWAP2 POP POP SWAP3 SWAP2 POP POP JUMP JUMPDEST PUSH1 0x20 DUP2 MSTORE PUSH0 PUSH2 0x354B PUSH1 0x20 DUP4 ADD DUP5 PUSH2 0x472A JUMP JUMPDEST PUSH0 PUSH1 0x20 DUP3 DUP5 SUB SLT ISZERO PUSH2 0x477A JUMPI PUSH0 PUSH0 REVERT JUMPDEST POP CALLDATALOAD SWAP2 SWAP1 POP JUMP JUMPDEST PUSH1 0x1 PUSH1 0x1 PUSH1 0xA0 SHL SUB DUP2 AND DUP2 EQ PUSH2 0x213A JUMPI PUSH0 PUSH0 REVERT JUMPDEST PUSH0 PUSH0 PUSH0 PUSH1 0x60 DUP5 DUP7 SUB SLT ISZERO PUSH2 0x47A7 JUMPI PUSH0 PUSH0 REVERT JUMPDEST DUP4 CALLDATALOAD PUSH2 0x47B2 DUP2 PUSH2 0x4781 JUMP JUMPDEST SWAP3 POP PUSH1 0x20 DUP5 ADD CALLDATALOAD PUSH2 0x47C2 DUP2 PUSH2 0x4781 JUMP JUMPDEST SWAP3 SWAP6 SWAP3 SWAP5 POP POP POP PUSH1 0x40 SWAP2 SWAP1 SWAP2 ADD CALLDATALOAD SWAP1 JUMP JUMPDEST PUSH0 PUSH0 PUSH1 0x40 DUP4 DUP6 SUB SLT ISZERO PUSH2 0x47E4 JUMPI PUSH0 PUSH0 REVERT JUMPDEST DUP3 CALLDATALOAD PUSH2 0x47EF DUP2 PUSH2 0x4781 JUMP JUMPDEST SWAP5 PUSH1 0x20 SWAP4 SWAP1 SWAP4 ADD CALLDATALOAD SWAP4 POP POP POP JUMP JUMPDEST PUSH0 PUSH0 DUP4 PUSH1 0x1F DUP5 ADD SLT PUSH2 0x480D JUMPI PUSH0 PUSH0 REVERT JUMPDEST POP DUP2 CALLDATALOAD PUSH1 0x1 PUSH1 0x1 PUSH1 0x40 SHL SUB DUP2 GT ISZERO PUSH2 0x4823 JUMPI PUSH0 PUSH0 REVERT JUMPDEST PUSH1 0x20 DUP4 ADD SWAP2 POP DUP4 PUSH1 0x20 DUP3 DUP6 ADD ADD GT ISZERO PUSH2 0x483A JUMPI PUSH0 PUSH0 REVERT JUMPDEST SWAP3 POP SWAP3 SWAP1 POP JUMP JUMPDEST PUSH0 PUSH0 PUSH0 PUSH0 PUSH0 PUSH0 PUSH0 DUP8 DUP10 SUB PUSH2 0x160 DUP2 SLT ISZERO PUSH2 0x4859 JUMPI PUSH0 PUSH0 REVERT JUMPDEST DUP9 CALLDATALOAD SWAP8 POP PUSH1 0x20 DUP10 ADD CALLDATALOAD SWAP7 POP PUSH1 0xE0 PUSH1 0x3F NOT DUP3 ADD SLT ISZERO PUSH2 0x4875 JUMPI PUSH0 PUSH0 REVERT JUMPDEST POP PUSH1 0x40 DUP9 ADD SWAP5 POP PUSH2 0x120 DUP9 ADD CALLDATALOAD PUSH1 0x1 PUSH1 0x1 PUSH1 0x40 SHL SUB DUP2 GT ISZERO PUSH2 0x4895 JUMPI PUSH0 PUSH0 REVERT JUMPDEST PUSH2 0x48A1 DUP11 DUP3 DUP12 ADD PUSH2 0x47FD JUMP JUMPDEST SWAP1 SWAP6 POP SWAP4 POP POP PUSH2 0x140 DUP9 ADD CALLDATALOAD PUSH1 0x1 PUSH1 0x1 PUSH1 0x40 SHL SUB DUP2 GT ISZERO PUSH2 0x48C0 JUMPI PUSH0 PUSH0 REVERT JUMPDEST PUSH2 0x48CC DUP11 DUP3 DUP12 ADD PUSH2 0x47FD JUMP JUMPDEST SWAP9 SWAP12 SWAP8 SWAP11 POP SWAP6 SWAP9 POP SWAP4 SWAP7 SWAP3 SWAP6 SWAP3 SWAP4 POP POP POP JUMP JUMPDEST PUSH1 0x80 DUP2 MSTORE PUSH0 PUSH2 0x48F1 PUSH1 0x80 DUP4 ADD DUP8 PUSH2 0x472A JUMP JUMPDEST DUP3 DUP2 SUB PUSH1 0x20 DUP5 ADD MSTORE PUSH2 0x4903 DUP2 DUP8 PUSH2 0x472A JUMP JUMPDEST SWAP1 POP DUP3 DUP2 SUB PUSH1 0x40 DUP5 ADD MSTORE PUSH2 0x4917 DUP2 DUP7 PUSH2 0x472A JUMP JUMPDEST SWAP2 POP POP DUP3 PUSH1 0x60 DUP4 ADD MSTORE SWAP6 SWAP5 POP POP POP POP POP JUMP JUMPDEST PUSH0 PUSH0 PUSH0 PUSH0 PUSH0 PUSH1 0x80 DUP7 DUP9 SUB SLT ISZERO PUSH2 0x493D JUMPI PUSH0 PUSH0 REVERT JUMPDEST DUP6 CALLDATALOAD SWAP5 POP PUSH1 0x20 DUP7 ADD CALLDATALOAD SWAP4 POP PUSH1 0x40 DUP7 ADD CALLDATALOAD SWAP3 POP PUSH1 0x60 DUP7 ADD CALLDATALOAD PUSH1 0x1 PUSH1 0x1 PUSH1 0x40 SHL SUB DUP2 GT ISZERO PUSH2 0x4967 JUMPI PUSH0 PUSH0 REVERT JUMPDEST PUSH2 0x4973 DUP9 DUP3 DUP10 ADD PUSH2 0x47FD JUMP JUMPDEST SWAP7 SWAP10 SWAP6 SWAP9 POP SWAP4 SWAP7 POP SWAP3 SWAP5 SWAP4 SWAP3 POP POP POP JUMP JUMPDEST PUSH0 PUSH1 0x20 DUP3 DUP5 SUB SLT ISZERO PUSH2 0x4994 JUMPI PUSH0 PUSH0 REVERT JUMPDEST DUP2 CALLDATALOAD PUSH2 0x1C7A DUP2 PUSH2 0x4781 JUMP JUMPDEST DUP2 MLOAD PUSH1 0x1 PUSH1 0x1 PUSH1 0xA0 SHL SUB AND DUP2 MSTORE PUSH2 0x180 DUP2 ADD PUSH1 0x20 DUP4 ADD MLOAD PUSH2 0x49CB PUSH1 0x20 DUP5 ADD DUP3 PUSH1 0x1 PUSH1 0x1 PUSH1 0xA0 SHL SUB AND SWAP1 MSTORE JUMP JUMPDEST POP PUSH1 0x40 DUP4 ADD MLOAD PUSH2 0x49E6 PUSH1 0x40 DUP5 ADD DUP3 PUSH1 0x1 PUSH1 0x1 PUSH1 0xA0 SHL SUB AND SWAP1 MSTORE JUMP JUMPDEST POP PUSH1 0x60 DUP4 ADD MLOAD PUSH2 0x4A01 PUSH1 0x60 DUP5 ADD DUP3 PUSH1 0x1 PUSH1 0x1 PUSH1 0xA0 SHL SUB AND SWAP1 MSTORE JUMP JUMPDEST POP PUSH1 0x80 DUP4 ADD MLOAD PUSH2 0x4A1C PUSH1 0x80 DUP5 ADD DUP3 PUSH1 0x1 PUSH1 0x1 PUSH1 0xA0 SHL SUB AND SWAP1 MSTORE JUMP JUMPDEST POP PUSH1 0xA0 DUP4 ADD MLOAD PUSH2 0x4A37 PUSH1 0xA0 DUP5 ADD DUP3 PUSH1 0x1 PUSH1 0x1 PUSH1 0xA0 SHL SUB AND SWAP1 MSTORE JUMP JUMPDEST POP PUSH1 0xC0 DUP4 ADD MLOAD PUSH2 0x4A52 PUSH1 0xC0 DUP5 ADD DUP3 PUSH1 0x1 PUSH1 0x1 PUSH1 0xA0 SHL SUB AND SWAP1 MSTORE JUMP JUMPDEST POP PUSH1 0xE0 DUP4 ADD MLOAD PUSH2 0x4A6D PUSH1 0xE0 DUP5 ADD DUP3 PUSH1 0x1 PUSH1 0x1 PUSH1 0x40 SHL SUB AND SWAP1 MSTORE JUMP JUMPDEST POP PUSH2 0x100 DUP4 ADD MLOAD PUSH2 0x4A85 PUSH2 0x100 DUP5 ADD DUP3 PUSH2 0xFFFF AND SWAP1 MSTORE JUMP JUMPDEST POP PUSH2 0x120 DUP4 ADD MLOAD PUSH2 0x4A9D PUSH2 0x120 DUP5 ADD DUP3 PUSH2 0xFFFF AND SWAP1 MSTORE JUMP JUMPDEST POP PUSH2 0x140 DUP4 ADD MLOAD PUSH2 0x4AB5 PUSH2 0x140 DUP5 ADD DUP3 PUSH2 0xFFFF AND SWAP1 MSTORE JUMP JUMPDEST POP PUSH2 0x160 DUP4 ADD MLOAD PUSH2 0x4ACD PUSH2 0x160 DUP5 ADD DUP3 PUSH2 0xFFFF AND SWAP1 MSTORE JUMP JUMPDEST POP SWAP3 SWAP2 POP POP JUMP JUMPDEST PUSH0 PUSH0 PUSH1 0x40 DUP4 DUP6 SUB SLT ISZERO PUSH2 0x4AE5 JUMPI PUSH0 PUSH0 REVERT JUMPDEST DUP3 CALLDATALOAD PUSH2 0x4AF0 DUP2 PUSH2 0x4781 JUMP JUMPDEST SWAP2 POP PUSH1 0x20 DUP4 ADD CALLDATALOAD DUP1 ISZERO ISZERO DUP2 EQ PUSH2 0x4B04 JUMPI PUSH0 PUSH0 REVERT JUMPDEST DUP1 SWAP2 POP POP SWAP3 POP SWAP3 SWAP1 POP JUMP JUMPDEST PUSH0 PUSH0 PUSH0 PUSH1 0x60 DUP5 DUP7 SUB SLT ISZERO PUSH2 0x4B21 JUMPI PUSH0 PUSH0 REVERT JUMPDEST DUP4 CALLDATALOAD PUSH2 0x4B2C DUP2 PUSH2 0x4781 JUMP JUMPDEST SWAP6 PUSH1 0x20 DUP6 ADD CALLDATALOAD SWAP6 POP PUSH1 0x40 SWAP1 SWAP5 ADD CALLDATALOAD SWAP4 SWAP3 POP POP POP JUMP JUMPDEST PUSH0 PUSH0 PUSH0 PUSH0 PUSH0 PUSH1 0x80 DUP7 DUP9 SUB SLT ISZERO PUSH2 0x4B55 JUMPI PUSH0 PUSH0 REVERT JUMPDEST DUP6 CALLDATALOAD PUSH2 0x4B60 DUP2 PUSH2 0x4781 JUMP JUMPDEST SWAP5 POP PUSH1 0x20 DUP7 ADD CALLDATALOAD PUSH2 0x4B70 DUP2 PUSH2 0x4781 JUMP JUMPDEST SWAP4 POP PUSH1 0x40 DUP7 ADD CALLDATALOAD SWAP3 POP PUSH1 0x60 DUP7 ADD CALLDATALOAD PUSH1 0x1 PUSH1 0x1 PUSH1 0x40 SHL SUB DUP2 GT ISZERO PUSH2 0x4967 JUMPI PUSH0 PUSH0 REVERT JUMPDEST PUSH0 PUSH0 PUSH0 PUSH1 0x60 DUP5 DUP7 SUB SLT ISZERO PUSH2 0x4BA3 JUMPI PUSH0 PUSH0 REVERT JUMPDEST POP POP DUP2 CALLDATALOAD SWAP4 PUSH1 0x20 DUP4 ADD CALLDATALOAD SWAP4 POP PUSH1 0x40 SWAP1 SWAP3 ADD CALLDATALOAD SWAP2 SWAP1 POP JUMP JUMPDEST PUSH0 PUSH1 0x20 DUP3 DUP5 SUB SLT ISZERO PUSH2 0x4BCA JUMPI PUSH0 PUSH0 REVERT JUMPDEST DUP2 CALLDATALOAD PUSH1 0x1 PUSH1 0x1 PUSH1 0x40 SHL SUB DUP2 GT ISZERO PUSH2 0x4BDF JUMPI PUSH0 PUSH0 REVERT JUMPDEST DUP3 ADD PUSH2 0x180 DUP2 DUP6 SUB SLT ISZERO PUSH2 0x1C7A JUMPI PUSH0 PUSH0 REVERT JUMPDEST PUSH0 PUSH0 PUSH1 0x40 DUP4 DUP6 SUB SLT ISZERO PUSH2 0x4C02 JUMPI PUSH0 PUSH0 REVERT JUMPDEST DUP3 CALLDATALOAD PUSH2 0x4C0D DUP2 PUSH2 0x4781 JUMP JUMPDEST SWAP2 POP PUSH1 0x20 DUP4 ADD CALLDATALOAD PUSH2 0x4B04 DUP2 PUSH2 0x4781 JUMP JUMPDEST DUP2 MLOAD PUSH1 0x1 PUSH1 0x1 PUSH1 0xA0 SHL SUB AND DUP2 MSTORE PUSH2 0x160 DUP2 ADD PUSH1 0x20 DUP4 ADD MLOAD PUSH1 0x20 DUP4 ADD MSTORE PUSH1 0x40 DUP4 ADD MLOAD PUSH1 0x40 DUP4 ADD MSTORE PUSH1 0x60 DUP4 ADD MLOAD PUSH1 0x60 DUP4 ADD MSTORE PUSH1 0x80 DUP4 ADD MLOAD PUSH1 0x80 DUP4 ADD MSTORE PUSH1 0xA0 DUP4 ADD MLOAD PUSH1 0xA0 DUP4 ADD MSTORE PUSH1 0xC0 DUP4 ADD MLOAD PUSH2 0x4C7B PUSH1 0xC0 DUP5 ADD DUP3 PUSH1 0x1 PUSH1 0x1 PUSH1 0x40 SHL SUB AND SWAP1 MSTORE JUMP JUMPDEST POP PUSH1 0xE0 DUP4 ADD MLOAD PUSH2 0x4C96 PUSH1 0xE0 DUP5 ADD DUP3 PUSH1 0x1 PUSH1 0x1 PUSH1 0x40 SHL SUB AND SWAP1 MSTORE JUMP JUMPDEST POP PUSH2 0x100 DUP4 ADD MLOAD PUSH2 0x4CAC PUSH2 0x100 DUP5 ADD DUP3 ISZERO ISZERO SWAP1 MSTORE JUMP JUMPDEST POP PUSH2 0x120 DUP4 ADD MLOAD PUSH2 0x4CC2 PUSH2 0x120 DUP5 ADD DUP3 ISZERO ISZERO SWAP1 MSTORE JUMP JUMPDEST POP PUSH2 0x140 DUP4 ADD MLOAD PUSH2 0x4ACD PUSH2 0x140 DUP5 ADD DUP3 ISZERO ISZERO SWAP1 MSTORE JUMP JUMPDEST PUSH1 0x1 DUP2 DUP2 SHR SWAP1 DUP3 AND DUP1 PUSH2 0x4CEC JUMPI PUSH1 0x7F DUP3 AND SWAP2 POP JUMPDEST PUSH1 0x20 DUP3 LT DUP2 SUB PUSH2 0x4D0A JUMPI PUSH4 0x4E487B71 PUSH1 0xE0 SHL PUSH0 MSTORE PUSH1 0x22 PUSH1 0x4 MSTORE PUSH1 0x24 PUSH0 REVERT JUMPDEST POP SWAP2 SWAP1 POP JUMP JUMPDEST DUP2 DUP4 DUP3 CALLDATACOPY PUSH0 SWAP2 ADD SWAP1 DUP2 MSTORE SWAP2 SWAP1 POP JUMP JUMPDEST PUSH4 0x4E487B71 PUSH1 0xE0 SHL PUSH0 MSTORE PUSH1 0x11 PUSH1 0x4 MSTORE PUSH1 0x24 PUSH0 REVERT JUMPDEST DUP1 DUP3 MUL DUP2 ISZERO DUP3 DUP3 DIV DUP5 EQ OR PUSH2 0x354E JUMPI PUSH2 0x354E PUSH2 0x4D1F JUMP JUMPDEST PUSH0 DUP3 PUSH2 0x4D64 JUMPI PUSH4 0x4E487B71 PUSH1 0xE0 SHL PUSH0 MSTORE PUSH1 0x12 PUSH1 0x4 MSTORE PUSH1 0x24 PUSH0 REVERT JUMPDEST POP DIV SWAP1 JUMP JUMPDEST PUSH1 0x1 PUSH1 0x1 PUSH1 0x40 SHL SUB DUP2 AND DUP2 EQ PUSH2 0x213A JUMPI PUSH0 PUSH0 REVERT JUMPDEST DUP1 CALLDATALOAD PUSH2 0x1480 DUP2 PUSH2 0x4D69 JUMP JUMPDEST PUSH0 PUSH1 0x20 DUP3 DUP5 SUB SLT ISZERO PUSH2 0x4D98 JUMPI PUSH0 PUSH0 REVERT JUMPDEST DUP2 CALLDATALOAD PUSH2 0x1C7A DUP2 PUSH2 0x4D69 JUMP JUMPDEST DUP2 DUP2 SUB DUP2 DUP2 GT ISZERO PUSH2 0x354E JUMPI PUSH2 0x354E PUSH2 0x4D1F JUMP JUMPDEST PUSH0 PUSH1 0x20 DUP3 DUP5 SUB SLT ISZERO PUSH2 0x4DC6 JUMPI PUSH0 PUSH0 REVERT JUMPDEST DUP2 MLOAD PUSH2 0x1C7A DUP2 PUSH2 0x4D69 JUMP JUMPDEST PUSH0 PUSH1 0x20 DUP3 DUP5 SUB SLT ISZERO PUSH2 0x4DE1 JUMPI PUSH0 PUSH0 REVERT JUMPDEST POP MLOAD SWAP2 SWAP1 POP JUMP JUMPDEST PUSH0 DUP2 MLOAD DUP1 PUSH1 0x20 DUP5 ADD DUP6 MCOPY PUSH0 SWAP4 ADD SWAP3 DUP4 MSTORE POP SWAP1 SWAP2 SWAP1 POP JUMP JUMPDEST PUSH0 PUSH2 0x4E13 PUSH2 0x4E0D DUP4 DUP7 PUSH2 0x4DE8 JUMP JUMPDEST DUP5 PUSH2 0x4DE8 JUMP JUMPDEST SWAP5 SWAP4 POP POP POP POP JUMP JUMPDEST DUP1 DUP3 ADD DUP1 DUP3 GT ISZERO PUSH2 0x354E JUMPI PUSH2 0x354E PUSH2 0x4D1F JUMP JUMPDEST PUSH1 0x1 PUSH1 0x1 PUSH1 0x40 SHL SUB DUP2 DUP2 AND DUP4 DUP3 AND ADD SWAP1 DUP2 GT ISZERO PUSH2 0x354E JUMPI PUSH2 0x354E PUSH2 0x4D1F JUMP JUMPDEST PUSH0 PUSH1 0x20 DUP3 DUP5 SUB SLT ISZERO PUSH2 0x4E5D JUMPI PUSH0 PUSH0 REVERT JUMPDEST DUP2 MLOAD PUSH2 0x1C7A DUP2 PUSH2 0x4781 JUMP JUMPDEST DUP1 CALLDATALOAD PUSH1 0x2 DUP2 LT PUSH2 0x1480 JUMPI PUSH0 PUSH0 REVERT JUMPDEST PUSH0 PUSH1 0x20 DUP3 DUP5 SUB SLT ISZERO PUSH2 0x4E86 JUMPI PUSH0 PUSH0 REVERT JUMPDEST PUSH2 0x354B DUP3 PUSH2 0x4E68 JUMP JUMPDEST PUSH4 0x4E487B71 PUSH1 0xE0 SHL PUSH0 MSTORE PUSH1 0x21 PUSH1 0x4 MSTORE PUSH1 0x24 PUSH0 REVERT JUMPDEST PUSH1 0x1 PUSH1 0x1 PUSH1 0x40 SHL SUB DUP2 DUP2 AND DUP4 DUP3 AND MUL SWAP1 DUP2 AND SWAP1 DUP2 DUP2 EQ PUSH2 0x4ACD JUMPI PUSH2 0x4ACD PUSH2 0x4D1F JUMP JUMPDEST PUSH12 0xFFFFFFFFFFFFFFFFFFFFFFFF NOT DUP7 PUSH1 0x60 SHL AND DUP2 MSTORE PUSH12 0xFFFFFFFFFFFFFFFFFFFFFFFF NOT DUP6 PUSH1 0x60 SHL AND PUSH1 0x14 DUP3 ADD MSTORE DUP4 PUSH1 0x28 DUP3 ADD MSTORE DUP3 PUSH1 0x48 DUP3 ADD MSTORE PUSH0 PUSH1 0x3 DUP4 LT PUSH2 0x4F0F JUMPI PUSH2 0x4F0F PUSH2 0x4E8F JUMP JUMPDEST POP PUSH1 0xF8 SWAP2 SWAP1 SWAP2 SHL PUSH1 0x68 DUP3 ADD MSTORE PUSH1 0x69 ADD SWAP5 SWAP4 POP POP POP POP JUMP JUMPDEST PUSH1 0x20 DUP2 MSTORE DUP2 PUSH1 0x20 DUP3 ADD MSTORE DUP2 DUP4 PUSH1 0x40 DUP4 ADD CALLDATACOPY PUSH0 DUP2 DUP4 ADD PUSH1 0x40 SWAP1 DUP2 ADD SWAP2 SWAP1 SWAP2 MSTORE PUSH1 0x1F SWAP1 SWAP3 ADD PUSH1 0x1F NOT AND ADD ADD SWAP2 SWAP1 POP JUMP JUMPDEST PUSH1 0x2 DUP2 LT PUSH2 0x4F64 JUMPI PUSH2 0x4F64 PUSH2 0x4E8F JUMP JUMPDEST SWAP1 MSTORE JUMP JUMPDEST PUSH1 0x1 PUSH1 0x1 PUSH1 0xA0 SHL SUB DUP7 DUP2 AND DUP3 MSTORE DUP6 AND PUSH1 0x20 DUP3 ADD MSTORE PUSH1 0x40 DUP2 ADD DUP5 SWAP1 MSTORE PUSH1 0x60 DUP2 ADD DUP4 SWAP1 MSTORE PUSH2 0x160 DUP2 ADD DUP3 CALLDATALOAD PUSH2 0x4F9A DUP2 PUSH2 0x4D69 JUMP JUMPDEST PUSH1 0x1 PUSH1 0x1 PUSH1 0x40 SHL SUB AND PUSH1 0x80 DUP4 ADD MSTORE PUSH1 0x20 DUP4 ADD CALLDATALOAD PUSH2 0x4FB6 DUP2 PUSH2 0x4D69 JUMP JUMPDEST PUSH1 0x1 PUSH1 0x1 PUSH1 0x40 SHL SUB AND PUSH1 0xA0 DUP4 ADD MSTORE PUSH1 0x40 DUP4 ADD CALLDATALOAD PUSH2 0x4FD2 DUP2 PUSH2 0x4D69 JUMP JUMPDEST PUSH1 0x1 PUSH1 0x1 PUSH1 0x40 SHL SUB AND PUSH1 0xC0 DUP4 ADD MSTORE PUSH2 0x4FEC PUSH1 0x60 DUP5 ADD PUSH2 0x4E68 JUMP JUMPDEST PUSH2 0x4FF9 PUSH1 0xE0 DUP5 ADD DUP3 PUSH2 0x4F54 JUMP JUMPDEST POP PUSH2 0x5006 PUSH1 0x80 DUP5 ADD PUSH2 0x4D7D JUMP JUMPDEST PUSH1 0x1 PUSH1 0x1 PUSH1 0x40 SHL SUB AND PUSH2 0x100 DUP4 ADD MSTORE PUSH2 0x5021 PUSH1 0xA0 DUP5 ADD PUSH2 0x4D7D JUMP JUMPDEST PUSH1 0x1 PUSH1 0x1 PUSH1 0x40 SHL SUB AND PUSH2 0x120 DUP4 ADD MSTORE PUSH2 0x503C PUSH1 0xC0 DUP5 ADD PUSH2 0x4D7D JUMP JUMPDEST PUSH1 0x1 PUSH1 0x1 PUSH1 0x40 SHL SUB DUP2 AND PUSH2 0x140 DUP5 ADD MSTORE POP SWAP7 SWAP6 POP POP POP POP POP POP JUMP JUMPDEST PUSH4 0x4E487B71 PUSH1 0xE0 SHL PUSH0 MSTORE PUSH1 0x41 PUSH1 0x4 MSTORE PUSH1 0x24 PUSH0 REVERT JUMPDEST PUSH0 PUSH1 0x20 DUP3 DUP5 SUB SLT ISZERO PUSH2 0x507B JUMPI PUSH0 PUSH0 REVERT JUMPDEST DUP2 CALLDATALOAD PUSH2 0xFFFF DUP2 AND DUP2 EQ PUSH2 0x1C7A JUMPI PUSH0 PUSH0 REVERT JUMPDEST PUSH0 PUSH0 DUP4 CALLDATALOAD PUSH1 0x1E NOT DUP5 CALLDATASIZE SUB ADD DUP2 SLT PUSH2 0x50A1 JUMPI PUSH0 PUSH0 REVERT JUMPDEST DUP4 ADD DUP1 CALLDATALOAD SWAP2 POP PUSH1 0x1 PUSH1 0x1 PUSH1 0x40 SHL SUB DUP3 GT ISZERO PUSH2 0x50BA JUMPI PUSH0 PUSH0 REVERT JUMPDEST PUSH1 0x20 ADD SWAP2 POP CALLDATASIZE DUP2 SWAP1 SUB DUP3 SGT ISZERO PUSH2 0x483A JUMPI PUSH0 PUSH0 REVERT JUMPDEST PUSH1 0x1F DUP3 GT ISZERO PUSH2 0xB23 JUMPI DUP1 PUSH0 MSTORE PUSH1 0x20 PUSH0 KECCAK256 PUSH1 0x1F DUP5 ADD PUSH1 0x5 SHR DUP2 ADD PUSH1 0x20 DUP6 LT ISZERO PUSH2 0x50F3 JUMPI POP DUP1 JUMPDEST PUSH1 0x1F DUP5 ADD PUSH1 0x5 SHR DUP3 ADD SWAP2 POP JUMPDEST DUP2 DUP2 LT ISZERO PUSH2 0x1B13 JUMPI PUSH0 DUP2 SSTORE PUSH1 0x1 ADD PUSH2 0x50FF JUMP JUMPDEST PUSH1 0x1 PUSH1 0x1 PUSH1 0x40 SHL SUB DUP4 GT ISZERO PUSH2 0x5129 JUMPI PUSH2 0x5129 PUSH2 0x5057 JUMP JUMPDEST PUSH2 0x513D DUP4 PUSH2 0x5137 DUP4 SLOAD PUSH2 0x4CD8 JUMP JUMPDEST DUP4 PUSH2 0x50CE JUMP JUMPDEST PUSH0 PUSH1 0x1F DUP5 GT PUSH1 0x1 DUP2 EQ PUSH2 0x516E JUMPI PUSH0 DUP6 ISZERO PUSH2 0x5157 JUMPI POP DUP4 DUP3 ADD CALLDATALOAD JUMPDEST PUSH0 NOT PUSH1 0x3 DUP8 SWAP1 SHL SHR NOT AND PUSH1 0x1 DUP7 SWAP1 SHL OR DUP4 SSTORE PUSH2 0x1B13 JUMP JUMPDEST PUSH0 DUP4 DUP2 MSTORE PUSH1 0x20 DUP2 KECCAK256 PUSH1 0x1F NOT DUP8 AND SWAP2 JUMPDEST DUP3 DUP2 LT ISZERO PUSH2 0x519D JUMPI DUP7 DUP6 ADD CALLDATALOAD DUP3 SSTORE PUSH1 0x20 SWAP5 DUP6 ADD SWAP5 PUSH1 0x1 SWAP1 SWAP3 ADD SWAP2 ADD PUSH2 0x517D JUMP JUMPDEST POP DUP7 DUP3 LT ISZERO PUSH2 0x51B9 JUMPI PUSH0 NOT PUSH1 0xF8 DUP9 PUSH1 0x3 SHL AND SHR NOT DUP5 DUP8 ADD CALLDATALOAD AND DUP2 SSTORE JUMPDEST POP POP PUSH1 0x1 DUP6 PUSH1 0x1 SHL ADD DUP4 SSTORE POP POP POP POP POP JUMP JUMPDEST PUSH0 PUSH1 0x1 DUP3 ADD PUSH2 0x51DC JUMPI PUSH2 0x51DC PUSH2 0x4D1F JUMP JUMPDEST POP PUSH1 0x1 ADD SWAP1 JUMP INVALID 0xDD CALLCODE MSTORE 0xAD SHL 0xE2 0xC8 SWAP12 PUSH10 0xC2B068FC378DAA952BA7 CALL PUSH4 0xC4A11628 CREATE2 GAS 0x4D CREATE2 0x23 0xB3 0xEF LOG2 PUSH5 0x6970667358 0x22 SLT KECCAK256 0x2E GASLIMIT 0xC9 SWAP9 0xDF SWAP10 CHAINID 0x25 0xE MSTORE8 REVERT 0xEB GASLIMIT SWAP6 STATICCALL 0xD5 0xD3 DUP12 0x1F PUSH4 0x6B454B1F DUP5 PUSH12 0xC8757640D49764736F6C6343 STOP ADDMOD 0x1E STOP CALLER "
		},
		"gasEstimates": {
			"creation": {
				"codeDepositCost": "4209800",
				"executionCost": "29060",
				"totalCost": "4238860"
			},
			"external": {
				"approve(address,uint256)": "28925",
				"balanceOf(address)": "2687",
				"cancel()": "infinite",
				"claimTokenAllocation(uint256,uint256,(uint64,uint64,uint64,uint8,uint64,uint64,uint64),bytes,bytes)": "infinite",
				"emergencyWithdraw(address,address,uint256)": "infinite",
				"end()": "infinite",
				"getApproved(uint256)": "4705",
				"initialize((address,address,address,address,uint64,uint16,uint16,uint16,uint16,string,string,string))": "infinite",
				"invest(uint256,uint256,uint256,bytes)": "infinite",
				"investorPosition(address)": "infinite",
				"investorVestingStatus(address)": "infinite",
				"isApprovedForAll(address,address)": "infinite",
				"locked(uint256)": "4717",
				"name()": "infinite",
				"ownerOf(uint256)": "2609",
				"pause()": "infinite",
				"paused()": "2359",
				"publishRaisedCapital(uint256)": "infinite",
				"publishTgeDetails(address,uint256,uint256)": "infinite",
				"refund()": "infinite",
				"releaseVestedTokens()": "infinite",
				"s_positionManagerConfig()": "infinite",
				"safeTransferFrom(address,address,uint256)": "infinite",
				"safeTransferFrom(address,address,uint256,bytes)": "infinite",
				"saleConfiguration()": "18487",
				"saleStatus()": "16119",
				"setApprovalForAll(address,bool)": "24470",
				"supplyTokens(uint256,uint256,uint256)": "infinite",
				"supportsInterface(bytes4)": "424",
				"symbol()": "infinite",
				"syncLegionAddresses()": "infinite",
				"tokenURI(uint256)": "infinite",
				"transferFrom(address,address,uint256)": "infinite",
				"transferInvestorPosition(address,address,uint256)": "infinite",
				"transferInvestorPositionWithAuthorization(address,address,uint256,bytes)": "infinite",
				"unpause()": "infinite",
				"vestingConfiguration()": "4670",
				"withdrawExcessInvestedCapital(uint256,uint256,uint256,bytes)": "infinite",
				"withdrawInvestedCapitalIfCanceled()": "infinite",
				"withdrawRaisedCapital()": "infinite"
			},
			"internal": {
				"_burnOrTransferInvestorPosition(address,address,uint256)": "infinite",
				"_setLegionSaleConfig(struct ILegionPreLiquidApprovedSale.PreLiquidSaleInitializationParams calldata)": "infinite",
				"_syncLegionAddresses()": "infinite",
				"_updateInvestorPosition(uint256,uint256,uint256)": "48574",
				"_verifyCanClaimExcessCapital(uint256)": "infinite",
				"_verifyCanClaimTokenAllocation(uint256)": "infinite",
				"_verifyCanPublishCapitalRaised()": "infinite",
				"_verifyCanSupplyTokens(uint256)": "infinite",
				"_verifyCanTransferInvestorPosition(uint256)": "infinite",
				"_verifyCanWithdrawCapital()": "infinite",
				"_verifyHasNotRefunded(uint256)": "infinite",
				"_verifyRefundPeriodIsNotOver()": "infinite",
				"_verifyRefundPeriodIsOver()": "infinite",
				"_verifySaleHasEnded()": "infinite",
				"_verifySaleHasNotEnded()": "infinite",
				"_verifySaleIsCanceled()": "infinite",
				"_verifySaleNotCanceled()": "infinite",
				"_verifySaleResultsNotPublished()": "infinite",
				"_verifySignatureNotUsed(bytes calldata)": "infinite",
				"_verifyTokensNotSupplied()": "infinite",
				"_verifyTokensSupplied()": "infinite",
				"_verifyValidConfig(struct ILegionPreLiquidApprovedSale.PreLiquidSaleInitializationParams calldata)": "infinite",
				"_verifyValidPosition(bytes calldata,uint256,enum ILegionPreLiquidApprovedSale.SaleAction)": "infinite",
				"_verifyValidVestingPosition(bytes calldata,uint256,struct ILegionVestingManager.LegionInvestorVestingConfig calldata)": "infinite"
			}
		},
		"methodIdentifiers": {
			"approve(address,uint256)": "095ea7b3",
			"balanceOf(address)": "70a08231",
			"cancel()": "ea8a1af0",
			"claimTokenAllocation(uint256,uint256,(uint64,uint64,uint64,uint8,uint64,uint64,uint64),bytes,bytes)": "37dc027d",
			"emergencyWithdraw(address,address,uint256)": "e63ea408",
			"end()": "efbe1c1c",
			"getApproved(uint256)": "081812fc",
			"initialize((address,address,address,address,uint64,uint16,uint16,uint16,uint16,string,string,string))": "d8a5bf9f",
			"invest(uint256,uint256,uint256,bytes)": "edcc1c1e",
			"investorPosition(address)": "84cbd9cd",
			"investorVestingStatus(address)": "699c2994",
			"isApprovedForAll(address,address)": "e985e9c5",
			"locked(uint256)": "b45a3c0e",
			"name()": "06fdde03",
			"ownerOf(uint256)": "6352211e",
			"pause()": "8456cb59",
			"paused()": "5c975abb",
			"publishRaisedCapital(uint256)": "5570fdbf",
			"publishTgeDetails(address,uint256,uint256)": "a83c2063",
			"refund()": "590e1ae3",
			"releaseVestedTokens()": "54dd1da4",
			"s_positionManagerConfig()": "3fdbdcd9",
			"safeTransferFrom(address,address,uint256)": "42842e0e",
			"safeTransferFrom(address,address,uint256,bytes)": "b88d4fde",
			"saleConfiguration()": "90dbb806",
			"saleStatus()": "f9020e33",
			"setApprovalForAll(address,bool)": "a22cb465",
			"supplyTokens(uint256,uint256,uint256)": "cc6ae755",
			"supportsInterface(bytes4)": "01ffc9a7",
			"symbol()": "95d89b41",
			"syncLegionAddresses()": "0a636d5b",
			"tokenURI(uint256)": "c87b56dd",
			"transferFrom(address,address,uint256)": "23b872dd",
			"transferInvestorPosition(address,address,uint256)": "08af6e25",
			"transferInvestorPositionWithAuthorization(address,address,uint256,bytes)": "e5f67382",
			"unpause()": "3f4ba83a",
			"vestingConfiguration()": "3cccebc5",
			"withdrawExcessInvestedCapital(uint256,uint256,uint256,bytes)": "4bd31fb1",
			"withdrawInvestedCapitalIfCanceled()": "f71c2364",
			"withdrawRaisedCapital()": "f68c1d49"
		}
	},
	"abi": [
		{
			"inputs": [],
			"stateMutability": "nonpayable",
			"type": "constructor"
		},
		{
			"inputs": [],
			"name": "AccountBalanceOverflow",
			"type": "error"
		},
		{
			"inputs": [],
			"name": "BalanceQueryForZeroAddress",
			"type": "error"
		},
		{
			"inputs": [],
			"name": "ECDSAInvalidSignature",
			"type": "error"
		},
		{
			"inputs": [
				{
					"internalType": "uint256",
					"name": "length",
					"type": "uint256"
				}
			],
			"name": "ECDSAInvalidSignatureLength",
			"type": "error"
		},
		{
			"inputs": [
				{
					"internalType": "bytes32",
					"name": "s",
					"type": "bytes32"
				}
			],
			"name": "ECDSAInvalidSignatureS",
			"type": "error"
		},
		{
			"inputs": [
				{
					"internalType": "uint256",
					"name": "tokenId",
					"type": "uint256"
				}
			],
			"name": "ERC5192__LockedToken",
			"type": "error"
		},
		{
			"inputs": [
				{
					"internalType": "uint256",
					"name": "tokenId",
					"type": "uint256"
				}
			],
			"name": "ERC5192__TransferToSelf",
			"type": "error"
		},
		{
			"inputs": [],
			"name": "EnforcedPause",
			"type": "error"
		},
		{
			"inputs": [],
			"name": "ExpectedPause",
			"type": "error"
		},
		{
			"inputs": [],
			"name": "InvalidInitialization",
			"type": "error"
		},
		{
			"inputs": [
				{
					"internalType": "address",
					"name": "investor",
					"type": "address"
				}
			],
			"name": "LegionSale__AlreadyClaimedExcess",
			"type": "error"
		},
		{
			"inputs": [
				{
					"internalType": "address",
					"name": "investor",
					"type": "address"
				}
			],
			"name": "LegionSale__AlreadySettled",
			"type": "error"
		},
		{
			"inputs": [],
			"name": "LegionSale__CapitalAlreadyWithdrawn",
			"type": "error"
		},
		{
			"inputs": [],
			"name": "LegionSale__CapitalNotRaised",
			"type": "error"
		},
		{
			"inputs": [],
			"name": "LegionSale__CapitalRaisedAlreadyPublished",
			"type": "error"
		},
		{
			"inputs": [
				{
					"internalType": "uint256",
					"name": "amount",
					"type": "uint256"
				},
				{
					"internalType": "uint256",
					"name": "expectedAmount",
					"type": "uint256"
				}
			],
			"name": "LegionSale__InvalidFeeAmount",
			"type": "error"
		},
		{
			"inputs": [],
			"name": "LegionSale__InvalidPeriodConfig",
			"type": "error"
		},
		{
			"inputs": [
				{
					"internalType": "address",
					"name": "investor",
					"type": "address"
				}
			],
			"name": "LegionSale__InvalidPositionAmount",
			"type": "error"
		},
		{
			"inputs": [
				{
					"internalType": "bytes",
					"name": "signature",
					"type": "bytes"
				}
			],
			"name": "LegionSale__InvalidSignature",
			"type": "error"
		},
		{
			"inputs": [
				{
					"internalType": "uint256",
					"name": "amount",
					"type": "uint256"
				},
				{
					"internalType": "uint256",
					"name": "expectedAmount",
					"type": "uint256"
				}
			],
			"name": "LegionSale__InvalidTokenAmountSupplied",
			"type": "error"
		},
		{
			"inputs": [
				{
					"internalType": "uint256",
					"name": "amount",
					"type": "uint256"
				}
			],
			"name": "LegionSale__InvalidWithdrawAmount",
			"type": "error"
		},
		{
			"inputs": [
				{
					"internalType": "address",
					"name": "investor",
					"type": "address"
				}
			],
			"name": "LegionSale__InvestorHasRefunded",
			"type": "error"
		},
		{
			"inputs": [],
			"name": "LegionSale__InvestorPositionDoesNotExist",
			"type": "error"
		},
		{
			"inputs": [],
			"name": "LegionSale__NotCalledByLegion",
			"type": "error"
		},
		{
			"inputs": [],
			"name": "LegionSale__NotCalledByLegionOrProject",
			"type": "error"
		},
		{
			"inputs": [],
			"name": "LegionSale__NotCalledByProject",
			"type": "error"
		},
		{
			"inputs": [
				{
					"internalType": "uint256",
					"name": "currentTimestamp",
					"type": "uint256"
				},
				{
					"internalType": "uint256",
					"name": "refundEndTimestamp",
					"type": "uint256"
				}
			],
			"name": "LegionSale__RefundPeriodIsNotOver",
			"type": "error"
		},
		{
			"inputs": [
				{
					"internalType": "uint256",
					"name": "currentTimestamp",
					"type": "uint256"
				},
				{
					"internalType": "uint256",
					"name": "refundEndTimestamp",
					"type": "uint256"
				}
			],
			"name": "LegionSale__RefundPeriodIsOver",
			"type": "error"
		},
		{
			"inputs": [
				{
					"internalType": "uint256",
					"name": "timestamp",
					"type": "uint256"
				}
			],
			"name": "LegionSale__SaleHasEnded",
			"type": "error"
		},
		{
			"inputs": [],
			"name": "LegionSale__SaleIsCanceled",
			"type": "error"
		},
		{
			"inputs": [],
			"name": "LegionSale__SaleIsNotCanceled",
			"type": "error"
		},
		{
			"inputs": [],
			"name": "LegionSale__SaleResultsAlreadyPublished",
			"type": "error"
		},
		{
			"inputs": [
				{
					"internalType": "bytes",
					"name": "signature",
					"type": "bytes"
				}
			],
			"name": "LegionSale__SignatureAlreadyUsed",
			"type": "error"
		},
		{
			"inputs": [],
			"name": "LegionSale__TokensAlreadySupplied",
			"type": "error"
		},
		{
			"inputs": [],
			"name": "LegionSale__TokensNotAllocated",
			"type": "error"
		},
		{
			"inputs": [],
			"name": "LegionSale__TokensNotSupplied",
			"type": "error"
		},
		{
			"inputs": [
				{
					"internalType": "uint256",
					"name": "positionId",
					"type": "uint256"
				}
			],
			"name": "LegionSale__UnableToMergeInvestorPosition",
			"type": "error"
		},
		{
			"inputs": [
				{
					"internalType": "uint256",
					"name": "positionId",
					"type": "uint256"
				}
			],
			"name": "LegionSale__UnableToTransferInvestorPosition",
			"type": "error"
		},
		{
			"inputs": [],
			"name": "LegionSale__ZeroAddressProvided",
			"type": "error"
		},
		{
			"inputs": [],
			"name": "LegionSale__ZeroValueProvided",
			"type": "error"
		},
		{
			"inputs": [
				{
					"internalType": "uint8",
					"name": "vestingType",
					"type": "uint8"
				},
				{
					"internalType": "uint256",
					"name": "vestingStartTimestamp",
					"type": "uint256"
				},
				{
					"internalType": "uint256",
					"name": "vestingDurationSeconds",
					"type": "uint256"
				},
				{
					"internalType": "uint256",
					"name": "vestingCliffDurationSeconds",
					"type": "uint256"
				},
				{
					"internalType": "uint256",
					"name": "epochDurationSeconds",
					"type": "uint256"
				},
				{
					"internalType": "uint256",
					"name": "numberOfEpochs",
					"type": "uint256"
				},
				{
					"internalType": "uint256",
					"name": "tokenAllocationOnTGERate",
					"type": "uint256"
				}
			],
			"name": "LegionVesting__InvalidVestingConfig",
			"type": "error"
		},
		{
			"inputs": [],
			"name": "NotInitializing",
			"type": "error"
		},
		{
			"inputs": [],
			"name": "NotOwnerNorApproved",
			"type": "error"
		},
		{
			"inputs": [],
			"name": "TokenAlreadyExists",
			"type": "error"
		},
		{
			"inputs": [],
			"name": "TokenDoesNotExist",
			"type": "error"
		},
		{
			"inputs": [],
			"name": "TransferFromIncorrectOwner",
			"type": "error"
		},
		{
			"inputs": [],
			"name": "TransferToNonERC721ReceiverImplementer",
			"type": "error"
		},
		{
			"inputs": [],
			"name": "TransferToZeroAddress",
			"type": "error"
		},
		{
			"anonymous": false,
			"inputs": [
				{
					"indexed": true,
					"internalType": "address",
					"name": "owner",
					"type": "address"
				},
				{
					"indexed": true,
					"internalType": "address",
					"name": "account",
					"type": "address"
				},
				{
					"indexed": true,
					"internalType": "uint256",
					"name": "id",
					"type": "uint256"
				}
			],
			"name": "Approval",
			"type": "event"
		},
		{
			"anonymous": false,
			"inputs": [
				{
					"indexed": true,
					"internalType": "address",
					"name": "owner",
					"type": "address"
				},
				{
					"indexed": true,
					"internalType": "address",
					"name": "operator",
					"type": "address"
				},
				{
					"indexed": false,
					"internalType": "bool",
					"name": "isApproved",
					"type": "bool"
				}
			],
			"name": "ApprovalForAll",
			"type": "event"
		},
		{
			"anonymous": false,
			"inputs": [
				{
					"indexed": false,
					"internalType": "uint256",
					"name": "amount",
					"type": "uint256"
				},
				{
					"indexed": false,
					"internalType": "address",
					"name": "investor",
					"type": "address"
				},
				{
					"indexed": false,
					"internalType": "uint256",
					"name": "positionId",
					"type": "uint256"
				}
			],
			"name": "CapitalInvested",
			"type": "event"
		},
		{
			"anonymous": false,
			"inputs": [
				{
					"indexed": false,
					"internalType": "uint256",
					"name": "capitalRaised",
					"type": "uint256"
				}
			],
			"name": "CapitalRaisedPublished",
			"type": "event"
		},
		{
			"anonymous": false,
			"inputs": [
				{
					"indexed": false,
					"internalType": "uint256",
					"name": "amount",
					"type": "uint256"
				},
				{
					"indexed": false,
					"internalType": "address",
					"name": "investor",
					"type": "address"
				},
				{
					"indexed": false,
					"internalType": "uint256",
					"name": "positionId",
					"type": "uint256"
				}
			],
			"name": "CapitalRefunded",
			"type": "event"
		},
		{
			"anonymous": false,
			"inputs": [
				{
					"indexed": false,
					"internalType": "uint256",
					"name": "amount",
					"type": "uint256"
				},
				{
					"indexed": false,
					"internalType": "address",
					"name": "investor",
					"type": "address"
				},
				{
					"indexed": false,
					"internalType": "uint256",
					"name": "positionId",
					"type": "uint256"
				}
			],
			"name": "CapitalRefundedAfterCancel",
			"type": "event"
		},
		{
			"anonymous": false,
			"inputs": [
				{
					"indexed": false,
					"internalType": "uint256",
					"name": "amount",
					"type": "uint256"
				}
			],
			"name": "CapitalWithdrawn",
			"type": "event"
		},
		{
			"anonymous": false,
			"inputs": [
				{
					"indexed": false,
					"internalType": "address",
					"name": "receiver",
					"type": "address"
				},
				{
					"indexed": false,
					"internalType": "address",
					"name": "token",
					"type": "address"
				},
				{
					"indexed": false,
					"internalType": "uint256",
					"name": "amount",
					"type": "uint256"
				}
			],
			"name": "EmergencyWithdraw",
			"type": "event"
		},
		{
			"anonymous": false,
			"inputs": [
				{
					"indexed": false,
					"internalType": "uint256",
					"name": "amount",
					"type": "uint256"
				},
				{
					"indexed": false,
					"internalType": "address",
					"name": "investor",
					"type": "address"
				},
				{
					"indexed": false,
					"internalType": "uint256",
					"name": "positionId",
					"type": "uint256"
				}
			],
			"name": "ExcessCapitalWithdrawn",
			"type": "event"
		},
		{
			"anonymous": false,
			"inputs": [
				{
					"indexed": false,
					"internalType": "uint64",
					"name": "version",
					"type": "uint64"
				}
			],
			"name": "Initialized",
			"type": "event"
		},
		{
			"anonymous": false,
			"inputs": [
				{
					"indexed": false,
					"internalType": "address",
					"name": "legionBouncer",
					"type": "address"
				},
				{
					"indexed": false,
					"internalType": "address",
					"name": "legionSigner",
					"type": "address"
				},
				{
					"indexed": false,
					"internalType": "address",
					"name": "legionFeeReceiver",
					"type": "address"
				},
				{
					"indexed": false,
					"internalType": "address",
					"name": "vestingFactory",
					"type": "address"
				},
				{
					"indexed": false,
					"internalType": "address",
					"name": "vestingController",
					"type": "address"
				}
			],
			"name": "LegionAddressesSynced",
			"type": "event"
		},
		{
			"anonymous": false,
			"inputs": [
				{
					"indexed": false,
					"internalType": "uint256",
					"name": "tokenId",
					"type": "uint256"
				}
			],
			"name": "Locked",
			"type": "event"
		},
		{
			"anonymous": false,
			"inputs": [
				{
					"indexed": false,
					"internalType": "address",
					"name": "account",
					"type": "address"
				}
			],
			"name": "Paused",
			"type": "event"
		},
		{
			"anonymous": false,
			"inputs": [],
			"name": "SaleCanceled",
			"type": "event"
		},
		{
			"anonymous": false,
			"inputs": [],
			"name": "SaleEnded",
			"type": "event"
		},
		{
			"anonymous": false,
			"inputs": [
				{
					"indexed": false,
					"internalType": "address",
					"name": "tokenAddress",
					"type": "address"
				},
				{
					"indexed": false,
					"internalType": "uint256",
					"name": "totalSupply",
					"type": "uint256"
				},
				{
					"indexed": false,
					"internalType": "uint256",
					"name": "allocatedTokenAmount",
					"type": "uint256"
				}
			],
			"name": "TgeDetailsPublished",
			"type": "event"
		},
		{
			"anonymous": false,
			"inputs": [
				{
					"indexed": false,
					"internalType": "uint256",
					"name": "amountToBeVested",
					"type": "uint256"
				},
				{
					"indexed": false,
					"internalType": "uint256",
					"name": "amountOnClaim",
					"type": "uint256"
				},
				{
					"indexed": false,
					"internalType": "address",
					"name": "investor",
					"type": "address"
				},
				{
					"indexed": false,
					"internalType": "uint256",
					"name": "positionId",
					"type": "uint256"
				}
			],
			"name": "TokenAllocationClaimed",
			"type": "event"
		},
		{
			"anonymous": false,
			"inputs": [
				{
					"indexed": false,
					"internalType": "uint256",
					"name": "amount",
					"type": "uint256"
				},
				{
					"indexed": false,
					"internalType": "uint256",
					"name": "legionFee",
					"type": "uint256"
				},
				{
					"indexed": false,
					"internalType": "uint256",
					"name": "referrerFee",
					"type": "uint256"
				}
			],
			"name": "TokensSuppliedForDistribution",
			"type": "event"
		},
		{
			"anonymous": false,
			"inputs": [
				{
					"indexed": true,
					"internalType": "address",
					"name": "from",
					"type": "address"
				},
				{
					"indexed": true,
					"internalType": "address",
					"name": "to",
					"type": "address"
				},
				{
					"indexed": true,
					"internalType": "uint256",
					"name": "id",
					"type": "uint256"
				}
			],
			"name": "Transfer",
			"type": "event"
		},
		{
			"anonymous": false,
			"inputs": [
				{
					"indexed": false,
					"internalType": "uint256",
					"name": "tokenId",
					"type": "uint256"
				}
			],
			"name": "Unlocked",
			"type": "event"
		},
		{
			"anonymous": false,
			"inputs": [
				{
					"indexed": false,
					"internalType": "address",
					"name": "account",
					"type": "address"
				}
			],
			"name": "Unpaused",
			"type": "event"
		},
		{
			"inputs": [
				{
					"internalType": "address",
					"name": "account",
					"type": "address"
				},
				{
					"internalType": "uint256",
					"name": "id",
					"type": "uint256"
				}
			],
			"name": "approve",
			"outputs": [],
			"stateMutability": "payable",
			"type": "function"
		},
		{
			"inputs": [
				{
					"internalType": "address",
					"name": "owner",
					"type": "address"
				}
			],
			"name": "balanceOf",
			"outputs": [
				{
					"internalType": "uint256",
					"name": "result",
					"type": "uint256"
				}
			],
			"stateMutability": "view",
			"type": "function"
		},
		{
			"inputs": [],
			"name": "cancel",
			"outputs": [],
			"stateMutability": "nonpayable",
			"type": "function"
		},
		{
			"inputs": [
				{
					"internalType": "uint256",
					"name": "investAmount",
					"type": "uint256"
				},
				{
					"internalType": "uint256",
					"name": "tokenAllocationRate",
					"type": "uint256"
				},
				{
					"components": [
						{
							"internalType": "uint64",
							"name": "vestingStartTime",
							"type": "uint64"
						},
						{
							"internalType": "uint64",
							"name": "vestingDurationSeconds",
							"type": "uint64"
						},
						{
							"internalType": "uint64",
							"name": "vestingCliffDurationSeconds",
							"type": "uint64"
						},
						{
							"internalType": "enum ILegionVestingManager.VestingType",
							"name": "vestingType",
							"type": "uint8"
						},
						{
							"internalType": "uint64",
							"name": "epochDurationSeconds",
							"type": "uint64"
						},
						{
							"internalType": "uint64",
							"name": "numberOfEpochs",
							"type": "uint64"
						},
						{
							"internalType": "uint64",
							"name": "tokenAllocationOnTGERate",
							"type": "uint64"
						}
					],
					"internalType": "struct ILegionVestingManager.LegionInvestorVestingConfig",
					"name": "investorVestingConfig",
					"type": "tuple"
				},
				{
					"internalType": "bytes",
					"name": "claimSignature",
					"type": "bytes"
				},
				{
					"internalType": "bytes",
					"name": "vestingSignature",
					"type": "bytes"
				}
			],
			"name": "claimTokenAllocation",
			"outputs": [],
			"stateMutability": "nonpayable",
			"type": "function"
		},
		{
			"inputs": [
				{
					"internalType": "address",
					"name": "receiver",
					"type": "address"
				},
				{
					"internalType": "address",
					"name": "token",
					"type": "address"
				},
				{
					"internalType": "uint256",
					"name": "amount",
					"type": "uint256"
				}
			],
			"name": "emergencyWithdraw",
			"outputs": [],
			"stateMutability": "nonpayable",
			"type": "function"
		},
		{
			"inputs": [],
			"name": "end",
			"outputs": [],
			"stateMutability": "nonpayable",
			"type": "function"
		},
		{
			"inputs": [
				{
					"internalType": "uint256",
					"name": "id",
					"type": "uint256"
				}
			],
			"name": "getApproved",
			"outputs": [
				{
					"internalType": "address",
					"name": "result",
					"type": "address"
				}
			],
			"stateMutability": "view",
			"type": "function"
		},
		{
			"inputs": [
				{
					"components": [
						{
							"internalType": "address",
							"name": "bidToken",
							"type": "address"
						},
						{
							"internalType": "address",
							"name": "projectAdmin",
							"type": "address"
						},
						{
							"internalType": "address",
							"name": "addressRegistry",
							"type": "address"
						},
						{
							"internalType": "address",
							"name": "referrerFeeReceiver",
							"type": "address"
						},
						{
							"internalType": "uint64",
							"name": "refundPeriodSeconds",
							"type": "uint64"
						},
						{
							"internalType": "uint16",
							"name": "legionFeeOnCapitalRaisedBps",
							"type": "uint16"
						},
						{
							"internalType": "uint16",
							"name": "legionFeeOnTokensSoldBps",
							"type": "uint16"
						},
						{
							"internalType": "uint16",
							"name": "referrerFeeOnCapitalRaisedBps",
							"type": "uint16"
						},
						{
							"internalType": "uint16",
							"name": "referrerFeeOnTokensSoldBps",
							"type": "uint16"
						},
						{
							"internalType": "string",
							"name": "saleName",
							"type": "string"
						},
						{
							"internalType": "string",
							"name": "saleSymbol",
							"type": "string"
						},
						{
							"internalType": "string",
							"name": "saleBaseURI",
							"type": "string"
						}
					],
					"internalType": "struct ILegionPreLiquidApprovedSale.PreLiquidSaleInitializationParams",
					"name": "preLiquidSaleInitParams",
					"type": "tuple"
				}
			],
			"name": "initialize",
			"outputs": [],
			"stateMutability": "nonpayable",
			"type": "function"
		},
		{
			"inputs": [
				{
					"internalType": "uint256",
					"name": "amount",
					"type": "uint256"
				},
				{
					"internalType": "uint256",
					"name": "investAmount",
					"type": "uint256"
				},
				{
					"internalType": "uint256",
					"name": "tokenAllocationRate",
					"type": "uint256"
				},
				{
					"internalType": "bytes",
					"name": "investSignature",
					"type": "bytes"
				}
			],
			"name": "invest",
			"outputs": [],
			"stateMutability": "nonpayable",
			"type": "function"
		},
		{
			"inputs": [
				{
					"internalType": "address",
					"name": "investor",
					"type": "address"
				}
			],
			"name": "investorPosition",
			"outputs": [
				{
					"components": [
						{
							"internalType": "address",
							"name": "vestingAddress",
							"type": "address"
						},
						{
							"internalType": "uint256",
							"name": "investedCapital",
							"type": "uint256"
						},
						{
							"internalType": "uint256",
							"name": "cachedInvestAmount",
							"type": "uint256"
						},
						{
							"internalType": "uint256",
							"name": "cachedTokenAllocationRate",
							"type": "uint256"
						},
						{
							"internalType": "bool",
							"name": "hasClaimedExcess",
							"type": "bool"
						},
						{
							"internalType": "bool",
							"name": "hasRefunded",
							"type": "bool"
						},
						{
							"internalType": "bool",
							"name": "hasSettled",
							"type": "bool"
						}
					],
					"internalType": "struct ILegionPreLiquidApprovedSale.InvestorPosition",
					"name": "",
					"type": "tuple"
				}
			],
			"stateMutability": "view",
			"type": "function"
		},
		{
			"inputs": [
				{
					"internalType": "address",
					"name": "investor",
					"type": "address"
				}
			],
			"name": "investorVestingStatus",
			"outputs": [
				{
					"components": [
						{
							"internalType": "uint64",
							"name": "start",
							"type": "uint64"
						},
						{
							"internalType": "uint64",
							"name": "end",
							"type": "uint64"
						},
						{
							"internalType": "uint64",
							"name": "cliffEnd",
							"type": "uint64"
						},
						{
							"internalType": "uint64",
							"name": "duration",
							"type": "uint64"
						},
						{
							"internalType": "uint256",
							"name": "released",
							"type": "uint256"
						},
						{
							"internalType": "uint256",
							"name": "releasable",
							"type": "uint256"
						},
						{
							"internalType": "uint256",
							"name": "vestedAmount",
							"type": "uint256"
						}
					],
					"internalType": "struct ILegionVestingManager.LegionInvestorVestingStatus",
					"name": "vestingStatus",
					"type": "tuple"
				}
			],
			"stateMutability": "view",
			"type": "function"
		},
		{
			"inputs": [
				{
					"internalType": "address",
					"name": "owner",
					"type": "address"
				},
				{
					"internalType": "address",
					"name": "operator",
					"type": "address"
				}
			],
			"name": "isApprovedForAll",
			"outputs": [
				{
					"internalType": "bool",
					"name": "result",
					"type": "bool"
				}
			],
			"stateMutability": "view",
			"type": "function"
		},
		{
			"inputs": [
				{
					"internalType": "uint256",
					"name": "tokenId",
					"type": "uint256"
				}
			],
			"name": "locked",
			"outputs": [
				{
					"internalType": "bool",
					"name": "",
					"type": "bool"
				}
			],
			"stateMutability": "view",
			"type": "function"
		},
		{
			"inputs": [],
			"name": "name",
			"outputs": [
				{
					"internalType": "string",
					"name": "",
					"type": "string"
				}
			],
			"stateMutability": "view",
			"type": "function"
		},
		{
			"inputs": [
				{
					"internalType": "uint256",
					"name": "id",
					"type": "uint256"
				}
			],
			"name": "ownerOf",
			"outputs": [
				{
					"internalType": "address",
					"name": "result",
					"type": "address"
				}
			],
			"stateMutability": "view",
			"type": "function"
		},
		{
			"inputs": [],
			"name": "pause",
			"outputs": [],
			"stateMutability": "nonpayable",
			"type": "function"
		},
		{
			"inputs": [],
			"name": "paused",
			"outputs": [
				{
					"internalType": "bool",
					"name": "",
					"type": "bool"
				}
			],
			"stateMutability": "view",
			"type": "function"
		},
		{
			"inputs": [
				{
					"internalType": "uint256",
					"name": "capitalRaised",
					"type": "uint256"
				}
			],
			"name": "publishRaisedCapital",
			"outputs": [],
			"stateMutability": "nonpayable",
			"type": "function"
		},
		{
			"inputs": [
				{
					"internalType": "address",
					"name": "askToken",
					"type": "address"
				},
				{
					"internalType": "uint256",
					"name": "askTokenTotalSupply",
					"type": "uint256"
				},
				{
					"internalType": "uint256",
					"name": "totalTokensAllocated",
					"type": "uint256"
				}
			],
			"name": "publishTgeDetails",
			"outputs": [],
			"stateMutability": "nonpayable",
			"type": "function"
		},
		{
			"inputs": [],
			"name": "refund",
			"outputs": [],
			"stateMutability": "nonpayable",
			"type": "function"
		},
		{
			"inputs": [],
			"name": "releaseVestedTokens",
			"outputs": [],
			"stateMutability": "nonpayable",
			"type": "function"
		},
		{
			"inputs": [],
			"name": "s_positionManagerConfig",
			"outputs": [
				{
					"internalType": "string",
					"name": "name",
					"type": "string"
				},
				{
					"internalType": "string",
					"name": "symbol",
					"type": "string"
				},
				{
					"internalType": "string",
					"name": "baseURI",
					"type": "string"
				},
				{
					"internalType": "uint256",
					"name": "lastPositionId",
					"type": "uint256"
				}
			],
			"stateMutability": "view",
			"type": "function"
		},
		{
			"inputs": [
				{
					"internalType": "address",
					"name": "from",
					"type": "address"
				},
				{
					"internalType": "address",
					"name": "to",
					"type": "address"
				},
				{
					"internalType": "uint256",
					"name": "id",
					"type": "uint256"
				}
			],
			"name": "safeTransferFrom",
			"outputs": [],
			"stateMutability": "payable",
			"type": "function"
		},
		{
			"inputs": [
				{
					"internalType": "address",
					"name": "from",
					"type": "address"
				},
				{
					"internalType": "address",
					"name": "to",
					"type": "address"
				},
				{
					"internalType": "uint256",
					"name": "id",
					"type": "uint256"
				},
				{
					"internalType": "bytes",
					"name": "data",
					"type": "bytes"
				}
			],
			"name": "safeTransferFrom",
			"outputs": [],
			"stateMutability": "payable",
			"type": "function"
		},
		{
			"inputs": [],
			"name": "saleConfiguration",
			"outputs": [
				{
					"components": [
						{
							"internalType": "address",
							"name": "bidToken",
							"type": "address"
						},
						{
							"internalType": "address",
							"name": "projectAdmin",
							"type": "address"
						},
						{
							"internalType": "address",
							"name": "addressRegistry",
							"type": "address"
						},
						{
							"internalType": "address",
							"name": "legionBouncer",
							"type": "address"
						},
						{
							"internalType": "address",
							"name": "legionSigner",
							"type": "address"
						},
						{
							"internalType": "address",
							"name": "legionFeeReceiver",
							"type": "address"
						},
						{
							"internalType": "address",
							"name": "referrerFeeReceiver",
							"type": "address"
						},
						{
							"internalType": "uint64",
							"name": "refundPeriodSeconds",
							"type": "uint64"
						},
						{
							"internalType": "uint16",
							"name": "legionFeeOnCapitalRaisedBps",
							"type": "uint16"
						},
						{
							"internalType": "uint16",
							"name": "legionFeeOnTokensSoldBps",
							"type": "uint16"
						},
						{
							"internalType": "uint16",
							"name": "referrerFeeOnCapitalRaisedBps",
							"type": "uint16"
						},
						{
							"internalType": "uint16",
							"name": "referrerFeeOnTokensSoldBps",
							"type": "uint16"
						}
					],
					"internalType": "struct ILegionPreLiquidApprovedSale.PreLiquidSaleConfig",
					"name": "",
					"type": "tuple"
				}
			],
			"stateMutability": "view",
			"type": "function"
		},
		{
			"inputs": [],
			"name": "saleStatus",
			"outputs": [
				{
					"components": [
						{
							"internalType": "address",
							"name": "askToken",
							"type": "address"
						},
						{
							"internalType": "uint256",
							"name": "askTokenTotalSupply",
							"type": "uint256"
						},
						{
							"internalType": "uint256",
							"name": "totalCapitalInvested",
							"type": "uint256"
						},
						{
							"internalType": "uint256",
							"name": "totalCapitalRaised",
							"type": "uint256"
						},
						{
							"internalType": "uint256",
							"name": "totalTokensAllocated",
							"type": "uint256"
						},
						{
							"internalType": "uint256",
							"name": "totalCapitalWithdrawn",
							"type": "uint256"
						},
						{
							"internalType": "uint64",
							"name": "endTime",
							"type": "uint64"
						},
						{
							"internalType": "uint64",
							"name": "refundEndTime",
							"type": "uint64"
						},
						{
							"internalType": "bool",
							"name": "isCanceled",
							"type": "bool"
						},
						{
							"internalType": "bool",
							"name": "tokensSupplied",
							"type": "bool"
						},
						{
							"internalType": "bool",
							"name": "hasEnded",
							"type": "bool"
						}
					],
					"internalType": "struct ILegionPreLiquidApprovedSale.PreLiquidSaleStatus",
					"name": "",
					"type": "tuple"
				}
			],
			"stateMutability": "view",
			"type": "function"
		},
		{
			"inputs": [
				{
					"internalType": "address",
					"name": "operator",
					"type": "address"
				},
				{
					"internalType": "bool",
					"name": "isApproved",
					"type": "bool"
				}
			],
			"name": "setApprovalForAll",
			"outputs": [],
			"stateMutability": "nonpayable",
			"type": "function"
		},
		{
			"inputs": [
				{
					"internalType": "uint256",
					"name": "amount",
					"type": "uint256"
				},
				{
					"internalType": "uint256",
					"name": "legionFee",
					"type": "uint256"
				},
				{
					"internalType": "uint256",
					"name": "referrerFee",
					"type": "uint256"
				}
			],
			"name": "supplyTokens",
			"outputs": [],
			"stateMutability": "nonpayable",
			"type": "function"
		},
		{
			"inputs": [
				{
					"internalType": "bytes4",
					"name": "interfaceId",
					"type": "bytes4"
				}
			],
			"name": "supportsInterface",
			"outputs": [
				{
					"internalType": "bool",
					"name": "result",
					"type": "bool"
				}
			],
			"stateMutability": "view",
			"type": "function"
		},
		{
			"inputs": [],
			"name": "symbol",
			"outputs": [
				{
					"internalType": "string",
					"name": "",
					"type": "string"
				}
			],
			"stateMutability": "view",
			"type": "function"
		},
		{
			"inputs": [],
			"name": "syncLegionAddresses",
			"outputs": [],
			"stateMutability": "nonpayable",
			"type": "function"
		},
		{
			"inputs": [
				{
					"internalType": "uint256",
					"name": "id",
					"type": "uint256"
				}
			],
			"name": "tokenURI",
			"outputs": [
				{
					"internalType": "string",
					"name": "",
					"type": "string"
				}
			],
			"stateMutability": "view",
			"type": "function"
		},
		{
			"inputs": [
				{
					"internalType": "address",
					"name": "from",
					"type": "address"
				},
				{
					"internalType": "address",
					"name": "to",
					"type": "address"
				},
				{
					"internalType": "uint256",
					"name": "id",
					"type": "uint256"
				}
			],
			"name": "transferFrom",
			"outputs": [],
			"stateMutability": "payable",
			"type": "function"
		},
		{
			"inputs": [
				{
					"internalType": "address",
					"name": "from",
					"type": "address"
				},
				{
					"internalType": "address",
					"name": "to",
					"type": "address"
				},
				{
					"internalType": "uint256",
					"name": "positionId",
					"type": "uint256"
				}
			],
			"name": "transferInvestorPosition",
			"outputs": [],
			"stateMutability": "nonpayable",
			"type": "function"
		},
		{
			"inputs": [
				{
					"internalType": "address",
					"name": "from",
					"type": "address"
				},
				{
					"internalType": "address",
					"name": "to",
					"type": "address"
				},
				{
					"internalType": "uint256",
					"name": "positionId",
					"type": "uint256"
				},
				{
					"internalType": "bytes",
					"name": "transferSignature",
					"type": "bytes"
				}
			],
			"name": "transferInvestorPositionWithAuthorization",
			"outputs": [],
			"stateMutability": "nonpayable",
			"type": "function"
		},
		{
			"inputs": [],
			"name": "unpause",
			"outputs": [],
			"stateMutability": "nonpayable",
			"type": "function"
		},
		{
			"inputs": [],
			"name": "vestingConfiguration",
			"outputs": [
				{
					"components": [
						{
							"internalType": "address",
							"name": "vestingFactory",
							"type": "address"
						},
						{
							"internalType": "address",
							"name": "vestingController",
							"type": "address"
						}
					],
					"internalType": "struct ILegionVestingManager.LegionVestingConfig",
					"name": "",
					"type": "tuple"
				}
			],
			"stateMutability": "view",
			"type": "function"
		},
		{
			"inputs": [
				{
					"internalType": "uint256",
					"name": "amount",
					"type": "uint256"
				},
				{
					"internalType": "uint256",
					"name": "investAmount",
					"type": "uint256"
				},
				{
					"internalType": "uint256",
					"name": "tokenAllocationRate",
					"type": "uint256"
				},
				{
					"internalType": "bytes",
					"name": "withdrawSignature",
					"type": "bytes"
				}
			],
			"name": "withdrawExcessInvestedCapital",
			"outputs": [],
			"stateMutability": "nonpayable",
			"type": "function"
		},
		{
			"inputs": [],
			"name": "withdrawInvestedCapitalIfCanceled",
			"outputs": [],
			"stateMutability": "nonpayable",
			"type": "function"
		},
		{
			"inputs": [],
			"name": "withdrawRaisedCapital",
			"outputs": [],
			"stateMutability": "nonpayable",
			"type": "function"
		}
	]
}