{
	"data": {
		"bytecode": {
			"linkReferences": {
				"src/lib/ECIES.sol": {
					"ECIES": [
						{
							"length": 20,
							"start": 3059
						},
						{
							"length": 20,
							"start": 11646
						},
						{
							"length": 20,
							"start": 14787
						},
						{
							"length": 20,
							"start": 15439
						}
					]
				}
			},
			"object": "6080604052348015600e575f5ffd5b506008805460ff19169055601f6023565b6086565b63409feecd198054600181161560405763f92ee8a95f526004601cfd5b6001600160401b03808260011c146081578060011b8355806020527fc7f505b2f371ae2175ee4913f4499e1f2633a7b5936321eed1cdaeb6115181d2602080a15b505050565b615760806100935f395ff3fe608060405260043610610249575f3560e01c80636146419111610134578063b88d4fde116100b3578063e63ea40811610078578063e63ea40814610878578063e985e9c514610897578063ea8a1af0146108cb578063f68c1d49146108df578063f71c2364146108f3578063f9020e3314610907575f5ffd5b8063b88d4fde146107e9578063c1088954146107fc578063c87b56dd1461081b578063cc6ae7551461083a578063e5f6738214610859575f5ffd5b806384cbd9cd116100f957806384cbd9cd1461064f57806390dbb806146106ba57806395d89b4114610797578063a22cb465146107ab578063b45a3c0e146107ca575f5ffd5b806361464191146105175780636352211e14610565578063699c29941461058457806370a082311461061c5780638456cb591461063b575f5ffd5b80632a8b6fae116101cb5780633fdbdcd9116101905780633fdbdcd91461048257806342842e0e146104a6578063530593b6146104b957806354dd1da4146104d8578063590e1ae3146104ec5780635c975abb14610500575f5ffd5b80632a8b6fae146103c457806332e719f2146103d857806339e485a0146103f75780633cccebc5146104165780633f4ba83a1461046e575f5ffd5b80630a636d5b116102115780630a636d5b146103325780630aff2d8614610346578063133f7bce146103655780631f7c02ec1461039257806323b872dd146103b1575f5ffd5b806301ffc9a71461024d57806306fdde03146102a6578063081812fc146102c757806308af6e25146102fe578063095ea7b31461031f575b5f5ffd5b348015610258575f5ffd5b50610291610267366004614bab565b6301ffc9a760e09190911c9081146380ac58cd821417635b5e139f82141763b45a3c0e9091141790565b60405190151581526020015b60405180910390f35b3480156102b1575f5ffd5b506102ba610928565b60405161029d9190614c00565b3480156102d2575f5ffd5b506102e66102e1366004614c12565b6109ba565b6040516001600160a01b03909116815260200161029d565b348015610309575f5ffd5b5061031d610318366004614c3d565b6109f5565b005b61031d61032d366004614c7b565b610a59565b34801561033d575f5ffd5b5061031d610a68565b348015610351575f5ffd5b5061031d610360366004614c12565b610a9d565b348015610370575f5ffd5b5061038461037f366004614ca5565b610b0c565b60405190815260200161029d565b34801561039d575f5ffd5b5061031d6103ac366004614cd3565b610c25565b61031d6103bf366004614c3d565b610d7d565b3480156103cf575f5ffd5b5061031d610e74565b3480156103e3575f5ffd5b5061031d6103f2366004614d74565b610efe565b348015610402575f5ffd5b5061031d610411366004614dbb565b610fe8565b348015610421575f5ffd5b506040805180820182525f80825260209182018190528251808401845290546001600160a01b0390811680835260015482169284019283528451908152915116918101919091520161029d565b348015610479575f5ffd5b5061031d6111c9565b34801561048d575f5ffd5b506104966111fc565b60405161029d9493929190614e1d565b61031d6104b4366004614c3d565b6113aa565b3480156104c4575f5ffd5b5061031d6104d3366004614e67565b6113d6565b3480156104e3575f5ffd5b5061031d6114ae565b3480156104f7575f5ffd5b5061031d611568565b34801561050b575f5ffd5b5060085460ff16610291565b348015610522575f5ffd5b5061052b611634565b604080518251151581526020808401518051828401520151818301529082015160608083019190915290910151608082015260a00161029d565b348015610570575f5ffd5b506102e661057f366004614c12565b611681565b34801561058f575f5ffd5b506105a361059e366004614ea6565b6116bd565b60405161029d91905f60e0820190506001600160401b0383511682526001600160401b0360208401511660208301526001600160401b0360408401511660408301526001600160401b0360608401511660608301526080830151608083015260a083015160a083015260c083015160c083015292915050565b348015610627575f5ffd5b50610384610636366004614ea6565b611a68565b348015610646575f5ffd5b5061031d611aa0565b34801561065a575f5ffd5b5061066e610669366004614ea6565b611ad3565b60405161029d9190815181526020808301511515908201526040808301511515908201526060808301511515908201526080918201516001600160a01b03169181019190915260a00190565b3480156106c5575f5ffd5b5061078a60408051610100810182525f80825260208201819052918101829052606081018290526080810182905260a0810182905260c0810182905260e08101919091525060408051610100810182526009546001600160401b038082168352600160401b820481166020840152600160801b8204169282019290925261ffff600160c01b830481166060830152600160d01b830481166080830152600160e01b8304811660a0830152600160f01b90920490911660c0820152600a5460e082015290565b60405161029d9190614ec1565b3480156107a2575f5ffd5b506102ba611b7e565b3480156107b6575f5ffd5b5061031d6107c5366004614f6f565b611b90565b3480156107d5575f5ffd5b506102916107e4366004614c12565b611be3565b61031d6107f7366004614fd8565b611c34565b348015610807575f5ffd5b5061031d610816366004615045565b611c8e565b348015610826575f5ffd5b506102ba610835366004614c12565b611db6565b348015610845575f5ffd5b5061031d61085436600461509f565b611f1d565b348015610864575f5ffd5b5061031d610873366004614fd8565b61217e565b348015610883575f5ffd5b5061031d610892366004614c3d565b6121cf565b3480156108a2575f5ffd5b506102916108b13660046150c8565b601c52670a5a2e7a000000006008525f526030600c205490565b3480156108d6575f5ffd5b5061031d612250565b3480156108ea575f5ffd5b5061031d612293565b3480156108fe575f5ffd5b5061031d6124d5565b348015610912575f5ffd5b5061091b612590565b60405161029d91906150f4565b606060035f01805461093990615166565b80601f016020809104026020016040519081016040528092919081815260200182805461096590615166565b80156109b05780601f10610987576101008083540402835291602001916109b0565b820191905f5260205f20905b81548152906001019060200180831161099357829003601f168201915b5050505050905090565b5f815f52673ec412a9852d173d60c11b601c5260205f2082018201805460601b6109eb5763ceea21b65f526004601cfd5b6001015492915050565b600f546001600160a01b03163314610a2057604051631634f9a360e31b815260040160405180910390fd5b610a28612646565b610a3061266a565b610a3861268e565b610a406126ce565b610a49816126ef565b610a54838383612793565b505050565b610a643383836128c0565b5050565b600f546001600160a01b03163314610a9357604051631634f9a360e31b815260040160405180910390fd5b610a9b61295a565b565b600f546001600160a01b03163314610ac857604051631634f9a360e31b815260040160405180910390fd5b610ad061266a565b60188190556040518181527f393244a3cfb18cb61014afd98d11fbc01143937c82fbfdd0c6c6fc15c96e1396906020015b60405180910390a150565b5f610b15612ca9565b60408051608081018252601b5460ff161515815281518083018352601c548152601d54602082810191909152808301829052601e54838501819052601f54606085018190529451939473__$edfbc930edab1df5637e2c8827573bd861$__94633a89a523948a94909392610ba3928b920160609290921b6001600160601b0319168252601482015260340190565b60408051601f198184030181529082905280516020909101206001600160e01b031960e087901b168252610bdc9493929160040161519e565b602060405180830381865af4158015610bf7573d5f5f3e3d5ffd5b505050506040513d601f19601f82011682018060405250810190610c1b91906151ce565b9150505b92915050565b63409feecd198054600382558015610c5b5760018160011c14303b10610c525763f92ee8a95f526004601cfd5b818160ff1b1b91505b50610c6582612ccb565b610c6e83612d64565b8135601c55602080830135601d556009805467ffffffffffffffff1916426001600160401b0316179055610ca490840184615204565b600954610cba91906001600160401b0316615233565b600980546001600160401b0392909216600160401b026fffffffffffffffff000000000000000019909216919091179055610cfb6040840160208501615204565b600954610d189190600160401b90046001600160401b0316615233565b600980546001600160401b0392909216600160801b0267ffffffffffffffff60801b199092169190911790558015610a54576002815560016020527fc7f505b2f371ae2175ee4913f4499e1f2633a7b5936321eed1cdaeb6115181d2602080a1505050565b610d88838383612f9a565b5f818152673ec412a9852d173d60c11b3317601c52602090208101810180546001600160a01b039485169493841693811691908286148302610dd95767ceea21b6a1148100831560021b526004601cfd5b855f528160010154925082331486331417610e05576030600c2054610e0557634b6e7f185f526004601cfd5b8215610e12575f82600101555b85851818905550601c600c81812080545f190190555f84905220805460010163ffffffff81168402610e535767ea553b3401336cea841560021b526004601cfd5b90558082845f51602061570b5f395f51905f525f38a4610a54838383613001565b600f546001600160a01b03163314610e9f57604051631634f9a360e31b815260040160405180910390fd5b610ea7612646565b610eaf61266a565b610eb7613057565b610ebf61268e565b610ec761307b565b601b805460ff191660011790556040517f7e3cf79491a274018c7f265a2e16256849ea1679173c4b19f0fea8cb7c34a87a905f90a1565b610f06612646565b610f0e61266a565b5f610f183361309c565b9050610f23816130b6565b610f2c816130d6565b610f393382868686613110565b5f818152601a6020526040812060018101805461ff0019166101001790558054869290610f67908490615252565b9091555050601380548591905f90610f80908490615252565b9091555050604080518581523360208201529081018290527f6341dcb064edac8070b059a7351278f06df48f417dbb63f02402409059b030539060600160405180910390a18315610fe257600b54610fe2906001600160a01b03163386613270565b50505050565b610ff0612646565b610ff861266a565b61100061268e565b6110086132ba565b5f6110123361309c565b905061101d816130b6565b611026816130d6565b61102f846132dc565b61103c3386868686613552565b5f818152601a60209081526040808320815161010081018352600b546001600160a01b039081168252600c54811694820194909452600d54841692810192909252600e5483166060830152600f5483166080830152601054831660a0830152601154831660c08084019190915260125490931660e0808401919091526001808301805460ff1916909117905590939192670de0b6b3a7640000916110e591908a01908a01615204565b6110f8906001600160401b03168a615265565b611102919061527c565b90505f61110f828a615252565b604080518281526020810185905233818301526060810188905290519192507fb8b27c9366ae0d3a9eecbcc98c26bd18ca7bdd47293088cdf8ccdc683354520d919081900360800190a180156111a9575f61116e89856020015161369d565b6001860180546301000000600160b81b03191663010000006001600160a01b0384160217905560208501519091506111a7908284613270565b505b81156111be576111be83602001513384613270565b505050505050505050565b600f546001600160a01b031633146111f457604051631634f9a360e31b815260040160405180910390fd5b610a9b6137a5565b60038054819061120b90615166565b80601f016020809104026020016040519081016040528092919081815260200182805461123790615166565b80156112825780601f1061125957610100808354040283529160200191611282565b820191905f5260205f20905b81548152906001019060200180831161126557829003601f168201915b50505050509080600101805461129790615166565b80601f01602080910402602001604051908101604052809291908181526020018280546112c390615166565b801561130e5780601f106112e55761010080835404028352916020019161130e565b820191905f5260205f20905b8154815290600101906020018083116112f157829003601f168201915b50505050509080600201805461132390615166565b80601f016020809104026020016040519081016040528092919081815260200182805461134f90615166565b801561139a5780601f106113715761010080835404028352916020019161139a565b820191905f5260205f20905b81548152906001019060200180831161137d57829003601f168201915b5050505050908060030154905084565b6113b5838383610d7d565b813b15610a5457610a5483838360405180602001604052805f8152506137f2565b600f546001600160a01b0316331461140157604051631634f9a360e31b815260040160405180910390fd5b611409612646565b61141161266a565b61141961268e565b611421613873565b61142a82613896565b61143261307b565b6017869055601885905560148490556015839055601e829055601f8190556040805187815260208101879052908101859052606081018490526080810183905260a081018290527f119ea84dc487ddd570e9c3ee8adeb4b31d88d7fa40c81b08a48f4c621c4635459060c00160405180910390a1505050505050565b6114b6612646565b5f6114c03361309c565b90506114cb816130b6565b5f818152601a6020526040902060010154630100000090046001600160a01b03168061150a5760405163b840f60b60e01b815260040160405180910390fd5b600c54604051631916558760e01b81526001600160a01b039182166004820152908216906319165587906024015f604051808303815f87803b15801561154e575f5ffd5b505af1158015611560573d5f5f3e3d5ffd5b505050505050565b611570612646565b6115786139cd565b61158061266a565b5f61158a3361309c565b9050611595816130b6565b61159e816130d6565b5f818152601a6020526040812080548282556001909101805462ff000019166201000017905560138054919283926115d7908490615252565b9091555050604080518281523360208201529081018390527f2f7421f68549e714bc710199519c8b35139cb8bd9e49984836621b29f676101a906060015b60405180910390a1600b54610a64906001600160a01b03163383613270565b61163c614b6b565b5060408051608081018252601b5460ff161515815281518083018352601c548152601d54602082810191909152820152601e5491810191909152601f54606082015290565b5f818152673ec412a9852d173d60c11b601c526020902081018101546001600160a01b0316806116b85763ceea21b65f526004601cfd5b919050565b6040805160e0810182525f80825260208201819052918101829052606081018290526080810182905260a0810182905260c08101829052906116fe8361309c565b9050611709816130b6565b5f818152601a6020526040902060010154600c546001600160a01b036301000000909204821691168161173c5783611a5f565b6040518060e00160405280836001600160a01b031663be9a65556040518163ffffffff1660e01b8152600401602060405180830381865afa158015611783573d5f5f3e3d5ffd5b505050506040513d601f19601f820116820180604052508101906117a7919061529b565b6001600160401b03168152602001836001600160a01b031663efbe1c1c6040518163ffffffff1660e01b8152600401602060405180830381865afa1580156117f1573d5f5f3e3d5ffd5b505050506040513d601f19601f82011682018060405250810190611815919061529b565b6001600160401b03168152602001836001600160a01b031663e8a6fed16040518163ffffffff1660e01b8152600401602060405180830381865afa15801561185f573d5f5f3e3d5ffd5b505050506040513d601f19601f82011682018060405250810190611883919061529b565b6001600160401b03168152602001836001600160a01b0316630fb5a6b46040518163ffffffff1660e01b8152600401602060405180830381865afa1580156118cd573d5f5f3e3d5ffd5b505050506040513d601f19601f820116820180604052508101906118f1919061529b565b6001600160401b03168152604051632614965760e21b81526001600160a01b038481166004830152602090920191851690639852595c90602401602060405180830381865afa158015611946573d5f5f3e3d5ffd5b505050506040513d601f19601f8201168201806040525081019061196a91906151ce565b81526040516351fc756760e11b81526001600160a01b03848116600483015260209092019185169063a3f8eace90602401602060405180830381865afa1580156119b6573d5f5f3e3d5ffd5b505050506040513d601f19601f820116820180604052508101906119da91906151ce565b815260405163810ec23b60e01b81526001600160a01b0384811660048301526001600160401b034216602483015260209092019185169063810ec23b90604401602060405180830381865afa158015611a35573d5f5f3e3d5ffd5b505050506040513d601f19601f82011682018060405250810190611a5991906151ce565b90529350835b50505050919050565b5f81611a7b57638f4eb6045f526004601cfd5b673ec412a9852d173d60c11b601c52815f5263ffffffff601c600c2054169050919050565b600f546001600160a01b03163314611acb57604051631634f9a360e31b815260040160405180910390fd5b610a9b613a09565b6040805160a0810182525f80825260208201819052918101829052606081018290526080810182905290611b068361309c565b9050611b11816130b6565b5f908152601a6020908152604091829020825160a0810184528154815260019091015460ff808216151593830193909352610100810483161515938201939093526201000083049091161515606082015263010000009091046001600160a01b0316608082015292915050565b60606003600101805461093990615166565b801515905081601c52670a5a2e7a00000000600852335f52806030600c2055805f528160601b60601c337f17307eab39ab6107e8899845ad3d59bd9653f200f220920489ca2b5937696c3160205fa35050565b5f818152673ec412a9852d173d60c11b601c5260208120820182015460601b611c1f5760405163677510db60e11b815260040160405180910390fd5b505f9081526002602052604090205460ff1690565b611c3f858585610d7d565b833b15611c8757611c8785858585858080601f0160208091040260200160405190810160405280939291908181526020018383808284375f920191909152506137f292505050565b5050505050565b611c96612646565b611c9e613a46565b611ca661266a565b5f611cb03361309c565b15611cc957335f90815260076020526040902054611cd2565b611cd233613a7a565b9050611cde8383613ab7565b5f80611cec868801886152f2565b91509150611cf981613bad565b611d0288613cfd565b611d0b836130d6565b611d1483613d23565b8760135f015f828254611d27919061533e565b90915550505f838152601a6020526040812080548a9290611d4990849061533e565b9091555050604080518981526020810184905233818301526060810185905290517f547b5873575a93e4c1cd5e77469bd194b0ddc436c50dd0caa426eff405a65aa49181900360800190a1600b54611dac906001600160a01b031633308b613d5c565b5050505050505050565b6060611ddf825f818152673ec412a9852d173d60c11b601c52602090208101015460601b151590565b611e405760405162461bcd60e51b815260206004820152602760248201527f4552433732313a2055524920717565727920666f72206e6f6e6578697374656e6044820152663a103a37b5b2b760c91b60648201526084015b60405180910390fd5b5f60036002018054611e5190615166565b80601f0160208091040260200160405190810160405280929190818152602001828054611e7d90615166565b8015611ec85780601f10611e9f57610100808354040283529160200191611ec8565b820191905f5260205f20905b815481529060010190602001808311611eab57829003601f168201915b505050505090505f815111611eeb5760405180602001604052805f815250611f16565b80611ef584613db5565b604051602001611f06929190615368565b6040516020818303038152906040525b9392505050565b600d546001600160a01b03163314611f48576040516301312f1f60e11b815260040160405180910390fd5b611f50612646565b611f5861266a565b611f60613e44565b611f6983613e6d565b6019805461ff0019166101009081179091556040805191820181526009546001600160401b038082168452600160401b820481166020850152600160801b8204169183019190915261ffff600160c01b820481166060840152600160d01b8204811660808401819052600160e01b8304821660a0850152600160f01b9092041660c0830152600a5460e08301525f9061271090612007908790615265565b612011919061527c565b90505f61271061ffff16868460c0015161ffff1661202f9190615265565b612039919061527c565b9050818514612065576040516354dff7e960e01b81526004810186905260248101839052604401611e37565b80841461208f576040516354dff7e960e01b81526004810185905260248101829052604401611e37565b60408051878152602081018790529081018590527feb6ecff67790f9432b928d86593a8ef9296b4f8562a4e1856e2b17372fa218fb9060600160405180910390a16040805161010081018252600b546001600160a01b039081168252600c54811660208301819052600d54821693830193909352600e5481166060830152600f5481166080830152601054811660a0830152601154811660c08301526012541660e0820152906121419033308a613d5c565b851561215b5761215b8160200151338360c0015189613d5c565b8415612175576121758160200151338360e0015188613d5c565b50505050505050565b612186612646565b61218e61266a565b61219661268e565b61219e6126ce565b6010546121bb908690869086906001600160a01b03168686613ebb565b6121c4836126ef565b611c87858585612793565b600f546001600160a01b031633146121fa57604051631634f9a360e31b815260040160405180910390fd5b604080516001600160a01b038086168252841660208201529081018290527ff24ef89f38eadc1bde50701ad6e4d6d11a2dc24f7cf834a486991f38833285049060600160405180910390a1610a54828483613270565b600d546001600160a01b0316331461227b576040516301312f1f60e11b815260040160405180910390fd5b612283612646565b61228b613057565b610a9b613f83565b600d546001600160a01b031633146122be576040516301312f1f60e11b815260040160405180910390fd5b6122c6612646565b6122ce61268e565b6122d661266a565b6122de6132ba565b6122e6613ffd565b6122ee614025565b6019805462ff00001916620100001790556015546016819055604080516101008181018352600b546001600160a01b039081168352600c548116602080850191909152600d54821684860152600e548216606080860191909152600f548316608080870191909152601054841660a080880191909152601154851660c08089019190915260125490951660e080890191909152885196870189526009546001600160401b038082168952600160401b8204811696890196909652600160801b81049095169887019890985261ffff600160c01b85048116938701849052600160d01b8504811692870192909252600160e01b8404821690860152600160f01b90920490911691830191909152600a549382019390935290915f9061271090612417908690615265565b612421919061527c565b90505f61271061ffff16858460a0015161ffff1661243f9190615265565b612449919061527c565b90507f3ae35a082057a5be9e6d5f35595c7af95c80661ebf74fdbb3790f6ef55c75e4f8560405161247c91815260200190565b60405180910390a183516124a5903383612496868a615252565b6124a09190615252565b613270565b81156124bd576124bd845f01518560c0015184613270565b8015611c8757611c87845f01518560e0015183613270565b6124dd612646565b6124e56140d0565b5f6124ef3361309c565b90506124fa816130b6565b612503816130d6565b5f818152601a602052604081205490819003612534576040516342fe459760e01b81525f6004820152602401611e37565b5f828152601a6020526040812081905560138054839290612556908490615252565b9091555050604080518281523360208201527f3807f78213e07f1e91138875c27db2a63adf27577192e6d8617910fb3b755b139101611615565b6125dc6040518061012001604052805f81526020015f81526020015f81526020015f81526020015f81526020015f81526020015f151581526020015f151581526020015f151581525090565b50604080516101208101825260135481526014546020820152601554918101919091526016546060820152601754608082015260185460a082015260195460ff808216151560c08401526101008083048216151560e0850152620100009092041615159082015290565b60085460ff1615610a9b5760405163d93c066560e01b815260040160405180910390fd5b60195460ff1615610a9b576040516326c4177d60e01b815260040160405180910390fd5b600954600160801b90046001600160401b0316428111156126cb57604051630a0e099960e01b815242600482015260248101829052604401611e37565b50565b60145415610a9b57604051631e557c2560e21b815260040160405180910390fd5b5f818152601a6020908152604091829020825160a0810184528154815260019091015460ff8082161515938301939093526101008104831615159382019390935262010000830490911615156060820181905263010000009092046001600160a01b031660808201529080612765575080602001515b8061277257508060400151155b15610a645760405163141664ff60e21b815260048101839052602401611e37565b6001600160a01b0382165f9081526007602052604090205480156128b5575f828152601a60208181526040808420815160a0810183528154815260019182015460ff808216151583870152610100820481161515838601526201000080830482161515606085015263010000009092046001600160a01b0316608084015288885295909452919094209384015490939291900416806128365750600181015460ff165b8061284b57506001810154610100900460ff16155b1561286c5760405163a1504f3b60e01b815260048101849052602401611e37565b8151815482905f9061287f90849061533e565b90915550505f848152601a6020526040812090815560010180546001600160b81b03191690556128ae866140f3565b5050610fe2565b610fe284848461412e565b5f1960601c82811692508381169350815f5283673ec412a9852d173d60c11b17601c5260205f2082018201805482169150816129035763ceea21b65f526004601cfd5b81851485151761292757815f526030600c205461292757634b6e7f185f526004601cfd5b6001018390558183827f8c5be1e5ebec7d5bd14f71427d1e84f3dd0314c0f7b2291e5b200ac8c7c3b9255f38a450505050565b600e5460405163970559cf60e01b81526d2622a3a4a7a72fa127aaa721a2a960911b60048201526001600160a01b039091169063970559cf90602401602060405180830381865afa1580156129b1573d5f5f3e3d5ffd5b505050506040513d601f19601f820116820180604052508101906129d59190615384565b600f80546001600160a01b0319166001600160a01b03928316179055600e5460405163970559cf60e01b81526c2622a3a4a7a72fa9a4a3a722a960991b600482015291169063970559cf90602401602060405180830381865afa158015612a3e573d5f5f3e3d5ffd5b505050506040513d601f19601f82011682018060405250810190612a629190615384565b601080546001600160a01b0319166001600160a01b03928316179055600e5460405163970559cf60e01b8152722622a3a4a7a72fa322a2afa922a1a2a4ab22a960691b600482015291169063970559cf90602401602060405180830381865afa158015612ad1573d5f5f3e3d5ffd5b505050506040513d601f19601f82011682018060405250810190612af59190615384565b601180546001600160a01b0319166001600160a01b03928316179055600e5460405163970559cf60e01b8152754c4547494f4e5f56455354494e475f464143544f525960501b600482015291169063970559cf90602401602060405180830381865afa158015612b67573d5f5f3e3d5ffd5b505050506040513d601f19601f82011682018060405250810190612b8b9190615384565b5f80546001600160a01b0319166001600160a01b03928316179055600e5460405163970559cf60e01b81527f4c4547494f4e5f56455354494e475f434f4e54524f4c4c455200000000000000600482015291169063970559cf90602401602060405180830381865afa158015612c03573d5f5f3e3d5ffd5b505050506040513d601f19601f82011682018060405250810190612c279190615384565b600180546001600160a01b0319166001600160a01b03928316908117909155600f546010546011545f54604080519487168552928616602085015290851691830191909152909216606083015260808201527f4b02015c8d0e47cc44a723bc061abdfa651fefc86f2ac5387e9f992f732b35289060a0015b60405180910390a1565b601e545f03610a9b5760405163f84f4f2d60e01b815260040160405180910390fd5b604051637a5e545960e11b8152813560048201526020820135602482015273__$edfbc930edab1df5637e2c8827573bd861$__9063f4bca8b290604401602060405180830381865af4158015612d23573d5f5f3e3d5ffd5b505050506040513d601f19601f82011682018060405250810190612d47919061539f565b6126cb57604051632e97f79960e21b815260040160405180910390fd5b612d6c614143565b612d758161415f565b612d8560608201604083016153ba565b6009805461ffff92909216600160c01b0261ffff60c01b19909216919091179055612db660808201606083016153ba565b6009805461ffff92909216600160d01b0261ffff60d01b19909216919091179055612de760a08201608083016153ba565b6009805461ffff92909216600160e01b0261ffff60e01b19909216919091179055612e1860c0820160a083016153ba565b6009805461ffff92909216600160f01b026001600160f01b0390921691909117905560c0810135600a55612e53610100820160e08301614ea6565b600b80546001600160a01b0319166001600160a01b0392909216919091179055612e8561012082016101008301614ea6565b600c80546001600160a01b0319166001600160a01b0392909216919091179055612eb761014082016101208301614ea6565b600d80546001600160a01b0319166001600160a01b0392909216919091179055612ee961016082016101408301614ea6565b600e80546001600160a01b0319166001600160a01b0392909216919091179055612f1b61018082016101608301614ea6565b601280546001600160a01b0319166001600160a01b0392909216919091179055612f496101808201826153db565b600391612f57919083615461565b50612f666101a08201826153db565b600491612f74919083615461565b50612f836101c08201826153db565b600591612f91919083615461565b506126cb61295a565b5f8181526002602052604090205460ff1615612fcc57604051633eaa5a6560e21b815260048101829052602401611e37565b816001600160a01b0316836001600160a01b031603610a545760405163a9f93fb960e01b815260048101829052602401611e37565b6001600160a01b0383161580159061302157506001600160a01b03821615155b1561304c576001600160a01b038084165f908152600760205260408082208290559184168152208190555b610a54838383614339565b601b5460ff1615610a9b576040516344c3bf1760e01b815260040160405180910390fd5b60145415610a9b57604051637aa79e0b60e11b815260040160405180910390fd5b6001600160a01b03165f9081526007602052604090205490565b805f036126cb5760405163060d1e1760e11b815260040160405180910390fd5b5f818152601a602052604090206001015462010000900460ff16156126cb5760405163029a96bb60e01b8152336004820152602401611e37565b5f848152601a6020908152604091829020825160a0810184528154815260019091015460ff80821615159383019390935261010081048316158015948301949094526201000081049092161515606082015263010000009091046001600160a01b03166080820152906131a1576040516303f0bf7d60e21b81526001600160a01b0387166004820152602401611e37565b5f8685835f01516131b29190615252565b604080516001600160a01b03909316602084015282015260600160408051601f19818403018152828252805160209182012090830152016040516020818303038152906040528051906020012090506132418484808060200260200160405190810160405280939291908181526020018383602002808284375f92019190915250506018549150849050614344565b6121755760405163e3db547760e01b81526001600160a01b038816600482015260248101869052604401611e37565b816014528060345263a9059cbb60601b5f5260205f604460105f875af18060015f5114166132b057803d853b1517106132b0576390b8ec185f526004601cfd5b505f603452505050565b6014545f03610a9b5760405163b025207360e01b815260040160405180910390fd5b6132ea426312bed40061533e565b6132f76020830183615204565b6001600160401b0316118061332757506312bed40061331c6040830160208401615204565b6001600160401b0316115b80613361575061333d6040820160208301615204565b6001600160401b03166133566060830160408401615204565b6001600160401b0316115b8061338b5750670de0b6b3a764000061338060e0830160c08401615204565b6001600160401b0316115b15613461576133a06080820160608301615528565b60018111156133b1576133b1615541565b6133be6020830183615204565b6133ce6040840160208501615204565b6133de6060850160408601615204565b6133ee60a0860160808701615204565b6133fe60c0870160a08801615204565b61340e60e0880160c08901615204565b604051631bf0976560e01b815260ff90971660048801526001600160401b0395861660248801529385166044870152918416606486015283166084850152821660a48401521660c482015260e401611e37565b60016134736080830160608401615528565b600181111561348457613484615541565b036126cb576312bed40061349e60a0830160808401615204565b6134ae60c0840160a08501615204565b6134b89190615555565b6001600160401b0316118061351757506134d86040820160208301615204565b6001600160401b03166134f160a0830160808401615204565b61350160c0840160a08501615204565b61350b9190615555565b6001600160401b031614155b8061353d57506301dfe20061353260a0830160808401615204565b6001600160401b0316115b156126cb576133a06080820160608301615528565b5f61355c8661309c565b9050613567816130b6565b5f8686838760405160200161357f9493929190615597565b60408051601f198184030181528282528051602091820120908301520160408051808303601f1901815282825280516020918201205f868152601a835283902060a085018452805485526001015460ff808216151584870152610100820481161515868601526201000082041615156060860152630100000090046001600160a01b0316608085015282518783028082018401909452878152909450613647929091889188918291908501908490808284375f92019190915250506017549150859050614344565b61366f57604051638716bd7f60e01b81526001600160a01b0389166004820152602401611e37565b806020015115611dac5760405163edf08ce160e01b81526001600160a01b0389166004820152602401611e37565b5f806136af6080850160608601615528565b60018111156136c0576136c0615541565b03613712576001545f5461370f9133916001600160a01b0391821691166136ea6020880188615204565b6136fa6040890160208a01615204565b61370a60608a0160408b01615204565b614384565b90505b60016137246080850160608601615528565b600181111561373557613735615541565b03610c1f576001545f54611f169133916001600160a01b039182169116856137606020890189615204565b61377060408a0160208b01615204565b61378060608b0160408c01615204565b61379060a08c0160808d01615204565b6137a060c08d0160a08e01615204565b614422565b6137ad6144dc565b6008805460ff191690557f5db9ee0a495bf2e6ff9c91a7834c1ba4fdd244a5e8aa4e537bd38aeae4b073aa335b6040516001600160a01b039091168152602001612c9f565b60405163150b7a028082523360208301528560601b60601c604083015283606083015260808083015282518060a08401528015613839578060c08401826020870160045afa505b60208360a48301601c86015f8a5af161385a573d1561385a573d5f843e3d83fd5b508060e01b8251146115605763d1a57ed65f526004601cfd5b601b5460ff16610a9b57604051637cacbc8760e11b815260040160405180910390fd5b60408051608081018252601b5460ff161515815281518083018352601c548152601d54602082810191909152820152601e54918101829052601f54606082015290156138f5576040516310b5f28360e01b815260040160405180910390fd5b604080518082018252600181526002602082019081529151632bf48e2b60e21b81529051600482015290516024820152604481018390525f9073__$edfbc930edab1df5637e2c8827573bd861$__9063afd238ac906064016040805180830381865af4158015613967573d5f5f3e3d5ffd5b505050506040513d601f19601f8201168201806040525081019061398b919061567c565b60208301515181519192501415806139af5750816020015160200151816020015114155b15610a5457604051637663c17160e11b815260040160405180910390fd5b600954600160801b90046001600160401b03164281116126cb5760405163e155e52d60e01b815242600482015260248101829052604401611e37565b613a11612646565b6008805460ff191660011790557f62e78cea01bee320cd4e420270b5ea74000d11b0c9f74754ebdbfc544b05a2586137da3390565b600954600160401b90046001600160401b03164210610a9b5760405163a4d5021560e01b8152426004820152602401611e37565b5f600380015f8154613a8b906156ad565b90915550506006546001600160a01b0382165f9081526007602052604090208190556116b882826144ff565b6040516001600160601b031933606090811b8216602084015230901b1660348201524660488201525f90613b31906068015b604051602081830303815290604052805190602001207f19457468657265756d205369676e6564204d6573736167653a0a3332000000005f908152601c91909152603c902090565b601054604080516020601f87018190048102820181019092528581529293506001600160a01b0390911691613b829186908690819084018382808284375f92019190915250869392505061455f9050565b6001600160a01b031614610a54578282604051633dd7420b60e11b8152600401611e379291906156c5565b604051637a5e545960e11b815273__$edfbc930edab1df5637e2c8827573bd861$__9063f4bca8b290613be49084906004016156f3565b602060405180830381865af4158015613bff573d5f5f3e3d5ffd5b505050506040513d601f19601f82011682018060405250810190613c23919061539f565b613c4057604051632e97f79960e21b815260040160405180910390fd5b60408051608081018252601b5460ff161515815281518083018352601c548152601d546020828101918252808401839052601e5484860152601f5460608501529151905193519293613c9f939192909101918252602082015260400190565b60408051601f1981840301815282825280516020918201208551868301519285015291830152906060016040516020818303038152906040528051906020012014610a6457604051632e97f79960e21b815260040160405180910390fd5b600a548110156126cb5760405163868a3fc560e01b815260048101829052602401611e37565b5f818152601a6020526040902060010154610100900460ff16156126cb576040516340a0285760e01b8152336004820152602401611e37565b60405181606052826040528360601b602c526323b872dd60601b600c5260205f6064601c5f895af18060015f511416613da757803d873b151710613da757637939f4245f526004601cfd5b505f60605260405250505050565b60605f613dc183614587565b60010190505f816001600160401b03811115613ddf57613ddf6152b6565b6040519080825280601f01601f191660200182016040528015613e09576020820181803683370190505b5090508181016020015b5f19016f181899199a1a9b1b9c1cb0b131b232b360811b600a86061a8153600a8504945084613e1357509392505050565b601954610100900460ff1615610a9b576040516368754d4b60e11b815260040160405180910390fd5b6014545f819003613e9157604051634141447d60e11b815260040160405180910390fd5b808214610a645760405163028d05ab60e51b81526004810183905260248101829052604401611e37565b6040516001600160601b0319606088811b8216602084015287811b821660348401526048830187905233811b8216606884015230901b16607c8201524660908201525f90613f0b9060b001613ae9565b9050836001600160a01b0316613f5884848080601f0160208091040260200160405190810160405280939291908181526020018383808284375f92019190915250869392505061455f9050565b6001600160a01b031614612175578282604051633dd7420b60e11b8152600401611e379291906156c5565b600d546001600160a01b03163314613fae576040516301312f1f60e11b815260040160405180910390fd5b613fb6612646565b613fbe6126ce565b613fc661266a565b6019805460ff191660011790556040517f0943552b21b3bcfb11bcb560653f2703faf49c76ac2a791e285b130c0117678a905f90a1565b601954610100900460ff16610a9b576040516328b1bbfb60e01b815260040160405180910390fd5b604080516101208101825260135481526014546020820152601554918101919091526016546060820152601754608082015260185460a082015260195460ff808216151560c08401526101008083048216151560e08501526201000090920416158015918301919091526140ac5760405163c2820ca760e01b815260040160405180910390fd5b80604001515f036126cb57604051635c84879d60e01b815260040160405180910390fd5b60195460ff16610a9b5760405163289f971560e01b815260040160405180910390fd5b6001600160a01b0381165f908152600760205260409020546141148161465e565b506001600160a01b03165f90815260076020526040812055565b614138815f6146ac565b610a5483838361472e565b63409feecd1980546001166126cb5763d7e6bcf85f526004601cfd5b5f614171610100830160e08401614ea6565b6001600160a01b0316148061419f57505f61419461014083016101208401614ea6565b6001600160a01b0316145b806141c357505f6141b861016083016101408401614ea6565b6001600160a01b0316145b156141e15760405163b840f60b60e01b815260040160405180910390fd5b6141ee6020820182615204565b6001600160401b03161580614219575061420e6040820160208301615204565b6001600160401b0316155b80614231575061422d6101808201826153db565b1590505b8061424957506142456101a08201826153db565b1590505b80614261575061425d6101c08201826153db565b1590505b1561427f57604051631e44f25360e01b815260040160405180910390fd5b626ebe006142906020830183615204565b6001600160401b031611806142bf5750621275006142b46040830160208401615204565b6001600160401b0316115b156142dd57604051633118917360e11b815260040160405180910390fd5b610e106142ed6020830183615204565b6001600160401b0316108061431b5750610e106143106040830160208401615204565b6001600160401b0316105b156126cb57604051633118917360e11b815260040160405180910390fd5b610a548160016146ac565b5f83511561437d5760208401845160051b81015b8151841160051b938452815160209485185260405f2093909101908082106143585750505b5014919050565b604051632331871f60e01b81526001600160a01b03878116600483015286811660248301526001600160401b0380861660448401528085166064840152831660848301525f9190861690632331871f9060a4016020604051808303815f875af11580156143f3573d5f5f3e3d5ffd5b505050506040513d601f19601f820116820180604052508101906144179190615384565b979650505050505050565b60405163478a83a160e01b81526001600160a01b038a81166004830152898116602483015287811660448301526001600160401b038088166064840152808716608484015280861660a484015280851660c4840152831660e48301525f919089169063478a83a190610104016020604051808303815f875af11580156144aa573d5f5f3e3d5ffd5b505050506040513d601f19601f820116820180604052508101906144ce9190615384565b9a9950505050505050505050565b60085460ff16610a9b57604051638dfc202b60e01b815260040160405180910390fd5b614509828261473a565b5f8181526002602052604090819020805460ff19166001179055517f032bc66be43dbccb7487781d168eb7bda224628a3b2c3388bdf69b532a3a1611906145539083815260200190565b60405180910390a15050565b5f5f5f5f61456d86866147d5565b92509250925061457d828261481e565b5090949350505050565b5f8072184f03e93ff9f4daa797ed6e38ed64bf6a1f0160401b83106145c55772184f03e93ff9f4daa797ed6e38ed64bf6a1f0160401b830492506040015b6d04ee2d6d415b85acef810000000083106145f1576d04ee2d6d415b85acef8100000000830492506020015b662386f26fc10000831061460f57662386f26fc10000830492506010015b6305f5e1008310614627576305f5e100830492506008015b612710831061463b57612710830492506004015b6064831061464d576064830492506002015b600a8310610c1f5760010192915050565b5f818152600260205260409020805460ff1916905561467c816148d6565b6040518181527ff27b6ce5b2f5e68ddb2fd95a8a909d4ecf1daaac270935fff052feacb24f184290602001610b01565b5f828152600260205260409020805460ff191682158015919091179091556146fe576040518281527f032bc66be43dbccb7487781d168eb7bda224628a3b2c3388bdf69b532a3a161190602001614553565b6040518281527ff27b6ce5b2f5e68ddb2fd95a8a909d4ecf1daaac270935fff052feacb24f184290602001614553565b610a545f8484846148e0565b6147455f8383612f9a565b8160601b60601c9150805f52673ec412a9852d173d60c11b601c5260205f208101810180548060601b156147805763c991cbb15f526004601cfd5b831790555f829052601c600c20805460010163ffffffff811684026147b45767ea553b3401336cea841560021b526004601cfd5b905580825f5f51602061570b5f395f51905f528138a4610a645f8383613001565b5f5f5f835160410361480c576020840151604085015160608601515f1a6147fe888285856149df565b955095509550505050614817565b505081515f91506002905b9250925092565b5f82600381111561483157614831615541565b0361483a575050565b600182600381111561484e5761484e615541565b0361486c5760405163f645eedf60e01b815260040160405180910390fd5b600282600381111561488057614880615541565b036148a15760405163fce698f760e01b815260048101829052602401611e37565b60038260038111156148b5576148b5615541565b03610a64576040516335e2f38360e21b815260048101829052602401611e37565b6126cb5f82614aa7565b6148eb838383612f9a565b5f8181526001600160a01b03948516673ec412a9852d173d60c11b8117601c5260209091208201820180549195948516949384169382169182861483026149415767ceea21b6a1148100831560021b526004601cfd5b855f528160010154925082871486881417871517614970576030600c205461497057634b6e7f185f526004601cfd5b821561497d575f82600101555b85851818905550601c600c81812080545f190190555f84905220805460010163ffffffff811684026149be5767ea553b3401336cea841560021b526004601cfd5b90558082845f51602061570b5f395f51905f525f38a4610fe2838383613001565b5f80807f7fffffffffffffffffffffffffffffff5d576e7357a4501ddfe92f46681b20a0841115614a1857505f91506003905082614a9d565b604080515f808252602082018084528a905260ff891692820192909252606081018790526080810186905260019060a0016020604051602081039080840390855afa158015614a69573d5f5f3e3d5ffd5b5050604051601f1901519150506001600160a01b038116614a9457505f925060019150829050614a9d565b92505f91508190505b9450945094915050565b5f614ab182611681565b9050614abe815f84612f9a565b505f8181526001600160a01b03928316673ec412a9852d173d60c11b8117601c526020909120820182018054919382169182614b015763ceea21b65f526004601cfd5b825f52816001015480861484871417861517614b2e576030600c2054614b2e57634b6e7f185f526004601cfd5b8015614b3b575f83600101555b5082189055601c600c2080545f19019055815f825f51602061570b5f395f51905f528238a4610a54815f84613001565b60405180608001604052805f15158152602001614b9960405180604001604052805f81526020015f81525090565b81526020015f81526020015f81525090565b5f60208284031215614bbb575f5ffd5b81356001600160e01b031981168114611f16575f5ffd5b5f81518084528060208401602086015e5f602082860101526020601f19601f83011685010191505092915050565b602081525f611f166020830184614bd2565b5f60208284031215614c22575f5ffd5b5035919050565b6001600160a01b03811681146126cb575f5ffd5b5f5f5f60608486031215614c4f575f5ffd5b8335614c5a81614c29565b92506020840135614c6a81614c29565b929592945050506040919091013590565b5f5f60408385031215614c8c575f5ffd5b8235614c9781614c29565b946020939093013593505050565b5f5f60408385031215614cb6575f5ffd5b823591506020830135614cc881614c29565b809150509250929050565b5f5f8284036060811215614ce5575f5ffd5b83356001600160401b03811115614cfa575f5ffd5b84016101e08187031215614d0c575f5ffd5b92506040601f1982011215614d1f575f5ffd5b506020830190509250929050565b5f5f83601f840112614d3d575f5ffd5b5081356001600160401b03811115614d53575f5ffd5b6020830191508360208260051b8501011115614d6d575f5ffd5b9250929050565b5f5f5f60408486031215614d86575f5ffd5b8335925060208401356001600160401b03811115614da2575f5ffd5b614dae86828701614d2d565b9497909650939450505050565b5f5f5f5f848603610120811215614dd0575f5ffd5b8535945060e0601f1982011215614de5575f5ffd5b506020850192506101008501356001600160401b03811115614e05575f5ffd5b614e1187828801614d2d565b95989497509550505050565b608081525f614e2f6080830187614bd2565b8281036020840152614e418187614bd2565b90508281036040840152614e558186614bd2565b91505082606083015295945050505050565b5f5f5f5f5f5f60c08789031215614e7c575f5ffd5b505084359660208601359650604086013595606081013595506080810135945060a0013592509050565b5f60208284031215614eb6575f5ffd5b8135611f1681614c29565b5f610100820190506001600160401b0383511682526001600160401b0360208401511660208301526001600160401b0360408401511660408301526060830151614f11606084018261ffff169052565b506080830151614f27608084018261ffff169052565b5060a0830151614f3d60a084018261ffff169052565b5060c0830151614f5360c084018261ffff169052565b5060e092830151919092015290565b80151581146126cb575f5ffd5b5f5f60408385031215614f80575f5ffd5b8235614f8b81614c29565b91506020830135614cc881614f62565b5f5f83601f840112614fab575f5ffd5b5081356001600160401b03811115614fc1575f5ffd5b602083019150836020828501011115614d6d575f5ffd5b5f5f5f5f5f60808688031215614fec575f5ffd5b8535614ff781614c29565b9450602086013561500781614c29565b93506040860135925060608601356001600160401b03811115615028575f5ffd5b61503488828901614f9b565b969995985093965092949392505050565b5f5f5f5f5f60608688031215615059575f5ffd5b8535945060208601356001600160401b03811115615075575f5ffd5b61508188828901614f9b565b90955093505060408601356001600160401b03811115615028575f5ffd5b5f5f5f606084860312156150b1575f5ffd5b505081359360208301359350604090920135919050565b5f5f604083850312156150d9575f5ffd5b82356150e481614c29565b91506020830135614cc881614c29565b5f61012082019050825182526020830151602083015260408301516040830152606083015160608301526080830151608083015260a083015160a083015260c0830151151560c083015260e0830151151560e083015261010083015161515f61010084018215159052565b5092915050565b600181811c9082168061517a57607f821691505b60208210810361519857634e487b7160e01b5f52602260045260245ffd5b50919050565b84815260a081016151bc602083018680518252602090810151910152565b60608201939093526080015292915050565b5f602082840312156151de575f5ffd5b5051919050565b6001600160401b03811681146126cb575f5ffd5b80356116b8816151e5565b5f60208284031215615214575f5ffd5b8135611f16816151e5565b634e487b7160e01b5f52601160045260245ffd5b6001600160401b038181168382160190811115610c1f57610c1f61521f565b81810381811115610c1f57610c1f61521f565b8082028115828204841417610c1f57610c1f61521f565b5f8261529657634e487b7160e01b5f52601260045260245ffd5b500490565b5f602082840312156152ab575f5ffd5b8151611f16816151e5565b634e487b7160e01b5f52604160045260245ffd5b604080519081016001600160401b03811182821017156152ec576152ec6152b6565b60405290565b5f5f8284036060811215615304575f5ffd5b833592506040601f1982011215615319575f5ffd5b506153226152ca565b6020848101358252604090940135938101939093525092909150565b80820180821115610c1f57610c1f61521f565b5f81518060208401855e5f93019283525090919050565b5f61537c6153768386615351565b84615351565b949350505050565b5f60208284031215615394575f5ffd5b8151611f1681614c29565b5f602082840312156153af575f5ffd5b8151611f1681614f62565b5f602082840312156153ca575f5ffd5b813561ffff81168114611f16575f5ffd5b5f5f8335601e198436030181126153f0575f5ffd5b8301803591506001600160401b03821115615409575f5ffd5b602001915036819003821315614d6d575f5ffd5b601f821115610a5457805f5260205f20601f840160051c810160208510156154425750805b601f840160051c820191505b81811015611c87575f815560010161544e565b6001600160401b03831115615478576154786152b6565b61548c836154868354615166565b8361541d565b5f601f8411600181146154bd575f85156154a65750838201355b5f19600387901b1c1916600186901b178355611c87565b5f83815260208120601f198716915b828110156154ec57868501358255602094850194600190920191016154cc565b5086821015615508575f1960f88860031b161c19848701351681555b505060018560011b0183555050505050565b8035600281106116b8575f5ffd5b5f60208284031215615538575f5ffd5b611f168261551a565b634e487b7160e01b5f52602160045260245ffd5b6001600160401b03818116838216029081169081811461515f5761515f61521f565b6002811061559357634e487b7160e01b5f52602160045260245ffd5b9052565b6001600160a01b03851681526020810184905260408101839052610140810182356155c1816151e5565b6001600160401b0316606083015260208301356155dd816151e5565b6001600160401b0316608083015260408301356155f9816151e5565b6001600160401b031660a08301526156136060840161551a565b61562060c0840182615577565b5061562d608084016151f9565b6001600160401b031660e083015261564760a084016151f9565b6001600160401b031661010083015261566260c084016151f9565b6001600160401b0381166101208401525095945050505050565b5f604082840312801561568d575f5ffd5b506156966152ca565b825181526020928301519281019290925250919050565b5f600182016156be576156be61521f565b5060010190565b60208152816020820152818360408301375f818301604090810191909152601f909201601f19160101919050565b815181526020808301519082015260408101610c1f56feddf252ad1be2c89b69c2b068fc378daa952ba7f163c4a11628f55a4df523b3efa26469706673582212201607d7524bcf948ce82d8d95e37a67a80757627d8763f046a7a6acdddb949dac64736f6c634300081e0033",
			"opcodes": "PUSH1 0x80 PUSH1 0x40 MSTORE CALLVALUE DUP1 ISZERO PUSH1 0xE JUMPI PUSH0 PUSH0 REVERT JUMPDEST POP PUSH1 0x8 DUP1 SLOAD PUSH1 0xFF NOT AND SWAP1 SSTORE PUSH1 0x1F PUSH1 0x23 JUMP JUMPDEST PUSH1 0x86 JUMP JUMPDEST PUSH4 0x409FEECD NOT DUP1 SLOAD PUSH1 0x1 DUP2 AND ISZERO PUSH1 0x40 JUMPI PUSH4 0xF92EE8A9 PUSH0 MSTORE PUSH1 0x4 PUSH1 0x1C REVERT JUMPDEST PUSH1 0x1 PUSH1 0x1 PUSH1 0x40 SHL SUB DUP1 DUP3 PUSH1 0x1 SHR EQ PUSH1 0x81 JUMPI DUP1 PUSH1 0x1 SHL DUP4 SSTORE DUP1 PUSH1 0x20 MSTORE PUSH32 0xC7F505B2F371AE2175EE4913F4499E1F2633A7B5936321EED1CDAEB6115181D2 PUSH1 0x20 DUP1 LOG1 JUMPDEST POP POP POP JUMP JUMPDEST PUSH2 0x5760 DUP1 PUSH2 0x93 PUSH0 CODECOPY PUSH0 RETURN INVALID PUSH1 0x80 PUSH1 0x40 MSTORE PUSH1 0x4 CALLDATASIZE LT PUSH2 0x249 JUMPI PUSH0 CALLDATALOAD PUSH1 0xE0 SHR DUP1 PUSH4 0x61464191 GT PUSH2 0x134 JUMPI DUP1 PUSH4 0xB88D4FDE GT PUSH2 0xB3 JUMPI DUP1 PUSH4 0xE63EA408 GT PUSH2 0x78 JUMPI DUP1 PUSH4 0xE63EA408 EQ PUSH2 0x878 JUMPI DUP1 PUSH4 0xE985E9C5 EQ PUSH2 0x897 JUMPI DUP1 PUSH4 0xEA8A1AF0 EQ PUSH2 0x8CB JUMPI DUP1 PUSH4 0xF68C1D49 EQ PUSH2 0x8DF JUMPI DUP1 PUSH4 0xF71C2364 EQ PUSH2 0x8F3 JUMPI DUP1 PUSH4 0xF9020E33 EQ PUSH2 0x907 JUMPI PUSH0 PUSH0 REVERT JUMPDEST DUP1 PUSH4 0xB88D4FDE EQ PUSH2 0x7E9 JUMPI DUP1 PUSH4 0xC1088954 EQ PUSH2 0x7FC JUMPI DUP1 PUSH4 0xC87B56DD EQ PUSH2 0x81B JUMPI DUP1 PUSH4 0xCC6AE755 EQ PUSH2 0x83A JUMPI DUP1 PUSH4 0xE5F67382 EQ PUSH2 0x859 JUMPI PUSH0 PUSH0 REVERT JUMPDEST DUP1 PUSH4 0x84CBD9CD GT PUSH2 0xF9 JUMPI DUP1 PUSH4 0x84CBD9CD EQ PUSH2 0x64F JUMPI DUP1 PUSH4 0x90DBB806 EQ PUSH2 0x6BA JUMPI DUP1 PUSH4 0x95D89B41 EQ PUSH2 0x797 JUMPI DUP1 PUSH4 0xA22CB465 EQ PUSH2 0x7AB JUMPI DUP1 PUSH4 0xB45A3C0E EQ PUSH2 0x7CA JUMPI PUSH0 PUSH0 REVERT JUMPDEST DUP1 PUSH4 0x61464191 EQ PUSH2 0x517 JUMPI DUP1 PUSH4 0x6352211E EQ PUSH2 0x565 JUMPI DUP1 PUSH4 0x699C2994 EQ PUSH2 0x584 JUMPI DUP1 PUSH4 0x70A08231 EQ PUSH2 0x61C JUMPI DUP1 PUSH4 0x8456CB59 EQ PUSH2 0x63B JUMPI PUSH0 PUSH0 REVERT JUMPDEST DUP1 PUSH4 0x2A8B6FAE GT PUSH2 0x1CB JUMPI DUP1 PUSH4 0x3FDBDCD9 GT PUSH2 0x190 JUMPI DUP1 PUSH4 0x3FDBDCD9 EQ PUSH2 0x482 JUMPI DUP1 PUSH4 0x42842E0E EQ PUSH2 0x4A6 JUMPI DUP1 PUSH4 0x530593B6 EQ PUSH2 0x4B9 JUMPI DUP1 PUSH4 0x54DD1DA4 EQ PUSH2 0x4D8 JUMPI DUP1 PUSH4 0x590E1AE3 EQ PUSH2 0x4EC JUMPI DUP1 PUSH4 0x5C975ABB EQ PUSH2 0x500 JUMPI PUSH0 PUSH0 REVERT JUMPDEST DUP1 PUSH4 0x2A8B6FAE EQ PUSH2 0x3C4 JUMPI DUP1 PUSH4 0x32E719F2 EQ PUSH2 0x3D8 JUMPI DUP1 PUSH4 0x39E485A0 EQ PUSH2 0x3F7 JUMPI DUP1 PUSH4 0x3CCCEBC5 EQ PUSH2 0x416 JUMPI DUP1 PUSH4 0x3F4BA83A EQ PUSH2 0x46E JUMPI PUSH0 PUSH0 REVERT JUMPDEST DUP1 PUSH4 0xA636D5B GT PUSH2 0x211 JUMPI DUP1 PUSH4 0xA636D5B EQ PUSH2 0x332 JUMPI DUP1 PUSH4 0xAFF2D86 EQ PUSH2 0x346 JUMPI DUP1 PUSH4 0x133F7BCE EQ PUSH2 0x365 JUMPI DUP1 PUSH4 0x1F7C02EC EQ PUSH2 0x392 JUMPI DUP1 PUSH4 0x23B872DD EQ PUSH2 0x3B1 JUMPI PUSH0 PUSH0 REVERT JUMPDEST DUP1 PUSH4 0x1FFC9A7 EQ PUSH2 0x24D JUMPI DUP1 PUSH4 0x6FDDE03 EQ PUSH2 0x2A6 JUMPI DUP1 PUSH4 0x81812FC EQ PUSH2 0x2C7 JUMPI DUP1 PUSH4 0x8AF6E25 EQ PUSH2 0x2FE JUMPI DUP1 PUSH4 0x95EA7B3 EQ PUSH2 0x31F JUMPI JUMPDEST PUSH0 PUSH0 REVERT JUMPDEST CALLVALUE DUP1 ISZERO PUSH2 0x258 JUMPI PUSH0 PUSH0 REVERT JUMPDEST POP PUSH2 0x291 PUSH2 0x267 CALLDATASIZE PUSH1 0x4 PUSH2 0x4BAB JUMP JUMPDEST PUSH4 0x1FFC9A7 PUSH1 0xE0 SWAP2 SWAP1 SWAP2 SHR SWAP1 DUP2 EQ PUSH4 0x80AC58CD DUP3 EQ OR PUSH4 0x5B5E139F DUP3 EQ OR PUSH4 0xB45A3C0E SWAP1 SWAP2 EQ OR SWAP1 JUMP JUMPDEST PUSH1 0x40 MLOAD SWAP1 ISZERO ISZERO DUP2 MSTORE PUSH1 0x20 ADD JUMPDEST PUSH1 0x40 MLOAD DUP1 SWAP2 SUB SWAP1 RETURN JUMPDEST CALLVALUE DUP1 ISZERO PUSH2 0x2B1 JUMPI PUSH0 PUSH0 REVERT JUMPDEST POP PUSH2 0x2BA PUSH2 0x928 JUMP JUMPDEST PUSH1 0x40 MLOAD PUSH2 0x29D SWAP2 SWAP1 PUSH2 0x4C00 JUMP JUMPDEST CALLVALUE DUP1 ISZERO PUSH2 0x2D2 JUMPI PUSH0 PUSH0 REVERT JUMPDEST POP PUSH2 0x2E6 PUSH2 0x2E1 CALLDATASIZE PUSH1 0x4 PUSH2 0x4C12 JUMP JUMPDEST PUSH2 0x9BA JUMP JUMPDEST PUSH1 0x40 MLOAD PUSH1 0x1 PUSH1 0x1 PUSH1 0xA0 SHL SUB SWAP1 SWAP2 AND DUP2 MSTORE PUSH1 0x20 ADD PUSH2 0x29D JUMP JUMPDEST CALLVALUE DUP1 ISZERO PUSH2 0x309 JUMPI PUSH0 PUSH0 REVERT JUMPDEST POP PUSH2 0x31D PUSH2 0x318 CALLDATASIZE PUSH1 0x4 PUSH2 0x4C3D JUMP JUMPDEST PUSH2 0x9F5 JUMP JUMPDEST STOP JUMPDEST PUSH2 0x31D PUSH2 0x32D CALLDATASIZE PUSH1 0x4 PUSH2 0x4C7B JUMP JUMPDEST PUSH2 0xA59 JUMP JUMPDEST CALLVALUE DUP1 ISZERO PUSH2 0x33D JUMPI PUSH0 PUSH0 REVERT JUMPDEST POP PUSH2 0x31D PUSH2 0xA68 JUMP JUMPDEST CALLVALUE DUP1 ISZERO PUSH2 0x351 JUMPI PUSH0 PUSH0 REVERT JUMPDEST POP PUSH2 0x31D PUSH2 0x360 CALLDATASIZE PUSH1 0x4 PUSH2 0x4C12 JUMP JUMPDEST PUSH2 0xA9D JUMP JUMPDEST CALLVALUE DUP1 ISZERO PUSH2 0x370 JUMPI PUSH0 PUSH0 REVERT JUMPDEST POP PUSH2 0x384 PUSH2 0x37F CALLDATASIZE PUSH1 0x4 PUSH2 0x4CA5 JUMP JUMPDEST PUSH2 0xB0C JUMP JUMPDEST PUSH1 0x40 MLOAD SWAP1 DUP2 MSTORE PUSH1 0x20 ADD PUSH2 0x29D JUMP JUMPDEST CALLVALUE DUP1 ISZERO PUSH2 0x39D JUMPI PUSH0 PUSH0 REVERT JUMPDEST POP PUSH2 0x31D PUSH2 0x3AC CALLDATASIZE PUSH1 0x4 PUSH2 0x4CD3 JUMP JUMPDEST PUSH2 0xC25 JUMP JUMPDEST PUSH2 0x31D PUSH2 0x3BF CALLDATASIZE PUSH1 0x4 PUSH2 0x4C3D JUMP JUMPDEST PUSH2 0xD7D JUMP JUMPDEST CALLVALUE DUP1 ISZERO PUSH2 0x3CF JUMPI PUSH0 PUSH0 REVERT JUMPDEST POP PUSH2 0x31D PUSH2 0xE74 JUMP JUMPDEST CALLVALUE DUP1 ISZERO PUSH2 0x3E3 JUMPI PUSH0 PUSH0 REVERT JUMPDEST POP PUSH2 0x31D PUSH2 0x3F2 CALLDATASIZE PUSH1 0x4 PUSH2 0x4D74 JUMP JUMPDEST PUSH2 0xEFE JUMP JUMPDEST CALLVALUE DUP1 ISZERO PUSH2 0x402 JUMPI PUSH0 PUSH0 REVERT JUMPDEST POP PUSH2 0x31D PUSH2 0x411 CALLDATASIZE PUSH1 0x4 PUSH2 0x4DBB JUMP JUMPDEST PUSH2 0xFE8 JUMP JUMPDEST CALLVALUE DUP1 ISZERO PUSH2 0x421 JUMPI PUSH0 PUSH0 REVERT JUMPDEST POP PUSH1 0x40 DUP1 MLOAD DUP1 DUP3 ADD DUP3 MSTORE PUSH0 DUP1 DUP3 MSTORE PUSH1 0x20 SWAP2 DUP3 ADD DUP2 SWAP1 MSTORE DUP3 MLOAD DUP1 DUP5 ADD DUP5 MSTORE SWAP1 SLOAD PUSH1 0x1 PUSH1 0x1 PUSH1 0xA0 SHL SUB SWAP1 DUP2 AND DUP1 DUP4 MSTORE PUSH1 0x1 SLOAD DUP3 AND SWAP3 DUP5 ADD SWAP3 DUP4 MSTORE DUP5 MLOAD SWAP1 DUP2 MSTORE SWAP2 MLOAD AND SWAP2 DUP2 ADD SWAP2 SWAP1 SWAP2 MSTORE ADD PUSH2 0x29D JUMP JUMPDEST CALLVALUE DUP1 ISZERO PUSH2 0x479 JUMPI PUSH0 PUSH0 REVERT JUMPDEST POP PUSH2 0x31D PUSH2 0x11C9 JUMP JUMPDEST CALLVALUE DUP1 ISZERO PUSH2 0x48D JUMPI PUSH0 PUSH0 REVERT JUMPDEST POP PUSH2 0x496 PUSH2 0x11FC JUMP JUMPDEST PUSH1 0x40 MLOAD PUSH2 0x29D SWAP5 SWAP4 SWAP3 SWAP2 SWAP1 PUSH2 0x4E1D JUMP JUMPDEST PUSH2 0x31D PUSH2 0x4B4 CALLDATASIZE PUSH1 0x4 PUSH2 0x4C3D JUMP JUMPDEST PUSH2 0x13AA JUMP JUMPDEST CALLVALUE DUP1 ISZERO PUSH2 0x4C4 JUMPI PUSH0 PUSH0 REVERT JUMPDEST POP PUSH2 0x31D PUSH2 0x4D3 CALLDATASIZE PUSH1 0x4 PUSH2 0x4E67 JUMP JUMPDEST PUSH2 0x13D6 JUMP JUMPDEST CALLVALUE DUP1 ISZERO PUSH2 0x4E3 JUMPI PUSH0 PUSH0 REVERT JUMPDEST POP PUSH2 0x31D PUSH2 0x14AE JUMP JUMPDEST CALLVALUE DUP1 ISZERO PUSH2 0x4F7 JUMPI PUSH0 PUSH0 REVERT JUMPDEST POP PUSH2 0x31D PUSH2 0x1568 JUMP JUMPDEST CALLVALUE DUP1 ISZERO PUSH2 0x50B JUMPI PUSH0 PUSH0 REVERT JUMPDEST POP PUSH1 0x8 SLOAD PUSH1 0xFF AND PUSH2 0x291 JUMP JUMPDEST CALLVALUE DUP1 ISZERO PUSH2 0x522 JUMPI PUSH0 PUSH0 REVERT JUMPDEST POP PUSH2 0x52B PUSH2 0x1634 JUMP JUMPDEST PUSH1 0x40 DUP1 MLOAD DUP3 MLOAD ISZERO ISZERO DUP2 MSTORE PUSH1 0x20 DUP1 DUP5 ADD MLOAD DUP1 MLOAD DUP3 DUP5 ADD MSTORE ADD MLOAD DUP2 DUP4 ADD MSTORE SWAP1 DUP3 ADD MLOAD PUSH1 0x60 DUP1 DUP4 ADD SWAP2 SWAP1 SWAP2 MSTORE SWAP1 SWAP2 ADD MLOAD PUSH1 0x80 DUP3 ADD MSTORE PUSH1 0xA0 ADD PUSH2 0x29D JUMP JUMPDEST CALLVALUE DUP1 ISZERO PUSH2 0x570 JUMPI PUSH0 PUSH0 REVERT JUMPDEST POP PUSH2 0x2E6 PUSH2 0x57F CALLDATASIZE PUSH1 0x4 PUSH2 0x4C12 JUMP JUMPDEST PUSH2 0x1681 JUMP JUMPDEST CALLVALUE DUP1 ISZERO PUSH2 0x58F JUMPI PUSH0 PUSH0 REVERT JUMPDEST POP PUSH2 0x5A3 PUSH2 0x59E CALLDATASIZE PUSH1 0x4 PUSH2 0x4EA6 JUMP JUMPDEST PUSH2 0x16BD JUMP JUMPDEST PUSH1 0x40 MLOAD PUSH2 0x29D SWAP2 SWAP1 PUSH0 PUSH1 0xE0 DUP3 ADD SWAP1 POP PUSH1 0x1 PUSH1 0x1 PUSH1 0x40 SHL SUB DUP4 MLOAD AND DUP3 MSTORE PUSH1 0x1 PUSH1 0x1 PUSH1 0x40 SHL SUB PUSH1 0x20 DUP5 ADD MLOAD AND PUSH1 0x20 DUP4 ADD MSTORE PUSH1 0x1 PUSH1 0x1 PUSH1 0x40 SHL SUB PUSH1 0x40 DUP5 ADD MLOAD AND PUSH1 0x40 DUP4 ADD MSTORE PUSH1 0x1 PUSH1 0x1 PUSH1 0x40 SHL SUB PUSH1 0x60 DUP5 ADD MLOAD AND PUSH1 0x60 DUP4 ADD MSTORE PUSH1 0x80 DUP4 ADD MLOAD PUSH1 0x80 DUP4 ADD MSTORE PUSH1 0xA0 DUP4 ADD MLOAD PUSH1 0xA0 DUP4 ADD MSTORE PUSH1 0xC0 DUP4 ADD MLOAD PUSH1 0xC0 DUP4 ADD MSTORE SWAP3 SWAP2 POP POP JUMP JUMPDEST CALLVALUE DUP1 ISZERO PUSH2 0x627 JUMPI PUSH0 PUSH0 REVERT JUMPDEST POP PUSH2 0x384 PUSH2 0x636 CALLDATASIZE PUSH1 0x4 PUSH2 0x4EA6 JUMP JUMPDEST PUSH2 0x1A68 JUMP JUMPDEST CALLVALUE DUP1 ISZERO PUSH2 0x646 JUMPI PUSH0 PUSH0 REVERT JUMPDEST POP PUSH2 0x31D PUSH2 0x1AA0 JUMP JUMPDEST CALLVALUE DUP1 ISZERO PUSH2 0x65A JUMPI PUSH0 PUSH0 REVERT JUMPDEST POP PUSH2 0x66E PUSH2 0x669 CALLDATASIZE PUSH1 0x4 PUSH2 0x4EA6 JUMP JUMPDEST PUSH2 0x1AD3 JUMP JUMPDEST PUSH1 0x40 MLOAD PUSH2 0x29D SWAP2 SWAP1 DUP2 MLOAD DUP2 MSTORE PUSH1 0x20 DUP1 DUP4 ADD MLOAD ISZERO ISZERO SWAP1 DUP3 ADD MSTORE PUSH1 0x40 DUP1 DUP4 ADD MLOAD ISZERO ISZERO SWAP1 DUP3 ADD MSTORE PUSH1 0x60 DUP1 DUP4 ADD MLOAD ISZERO ISZERO SWAP1 DUP3 ADD MSTORE PUSH1 0x80 SWAP2 DUP3 ADD MLOAD PUSH1 0x1 PUSH1 0x1 PUSH1 0xA0 SHL SUB AND SWAP2 DUP2 ADD SWAP2 SWAP1 SWAP2 MSTORE PUSH1 0xA0 ADD SWAP1 JUMP JUMPDEST CALLVALUE DUP1 ISZERO PUSH2 0x6C5 JUMPI PUSH0 PUSH0 REVERT JUMPDEST POP PUSH2 0x78A PUSH1 0x40 DUP1 MLOAD PUSH2 0x100 DUP2 ADD DUP3 MSTORE PUSH0 DUP1 DUP3 MSTORE PUSH1 0x20 DUP3 ADD DUP2 SWAP1 MSTORE SWAP2 DUP2 ADD DUP3 SWAP1 MSTORE PUSH1 0x60 DUP2 ADD DUP3 SWAP1 MSTORE PUSH1 0x80 DUP2 ADD DUP3 SWAP1 MSTORE PUSH1 0xA0 DUP2 ADD DUP3 SWAP1 MSTORE PUSH1 0xC0 DUP2 ADD DUP3 SWAP1 MSTORE PUSH1 0xE0 DUP2 ADD SWAP2 SWAP1 SWAP2 MSTORE POP PUSH1 0x40 DUP1 MLOAD PUSH2 0x100 DUP2 ADD DUP3 MSTORE PUSH1 0x9 SLOAD PUSH1 0x1 PUSH1 0x1 PUSH1 0x40 SHL SUB DUP1 DUP3 AND DUP4 MSTORE PUSH1 0x1 PUSH1 0x40 SHL DUP3 DIV DUP2 AND PUSH1 0x20 DUP5 ADD MSTORE PUSH1 0x1 PUSH1 0x80 SHL DUP3 DIV AND SWAP3 DUP3 ADD SWAP3 SWAP1 SWAP3 MSTORE PUSH2 0xFFFF PUSH1 0x1 PUSH1 0xC0 SHL DUP4 DIV DUP2 AND PUSH1 0x60 DUP4 ADD MSTORE PUSH1 0x1 PUSH1 0xD0 SHL DUP4 DIV DUP2 AND PUSH1 0x80 DUP4 ADD MSTORE PUSH1 0x1 PUSH1 0xE0 SHL DUP4 DIV DUP2 AND PUSH1 0xA0 DUP4 ADD MSTORE PUSH1 0x1 PUSH1 0xF0 SHL SWAP1 SWAP3 DIV SWAP1 SWAP2 AND PUSH1 0xC0 DUP3 ADD MSTORE PUSH1 0xA SLOAD PUSH1 0xE0 DUP3 ADD MSTORE SWAP1 JUMP JUMPDEST PUSH1 0x40 MLOAD PUSH2 0x29D SWAP2 SWAP1 PUSH2 0x4EC1 JUMP JUMPDEST CALLVALUE DUP1 ISZERO PUSH2 0x7A2 JUMPI PUSH0 PUSH0 REVERT JUMPDEST POP PUSH2 0x2BA PUSH2 0x1B7E JUMP JUMPDEST CALLVALUE DUP1 ISZERO PUSH2 0x7B6 JUMPI PUSH0 PUSH0 REVERT JUMPDEST POP PUSH2 0x31D PUSH2 0x7C5 CALLDATASIZE PUSH1 0x4 PUSH2 0x4F6F JUMP JUMPDEST PUSH2 0x1B90 JUMP JUMPDEST CALLVALUE DUP1 ISZERO PUSH2 0x7D5 JUMPI PUSH0 PUSH0 REVERT JUMPDEST POP PUSH2 0x291 PUSH2 0x7E4 CALLDATASIZE PUSH1 0x4 PUSH2 0x4C12 JUMP JUMPDEST PUSH2 0x1BE3 JUMP JUMPDEST PUSH2 0x31D PUSH2 0x7F7 CALLDATASIZE PUSH1 0x4 PUSH2 0x4FD8 JUMP JUMPDEST PUSH2 0x1C34 JUMP JUMPDEST CALLVALUE DUP1 ISZERO PUSH2 0x807 JUMPI PUSH0 PUSH0 REVERT JUMPDEST POP PUSH2 0x31D PUSH2 0x816 CALLDATASIZE PUSH1 0x4 PUSH2 0x5045 JUMP JUMPDEST PUSH2 0x1C8E JUMP JUMPDEST CALLVALUE DUP1 ISZERO PUSH2 0x826 JUMPI PUSH0 PUSH0 REVERT JUMPDEST POP PUSH2 0x2BA PUSH2 0x835 CALLDATASIZE PUSH1 0x4 PUSH2 0x4C12 JUMP JUMPDEST PUSH2 0x1DB6 JUMP JUMPDEST CALLVALUE DUP1 ISZERO PUSH2 0x845 JUMPI PUSH0 PUSH0 REVERT JUMPDEST POP PUSH2 0x31D PUSH2 0x854 CALLDATASIZE PUSH1 0x4 PUSH2 0x509F JUMP JUMPDEST PUSH2 0x1F1D JUMP JUMPDEST CALLVALUE DUP1 ISZERO PUSH2 0x864 JUMPI PUSH0 PUSH0 REVERT JUMPDEST POP PUSH2 0x31D PUSH2 0x873 CALLDATASIZE PUSH1 0x4 PUSH2 0x4FD8 JUMP JUMPDEST PUSH2 0x217E JUMP JUMPDEST CALLVALUE DUP1 ISZERO PUSH2 0x883 JUMPI PUSH0 PUSH0 REVERT JUMPDEST POP PUSH2 0x31D PUSH2 0x892 CALLDATASIZE PUSH1 0x4 PUSH2 0x4C3D JUMP JUMPDEST PUSH2 0x21CF JUMP JUMPDEST CALLVALUE DUP1 ISZERO PUSH2 0x8A2 JUMPI PUSH0 PUSH0 REVERT JUMPDEST POP PUSH2 0x291 PUSH2 0x8B1 CALLDATASIZE PUSH1 0x4 PUSH2 0x50C8 JUMP JUMPDEST PUSH1 0x1C MSTORE PUSH8 0xA5A2E7A00000000 PUSH1 0x8 MSTORE PUSH0 MSTORE PUSH1 0x30 PUSH1 0xC KECCAK256 SLOAD SWAP1 JUMP JUMPDEST CALLVALUE DUP1 ISZERO PUSH2 0x8D6 JUMPI PUSH0 PUSH0 REVERT JUMPDEST POP PUSH2 0x31D PUSH2 0x2250 JUMP JUMPDEST CALLVALUE DUP1 ISZERO PUSH2 0x8EA JUMPI PUSH0 PUSH0 REVERT JUMPDEST POP PUSH2 0x31D PUSH2 0x2293 JUMP JUMPDEST CALLVALUE DUP1 ISZERO PUSH2 0x8FE JUMPI PUSH0 PUSH0 REVERT JUMPDEST POP PUSH2 0x31D PUSH2 0x24D5 JUMP JUMPDEST CALLVALUE DUP1 ISZERO PUSH2 0x912 JUMPI PUSH0 PUSH0 REVERT JUMPDEST POP PUSH2 0x91B PUSH2 0x2590 JUMP JUMPDEST PUSH1 0x40 MLOAD PUSH2 0x29D SWAP2 SWAP1 PUSH2 0x50F4 JUMP JUMPDEST PUSH1 0x60 PUSH1 0x3 PUSH0 ADD DUP1 SLOAD PUSH2 0x939 SWAP1 PUSH2 0x5166 JUMP JUMPDEST DUP1 PUSH1 0x1F ADD PUSH1 0x20 DUP1 SWAP2 DIV MUL PUSH1 0x20 ADD PUSH1 0x40 MLOAD SWAP1 DUP2 ADD PUSH1 0x40 MSTORE DUP1 SWAP3 SWAP2 SWAP1 DUP2 DUP2 MSTORE PUSH1 0x20 ADD DUP3 DUP1 SLOAD PUSH2 0x965 SWAP1 PUSH2 0x5166 JUMP JUMPDEST DUP1 ISZERO PUSH2 0x9B0 JUMPI DUP1 PUSH1 0x1F LT PUSH2 0x987 JUMPI PUSH2 0x100 DUP1 DUP4 SLOAD DIV MUL DUP4 MSTORE SWAP2 PUSH1 0x20 ADD SWAP2 PUSH2 0x9B0 JUMP JUMPDEST DUP3 ADD SWAP2 SWAP1 PUSH0 MSTORE PUSH1 0x20 PUSH0 KECCAK256 SWAP1 JUMPDEST DUP2 SLOAD DUP2 MSTORE SWAP1 PUSH1 0x1 ADD SWAP1 PUSH1 0x20 ADD DUP1 DUP4 GT PUSH2 0x993 JUMPI DUP3 SWAP1 SUB PUSH1 0x1F AND DUP3 ADD SWAP2 JUMPDEST POP POP POP POP POP SWAP1 POP SWAP1 JUMP JUMPDEST PUSH0 DUP2 PUSH0 MSTORE PUSH8 0x3EC412A9852D173D PUSH1 0xC1 SHL PUSH1 0x1C MSTORE PUSH1 0x20 PUSH0 KECCAK256 DUP3 ADD DUP3 ADD DUP1 SLOAD PUSH1 0x60 SHL PUSH2 0x9EB JUMPI PUSH4 0xCEEA21B6 PUSH0 MSTORE PUSH1 0x4 PUSH1 0x1C REVERT JUMPDEST PUSH1 0x1 ADD SLOAD SWAP3 SWAP2 POP POP JUMP JUMPDEST PUSH1 0xF SLOAD PUSH1 0x1 PUSH1 0x1 PUSH1 0xA0 SHL SUB AND CALLER EQ PUSH2 0xA20 JUMPI PUSH1 0x40 MLOAD PUSH4 0x1634F9A3 PUSH1 0xE3 SHL DUP2 MSTORE PUSH1 0x4 ADD PUSH1 0x40 MLOAD DUP1 SWAP2 SUB SWAP1 REVERT JUMPDEST PUSH2 0xA28 PUSH2 0x2646 JUMP JUMPDEST PUSH2 0xA30 PUSH2 0x266A JUMP JUMPDEST PUSH2 0xA38 PUSH2 0x268E JUMP JUMPDEST PUSH2 0xA40 PUSH2 0x26CE JUMP JUMPDEST PUSH2 0xA49 DUP2 PUSH2 0x26EF JUMP JUMPDEST PUSH2 0xA54 DUP4 DUP4 DUP4 PUSH2 0x2793 JUMP JUMPDEST POP POP POP JUMP JUMPDEST PUSH2 0xA64 CALLER DUP4 DUP4 PUSH2 0x28C0 JUMP JUMPDEST POP POP JUMP JUMPDEST PUSH1 0xF SLOAD PUSH1 0x1 PUSH1 0x1 PUSH1 0xA0 SHL SUB AND CALLER EQ PUSH2 0xA93 JUMPI PUSH1 0x40 MLOAD PUSH4 0x1634F9A3 PUSH1 0xE3 SHL DUP2 MSTORE PUSH1 0x4 ADD PUSH1 0x40 MLOAD DUP1 SWAP2 SUB SWAP1 REVERT JUMPDEST PUSH2 0xA9B PUSH2 0x295A JUMP JUMPDEST JUMP JUMPDEST PUSH1 0xF SLOAD PUSH1 0x1 PUSH1 0x1 PUSH1 0xA0 SHL SUB AND CALLER EQ PUSH2 0xAC8 JUMPI PUSH1 0x40 MLOAD PUSH4 0x1634F9A3 PUSH1 0xE3 SHL DUP2 MSTORE PUSH1 0x4 ADD PUSH1 0x40 MLOAD DUP1 SWAP2 SUB SWAP1 REVERT JUMPDEST PUSH2 0xAD0 PUSH2 0x266A JUMP JUMPDEST PUSH1 0x18 DUP2 SWAP1 SSTORE PUSH1 0x40 MLOAD DUP2 DUP2 MSTORE PUSH32 0x393244A3CFB18CB61014AFD98D11FBC01143937C82FBFDD0C6C6FC15C96E1396 SWAP1 PUSH1 0x20 ADD JUMPDEST PUSH1 0x40 MLOAD DUP1 SWAP2 SUB SWAP1 LOG1 POP JUMP JUMPDEST PUSH0 PUSH2 0xB15 PUSH2 0x2CA9 JUMP JUMPDEST PUSH1 0x40 DUP1 MLOAD PUSH1 0x80 DUP2 ADD DUP3 MSTORE PUSH1 0x1B SLOAD PUSH1 0xFF AND ISZERO ISZERO DUP2 MSTORE DUP2 MLOAD DUP1 DUP4 ADD DUP4 MSTORE PUSH1 0x1C SLOAD DUP2 MSTORE PUSH1 0x1D SLOAD PUSH1 0x20 DUP3 DUP2 ADD SWAP2 SWAP1 SWAP2 MSTORE DUP1 DUP4 ADD DUP3 SWAP1 MSTORE PUSH1 0x1E SLOAD DUP4 DUP6 ADD DUP2 SWAP1 MSTORE PUSH1 0x1F SLOAD PUSH1 0x60 DUP6 ADD DUP2 SWAP1 MSTORE SWAP5 MLOAD SWAP4 SWAP5 PUSH20 0x0 SWAP5 PUSH4 0x3A89A523 SWAP5 DUP11 SWAP5 SWAP1 SWAP4 SWAP3 PUSH2 0xBA3 SWAP3 DUP12 SWAP3 ADD PUSH1 0x60 SWAP3 SWAP1 SWAP3 SHL PUSH1 0x1 PUSH1 0x1 PUSH1 0x60 SHL SUB NOT AND DUP3 MSTORE PUSH1 0x14 DUP3 ADD MSTORE PUSH1 0x34 ADD SWAP1 JUMP JUMPDEST PUSH1 0x40 DUP1 MLOAD PUSH1 0x1F NOT DUP2 DUP5 SUB ADD DUP2 MSTORE SWAP1 DUP3 SWAP1 MSTORE DUP1 MLOAD PUSH1 0x20 SWAP1 SWAP2 ADD KECCAK256 PUSH1 0x1 PUSH1 0x1 PUSH1 0xE0 SHL SUB NOT PUSH1 0xE0 DUP8 SWAP1 SHL AND DUP3 MSTORE PUSH2 0xBDC SWAP5 SWAP4 SWAP3 SWAP2 PUSH1 0x4 ADD PUSH2 0x519E JUMP JUMPDEST PUSH1 0x20 PUSH1 0x40 MLOAD DUP1 DUP4 SUB DUP2 DUP7 GAS DELEGATECALL ISZERO DUP1 ISZERO PUSH2 0xBF7 JUMPI RETURNDATASIZE PUSH0 PUSH0 RETURNDATACOPY RETURNDATASIZE PUSH0 REVERT JUMPDEST POP POP POP POP PUSH1 0x40 MLOAD RETURNDATASIZE PUSH1 0x1F NOT PUSH1 0x1F DUP3 ADD AND DUP3 ADD DUP1 PUSH1 0x40 MSTORE POP DUP2 ADD SWAP1 PUSH2 0xC1B SWAP2 SWAP1 PUSH2 0x51CE JUMP JUMPDEST SWAP2 POP POP JUMPDEST SWAP3 SWAP2 POP POP JUMP JUMPDEST PUSH4 0x409FEECD NOT DUP1 SLOAD PUSH1 0x3 DUP3 SSTORE DUP1 ISZERO PUSH2 0xC5B JUMPI PUSH1 0x1 DUP2 PUSH1 0x1 SHR EQ ADDRESS EXTCODESIZE LT PUSH2 0xC52 JUMPI PUSH4 0xF92EE8A9 PUSH0 MSTORE PUSH1 0x4 PUSH1 0x1C REVERT JUMPDEST DUP2 DUP2 PUSH1 0xFF SHL SHL SWAP2 POP JUMPDEST POP PUSH2 0xC65 DUP3 PUSH2 0x2CCB JUMP JUMPDEST PUSH2 0xC6E DUP4 PUSH2 0x2D64 JUMP JUMPDEST DUP2 CALLDATALOAD PUSH1 0x1C SSTORE PUSH1 0x20 DUP1 DUP4 ADD CALLDATALOAD PUSH1 0x1D SSTORE PUSH1 0x9 DUP1 SLOAD PUSH8 0xFFFFFFFFFFFFFFFF NOT AND TIMESTAMP PUSH1 0x1 PUSH1 0x1 PUSH1 0x40 SHL SUB AND OR SWAP1 SSTORE PUSH2 0xCA4 SWAP1 DUP5 ADD DUP5 PUSH2 0x5204 JUMP JUMPDEST PUSH1 0x9 SLOAD PUSH2 0xCBA SWAP2 SWAP1 PUSH1 0x1 PUSH1 0x1 PUSH1 0x40 SHL SUB AND PUSH2 0x5233 JUMP JUMPDEST PUSH1 0x9 DUP1 SLOAD PUSH1 0x1 PUSH1 0x1 PUSH1 0x40 SHL SUB SWAP3 SWAP1 SWAP3 AND PUSH1 0x1 PUSH1 0x40 SHL MUL PUSH16 0xFFFFFFFFFFFFFFFF0000000000000000 NOT SWAP1 SWAP3 AND SWAP2 SWAP1 SWAP2 OR SWAP1 SSTORE PUSH2 0xCFB PUSH1 0x40 DUP5 ADD PUSH1 0x20 DUP6 ADD PUSH2 0x5204 JUMP JUMPDEST PUSH1 0x9 SLOAD PUSH2 0xD18 SWAP2 SWAP1 PUSH1 0x1 PUSH1 0x40 SHL SWAP1 DIV PUSH1 0x1 PUSH1 0x1 PUSH1 0x40 SHL SUB AND PUSH2 0x5233 JUMP JUMPDEST PUSH1 0x9 DUP1 SLOAD PUSH1 0x1 PUSH1 0x1 PUSH1 0x40 SHL SUB SWAP3 SWAP1 SWAP3 AND PUSH1 0x1 PUSH1 0x80 SHL MUL PUSH8 0xFFFFFFFFFFFFFFFF PUSH1 0x80 SHL NOT SWAP1 SWAP3 AND SWAP2 SWAP1 SWAP2 OR SWAP1 SSTORE DUP1 ISZERO PUSH2 0xA54 JUMPI PUSH1 0x2 DUP2 SSTORE PUSH1 0x1 PUSH1 0x20 MSTORE PUSH32 0xC7F505B2F371AE2175EE4913F4499E1F2633A7B5936321EED1CDAEB6115181D2 PUSH1 0x20 DUP1 LOG1 POP POP POP JUMP JUMPDEST PUSH2 0xD88 DUP4 DUP4 DUP4 PUSH2 0x2F9A JUMP JUMPDEST PUSH0 DUP2 DUP2 MSTORE PUSH8 0x3EC412A9852D173D PUSH1 0xC1 SHL CALLER OR PUSH1 0x1C MSTORE PUSH1 0x20 SWAP1 KECCAK256 DUP2 ADD DUP2 ADD DUP1 SLOAD PUSH1 0x1 PUSH1 0x1 PUSH1 0xA0 SHL SUB SWAP5 DUP6 AND SWAP5 SWAP4 DUP5 AND SWAP4 DUP2 AND SWAP2 SWAP1 DUP3 DUP7 EQ DUP4 MUL PUSH2 0xDD9 JUMPI PUSH8 0xCEEA21B6A1148100 DUP4 ISZERO PUSH1 0x2 SHL MSTORE PUSH1 0x4 PUSH1 0x1C REVERT JUMPDEST DUP6 PUSH0 MSTORE DUP2 PUSH1 0x1 ADD SLOAD SWAP3 POP DUP3 CALLER EQ DUP7 CALLER EQ OR PUSH2 0xE05 JUMPI PUSH1 0x30 PUSH1 0xC KECCAK256 SLOAD PUSH2 0xE05 JUMPI PUSH4 0x4B6E7F18 PUSH0 MSTORE PUSH1 0x4 PUSH1 0x1C REVERT JUMPDEST DUP3 ISZERO PUSH2 0xE12 JUMPI PUSH0 DUP3 PUSH1 0x1 ADD SSTORE JUMPDEST DUP6 DUP6 XOR XOR SWAP1 SSTORE POP PUSH1 0x1C PUSH1 0xC DUP2 DUP2 KECCAK256 DUP1 SLOAD PUSH0 NOT ADD SWAP1 SSTORE PUSH0 DUP5 SWAP1 MSTORE KECCAK256 DUP1 SLOAD PUSH1 0x1 ADD PUSH4 0xFFFFFFFF DUP2 AND DUP5 MUL PUSH2 0xE53 JUMPI PUSH8 0xEA553B3401336CEA DUP5 ISZERO PUSH1 0x2 SHL MSTORE PUSH1 0x4 PUSH1 0x1C REVERT JUMPDEST SWAP1 SSTORE DUP1 DUP3 DUP5 PUSH0 MLOAD PUSH1 0x20 PUSH2 0x570B PUSH0 CODECOPY PUSH0 MLOAD SWAP1 PUSH0 MSTORE PUSH0 CODESIZE LOG4 PUSH2 0xA54 DUP4 DUP4 DUP4 PUSH2 0x3001 JUMP JUMPDEST PUSH1 0xF SLOAD PUSH1 0x1 PUSH1 0x1 PUSH1 0xA0 SHL SUB AND CALLER EQ PUSH2 0xE9F JUMPI PUSH1 0x40 MLOAD PUSH4 0x1634F9A3 PUSH1 0xE3 SHL DUP2 MSTORE PUSH1 0x4 ADD PUSH1 0x40 MLOAD DUP1 SWAP2 SUB SWAP1 REVERT JUMPDEST PUSH2 0xEA7 PUSH2 0x2646 JUMP JUMPDEST PUSH2 0xEAF PUSH2 0x266A JUMP JUMPDEST PUSH2 0xEB7 PUSH2 0x3057 JUMP JUMPDEST PUSH2 0xEBF PUSH2 0x268E JUMP JUMPDEST PUSH2 0xEC7 PUSH2 0x307B JUMP JUMPDEST PUSH1 0x1B DUP1 SLOAD PUSH1 0xFF NOT AND PUSH1 0x1 OR SWAP1 SSTORE PUSH1 0x40 MLOAD PUSH32 0x7E3CF79491A274018C7F265A2E16256849EA1679173C4B19F0FEA8CB7C34A87A SWAP1 PUSH0 SWAP1 LOG1 JUMP JUMPDEST PUSH2 0xF06 PUSH2 0x2646 JUMP JUMPDEST PUSH2 0xF0E PUSH2 0x266A JUMP JUMPDEST PUSH0 PUSH2 0xF18 CALLER PUSH2 0x309C JUMP JUMPDEST SWAP1 POP PUSH2 0xF23 DUP2 PUSH2 0x30B6 JUMP JUMPDEST PUSH2 0xF2C DUP2 PUSH2 0x30D6 JUMP JUMPDEST PUSH2 0xF39 CALLER DUP3 DUP7 DUP7 DUP7 PUSH2 0x3110 JUMP JUMPDEST PUSH0 DUP2 DUP2 MSTORE PUSH1 0x1A PUSH1 0x20 MSTORE PUSH1 0x40 DUP2 KECCAK256 PUSH1 0x1 DUP2 ADD DUP1 SLOAD PUSH2 0xFF00 NOT AND PUSH2 0x100 OR SWAP1 SSTORE DUP1 SLOAD DUP7 SWAP3 SWAP1 PUSH2 0xF67 SWAP1 DUP5 SWAP1 PUSH2 0x5252 JUMP JUMPDEST SWAP1 SWAP2 SSTORE POP POP PUSH1 0x13 DUP1 SLOAD DUP6 SWAP2 SWAP1 PUSH0 SWAP1 PUSH2 0xF80 SWAP1 DUP5 SWAP1 PUSH2 0x5252 JUMP JUMPDEST SWAP1 SWAP2 SSTORE POP POP PUSH1 0x40 DUP1 MLOAD DUP6 DUP2 MSTORE CALLER PUSH1 0x20 DUP3 ADD MSTORE SWAP1 DUP2 ADD DUP3 SWAP1 MSTORE PUSH32 0x6341DCB064EDAC8070B059A7351278F06DF48F417DBB63F02402409059B03053 SWAP1 PUSH1 0x60 ADD PUSH1 0x40 MLOAD DUP1 SWAP2 SUB SWAP1 LOG1 DUP4 ISZERO PUSH2 0xFE2 JUMPI PUSH1 0xB SLOAD PUSH2 0xFE2 SWAP1 PUSH1 0x1 PUSH1 0x1 PUSH1 0xA0 SHL SUB AND CALLER DUP7 PUSH2 0x3270 JUMP JUMPDEST POP POP POP POP JUMP JUMPDEST PUSH2 0xFF0 PUSH2 0x2646 JUMP JUMPDEST PUSH2 0xFF8 PUSH2 0x266A JUMP JUMPDEST PUSH2 0x1000 PUSH2 0x268E JUMP JUMPDEST PUSH2 0x1008 PUSH2 0x32BA JUMP JUMPDEST PUSH0 PUSH2 0x1012 CALLER PUSH2 0x309C JUMP JUMPDEST SWAP1 POP PUSH2 0x101D DUP2 PUSH2 0x30B6 JUMP JUMPDEST PUSH2 0x1026 DUP2 PUSH2 0x30D6 JUMP JUMPDEST PUSH2 0x102F DUP5 PUSH2 0x32DC JUMP JUMPDEST PUSH2 0x103C CALLER DUP7 DUP7 DUP7 DUP7 PUSH2 0x3552 JUMP JUMPDEST PUSH0 DUP2 DUP2 MSTORE PUSH1 0x1A PUSH1 0x20 SWAP1 DUP2 MSTORE PUSH1 0x40 DUP1 DUP4 KECCAK256 DUP2 MLOAD PUSH2 0x100 DUP2 ADD DUP4 MSTORE PUSH1 0xB SLOAD PUSH1 0x1 PUSH1 0x1 PUSH1 0xA0 SHL SUB SWAP1 DUP2 AND DUP3 MSTORE PUSH1 0xC SLOAD DUP2 AND SWAP5 DUP3 ADD SWAP5 SWAP1 SWAP5 MSTORE PUSH1 0xD SLOAD DUP5 AND SWAP3 DUP2 ADD SWAP3 SWAP1 SWAP3 MSTORE PUSH1 0xE SLOAD DUP4 AND PUSH1 0x60 DUP4 ADD MSTORE PUSH1 0xF SLOAD DUP4 AND PUSH1 0x80 DUP4 ADD MSTORE PUSH1 0x10 SLOAD DUP4 AND PUSH1 0xA0 DUP4 ADD MSTORE PUSH1 0x11 SLOAD DUP4 AND PUSH1 0xC0 DUP1 DUP5 ADD SWAP2 SWAP1 SWAP2 MSTORE PUSH1 0x12 SLOAD SWAP1 SWAP4 AND PUSH1 0xE0 DUP1 DUP5 ADD SWAP2 SWAP1 SWAP2 MSTORE PUSH1 0x1 DUP1 DUP4 ADD DUP1 SLOAD PUSH1 0xFF NOT AND SWAP1 SWAP2 OR SWAP1 SSTORE SWAP1 SWAP4 SWAP2 SWAP3 PUSH8 0xDE0B6B3A7640000 SWAP2 PUSH2 0x10E5 SWAP2 SWAP1 DUP11 ADD SWAP1 DUP11 ADD PUSH2 0x5204 JUMP JUMPDEST PUSH2 0x10F8 SWAP1 PUSH1 0x1 PUSH1 0x1 PUSH1 0x40 SHL SUB AND DUP11 PUSH2 0x5265 JUMP JUMPDEST PUSH2 0x1102 SWAP2 SWAP1 PUSH2 0x527C JUMP JUMPDEST SWAP1 POP PUSH0 PUSH2 0x110F DUP3 DUP11 PUSH2 0x5252 JUMP JUMPDEST PUSH1 0x40 DUP1 MLOAD DUP3 DUP2 MSTORE PUSH1 0x20 DUP2 ADD DUP6 SWAP1 MSTORE CALLER DUP2 DUP4 ADD MSTORE PUSH1 0x60 DUP2 ADD DUP9 SWAP1 MSTORE SWAP1 MLOAD SWAP2 SWAP3 POP PUSH32 0xB8B27C9366AE0D3A9EECBCC98C26BD18CA7BDD47293088CDF8CCDC683354520D SWAP2 SWAP1 DUP2 SWAP1 SUB PUSH1 0x80 ADD SWAP1 LOG1 DUP1 ISZERO PUSH2 0x11A9 JUMPI PUSH0 PUSH2 0x116E DUP10 DUP6 PUSH1 0x20 ADD MLOAD PUSH2 0x369D JUMP JUMPDEST PUSH1 0x1 DUP7 ADD DUP1 SLOAD PUSH4 0x1000000 PUSH1 0x1 PUSH1 0xB8 SHL SUB NOT AND PUSH4 0x1000000 PUSH1 0x1 PUSH1 0x1 PUSH1 0xA0 SHL SUB DUP5 AND MUL OR SWAP1 SSTORE PUSH1 0x20 DUP6 ADD MLOAD SWAP1 SWAP2 POP PUSH2 0x11A7 SWAP1 DUP3 DUP5 PUSH2 0x3270 JUMP JUMPDEST POP JUMPDEST DUP2 ISZERO PUSH2 0x11BE JUMPI PUSH2 0x11BE DUP4 PUSH1 0x20 ADD MLOAD CALLER DUP5 PUSH2 0x3270 JUMP JUMPDEST POP POP POP POP POP POP POP POP POP JUMP JUMPDEST PUSH1 0xF SLOAD PUSH1 0x1 PUSH1 0x1 PUSH1 0xA0 SHL SUB AND CALLER EQ PUSH2 0x11F4 JUMPI PUSH1 0x40 MLOAD PUSH4 0x1634F9A3 PUSH1 0xE3 SHL DUP2 MSTORE PUSH1 0x4 ADD PUSH1 0x40 MLOAD DUP1 SWAP2 SUB SWAP1 REVERT JUMPDEST PUSH2 0xA9B PUSH2 0x37A5 JUMP JUMPDEST PUSH1 0x3 DUP1 SLOAD DUP2 SWAP1 PUSH2 0x120B SWAP1 PUSH2 0x5166 JUMP JUMPDEST DUP1 PUSH1 0x1F ADD PUSH1 0x20 DUP1 SWAP2 DIV MUL PUSH1 0x20 ADD PUSH1 0x40 MLOAD SWAP1 DUP2 ADD PUSH1 0x40 MSTORE DUP1 SWAP3 SWAP2 SWAP1 DUP2 DUP2 MSTORE PUSH1 0x20 ADD DUP3 DUP1 SLOAD PUSH2 0x1237 SWAP1 PUSH2 0x5166 JUMP JUMPDEST DUP1 ISZERO PUSH2 0x1282 JUMPI DUP1 PUSH1 0x1F LT PUSH2 0x1259 JUMPI PUSH2 0x100 DUP1 DUP4 SLOAD DIV MUL DUP4 MSTORE SWAP2 PUSH1 0x20 ADD SWAP2 PUSH2 0x1282 JUMP JUMPDEST DUP3 ADD SWAP2 SWAP1 PUSH0 MSTORE PUSH1 0x20 PUSH0 KECCAK256 SWAP1 JUMPDEST DUP2 SLOAD DUP2 MSTORE SWAP1 PUSH1 0x1 ADD SWAP1 PUSH1 0x20 ADD DUP1 DUP4 GT PUSH2 0x1265 JUMPI DUP3 SWAP1 SUB PUSH1 0x1F AND DUP3 ADD SWAP2 JUMPDEST POP POP POP POP POP SWAP1 DUP1 PUSH1 0x1 ADD DUP1 SLOAD PUSH2 0x1297 SWAP1 PUSH2 0x5166 JUMP JUMPDEST DUP1 PUSH1 0x1F ADD PUSH1 0x20 DUP1 SWAP2 DIV MUL PUSH1 0x20 ADD PUSH1 0x40 MLOAD SWAP1 DUP2 ADD PUSH1 0x40 MSTORE DUP1 SWAP3 SWAP2 SWAP1 DUP2 DUP2 MSTORE PUSH1 0x20 ADD DUP3 DUP1 SLOAD PUSH2 0x12C3 SWAP1 PUSH2 0x5166 JUMP JUMPDEST DUP1 ISZERO PUSH2 0x130E JUMPI DUP1 PUSH1 0x1F LT PUSH2 0x12E5 JUMPI PUSH2 0x100 DUP1 DUP4 SLOAD DIV MUL DUP4 MSTORE SWAP2 PUSH1 0x20 ADD SWAP2 PUSH2 0x130E JUMP JUMPDEST DUP3 ADD SWAP2 SWAP1 PUSH0 MSTORE PUSH1 0x20 PUSH0 KECCAK256 SWAP1 JUMPDEST DUP2 SLOAD DUP2 MSTORE SWAP1 PUSH1 0x1 ADD SWAP1 PUSH1 0x20 ADD DUP1 DUP4 GT PUSH2 0x12F1 JUMPI DUP3 SWAP1 SUB PUSH1 0x1F AND DUP3 ADD SWAP2 JUMPDEST POP POP POP POP POP SWAP1 DUP1 PUSH1 0x2 ADD DUP1 SLOAD PUSH2 0x1323 SWAP1 PUSH2 0x5166 JUMP JUMPDEST DUP1 PUSH1 0x1F ADD PUSH1 0x20 DUP1 SWAP2 DIV MUL PUSH1 0x20 ADD PUSH1 0x40 MLOAD SWAP1 DUP2 ADD PUSH1 0x40 MSTORE DUP1 SWAP3 SWAP2 SWAP1 DUP2 DUP2 MSTORE PUSH1 0x20 ADD DUP3 DUP1 SLOAD PUSH2 0x134F SWAP1 PUSH2 0x5166 JUMP JUMPDEST DUP1 ISZERO PUSH2 0x139A JUMPI DUP1 PUSH1 0x1F LT PUSH2 0x1371 JUMPI PUSH2 0x100 DUP1 DUP4 SLOAD DIV MUL DUP4 MSTORE SWAP2 PUSH1 0x20 ADD SWAP2 PUSH2 0x139A JUMP JUMPDEST DUP3 ADD SWAP2 SWAP1 PUSH0 MSTORE PUSH1 0x20 PUSH0 KECCAK256 SWAP1 JUMPDEST DUP2 SLOAD DUP2 MSTORE SWAP1 PUSH1 0x1 ADD SWAP1 PUSH1 0x20 ADD DUP1 DUP4 GT PUSH2 0x137D JUMPI DUP3 SWAP1 SUB PUSH1 0x1F AND DUP3 ADD SWAP2 JUMPDEST POP POP POP POP POP SWAP1 DUP1 PUSH1 0x3 ADD SLOAD SWAP1 POP DUP5 JUMP JUMPDEST PUSH2 0x13B5 DUP4 DUP4 DUP4 PUSH2 0xD7D JUMP JUMPDEST DUP2 EXTCODESIZE ISZERO PUSH2 0xA54 JUMPI PUSH2 0xA54 DUP4 DUP4 DUP4 PUSH1 0x40 MLOAD DUP1 PUSH1 0x20 ADD PUSH1 0x40 MSTORE DUP1 PUSH0 DUP2 MSTORE POP PUSH2 0x37F2 JUMP JUMPDEST PUSH1 0xF SLOAD PUSH1 0x1 PUSH1 0x1 PUSH1 0xA0 SHL SUB AND CALLER EQ PUSH2 0x1401 JUMPI PUSH1 0x40 MLOAD PUSH4 0x1634F9A3 PUSH1 0xE3 SHL DUP2 MSTORE PUSH1 0x4 ADD PUSH1 0x40 MLOAD DUP1 SWAP2 SUB SWAP1 REVERT JUMPDEST PUSH2 0x1409 PUSH2 0x2646 JUMP JUMPDEST PUSH2 0x1411 PUSH2 0x266A JUMP JUMPDEST PUSH2 0x1419 PUSH2 0x268E JUMP JUMPDEST PUSH2 0x1421 PUSH2 0x3873 JUMP JUMPDEST PUSH2 0x142A DUP3 PUSH2 0x3896 JUMP JUMPDEST PUSH2 0x1432 PUSH2 0x307B JUMP JUMPDEST PUSH1 0x17 DUP7 SWAP1 SSTORE PUSH1 0x18 DUP6 SWAP1 SSTORE PUSH1 0x14 DUP5 SWAP1 SSTORE PUSH1 0x15 DUP4 SWAP1 SSTORE PUSH1 0x1E DUP3 SWAP1 SSTORE PUSH1 0x1F DUP2 SWAP1 SSTORE PUSH1 0x40 DUP1 MLOAD DUP8 DUP2 MSTORE PUSH1 0x20 DUP2 ADD DUP8 SWAP1 MSTORE SWAP1 DUP2 ADD DUP6 SWAP1 MSTORE PUSH1 0x60 DUP2 ADD DUP5 SWAP1 MSTORE PUSH1 0x80 DUP2 ADD DUP4 SWAP1 MSTORE PUSH1 0xA0 DUP2 ADD DUP3 SWAP1 MSTORE PUSH32 0x119EA84DC487DDD570E9C3EE8ADEB4B31D88D7FA40C81B08A48F4C621C463545 SWAP1 PUSH1 0xC0 ADD PUSH1 0x40 MLOAD DUP1 SWAP2 SUB SWAP1 LOG1 POP POP POP POP POP POP JUMP JUMPDEST PUSH2 0x14B6 PUSH2 0x2646 JUMP JUMPDEST PUSH0 PUSH2 0x14C0 CALLER PUSH2 0x309C JUMP JUMPDEST SWAP1 POP PUSH2 0x14CB DUP2 PUSH2 0x30B6 JUMP JUMPDEST PUSH0 DUP2 DUP2 MSTORE PUSH1 0x1A PUSH1 0x20 MSTORE PUSH1 0x40 SWAP1 KECCAK256 PUSH1 0x1 ADD SLOAD PUSH4 0x1000000 SWAP1 DIV PUSH1 0x1 PUSH1 0x1 PUSH1 0xA0 SHL SUB AND DUP1 PUSH2 0x150A JUMPI PUSH1 0x40 MLOAD PUSH4 0xB840F60B PUSH1 0xE0 SHL DUP2 MSTORE PUSH1 0x4 ADD PUSH1 0x40 MLOAD DUP1 SWAP2 SUB SWAP1 REVERT JUMPDEST PUSH1 0xC SLOAD PUSH1 0x40 MLOAD PUSH4 0x19165587 PUSH1 0xE0 SHL DUP2 MSTORE PUSH1 0x1 PUSH1 0x1 PUSH1 0xA0 SHL SUB SWAP2 DUP3 AND PUSH1 0x4 DUP3 ADD MSTORE SWAP1 DUP3 AND SWAP1 PUSH4 0x19165587 SWAP1 PUSH1 0x24 ADD PUSH0 PUSH1 0x40 MLOAD DUP1 DUP4 SUB DUP2 PUSH0 DUP8 DUP1 EXTCODESIZE ISZERO DUP1 ISZERO PUSH2 0x154E JUMPI PUSH0 PUSH0 REVERT JUMPDEST POP GAS CALL ISZERO DUP1 ISZERO PUSH2 0x1560 JUMPI RETURNDATASIZE PUSH0 PUSH0 RETURNDATACOPY RETURNDATASIZE PUSH0 REVERT JUMPDEST POP POP POP POP POP POP JUMP JUMPDEST PUSH2 0x1570 PUSH2 0x2646 JUMP JUMPDEST PUSH2 0x1578 PUSH2 0x39CD JUMP JUMPDEST PUSH2 0x1580 PUSH2 0x266A JUMP JUMPDEST PUSH0 PUSH2 0x158A CALLER PUSH2 0x309C JUMP JUMPDEST SWAP1 POP PUSH2 0x1595 DUP2 PUSH2 0x30B6 JUMP JUMPDEST PUSH2 0x159E DUP2 PUSH2 0x30D6 JUMP JUMPDEST PUSH0 DUP2 DUP2 MSTORE PUSH1 0x1A PUSH1 0x20 MSTORE PUSH1 0x40 DUP2 KECCAK256 DUP1 SLOAD DUP3 DUP3 SSTORE PUSH1 0x1 SWAP1 SWAP2 ADD DUP1 SLOAD PUSH3 0xFF0000 NOT AND PUSH3 0x10000 OR SWAP1 SSTORE PUSH1 0x13 DUP1 SLOAD SWAP2 SWAP3 DUP4 SWAP3 PUSH2 0x15D7 SWAP1 DUP5 SWAP1 PUSH2 0x5252 JUMP JUMPDEST SWAP1 SWAP2 SSTORE POP POP PUSH1 0x40 DUP1 MLOAD DUP3 DUP2 MSTORE CALLER PUSH1 0x20 DUP3 ADD MSTORE SWAP1 DUP2 ADD DUP4 SWAP1 MSTORE PUSH32 0x2F7421F68549E714BC710199519C8B35139CB8BD9E49984836621B29F676101A SWAP1 PUSH1 0x60 ADD JUMPDEST PUSH1 0x40 MLOAD DUP1 SWAP2 SUB SWAP1 LOG1 PUSH1 0xB SLOAD PUSH2 0xA64 SWAP1 PUSH1 0x1 PUSH1 0x1 PUSH1 0xA0 SHL SUB AND CALLER DUP4 PUSH2 0x3270 JUMP JUMPDEST PUSH2 0x163C PUSH2 0x4B6B JUMP JUMPDEST POP PUSH1 0x40 DUP1 MLOAD PUSH1 0x80 DUP2 ADD DUP3 MSTORE PUSH1 0x1B SLOAD PUSH1 0xFF AND ISZERO ISZERO DUP2 MSTORE DUP2 MLOAD DUP1 DUP4 ADD DUP4 MSTORE PUSH1 0x1C SLOAD DUP2 MSTORE PUSH1 0x1D SLOAD PUSH1 0x20 DUP3 DUP2 ADD SWAP2 SWAP1 SWAP2 MSTORE DUP3 ADD MSTORE PUSH1 0x1E SLOAD SWAP2 DUP2 ADD SWAP2 SWAP1 SWAP2 MSTORE PUSH1 0x1F SLOAD PUSH1 0x60 DUP3 ADD MSTORE SWAP1 JUMP JUMPDEST PUSH0 DUP2 DUP2 MSTORE PUSH8 0x3EC412A9852D173D PUSH1 0xC1 SHL PUSH1 0x1C MSTORE PUSH1 0x20 SWAP1 KECCAK256 DUP2 ADD DUP2 ADD SLOAD PUSH1 0x1 PUSH1 0x1 PUSH1 0xA0 SHL SUB AND DUP1 PUSH2 0x16B8 JUMPI PUSH4 0xCEEA21B6 PUSH0 MSTORE PUSH1 0x4 PUSH1 0x1C REVERT JUMPDEST SWAP2 SWAP1 POP JUMP JUMPDEST PUSH1 0x40 DUP1 MLOAD PUSH1 0xE0 DUP2 ADD DUP3 MSTORE PUSH0 DUP1 DUP3 MSTORE PUSH1 0x20 DUP3 ADD DUP2 SWAP1 MSTORE SWAP2 DUP2 ADD DUP3 SWAP1 MSTORE PUSH1 0x60 DUP2 ADD DUP3 SWAP1 MSTORE PUSH1 0x80 DUP2 ADD DUP3 SWAP1 MSTORE PUSH1 0xA0 DUP2 ADD DUP3 SWAP1 MSTORE PUSH1 0xC0 DUP2 ADD DUP3 SWAP1 MSTORE SWAP1 PUSH2 0x16FE DUP4 PUSH2 0x309C JUMP JUMPDEST SWAP1 POP PUSH2 0x1709 DUP2 PUSH2 0x30B6 JUMP JUMPDEST PUSH0 DUP2 DUP2 MSTORE PUSH1 0x1A PUSH1 0x20 MSTORE PUSH1 0x40 SWAP1 KECCAK256 PUSH1 0x1 ADD SLOAD PUSH1 0xC SLOAD PUSH1 0x1 PUSH1 0x1 PUSH1 0xA0 SHL SUB PUSH4 0x1000000 SWAP1 SWAP3 DIV DUP3 AND SWAP2 AND DUP2 PUSH2 0x173C JUMPI DUP4 PUSH2 0x1A5F JUMP JUMPDEST PUSH1 0x40 MLOAD DUP1 PUSH1 0xE0 ADD PUSH1 0x40 MSTORE DUP1 DUP4 PUSH1 0x1 PUSH1 0x1 PUSH1 0xA0 SHL SUB AND PUSH4 0xBE9A6555 PUSH1 0x40 MLOAD DUP2 PUSH4 0xFFFFFFFF AND PUSH1 0xE0 SHL DUP2 MSTORE PUSH1 0x4 ADD PUSH1 0x20 PUSH1 0x40 MLOAD DUP1 DUP4 SUB DUP2 DUP7 GAS STATICCALL ISZERO DUP1 ISZERO PUSH2 0x1783 JUMPI RETURNDATASIZE PUSH0 PUSH0 RETURNDATACOPY RETURNDATASIZE PUSH0 REVERT JUMPDEST POP POP POP POP PUSH1 0x40 MLOAD RETURNDATASIZE PUSH1 0x1F NOT PUSH1 0x1F DUP3 ADD AND DUP3 ADD DUP1 PUSH1 0x40 MSTORE POP DUP2 ADD SWAP1 PUSH2 0x17A7 SWAP2 SWAP1 PUSH2 0x529B JUMP JUMPDEST PUSH1 0x1 PUSH1 0x1 PUSH1 0x40 SHL SUB AND DUP2 MSTORE PUSH1 0x20 ADD DUP4 PUSH1 0x1 PUSH1 0x1 PUSH1 0xA0 SHL SUB AND PUSH4 0xEFBE1C1C PUSH1 0x40 MLOAD DUP2 PUSH4 0xFFFFFFFF AND PUSH1 0xE0 SHL DUP2 MSTORE PUSH1 0x4 ADD PUSH1 0x20 PUSH1 0x40 MLOAD DUP1 DUP4 SUB DUP2 DUP7 GAS STATICCALL ISZERO DUP1 ISZERO PUSH2 0x17F1 JUMPI RETURNDATASIZE PUSH0 PUSH0 RETURNDATACOPY RETURNDATASIZE PUSH0 REVERT JUMPDEST POP POP POP POP PUSH1 0x40 MLOAD RETURNDATASIZE PUSH1 0x1F NOT PUSH1 0x1F DUP3 ADD AND DUP3 ADD DUP1 PUSH1 0x40 MSTORE POP DUP2 ADD SWAP1 PUSH2 0x1815 SWAP2 SWAP1 PUSH2 0x529B JUMP JUMPDEST PUSH1 0x1 PUSH1 0x1 PUSH1 0x40 SHL SUB AND DUP2 MSTORE PUSH1 0x20 ADD DUP4 PUSH1 0x1 PUSH1 0x1 PUSH1 0xA0 SHL SUB AND PUSH4 0xE8A6FED1 PUSH1 0x40 MLOAD DUP2 PUSH4 0xFFFFFFFF AND PUSH1 0xE0 SHL DUP2 MSTORE PUSH1 0x4 ADD PUSH1 0x20 PUSH1 0x40 MLOAD DUP1 DUP4 SUB DUP2 DUP7 GAS STATICCALL ISZERO DUP1 ISZERO PUSH2 0x185F JUMPI RETURNDATASIZE PUSH0 PUSH0 RETURNDATACOPY RETURNDATASIZE PUSH0 REVERT JUMPDEST POP POP POP POP PUSH1 0x40 MLOAD RETURNDATASIZE PUSH1 0x1F NOT PUSH1 0x1F DUP3 ADD AND DUP3 ADD DUP1 PUSH1 0x40 MSTORE POP DUP2 ADD SWAP1 PUSH2 0x1883 SWAP2 SWAP1 PUSH2 0x529B JUMP JUMPDEST PUSH1 0x1 PUSH1 0x1 PUSH1 0x40 SHL SUB AND DUP2 MSTORE PUSH1 0x20 ADD DUP4 PUSH1 0x1 PUSH1 0x1 PUSH1 0xA0 SHL SUB AND PUSH4 0xFB5A6B4 PUSH1 0x40 MLOAD DUP2 PUSH4 0xFFFFFFFF AND PUSH1 0xE0 SHL DUP2 MSTORE PUSH1 0x4 ADD PUSH1 0x20 PUSH1 0x40 MLOAD DUP1 DUP4 SUB DUP2 DUP7 GAS STATICCALL ISZERO DUP1 ISZERO PUSH2 0x18CD JUMPI RETURNDATASIZE PUSH0 PUSH0 RETURNDATACOPY RETURNDATASIZE PUSH0 REVERT JUMPDEST POP POP POP POP PUSH1 0x40 MLOAD RETURNDATASIZE PUSH1 0x1F NOT PUSH1 0x1F DUP3 ADD AND DUP3 ADD DUP1 PUSH1 0x40 MSTORE POP DUP2 ADD SWAP1 PUSH2 0x18F1 SWAP2 SWAP1 PUSH2 0x529B JUMP JUMPDEST PUSH1 0x1 PUSH1 0x1 PUSH1 0x40 SHL SUB AND DUP2 MSTORE PUSH1 0x40 MLOAD PUSH4 0x26149657 PUSH1 0xE2 SHL DUP2 MSTORE PUSH1 0x1 PUSH1 0x1 PUSH1 0xA0 SHL SUB DUP5 DUP2 AND PUSH1 0x4 DUP4 ADD MSTORE PUSH1 0x20 SWAP1 SWAP3 ADD SWAP2 DUP6 AND SWAP1 PUSH4 0x9852595C SWAP1 PUSH1 0x24 ADD PUSH1 0x20 PUSH1 0x40 MLOAD DUP1 DUP4 SUB DUP2 DUP7 GAS STATICCALL ISZERO DUP1 ISZERO PUSH2 0x1946 JUMPI RETURNDATASIZE PUSH0 PUSH0 RETURNDATACOPY RETURNDATASIZE PUSH0 REVERT JUMPDEST POP POP POP POP PUSH1 0x40 MLOAD RETURNDATASIZE PUSH1 0x1F NOT PUSH1 0x1F DUP3 ADD AND DUP3 ADD DUP1 PUSH1 0x40 MSTORE POP DUP2 ADD SWAP1 PUSH2 0x196A SWAP2 SWAP1 PUSH2 0x51CE JUMP JUMPDEST DUP2 MSTORE PUSH1 0x40 MLOAD PUSH4 0x51FC7567 PUSH1 0xE1 SHL DUP2 MSTORE PUSH1 0x1 PUSH1 0x1 PUSH1 0xA0 SHL SUB DUP5 DUP2 AND PUSH1 0x4 DUP4 ADD MSTORE PUSH1 0x20 SWAP1 SWAP3 ADD SWAP2 DUP6 AND SWAP1 PUSH4 0xA3F8EACE SWAP1 PUSH1 0x24 ADD PUSH1 0x20 PUSH1 0x40 MLOAD DUP1 DUP4 SUB DUP2 DUP7 GAS STATICCALL ISZERO DUP1 ISZERO PUSH2 0x19B6 JUMPI RETURNDATASIZE PUSH0 PUSH0 RETURNDATACOPY RETURNDATASIZE PUSH0 REVERT JUMPDEST POP POP POP POP PUSH1 0x40 MLOAD RETURNDATASIZE PUSH1 0x1F NOT PUSH1 0x1F DUP3 ADD AND DUP3 ADD DUP1 PUSH1 0x40 MSTORE POP DUP2 ADD SWAP1 PUSH2 0x19DA SWAP2 SWAP1 PUSH2 0x51CE JUMP JUMPDEST DUP2 MSTORE PUSH1 0x40 MLOAD PUSH4 0x810EC23B PUSH1 0xE0 SHL DUP2 MSTORE PUSH1 0x1 PUSH1 0x1 PUSH1 0xA0 SHL SUB DUP5 DUP2 AND PUSH1 0x4 DUP4 ADD MSTORE PUSH1 0x1 PUSH1 0x1 PUSH1 0x40 SHL SUB TIMESTAMP AND PUSH1 0x24 DUP4 ADD MSTORE PUSH1 0x20 SWAP1 SWAP3 ADD SWAP2 DUP6 AND SWAP1 PUSH4 0x810EC23B SWAP1 PUSH1 0x44 ADD PUSH1 0x20 PUSH1 0x40 MLOAD DUP1 DUP4 SUB DUP2 DUP7 GAS STATICCALL ISZERO DUP1 ISZERO PUSH2 0x1A35 JUMPI RETURNDATASIZE PUSH0 PUSH0 RETURNDATACOPY RETURNDATASIZE PUSH0 REVERT JUMPDEST POP POP POP POP PUSH1 0x40 MLOAD RETURNDATASIZE PUSH1 0x1F NOT PUSH1 0x1F DUP3 ADD AND DUP3 ADD DUP1 PUSH1 0x40 MSTORE POP DUP2 ADD SWAP1 PUSH2 0x1A59 SWAP2 SWAP1 PUSH2 0x51CE JUMP JUMPDEST SWAP1 MSTORE SWAP4 POP DUP4 JUMPDEST POP POP POP POP SWAP2 SWAP1 POP JUMP JUMPDEST PUSH0 DUP2 PUSH2 0x1A7B JUMPI PUSH4 0x8F4EB604 PUSH0 MSTORE PUSH1 0x4 PUSH1 0x1C REVERT JUMPDEST PUSH8 0x3EC412A9852D173D PUSH1 0xC1 SHL PUSH1 0x1C MSTORE DUP2 PUSH0 MSTORE PUSH4 0xFFFFFFFF PUSH1 0x1C PUSH1 0xC KECCAK256 SLOAD AND SWAP1 POP SWAP2 SWAP1 POP JUMP JUMPDEST PUSH1 0xF SLOAD PUSH1 0x1 PUSH1 0x1 PUSH1 0xA0 SHL SUB AND CALLER EQ PUSH2 0x1ACB JUMPI PUSH1 0x40 MLOAD PUSH4 0x1634F9A3 PUSH1 0xE3 SHL DUP2 MSTORE PUSH1 0x4 ADD PUSH1 0x40 MLOAD DUP1 SWAP2 SUB SWAP1 REVERT JUMPDEST PUSH2 0xA9B PUSH2 0x3A09 JUMP JUMPDEST PUSH1 0x40 DUP1 MLOAD PUSH1 0xA0 DUP2 ADD DUP3 MSTORE PUSH0 DUP1 DUP3 MSTORE PUSH1 0x20 DUP3 ADD DUP2 SWAP1 MSTORE SWAP2 DUP2 ADD DUP3 SWAP1 MSTORE PUSH1 0x60 DUP2 ADD DUP3 SWAP1 MSTORE PUSH1 0x80 DUP2 ADD DUP3 SWAP1 MSTORE SWAP1 PUSH2 0x1B06 DUP4 PUSH2 0x309C JUMP JUMPDEST SWAP1 POP PUSH2 0x1B11 DUP2 PUSH2 0x30B6 JUMP JUMPDEST PUSH0 SWAP1 DUP2 MSTORE PUSH1 0x1A PUSH1 0x20 SWAP1 DUP2 MSTORE PUSH1 0x40 SWAP2 DUP3 SWAP1 KECCAK256 DUP3 MLOAD PUSH1 0xA0 DUP2 ADD DUP5 MSTORE DUP2 SLOAD DUP2 MSTORE PUSH1 0x1 SWAP1 SWAP2 ADD SLOAD PUSH1 0xFF DUP1 DUP3 AND ISZERO ISZERO SWAP4 DUP4 ADD SWAP4 SWAP1 SWAP4 MSTORE PUSH2 0x100 DUP2 DIV DUP4 AND ISZERO ISZERO SWAP4 DUP3 ADD SWAP4 SWAP1 SWAP4 MSTORE PUSH3 0x10000 DUP4 DIV SWAP1 SWAP2 AND ISZERO ISZERO PUSH1 0x60 DUP3 ADD MSTORE PUSH4 0x1000000 SWAP1 SWAP2 DIV PUSH1 0x1 PUSH1 0x1 PUSH1 0xA0 SHL SUB AND PUSH1 0x80 DUP3 ADD MSTORE SWAP3 SWAP2 POP POP JUMP JUMPDEST PUSH1 0x60 PUSH1 0x3 PUSH1 0x1 ADD DUP1 SLOAD PUSH2 0x939 SWAP1 PUSH2 0x5166 JUMP JUMPDEST DUP1 ISZERO ISZERO SWAP1 POP DUP2 PUSH1 0x1C MSTORE PUSH8 0xA5A2E7A00000000 PUSH1 0x8 MSTORE CALLER PUSH0 MSTORE DUP1 PUSH1 0x30 PUSH1 0xC KECCAK256 SSTORE DUP1 PUSH0 MSTORE DUP2 PUSH1 0x60 SHL PUSH1 0x60 SHR CALLER PUSH32 0x17307EAB39AB6107E8899845AD3D59BD9653F200F220920489CA2B5937696C31 PUSH1 0x20 PUSH0 LOG3 POP POP JUMP JUMPDEST PUSH0 DUP2 DUP2 MSTORE PUSH8 0x3EC412A9852D173D PUSH1 0xC1 SHL PUSH1 0x1C MSTORE PUSH1 0x20 DUP2 KECCAK256 DUP3 ADD DUP3 ADD SLOAD PUSH1 0x60 SHL PUSH2 0x1C1F JUMPI PUSH1 0x40 MLOAD PUSH4 0x677510DB PUSH1 0xE1 SHL DUP2 MSTORE PUSH1 0x4 ADD PUSH1 0x40 MLOAD DUP1 SWAP2 SUB SWAP1 REVERT JUMPDEST POP PUSH0 SWAP1 DUP2 MSTORE PUSH1 0x2 PUSH1 0x20 MSTORE PUSH1 0x40 SWAP1 KECCAK256 SLOAD PUSH1 0xFF AND SWAP1 JUMP JUMPDEST PUSH2 0x1C3F DUP6 DUP6 DUP6 PUSH2 0xD7D JUMP JUMPDEST DUP4 EXTCODESIZE ISZERO PUSH2 0x1C87 JUMPI PUSH2 0x1C87 DUP6 DUP6 DUP6 DUP6 DUP6 DUP1 DUP1 PUSH1 0x1F ADD PUSH1 0x20 DUP1 SWAP2 DIV MUL PUSH1 0x20 ADD PUSH1 0x40 MLOAD SWAP1 DUP2 ADD PUSH1 0x40 MSTORE DUP1 SWAP4 SWAP3 SWAP2 SWAP1 DUP2 DUP2 MSTORE PUSH1 0x20 ADD DUP4 DUP4 DUP1 DUP3 DUP5 CALLDATACOPY PUSH0 SWAP3 ADD SWAP2 SWAP1 SWAP2 MSTORE POP PUSH2 0x37F2 SWAP3 POP POP POP JUMP JUMPDEST POP POP POP POP POP JUMP JUMPDEST PUSH2 0x1C96 PUSH2 0x2646 JUMP JUMPDEST PUSH2 0x1C9E PUSH2 0x3A46 JUMP JUMPDEST PUSH2 0x1CA6 PUSH2 0x266A JUMP JUMPDEST PUSH0 PUSH2 0x1CB0 CALLER PUSH2 0x309C JUMP JUMPDEST ISZERO PUSH2 0x1CC9 JUMPI CALLER PUSH0 SWAP1 DUP2 MSTORE PUSH1 0x7 PUSH1 0x20 MSTORE PUSH1 0x40 SWAP1 KECCAK256 SLOAD PUSH2 0x1CD2 JUMP JUMPDEST PUSH2 0x1CD2 CALLER PUSH2 0x3A7A JUMP JUMPDEST SWAP1 POP PUSH2 0x1CDE DUP4 DUP4 PUSH2 0x3AB7 JUMP JUMPDEST PUSH0 DUP1 PUSH2 0x1CEC DUP7 DUP9 ADD DUP9 PUSH2 0x52F2 JUMP JUMPDEST SWAP2 POP SWAP2 POP PUSH2 0x1CF9 DUP2 PUSH2 0x3BAD JUMP JUMPDEST PUSH2 0x1D02 DUP9 PUSH2 0x3CFD JUMP JUMPDEST PUSH2 0x1D0B DUP4 PUSH2 0x30D6 JUMP JUMPDEST PUSH2 0x1D14 DUP4 PUSH2 0x3D23 JUMP JUMPDEST DUP8 PUSH1 0x13 PUSH0 ADD PUSH0 DUP3 DUP3 SLOAD PUSH2 0x1D27 SWAP2 SWAP1 PUSH2 0x533E JUMP JUMPDEST SWAP1 SWAP2 SSTORE POP POP PUSH0 DUP4 DUP2 MSTORE PUSH1 0x1A PUSH1 0x20 MSTORE PUSH1 0x40 DUP2 KECCAK256 DUP1 SLOAD DUP11 SWAP3 SWAP1 PUSH2 0x1D49 SWAP1 DUP5 SWAP1 PUSH2 0x533E JUMP JUMPDEST SWAP1 SWAP2 SSTORE POP POP PUSH1 0x40 DUP1 MLOAD DUP10 DUP2 MSTORE PUSH1 0x20 DUP2 ADD DUP5 SWAP1 MSTORE CALLER DUP2 DUP4 ADD MSTORE PUSH1 0x60 DUP2 ADD DUP6 SWAP1 MSTORE SWAP1 MLOAD PUSH32 0x547B5873575A93E4C1CD5E77469BD194B0DDC436C50DD0CAA426EFF405A65AA4 SWAP2 DUP2 SWAP1 SUB PUSH1 0x80 ADD SWAP1 LOG1 PUSH1 0xB SLOAD PUSH2 0x1DAC SWAP1 PUSH1 0x1 PUSH1 0x1 PUSH1 0xA0 SHL SUB AND CALLER ADDRESS DUP12 PUSH2 0x3D5C JUMP JUMPDEST POP POP POP POP POP POP POP POP JUMP JUMPDEST PUSH1 0x60 PUSH2 0x1DDF DUP3 PUSH0 DUP2 DUP2 MSTORE PUSH8 0x3EC412A9852D173D PUSH1 0xC1 SHL PUSH1 0x1C MSTORE PUSH1 0x20 SWAP1 KECCAK256 DUP2 ADD ADD SLOAD PUSH1 0x60 SHL ISZERO ISZERO SWAP1 JUMP JUMPDEST PUSH2 0x1E40 JUMPI PUSH1 0x40 MLOAD PUSH3 0x461BCD PUSH1 0xE5 SHL DUP2 MSTORE PUSH1 0x20 PUSH1 0x4 DUP3 ADD MSTORE PUSH1 0x27 PUSH1 0x24 DUP3 ADD MSTORE PUSH32 0x4552433732313A2055524920717565727920666F72206E6F6E6578697374656E PUSH1 0x44 DUP3 ADD MSTORE PUSH7 0x3A103A37B5B2B7 PUSH1 0xC9 SHL PUSH1 0x64 DUP3 ADD MSTORE PUSH1 0x84 ADD JUMPDEST PUSH1 0x40 MLOAD DUP1 SWAP2 SUB SWAP1 REVERT JUMPDEST PUSH0 PUSH1 0x3 PUSH1 0x2 ADD DUP1 SLOAD PUSH2 0x1E51 SWAP1 PUSH2 0x5166 JUMP JUMPDEST DUP1 PUSH1 0x1F ADD PUSH1 0x20 DUP1 SWAP2 DIV MUL PUSH1 0x20 ADD PUSH1 0x40 MLOAD SWAP1 DUP2 ADD PUSH1 0x40 MSTORE DUP1 SWAP3 SWAP2 SWAP1 DUP2 DUP2 MSTORE PUSH1 0x20 ADD DUP3 DUP1 SLOAD PUSH2 0x1E7D SWAP1 PUSH2 0x5166 JUMP JUMPDEST DUP1 ISZERO PUSH2 0x1EC8 JUMPI DUP1 PUSH1 0x1F LT PUSH2 0x1E9F JUMPI PUSH2 0x100 DUP1 DUP4 SLOAD DIV MUL DUP4 MSTORE SWAP2 PUSH1 0x20 ADD SWAP2 PUSH2 0x1EC8 JUMP JUMPDEST DUP3 ADD SWAP2 SWAP1 PUSH0 MSTORE PUSH1 0x20 PUSH0 KECCAK256 SWAP1 JUMPDEST DUP2 SLOAD DUP2 MSTORE SWAP1 PUSH1 0x1 ADD SWAP1 PUSH1 0x20 ADD DUP1 DUP4 GT PUSH2 0x1EAB JUMPI DUP3 SWAP1 SUB PUSH1 0x1F AND DUP3 ADD SWAP2 JUMPDEST POP POP POP POP POP SWAP1 POP PUSH0 DUP2 MLOAD GT PUSH2 0x1EEB JUMPI PUSH1 0x40 MLOAD DUP1 PUSH1 0x20 ADD PUSH1 0x40 MSTORE DUP1 PUSH0 DUP2 MSTORE POP PUSH2 0x1F16 JUMP JUMPDEST DUP1 PUSH2 0x1EF5 DUP5 PUSH2 0x3DB5 JUMP JUMPDEST PUSH1 0x40 MLOAD PUSH1 0x20 ADD PUSH2 0x1F06 SWAP3 SWAP2 SWAP1 PUSH2 0x5368 JUMP JUMPDEST PUSH1 0x40 MLOAD PUSH1 0x20 DUP2 DUP4 SUB SUB DUP2 MSTORE SWAP1 PUSH1 0x40 MSTORE JUMPDEST SWAP4 SWAP3 POP POP POP JUMP JUMPDEST PUSH1 0xD SLOAD PUSH1 0x1 PUSH1 0x1 PUSH1 0xA0 SHL SUB AND CALLER EQ PUSH2 0x1F48 JUMPI PUSH1 0x40 MLOAD PUSH4 0x1312F1F PUSH1 0xE1 SHL DUP2 MSTORE PUSH1 0x4 ADD PUSH1 0x40 MLOAD DUP1 SWAP2 SUB SWAP1 REVERT JUMPDEST PUSH2 0x1F50 PUSH2 0x2646 JUMP JUMPDEST PUSH2 0x1F58 PUSH2 0x266A JUMP JUMPDEST PUSH2 0x1F60 PUSH2 0x3E44 JUMP JUMPDEST PUSH2 0x1F69 DUP4 PUSH2 0x3E6D JUMP JUMPDEST PUSH1 0x19 DUP1 SLOAD PUSH2 0xFF00 NOT AND PUSH2 0x100 SWAP1 DUP2 OR SWAP1 SWAP2 SSTORE PUSH1 0x40 DUP1 MLOAD SWAP2 DUP3 ADD DUP2 MSTORE PUSH1 0x9 SLOAD PUSH1 0x1 PUSH1 0x1 PUSH1 0x40 SHL SUB DUP1 DUP3 AND DUP5 MSTORE PUSH1 0x1 PUSH1 0x40 SHL DUP3 DIV DUP2 AND PUSH1 0x20 DUP6 ADD MSTORE PUSH1 0x1 PUSH1 0x80 SHL DUP3 DIV AND SWAP2 DUP4 ADD SWAP2 SWAP1 SWAP2 MSTORE PUSH2 0xFFFF PUSH1 0x1 PUSH1 0xC0 SHL DUP3 DIV DUP2 AND PUSH1 0x60 DUP5 ADD MSTORE PUSH1 0x1 PUSH1 0xD0 SHL DUP3 DIV DUP2 AND PUSH1 0x80 DUP5 ADD DUP2 SWAP1 MSTORE PUSH1 0x1 PUSH1 0xE0 SHL DUP4 DIV DUP3 AND PUSH1 0xA0 DUP6 ADD MSTORE PUSH1 0x1 PUSH1 0xF0 SHL SWAP1 SWAP3 DIV AND PUSH1 0xC0 DUP4 ADD MSTORE PUSH1 0xA SLOAD PUSH1 0xE0 DUP4 ADD MSTORE PUSH0 SWAP1 PUSH2 0x2710 SWAP1 PUSH2 0x2007 SWAP1 DUP8 SWAP1 PUSH2 0x5265 JUMP JUMPDEST PUSH2 0x2011 SWAP2 SWAP1 PUSH2 0x527C JUMP JUMPDEST SWAP1 POP PUSH0 PUSH2 0x2710 PUSH2 0xFFFF AND DUP7 DUP5 PUSH1 0xC0 ADD MLOAD PUSH2 0xFFFF AND PUSH2 0x202F SWAP2 SWAP1 PUSH2 0x5265 JUMP JUMPDEST PUSH2 0x2039 SWAP2 SWAP1 PUSH2 0x527C JUMP JUMPDEST SWAP1 POP DUP2 DUP6 EQ PUSH2 0x2065 JUMPI PUSH1 0x40 MLOAD PUSH4 0x54DFF7E9 PUSH1 0xE0 SHL DUP2 MSTORE PUSH1 0x4 DUP2 ADD DUP7 SWAP1 MSTORE PUSH1 0x24 DUP2 ADD DUP4 SWAP1 MSTORE PUSH1 0x44 ADD PUSH2 0x1E37 JUMP JUMPDEST DUP1 DUP5 EQ PUSH2 0x208F JUMPI PUSH1 0x40 MLOAD PUSH4 0x54DFF7E9 PUSH1 0xE0 SHL DUP2 MSTORE PUSH1 0x4 DUP2 ADD DUP6 SWAP1 MSTORE PUSH1 0x24 DUP2 ADD DUP3 SWAP1 MSTORE PUSH1 0x44 ADD PUSH2 0x1E37 JUMP JUMPDEST PUSH1 0x40 DUP1 MLOAD DUP8 DUP2 MSTORE PUSH1 0x20 DUP2 ADD DUP8 SWAP1 MSTORE SWAP1 DUP2 ADD DUP6 SWAP1 MSTORE PUSH32 0xEB6ECFF67790F9432B928D86593A8EF9296B4F8562A4E1856E2B17372FA218FB SWAP1 PUSH1 0x60 ADD PUSH1 0x40 MLOAD DUP1 SWAP2 SUB SWAP1 LOG1 PUSH1 0x40 DUP1 MLOAD PUSH2 0x100 DUP2 ADD DUP3 MSTORE PUSH1 0xB SLOAD PUSH1 0x1 PUSH1 0x1 PUSH1 0xA0 SHL SUB SWAP1 DUP2 AND DUP3 MSTORE PUSH1 0xC SLOAD DUP2 AND PUSH1 0x20 DUP4 ADD DUP2 SWAP1 MSTORE PUSH1 0xD SLOAD DUP3 AND SWAP4 DUP4 ADD SWAP4 SWAP1 SWAP4 MSTORE PUSH1 0xE SLOAD DUP2 AND PUSH1 0x60 DUP4 ADD MSTORE PUSH1 0xF SLOAD DUP2 AND PUSH1 0x80 DUP4 ADD MSTORE PUSH1 0x10 SLOAD DUP2 AND PUSH1 0xA0 DUP4 ADD MSTORE PUSH1 0x11 SLOAD DUP2 AND PUSH1 0xC0 DUP4 ADD MSTORE PUSH1 0x12 SLOAD AND PUSH1 0xE0 DUP3 ADD MSTORE SWAP1 PUSH2 0x2141 SWAP1 CALLER ADDRESS DUP11 PUSH2 0x3D5C JUMP JUMPDEST DUP6 ISZERO PUSH2 0x215B JUMPI PUSH2 0x215B DUP2 PUSH1 0x20 ADD MLOAD CALLER DUP4 PUSH1 0xC0 ADD MLOAD DUP10 PUSH2 0x3D5C JUMP JUMPDEST DUP5 ISZERO PUSH2 0x2175 JUMPI PUSH2 0x2175 DUP2 PUSH1 0x20 ADD MLOAD CALLER DUP4 PUSH1 0xE0 ADD MLOAD DUP9 PUSH2 0x3D5C JUMP JUMPDEST POP POP POP POP POP POP POP JUMP JUMPDEST PUSH2 0x2186 PUSH2 0x2646 JUMP JUMPDEST PUSH2 0x218E PUSH2 0x266A JUMP JUMPDEST PUSH2 0x2196 PUSH2 0x268E JUMP JUMPDEST PUSH2 0x219E PUSH2 0x26CE JUMP JUMPDEST PUSH1 0x10 SLOAD PUSH2 0x21BB SWAP1 DUP7 SWAP1 DUP7 SWAP1 DUP7 SWAP1 PUSH1 0x1 PUSH1 0x1 PUSH1 0xA0 SHL SUB AND DUP7 DUP7 PUSH2 0x3EBB JUMP JUMPDEST PUSH2 0x21C4 DUP4 PUSH2 0x26EF JUMP JUMPDEST PUSH2 0x1C87 DUP6 DUP6 DUP6 PUSH2 0x2793 JUMP JUMPDEST PUSH1 0xF SLOAD PUSH1 0x1 PUSH1 0x1 PUSH1 0xA0 SHL SUB AND CALLER EQ PUSH2 0x21FA JUMPI PUSH1 0x40 MLOAD PUSH4 0x1634F9A3 PUSH1 0xE3 SHL DUP2 MSTORE PUSH1 0x4 ADD PUSH1 0x40 MLOAD DUP1 SWAP2 SUB SWAP1 REVERT JUMPDEST PUSH1 0x40 DUP1 MLOAD PUSH1 0x1 PUSH1 0x1 PUSH1 0xA0 SHL SUB DUP1 DUP7 AND DUP3 MSTORE DUP5 AND PUSH1 0x20 DUP3 ADD MSTORE SWAP1 DUP2 ADD DUP3 SWAP1 MSTORE PUSH32 0xF24EF89F38EADC1BDE50701AD6E4D6D11A2DC24F7CF834A486991F3883328504 SWAP1 PUSH1 0x60 ADD PUSH1 0x40 MLOAD DUP1 SWAP2 SUB SWAP1 LOG1 PUSH2 0xA54 DUP3 DUP5 DUP4 PUSH2 0x3270 JUMP JUMPDEST PUSH1 0xD SLOAD PUSH1 0x1 PUSH1 0x1 PUSH1 0xA0 SHL SUB AND CALLER EQ PUSH2 0x227B JUMPI PUSH1 0x40 MLOAD PUSH4 0x1312F1F PUSH1 0xE1 SHL DUP2 MSTORE PUSH1 0x4 ADD PUSH1 0x40 MLOAD DUP1 SWAP2 SUB SWAP1 REVERT JUMPDEST PUSH2 0x2283 PUSH2 0x2646 JUMP JUMPDEST PUSH2 0x228B PUSH2 0x3057 JUMP JUMPDEST PUSH2 0xA9B PUSH2 0x3F83 JUMP JUMPDEST PUSH1 0xD SLOAD PUSH1 0x1 PUSH1 0x1 PUSH1 0xA0 SHL SUB AND CALLER EQ PUSH2 0x22BE JUMPI PUSH1 0x40 MLOAD PUSH4 0x1312F1F PUSH1 0xE1 SHL DUP2 MSTORE PUSH1 0x4 ADD PUSH1 0x40 MLOAD DUP1 SWAP2 SUB SWAP1 REVERT JUMPDEST PUSH2 0x22C6 PUSH2 0x2646 JUMP JUMPDEST PUSH2 0x22CE PUSH2 0x268E JUMP JUMPDEST PUSH2 0x22D6 PUSH2 0x266A JUMP JUMPDEST PUSH2 0x22DE PUSH2 0x32BA JUMP JUMPDEST PUSH2 0x22E6 PUSH2 0x3FFD JUMP JUMPDEST PUSH2 0x22EE PUSH2 0x4025 JUMP JUMPDEST PUSH1 0x19 DUP1 SLOAD PUSH3 0xFF0000 NOT AND PUSH3 0x10000 OR SWAP1 SSTORE PUSH1 0x15 SLOAD PUSH1 0x16 DUP2 SWAP1 SSTORE PUSH1 0x40 DUP1 MLOAD PUSH2 0x100 DUP2 DUP2 ADD DUP4 MSTORE PUSH1 0xB SLOAD PUSH1 0x1 PUSH1 0x1 PUSH1 0xA0 SHL SUB SWAP1 DUP2 AND DUP4 MSTORE PUSH1 0xC SLOAD DUP2 AND PUSH1 0x20 DUP1 DUP6 ADD SWAP2 SWAP1 SWAP2 MSTORE PUSH1 0xD SLOAD DUP3 AND DUP5 DUP7 ADD MSTORE PUSH1 0xE SLOAD DUP3 AND PUSH1 0x60 DUP1 DUP7 ADD SWAP2 SWAP1 SWAP2 MSTORE PUSH1 0xF SLOAD DUP4 AND PUSH1 0x80 DUP1 DUP8 ADD SWAP2 SWAP1 SWAP2 MSTORE PUSH1 0x10 SLOAD DUP5 AND PUSH1 0xA0 DUP1 DUP9 ADD SWAP2 SWAP1 SWAP2 MSTORE PUSH1 0x11 SLOAD DUP6 AND PUSH1 0xC0 DUP1 DUP10 ADD SWAP2 SWAP1 SWAP2 MSTORE PUSH1 0x12 SLOAD SWAP1 SWAP6 AND PUSH1 0xE0 DUP1 DUP10 ADD SWAP2 SWAP1 SWAP2 MSTORE DUP9 MLOAD SWAP7 DUP8 ADD DUP10 MSTORE PUSH1 0x9 SLOAD PUSH1 0x1 PUSH1 0x1 PUSH1 0x40 SHL SUB DUP1 DUP3 AND DUP10 MSTORE PUSH1 0x1 PUSH1 0x40 SHL DUP3 DIV DUP2 AND SWAP7 DUP10 ADD SWAP7 SWAP1 SWAP7 MSTORE PUSH1 0x1 PUSH1 0x80 SHL DUP2 DIV SWAP1 SWAP6 AND SWAP9 DUP8 ADD SWAP9 SWAP1 SWAP9 MSTORE PUSH2 0xFFFF PUSH1 0x1 PUSH1 0xC0 SHL DUP6 DIV DUP2 AND SWAP4 DUP8 ADD DUP5 SWAP1 MSTORE PUSH1 0x1 PUSH1 0xD0 SHL DUP6 DIV DUP2 AND SWAP3 DUP8 ADD SWAP3 SWAP1 SWAP3 MSTORE PUSH1 0x1 PUSH1 0xE0 SHL DUP5 DIV DUP3 AND SWAP1 DUP7 ADD MSTORE PUSH1 0x1 PUSH1 0xF0 SHL SWAP1 SWAP3 DIV SWAP1 SWAP2 AND SWAP2 DUP4 ADD SWAP2 SWAP1 SWAP2 MSTORE PUSH1 0xA SLOAD SWAP4 DUP3 ADD SWAP4 SWAP1 SWAP4 MSTORE SWAP1 SWAP2 PUSH0 SWAP1 PUSH2 0x2710 SWAP1 PUSH2 0x2417 SWAP1 DUP7 SWAP1 PUSH2 0x5265 JUMP JUMPDEST PUSH2 0x2421 SWAP2 SWAP1 PUSH2 0x527C JUMP JUMPDEST SWAP1 POP PUSH0 PUSH2 0x2710 PUSH2 0xFFFF AND DUP6 DUP5 PUSH1 0xA0 ADD MLOAD PUSH2 0xFFFF AND PUSH2 0x243F SWAP2 SWAP1 PUSH2 0x5265 JUMP JUMPDEST PUSH2 0x2449 SWAP2 SWAP1 PUSH2 0x527C JUMP JUMPDEST SWAP1 POP PUSH32 0x3AE35A082057A5BE9E6D5F35595C7AF95C80661EBF74FDBB3790F6EF55C75E4F DUP6 PUSH1 0x40 MLOAD PUSH2 0x247C SWAP2 DUP2 MSTORE PUSH1 0x20 ADD SWAP1 JUMP JUMPDEST PUSH1 0x40 MLOAD DUP1 SWAP2 SUB SWAP1 LOG1 DUP4 MLOAD PUSH2 0x24A5 SWAP1 CALLER DUP4 PUSH2 0x2496 DUP7 DUP11 PUSH2 0x5252 JUMP JUMPDEST PUSH2 0x24A0 SWAP2 SWAP1 PUSH2 0x5252 JUMP JUMPDEST PUSH2 0x3270 JUMP JUMPDEST DUP2 ISZERO PUSH2 0x24BD JUMPI PUSH2 0x24BD DUP5 PUSH0 ADD MLOAD DUP6 PUSH1 0xC0 ADD MLOAD DUP5 PUSH2 0x3270 JUMP JUMPDEST DUP1 ISZERO PUSH2 0x1C87 JUMPI PUSH2 0x1C87 DUP5 PUSH0 ADD MLOAD DUP6 PUSH1 0xE0 ADD MLOAD DUP4 PUSH2 0x3270 JUMP JUMPDEST PUSH2 0x24DD PUSH2 0x2646 JUMP JUMPDEST PUSH2 0x24E5 PUSH2 0x40D0 JUMP JUMPDEST PUSH0 PUSH2 0x24EF CALLER PUSH2 0x309C JUMP JUMPDEST SWAP1 POP PUSH2 0x24FA DUP2 PUSH2 0x30B6 JUMP JUMPDEST PUSH2 0x2503 DUP2 PUSH2 0x30D6 JUMP JUMPDEST PUSH0 DUP2 DUP2 MSTORE PUSH1 0x1A PUSH1 0x20 MSTORE PUSH1 0x40 DUP2 KECCAK256 SLOAD SWAP1 DUP2 SWAP1 SUB PUSH2 0x2534 JUMPI PUSH1 0x40 MLOAD PUSH4 0x42FE4597 PUSH1 0xE0 SHL DUP2 MSTORE PUSH0 PUSH1 0x4 DUP3 ADD MSTORE PUSH1 0x24 ADD PUSH2 0x1E37 JUMP JUMPDEST PUSH0 DUP3 DUP2 MSTORE PUSH1 0x1A PUSH1 0x20 MSTORE PUSH1 0x40 DUP2 KECCAK256 DUP2 SWAP1 SSTORE PUSH1 0x13 DUP1 SLOAD DUP4 SWAP3 SWAP1 PUSH2 0x2556 SWAP1 DUP5 SWAP1 PUSH2 0x5252 JUMP JUMPDEST SWAP1 SWAP2 SSTORE POP POP PUSH1 0x40 DUP1 MLOAD DUP3 DUP2 MSTORE CALLER PUSH1 0x20 DUP3 ADD MSTORE PUSH32 0x3807F78213E07F1E91138875C27DB2A63ADF27577192E6D8617910FB3B755B13 SWAP2 ADD PUSH2 0x1615 JUMP JUMPDEST PUSH2 0x25DC PUSH1 0x40 MLOAD DUP1 PUSH2 0x120 ADD PUSH1 0x40 MSTORE DUP1 PUSH0 DUP2 MSTORE PUSH1 0x20 ADD PUSH0 DUP2 MSTORE PUSH1 0x20 ADD PUSH0 DUP2 MSTORE PUSH1 0x20 ADD PUSH0 DUP2 MSTORE PUSH1 0x20 ADD PUSH0 DUP2 MSTORE PUSH1 0x20 ADD PUSH0 DUP2 MSTORE PUSH1 0x20 ADD PUSH0 ISZERO ISZERO DUP2 MSTORE PUSH1 0x20 ADD PUSH0 ISZERO ISZERO DUP2 MSTORE PUSH1 0x20 ADD PUSH0 ISZERO ISZERO DUP2 MSTORE POP SWAP1 JUMP JUMPDEST POP PUSH1 0x40 DUP1 MLOAD PUSH2 0x120 DUP2 ADD DUP3 MSTORE PUSH1 0x13 SLOAD DUP2 MSTORE PUSH1 0x14 SLOAD PUSH1 0x20 DUP3 ADD MSTORE PUSH1 0x15 SLOAD SWAP2 DUP2 ADD SWAP2 SWAP1 SWAP2 MSTORE PUSH1 0x16 SLOAD PUSH1 0x60 DUP3 ADD MSTORE PUSH1 0x17 SLOAD PUSH1 0x80 DUP3 ADD MSTORE PUSH1 0x18 SLOAD PUSH1 0xA0 DUP3 ADD MSTORE PUSH1 0x19 SLOAD PUSH1 0xFF DUP1 DUP3 AND ISZERO ISZERO PUSH1 0xC0 DUP5 ADD MSTORE PUSH2 0x100 DUP1 DUP4 DIV DUP3 AND ISZERO ISZERO PUSH1 0xE0 DUP6 ADD MSTORE PUSH3 0x10000 SWAP1 SWAP3 DIV AND ISZERO ISZERO SWAP1 DUP3 ADD MSTORE SWAP1 JUMP JUMPDEST PUSH1 0x8 SLOAD PUSH1 0xFF AND ISZERO PUSH2 0xA9B JUMPI PUSH1 0x40 MLOAD PUSH4 0xD93C0665 PUSH1 0xE0 SHL DUP2 MSTORE PUSH1 0x4 ADD PUSH1 0x40 MLOAD DUP1 SWAP2 SUB SWAP1 REVERT JUMPDEST PUSH1 0x19 SLOAD PUSH1 0xFF AND ISZERO PUSH2 0xA9B JUMPI PUSH1 0x40 MLOAD PUSH4 0x26C4177D PUSH1 0xE0 SHL DUP2 MSTORE PUSH1 0x4 ADD PUSH1 0x40 MLOAD DUP1 SWAP2 SUB SWAP1 REVERT JUMPDEST PUSH1 0x9 SLOAD PUSH1 0x1 PUSH1 0x80 SHL SWAP1 DIV PUSH1 0x1 PUSH1 0x1 PUSH1 0x40 SHL SUB AND TIMESTAMP DUP2 GT ISZERO PUSH2 0x26CB JUMPI PUSH1 0x40 MLOAD PUSH4 0xA0E0999 PUSH1 0xE0 SHL DUP2 MSTORE TIMESTAMP PUSH1 0x4 DUP3 ADD MSTORE PUSH1 0x24 DUP2 ADD DUP3 SWAP1 MSTORE PUSH1 0x44 ADD PUSH2 0x1E37 JUMP JUMPDEST POP JUMP JUMPDEST PUSH1 0x14 SLOAD ISZERO PUSH2 0xA9B JUMPI PUSH1 0x40 MLOAD PUSH4 0x1E557C25 PUSH1 0xE2 SHL DUP2 MSTORE PUSH1 0x4 ADD PUSH1 0x40 MLOAD DUP1 SWAP2 SUB SWAP1 REVERT JUMPDEST PUSH0 DUP2 DUP2 MSTORE PUSH1 0x1A PUSH1 0x20 SWAP1 DUP2 MSTORE PUSH1 0x40 SWAP2 DUP3 SWAP1 KECCAK256 DUP3 MLOAD PUSH1 0xA0 DUP2 ADD DUP5 MSTORE DUP2 SLOAD DUP2 MSTORE PUSH1 0x1 SWAP1 SWAP2 ADD SLOAD PUSH1 0xFF DUP1 DUP3 AND ISZERO ISZERO SWAP4 DUP4 ADD SWAP4 SWAP1 SWAP4 MSTORE PUSH2 0x100 DUP2 DIV DUP4 AND ISZERO ISZERO SWAP4 DUP3 ADD SWAP4 SWAP1 SWAP4 MSTORE PUSH3 0x10000 DUP4 DIV SWAP1 SWAP2 AND ISZERO ISZERO PUSH1 0x60 DUP3 ADD DUP2 SWAP1 MSTORE PUSH4 0x1000000 SWAP1 SWAP3 DIV PUSH1 0x1 PUSH1 0x1 PUSH1 0xA0 SHL SUB AND PUSH1 0x80 DUP3 ADD MSTORE SWAP1 DUP1 PUSH2 0x2765 JUMPI POP DUP1 PUSH1 0x20 ADD MLOAD JUMPDEST DUP1 PUSH2 0x2772 JUMPI POP DUP1 PUSH1 0x40 ADD MLOAD ISZERO JUMPDEST ISZERO PUSH2 0xA64 JUMPI PUSH1 0x40 MLOAD PUSH4 0x141664FF PUSH1 0xE2 SHL DUP2 MSTORE PUSH1 0x4 DUP2 ADD DUP4 SWAP1 MSTORE PUSH1 0x24 ADD PUSH2 0x1E37 JUMP JUMPDEST PUSH1 0x1 PUSH1 0x1 PUSH1 0xA0 SHL SUB DUP3 AND PUSH0 SWAP1 DUP2 MSTORE PUSH1 0x7 PUSH1 0x20 MSTORE PUSH1 0x40 SWAP1 KECCAK256 SLOAD DUP1 ISZERO PUSH2 0x28B5 JUMPI PUSH0 DUP3 DUP2 MSTORE PUSH1 0x1A PUSH1 0x20 DUP2 DUP2 MSTORE PUSH1 0x40 DUP1 DUP5 KECCAK256 DUP2 MLOAD PUSH1 0xA0 DUP2 ADD DUP4 MSTORE DUP2 SLOAD DUP2 MSTORE PUSH1 0x1 SWAP2 DUP3 ADD SLOAD PUSH1 0xFF DUP1 DUP3 AND ISZERO ISZERO DUP4 DUP8 ADD MSTORE PUSH2 0x100 DUP3 DIV DUP2 AND ISZERO ISZERO DUP4 DUP7 ADD MSTORE PUSH3 0x10000 DUP1 DUP4 DIV DUP3 AND ISZERO ISZERO PUSH1 0x60 DUP6 ADD MSTORE PUSH4 0x1000000 SWAP1 SWAP3 DIV PUSH1 0x1 PUSH1 0x1 PUSH1 0xA0 SHL SUB AND PUSH1 0x80 DUP5 ADD MSTORE DUP9 DUP9 MSTORE SWAP6 SWAP1 SWAP5 MSTORE SWAP2 SWAP1 SWAP5 KECCAK256 SWAP4 DUP5 ADD SLOAD SWAP1 SWAP4 SWAP3 SWAP2 SWAP1 DIV AND DUP1 PUSH2 0x2836 JUMPI POP PUSH1 0x1 DUP2 ADD SLOAD PUSH1 0xFF AND JUMPDEST DUP1 PUSH2 0x284B JUMPI POP PUSH1 0x1 DUP2 ADD SLOAD PUSH2 0x100 SWAP1 DIV PUSH1 0xFF AND ISZERO JUMPDEST ISZERO PUSH2 0x286C JUMPI PUSH1 0x40 MLOAD PUSH4 0xA1504F3B PUSH1 0xE0 SHL DUP2 MSTORE PUSH1 0x4 DUP2 ADD DUP5 SWAP1 MSTORE PUSH1 0x24 ADD PUSH2 0x1E37 JUMP JUMPDEST DUP2 MLOAD DUP2 SLOAD DUP3 SWAP1 PUSH0 SWAP1 PUSH2 0x287F SWAP1 DUP5 SWAP1 PUSH2 0x533E JUMP JUMPDEST SWAP1 SWAP2 SSTORE POP POP PUSH0 DUP5 DUP2 MSTORE PUSH1 0x1A PUSH1 0x20 MSTORE PUSH1 0x40 DUP2 KECCAK256 SWAP1 DUP2 SSTORE PUSH1 0x1 ADD DUP1 SLOAD PUSH1 0x1 PUSH1 0x1 PUSH1 0xB8 SHL SUB NOT AND SWAP1 SSTORE PUSH2 0x28AE DUP7 PUSH2 0x40F3 JUMP JUMPDEST POP POP PUSH2 0xFE2 JUMP JUMPDEST PUSH2 0xFE2 DUP5 DUP5 DUP5 PUSH2 0x412E JUMP JUMPDEST PUSH0 NOT PUSH1 0x60 SHR DUP3 DUP2 AND SWAP3 POP DUP4 DUP2 AND SWAP4 POP DUP2 PUSH0 MSTORE DUP4 PUSH8 0x3EC412A9852D173D PUSH1 0xC1 SHL OR PUSH1 0x1C MSTORE PUSH1 0x20 PUSH0 KECCAK256 DUP3 ADD DUP3 ADD DUP1 SLOAD DUP3 AND SWAP2 POP DUP2 PUSH2 0x2903 JUMPI PUSH4 0xCEEA21B6 PUSH0 MSTORE PUSH1 0x4 PUSH1 0x1C REVERT JUMPDEST DUP2 DUP6 EQ DUP6 ISZERO OR PUSH2 0x2927 JUMPI DUP2 PUSH0 MSTORE PUSH1 0x30 PUSH1 0xC KECCAK256 SLOAD PUSH2 0x2927 JUMPI PUSH4 0x4B6E7F18 PUSH0 MSTORE PUSH1 0x4 PUSH1 0x1C REVERT JUMPDEST PUSH1 0x1 ADD DUP4 SWAP1 SSTORE DUP2 DUP4 DUP3 PUSH32 0x8C5BE1E5EBEC7D5BD14F71427D1E84F3DD0314C0F7B2291E5B200AC8C7C3B925 PUSH0 CODESIZE LOG4 POP POP POP POP JUMP JUMPDEST PUSH1 0xE SLOAD PUSH1 0x40 MLOAD PUSH4 0x970559CF PUSH1 0xE0 SHL DUP2 MSTORE PUSH14 0x2622A3A4A7A72FA127AAA721A2A9 PUSH1 0x91 SHL PUSH1 0x4 DUP3 ADD MSTORE PUSH1 0x1 PUSH1 0x1 PUSH1 0xA0 SHL SUB SWAP1 SWAP2 AND SWAP1 PUSH4 0x970559CF SWAP1 PUSH1 0x24 ADD PUSH1 0x20 PUSH1 0x40 MLOAD DUP1 DUP4 SUB DUP2 DUP7 GAS STATICCALL ISZERO DUP1 ISZERO PUSH2 0x29B1 JUMPI RETURNDATASIZE PUSH0 PUSH0 RETURNDATACOPY RETURNDATASIZE PUSH0 REVERT JUMPDEST POP POP POP POP PUSH1 0x40 MLOAD RETURNDATASIZE PUSH1 0x1F NOT PUSH1 0x1F DUP3 ADD AND DUP3 ADD DUP1 PUSH1 0x40 MSTORE POP DUP2 ADD SWAP1 PUSH2 0x29D5 SWAP2 SWAP1 PUSH2 0x5384 JUMP JUMPDEST PUSH1 0xF DUP1 SLOAD PUSH1 0x1 PUSH1 0x1 PUSH1 0xA0 SHL SUB NOT AND PUSH1 0x1 PUSH1 0x1 PUSH1 0xA0 SHL SUB SWAP3 DUP4 AND OR SWAP1 SSTORE PUSH1 0xE SLOAD PUSH1 0x40 MLOAD PUSH4 0x970559CF PUSH1 0xE0 SHL DUP2 MSTORE PUSH13 0x2622A3A4A7A72FA9A4A3A722A9 PUSH1 0x99 SHL PUSH1 0x4 DUP3 ADD MSTORE SWAP2 AND SWAP1 PUSH4 0x970559CF SWAP1 PUSH1 0x24 ADD PUSH1 0x20 PUSH1 0x40 MLOAD DUP1 DUP4 SUB DUP2 DUP7 GAS STATICCALL ISZERO DUP1 ISZERO PUSH2 0x2A3E JUMPI RETURNDATASIZE PUSH0 PUSH0 RETURNDATACOPY RETURNDATASIZE PUSH0 REVERT JUMPDEST POP POP POP POP PUSH1 0x40 MLOAD RETURNDATASIZE PUSH1 0x1F NOT PUSH1 0x1F DUP3 ADD AND DUP3 ADD DUP1 PUSH1 0x40 MSTORE POP DUP2 ADD SWAP1 PUSH2 0x2A62 SWAP2 SWAP1 PUSH2 0x5384 JUMP JUMPDEST PUSH1 0x10 DUP1 SLOAD PUSH1 0x1 PUSH1 0x1 PUSH1 0xA0 SHL SUB NOT AND PUSH1 0x1 PUSH1 0x1 PUSH1 0xA0 SHL SUB SWAP3 DUP4 AND OR SWAP1 SSTORE PUSH1 0xE SLOAD PUSH1 0x40 MLOAD PUSH4 0x970559CF PUSH1 0xE0 SHL DUP2 MSTORE PUSH19 0x2622A3A4A7A72FA322A2AFA922A1A2A4AB22A9 PUSH1 0x69 SHL PUSH1 0x4 DUP3 ADD MSTORE SWAP2 AND SWAP1 PUSH4 0x970559CF SWAP1 PUSH1 0x24 ADD PUSH1 0x20 PUSH1 0x40 MLOAD DUP1 DUP4 SUB DUP2 DUP7 GAS STATICCALL ISZERO DUP1 ISZERO PUSH2 0x2AD1 JUMPI RETURNDATASIZE PUSH0 PUSH0 RETURNDATACOPY RETURNDATASIZE PUSH0 REVERT JUMPDEST POP POP POP POP PUSH1 0x40 MLOAD RETURNDATASIZE PUSH1 0x1F NOT PUSH1 0x1F DUP3 ADD AND DUP3 ADD DUP1 PUSH1 0x40 MSTORE POP DUP2 ADD SWAP1 PUSH2 0x2AF5 SWAP2 SWAP1 PUSH2 0x5384 JUMP JUMPDEST PUSH1 0x11 DUP1 SLOAD PUSH1 0x1 PUSH1 0x1 PUSH1 0xA0 SHL SUB NOT AND PUSH1 0x1 PUSH1 0x1 PUSH1 0xA0 SHL SUB SWAP3 DUP4 AND OR SWAP1 SSTORE PUSH1 0xE SLOAD PUSH1 0x40 MLOAD PUSH4 0x970559CF PUSH1 0xE0 SHL DUP2 MSTORE PUSH22 0x4C4547494F4E5F56455354494E475F464143544F5259 PUSH1 0x50 SHL PUSH1 0x4 DUP3 ADD MSTORE SWAP2 AND SWAP1 PUSH4 0x970559CF SWAP1 PUSH1 0x24 ADD PUSH1 0x20 PUSH1 0x40 MLOAD DUP1 DUP4 SUB DUP2 DUP7 GAS STATICCALL ISZERO DUP1 ISZERO PUSH2 0x2B67 JUMPI RETURNDATASIZE PUSH0 PUSH0 RETURNDATACOPY RETURNDATASIZE PUSH0 REVERT JUMPDEST POP POP POP POP PUSH1 0x40 MLOAD RETURNDATASIZE PUSH1 0x1F NOT PUSH1 0x1F DUP3 ADD AND DUP3 ADD DUP1 PUSH1 0x40 MSTORE POP DUP2 ADD SWAP1 PUSH2 0x2B8B SWAP2 SWAP1 PUSH2 0x5384 JUMP JUMPDEST PUSH0 DUP1 SLOAD PUSH1 0x1 PUSH1 0x1 PUSH1 0xA0 SHL SUB NOT AND PUSH1 0x1 PUSH1 0x1 PUSH1 0xA0 SHL SUB SWAP3 DUP4 AND OR SWAP1 SSTORE PUSH1 0xE SLOAD PUSH1 0x40 MLOAD PUSH4 0x970559CF PUSH1 0xE0 SHL DUP2 MSTORE PUSH32 0x4C4547494F4E5F56455354494E475F434F4E54524F4C4C455200000000000000 PUSH1 0x4 DUP3 ADD MSTORE SWAP2 AND SWAP1 PUSH4 0x970559CF SWAP1 PUSH1 0x24 ADD PUSH1 0x20 PUSH1 0x40 MLOAD DUP1 DUP4 SUB DUP2 DUP7 GAS STATICCALL ISZERO DUP1 ISZERO PUSH2 0x2C03 JUMPI RETURNDATASIZE PUSH0 PUSH0 RETURNDATACOPY RETURNDATASIZE PUSH0 REVERT JUMPDEST POP POP POP POP PUSH1 0x40 MLOAD RETURNDATASIZE PUSH1 0x1F NOT PUSH1 0x1F DUP3 ADD AND DUP3 ADD DUP1 PUSH1 0x40 MSTORE POP DUP2 ADD SWAP1 PUSH2 0x2C27 SWAP2 SWAP1 PUSH2 0x5384 JUMP JUMPDEST PUSH1 0x1 DUP1 SLOAD PUSH1 0x1 PUSH1 0x1 PUSH1 0xA0 SHL SUB NOT AND PUSH1 0x1 PUSH1 0x1 PUSH1 0xA0 SHL SUB SWAP3 DUP4 AND SWAP1 DUP2 OR SWAP1 SWAP2 SSTORE PUSH1 0xF SLOAD PUSH1 0x10 SLOAD PUSH1 0x11 SLOAD PUSH0 SLOAD PUSH1 0x40 DUP1 MLOAD SWAP5 DUP8 AND DUP6 MSTORE SWAP3 DUP7 AND PUSH1 0x20 DUP6 ADD MSTORE SWAP1 DUP6 AND SWAP2 DUP4 ADD SWAP2 SWAP1 SWAP2 MSTORE SWAP1 SWAP3 AND PUSH1 0x60 DUP4 ADD MSTORE PUSH1 0x80 DUP3 ADD MSTORE PUSH32 0x4B02015C8D0E47CC44A723BC061ABDFA651FEFC86F2AC5387E9F992F732B3528 SWAP1 PUSH1 0xA0 ADD JUMPDEST PUSH1 0x40 MLOAD DUP1 SWAP2 SUB SWAP1 LOG1 JUMP JUMPDEST PUSH1 0x1E SLOAD PUSH0 SUB PUSH2 0xA9B JUMPI PUSH1 0x40 MLOAD PUSH4 0xF84F4F2D PUSH1 0xE0 SHL DUP2 MSTORE PUSH1 0x4 ADD PUSH1 0x40 MLOAD DUP1 SWAP2 SUB SWAP1 REVERT JUMPDEST PUSH1 0x40 MLOAD PUSH4 0x7A5E5459 PUSH1 0xE1 SHL DUP2 MSTORE DUP2 CALLDATALOAD PUSH1 0x4 DUP3 ADD MSTORE PUSH1 0x20 DUP3 ADD CALLDATALOAD PUSH1 0x24 DUP3 ADD MSTORE PUSH20 0x0 SWAP1 PUSH4 0xF4BCA8B2 SWAP1 PUSH1 0x44 ADD PUSH1 0x20 PUSH1 0x40 MLOAD DUP1 DUP4 SUB DUP2 DUP7 GAS DELEGATECALL ISZERO DUP1 ISZERO PUSH2 0x2D23 JUMPI RETURNDATASIZE PUSH0 PUSH0 RETURNDATACOPY RETURNDATASIZE PUSH0 REVERT JUMPDEST POP POP POP POP PUSH1 0x40 MLOAD RETURNDATASIZE PUSH1 0x1F NOT PUSH1 0x1F DUP3 ADD AND DUP3 ADD DUP1 PUSH1 0x40 MSTORE POP DUP2 ADD SWAP1 PUSH2 0x2D47 SWAP2 SWAP1 PUSH2 0x539F JUMP JUMPDEST PUSH2 0x26CB JUMPI PUSH1 0x40 MLOAD PUSH4 0x2E97F799 PUSH1 0xE2 SHL DUP2 MSTORE PUSH1 0x4 ADD PUSH1 0x40 MLOAD DUP1 SWAP2 SUB SWAP1 REVERT JUMPDEST PUSH2 0x2D6C PUSH2 0x4143 JUMP JUMPDEST PUSH2 0x2D75 DUP2 PUSH2 0x415F JUMP JUMPDEST PUSH2 0x2D85 PUSH1 0x60 DUP3 ADD PUSH1 0x40 DUP4 ADD PUSH2 0x53BA JUMP JUMPDEST PUSH1 0x9 DUP1 SLOAD PUSH2 0xFFFF SWAP3 SWAP1 SWAP3 AND PUSH1 0x1 PUSH1 0xC0 SHL MUL PUSH2 0xFFFF PUSH1 0xC0 SHL NOT SWAP1 SWAP3 AND SWAP2 SWAP1 SWAP2 OR SWAP1 SSTORE PUSH2 0x2DB6 PUSH1 0x80 DUP3 ADD PUSH1 0x60 DUP4 ADD PUSH2 0x53BA JUMP JUMPDEST PUSH1 0x9 DUP1 SLOAD PUSH2 0xFFFF SWAP3 SWAP1 SWAP3 AND PUSH1 0x1 PUSH1 0xD0 SHL MUL PUSH2 0xFFFF PUSH1 0xD0 SHL NOT SWAP1 SWAP3 AND SWAP2 SWAP1 SWAP2 OR SWAP1 SSTORE PUSH2 0x2DE7 PUSH1 0xA0 DUP3 ADD PUSH1 0x80 DUP4 ADD PUSH2 0x53BA JUMP JUMPDEST PUSH1 0x9 DUP1 SLOAD PUSH2 0xFFFF SWAP3 SWAP1 SWAP3 AND PUSH1 0x1 PUSH1 0xE0 SHL MUL PUSH2 0xFFFF PUSH1 0xE0 SHL NOT SWAP1 SWAP3 AND SWAP2 SWAP1 SWAP2 OR SWAP1 SSTORE PUSH2 0x2E18 PUSH1 0xC0 DUP3 ADD PUSH1 0xA0 DUP4 ADD PUSH2 0x53BA JUMP JUMPDEST PUSH1 0x9 DUP1 SLOAD PUSH2 0xFFFF SWAP3 SWAP1 SWAP3 AND PUSH1 0x1 PUSH1 0xF0 SHL MUL PUSH1 0x1 PUSH1 0x1 PUSH1 0xF0 SHL SUB SWAP1 SWAP3 AND SWAP2 SWAP1 SWAP2 OR SWAP1 SSTORE PUSH1 0xC0 DUP2 ADD CALLDATALOAD PUSH1 0xA SSTORE PUSH2 0x2E53 PUSH2 0x100 DUP3 ADD PUSH1 0xE0 DUP4 ADD PUSH2 0x4EA6 JUMP JUMPDEST PUSH1 0xB DUP1 SLOAD PUSH1 0x1 PUSH1 0x1 PUSH1 0xA0 SHL SUB NOT AND PUSH1 0x1 PUSH1 0x1 PUSH1 0xA0 SHL SUB SWAP3 SWAP1 SWAP3 AND SWAP2 SWAP1 SWAP2 OR SWAP1 SSTORE PUSH2 0x2E85 PUSH2 0x120 DUP3 ADD PUSH2 0x100 DUP4 ADD PUSH2 0x4EA6 JUMP JUMPDEST PUSH1 0xC DUP1 SLOAD PUSH1 0x1 PUSH1 0x1 PUSH1 0xA0 SHL SUB NOT AND PUSH1 0x1 PUSH1 0x1 PUSH1 0xA0 SHL SUB SWAP3 SWAP1 SWAP3 AND SWAP2 SWAP1 SWAP2 OR SWAP1 SSTORE PUSH2 0x2EB7 PUSH2 0x140 DUP3 ADD PUSH2 0x120 DUP4 ADD PUSH2 0x4EA6 JUMP JUMPDEST PUSH1 0xD DUP1 SLOAD PUSH1 0x1 PUSH1 0x1 PUSH1 0xA0 SHL SUB NOT AND PUSH1 0x1 PUSH1 0x1 PUSH1 0xA0 SHL SUB SWAP3 SWAP1 SWAP3 AND SWAP2 SWAP1 SWAP2 OR SWAP1 SSTORE PUSH2 0x2EE9 PUSH2 0x160 DUP3 ADD PUSH2 0x140 DUP4 ADD PUSH2 0x4EA6 JUMP JUMPDEST PUSH1 0xE DUP1 SLOAD PUSH1 0x1 PUSH1 0x1 PUSH1 0xA0 SHL SUB NOT AND PUSH1 0x1 PUSH1 0x1 PUSH1 0xA0 SHL SUB SWAP3 SWAP1 SWAP3 AND SWAP2 SWAP1 SWAP2 OR SWAP1 SSTORE PUSH2 0x2F1B PUSH2 0x180 DUP3 ADD PUSH2 0x160 DUP4 ADD PUSH2 0x4EA6 JUMP JUMPDEST PUSH1 0x12 DUP1 SLOAD PUSH1 0x1 PUSH1 0x1 PUSH1 0xA0 SHL SUB NOT AND PUSH1 0x1 PUSH1 0x1 PUSH1 0xA0 SHL SUB SWAP3 SWAP1 SWAP3 AND SWAP2 SWAP1 SWAP2 OR SWAP1 SSTORE PUSH2 0x2F49 PUSH2 0x180 DUP3 ADD DUP3 PUSH2 0x53DB JUMP JUMPDEST PUSH1 0x3 SWAP2 PUSH2 0x2F57 SWAP2 SWAP1 DUP4 PUSH2 0x5461 JUMP JUMPDEST POP PUSH2 0x2F66 PUSH2 0x1A0 DUP3 ADD DUP3 PUSH2 0x53DB JUMP JUMPDEST PUSH1 0x4 SWAP2 PUSH2 0x2F74 SWAP2 SWAP1 DUP4 PUSH2 0x5461 JUMP JUMPDEST POP PUSH2 0x2F83 PUSH2 0x1C0 DUP3 ADD DUP3 PUSH2 0x53DB JUMP JUMPDEST PUSH1 0x5 SWAP2 PUSH2 0x2F91 SWAP2 SWAP1 DUP4 PUSH2 0x5461 JUMP JUMPDEST POP PUSH2 0x26CB PUSH2 0x295A JUMP JUMPDEST PUSH0 DUP2 DUP2 MSTORE PUSH1 0x2 PUSH1 0x20 MSTORE PUSH1 0x40 SWAP1 KECCAK256 SLOAD PUSH1 0xFF AND ISZERO PUSH2 0x2FCC JUMPI PUSH1 0x40 MLOAD PUSH4 0x3EAA5A65 PUSH1 0xE2 SHL DUP2 MSTORE PUSH1 0x4 DUP2 ADD DUP3 SWAP1 MSTORE PUSH1 0x24 ADD PUSH2 0x1E37 JUMP JUMPDEST DUP2 PUSH1 0x1 PUSH1 0x1 PUSH1 0xA0 SHL SUB AND DUP4 PUSH1 0x1 PUSH1 0x1 PUSH1 0xA0 SHL SUB AND SUB PUSH2 0xA54 JUMPI PUSH1 0x40 MLOAD PUSH4 0xA9F93FB9 PUSH1 0xE0 SHL DUP2 MSTORE PUSH1 0x4 DUP2 ADD DUP3 SWAP1 MSTORE PUSH1 0x24 ADD PUSH2 0x1E37 JUMP JUMPDEST PUSH1 0x1 PUSH1 0x1 PUSH1 0xA0 SHL SUB DUP4 AND ISZERO DUP1 ISZERO SWAP1 PUSH2 0x3021 JUMPI POP PUSH1 0x1 PUSH1 0x1 PUSH1 0xA0 SHL SUB DUP3 AND ISZERO ISZERO JUMPDEST ISZERO PUSH2 0x304C JUMPI PUSH1 0x1 PUSH1 0x1 PUSH1 0xA0 SHL SUB DUP1 DUP5 AND PUSH0 SWAP1 DUP2 MSTORE PUSH1 0x7 PUSH1 0x20 MSTORE PUSH1 0x40 DUP1 DUP3 KECCAK256 DUP3 SWAP1 SSTORE SWAP2 DUP5 AND DUP2 MSTORE KECCAK256 DUP2 SWAP1 SSTORE JUMPDEST PUSH2 0xA54 DUP4 DUP4 DUP4 PUSH2 0x4339 JUMP JUMPDEST PUSH1 0x1B SLOAD PUSH1 0xFF AND ISZERO PUSH2 0xA9B JUMPI PUSH1 0x40 MLOAD PUSH4 0x44C3BF17 PUSH1 0xE0 SHL DUP2 MSTORE PUSH1 0x4 ADD PUSH1 0x40 MLOAD DUP1 SWAP2 SUB SWAP1 REVERT JUMPDEST PUSH1 0x14 SLOAD ISZERO PUSH2 0xA9B JUMPI PUSH1 0x40 MLOAD PUSH4 0x7AA79E0B PUSH1 0xE1 SHL DUP2 MSTORE PUSH1 0x4 ADD PUSH1 0x40 MLOAD DUP1 SWAP2 SUB SWAP1 REVERT JUMPDEST PUSH1 0x1 PUSH1 0x1 PUSH1 0xA0 SHL SUB AND PUSH0 SWAP1 DUP2 MSTORE PUSH1 0x7 PUSH1 0x20 MSTORE PUSH1 0x40 SWAP1 KECCAK256 SLOAD SWAP1 JUMP JUMPDEST DUP1 PUSH0 SUB PUSH2 0x26CB JUMPI PUSH1 0x40 MLOAD PUSH4 0x60D1E17 PUSH1 0xE1 SHL DUP2 MSTORE PUSH1 0x4 ADD PUSH1 0x40 MLOAD DUP1 SWAP2 SUB SWAP1 REVERT JUMPDEST PUSH0 DUP2 DUP2 MSTORE PUSH1 0x1A PUSH1 0x20 MSTORE PUSH1 0x40 SWAP1 KECCAK256 PUSH1 0x1 ADD SLOAD PUSH3 0x10000 SWAP1 DIV PUSH1 0xFF AND ISZERO PUSH2 0x26CB JUMPI PUSH1 0x40 MLOAD PUSH4 0x29A96BB PUSH1 0xE0 SHL DUP2 MSTORE CALLER PUSH1 0x4 DUP3 ADD MSTORE PUSH1 0x24 ADD PUSH2 0x1E37 JUMP JUMPDEST PUSH0 DUP5 DUP2 MSTORE PUSH1 0x1A PUSH1 0x20 SWAP1 DUP2 MSTORE PUSH1 0x40 SWAP2 DUP3 SWAP1 KECCAK256 DUP3 MLOAD PUSH1 0xA0 DUP2 ADD DUP5 MSTORE DUP2 SLOAD DUP2 MSTORE PUSH1 0x1 SWAP1 SWAP2 ADD SLOAD PUSH1 0xFF DUP1 DUP3 AND ISZERO ISZERO SWAP4 DUP4 ADD SWAP4 SWAP1 SWAP4 MSTORE PUSH2 0x100 DUP2 DIV DUP4 AND ISZERO DUP1 ISZERO SWAP5 DUP4 ADD SWAP5 SWAP1 SWAP5 MSTORE PUSH3 0x10000 DUP2 DIV SWAP1 SWAP3 AND ISZERO ISZERO PUSH1 0x60 DUP3 ADD MSTORE PUSH4 0x1000000 SWAP1 SWAP2 DIV PUSH1 0x1 PUSH1 0x1 PUSH1 0xA0 SHL SUB AND PUSH1 0x80 DUP3 ADD MSTORE SWAP1 PUSH2 0x31A1 JUMPI PUSH1 0x40 MLOAD PUSH4 0x3F0BF7D PUSH1 0xE2 SHL DUP2 MSTORE PUSH1 0x1 PUSH1 0x1 PUSH1 0xA0 SHL SUB DUP8 AND PUSH1 0x4 DUP3 ADD MSTORE PUSH1 0x24 ADD PUSH2 0x1E37 JUMP JUMPDEST PUSH0 DUP7 DUP6 DUP4 PUSH0 ADD MLOAD PUSH2 0x31B2 SWAP2 SWAP1 PUSH2 0x5252 JUMP JUMPDEST PUSH1 0x40 DUP1 MLOAD PUSH1 0x1 PUSH1 0x1 PUSH1 0xA0 SHL SUB SWAP1 SWAP4 AND PUSH1 0x20 DUP5 ADD MSTORE DUP3 ADD MSTORE PUSH1 0x60 ADD PUSH1 0x40 DUP1 MLOAD PUSH1 0x1F NOT DUP2 DUP5 SUB ADD DUP2 MSTORE DUP3 DUP3 MSTORE DUP1 MLOAD PUSH1 0x20 SWAP2 DUP3 ADD KECCAK256 SWAP1 DUP4 ADD MSTORE ADD PUSH1 0x40 MLOAD PUSH1 0x20 DUP2 DUP4 SUB SUB DUP2 MSTORE SWAP1 PUSH1 0x40 MSTORE DUP1 MLOAD SWAP1 PUSH1 0x20 ADD KECCAK256 SWAP1 POP PUSH2 0x3241 DUP5 DUP5 DUP1 DUP1 PUSH1 0x20 MUL PUSH1 0x20 ADD PUSH1 0x40 MLOAD SWAP1 DUP2 ADD PUSH1 0x40 MSTORE DUP1 SWAP4 SWAP3 SWAP2 SWAP1 DUP2 DUP2 MSTORE PUSH1 0x20 ADD DUP4 DUP4 PUSH1 0x20 MUL DUP1 DUP3 DUP5 CALLDATACOPY PUSH0 SWAP3 ADD SWAP2 SWAP1 SWAP2 MSTORE POP POP PUSH1 0x18 SLOAD SWAP2 POP DUP5 SWAP1 POP PUSH2 0x4344 JUMP JUMPDEST PUSH2 0x2175 JUMPI PUSH1 0x40 MLOAD PUSH4 0xE3DB5477 PUSH1 0xE0 SHL DUP2 MSTORE PUSH1 0x1 PUSH1 0x1 PUSH1 0xA0 SHL SUB DUP9 AND PUSH1 0x4 DUP3 ADD MSTORE PUSH1 0x24 DUP2 ADD DUP7 SWAP1 MSTORE PUSH1 0x44 ADD PUSH2 0x1E37 JUMP JUMPDEST DUP2 PUSH1 0x14 MSTORE DUP1 PUSH1 0x34 MSTORE PUSH4 0xA9059CBB PUSH1 0x60 SHL PUSH0 MSTORE PUSH1 0x20 PUSH0 PUSH1 0x44 PUSH1 0x10 PUSH0 DUP8 GAS CALL DUP1 PUSH1 0x1 PUSH0 MLOAD EQ AND PUSH2 0x32B0 JUMPI DUP1 RETURNDATASIZE DUP6 EXTCODESIZE ISZERO OR LT PUSH2 0x32B0 JUMPI PUSH4 0x90B8EC18 PUSH0 MSTORE PUSH1 0x4 PUSH1 0x1C REVERT JUMPDEST POP PUSH0 PUSH1 0x34 MSTORE POP POP POP JUMP JUMPDEST PUSH1 0x14 SLOAD PUSH0 SUB PUSH2 0xA9B JUMPI PUSH1 0x40 MLOAD PUSH4 0xB0252073 PUSH1 0xE0 SHL DUP2 MSTORE PUSH1 0x4 ADD PUSH1 0x40 MLOAD DUP1 SWAP2 SUB SWAP1 REVERT JUMPDEST PUSH2 0x32EA TIMESTAMP PUSH4 0x12BED400 PUSH2 0x533E JUMP JUMPDEST PUSH2 0x32F7 PUSH1 0x20 DUP4 ADD DUP4 PUSH2 0x5204 JUMP JUMPDEST PUSH1 0x1 PUSH1 0x1 PUSH1 0x40 SHL SUB AND GT DUP1 PUSH2 0x3327 JUMPI POP PUSH4 0x12BED400 PUSH2 0x331C PUSH1 0x40 DUP4 ADD PUSH1 0x20 DUP5 ADD PUSH2 0x5204 JUMP JUMPDEST PUSH1 0x1 PUSH1 0x1 PUSH1 0x40 SHL SUB AND GT JUMPDEST DUP1 PUSH2 0x3361 JUMPI POP PUSH2 0x333D PUSH1 0x40 DUP3 ADD PUSH1 0x20 DUP4 ADD PUSH2 0x5204 JUMP JUMPDEST PUSH1 0x1 PUSH1 0x1 PUSH1 0x40 SHL SUB AND PUSH2 0x3356 PUSH1 0x60 DUP4 ADD PUSH1 0x40 DUP5 ADD PUSH2 0x5204 JUMP JUMPDEST PUSH1 0x1 PUSH1 0x1 PUSH1 0x40 SHL SUB AND GT JUMPDEST DUP1 PUSH2 0x338B JUMPI POP PUSH8 0xDE0B6B3A7640000 PUSH2 0x3380 PUSH1 0xE0 DUP4 ADD PUSH1 0xC0 DUP5 ADD PUSH2 0x5204 JUMP JUMPDEST PUSH1 0x1 PUSH1 0x1 PUSH1 0x40 SHL SUB AND GT JUMPDEST ISZERO PUSH2 0x3461 JUMPI PUSH2 0x33A0 PUSH1 0x80 DUP3 ADD PUSH1 0x60 DUP4 ADD PUSH2 0x5528 JUMP JUMPDEST PUSH1 0x1 DUP2 GT ISZERO PUSH2 0x33B1 JUMPI PUSH2 0x33B1 PUSH2 0x5541 JUMP JUMPDEST PUSH2 0x33BE PUSH1 0x20 DUP4 ADD DUP4 PUSH2 0x5204 JUMP JUMPDEST PUSH2 0x33CE PUSH1 0x40 DUP5 ADD PUSH1 0x20 DUP6 ADD PUSH2 0x5204 JUMP JUMPDEST PUSH2 0x33DE PUSH1 0x60 DUP6 ADD PUSH1 0x40 DUP7 ADD PUSH2 0x5204 JUMP JUMPDEST PUSH2 0x33EE PUSH1 0xA0 DUP7 ADD PUSH1 0x80 DUP8 ADD PUSH2 0x5204 JUMP JUMPDEST PUSH2 0x33FE PUSH1 0xC0 DUP8 ADD PUSH1 0xA0 DUP9 ADD PUSH2 0x5204 JUMP JUMPDEST PUSH2 0x340E PUSH1 0xE0 DUP9 ADD PUSH1 0xC0 DUP10 ADD PUSH2 0x5204 JUMP JUMPDEST PUSH1 0x40 MLOAD PUSH4 0x1BF09765 PUSH1 0xE0 SHL DUP2 MSTORE PUSH1 0xFF SWAP1 SWAP8 AND PUSH1 0x4 DUP9 ADD MSTORE PUSH1 0x1 PUSH1 0x1 PUSH1 0x40 SHL SUB SWAP6 DUP7 AND PUSH1 0x24 DUP9 ADD MSTORE SWAP4 DUP6 AND PUSH1 0x44 DUP8 ADD MSTORE SWAP2 DUP5 AND PUSH1 0x64 DUP7 ADD MSTORE DUP4 AND PUSH1 0x84 DUP6 ADD MSTORE DUP3 AND PUSH1 0xA4 DUP5 ADD MSTORE AND PUSH1 0xC4 DUP3 ADD MSTORE PUSH1 0xE4 ADD PUSH2 0x1E37 JUMP JUMPDEST PUSH1 0x1 PUSH2 0x3473 PUSH1 0x80 DUP4 ADD PUSH1 0x60 DUP5 ADD PUSH2 0x5528 JUMP JUMPDEST PUSH1 0x1 DUP2 GT ISZERO PUSH2 0x3484 JUMPI PUSH2 0x3484 PUSH2 0x5541 JUMP JUMPDEST SUB PUSH2 0x26CB JUMPI PUSH4 0x12BED400 PUSH2 0x349E PUSH1 0xA0 DUP4 ADD PUSH1 0x80 DUP5 ADD PUSH2 0x5204 JUMP JUMPDEST PUSH2 0x34AE PUSH1 0xC0 DUP5 ADD PUSH1 0xA0 DUP6 ADD PUSH2 0x5204 JUMP JUMPDEST PUSH2 0x34B8 SWAP2 SWAP1 PUSH2 0x5555 JUMP JUMPDEST PUSH1 0x1 PUSH1 0x1 PUSH1 0x40 SHL SUB AND GT DUP1 PUSH2 0x3517 JUMPI POP PUSH2 0x34D8 PUSH1 0x40 DUP3 ADD PUSH1 0x20 DUP4 ADD PUSH2 0x5204 JUMP JUMPDEST PUSH1 0x1 PUSH1 0x1 PUSH1 0x40 SHL SUB AND PUSH2 0x34F1 PUSH1 0xA0 DUP4 ADD PUSH1 0x80 DUP5 ADD PUSH2 0x5204 JUMP JUMPDEST PUSH2 0x3501 PUSH1 0xC0 DUP5 ADD PUSH1 0xA0 DUP6 ADD PUSH2 0x5204 JUMP JUMPDEST PUSH2 0x350B SWAP2 SWAP1 PUSH2 0x5555 JUMP JUMPDEST PUSH1 0x1 PUSH1 0x1 PUSH1 0x40 SHL SUB AND EQ ISZERO JUMPDEST DUP1 PUSH2 0x353D JUMPI POP PUSH4 0x1DFE200 PUSH2 0x3532 PUSH1 0xA0 DUP4 ADD PUSH1 0x80 DUP5 ADD PUSH2 0x5204 JUMP JUMPDEST PUSH1 0x1 PUSH1 0x1 PUSH1 0x40 SHL SUB AND GT JUMPDEST ISZERO PUSH2 0x26CB JUMPI PUSH2 0x33A0 PUSH1 0x80 DUP3 ADD PUSH1 0x60 DUP4 ADD PUSH2 0x5528 JUMP JUMPDEST PUSH0 PUSH2 0x355C DUP7 PUSH2 0x309C JUMP JUMPDEST SWAP1 POP PUSH2 0x3567 DUP2 PUSH2 0x30B6 JUMP JUMPDEST PUSH0 DUP7 DUP7 DUP4 DUP8 PUSH1 0x40 MLOAD PUSH1 0x20 ADD PUSH2 0x357F SWAP5 SWAP4 SWAP3 SWAP2 SWAP1 PUSH2 0x5597 JUMP JUMPDEST PUSH1 0x40 DUP1 MLOAD PUSH1 0x1F NOT DUP2 DUP5 SUB ADD DUP2 MSTORE DUP3 DUP3 MSTORE DUP1 MLOAD PUSH1 0x20 SWAP2 DUP3 ADD KECCAK256 SWAP1 DUP4 ADD MSTORE ADD PUSH1 0x40 DUP1 MLOAD DUP1 DUP4 SUB PUSH1 0x1F NOT ADD DUP2 MSTORE DUP3 DUP3 MSTORE DUP1 MLOAD PUSH1 0x20 SWAP2 DUP3 ADD KECCAK256 PUSH0 DUP7 DUP2 MSTORE PUSH1 0x1A DUP4 MSTORE DUP4 SWAP1 KECCAK256 PUSH1 0xA0 DUP6 ADD DUP5 MSTORE DUP1 SLOAD DUP6 MSTORE PUSH1 0x1 ADD SLOAD PUSH1 0xFF DUP1 DUP3 AND ISZERO ISZERO DUP5 DUP8 ADD MSTORE PUSH2 0x100 DUP3 DIV DUP2 AND ISZERO ISZERO DUP7 DUP7 ADD MSTORE PUSH3 0x10000 DUP3 DIV AND ISZERO ISZERO PUSH1 0x60 DUP7 ADD MSTORE PUSH4 0x1000000 SWAP1 DIV PUSH1 0x1 PUSH1 0x1 PUSH1 0xA0 SHL SUB AND PUSH1 0x80 DUP6 ADD MSTORE DUP3 MLOAD DUP8 DUP4 MUL DUP1 DUP3 ADD DUP5 ADD SWAP1 SWAP5 MSTORE DUP8 DUP2 MSTORE SWAP1 SWAP5 POP PUSH2 0x3647 SWAP3 SWAP1 SWAP2 DUP9 SWAP2 DUP9 SWAP2 DUP3 SWAP2 SWAP1 DUP6 ADD SWAP1 DUP5 SWAP1 DUP1 DUP3 DUP5 CALLDATACOPY PUSH0 SWAP3 ADD SWAP2 SWAP1 SWAP2 MSTORE POP POP PUSH1 0x17 SLOAD SWAP2 POP DUP6 SWAP1 POP PUSH2 0x4344 JUMP JUMPDEST PUSH2 0x366F JUMPI PUSH1 0x40 MLOAD PUSH4 0x8716BD7F PUSH1 0xE0 SHL DUP2 MSTORE PUSH1 0x1 PUSH1 0x1 PUSH1 0xA0 SHL SUB DUP10 AND PUSH1 0x4 DUP3 ADD MSTORE PUSH1 0x24 ADD PUSH2 0x1E37 JUMP JUMPDEST DUP1 PUSH1 0x20 ADD MLOAD ISZERO PUSH2 0x1DAC JUMPI PUSH1 0x40 MLOAD PUSH4 0xEDF08CE1 PUSH1 0xE0 SHL DUP2 MSTORE PUSH1 0x1 PUSH1 0x1 PUSH1 0xA0 SHL SUB DUP10 AND PUSH1 0x4 DUP3 ADD MSTORE PUSH1 0x24 ADD PUSH2 0x1E37 JUMP JUMPDEST PUSH0 DUP1 PUSH2 0x36AF PUSH1 0x80 DUP6 ADD PUSH1 0x60 DUP7 ADD PUSH2 0x5528 JUMP JUMPDEST PUSH1 0x1 DUP2 GT ISZERO PUSH2 0x36C0 JUMPI PUSH2 0x36C0 PUSH2 0x5541 JUMP JUMPDEST SUB PUSH2 0x3712 JUMPI PUSH1 0x1 SLOAD PUSH0 SLOAD PUSH2 0x370F SWAP2 CALLER SWAP2 PUSH1 0x1 PUSH1 0x1 PUSH1 0xA0 SHL SUB SWAP2 DUP3 AND SWAP2 AND PUSH2 0x36EA PUSH1 0x20 DUP9 ADD DUP9 PUSH2 0x5204 JUMP JUMPDEST PUSH2 0x36FA PUSH1 0x40 DUP10 ADD PUSH1 0x20 DUP11 ADD PUSH2 0x5204 JUMP JUMPDEST PUSH2 0x370A PUSH1 0x60 DUP11 ADD PUSH1 0x40 DUP12 ADD PUSH2 0x5204 JUMP JUMPDEST PUSH2 0x4384 JUMP JUMPDEST SWAP1 POP JUMPDEST PUSH1 0x1 PUSH2 0x3724 PUSH1 0x80 DUP6 ADD PUSH1 0x60 DUP7 ADD PUSH2 0x5528 JUMP JUMPDEST PUSH1 0x1 DUP2 GT ISZERO PUSH2 0x3735 JUMPI PUSH2 0x3735 PUSH2 0x5541 JUMP JUMPDEST SUB PUSH2 0xC1F JUMPI PUSH1 0x1 SLOAD PUSH0 SLOAD PUSH2 0x1F16 SWAP2 CALLER SWAP2 PUSH1 0x1 PUSH1 0x1 PUSH1 0xA0 SHL SUB SWAP2 DUP3 AND SWAP2 AND DUP6 PUSH2 0x3760 PUSH1 0x20 DUP10 ADD DUP10 PUSH2 0x5204 JUMP JUMPDEST PUSH2 0x3770 PUSH1 0x40 DUP11 ADD PUSH1 0x20 DUP12 ADD PUSH2 0x5204 JUMP JUMPDEST PUSH2 0x3780 PUSH1 0x60 DUP12 ADD PUSH1 0x40 DUP13 ADD PUSH2 0x5204 JUMP JUMPDEST PUSH2 0x3790 PUSH1 0xA0 DUP13 ADD PUSH1 0x80 DUP14 ADD PUSH2 0x5204 JUMP JUMPDEST PUSH2 0x37A0 PUSH1 0xC0 DUP14 ADD PUSH1 0xA0 DUP15 ADD PUSH2 0x5204 JUMP JUMPDEST PUSH2 0x4422 JUMP JUMPDEST PUSH2 0x37AD PUSH2 0x44DC JUMP JUMPDEST PUSH1 0x8 DUP1 SLOAD PUSH1 0xFF NOT AND SWAP1 SSTORE PUSH32 0x5DB9EE0A495BF2E6FF9C91A7834C1BA4FDD244A5E8AA4E537BD38AEAE4B073AA CALLER JUMPDEST PUSH1 0x40 MLOAD PUSH1 0x1 PUSH1 0x1 PUSH1 0xA0 SHL SUB SWAP1 SWAP2 AND DUP2 MSTORE PUSH1 0x20 ADD PUSH2 0x2C9F JUMP JUMPDEST PUSH1 0x40 MLOAD PUSH4 0x150B7A02 DUP1 DUP3 MSTORE CALLER PUSH1 0x20 DUP4 ADD MSTORE DUP6 PUSH1 0x60 SHL PUSH1 0x60 SHR PUSH1 0x40 DUP4 ADD MSTORE DUP4 PUSH1 0x60 DUP4 ADD MSTORE PUSH1 0x80 DUP1 DUP4 ADD MSTORE DUP3 MLOAD DUP1 PUSH1 0xA0 DUP5 ADD MSTORE DUP1 ISZERO PUSH2 0x3839 JUMPI DUP1 PUSH1 0xC0 DUP5 ADD DUP3 PUSH1 0x20 DUP8 ADD PUSH1 0x4 GAS STATICCALL POP JUMPDEST PUSH1 0x20 DUP4 PUSH1 0xA4 DUP4 ADD PUSH1 0x1C DUP7 ADD PUSH0 DUP11 GAS CALL PUSH2 0x385A JUMPI RETURNDATASIZE ISZERO PUSH2 0x385A JUMPI RETURNDATASIZE PUSH0 DUP5 RETURNDATACOPY RETURNDATASIZE DUP4 REVERT JUMPDEST POP DUP1 PUSH1 0xE0 SHL DUP3 MLOAD EQ PUSH2 0x1560 JUMPI PUSH4 0xD1A57ED6 PUSH0 MSTORE PUSH1 0x4 PUSH1 0x1C REVERT JUMPDEST PUSH1 0x1B SLOAD PUSH1 0xFF AND PUSH2 0xA9B JUMPI PUSH1 0x40 MLOAD PUSH4 0x7CACBC87 PUSH1 0xE1 SHL DUP2 MSTORE PUSH1 0x4 ADD PUSH1 0x40 MLOAD DUP1 SWAP2 SUB SWAP1 REVERT JUMPDEST PUSH1 0x40 DUP1 MLOAD PUSH1 0x80 DUP2 ADD DUP3 MSTORE PUSH1 0x1B SLOAD PUSH1 0xFF AND ISZERO ISZERO DUP2 MSTORE DUP2 MLOAD DUP1 DUP4 ADD DUP4 MSTORE PUSH1 0x1C SLOAD DUP2 MSTORE PUSH1 0x1D SLOAD PUSH1 0x20 DUP3 DUP2 ADD SWAP2 SWAP1 SWAP2 MSTORE DUP3 ADD MSTORE PUSH1 0x1E SLOAD SWAP2 DUP2 ADD DUP3 SWAP1 MSTORE PUSH1 0x1F SLOAD PUSH1 0x60 DUP3 ADD MSTORE SWAP1 ISZERO PUSH2 0x38F5 JUMPI PUSH1 0x40 MLOAD PUSH4 0x10B5F283 PUSH1 0xE0 SHL DUP2 MSTORE PUSH1 0x4 ADD PUSH1 0x40 MLOAD DUP1 SWAP2 SUB SWAP1 REVERT JUMPDEST PUSH1 0x40 DUP1 MLOAD DUP1 DUP3 ADD DUP3 MSTORE PUSH1 0x1 DUP2 MSTORE PUSH1 0x2 PUSH1 0x20 DUP3 ADD SWAP1 DUP2 MSTORE SWAP2 MLOAD PUSH4 0x2BF48E2B PUSH1 0xE2 SHL DUP2 MSTORE SWAP1 MLOAD PUSH1 0x4 DUP3 ADD MSTORE SWAP1 MLOAD PUSH1 0x24 DUP3 ADD MSTORE PUSH1 0x44 DUP2 ADD DUP4 SWAP1 MSTORE PUSH0 SWAP1 PUSH20 0x0 SWAP1 PUSH4 0xAFD238AC SWAP1 PUSH1 0x64 ADD PUSH1 0x40 DUP1 MLOAD DUP1 DUP4 SUB DUP2 DUP7 GAS DELEGATECALL ISZERO DUP1 ISZERO PUSH2 0x3967 JUMPI RETURNDATASIZE PUSH0 PUSH0 RETURNDATACOPY RETURNDATASIZE PUSH0 REVERT JUMPDEST POP POP POP POP PUSH1 0x40 MLOAD RETURNDATASIZE PUSH1 0x1F NOT PUSH1 0x1F DUP3 ADD AND DUP3 ADD DUP1 PUSH1 0x40 MSTORE POP DUP2 ADD SWAP1 PUSH2 0x398B SWAP2 SWAP1 PUSH2 0x567C JUMP JUMPDEST PUSH1 0x20 DUP4 ADD MLOAD MLOAD DUP2 MLOAD SWAP2 SWAP3 POP EQ ISZERO DUP1 PUSH2 0x39AF JUMPI POP DUP2 PUSH1 0x20 ADD MLOAD PUSH1 0x20 ADD MLOAD DUP2 PUSH1 0x20 ADD MLOAD EQ ISZERO JUMPDEST ISZERO PUSH2 0xA54 JUMPI PUSH1 0x40 MLOAD PUSH4 0x7663C171 PUSH1 0xE1 SHL DUP2 MSTORE PUSH1 0x4 ADD PUSH1 0x40 MLOAD DUP1 SWAP2 SUB SWAP1 REVERT JUMPDEST PUSH1 0x9 SLOAD PUSH1 0x1 PUSH1 0x80 SHL SWAP1 DIV PUSH1 0x1 PUSH1 0x1 PUSH1 0x40 SHL SUB AND TIMESTAMP DUP2 GT PUSH2 0x26CB JUMPI PUSH1 0x40 MLOAD PUSH4 0xE155E52D PUSH1 0xE0 SHL DUP2 MSTORE TIMESTAMP PUSH1 0x4 DUP3 ADD MSTORE PUSH1 0x24 DUP2 ADD DUP3 SWAP1 MSTORE PUSH1 0x44 ADD PUSH2 0x1E37 JUMP JUMPDEST PUSH2 0x3A11 PUSH2 0x2646 JUMP JUMPDEST PUSH1 0x8 DUP1 SLOAD PUSH1 0xFF NOT AND PUSH1 0x1 OR SWAP1 SSTORE PUSH32 0x62E78CEA01BEE320CD4E420270B5EA74000D11B0C9F74754EBDBFC544B05A258 PUSH2 0x37DA CALLER SWAP1 JUMP JUMPDEST PUSH1 0x9 SLOAD PUSH1 0x1 PUSH1 0x40 SHL SWAP1 DIV PUSH1 0x1 PUSH1 0x1 PUSH1 0x40 SHL SUB AND TIMESTAMP LT PUSH2 0xA9B JUMPI PUSH1 0x40 MLOAD PUSH4 0xA4D50215 PUSH1 0xE0 SHL DUP2 MSTORE TIMESTAMP PUSH1 0x4 DUP3 ADD MSTORE PUSH1 0x24 ADD PUSH2 0x1E37 JUMP JUMPDEST PUSH0 PUSH1 0x3 DUP1 ADD PUSH0 DUP2 SLOAD PUSH2 0x3A8B SWAP1 PUSH2 0x56AD JUMP JUMPDEST SWAP1 SWAP2 SSTORE POP POP PUSH1 0x6 SLOAD PUSH1 0x1 PUSH1 0x1 PUSH1 0xA0 SHL SUB DUP3 AND PUSH0 SWAP1 DUP2 MSTORE PUSH1 0x7 PUSH1 0x20 MSTORE PUSH1 0x40 SWAP1 KECCAK256 DUP2 SWAP1 SSTORE PUSH2 0x16B8 DUP3 DUP3 PUSH2 0x44FF JUMP JUMPDEST PUSH1 0x40 MLOAD PUSH1 0x1 PUSH1 0x1 PUSH1 0x60 SHL SUB NOT CALLER PUSH1 0x60 SWAP1 DUP2 SHL DUP3 AND PUSH1 0x20 DUP5 ADD MSTORE ADDRESS SWAP1 SHL AND PUSH1 0x34 DUP3 ADD MSTORE CHAINID PUSH1 0x48 DUP3 ADD MSTORE PUSH0 SWAP1 PUSH2 0x3B31 SWAP1 PUSH1 0x68 ADD JUMPDEST PUSH1 0x40 MLOAD PUSH1 0x20 DUP2 DUP4 SUB SUB DUP2 MSTORE SWAP1 PUSH1 0x40 MSTORE DUP1 MLOAD SWAP1 PUSH1 0x20 ADD KECCAK256 PUSH32 0x19457468657265756D205369676E6564204D6573736167653A0A333200000000 PUSH0 SWAP1 DUP2 MSTORE PUSH1 0x1C SWAP2 SWAP1 SWAP2 MSTORE PUSH1 0x3C SWAP1 KECCAK256 SWAP1 JUMP JUMPDEST PUSH1 0x10 SLOAD PUSH1 0x40 DUP1 MLOAD PUSH1 0x20 PUSH1 0x1F DUP8 ADD DUP2 SWAP1 DIV DUP2 MUL DUP3 ADD DUP2 ADD SWAP1 SWAP3 MSTORE DUP6 DUP2 MSTORE SWAP3 SWAP4 POP PUSH1 0x1 PUSH1 0x1 PUSH1 0xA0 SHL SUB SWAP1 SWAP2 AND SWAP2 PUSH2 0x3B82 SWAP2 DUP7 SWAP1 DUP7 SWAP1 DUP2 SWAP1 DUP5 ADD DUP4 DUP3 DUP1 DUP3 DUP5 CALLDATACOPY PUSH0 SWAP3 ADD SWAP2 SWAP1 SWAP2 MSTORE POP DUP7 SWAP4 SWAP3 POP POP PUSH2 0x455F SWAP1 POP JUMP JUMPDEST PUSH1 0x1 PUSH1 0x1 PUSH1 0xA0 SHL SUB AND EQ PUSH2 0xA54 JUMPI DUP3 DUP3 PUSH1 0x40 MLOAD PUSH4 0x3DD7420B PUSH1 0xE1 SHL DUP2 MSTORE PUSH1 0x4 ADD PUSH2 0x1E37 SWAP3 SWAP2 SWAP1 PUSH2 0x56C5 JUMP JUMPDEST PUSH1 0x40 MLOAD PUSH4 0x7A5E5459 PUSH1 0xE1 SHL DUP2 MSTORE PUSH20 0x0 SWAP1 PUSH4 0xF4BCA8B2 SWAP1 PUSH2 0x3BE4 SWAP1 DUP5 SWAP1 PUSH1 0x4 ADD PUSH2 0x56F3 JUMP JUMPDEST PUSH1 0x20 PUSH1 0x40 MLOAD DUP1 DUP4 SUB DUP2 DUP7 GAS DELEGATECALL ISZERO DUP1 ISZERO PUSH2 0x3BFF JUMPI RETURNDATASIZE PUSH0 PUSH0 RETURNDATACOPY RETURNDATASIZE PUSH0 REVERT JUMPDEST POP POP POP POP PUSH1 0x40 MLOAD RETURNDATASIZE PUSH1 0x1F NOT PUSH1 0x1F DUP3 ADD AND DUP3 ADD DUP1 PUSH1 0x40 MSTORE POP DUP2 ADD SWAP1 PUSH2 0x3C23 SWAP2 SWAP1 PUSH2 0x539F JUMP JUMPDEST PUSH2 0x3C40 JUMPI PUSH1 0x40 MLOAD PUSH4 0x2E97F799 PUSH1 0xE2 SHL DUP2 MSTORE PUSH1 0x4 ADD PUSH1 0x40 MLOAD DUP1 SWAP2 SUB SWAP1 REVERT JUMPDEST PUSH1 0x40 DUP1 MLOAD PUSH1 0x80 DUP2 ADD DUP3 MSTORE PUSH1 0x1B SLOAD PUSH1 0xFF AND ISZERO ISZERO DUP2 MSTORE DUP2 MLOAD DUP1 DUP4 ADD DUP4 MSTORE PUSH1 0x1C SLOAD DUP2 MSTORE PUSH1 0x1D SLOAD PUSH1 0x20 DUP3 DUP2 ADD SWAP2 DUP3 MSTORE DUP1 DUP5 ADD DUP4 SWAP1 MSTORE PUSH1 0x1E SLOAD DUP5 DUP7 ADD MSTORE PUSH1 0x1F SLOAD PUSH1 0x60 DUP6 ADD MSTORE SWAP2 MLOAD SWAP1 MLOAD SWAP4 MLOAD SWAP3 SWAP4 PUSH2 0x3C9F SWAP4 SWAP2 SWAP3 SWAP1 SWAP2 ADD SWAP2 DUP3 MSTORE PUSH1 0x20 DUP3 ADD MSTORE PUSH1 0x40 ADD SWAP1 JUMP JUMPDEST PUSH1 0x40 DUP1 MLOAD PUSH1 0x1F NOT DUP2 DUP5 SUB ADD DUP2 MSTORE DUP3 DUP3 MSTORE DUP1 MLOAD PUSH1 0x20 SWAP2 DUP3 ADD KECCAK256 DUP6 MLOAD DUP7 DUP4 ADD MLOAD SWAP3 DUP6 ADD MSTORE SWAP2 DUP4 ADD MSTORE SWAP1 PUSH1 0x60 ADD PUSH1 0x40 MLOAD PUSH1 0x20 DUP2 DUP4 SUB SUB DUP2 MSTORE SWAP1 PUSH1 0x40 MSTORE DUP1 MLOAD SWAP1 PUSH1 0x20 ADD KECCAK256 EQ PUSH2 0xA64 JUMPI PUSH1 0x40 MLOAD PUSH4 0x2E97F799 PUSH1 0xE2 SHL DUP2 MSTORE PUSH1 0x4 ADD PUSH1 0x40 MLOAD DUP1 SWAP2 SUB SWAP1 REVERT JUMPDEST PUSH1 0xA SLOAD DUP2 LT ISZERO PUSH2 0x26CB JUMPI PUSH1 0x40 MLOAD PUSH4 0x868A3FC5 PUSH1 0xE0 SHL DUP2 MSTORE PUSH1 0x4 DUP2 ADD DUP3 SWAP1 MSTORE PUSH1 0x24 ADD PUSH2 0x1E37 JUMP JUMPDEST PUSH0 DUP2 DUP2 MSTORE PUSH1 0x1A PUSH1 0x20 MSTORE PUSH1 0x40 SWAP1 KECCAK256 PUSH1 0x1 ADD SLOAD PUSH2 0x100 SWAP1 DIV PUSH1 0xFF AND ISZERO PUSH2 0x26CB JUMPI PUSH1 0x40 MLOAD PUSH4 0x40A02857 PUSH1 0xE0 SHL DUP2 MSTORE CALLER PUSH1 0x4 DUP3 ADD MSTORE PUSH1 0x24 ADD PUSH2 0x1E37 JUMP JUMPDEST PUSH1 0x40 MLOAD DUP2 PUSH1 0x60 MSTORE DUP3 PUSH1 0x40 MSTORE DUP4 PUSH1 0x60 SHL PUSH1 0x2C MSTORE PUSH4 0x23B872DD PUSH1 0x60 SHL PUSH1 0xC MSTORE PUSH1 0x20 PUSH0 PUSH1 0x64 PUSH1 0x1C PUSH0 DUP10 GAS CALL DUP1 PUSH1 0x1 PUSH0 MLOAD EQ AND PUSH2 0x3DA7 JUMPI DUP1 RETURNDATASIZE DUP8 EXTCODESIZE ISZERO OR LT PUSH2 0x3DA7 JUMPI PUSH4 0x7939F424 PUSH0 MSTORE PUSH1 0x4 PUSH1 0x1C REVERT JUMPDEST POP PUSH0 PUSH1 0x60 MSTORE PUSH1 0x40 MSTORE POP POP POP POP JUMP JUMPDEST PUSH1 0x60 PUSH0 PUSH2 0x3DC1 DUP4 PUSH2 0x4587 JUMP JUMPDEST PUSH1 0x1 ADD SWAP1 POP PUSH0 DUP2 PUSH1 0x1 PUSH1 0x1 PUSH1 0x40 SHL SUB DUP2 GT ISZERO PUSH2 0x3DDF JUMPI PUSH2 0x3DDF PUSH2 0x52B6 JUMP JUMPDEST PUSH1 0x40 MLOAD SWAP1 DUP1 DUP3 MSTORE DUP1 PUSH1 0x1F ADD PUSH1 0x1F NOT AND PUSH1 0x20 ADD DUP3 ADD PUSH1 0x40 MSTORE DUP1 ISZERO PUSH2 0x3E09 JUMPI PUSH1 0x20 DUP3 ADD DUP2 DUP1 CALLDATASIZE DUP4 CALLDATACOPY ADD SWAP1 POP JUMPDEST POP SWAP1 POP DUP2 DUP2 ADD PUSH1 0x20 ADD JUMPDEST PUSH0 NOT ADD PUSH16 0x181899199A1A9B1B9C1CB0B131B232B3 PUSH1 0x81 SHL PUSH1 0xA DUP7 MOD BYTE DUP2 MSTORE8 PUSH1 0xA DUP6 DIV SWAP5 POP DUP5 PUSH2 0x3E13 JUMPI POP SWAP4 SWAP3 POP POP POP JUMP JUMPDEST PUSH1 0x19 SLOAD PUSH2 0x100 SWAP1 DIV PUSH1 0xFF AND ISZERO PUSH2 0xA9B JUMPI PUSH1 0x40 MLOAD PUSH4 0x68754D4B PUSH1 0xE1 SHL DUP2 MSTORE PUSH1 0x4 ADD PUSH1 0x40 MLOAD DUP1 SWAP2 SUB SWAP1 REVERT JUMPDEST PUSH1 0x14 SLOAD PUSH0 DUP2 SWAP1 SUB PUSH2 0x3E91 JUMPI PUSH1 0x40 MLOAD PUSH4 0x4141447D PUSH1 0xE1 SHL DUP2 MSTORE PUSH1 0x4 ADD PUSH1 0x40 MLOAD DUP1 SWAP2 SUB SWAP1 REVERT JUMPDEST DUP1 DUP3 EQ PUSH2 0xA64 JUMPI PUSH1 0x40 MLOAD PUSH4 0x28D05AB PUSH1 0xE5 SHL DUP2 MSTORE PUSH1 0x4 DUP2 ADD DUP4 SWAP1 MSTORE PUSH1 0x24 DUP2 ADD DUP3 SWAP1 MSTORE PUSH1 0x44 ADD PUSH2 0x1E37 JUMP JUMPDEST PUSH1 0x40 MLOAD PUSH1 0x1 PUSH1 0x1 PUSH1 0x60 SHL SUB NOT PUSH1 0x60 DUP9 DUP2 SHL DUP3 AND PUSH1 0x20 DUP5 ADD MSTORE DUP8 DUP2 SHL DUP3 AND PUSH1 0x34 DUP5 ADD MSTORE PUSH1 0x48 DUP4 ADD DUP8 SWAP1 MSTORE CALLER DUP2 SHL DUP3 AND PUSH1 0x68 DUP5 ADD MSTORE ADDRESS SWAP1 SHL AND PUSH1 0x7C DUP3 ADD MSTORE CHAINID PUSH1 0x90 DUP3 ADD MSTORE PUSH0 SWAP1 PUSH2 0x3F0B SWAP1 PUSH1 0xB0 ADD PUSH2 0x3AE9 JUMP JUMPDEST SWAP1 POP DUP4 PUSH1 0x1 PUSH1 0x1 PUSH1 0xA0 SHL SUB AND PUSH2 0x3F58 DUP5 DUP5 DUP1 DUP1 PUSH1 0x1F ADD PUSH1 0x20 DUP1 SWAP2 DIV MUL PUSH1 0x20 ADD PUSH1 0x40 MLOAD SWAP1 DUP2 ADD PUSH1 0x40 MSTORE DUP1 SWAP4 SWAP3 SWAP2 SWAP1 DUP2 DUP2 MSTORE PUSH1 0x20 ADD DUP4 DUP4 DUP1 DUP3 DUP5 CALLDATACOPY PUSH0 SWAP3 ADD SWAP2 SWAP1 SWAP2 MSTORE POP DUP7 SWAP4 SWAP3 POP POP PUSH2 0x455F SWAP1 POP JUMP JUMPDEST PUSH1 0x1 PUSH1 0x1 PUSH1 0xA0 SHL SUB AND EQ PUSH2 0x2175 JUMPI DUP3 DUP3 PUSH1 0x40 MLOAD PUSH4 0x3DD7420B PUSH1 0xE1 SHL DUP2 MSTORE PUSH1 0x4 ADD PUSH2 0x1E37 SWAP3 SWAP2 SWAP1 PUSH2 0x56C5 JUMP JUMPDEST PUSH1 0xD SLOAD PUSH1 0x1 PUSH1 0x1 PUSH1 0xA0 SHL SUB AND CALLER EQ PUSH2 0x3FAE JUMPI PUSH1 0x40 MLOAD PUSH4 0x1312F1F PUSH1 0xE1 SHL DUP2 MSTORE PUSH1 0x4 ADD PUSH1 0x40 MLOAD DUP1 SWAP2 SUB SWAP1 REVERT JUMPDEST PUSH2 0x3FB6 PUSH2 0x2646 JUMP JUMPDEST PUSH2 0x3FBE PUSH2 0x26CE JUMP JUMPDEST PUSH2 0x3FC6 PUSH2 0x266A JUMP JUMPDEST PUSH1 0x19 DUP1 SLOAD PUSH1 0xFF NOT AND PUSH1 0x1 OR SWAP1 SSTORE PUSH1 0x40 MLOAD PUSH32 0x943552B21B3BCFB11BCB560653F2703FAF49C76AC2A791E285B130C0117678A SWAP1 PUSH0 SWAP1 LOG1 JUMP JUMPDEST PUSH1 0x19 SLOAD PUSH2 0x100 SWAP1 DIV PUSH1 0xFF AND PUSH2 0xA9B JUMPI PUSH1 0x40 MLOAD PUSH4 0x28B1BBFB PUSH1 0xE0 SHL DUP2 MSTORE PUSH1 0x4 ADD PUSH1 0x40 MLOAD DUP1 SWAP2 SUB SWAP1 REVERT JUMPDEST PUSH1 0x40 DUP1 MLOAD PUSH2 0x120 DUP2 ADD DUP3 MSTORE PUSH1 0x13 SLOAD DUP2 MSTORE PUSH1 0x14 SLOAD PUSH1 0x20 DUP3 ADD MSTORE PUSH1 0x15 SLOAD SWAP2 DUP2 ADD SWAP2 SWAP1 SWAP2 MSTORE PUSH1 0x16 SLOAD PUSH1 0x60 DUP3 ADD MSTORE PUSH1 0x17 SLOAD PUSH1 0x80 DUP3 ADD MSTORE PUSH1 0x18 SLOAD PUSH1 0xA0 DUP3 ADD MSTORE PUSH1 0x19 SLOAD PUSH1 0xFF DUP1 DUP3 AND ISZERO ISZERO PUSH1 0xC0 DUP5 ADD MSTORE PUSH2 0x100 DUP1 DUP4 DIV DUP3 AND ISZERO ISZERO PUSH1 0xE0 DUP6 ADD MSTORE PUSH3 0x10000 SWAP1 SWAP3 DIV AND ISZERO DUP1 ISZERO SWAP2 DUP4 ADD SWAP2 SWAP1 SWAP2 MSTORE PUSH2 0x40AC JUMPI PUSH1 0x40 MLOAD PUSH4 0xC2820CA7 PUSH1 0xE0 SHL DUP2 MSTORE PUSH1 0x4 ADD PUSH1 0x40 MLOAD DUP1 SWAP2 SUB SWAP1 REVERT JUMPDEST DUP1 PUSH1 0x40 ADD MLOAD PUSH0 SUB PUSH2 0x26CB JUMPI PUSH1 0x40 MLOAD PUSH4 0x5C84879D PUSH1 0xE0 SHL DUP2 MSTORE PUSH1 0x4 ADD PUSH1 0x40 MLOAD DUP1 SWAP2 SUB SWAP1 REVERT JUMPDEST PUSH1 0x19 SLOAD PUSH1 0xFF AND PUSH2 0xA9B JUMPI PUSH1 0x40 MLOAD PUSH4 0x289F9715 PUSH1 0xE0 SHL DUP2 MSTORE PUSH1 0x4 ADD PUSH1 0x40 MLOAD DUP1 SWAP2 SUB SWAP1 REVERT JUMPDEST PUSH1 0x1 PUSH1 0x1 PUSH1 0xA0 SHL SUB DUP2 AND PUSH0 SWAP1 DUP2 MSTORE PUSH1 0x7 PUSH1 0x20 MSTORE PUSH1 0x40 SWAP1 KECCAK256 SLOAD PUSH2 0x4114 DUP2 PUSH2 0x465E JUMP JUMPDEST POP PUSH1 0x1 PUSH1 0x1 PUSH1 0xA0 SHL SUB AND PUSH0 SWAP1 DUP2 MSTORE PUSH1 0x7 PUSH1 0x20 MSTORE PUSH1 0x40 DUP2 KECCAK256 SSTORE JUMP JUMPDEST PUSH2 0x4138 DUP2 PUSH0 PUSH2 0x46AC JUMP JUMPDEST PUSH2 0xA54 DUP4 DUP4 DUP4 PUSH2 0x472E JUMP JUMPDEST PUSH4 0x409FEECD NOT DUP1 SLOAD PUSH1 0x1 AND PUSH2 0x26CB JUMPI PUSH4 0xD7E6BCF8 PUSH0 MSTORE PUSH1 0x4 PUSH1 0x1C REVERT JUMPDEST PUSH0 PUSH2 0x4171 PUSH2 0x100 DUP4 ADD PUSH1 0xE0 DUP5 ADD PUSH2 0x4EA6 JUMP JUMPDEST PUSH1 0x1 PUSH1 0x1 PUSH1 0xA0 SHL SUB AND EQ DUP1 PUSH2 0x419F JUMPI POP PUSH0 PUSH2 0x4194 PUSH2 0x140 DUP4 ADD PUSH2 0x120 DUP5 ADD PUSH2 0x4EA6 JUMP JUMPDEST PUSH1 0x1 PUSH1 0x1 PUSH1 0xA0 SHL SUB AND EQ JUMPDEST DUP1 PUSH2 0x41C3 JUMPI POP PUSH0 PUSH2 0x41B8 PUSH2 0x160 DUP4 ADD PUSH2 0x140 DUP5 ADD PUSH2 0x4EA6 JUMP JUMPDEST PUSH1 0x1 PUSH1 0x1 PUSH1 0xA0 SHL SUB AND EQ JUMPDEST ISZERO PUSH2 0x41E1 JUMPI PUSH1 0x40 MLOAD PUSH4 0xB840F60B PUSH1 0xE0 SHL DUP2 MSTORE PUSH1 0x4 ADD PUSH1 0x40 MLOAD DUP1 SWAP2 SUB SWAP1 REVERT JUMPDEST PUSH2 0x41EE PUSH1 0x20 DUP3 ADD DUP3 PUSH2 0x5204 JUMP JUMPDEST PUSH1 0x1 PUSH1 0x1 PUSH1 0x40 SHL SUB AND ISZERO DUP1 PUSH2 0x4219 JUMPI POP PUSH2 0x420E PUSH1 0x40 DUP3 ADD PUSH1 0x20 DUP4 ADD PUSH2 0x5204 JUMP JUMPDEST PUSH1 0x1 PUSH1 0x1 PUSH1 0x40 SHL SUB AND ISZERO JUMPDEST DUP1 PUSH2 0x4231 JUMPI POP PUSH2 0x422D PUSH2 0x180 DUP3 ADD DUP3 PUSH2 0x53DB JUMP JUMPDEST ISZERO SWAP1 POP JUMPDEST DUP1 PUSH2 0x4249 JUMPI POP PUSH2 0x4245 PUSH2 0x1A0 DUP3 ADD DUP3 PUSH2 0x53DB JUMP JUMPDEST ISZERO SWAP1 POP JUMPDEST DUP1 PUSH2 0x4261 JUMPI POP PUSH2 0x425D PUSH2 0x1C0 DUP3 ADD DUP3 PUSH2 0x53DB JUMP JUMPDEST ISZERO SWAP1 POP JUMPDEST ISZERO PUSH2 0x427F JUMPI PUSH1 0x40 MLOAD PUSH4 0x1E44F253 PUSH1 0xE0 SHL DUP2 MSTORE PUSH1 0x4 ADD PUSH1 0x40 MLOAD DUP1 SWAP2 SUB SWAP1 REVERT JUMPDEST PUSH3 0x6EBE00 PUSH2 0x4290 PUSH1 0x20 DUP4 ADD DUP4 PUSH2 0x5204 JUMP JUMPDEST PUSH1 0x1 PUSH1 0x1 PUSH1 0x40 SHL SUB AND GT DUP1 PUSH2 0x42BF JUMPI POP PUSH3 0x127500 PUSH2 0x42B4 PUSH1 0x40 DUP4 ADD PUSH1 0x20 DUP5 ADD PUSH2 0x5204 JUMP JUMPDEST PUSH1 0x1 PUSH1 0x1 PUSH1 0x40 SHL SUB AND GT JUMPDEST ISZERO PUSH2 0x42DD JUMPI PUSH1 0x40 MLOAD PUSH4 0x31189173 PUSH1 0xE1 SHL DUP2 MSTORE PUSH1 0x4 ADD PUSH1 0x40 MLOAD DUP1 SWAP2 SUB SWAP1 REVERT JUMPDEST PUSH2 0xE10 PUSH2 0x42ED PUSH1 0x20 DUP4 ADD DUP4 PUSH2 0x5204 JUMP JUMPDEST PUSH1 0x1 PUSH1 0x1 PUSH1 0x40 SHL SUB AND LT DUP1 PUSH2 0x431B JUMPI POP PUSH2 0xE10 PUSH2 0x4310 PUSH1 0x40 DUP4 ADD PUSH1 0x20 DUP5 ADD PUSH2 0x5204 JUMP JUMPDEST PUSH1 0x1 PUSH1 0x1 PUSH1 0x40 SHL SUB AND LT JUMPDEST ISZERO PUSH2 0x26CB JUMPI PUSH1 0x40 MLOAD PUSH4 0x31189173 PUSH1 0xE1 SHL DUP2 MSTORE PUSH1 0x4 ADD PUSH1 0x40 MLOAD DUP1 SWAP2 SUB SWAP1 REVERT JUMPDEST PUSH2 0xA54 DUP2 PUSH1 0x1 PUSH2 0x46AC JUMP JUMPDEST PUSH0 DUP4 MLOAD ISZERO PUSH2 0x437D JUMPI PUSH1 0x20 DUP5 ADD DUP5 MLOAD PUSH1 0x5 SHL DUP2 ADD JUMPDEST DUP2 MLOAD DUP5 GT PUSH1 0x5 SHL SWAP4 DUP5 MSTORE DUP2 MLOAD PUSH1 0x20 SWAP5 DUP6 XOR MSTORE PUSH1 0x40 PUSH0 KECCAK256 SWAP4 SWAP1 SWAP2 ADD SWAP1 DUP1 DUP3 LT PUSH2 0x4358 JUMPI POP POP JUMPDEST POP EQ SWAP2 SWAP1 POP JUMP JUMPDEST PUSH1 0x40 MLOAD PUSH4 0x2331871F PUSH1 0xE0 SHL DUP2 MSTORE PUSH1 0x1 PUSH1 0x1 PUSH1 0xA0 SHL SUB DUP8 DUP2 AND PUSH1 0x4 DUP4 ADD MSTORE DUP7 DUP2 AND PUSH1 0x24 DUP4 ADD MSTORE PUSH1 0x1 PUSH1 0x1 PUSH1 0x40 SHL SUB DUP1 DUP7 AND PUSH1 0x44 DUP5 ADD MSTORE DUP1 DUP6 AND PUSH1 0x64 DUP5 ADD MSTORE DUP4 AND PUSH1 0x84 DUP4 ADD MSTORE PUSH0 SWAP2 SWAP1 DUP7 AND SWAP1 PUSH4 0x2331871F SWAP1 PUSH1 0xA4 ADD PUSH1 0x20 PUSH1 0x40 MLOAD DUP1 DUP4 SUB DUP2 PUSH0 DUP8 GAS CALL ISZERO DUP1 ISZERO PUSH2 0x43F3 JUMPI RETURNDATASIZE PUSH0 PUSH0 RETURNDATACOPY RETURNDATASIZE PUSH0 REVERT JUMPDEST POP POP POP POP PUSH1 0x40 MLOAD RETURNDATASIZE PUSH1 0x1F NOT PUSH1 0x1F DUP3 ADD AND DUP3 ADD DUP1 PUSH1 0x40 MSTORE POP DUP2 ADD SWAP1 PUSH2 0x4417 SWAP2 SWAP1 PUSH2 0x5384 JUMP JUMPDEST SWAP8 SWAP7 POP POP POP POP POP POP POP JUMP JUMPDEST PUSH1 0x40 MLOAD PUSH4 0x478A83A1 PUSH1 0xE0 SHL DUP2 MSTORE PUSH1 0x1 PUSH1 0x1 PUSH1 0xA0 SHL SUB DUP11 DUP2 AND PUSH1 0x4 DUP4 ADD MSTORE DUP10 DUP2 AND PUSH1 0x24 DUP4 ADD MSTORE DUP8 DUP2 AND PUSH1 0x44 DUP4 ADD MSTORE PUSH1 0x1 PUSH1 0x1 PUSH1 0x40 SHL SUB DUP1 DUP9 AND PUSH1 0x64 DUP5 ADD MSTORE DUP1 DUP8 AND PUSH1 0x84 DUP5 ADD MSTORE DUP1 DUP7 AND PUSH1 0xA4 DUP5 ADD MSTORE DUP1 DUP6 AND PUSH1 0xC4 DUP5 ADD MSTORE DUP4 AND PUSH1 0xE4 DUP4 ADD MSTORE PUSH0 SWAP2 SWAP1 DUP10 AND SWAP1 PUSH4 0x478A83A1 SWAP1 PUSH2 0x104 ADD PUSH1 0x20 PUSH1 0x40 MLOAD DUP1 DUP4 SUB DUP2 PUSH0 DUP8 GAS CALL ISZERO DUP1 ISZERO PUSH2 0x44AA JUMPI RETURNDATASIZE PUSH0 PUSH0 RETURNDATACOPY RETURNDATASIZE PUSH0 REVERT JUMPDEST POP POP POP POP PUSH1 0x40 MLOAD RETURNDATASIZE PUSH1 0x1F NOT PUSH1 0x1F DUP3 ADD AND DUP3 ADD DUP1 PUSH1 0x40 MSTORE POP DUP2 ADD SWAP1 PUSH2 0x44CE SWAP2 SWAP1 PUSH2 0x5384 JUMP JUMPDEST SWAP11 SWAP10 POP POP POP POP POP POP POP POP POP POP JUMP JUMPDEST PUSH1 0x8 SLOAD PUSH1 0xFF AND PUSH2 0xA9B JUMPI PUSH1 0x40 MLOAD PUSH4 0x8DFC202B PUSH1 0xE0 SHL DUP2 MSTORE PUSH1 0x4 ADD PUSH1 0x40 MLOAD DUP1 SWAP2 SUB SWAP1 REVERT JUMPDEST PUSH2 0x4509 DUP3 DUP3 PUSH2 0x473A JUMP JUMPDEST PUSH0 DUP2 DUP2 MSTORE PUSH1 0x2 PUSH1 0x20 MSTORE PUSH1 0x40 SWAP1 DUP2 SWAP1 KECCAK256 DUP1 SLOAD PUSH1 0xFF NOT AND PUSH1 0x1 OR SWAP1 SSTORE MLOAD PUSH32 0x32BC66BE43DBCCB7487781D168EB7BDA224628A3B2C3388BDF69B532A3A1611 SWAP1 PUSH2 0x4553 SWAP1 DUP4 DUP2 MSTORE PUSH1 0x20 ADD SWAP1 JUMP JUMPDEST PUSH1 0x40 MLOAD DUP1 SWAP2 SUB SWAP1 LOG1 POP POP JUMP JUMPDEST PUSH0 PUSH0 PUSH0 PUSH0 PUSH2 0x456D DUP7 DUP7 PUSH2 0x47D5 JUMP JUMPDEST SWAP3 POP SWAP3 POP SWAP3 POP PUSH2 0x457D DUP3 DUP3 PUSH2 0x481E JUMP JUMPDEST POP SWAP1 SWAP5 SWAP4 POP POP POP POP JUMP JUMPDEST PUSH0 DUP1 PUSH19 0x184F03E93FF9F4DAA797ED6E38ED64BF6A1F01 PUSH1 0x40 SHL DUP4 LT PUSH2 0x45C5 JUMPI PUSH19 0x184F03E93FF9F4DAA797ED6E38ED64BF6A1F01 PUSH1 0x40 SHL DUP4 DIV SWAP3 POP PUSH1 0x40 ADD JUMPDEST PUSH14 0x4EE2D6D415B85ACEF8100000000 DUP4 LT PUSH2 0x45F1 JUMPI PUSH14 0x4EE2D6D415B85ACEF8100000000 DUP4 DIV SWAP3 POP PUSH1 0x20 ADD JUMPDEST PUSH7 0x2386F26FC10000 DUP4 LT PUSH2 0x460F JUMPI PUSH7 0x2386F26FC10000 DUP4 DIV SWAP3 POP PUSH1 0x10 ADD JUMPDEST PUSH4 0x5F5E100 DUP4 LT PUSH2 0x4627 JUMPI PUSH4 0x5F5E100 DUP4 DIV SWAP3 POP PUSH1 0x8 ADD JUMPDEST PUSH2 0x2710 DUP4 LT PUSH2 0x463B JUMPI PUSH2 0x2710 DUP4 DIV SWAP3 POP PUSH1 0x4 ADD JUMPDEST PUSH1 0x64 DUP4 LT PUSH2 0x464D JUMPI PUSH1 0x64 DUP4 DIV SWAP3 POP PUSH1 0x2 ADD JUMPDEST PUSH1 0xA DUP4 LT PUSH2 0xC1F JUMPI PUSH1 0x1 ADD SWAP3 SWAP2 POP POP JUMP JUMPDEST PUSH0 DUP2 DUP2 MSTORE PUSH1 0x2 PUSH1 0x20 MSTORE PUSH1 0x40 SWAP1 KECCAK256 DUP1 SLOAD PUSH1 0xFF NOT AND SWAP1 SSTORE PUSH2 0x467C DUP2 PUSH2 0x48D6 JUMP JUMPDEST PUSH1 0x40 MLOAD DUP2 DUP2 MSTORE PUSH32 0xF27B6CE5B2F5E68DDB2FD95A8A909D4ECF1DAAAC270935FFF052FEACB24F1842 SWAP1 PUSH1 0x20 ADD PUSH2 0xB01 JUMP JUMPDEST PUSH0 DUP3 DUP2 MSTORE PUSH1 0x2 PUSH1 0x20 MSTORE PUSH1 0x40 SWAP1 KECCAK256 DUP1 SLOAD PUSH1 0xFF NOT AND DUP3 ISZERO DUP1 ISZERO SWAP2 SWAP1 SWAP2 OR SWAP1 SWAP2 SSTORE PUSH2 0x46FE JUMPI PUSH1 0x40 MLOAD DUP3 DUP2 MSTORE PUSH32 0x32BC66BE43DBCCB7487781D168EB7BDA224628A3B2C3388BDF69B532A3A1611 SWAP1 PUSH1 0x20 ADD PUSH2 0x4553 JUMP JUMPDEST PUSH1 0x40 MLOAD DUP3 DUP2 MSTORE PUSH32 0xF27B6CE5B2F5E68DDB2FD95A8A909D4ECF1DAAAC270935FFF052FEACB24F1842 SWAP1 PUSH1 0x20 ADD PUSH2 0x4553 JUMP JUMPDEST PUSH2 0xA54 PUSH0 DUP5 DUP5 DUP5 PUSH2 0x48E0 JUMP JUMPDEST PUSH2 0x4745 PUSH0 DUP4 DUP4 PUSH2 0x2F9A JUMP JUMPDEST DUP2 PUSH1 0x60 SHL PUSH1 0x60 SHR SWAP2 POP DUP1 PUSH0 MSTORE PUSH8 0x3EC412A9852D173D PUSH1 0xC1 SHL PUSH1 0x1C MSTORE PUSH1 0x20 PUSH0 KECCAK256 DUP2 ADD DUP2 ADD DUP1 SLOAD DUP1 PUSH1 0x60 SHL ISZERO PUSH2 0x4780 JUMPI PUSH4 0xC991CBB1 PUSH0 MSTORE PUSH1 0x4 PUSH1 0x1C REVERT JUMPDEST DUP4 OR SWAP1 SSTORE PUSH0 DUP3 SWAP1 MSTORE PUSH1 0x1C PUSH1 0xC KECCAK256 DUP1 SLOAD PUSH1 0x1 ADD PUSH4 0xFFFFFFFF DUP2 AND DUP5 MUL PUSH2 0x47B4 JUMPI PUSH8 0xEA553B3401336CEA DUP5 ISZERO PUSH1 0x2 SHL MSTORE PUSH1 0x4 PUSH1 0x1C REVERT JUMPDEST SWAP1 SSTORE DUP1 DUP3 PUSH0 PUSH0 MLOAD PUSH1 0x20 PUSH2 0x570B PUSH0 CODECOPY PUSH0 MLOAD SWAP1 PUSH0 MSTORE DUP2 CODESIZE LOG4 PUSH2 0xA64 PUSH0 DUP4 DUP4 PUSH2 0x3001 JUMP JUMPDEST PUSH0 PUSH0 PUSH0 DUP4 MLOAD PUSH1 0x41 SUB PUSH2 0x480C JUMPI PUSH1 0x20 DUP5 ADD MLOAD PUSH1 0x40 DUP6 ADD MLOAD PUSH1 0x60 DUP7 ADD MLOAD PUSH0 BYTE PUSH2 0x47FE DUP9 DUP3 DUP6 DUP6 PUSH2 0x49DF JUMP JUMPDEST SWAP6 POP SWAP6 POP SWAP6 POP POP POP POP PUSH2 0x4817 JUMP JUMPDEST POP POP DUP2 MLOAD PUSH0 SWAP2 POP PUSH1 0x2 SWAP1 JUMPDEST SWAP3 POP SWAP3 POP SWAP3 JUMP JUMPDEST PUSH0 DUP3 PUSH1 0x3 DUP2 GT ISZERO PUSH2 0x4831 JUMPI PUSH2 0x4831 PUSH2 0x5541 JUMP JUMPDEST SUB PUSH2 0x483A JUMPI POP POP JUMP JUMPDEST PUSH1 0x1 DUP3 PUSH1 0x3 DUP2 GT ISZERO PUSH2 0x484E JUMPI PUSH2 0x484E PUSH2 0x5541 JUMP JUMPDEST SUB PUSH2 0x486C JUMPI PUSH1 0x40 MLOAD PUSH4 0xF645EEDF PUSH1 0xE0 SHL DUP2 MSTORE PUSH1 0x4 ADD PUSH1 0x40 MLOAD DUP1 SWAP2 SUB SWAP1 REVERT JUMPDEST PUSH1 0x2 DUP3 PUSH1 0x3 DUP2 GT ISZERO PUSH2 0x4880 JUMPI PUSH2 0x4880 PUSH2 0x5541 JUMP JUMPDEST SUB PUSH2 0x48A1 JUMPI PUSH1 0x40 MLOAD PUSH4 0xFCE698F7 PUSH1 0xE0 SHL DUP2 MSTORE PUSH1 0x4 DUP2 ADD DUP3 SWAP1 MSTORE PUSH1 0x24 ADD PUSH2 0x1E37 JUMP JUMPDEST PUSH1 0x3 DUP3 PUSH1 0x3 DUP2 GT ISZERO PUSH2 0x48B5 JUMPI PUSH2 0x48B5 PUSH2 0x5541 JUMP JUMPDEST SUB PUSH2 0xA64 JUMPI PUSH1 0x40 MLOAD PUSH4 0x35E2F383 PUSH1 0xE2 SHL DUP2 MSTORE PUSH1 0x4 DUP2 ADD DUP3 SWAP1 MSTORE PUSH1 0x24 ADD PUSH2 0x1E37 JUMP JUMPDEST PUSH2 0x26CB PUSH0 DUP3 PUSH2 0x4AA7 JUMP JUMPDEST PUSH2 0x48EB DUP4 DUP4 DUP4 PUSH2 0x2F9A JUMP JUMPDEST PUSH0 DUP2 DUP2 MSTORE PUSH1 0x1 PUSH1 0x1 PUSH1 0xA0 SHL SUB SWAP5 DUP6 AND PUSH8 0x3EC412A9852D173D PUSH1 0xC1 SHL DUP2 OR PUSH1 0x1C MSTORE PUSH1 0x20 SWAP1 SWAP2 KECCAK256 DUP3 ADD DUP3 ADD DUP1 SLOAD SWAP2 SWAP6 SWAP5 DUP6 AND SWAP5 SWAP4 DUP5 AND SWAP4 DUP3 AND SWAP2 DUP3 DUP7 EQ DUP4 MUL PUSH2 0x4941 JUMPI PUSH8 0xCEEA21B6A1148100 DUP4 ISZERO PUSH1 0x2 SHL MSTORE PUSH1 0x4 PUSH1 0x1C REVERT JUMPDEST DUP6 PUSH0 MSTORE DUP2 PUSH1 0x1 ADD SLOAD SWAP3 POP DUP3 DUP8 EQ DUP7 DUP9 EQ OR DUP8 ISZERO OR PUSH2 0x4970 JUMPI PUSH1 0x30 PUSH1 0xC KECCAK256 SLOAD PUSH2 0x4970 JUMPI PUSH4 0x4B6E7F18 PUSH0 MSTORE PUSH1 0x4 PUSH1 0x1C REVERT JUMPDEST DUP3 ISZERO PUSH2 0x497D JUMPI PUSH0 DUP3 PUSH1 0x1 ADD SSTORE JUMPDEST DUP6 DUP6 XOR XOR SWAP1 SSTORE POP PUSH1 0x1C PUSH1 0xC DUP2 DUP2 KECCAK256 DUP1 SLOAD PUSH0 NOT ADD SWAP1 SSTORE PUSH0 DUP5 SWAP1 MSTORE KECCAK256 DUP1 SLOAD PUSH1 0x1 ADD PUSH4 0xFFFFFFFF DUP2 AND DUP5 MUL PUSH2 0x49BE JUMPI PUSH8 0xEA553B3401336CEA DUP5 ISZERO PUSH1 0x2 SHL MSTORE PUSH1 0x4 PUSH1 0x1C REVERT JUMPDEST SWAP1 SSTORE DUP1 DUP3 DUP5 PUSH0 MLOAD PUSH1 0x20 PUSH2 0x570B PUSH0 CODECOPY PUSH0 MLOAD SWAP1 PUSH0 MSTORE PUSH0 CODESIZE LOG4 PUSH2 0xFE2 DUP4 DUP4 DUP4 PUSH2 0x3001 JUMP JUMPDEST PUSH0 DUP1 DUP1 PUSH32 0x7FFFFFFFFFFFFFFFFFFFFFFFFFFFFFFF5D576E7357A4501DDFE92F46681B20A0 DUP5 GT ISZERO PUSH2 0x4A18 JUMPI POP PUSH0 SWAP2 POP PUSH1 0x3 SWAP1 POP DUP3 PUSH2 0x4A9D JUMP JUMPDEST PUSH1 0x40 DUP1 MLOAD PUSH0 DUP1 DUP3 MSTORE PUSH1 0x20 DUP3 ADD DUP1 DUP5 MSTORE DUP11 SWAP1 MSTORE PUSH1 0xFF DUP10 AND SWAP3 DUP3 ADD SWAP3 SWAP1 SWAP3 MSTORE PUSH1 0x60 DUP2 ADD DUP8 SWAP1 MSTORE PUSH1 0x80 DUP2 ADD DUP7 SWAP1 MSTORE PUSH1 0x1 SWAP1 PUSH1 0xA0 ADD PUSH1 0x20 PUSH1 0x40 MLOAD PUSH1 0x20 DUP2 SUB SWAP1 DUP1 DUP5 SUB SWAP1 DUP6 GAS STATICCALL ISZERO DUP1 ISZERO PUSH2 0x4A69 JUMPI RETURNDATASIZE PUSH0 PUSH0 RETURNDATACOPY RETURNDATASIZE PUSH0 REVERT JUMPDEST POP POP PUSH1 0x40 MLOAD PUSH1 0x1F NOT ADD MLOAD SWAP2 POP POP PUSH1 0x1 PUSH1 0x1 PUSH1 0xA0 SHL SUB DUP2 AND PUSH2 0x4A94 JUMPI POP PUSH0 SWAP3 POP PUSH1 0x1 SWAP2 POP DUP3 SWAP1 POP PUSH2 0x4A9D JUMP JUMPDEST SWAP3 POP PUSH0 SWAP2 POP DUP2 SWAP1 POP JUMPDEST SWAP5 POP SWAP5 POP SWAP5 SWAP2 POP POP JUMP JUMPDEST PUSH0 PUSH2 0x4AB1 DUP3 PUSH2 0x1681 JUMP JUMPDEST SWAP1 POP PUSH2 0x4ABE DUP2 PUSH0 DUP5 PUSH2 0x2F9A JUMP JUMPDEST POP PUSH0 DUP2 DUP2 MSTORE PUSH1 0x1 PUSH1 0x1 PUSH1 0xA0 SHL SUB SWAP3 DUP4 AND PUSH8 0x3EC412A9852D173D PUSH1 0xC1 SHL DUP2 OR PUSH1 0x1C MSTORE PUSH1 0x20 SWAP1 SWAP2 KECCAK256 DUP3 ADD DUP3 ADD DUP1 SLOAD SWAP2 SWAP4 DUP3 AND SWAP2 DUP3 PUSH2 0x4B01 JUMPI PUSH4 0xCEEA21B6 PUSH0 MSTORE PUSH1 0x4 PUSH1 0x1C REVERT JUMPDEST DUP3 PUSH0 MSTORE DUP2 PUSH1 0x1 ADD SLOAD DUP1 DUP7 EQ DUP5 DUP8 EQ OR DUP7 ISZERO OR PUSH2 0x4B2E JUMPI PUSH1 0x30 PUSH1 0xC KECCAK256 SLOAD PUSH2 0x4B2E JUMPI PUSH4 0x4B6E7F18 PUSH0 MSTORE PUSH1 0x4 PUSH1 0x1C REVERT JUMPDEST DUP1 ISZERO PUSH2 0x4B3B JUMPI PUSH0 DUP4 PUSH1 0x1 ADD SSTORE JUMPDEST POP DUP3 XOR SWAP1 SSTORE PUSH1 0x1C PUSH1 0xC KECCAK256 DUP1 SLOAD PUSH0 NOT ADD SWAP1 SSTORE DUP2 PUSH0 DUP3 PUSH0 MLOAD PUSH1 0x20 PUSH2 0x570B PUSH0 CODECOPY PUSH0 MLOAD SWAP1 PUSH0 MSTORE DUP3 CODESIZE LOG4 PUSH2 0xA54 DUP2 PUSH0 DUP5 PUSH2 0x3001 JUMP JUMPDEST PUSH1 0x40 MLOAD DUP1 PUSH1 0x80 ADD PUSH1 0x40 MSTORE DUP1 PUSH0 ISZERO ISZERO DUP2 MSTORE PUSH1 0x20 ADD PUSH2 0x4B99 PUSH1 0x40 MLOAD DUP1 PUSH1 0x40 ADD PUSH1 0x40 MSTORE DUP1 PUSH0 DUP2 MSTORE PUSH1 0x20 ADD PUSH0 DUP2 MSTORE POP SWAP1 JUMP JUMPDEST DUP2 MSTORE PUSH1 0x20 ADD PUSH0 DUP2 MSTORE PUSH1 0x20 ADD PUSH0 DUP2 MSTORE POP SWAP1 JUMP JUMPDEST PUSH0 PUSH1 0x20 DUP3 DUP5 SUB SLT ISZERO PUSH2 0x4BBB JUMPI PUSH0 PUSH0 REVERT JUMPDEST DUP2 CALLDATALOAD PUSH1 0x1 PUSH1 0x1 PUSH1 0xE0 SHL SUB NOT DUP2 AND DUP2 EQ PUSH2 0x1F16 JUMPI PUSH0 PUSH0 REVERT JUMPDEST PUSH0 DUP2 MLOAD DUP1 DUP5 MSTORE DUP1 PUSH1 0x20 DUP5 ADD PUSH1 0x20 DUP7 ADD MCOPY PUSH0 PUSH1 0x20 DUP3 DUP7 ADD ADD MSTORE PUSH1 0x20 PUSH1 0x1F NOT PUSH1 0x1F DUP4 ADD AND DUP6 ADD ADD SWAP2 POP POP SWAP3 SWAP2 POP POP JUMP JUMPDEST PUSH1 0x20 DUP2 MSTORE PUSH0 PUSH2 0x1F16 PUSH1 0x20 DUP4 ADD DUP5 PUSH2 0x4BD2 JUMP JUMPDEST PUSH0 PUSH1 0x20 DUP3 DUP5 SUB SLT ISZERO PUSH2 0x4C22 JUMPI PUSH0 PUSH0 REVERT JUMPDEST POP CALLDATALOAD SWAP2 SWAP1 POP JUMP JUMPDEST PUSH1 0x1 PUSH1 0x1 PUSH1 0xA0 SHL SUB DUP2 AND DUP2 EQ PUSH2 0x26CB JUMPI PUSH0 PUSH0 REVERT JUMPDEST PUSH0 PUSH0 PUSH0 PUSH1 0x60 DUP5 DUP7 SUB SLT ISZERO PUSH2 0x4C4F JUMPI PUSH0 PUSH0 REVERT JUMPDEST DUP4 CALLDATALOAD PUSH2 0x4C5A DUP2 PUSH2 0x4C29 JUMP JUMPDEST SWAP3 POP PUSH1 0x20 DUP5 ADD CALLDATALOAD PUSH2 0x4C6A DUP2 PUSH2 0x4C29 JUMP JUMPDEST SWAP3 SWAP6 SWAP3 SWAP5 POP POP POP PUSH1 0x40 SWAP2 SWAP1 SWAP2 ADD CALLDATALOAD SWAP1 JUMP JUMPDEST PUSH0 PUSH0 PUSH1 0x40 DUP4 DUP6 SUB SLT ISZERO PUSH2 0x4C8C JUMPI PUSH0 PUSH0 REVERT JUMPDEST DUP3 CALLDATALOAD PUSH2 0x4C97 DUP2 PUSH2 0x4C29 JUMP JUMPDEST SWAP5 PUSH1 0x20 SWAP4 SWAP1 SWAP4 ADD CALLDATALOAD SWAP4 POP POP POP JUMP JUMPDEST PUSH0 PUSH0 PUSH1 0x40 DUP4 DUP6 SUB SLT ISZERO PUSH2 0x4CB6 JUMPI PUSH0 PUSH0 REVERT JUMPDEST DUP3 CALLDATALOAD SWAP2 POP PUSH1 0x20 DUP4 ADD CALLDATALOAD PUSH2 0x4CC8 DUP2 PUSH2 0x4C29 JUMP JUMPDEST DUP1 SWAP2 POP POP SWAP3 POP SWAP3 SWAP1 POP JUMP JUMPDEST PUSH0 PUSH0 DUP3 DUP5 SUB PUSH1 0x60 DUP2 SLT ISZERO PUSH2 0x4CE5 JUMPI PUSH0 PUSH0 REVERT JUMPDEST DUP4 CALLDATALOAD PUSH1 0x1 PUSH1 0x1 PUSH1 0x40 SHL SUB DUP2 GT ISZERO PUSH2 0x4CFA JUMPI PUSH0 PUSH0 REVERT JUMPDEST DUP5 ADD PUSH2 0x1E0 DUP2 DUP8 SUB SLT ISZERO PUSH2 0x4D0C JUMPI PUSH0 PUSH0 REVERT JUMPDEST SWAP3 POP PUSH1 0x40 PUSH1 0x1F NOT DUP3 ADD SLT ISZERO PUSH2 0x4D1F JUMPI PUSH0 PUSH0 REVERT JUMPDEST POP PUSH1 0x20 DUP4 ADD SWAP1 POP SWAP3 POP SWAP3 SWAP1 POP JUMP JUMPDEST PUSH0 PUSH0 DUP4 PUSH1 0x1F DUP5 ADD SLT PUSH2 0x4D3D JUMPI PUSH0 PUSH0 REVERT JUMPDEST POP DUP2 CALLDATALOAD PUSH1 0x1 PUSH1 0x1 PUSH1 0x40 SHL SUB DUP2 GT ISZERO PUSH2 0x4D53 JUMPI PUSH0 PUSH0 REVERT JUMPDEST PUSH1 0x20 DUP4 ADD SWAP2 POP DUP4 PUSH1 0x20 DUP3 PUSH1 0x5 SHL DUP6 ADD ADD GT ISZERO PUSH2 0x4D6D JUMPI PUSH0 PUSH0 REVERT JUMPDEST SWAP3 POP SWAP3 SWAP1 POP JUMP JUMPDEST PUSH0 PUSH0 PUSH0 PUSH1 0x40 DUP5 DUP7 SUB SLT ISZERO PUSH2 0x4D86 JUMPI PUSH0 PUSH0 REVERT JUMPDEST DUP4 CALLDATALOAD SWAP3 POP PUSH1 0x20 DUP5 ADD CALLDATALOAD PUSH1 0x1 PUSH1 0x1 PUSH1 0x40 SHL SUB DUP2 GT ISZERO PUSH2 0x4DA2 JUMPI PUSH0 PUSH0 REVERT JUMPDEST PUSH2 0x4DAE DUP7 DUP3 DUP8 ADD PUSH2 0x4D2D JUMP JUMPDEST SWAP5 SWAP8 SWAP1 SWAP7 POP SWAP4 SWAP5 POP POP POP POP JUMP JUMPDEST PUSH0 PUSH0 PUSH0 PUSH0 DUP5 DUP7 SUB PUSH2 0x120 DUP2 SLT ISZERO PUSH2 0x4DD0 JUMPI PUSH0 PUSH0 REVERT JUMPDEST DUP6 CALLDATALOAD SWAP5 POP PUSH1 0xE0 PUSH1 0x1F NOT DUP3 ADD SLT ISZERO PUSH2 0x4DE5 JUMPI PUSH0 PUSH0 REVERT JUMPDEST POP PUSH1 0x20 DUP6 ADD SWAP3 POP PUSH2 0x100 DUP6 ADD CALLDATALOAD PUSH1 0x1 PUSH1 0x1 PUSH1 0x40 SHL SUB DUP2 GT ISZERO PUSH2 0x4E05 JUMPI PUSH0 PUSH0 REVERT JUMPDEST PUSH2 0x4E11 DUP8 DUP3 DUP9 ADD PUSH2 0x4D2D JUMP JUMPDEST SWAP6 SWAP9 SWAP5 SWAP8 POP SWAP6 POP POP POP POP JUMP JUMPDEST PUSH1 0x80 DUP2 MSTORE PUSH0 PUSH2 0x4E2F PUSH1 0x80 DUP4 ADD DUP8 PUSH2 0x4BD2 JUMP JUMPDEST DUP3 DUP2 SUB PUSH1 0x20 DUP5 ADD MSTORE PUSH2 0x4E41 DUP2 DUP8 PUSH2 0x4BD2 JUMP JUMPDEST SWAP1 POP DUP3 DUP2 SUB PUSH1 0x40 DUP5 ADD MSTORE PUSH2 0x4E55 DUP2 DUP7 PUSH2 0x4BD2 JUMP JUMPDEST SWAP2 POP POP DUP3 PUSH1 0x60 DUP4 ADD MSTORE SWAP6 SWAP5 POP POP POP POP POP JUMP JUMPDEST PUSH0 PUSH0 PUSH0 PUSH0 PUSH0 PUSH0 PUSH1 0xC0 DUP8 DUP10 SUB SLT ISZERO PUSH2 0x4E7C JUMPI PUSH0 PUSH0 REVERT JUMPDEST POP POP DUP5 CALLDATALOAD SWAP7 PUSH1 0x20 DUP7 ADD CALLDATALOAD SWAP7 POP PUSH1 0x40 DUP7 ADD CALLDATALOAD SWAP6 PUSH1 0x60 DUP2 ADD CALLDATALOAD SWAP6 POP PUSH1 0x80 DUP2 ADD CALLDATALOAD SWAP5 POP PUSH1 0xA0 ADD CALLDATALOAD SWAP3 POP SWAP1 POP JUMP JUMPDEST PUSH0 PUSH1 0x20 DUP3 DUP5 SUB SLT ISZERO PUSH2 0x4EB6 JUMPI PUSH0 PUSH0 REVERT JUMPDEST DUP2 CALLDATALOAD PUSH2 0x1F16 DUP2 PUSH2 0x4C29 JUMP JUMPDEST PUSH0 PUSH2 0x100 DUP3 ADD SWAP1 POP PUSH1 0x1 PUSH1 0x1 PUSH1 0x40 SHL SUB DUP4 MLOAD AND DUP3 MSTORE PUSH1 0x1 PUSH1 0x1 PUSH1 0x40 SHL SUB PUSH1 0x20 DUP5 ADD MLOAD AND PUSH1 0x20 DUP4 ADD MSTORE PUSH1 0x1 PUSH1 0x1 PUSH1 0x40 SHL SUB PUSH1 0x40 DUP5 ADD MLOAD AND PUSH1 0x40 DUP4 ADD MSTORE PUSH1 0x60 DUP4 ADD MLOAD PUSH2 0x4F11 PUSH1 0x60 DUP5 ADD DUP3 PUSH2 0xFFFF AND SWAP1 MSTORE JUMP JUMPDEST POP PUSH1 0x80 DUP4 ADD MLOAD PUSH2 0x4F27 PUSH1 0x80 DUP5 ADD DUP3 PUSH2 0xFFFF AND SWAP1 MSTORE JUMP JUMPDEST POP PUSH1 0xA0 DUP4 ADD MLOAD PUSH2 0x4F3D PUSH1 0xA0 DUP5 ADD DUP3 PUSH2 0xFFFF AND SWAP1 MSTORE JUMP JUMPDEST POP PUSH1 0xC0 DUP4 ADD MLOAD PUSH2 0x4F53 PUSH1 0xC0 DUP5 ADD DUP3 PUSH2 0xFFFF AND SWAP1 MSTORE JUMP JUMPDEST POP PUSH1 0xE0 SWAP3 DUP4 ADD MLOAD SWAP2 SWAP1 SWAP3 ADD MSTORE SWAP1 JUMP JUMPDEST DUP1 ISZERO ISZERO DUP2 EQ PUSH2 0x26CB JUMPI PUSH0 PUSH0 REVERT JUMPDEST PUSH0 PUSH0 PUSH1 0x40 DUP4 DUP6 SUB SLT ISZERO PUSH2 0x4F80 JUMPI PUSH0 PUSH0 REVERT JUMPDEST DUP3 CALLDATALOAD PUSH2 0x4F8B DUP2 PUSH2 0x4C29 JUMP JUMPDEST SWAP2 POP PUSH1 0x20 DUP4 ADD CALLDATALOAD PUSH2 0x4CC8 DUP2 PUSH2 0x4F62 JUMP JUMPDEST PUSH0 PUSH0 DUP4 PUSH1 0x1F DUP5 ADD SLT PUSH2 0x4FAB JUMPI PUSH0 PUSH0 REVERT JUMPDEST POP DUP2 CALLDATALOAD PUSH1 0x1 PUSH1 0x1 PUSH1 0x40 SHL SUB DUP2 GT ISZERO PUSH2 0x4FC1 JUMPI PUSH0 PUSH0 REVERT JUMPDEST PUSH1 0x20 DUP4 ADD SWAP2 POP DUP4 PUSH1 0x20 DUP3 DUP6 ADD ADD GT ISZERO PUSH2 0x4D6D JUMPI PUSH0 PUSH0 REVERT JUMPDEST PUSH0 PUSH0 PUSH0 PUSH0 PUSH0 PUSH1 0x80 DUP7 DUP9 SUB SLT ISZERO PUSH2 0x4FEC JUMPI PUSH0 PUSH0 REVERT JUMPDEST DUP6 CALLDATALOAD PUSH2 0x4FF7 DUP2 PUSH2 0x4C29 JUMP JUMPDEST SWAP5 POP PUSH1 0x20 DUP7 ADD CALLDATALOAD PUSH2 0x5007 DUP2 PUSH2 0x4C29 JUMP JUMPDEST SWAP4 POP PUSH1 0x40 DUP7 ADD CALLDATALOAD SWAP3 POP PUSH1 0x60 DUP7 ADD CALLDATALOAD PUSH1 0x1 PUSH1 0x1 PUSH1 0x40 SHL SUB DUP2 GT ISZERO PUSH2 0x5028 JUMPI PUSH0 PUSH0 REVERT JUMPDEST PUSH2 0x5034 DUP9 DUP3 DUP10 ADD PUSH2 0x4F9B JUMP JUMPDEST SWAP7 SWAP10 SWAP6 SWAP9 POP SWAP4 SWAP7 POP SWAP3 SWAP5 SWAP4 SWAP3 POP POP POP JUMP JUMPDEST PUSH0 PUSH0 PUSH0 PUSH0 PUSH0 PUSH1 0x60 DUP7 DUP9 SUB SLT ISZERO PUSH2 0x5059 JUMPI PUSH0 PUSH0 REVERT JUMPDEST DUP6 CALLDATALOAD SWAP5 POP PUSH1 0x20 DUP7 ADD CALLDATALOAD PUSH1 0x1 PUSH1 0x1 PUSH1 0x40 SHL SUB DUP2 GT ISZERO PUSH2 0x5075 JUMPI PUSH0 PUSH0 REVERT JUMPDEST PUSH2 0x5081 DUP9 DUP3 DUP10 ADD PUSH2 0x4F9B JUMP JUMPDEST SWAP1 SWAP6 POP SWAP4 POP POP PUSH1 0x40 DUP7 ADD CALLDATALOAD PUSH1 0x1 PUSH1 0x1 PUSH1 0x40 SHL SUB DUP2 GT ISZERO PUSH2 0x5028 JUMPI PUSH0 PUSH0 REVERT JUMPDEST PUSH0 PUSH0 PUSH0 PUSH1 0x60 DUP5 DUP7 SUB SLT ISZERO PUSH2 0x50B1 JUMPI PUSH0 PUSH0 REVERT JUMPDEST POP POP DUP2 CALLDATALOAD SWAP4 PUSH1 0x20 DUP4 ADD CALLDATALOAD SWAP4 POP PUSH1 0x40 SWAP1 SWAP3 ADD CALLDATALOAD SWAP2 SWAP1 POP JUMP JUMPDEST PUSH0 PUSH0 PUSH1 0x40 DUP4 DUP6 SUB SLT ISZERO PUSH2 0x50D9 JUMPI PUSH0 PUSH0 REVERT JUMPDEST DUP3 CALLDATALOAD PUSH2 0x50E4 DUP2 PUSH2 0x4C29 JUMP JUMPDEST SWAP2 POP PUSH1 0x20 DUP4 ADD CALLDATALOAD PUSH2 0x4CC8 DUP2 PUSH2 0x4C29 JUMP JUMPDEST PUSH0 PUSH2 0x120 DUP3 ADD SWAP1 POP DUP3 MLOAD DUP3 MSTORE PUSH1 0x20 DUP4 ADD MLOAD PUSH1 0x20 DUP4 ADD MSTORE PUSH1 0x40 DUP4 ADD MLOAD PUSH1 0x40 DUP4 ADD MSTORE PUSH1 0x60 DUP4 ADD MLOAD PUSH1 0x60 DUP4 ADD MSTORE PUSH1 0x80 DUP4 ADD MLOAD PUSH1 0x80 DUP4 ADD MSTORE PUSH1 0xA0 DUP4 ADD MLOAD PUSH1 0xA0 DUP4 ADD MSTORE PUSH1 0xC0 DUP4 ADD MLOAD ISZERO ISZERO PUSH1 0xC0 DUP4 ADD MSTORE PUSH1 0xE0 DUP4 ADD MLOAD ISZERO ISZERO PUSH1 0xE0 DUP4 ADD MSTORE PUSH2 0x100 DUP4 ADD MLOAD PUSH2 0x515F PUSH2 0x100 DUP5 ADD DUP3 ISZERO ISZERO SWAP1 MSTORE JUMP JUMPDEST POP SWAP3 SWAP2 POP POP JUMP JUMPDEST PUSH1 0x1 DUP2 DUP2 SHR SWAP1 DUP3 AND DUP1 PUSH2 0x517A JUMPI PUSH1 0x7F DUP3 AND SWAP2 POP JUMPDEST PUSH1 0x20 DUP3 LT DUP2 SUB PUSH2 0x5198 JUMPI PUSH4 0x4E487B71 PUSH1 0xE0 SHL PUSH0 MSTORE PUSH1 0x22 PUSH1 0x4 MSTORE PUSH1 0x24 PUSH0 REVERT JUMPDEST POP SWAP2 SWAP1 POP JUMP JUMPDEST DUP5 DUP2 MSTORE PUSH1 0xA0 DUP2 ADD PUSH2 0x51BC PUSH1 0x20 DUP4 ADD DUP7 DUP1 MLOAD DUP3 MSTORE PUSH1 0x20 SWAP1 DUP2 ADD MLOAD SWAP2 ADD MSTORE JUMP JUMPDEST PUSH1 0x60 DUP3 ADD SWAP4 SWAP1 SWAP4 MSTORE PUSH1 0x80 ADD MSTORE SWAP3 SWAP2 POP POP JUMP JUMPDEST PUSH0 PUSH1 0x20 DUP3 DUP5 SUB SLT ISZERO PUSH2 0x51DE JUMPI PUSH0 PUSH0 REVERT JUMPDEST POP MLOAD SWAP2 SWAP1 POP JUMP JUMPDEST PUSH1 0x1 PUSH1 0x1 PUSH1 0x40 SHL SUB DUP2 AND DUP2 EQ PUSH2 0x26CB JUMPI PUSH0 PUSH0 REVERT JUMPDEST DUP1 CALLDATALOAD PUSH2 0x16B8 DUP2 PUSH2 0x51E5 JUMP JUMPDEST PUSH0 PUSH1 0x20 DUP3 DUP5 SUB SLT ISZERO PUSH2 0x5214 JUMPI PUSH0 PUSH0 REVERT JUMPDEST DUP2 CALLDATALOAD PUSH2 0x1F16 DUP2 PUSH2 0x51E5 JUMP JUMPDEST PUSH4 0x4E487B71 PUSH1 0xE0 SHL PUSH0 MSTORE PUSH1 0x11 PUSH1 0x4 MSTORE PUSH1 0x24 PUSH0 REVERT JUMPDEST PUSH1 0x1 PUSH1 0x1 PUSH1 0x40 SHL SUB DUP2 DUP2 AND DUP4 DUP3 AND ADD SWAP1 DUP2 GT ISZERO PUSH2 0xC1F JUMPI PUSH2 0xC1F PUSH2 0x521F JUMP JUMPDEST DUP2 DUP2 SUB DUP2 DUP2 GT ISZERO PUSH2 0xC1F JUMPI PUSH2 0xC1F PUSH2 0x521F JUMP JUMPDEST DUP1 DUP3 MUL DUP2 ISZERO DUP3 DUP3 DIV DUP5 EQ OR PUSH2 0xC1F JUMPI PUSH2 0xC1F PUSH2 0x521F JUMP JUMPDEST PUSH0 DUP3 PUSH2 0x5296 JUMPI PUSH4 0x4E487B71 PUSH1 0xE0 SHL PUSH0 MSTORE PUSH1 0x12 PUSH1 0x4 MSTORE PUSH1 0x24 PUSH0 REVERT JUMPDEST POP DIV SWAP1 JUMP JUMPDEST PUSH0 PUSH1 0x20 DUP3 DUP5 SUB SLT ISZERO PUSH2 0x52AB JUMPI PUSH0 PUSH0 REVERT JUMPDEST DUP2 MLOAD PUSH2 0x1F16 DUP2 PUSH2 0x51E5 JUMP JUMPDEST PUSH4 0x4E487B71 PUSH1 0xE0 SHL PUSH0 MSTORE PUSH1 0x41 PUSH1 0x4 MSTORE PUSH1 0x24 PUSH0 REVERT JUMPDEST PUSH1 0x40 DUP1 MLOAD SWAP1 DUP2 ADD PUSH1 0x1 PUSH1 0x1 PUSH1 0x40 SHL SUB DUP2 GT DUP3 DUP3 LT OR ISZERO PUSH2 0x52EC JUMPI PUSH2 0x52EC PUSH2 0x52B6 JUMP JUMPDEST PUSH1 0x40 MSTORE SWAP1 JUMP JUMPDEST PUSH0 PUSH0 DUP3 DUP5 SUB PUSH1 0x60 DUP2 SLT ISZERO PUSH2 0x5304 JUMPI PUSH0 PUSH0 REVERT JUMPDEST DUP4 CALLDATALOAD SWAP3 POP PUSH1 0x40 PUSH1 0x1F NOT DUP3 ADD SLT ISZERO PUSH2 0x5319 JUMPI PUSH0 PUSH0 REVERT JUMPDEST POP PUSH2 0x5322 PUSH2 0x52CA JUMP JUMPDEST PUSH1 0x20 DUP5 DUP2 ADD CALLDATALOAD DUP3 MSTORE PUSH1 0x40 SWAP1 SWAP5 ADD CALLDATALOAD SWAP4 DUP2 ADD SWAP4 SWAP1 SWAP4 MSTORE POP SWAP3 SWAP1 SWAP2 POP JUMP JUMPDEST DUP1 DUP3 ADD DUP1 DUP3 GT ISZERO PUSH2 0xC1F JUMPI PUSH2 0xC1F PUSH2 0x521F JUMP JUMPDEST PUSH0 DUP2 MLOAD DUP1 PUSH1 0x20 DUP5 ADD DUP6 MCOPY PUSH0 SWAP4 ADD SWAP3 DUP4 MSTORE POP SWAP1 SWAP2 SWAP1 POP JUMP JUMPDEST PUSH0 PUSH2 0x537C PUSH2 0x5376 DUP4 DUP7 PUSH2 0x5351 JUMP JUMPDEST DUP5 PUSH2 0x5351 JUMP JUMPDEST SWAP5 SWAP4 POP POP POP POP JUMP JUMPDEST PUSH0 PUSH1 0x20 DUP3 DUP5 SUB SLT ISZERO PUSH2 0x5394 JUMPI PUSH0 PUSH0 REVERT JUMPDEST DUP2 MLOAD PUSH2 0x1F16 DUP2 PUSH2 0x4C29 JUMP JUMPDEST PUSH0 PUSH1 0x20 DUP3 DUP5 SUB SLT ISZERO PUSH2 0x53AF JUMPI PUSH0 PUSH0 REVERT JUMPDEST DUP2 MLOAD PUSH2 0x1F16 DUP2 PUSH2 0x4F62 JUMP JUMPDEST PUSH0 PUSH1 0x20 DUP3 DUP5 SUB SLT ISZERO PUSH2 0x53CA JUMPI PUSH0 PUSH0 REVERT JUMPDEST DUP2 CALLDATALOAD PUSH2 0xFFFF DUP2 AND DUP2 EQ PUSH2 0x1F16 JUMPI PUSH0 PUSH0 REVERT JUMPDEST PUSH0 PUSH0 DUP4 CALLDATALOAD PUSH1 0x1E NOT DUP5 CALLDATASIZE SUB ADD DUP2 SLT PUSH2 0x53F0 JUMPI PUSH0 PUSH0 REVERT JUMPDEST DUP4 ADD DUP1 CALLDATALOAD SWAP2 POP PUSH1 0x1 PUSH1 0x1 PUSH1 0x40 SHL SUB DUP3 GT ISZERO PUSH2 0x5409 JUMPI PUSH0 PUSH0 REVERT JUMPDEST PUSH1 0x20 ADD SWAP2 POP CALLDATASIZE DUP2 SWAP1 SUB DUP3 SGT ISZERO PUSH2 0x4D6D JUMPI PUSH0 PUSH0 REVERT JUMPDEST PUSH1 0x1F DUP3 GT ISZERO PUSH2 0xA54 JUMPI DUP1 PUSH0 MSTORE PUSH1 0x20 PUSH0 KECCAK256 PUSH1 0x1F DUP5 ADD PUSH1 0x5 SHR DUP2 ADD PUSH1 0x20 DUP6 LT ISZERO PUSH2 0x5442 JUMPI POP DUP1 JUMPDEST PUSH1 0x1F DUP5 ADD PUSH1 0x5 SHR DUP3 ADD SWAP2 POP JUMPDEST DUP2 DUP2 LT ISZERO PUSH2 0x1C87 JUMPI PUSH0 DUP2 SSTORE PUSH1 0x1 ADD PUSH2 0x544E JUMP JUMPDEST PUSH1 0x1 PUSH1 0x1 PUSH1 0x40 SHL SUB DUP4 GT ISZERO PUSH2 0x5478 JUMPI PUSH2 0x5478 PUSH2 0x52B6 JUMP JUMPDEST PUSH2 0x548C DUP4 PUSH2 0x5486 DUP4 SLOAD PUSH2 0x5166 JUMP JUMPDEST DUP4 PUSH2 0x541D JUMP JUMPDEST PUSH0 PUSH1 0x1F DUP5 GT PUSH1 0x1 DUP2 EQ PUSH2 0x54BD JUMPI PUSH0 DUP6 ISZERO PUSH2 0x54A6 JUMPI POP DUP4 DUP3 ADD CALLDATALOAD JUMPDEST PUSH0 NOT PUSH1 0x3 DUP8 SWAP1 SHL SHR NOT AND PUSH1 0x1 DUP7 SWAP1 SHL OR DUP4 SSTORE PUSH2 0x1C87 JUMP JUMPDEST PUSH0 DUP4 DUP2 MSTORE PUSH1 0x20 DUP2 KECCAK256 PUSH1 0x1F NOT DUP8 AND SWAP2 JUMPDEST DUP3 DUP2 LT ISZERO PUSH2 0x54EC JUMPI DUP7 DUP6 ADD CALLDATALOAD DUP3 SSTORE PUSH1 0x20 SWAP5 DUP6 ADD SWAP5 PUSH1 0x1 SWAP1 SWAP3 ADD SWAP2 ADD PUSH2 0x54CC JUMP JUMPDEST POP DUP7 DUP3 LT ISZERO PUSH2 0x5508 JUMPI PUSH0 NOT PUSH1 0xF8 DUP9 PUSH1 0x3 SHL AND SHR NOT DUP5 DUP8 ADD CALLDATALOAD AND DUP2 SSTORE JUMPDEST POP POP PUSH1 0x1 DUP6 PUSH1 0x1 SHL ADD DUP4 SSTORE POP POP POP POP POP JUMP JUMPDEST DUP1 CALLDATALOAD PUSH1 0x2 DUP2 LT PUSH2 0x16B8 JUMPI PUSH0 PUSH0 REVERT JUMPDEST PUSH0 PUSH1 0x20 DUP3 DUP5 SUB SLT ISZERO PUSH2 0x5538 JUMPI PUSH0 PUSH0 REVERT JUMPDEST PUSH2 0x1F16 DUP3 PUSH2 0x551A JUMP JUMPDEST PUSH4 0x4E487B71 PUSH1 0xE0 SHL PUSH0 MSTORE PUSH1 0x21 PUSH1 0x4 MSTORE PUSH1 0x24 PUSH0 REVERT JUMPDEST PUSH1 0x1 PUSH1 0x1 PUSH1 0x40 SHL SUB DUP2 DUP2 AND DUP4 DUP3 AND MUL SWAP1 DUP2 AND SWAP1 DUP2 DUP2 EQ PUSH2 0x515F JUMPI PUSH2 0x515F PUSH2 0x521F JUMP JUMPDEST PUSH1 0x2 DUP2 LT PUSH2 0x5593 JUMPI PUSH4 0x4E487B71 PUSH1 0xE0 SHL PUSH0 MSTORE PUSH1 0x21 PUSH1 0x4 MSTORE PUSH1 0x24 PUSH0 REVERT JUMPDEST SWAP1 MSTORE JUMP JUMPDEST PUSH1 0x1 PUSH1 0x1 PUSH1 0xA0 SHL SUB DUP6 AND DUP2 MSTORE PUSH1 0x20 DUP2 ADD DUP5 SWAP1 MSTORE PUSH1 0x40 DUP2 ADD DUP4 SWAP1 MSTORE PUSH2 0x140 DUP2 ADD DUP3 CALLDATALOAD PUSH2 0x55C1 DUP2 PUSH2 0x51E5 JUMP JUMPDEST PUSH1 0x1 PUSH1 0x1 PUSH1 0x40 SHL SUB AND PUSH1 0x60 DUP4 ADD MSTORE PUSH1 0x20 DUP4 ADD CALLDATALOAD PUSH2 0x55DD DUP2 PUSH2 0x51E5 JUMP JUMPDEST PUSH1 0x1 PUSH1 0x1 PUSH1 0x40 SHL SUB AND PUSH1 0x80 DUP4 ADD MSTORE PUSH1 0x40 DUP4 ADD CALLDATALOAD PUSH2 0x55F9 DUP2 PUSH2 0x51E5 JUMP JUMPDEST PUSH1 0x1 PUSH1 0x1 PUSH1 0x40 SHL SUB AND PUSH1 0xA0 DUP4 ADD MSTORE PUSH2 0x5613 PUSH1 0x60 DUP5 ADD PUSH2 0x551A JUMP JUMPDEST PUSH2 0x5620 PUSH1 0xC0 DUP5 ADD DUP3 PUSH2 0x5577 JUMP JUMPDEST POP PUSH2 0x562D PUSH1 0x80 DUP5 ADD PUSH2 0x51F9 JUMP JUMPDEST PUSH1 0x1 PUSH1 0x1 PUSH1 0x40 SHL SUB AND PUSH1 0xE0 DUP4 ADD MSTORE PUSH2 0x5647 PUSH1 0xA0 DUP5 ADD PUSH2 0x51F9 JUMP JUMPDEST PUSH1 0x1 PUSH1 0x1 PUSH1 0x40 SHL SUB AND PUSH2 0x100 DUP4 ADD MSTORE PUSH2 0x5662 PUSH1 0xC0 DUP5 ADD PUSH2 0x51F9 JUMP JUMPDEST PUSH1 0x1 PUSH1 0x1 PUSH1 0x40 SHL SUB DUP2 AND PUSH2 0x120 DUP5 ADD MSTORE POP SWAP6 SWAP5 POP POP POP POP POP JUMP JUMPDEST PUSH0 PUSH1 0x40 DUP3 DUP5 SUB SLT DUP1 ISZERO PUSH2 0x568D JUMPI PUSH0 PUSH0 REVERT JUMPDEST POP PUSH2 0x5696 PUSH2 0x52CA JUMP JUMPDEST DUP3 MLOAD DUP2 MSTORE PUSH1 0x20 SWAP3 DUP4 ADD MLOAD SWAP3 DUP2 ADD SWAP3 SWAP1 SWAP3 MSTORE POP SWAP2 SWAP1 POP JUMP JUMPDEST PUSH0 PUSH1 0x1 DUP3 ADD PUSH2 0x56BE JUMPI PUSH2 0x56BE PUSH2 0x521F JUMP JUMPDEST POP PUSH1 0x1 ADD SWAP1 JUMP JUMPDEST PUSH1 0x20 DUP2 MSTORE DUP2 PUSH1 0x20 DUP3 ADD MSTORE DUP2 DUP4 PUSH1 0x40 DUP4 ADD CALLDATACOPY PUSH0 DUP2 DUP4 ADD PUSH1 0x40 SWAP1 DUP2 ADD SWAP2 SWAP1 SWAP2 MSTORE PUSH1 0x1F SWAP1 SWAP3 ADD PUSH1 0x1F NOT AND ADD ADD SWAP2 SWAP1 POP JUMP JUMPDEST DUP2 MLOAD DUP2 MSTORE PUSH1 0x20 DUP1 DUP4 ADD MLOAD SWAP1 DUP3 ADD MSTORE PUSH1 0x40 DUP2 ADD PUSH2 0xC1F JUMP INVALID 0xDD CALLCODE MSTORE 0xAD SHL 0xE2 0xC8 SWAP12 PUSH10 0xC2B068FC378DAA952BA7 CALL PUSH4 0xC4A11628 CREATE2 GAS 0x4D CREATE2 0x23 0xB3 0xEF LOG2 PUSH5 0x6970667358 0x22 SLT KECCAK256 AND SMOD 0xD7 MSTORE 0x4B 0xCF SWAP5 DUP13 0xE8 0x2D DUP14 SWAP6 CALLF 0x7A67 0xA8 SMOD JUMPI PUSH3 0x7D8763 CREATE CHAINID 0xA7 0xA6 0xAC 0xDD 0xDB SWAP5 SWAP14 0xAC PUSH5 0x736F6C6343 STOP ADDMOD 0x1E STOP CALLER "
		},
		"gasEstimates": {
			"creation": {
				"codeDepositCost": "4473600",
				"executionCost": "54772",
				"totalCost": "4528372"
			},
			"external": {
				"approve(address,uint256)": "28925",
				"balanceOf(address)": "2666",
				"cancel()": "infinite",
				"claimTokenAllocation(uint256,(uint64,uint64,uint64,uint8,uint64,uint64,uint64),bytes32[])": "infinite",
				"decryptSealedBid(uint256,address)": "infinite",
				"emergencyWithdraw(address,address,uint256)": "infinite",
				"getApproved(uint256)": "4705",
				"initialize((uint64,uint64,uint16,uint16,uint16,uint16,uint256,address,address,address,address,address,string,string,string),((uint256,uint256)))": "infinite",
				"initializePublishSaleResults()": "infinite",
				"invest(uint256,bytes,bytes)": "infinite",
				"investorPosition(address)": "infinite",
				"investorVestingStatus(address)": "infinite",
				"isApprovedForAll(address,address)": "infinite",
				"locked(uint256)": "4783",
				"name()": "infinite",
				"ownerOf(uint256)": "2588",
				"pause()": "infinite",
				"paused()": "2447",
				"publishSaleResults(bytes32,bytes32,uint256,uint256,uint256,uint256)": "infinite",
				"refund()": "infinite",
				"releaseVestedTokens()": "infinite",
				"s_positionManagerConfig()": "infinite",
				"safeTransferFrom(address,address,uint256)": "infinite",
				"safeTransferFrom(address,address,uint256,bytes)": "infinite",
				"saleConfiguration()": "5357",
				"saleStatus()": "15811",
				"sealedBidAuctionSaleConfiguration()": "11242",
				"setAcceptedCapital(bytes32)": "27746",
				"setApprovalForAll(address,bool)": "infinite",
				"supplyTokens(uint256,uint256,uint256)": "infinite",
				"supportsInterface(bytes4)": "424",
				"symbol()": "infinite",
				"syncLegionAddresses()": "infinite",
				"tokenURI(uint256)": "infinite",
				"transferFrom(address,address,uint256)": "infinite",
				"transferInvestorPosition(address,address,uint256)": "infinite",
				"transferInvestorPositionWithAuthorization(address,address,uint256,bytes)": "infinite",
				"unpause()": "infinite",
				"vestingConfiguration()": "4670",
				"withdrawExcessInvestedCapital(uint256,bytes32[])": "infinite",
				"withdrawInvestedCapitalIfCanceled()": "infinite",
				"withdrawRaisedCapital()": "infinite"
			},
			"internal": {
				"_verifyCancelLocked()": "infinite",
				"_verifyCancelNotLocked()": "infinite",
				"_verifyPrivateKeyIsPublished()": "infinite",
				"_verifyValidParams(struct ILegionSealedBidAuctionSale.SealedBidAuctionSaleInitializationParams calldata)": "infinite",
				"_verifyValidPrivateKey(uint256)": "infinite",
				"_verifyValidPublicKey(struct Point memory)": "infinite"
			}
		},
		"methodIdentifiers": {
			"approve(address,uint256)": "095ea7b3",
			"balanceOf(address)": "70a08231",
			"cancel()": "ea8a1af0",
			"claimTokenAllocation(uint256,(uint64,uint64,uint64,uint8,uint64,uint64,uint64),bytes32[])": "39e485a0",
			"decryptSealedBid(uint256,address)": "133f7bce",
			"emergencyWithdraw(address,address,uint256)": "e63ea408",
			"getApproved(uint256)": "081812fc",
			"initialize((uint64,uint64,uint16,uint16,uint16,uint16,uint256,address,address,address,address,address,string,string,string),((uint256,uint256)))": "1f7c02ec",
			"initializePublishSaleResults()": "2a8b6fae",
			"invest(uint256,bytes,bytes)": "c1088954",
			"investorPosition(address)": "84cbd9cd",
			"investorVestingStatus(address)": "699c2994",
			"isApprovedForAll(address,address)": "e985e9c5",
			"locked(uint256)": "b45a3c0e",
			"name()": "06fdde03",
			"ownerOf(uint256)": "6352211e",
			"pause()": "8456cb59",
			"paused()": "5c975abb",
			"publishSaleResults(bytes32,bytes32,uint256,uint256,uint256,uint256)": "530593b6",
			"refund()": "590e1ae3",
			"releaseVestedTokens()": "54dd1da4",
			"s_positionManagerConfig()": "3fdbdcd9",
			"safeTransferFrom(address,address,uint256)": "42842e0e",
			"safeTransferFrom(address,address,uint256,bytes)": "b88d4fde",
			"saleConfiguration()": "90dbb806",
			"saleStatus()": "f9020e33",
			"sealedBidAuctionSaleConfiguration()": "61464191",
			"setAcceptedCapital(bytes32)": "0aff2d86",
			"setApprovalForAll(address,bool)": "a22cb465",
			"supplyTokens(uint256,uint256,uint256)": "cc6ae755",
			"supportsInterface(bytes4)": "01ffc9a7",
			"symbol()": "95d89b41",
			"syncLegionAddresses()": "0a636d5b",
			"tokenURI(uint256)": "c87b56dd",
			"transferFrom(address,address,uint256)": "23b872dd",
			"transferInvestorPosition(address,address,uint256)": "08af6e25",
			"transferInvestorPositionWithAuthorization(address,address,uint256,bytes)": "e5f67382",
			"unpause()": "3f4ba83a",
			"vestingConfiguration()": "3cccebc5",
			"withdrawExcessInvestedCapital(uint256,bytes32[])": "32e719f2",
			"withdrawInvestedCapitalIfCanceled()": "f71c2364",
			"withdrawRaisedCapital()": "f68c1d49"
		}
	},
	"abi": [
		{
			"inputs": [],
			"name": "AccountBalanceOverflow",
			"type": "error"
		},
		{
			"inputs": [],
			"name": "BalanceQueryForZeroAddress",
			"type": "error"
		},
		{
			"inputs": [],
			"name": "ECDSAInvalidSignature",
			"type": "error"
		},
		{
			"inputs": [
				{
					"internalType": "uint256",
					"name": "length",
					"type": "uint256"
				}
			],
			"name": "ECDSAInvalidSignatureLength",
			"type": "error"
		},
		{
			"inputs": [
				{
					"internalType": "bytes32",
					"name": "s",
					"type": "bytes32"
				}
			],
			"name": "ECDSAInvalidSignatureS",
			"type": "error"
		},
		{
			"inputs": [
				{
					"internalType": "uint256",
					"name": "tokenId",
					"type": "uint256"
				}
			],
			"name": "ERC5192__LockedToken",
			"type": "error"
		},
		{
			"inputs": [
				{
					"internalType": "uint256",
					"name": "tokenId",
					"type": "uint256"
				}
			],
			"name": "ERC5192__TransferToSelf",
			"type": "error"
		},
		{
			"inputs": [],
			"name": "EnforcedPause",
			"type": "error"
		},
		{
			"inputs": [],
			"name": "ExpectedPause",
			"type": "error"
		},
		{
			"inputs": [],
			"name": "InvalidInitialization",
			"type": "error"
		},
		{
			"inputs": [
				{
					"internalType": "address",
					"name": "investor",
					"type": "address"
				}
			],
			"name": "LegionSale__AlreadyClaimedExcess",
			"type": "error"
		},
		{
			"inputs": [
				{
					"internalType": "address",
					"name": "investor",
					"type": "address"
				}
			],
			"name": "LegionSale__AlreadySettled",
			"type": "error"
		},
		{
			"inputs": [],
			"name": "LegionSale__CancelLocked",
			"type": "error"
		},
		{
			"inputs": [],
			"name": "LegionSale__CancelNotLocked",
			"type": "error"
		},
		{
			"inputs": [
				{
					"internalType": "address",
					"name": "investor",
					"type": "address"
				},
				{
					"internalType": "uint256",
					"name": "amount",
					"type": "uint256"
				}
			],
			"name": "LegionSale__CannotWithdrawExcessInvestedCapital",
			"type": "error"
		},
		{
			"inputs": [],
			"name": "LegionSale__CapitalAlreadyWithdrawn",
			"type": "error"
		},
		{
			"inputs": [],
			"name": "LegionSale__CapitalNotRaised",
			"type": "error"
		},
		{
			"inputs": [],
			"name": "LegionSale__InvalidBidPrivateKey",
			"type": "error"
		},
		{
			"inputs": [],
			"name": "LegionSale__InvalidBidPublicKey",
			"type": "error"
		},
		{
			"inputs": [
				{
					"internalType": "uint256",
					"name": "amount",
					"type": "uint256"
				},
				{
					"internalType": "uint256",
					"name": "expectedAmount",
					"type": "uint256"
				}
			],
			"name": "LegionSale__InvalidFeeAmount",
			"type": "error"
		},
		{
			"inputs": [
				{
					"internalType": "uint256",
					"name": "amount",
					"type": "uint256"
				}
			],
			"name": "LegionSale__InvalidInvestAmount",
			"type": "error"
		},
		{
			"inputs": [],
			"name": "LegionSale__InvalidPeriodConfig",
			"type": "error"
		},
		{
			"inputs": [
				{
					"internalType": "bytes",
					"name": "signature",
					"type": "bytes"
				}
			],
			"name": "LegionSale__InvalidSignature",
			"type": "error"
		},
		{
			"inputs": [
				{
					"internalType": "uint256",
					"name": "amount",
					"type": "uint256"
				},
				{
					"internalType": "uint256",
					"name": "expectedAmount",
					"type": "uint256"
				}
			],
			"name": "LegionSale__InvalidTokenAmountSupplied",
			"type": "error"
		},
		{
			"inputs": [
				{
					"internalType": "uint256",
					"name": "amount",
					"type": "uint256"
				}
			],
			"name": "LegionSale__InvalidWithdrawAmount",
			"type": "error"
		},
		{
			"inputs": [
				{
					"internalType": "address",
					"name": "investor",
					"type": "address"
				}
			],
			"name": "LegionSale__InvestorHasClaimedExcess",
			"type": "error"
		},
		{
			"inputs": [
				{
					"internalType": "address",
					"name": "investor",
					"type": "address"
				}
			],
			"name": "LegionSale__InvestorHasRefunded",
			"type": "error"
		},
		{
			"inputs": [],
			"name": "LegionSale__InvestorPositionDoesNotExist",
			"type": "error"
		},
		{
			"inputs": [],
			"name": "LegionSale__NotCalledByLegion",
			"type": "error"
		},
		{
			"inputs": [],
			"name": "LegionSale__NotCalledByProject",
			"type": "error"
		},
		{
			"inputs": [
				{
					"internalType": "address",
					"name": "investor",
					"type": "address"
				}
			],
			"name": "LegionSale__NotInClaimWhitelist",
			"type": "error"
		},
		{
			"inputs": [],
			"name": "LegionSale__PrivateKeyAlreadyPublished",
			"type": "error"
		},
		{
			"inputs": [],
			"name": "LegionSale__PrivateKeyNotPublished",
			"type": "error"
		},
		{
			"inputs": [
				{
					"internalType": "uint256",
					"name": "currentTimestamp",
					"type": "uint256"
				},
				{
					"internalType": "uint256",
					"name": "refundEndTimestamp",
					"type": "uint256"
				}
			],
			"name": "LegionSale__RefundPeriodIsNotOver",
			"type": "error"
		},
		{
			"inputs": [
				{
					"internalType": "uint256",
					"name": "currentTimestamp",
					"type": "uint256"
				},
				{
					"internalType": "uint256",
					"name": "refundEndTimestamp",
					"type": "uint256"
				}
			],
			"name": "LegionSale__RefundPeriodIsOver",
			"type": "error"
		},
		{
			"inputs": [
				{
					"internalType": "uint256",
					"name": "timestamp",
					"type": "uint256"
				}
			],
			"name": "LegionSale__SaleHasEnded",
			"type": "error"
		},
		{
			"inputs": [],
			"name": "LegionSale__SaleIsCanceled",
			"type": "error"
		},
		{
			"inputs": [],
			"name": "LegionSale__SaleIsNotCanceled",
			"type": "error"
		},
		{
			"inputs": [],
			"name": "LegionSale__SaleResultsAlreadyPublished",
			"type": "error"
		},
		{
			"inputs": [],
			"name": "LegionSale__SaleResultsNotPublished",
			"type": "error"
		},
		{
			"inputs": [],
			"name": "LegionSale__TokensAlreadyAllocated",
			"type": "error"
		},
		{
			"inputs": [],
			"name": "LegionSale__TokensAlreadySupplied",
			"type": "error"
		},
		{
			"inputs": [],
			"name": "LegionSale__TokensNotAllocated",
			"type": "error"
		},
		{
			"inputs": [],
			"name": "LegionSale__TokensNotSupplied",
			"type": "error"
		},
		{
			"inputs": [
				{
					"internalType": "uint256",
					"name": "positionId",
					"type": "uint256"
				}
			],
			"name": "LegionSale__UnableToMergeInvestorPosition",
			"type": "error"
		},
		{
			"inputs": [
				{
					"internalType": "uint256",
					"name": "positionId",
					"type": "uint256"
				}
			],
			"name": "LegionSale__UnableToTransferInvestorPosition",
			"type": "error"
		},
		{
			"inputs": [],
			"name": "LegionSale__ZeroAddressProvided",
			"type": "error"
		},
		{
			"inputs": [],
			"name": "LegionSale__ZeroValueProvided",
			"type": "error"
		},
		{
			"inputs": [
				{
					"internalType": "uint8",
					"name": "vestingType",
					"type": "uint8"
				},
				{
					"internalType": "uint256",
					"name": "vestingStartTimestamp",
					"type": "uint256"
				},
				{
					"internalType": "uint256",
					"name": "vestingDurationSeconds",
					"type": "uint256"
				},
				{
					"internalType": "uint256",
					"name": "vestingCliffDurationSeconds",
					"type": "uint256"
				},
				{
					"internalType": "uint256",
					"name": "epochDurationSeconds",
					"type": "uint256"
				},
				{
					"internalType": "uint256",
					"name": "numberOfEpochs",
					"type": "uint256"
				},
				{
					"internalType": "uint256",
					"name": "tokenAllocationOnTGERate",
					"type": "uint256"
				}
			],
			"name": "LegionVesting__InvalidVestingConfig",
			"type": "error"
		},
		{
			"inputs": [],
			"name": "NotInitializing",
			"type": "error"
		},
		{
			"inputs": [],
			"name": "NotOwnerNorApproved",
			"type": "error"
		},
		{
			"inputs": [],
			"name": "TokenAlreadyExists",
			"type": "error"
		},
		{
			"inputs": [],
			"name": "TokenDoesNotExist",
			"type": "error"
		},
		{
			"inputs": [],
			"name": "TransferFromIncorrectOwner",
			"type": "error"
		},
		{
			"inputs": [],
			"name": "TransferToNonERC721ReceiverImplementer",
			"type": "error"
		},
		{
			"inputs": [],
			"name": "TransferToZeroAddress",
			"type": "error"
		},
		{
			"anonymous": false,
			"inputs": [
				{
					"indexed": false,
					"internalType": "bytes32",
					"name": "merkleRoot",
					"type": "bytes32"
				}
			],
			"name": "AcceptedCapitalSet",
			"type": "event"
		},
		{
			"anonymous": false,
			"inputs": [
				{
					"indexed": true,
					"internalType": "address",
					"name": "owner",
					"type": "address"
				},
				{
					"indexed": true,
					"internalType": "address",
					"name": "account",
					"type": "address"
				},
				{
					"indexed": true,
					"internalType": "uint256",
					"name": "id",
					"type": "uint256"
				}
			],
			"name": "Approval",
			"type": "event"
		},
		{
			"anonymous": false,
			"inputs": [
				{
					"indexed": true,
					"internalType": "address",
					"name": "owner",
					"type": "address"
				},
				{
					"indexed": true,
					"internalType": "address",
					"name": "operator",
					"type": "address"
				},
				{
					"indexed": false,
					"internalType": "bool",
					"name": "isApproved",
					"type": "bool"
				}
			],
			"name": "ApprovalForAll",
			"type": "event"
		},
		{
			"anonymous": false,
			"inputs": [
				{
					"indexed": false,
					"internalType": "uint256",
					"name": "amount",
					"type": "uint256"
				},
				{
					"indexed": false,
					"internalType": "uint256",
					"name": "encryptedAmountOut",
					"type": "uint256"
				},
				{
					"indexed": false,
					"internalType": "address",
					"name": "investor",
					"type": "address"
				},
				{
					"indexed": false,
					"internalType": "uint256",
					"name": "positionId",
					"type": "uint256"
				}
			],
			"name": "CapitalInvested",
			"type": "event"
		},
		{
			"anonymous": false,
			"inputs": [
				{
					"indexed": false,
					"internalType": "uint256",
					"name": "amount",
					"type": "uint256"
				},
				{
					"indexed": false,
					"internalType": "address",
					"name": "investor",
					"type": "address"
				},
				{
					"indexed": false,
					"internalType": "uint256",
					"name": "positionId",
					"type": "uint256"
				}
			],
			"name": "CapitalRefunded",
			"type": "event"
		},
		{
			"anonymous": false,
			"inputs": [
				{
					"indexed": false,
					"internalType": "uint256",
					"name": "amount",
					"type": "uint256"
				},
				{
					"indexed": false,
					"internalType": "address",
					"name": "investor",
					"type": "address"
				}
			],
			"name": "CapitalRefundedAfterCancel",
			"type": "event"
		},
		{
			"anonymous": false,
			"inputs": [
				{
					"indexed": false,
					"internalType": "uint256",
					"name": "amount",
					"type": "uint256"
				}
			],
			"name": "CapitalWithdrawn",
			"type": "event"
		},
		{
			"anonymous": false,
			"inputs": [
				{
					"indexed": false,
					"internalType": "address",
					"name": "receiver",
					"type": "address"
				},
				{
					"indexed": false,
					"internalType": "address",
					"name": "token",
					"type": "address"
				},
				{
					"indexed": false,
					"internalType": "uint256",
					"name": "amount",
					"type": "uint256"
				}
			],
			"name": "EmergencyWithdraw",
			"type": "event"
		},
		{
			"anonymous": false,
			"inputs": [
				{
					"indexed": false,
					"internalType": "uint256",
					"name": "amount",
					"type": "uint256"
				},
				{
					"indexed": false,
					"internalType": "address",
					"name": "investor",
					"type": "address"
				},
				{
					"indexed": false,
					"internalType": "uint256",
					"name": "positionId",
					"type": "uint256"
				}
			],
			"name": "ExcessCapitalWithdrawn",
			"type": "event"
		},
		{
			"anonymous": false,
			"inputs": [
				{
					"indexed": false,
					"internalType": "uint64",
					"name": "version",
					"type": "uint64"
				}
			],
			"name": "Initialized",
			"type": "event"
		},
		{
			"anonymous": false,
			"inputs": [
				{
					"indexed": false,
					"internalType": "address",
					"name": "legionBouncer",
					"type": "address"
				},
				{
					"indexed": false,
					"internalType": "address",
					"name": "legionSigner",
					"type": "address"
				},
				{
					"indexed": false,
					"internalType": "address",
					"name": "legionFeeReceiver",
					"type": "address"
				},
				{
					"indexed": false,
					"internalType": "address",
					"name": "vestingFactory",
					"type": "address"
				},
				{
					"indexed": false,
					"internalType": "address",
					"name": "vestingController",
					"type": "address"
				}
			],
			"name": "LegionAddressesSynced",
			"type": "event"
		},
		{
			"anonymous": false,
			"inputs": [
				{
					"indexed": false,
					"internalType": "uint256",
					"name": "tokenId",
					"type": "uint256"
				}
			],
			"name": "Locked",
			"type": "event"
		},
		{
			"anonymous": false,
			"inputs": [
				{
					"indexed": false,
					"internalType": "address",
					"name": "account",
					"type": "address"
				}
			],
			"name": "Paused",
			"type": "event"
		},
		{
			"anonymous": false,
			"inputs": [],
			"name": "PublishSaleResultsInitialized",
			"type": "event"
		},
		{
			"anonymous": false,
			"inputs": [],
			"name": "SaleCanceled",
			"type": "event"
		},
		{
			"anonymous": false,
			"inputs": [
				{
					"indexed": false,
					"internalType": "bytes32",
					"name": "claimMerkleRoot",
					"type": "bytes32"
				},
				{
					"indexed": false,
					"internalType": "bytes32",
					"name": "acceptedMerkleRoot",
					"type": "bytes32"
				},
				{
					"indexed": false,
					"internalType": "uint256",
					"name": "tokensAllocated",
					"type": "uint256"
				},
				{
					"indexed": false,
					"internalType": "uint256",
					"name": "capitalRaised",
					"type": "uint256"
				},
				{
					"indexed": false,
					"internalType": "uint256",
					"name": "sealedBidPrivateKey",
					"type": "uint256"
				},
				{
					"indexed": false,
					"internalType": "uint256",
					"name": "fixedSalt",
					"type": "uint256"
				}
			],
			"name": "SaleResultsPublished",
			"type": "event"
		},
		{
			"anonymous": false,
			"inputs": [
				{
					"indexed": false,
					"internalType": "uint256",
					"name": "amountToBeVested",
					"type": "uint256"
				},
				{
					"indexed": false,
					"internalType": "uint256",
					"name": "amountOnClaim",
					"type": "uint256"
				},
				{
					"indexed": false,
					"internalType": "address",
					"name": "investor",
					"type": "address"
				},
				{
					"indexed": false,
					"internalType": "uint256",
					"name": "positionId",
					"type": "uint256"
				}
			],
			"name": "TokenAllocationClaimed",
			"type": "event"
		},
		{
			"anonymous": false,
			"inputs": [
				{
					"indexed": false,
					"internalType": "uint256",
					"name": "amount",
					"type": "uint256"
				},
				{
					"indexed": false,
					"internalType": "uint256",
					"name": "legionFee",
					"type": "uint256"
				},
				{
					"indexed": false,
					"internalType": "uint256",
					"name": "referrerFee",
					"type": "uint256"
				}
			],
			"name": "TokensSuppliedForDistribution",
			"type": "event"
		},
		{
			"anonymous": false,
			"inputs": [
				{
					"indexed": true,
					"internalType": "address",
					"name": "from",
					"type": "address"
				},
				{
					"indexed": true,
					"internalType": "address",
					"name": "to",
					"type": "address"
				},
				{
					"indexed": true,
					"internalType": "uint256",
					"name": "id",
					"type": "uint256"
				}
			],
			"name": "Transfer",
			"type": "event"
		},
		{
			"anonymous": false,
			"inputs": [
				{
					"indexed": false,
					"internalType": "uint256",
					"name": "tokenId",
					"type": "uint256"
				}
			],
			"name": "Unlocked",
			"type": "event"
		},
		{
			"anonymous": false,
			"inputs": [
				{
					"indexed": false,
					"internalType": "address",
					"name": "account",
					"type": "address"
				}
			],
			"name": "Unpaused",
			"type": "event"
		},
		{
			"inputs": [
				{
					"internalType": "address",
					"name": "account",
					"type": "address"
				},
				{
					"internalType": "uint256",
					"name": "id",
					"type": "uint256"
				}
			],
			"name": "approve",
			"outputs": [],
			"stateMutability": "payable",
			"type": "function"
		},
		{
			"inputs": [
				{
					"internalType": "address",
					"name": "owner",
					"type": "address"
				}
			],
			"name": "balanceOf",
			"outputs": [
				{
					"internalType": "uint256",
					"name": "result",
					"type": "uint256"
				}
			],
			"stateMutability": "view",
			"type": "function"
		},
		{
			"inputs": [],
			"name": "cancel",
			"outputs": [],
			"stateMutability": "nonpayable",
			"type": "function"
		},
		{
			"inputs": [
				{
					"internalType": "uint256",
					"name": "amount",
					"type": "uint256"
				},
				{
					"components": [
						{
							"internalType": "uint64",
							"name": "vestingStartTime",
							"type": "uint64"
						},
						{
							"internalType": "uint64",
							"name": "vestingDurationSeconds",
							"type": "uint64"
						},
						{
							"internalType": "uint64",
							"name": "vestingCliffDurationSeconds",
							"type": "uint64"
						},
						{
							"internalType": "enum ILegionVestingManager.VestingType",
							"name": "vestingType",
							"type": "uint8"
						},
						{
							"internalType": "uint64",
							"name": "epochDurationSeconds",
							"type": "uint64"
						},
						{
							"internalType": "uint64",
							"name": "numberOfEpochs",
							"type": "uint64"
						},
						{
							"internalType": "uint64",
							"name": "tokenAllocationOnTGERate",
							"type": "uint64"
						}
					],
					"internalType": "struct ILegionVestingManager.LegionInvestorVestingConfig",
					"name": "investorVestingConfig",
					"type": "tuple"
				},
				{
					"internalType": "bytes32[]",
					"name": "proof",
					"type": "bytes32[]"
				}
			],
			"name": "claimTokenAllocation",
			"outputs": [],
			"stateMutability": "nonpayable",
			"type": "function"
		},
		{
			"inputs": [
				{
					"internalType": "uint256",
					"name": "encryptedAmountOut",
					"type": "uint256"
				},
				{
					"internalType": "address",
					"name": "investor",
					"type": "address"
				}
			],
			"name": "decryptSealedBid",
			"outputs": [
				{
					"internalType": "uint256",
					"name": "",
					"type": "uint256"
				}
			],
			"stateMutability": "view",
			"type": "function"
		},
		{
			"inputs": [
				{
					"internalType": "address",
					"name": "receiver",
					"type": "address"
				},
				{
					"internalType": "address",
					"name": "token",
					"type": "address"
				},
				{
					"internalType": "uint256",
					"name": "amount",
					"type": "uint256"
				}
			],
			"name": "emergencyWithdraw",
			"outputs": [],
			"stateMutability": "nonpayable",
			"type": "function"
		},
		{
			"inputs": [
				{
					"internalType": "uint256",
					"name": "id",
					"type": "uint256"
				}
			],
			"name": "getApproved",
			"outputs": [
				{
					"internalType": "address",
					"name": "result",
					"type": "address"
				}
			],
			"stateMutability": "view",
			"type": "function"
		},
		{
			"inputs": [
				{
					"components": [
						{
							"internalType": "uint64",
							"name": "salePeriodSeconds",
							"type": "uint64"
						},
						{
							"internalType": "uint64",
							"name": "refundPeriodSeconds",
							"type": "uint64"
						},
						{
							"internalType": "uint16",
							"name": "legionFeeOnCapitalRaisedBps",
							"type": "uint16"
						},
						{
							"internalType": "uint16",
							"name": "legionFeeOnTokensSoldBps",
							"type": "uint16"
						},
						{
							"internalType": "uint16",
							"name": "referrerFeeOnCapitalRaisedBps",
							"type": "uint16"
						},
						{
							"internalType": "uint16",
							"name": "referrerFeeOnTokensSoldBps",
							"type": "uint16"
						},
						{
							"internalType": "uint256",
							"name": "minimumInvestAmount",
							"type": "uint256"
						},
						{
							"internalType": "address",
							"name": "bidToken",
							"type": "address"
						},
						{
							"internalType": "address",
							"name": "askToken",
							"type": "address"
						},
						{
							"internalType": "address",
							"name": "projectAdmin",
							"type": "address"
						},
						{
							"internalType": "address",
							"name": "addressRegistry",
							"type": "address"
						},
						{
							"internalType": "address",
							"name": "referrerFeeReceiver",
							"type": "address"
						},
						{
							"internalType": "string",
							"name": "saleName",
							"type": "string"
						},
						{
							"internalType": "string",
							"name": "saleSymbol",
							"type": "string"
						},
						{
							"internalType": "string",
							"name": "saleBaseURI",
							"type": "string"
						}
					],
					"internalType": "struct ILegionAbstractSale.LegionSaleInitializationParams",
					"name": "saleInitParams",
					"type": "tuple"
				},
				{
					"components": [
						{
							"components": [
								{
									"internalType": "uint256",
									"name": "x",
									"type": "uint256"
								},
								{
									"internalType": "uint256",
									"name": "y",
									"type": "uint256"
								}
							],
							"internalType": "struct Point",
							"name": "publicKey",
							"type": "tuple"
						}
					],
					"internalType": "struct ILegionSealedBidAuctionSale.SealedBidAuctionSaleInitializationParams",
					"name": "sealedBidAuctionSaleInitParams",
					"type": "tuple"
				}
			],
			"name": "initialize",
			"outputs": [],
			"stateMutability": "nonpayable",
			"type": "function"
		},
		{
			"inputs": [],
			"name": "initializePublishSaleResults",
			"outputs": [],
			"stateMutability": "nonpayable",
			"type": "function"
		},
		{
			"inputs": [
				{
					"internalType": "uint256",
					"name": "amount",
					"type": "uint256"
				},
				{
					"internalType": "bytes",
					"name": "sealedBid",
					"type": "bytes"
				},
				{
					"internalType": "bytes",
					"name": "signature",
					"type": "bytes"
				}
			],
			"name": "invest",
			"outputs": [],
			"stateMutability": "nonpayable",
			"type": "function"
		},
		{
			"inputs": [
				{
					"internalType": "address",
					"name": "investor",
					"type": "address"
				}
			],
			"name": "investorPosition",
			"outputs": [
				{
					"components": [
						{
							"internalType": "uint256",
							"name": "investedCapital",
							"type": "uint256"
						},
						{
							"internalType": "bool",
							"name": "hasSettled",
							"type": "bool"
						},
						{
							"internalType": "bool",
							"name": "hasClaimedExcess",
							"type": "bool"
						},
						{
							"internalType": "bool",
							"name": "hasRefunded",
							"type": "bool"
						},
						{
							"internalType": "address",
							"name": "vestingAddress",
							"type": "address"
						}
					],
					"internalType": "struct ILegionAbstractSale.InvestorPosition",
					"name": "",
					"type": "tuple"
				}
			],
			"stateMutability": "view",
			"type": "function"
		},
		{
			"inputs": [
				{
					"internalType": "address",
					"name": "investor",
					"type": "address"
				}
			],
			"name": "investorVestingStatus",
			"outputs": [
				{
					"components": [
						{
							"internalType": "uint64",
							"name": "start",
							"type": "uint64"
						},
						{
							"internalType": "uint64",
							"name": "end",
							"type": "uint64"
						},
						{
							"internalType": "uint64",
							"name": "cliffEnd",
							"type": "uint64"
						},
						{
							"internalType": "uint64",
							"name": "duration",
							"type": "uint64"
						},
						{
							"internalType": "uint256",
							"name": "released",
							"type": "uint256"
						},
						{
							"internalType": "uint256",
							"name": "releasable",
							"type": "uint256"
						},
						{
							"internalType": "uint256",
							"name": "vestedAmount",
							"type": "uint256"
						}
					],
					"internalType": "struct ILegionVestingManager.LegionInvestorVestingStatus",
					"name": "vestingStatus",
					"type": "tuple"
				}
			],
			"stateMutability": "view",
			"type": "function"
		},
		{
			"inputs": [
				{
					"internalType": "address",
					"name": "owner",
					"type": "address"
				},
				{
					"internalType": "address",
					"name": "operator",
					"type": "address"
				}
			],
			"name": "isApprovedForAll",
			"outputs": [
				{
					"internalType": "bool",
					"name": "result",
					"type": "bool"
				}
			],
			"stateMutability": "view",
			"type": "function"
		},
		{
			"inputs": [
				{
					"internalType": "uint256",
					"name": "tokenId",
					"type": "uint256"
				}
			],
			"name": "locked",
			"outputs": [
				{
					"internalType": "bool",
					"name": "",
					"type": "bool"
				}
			],
			"stateMutability": "view",
			"type": "function"
		},
		{
			"inputs": [],
			"name": "name",
			"outputs": [
				{
					"internalType": "string",
					"name": "",
					"type": "string"
				}
			],
			"stateMutability": "view",
			"type": "function"
		},
		{
			"inputs": [
				{
					"internalType": "uint256",
					"name": "id",
					"type": "uint256"
				}
			],
			"name": "ownerOf",
			"outputs": [
				{
					"internalType": "address",
					"name": "result",
					"type": "address"
				}
			],
			"stateMutability": "view",
			"type": "function"
		},
		{
			"inputs": [],
			"name": "pause",
			"outputs": [],
			"stateMutability": "nonpayable",
			"type": "function"
		},
		{
			"inputs": [],
			"name": "paused",
			"outputs": [
				{
					"internalType": "bool",
					"name": "",
					"type": "bool"
				}
			],
			"stateMutability": "view",
			"type": "function"
		},
		{
			"inputs": [
				{
					"internalType": "bytes32",
					"name": "claimMerkleRoot",
					"type": "bytes32"
				},
				{
					"internalType": "bytes32",
					"name": "acceptedMerkleRoot",
					"type": "bytes32"
				},
				{
					"internalType": "uint256",
					"name": "tokensAllocated",
					"type": "uint256"
				},
				{
					"internalType": "uint256",
					"name": "capitalRaised",
					"type": "uint256"
				},
				{
					"internalType": "uint256",
					"name": "sealedBidPrivateKey",
					"type": "uint256"
				},
				{
					"internalType": "uint256",
					"name": "fixedSalt",
					"type": "uint256"
				}
			],
			"name": "publishSaleResults",
			"outputs": [],
			"stateMutability": "nonpayable",
			"type": "function"
		},
		{
			"inputs": [],
			"name": "refund",
			"outputs": [],
			"stateMutability": "nonpayable",
			"type": "function"
		},
		{
			"inputs": [],
			"name": "releaseVestedTokens",
			"outputs": [],
			"stateMutability": "nonpayable",
			"type": "function"
		},
		{
			"inputs": [],
			"name": "s_positionManagerConfig",
			"outputs": [
				{
					"internalType": "string",
					"name": "name",
					"type": "string"
				},
				{
					"internalType": "string",
					"name": "symbol",
					"type": "string"
				},
				{
					"internalType": "string",
					"name": "baseURI",
					"type": "string"
				},
				{
					"internalType": "uint256",
					"name": "lastPositionId",
					"type": "uint256"
				}
			],
			"stateMutability": "view",
			"type": "function"
		},
		{
			"inputs": [
				{
					"internalType": "address",
					"name": "from",
					"type": "address"
				},
				{
					"internalType": "address",
					"name": "to",
					"type": "address"
				},
				{
					"internalType": "uint256",
					"name": "id",
					"type": "uint256"
				}
			],
			"name": "safeTransferFrom",
			"outputs": [],
			"stateMutability": "payable",
			"type": "function"
		},
		{
			"inputs": [
				{
					"internalType": "address",
					"name": "from",
					"type": "address"
				},
				{
					"internalType": "address",
					"name": "to",
					"type": "address"
				},
				{
					"internalType": "uint256",
					"name": "id",
					"type": "uint256"
				},
				{
					"internalType": "bytes",
					"name": "data",
					"type": "bytes"
				}
			],
			"name": "safeTransferFrom",
			"outputs": [],
			"stateMutability": "payable",
			"type": "function"
		},
		{
			"inputs": [],
			"name": "saleConfiguration",
			"outputs": [
				{
					"components": [
						{
							"internalType": "uint64",
							"name": "startTime",
							"type": "uint64"
						},
						{
							"internalType": "uint64",
							"name": "endTime",
							"type": "uint64"
						},
						{
							"internalType": "uint64",
							"name": "refundEndTime",
							"type": "uint64"
						},
						{
							"internalType": "uint16",
							"name": "legionFeeOnCapitalRaisedBps",
							"type": "uint16"
						},
						{
							"internalType": "uint16",
							"name": "legionFeeOnTokensSoldBps",
							"type": "uint16"
						},
						{
							"internalType": "uint16",
							"name": "referrerFeeOnCapitalRaisedBps",
							"type": "uint16"
						},
						{
							"internalType": "uint16",
							"name": "referrerFeeOnTokensSoldBps",
							"type": "uint16"
						},
						{
							"internalType": "uint256",
							"name": "minimumInvestAmount",
							"type": "uint256"
						}
					],
					"internalType": "struct ILegionAbstractSale.LegionSaleConfiguration",
					"name": "",
					"type": "tuple"
				}
			],
			"stateMutability": "view",
			"type": "function"
		},
		{
			"inputs": [],
			"name": "saleStatus",
			"outputs": [
				{
					"components": [
						{
							"internalType": "uint256",
							"name": "totalCapitalInvested",
							"type": "uint256"
						},
						{
							"internalType": "uint256",
							"name": "totalTokensAllocated",
							"type": "uint256"
						},
						{
							"internalType": "uint256",
							"name": "totalCapitalRaised",
							"type": "uint256"
						},
						{
							"internalType": "uint256",
							"name": "totalCapitalWithdrawn",
							"type": "uint256"
						},
						{
							"internalType": "bytes32",
							"name": "claimTokensMerkleRoot",
							"type": "bytes32"
						},
						{
							"internalType": "bytes32",
							"name": "acceptedCapitalMerkleRoot",
							"type": "bytes32"
						},
						{
							"internalType": "bool",
							"name": "isCanceled",
							"type": "bool"
						},
						{
							"internalType": "bool",
							"name": "tokensSupplied",
							"type": "bool"
						},
						{
							"internalType": "bool",
							"name": "capitalWithdrawn",
							"type": "bool"
						}
					],
					"internalType": "struct ILegionAbstractSale.LegionSaleStatus",
					"name": "",
					"type": "tuple"
				}
			],
			"stateMutability": "view",
			"type": "function"
		},
		{
			"inputs": [],
			"name": "sealedBidAuctionSaleConfiguration",
			"outputs": [
				{
					"components": [
						{
							"internalType": "bool",
							"name": "cancelLocked",
							"type": "bool"
						},
						{
							"components": [
								{
									"internalType": "uint256",
									"name": "x",
									"type": "uint256"
								},
								{
									"internalType": "uint256",
									"name": "y",
									"type": "uint256"
								}
							],
							"internalType": "struct Point",
							"name": "publicKey",
							"type": "tuple"
						},
						{
							"internalType": "uint256",
							"name": "privateKey",
							"type": "uint256"
						},
						{
							"internalType": "uint256",
							"name": "fixedSalt",
							"type": "uint256"
						}
					],
					"internalType": "struct ILegionSealedBidAuctionSale.SealedBidAuctionSaleConfiguration",
					"name": "",
					"type": "tuple"
				}
			],
			"stateMutability": "view",
			"type": "function"
		},
		{
			"inputs": [
				{
					"internalType": "bytes32",
					"name": "merkleRoot",
					"type": "bytes32"
				}
			],
			"name": "setAcceptedCapital",
			"outputs": [],
			"stateMutability": "nonpayable",
			"type": "function"
		},
		{
			"inputs": [
				{
					"internalType": "address",
					"name": "operator",
					"type": "address"
				},
				{
					"internalType": "bool",
					"name": "isApproved",
					"type": "bool"
				}
			],
			"name": "setApprovalForAll",
			"outputs": [],
			"stateMutability": "nonpayable",
			"type": "function"
		},
		{
			"inputs": [
				{
					"internalType": "uint256",
					"name": "amount",
					"type": "uint256"
				},
				{
					"internalType": "uint256",
					"name": "legionFee",
					"type": "uint256"
				},
				{
					"internalType": "uint256",
					"name": "referrerFee",
					"type": "uint256"
				}
			],
			"name": "supplyTokens",
			"outputs": [],
			"stateMutability": "nonpayable",
			"type": "function"
		},
		{
			"inputs": [
				{
					"internalType": "bytes4",
					"name": "interfaceId",
					"type": "bytes4"
				}
			],
			"name": "supportsInterface",
			"outputs": [
				{
					"internalType": "bool",
					"name": "result",
					"type": "bool"
				}
			],
			"stateMutability": "view",
			"type": "function"
		},
		{
			"inputs": [],
			"name": "symbol",
			"outputs": [
				{
					"internalType": "string",
					"name": "",
					"type": "string"
				}
			],
			"stateMutability": "view",
			"type": "function"
		},
		{
			"inputs": [],
			"name": "syncLegionAddresses",
			"outputs": [],
			"stateMutability": "nonpayable",
			"type": "function"
		},
		{
			"inputs": [
				{
					"internalType": "uint256",
					"name": "id",
					"type": "uint256"
				}
			],
			"name": "tokenURI",
			"outputs": [
				{
					"internalType": "string",
					"name": "",
					"type": "string"
				}
			],
			"stateMutability": "view",
			"type": "function"
		},
		{
			"inputs": [
				{
					"internalType": "address",
					"name": "from",
					"type": "address"
				},
				{
					"internalType": "address",
					"name": "to",
					"type": "address"
				},
				{
					"internalType": "uint256",
					"name": "id",
					"type": "uint256"
				}
			],
			"name": "transferFrom",
			"outputs": [],
			"stateMutability": "payable",
			"type": "function"
		},
		{
			"inputs": [
				{
					"internalType": "address",
					"name": "from",
					"type": "address"
				},
				{
					"internalType": "address",
					"name": "to",
					"type": "address"
				},
				{
					"internalType": "uint256",
					"name": "positionId",
					"type": "uint256"
				}
			],
			"name": "transferInvestorPosition",
			"outputs": [],
			"stateMutability": "nonpayable",
			"type": "function"
		},
		{
			"inputs": [
				{
					"internalType": "address",
					"name": "from",
					"type": "address"
				},
				{
					"internalType": "address",
					"name": "to",
					"type": "address"
				},
				{
					"internalType": "uint256",
					"name": "positionId",
					"type": "uint256"
				},
				{
					"internalType": "bytes",
					"name": "transferSignature",
					"type": "bytes"
				}
			],
			"name": "transferInvestorPositionWithAuthorization",
			"outputs": [],
			"stateMutability": "nonpayable",
			"type": "function"
		},
		{
			"inputs": [],
			"name": "unpause",
			"outputs": [],
			"stateMutability": "nonpayable",
			"type": "function"
		},
		{
			"inputs": [],
			"name": "vestingConfiguration",
			"outputs": [
				{
					"components": [
						{
							"internalType": "address",
							"name": "vestingFactory",
							"type": "address"
						},
						{
							"internalType": "address",
							"name": "vestingController",
							"type": "address"
						}
					],
					"internalType": "struct ILegionVestingManager.LegionVestingConfig",
					"name": "",
					"type": "tuple"
				}
			],
			"stateMutability": "view",
			"type": "function"
		},
		{
			"inputs": [
				{
					"internalType": "uint256",
					"name": "amount",
					"type": "uint256"
				},
				{
					"internalType": "bytes32[]",
					"name": "proof",
					"type": "bytes32[]"
				}
			],
			"name": "withdrawExcessInvestedCapital",
			"outputs": [],
			"stateMutability": "nonpayable",
			"type": "function"
		},
		{
			"inputs": [],
			"name": "withdrawInvestedCapitalIfCanceled",
			"outputs": [],
			"stateMutability": "nonpayable",
			"type": "function"
		},
		{
			"inputs": [],
			"name": "withdrawRaisedCapital",
			"outputs": [],
			"stateMutability": "nonpayable",
			"type": "function"
		}
	]
}