{
	"data": {
		"bytecode": {
			"linkReferences": {},
			"object": "6080604052348015600e575f5ffd5b506102938061001c5f395ff3fe608060405234801561000f575f5ffd5b506004361061003f575f3560e01c806339e485a01461004357806344554fb414610058578063ba3d768a1461006a575b5f5ffd5b610056610051366004610185565b610084565b005b610056610066366004610218565b5f55565b6100725f5481565b60405190815260200160405180910390f35b604080513360208201529081018590525f9060600160408051601f19818403018152828252805160209182012090830152016040516020818303038152906040528051906020012090505f5481146101135760405162461bcd60e51b815260206004820152600e60248201526d496e76616c69642050726f6f662160901b604482015260640160405180910390fd5b7f90928c9038484fc0fed4d856d358705e87d4b27631cadb83aaf8de37e4cf29c285610145604087016020880161022f565b61015560e0880160c0890161022f565b6040805193845267ffffffffffffffff928316602085015291169082015260600160405180910390a15050505050565b5f5f5f5f84860361012081121561019a575f5ffd5b8535945060e0601f19820112156101af575f5ffd5b5060208501925061010085013567ffffffffffffffff8111156101d0575f5ffd5b8501601f810187136101e0575f5ffd5b803567ffffffffffffffff8111156101f6575f5ffd5b8760208260051b840101111561020a575f5ffd5b949793965060200194505050565b5f60208284031215610228575f5ffd5b5035919050565b5f6020828403121561023f575f5ffd5b813567ffffffffffffffff81168114610256575f5ffd5b939250505056fea26469706673582212207852da04ef0711e69f45d9e5e1c5e3acf5eeeb411262aa669395c3a5110e77aa64736f6c634300081e0033",
			"opcodes": "PUSH1 0x80 PUSH1 0x40 MSTORE CALLVALUE DUP1 ISZERO PUSH1 0xE JUMPI PUSH0 PUSH0 REVERT JUMPDEST POP PUSH2 0x293 DUP1 PUSH2 0x1C PUSH0 CODECOPY PUSH0 RETURN INVALID PUSH1 0x80 PUSH1 0x40 MSTORE CALLVALUE DUP1 ISZERO PUSH2 0xF JUMPI PUSH0 PUSH0 REVERT JUMPDEST POP PUSH1 0x4 CALLDATASIZE LT PUSH2 0x3F JUMPI PUSH0 CALLDATALOAD PUSH1 0xE0 SHR DUP1 PUSH4 0x39E485A0 EQ PUSH2 0x43 JUMPI DUP1 PUSH4 0x44554FB4 EQ PUSH2 0x58 JUMPI DUP1 PUSH4 0xBA3D768A EQ PUSH2 0x6A JUMPI JUMPDEST PUSH0 PUSH0 REVERT JUMPDEST PUSH2 0x56 PUSH2 0x51 CALLDATASIZE PUSH1 0x4 PUSH2 0x185 JUMP JUMPDEST PUSH2 0x84 JUMP JUMPDEST STOP JUMPDEST PUSH2 0x56 PUSH2 0x66 CALLDATASIZE PUSH1 0x4 PUSH2 0x218 JUMP JUMPDEST PUSH0 SSTORE JUMP JUMPDEST PUSH2 0x72 PUSH0 SLOAD DUP2 JUMP JUMPDEST PUSH1 0x40 MLOAD SWAP1 DUP2 MSTORE PUSH1 0x20 ADD PUSH1 0x40 MLOAD DUP1 SWAP2 SUB SWAP1 RETURN JUMPDEST PUSH1 0x40 DUP1 MLOAD CALLER PUSH1 0x20 DUP3 ADD MSTORE SWAP1 DUP2 ADD DUP6 SWAP1 MSTORE PUSH0 SWAP1 PUSH1 0x60 ADD PUSH1 0x40 DUP1 MLOAD PUSH1 0x1F NOT DUP2 DUP5 SUB ADD DUP2 MSTORE DUP3 DUP3 MSTORE DUP1 MLOAD PUSH1 0x20 SWAP2 DUP3 ADD KECCAK256 SWAP1 DUP4 ADD MSTORE ADD PUSH1 0x40 MLOAD PUSH1 0x20 DUP2 DUP4 SUB SUB DUP2 MSTORE SWAP1 PUSH1 0x40 MSTORE DUP1 MLOAD SWAP1 PUSH1 0x20 ADD KECCAK256 SWAP1 POP PUSH0 SLOAD DUP2 EQ PUSH2 0x113 JUMPI PUSH1 0x40 MLOAD PUSH3 0x461BCD PUSH1 0xE5 SHL DUP2 MSTORE PUSH1 0x20 PUSH1 0x4 DUP3 ADD MSTORE PUSH1 0xE PUSH1 0x24 DUP3 ADD MSTORE PUSH14 0x496E76616C69642050726F6F6621 PUSH1 0x90 SHL PUSH1 0x44 DUP3 ADD MSTORE PUSH1 0x64 ADD PUSH1 0x40 MLOAD DUP1 SWAP2 SUB SWAP1 REVERT JUMPDEST PUSH32 0x90928C9038484FC0FED4D856D358705E87D4B27631CADB83AAF8DE37E4CF29C2 DUP6 PUSH2 0x145 PUSH1 0x40 DUP8 ADD PUSH1 0x20 DUP9 ADD PUSH2 0x22F JUMP JUMPDEST PUSH2 0x155 PUSH1 0xE0 DUP9 ADD PUSH1 0xC0 DUP10 ADD PUSH2 0x22F JUMP JUMPDEST PUSH1 0x40 DUP1 MLOAD SWAP4 DUP5 MSTORE PUSH8 0xFFFFFFFFFFFFFFFF SWAP3 DUP4 AND PUSH1 0x20 DUP6 ADD MSTORE SWAP2 AND SWAP1 DUP3 ADD MSTORE PUSH1 0x60 ADD PUSH1 0x40 MLOAD DUP1 SWAP2 SUB SWAP1 LOG1 POP POP POP POP POP JUMP JUMPDEST PUSH0 PUSH0 PUSH0 PUSH0 DUP5 DUP7 SUB PUSH2 0x120 DUP2 SLT ISZERO PUSH2 0x19A JUMPI PUSH0 PUSH0 REVERT JUMPDEST DUP6 CALLDATALOAD SWAP5 POP PUSH1 0xE0 PUSH1 0x1F NOT DUP3 ADD SLT ISZERO PUSH2 0x1AF JUMPI PUSH0 PUSH0 REVERT JUMPDEST POP PUSH1 0x20 DUP6 ADD SWAP3 POP PUSH2 0x100 DUP6 ADD CALLDATALOAD PUSH8 0xFFFFFFFFFFFFFFFF DUP2 GT ISZERO PUSH2 0x1D0 JUMPI PUSH0 PUSH0 REVERT JUMPDEST DUP6 ADD PUSH1 0x1F DUP2 ADD DUP8 SGT PUSH2 0x1E0 JUMPI PUSH0 PUSH0 REVERT JUMPDEST DUP1 CALLDATALOAD PUSH8 0xFFFFFFFFFFFFFFFF DUP2 GT ISZERO PUSH2 0x1F6 JUMPI PUSH0 PUSH0 REVERT JUMPDEST DUP8 PUSH1 0x20 DUP3 PUSH1 0x5 SHL DUP5 ADD ADD GT ISZERO PUSH2 0x20A JUMPI PUSH0 PUSH0 REVERT JUMPDEST SWAP5 SWAP8 SWAP4 SWAP7 POP PUSH1 0x20 ADD SWAP5 POP POP POP JUMP JUMPDEST PUSH0 PUSH1 0x20 DUP3 DUP5 SUB SLT ISZERO PUSH2 0x228 JUMPI PUSH0 PUSH0 REVERT JUMPDEST POP CALLDATALOAD SWAP2 SWAP1 POP JUMP JUMPDEST PUSH0 PUSH1 0x20 DUP3 DUP5 SUB SLT ISZERO PUSH2 0x23F JUMPI PUSH0 PUSH0 REVERT JUMPDEST DUP2 CALLDATALOAD PUSH8 0xFFFFFFFFFFFFFFFF DUP2 AND DUP2 EQ PUSH2 0x256 JUMPI PUSH0 PUSH0 REVERT JUMPDEST SWAP4 SWAP3 POP POP POP JUMP INVALID LOG2 PUSH5 0x6970667358 0x22 SLT KECCAK256 PUSH25 0x52DA04EF0711E69F45D9E5E1C5E3ACF5EEEB411262AA669395 0xC3 0xA5 GT 0xE PUSH24 0xAA64736F6C634300081E0033000000000000000000000000 "
		},
		"gasEstimates": {
			"creation": {
				"codeDepositCost": "131800",
				"executionCost": "175",
				"totalCost": "131975"
			},
			"external": {
				"acceptedMerkleRoot()": "2303",
				"claimTokenAllocation(uint256,(uint64,uint64,uint64,uint8,uint64,uint64,uint64),bytes32[])": "infinite",
				"setAcceptedMerkleRoot(bytes32)": "22309"
			}
		},
		"methodIdentifiers": {
			"acceptedMerkleRoot()": "ba3d768a",
			"claimTokenAllocation(uint256,(uint64,uint64,uint64,uint8,uint64,uint64,uint64),bytes32[])": "39e485a0",
			"setAcceptedMerkleRoot(bytes32)": "44554fb4"
		}
	},
	"abi": [
		{
			"anonymous": false,
			"inputs": [
				{
					"indexed": false,
					"internalType": "uint256",
					"name": "allocation",
					"type": "uint256"
				},
				{
					"indexed": false,
					"internalType": "uint64",
					"name": "duration",
					"type": "uint64"
				},
				{
					"indexed": false,
					"internalType": "uint64",
					"name": "tgeRate",
					"type": "uint64"
				}
			],
			"name": "ClaimSuccessful",
			"type": "event"
		},
		{
			"inputs": [],
			"name": "acceptedMerkleRoot",
			"outputs": [
				{
					"internalType": "bytes32",
					"name": "",
					"type": "bytes32"
				}
			],
			"stateMutability": "view",
			"type": "function"
		},
		{
			"inputs": [
				{
					"internalType": "uint256",
					"name": "allocation",
					"type": "uint256"
				},
				{
					"components": [
						{
							"internalType": "uint64",
							"name": "vestingStartTime",
							"type": "uint64"
						},
						{
							"internalType": "uint64",
							"name": "vestingDurationSeconds",
							"type": "uint64"
						},
						{
							"internalType": "uint64",
							"name": "vestingCliffDurationSeconds",
							"type": "uint64"
						},
						{
							"internalType": "enum ILegionVestingManager.VestingType",
							"name": "vestingType",
							"type": "uint8"
						},
						{
							"internalType": "uint64",
							"name": "epochDurationSeconds",
							"type": "uint64"
						},
						{
							"internalType": "uint64",
							"name": "numberOfEpochs",
							"type": "uint64"
						},
						{
							"internalType": "uint64",
							"name": "tokenAllocationOnTGERate",
							"type": "uint64"
						}
					],
					"internalType": "struct ILegionVestingManager.LegionInvestorVestingConfig",
					"name": "vestingConfig",
					"type": "tuple"
				},
				{
					"internalType": "bytes32[]",
					"name": "proof",
					"type": "bytes32[]"
				}
			],
			"name": "claimTokenAllocation",
			"outputs": [],
			"stateMutability": "nonpayable",
			"type": "function"
		},
		{
			"inputs": [
				{
					"internalType": "bytes32",
					"name": "_root",
					"type": "bytes32"
				}
			],
			"name": "setAcceptedMerkleRoot",
			"outputs": [],
			"stateMutability": "nonpayable",
			"type": "function"
		}
	]
}