{
	"data": {
		"bytecode": {
			"linkReferences": {},
			"object": "6080604052348015600e575f5ffd5b50335f90815260208190526040902069d3c21bcecceda10000009055610413806100375f395ff3fe608060405234801561000f575f5ffd5b5060043610610060575f3560e01c8063095ea7b31461006457806323b872dd1461008c57806340c10f191461009f57806370a08231146100b4578063a9059cbb146100e1578063dd62ed3e146100f4575b5f5ffd5b6100776100723660046102d1565b61011e565b60405190151581526020015b60405180910390f35b61007761009a3660046102f9565b61014b565b6100b26100ad3660046102d1565b6101d5565b005b6100d36100c2366004610333565b5f6020819052908152604090205481565b604051908152602001610083565b6100776100ef3660046102d1565b610205565b6100d3610102366004610353565b600160209081525f928352604080842090915290825290205481565b335f9081526001602081815260408084206001600160a01b03871685529091529091208290555b92915050565b5f80610158606484610398565b90505f61016582856103b7565b9050835f5f886001600160a01b03166001600160a01b031681526020019081526020015f205f82825461019891906103b7565b90915550506001600160a01b0385165f90815260208190526040812080548392906101c49084906103ca565b909155506001979650505050505050565b6001600160a01b0382165f90815260208190526040812080548392906101fc9084906103ca565b90915550505050565b335f9081526020819052604081205482111561025e5760405162461bcd60e51b8152602060048201526014602482015273496e73756666696369656e742062616c616e636560601b604482015260640160405180910390fd5b335f908152602081905260408120805484929061027c9084906103b7565b90915550506001600160a01b0383165f90815260208190526040812080548492906102a89084906103ca565b909155506001949350505050565b80356001600160a01b03811681146102cc575f5ffd5b919050565b5f5f604083850312156102e2575f5ffd5b6102eb836102b6565b946020939093013593505050565b5f5f5f6060848603121561030b575f5ffd5b610314846102b6565b9250610322602085016102b6565b929592945050506040919091013590565b5f60208284031215610343575f5ffd5b61034c826102b6565b9392505050565b5f5f60408385031215610364575f5ffd5b61036d836102b6565b915061037b602084016102b6565b90509250929050565b634e487b7160e01b5f52601160045260245ffd5b5f826103b257634e487b7160e01b5f52601260045260245ffd5b500490565b8181038181111561014557610145610384565b808201808211156101455761014561038456fea26469706673582212204eb31484a7ed820779a04ac3de7790f607f4ab5a58b3283ead77ccaeb174850264736f6c634300081e0033",
			"opcodes": "PUSH1 0x80 PUSH1 0x40 MSTORE CALLVALUE DUP1 ISZERO PUSH1 0xE JUMPI PUSH0 PUSH0 REVERT JUMPDEST POP CALLER PUSH0 SWAP1 DUP2 MSTORE PUSH1 0x20 DUP2 SWAP1 MSTORE PUSH1 0x40 SWAP1 KECCAK256 PUSH10 0xD3C21BCECCEDA1000000 SWAP1 SSTORE PUSH2 0x413 DUP1 PUSH2 0x37 PUSH0 CODECOPY PUSH0 RETURN INVALID PUSH1 0x80 PUSH1 0x40 MSTORE CALLVALUE DUP1 ISZERO PUSH2 0xF JUMPI PUSH0 PUSH0 REVERT JUMPDEST POP PUSH1 0x4 CALLDATASIZE LT PUSH2 0x60 JUMPI PUSH0 CALLDATALOAD PUSH1 0xE0 SHR DUP1 PUSH4 0x95EA7B3 EQ PUSH2 0x64 JUMPI DUP1 PUSH4 0x23B872DD EQ PUSH2 0x8C JUMPI DUP1 PUSH4 0x40C10F19 EQ PUSH2 0x9F JUMPI DUP1 PUSH4 0x70A08231 EQ PUSH2 0xB4 JUMPI DUP1 PUSH4 0xA9059CBB EQ PUSH2 0xE1 JUMPI DUP1 PUSH4 0xDD62ED3E EQ PUSH2 0xF4 JUMPI JUMPDEST PUSH0 PUSH0 REVERT JUMPDEST PUSH2 0x77 PUSH2 0x72 CALLDATASIZE PUSH1 0x4 PUSH2 0x2D1 JUMP JUMPDEST PUSH2 0x11E JUMP JUMPDEST PUSH1 0x40 MLOAD SWAP1 ISZERO ISZERO DUP2 MSTORE PUSH1 0x20 ADD JUMPDEST PUSH1 0x40 MLOAD DUP1 SWAP2 SUB SWAP1 RETURN JUMPDEST PUSH2 0x77 PUSH2 0x9A CALLDATASIZE PUSH1 0x4 PUSH2 0x2F9 JUMP JUMPDEST PUSH2 0x14B JUMP JUMPDEST PUSH2 0xB2 PUSH2 0xAD CALLDATASIZE PUSH1 0x4 PUSH2 0x2D1 JUMP JUMPDEST PUSH2 0x1D5 JUMP JUMPDEST STOP JUMPDEST PUSH2 0xD3 PUSH2 0xC2 CALLDATASIZE PUSH1 0x4 PUSH2 0x333 JUMP JUMPDEST PUSH0 PUSH1 0x20 DUP2 SWAP1 MSTORE SWAP1 DUP2 MSTORE PUSH1 0x40 SWAP1 KECCAK256 SLOAD DUP2 JUMP JUMPDEST PUSH1 0x40 MLOAD SWAP1 DUP2 MSTORE PUSH1 0x20 ADD PUSH2 0x83 JUMP JUMPDEST PUSH2 0x77 PUSH2 0xEF CALLDATASIZE PUSH1 0x4 PUSH2 0x2D1 JUMP JUMPDEST PUSH2 0x205 JUMP JUMPDEST PUSH2 0xD3 PUSH2 0x102 CALLDATASIZE PUSH1 0x4 PUSH2 0x353 JUMP JUMPDEST PUSH1 0x1 PUSH1 0x20 SWAP1 DUP2 MSTORE PUSH0 SWAP3 DUP4 MSTORE PUSH1 0x40 DUP1 DUP5 KECCAK256 SWAP1 SWAP2 MSTORE SWAP1 DUP3 MSTORE SWAP1 KECCAK256 SLOAD DUP2 JUMP JUMPDEST CALLER PUSH0 SWAP1 DUP2 MSTORE PUSH1 0x1 PUSH1 0x20 DUP2 DUP2 MSTORE PUSH1 0x40 DUP1 DUP5 KECCAK256 PUSH1 0x1 PUSH1 0x1 PUSH1 0xA0 SHL SUB DUP8 AND DUP6 MSTORE SWAP1 SWAP2 MSTORE SWAP1 SWAP2 KECCAK256 DUP3 SWAP1 SSTORE JUMPDEST SWAP3 SWAP2 POP POP JUMP JUMPDEST PUSH0 DUP1 PUSH2 0x158 PUSH1 0x64 DUP5 PUSH2 0x398 JUMP JUMPDEST SWAP1 POP PUSH0 PUSH2 0x165 DUP3 DUP6 PUSH2 0x3B7 JUMP JUMPDEST SWAP1 POP DUP4 PUSH0 PUSH0 DUP9 PUSH1 0x1 PUSH1 0x1 PUSH1 0xA0 SHL SUB AND PUSH1 0x1 PUSH1 0x1 PUSH1 0xA0 SHL SUB AND DUP2 MSTORE PUSH1 0x20 ADD SWAP1 DUP2 MSTORE PUSH1 0x20 ADD PUSH0 KECCAK256 PUSH0 DUP3 DUP3 SLOAD PUSH2 0x198 SWAP2 SWAP1 PUSH2 0x3B7 JUMP JUMPDEST SWAP1 SWAP2 SSTORE POP POP PUSH1 0x1 PUSH1 0x1 PUSH1 0xA0 SHL SUB DUP6 AND PUSH0 SWAP1 DUP2 MSTORE PUSH1 0x20 DUP2 SWAP1 MSTORE PUSH1 0x40 DUP2 KECCAK256 DUP1 SLOAD DUP4 SWAP3 SWAP1 PUSH2 0x1C4 SWAP1 DUP5 SWAP1 PUSH2 0x3CA JUMP JUMPDEST SWAP1 SWAP2 SSTORE POP PUSH1 0x1 SWAP8 SWAP7 POP POP POP POP POP POP POP JUMP JUMPDEST PUSH1 0x1 PUSH1 0x1 PUSH1 0xA0 SHL SUB DUP3 AND PUSH0 SWAP1 DUP2 MSTORE PUSH1 0x20 DUP2 SWAP1 MSTORE PUSH1 0x40 DUP2 KECCAK256 DUP1 SLOAD DUP4 SWAP3 SWAP1 PUSH2 0x1FC SWAP1 DUP5 SWAP1 PUSH2 0x3CA JUMP JUMPDEST SWAP1 SWAP2 SSTORE POP POP POP POP JUMP JUMPDEST CALLER PUSH0 SWAP1 DUP2 MSTORE PUSH1 0x20 DUP2 SWAP1 MSTORE PUSH1 0x40 DUP2 KECCAK256 SLOAD DUP3 GT ISZERO PUSH2 0x25E JUMPI PUSH1 0x40 MLOAD PUSH3 0x461BCD PUSH1 0xE5 SHL DUP2 MSTORE PUSH1 0x20 PUSH1 0x4 DUP3 ADD MSTORE PUSH1 0x14 PUSH1 0x24 DUP3 ADD MSTORE PUSH20 0x496E73756666696369656E742062616C616E6365 PUSH1 0x60 SHL PUSH1 0x44 DUP3 ADD MSTORE PUSH1 0x64 ADD PUSH1 0x40 MLOAD DUP1 SWAP2 SUB SWAP1 REVERT JUMPDEST CALLER PUSH0 SWAP1 DUP2 MSTORE PUSH1 0x20 DUP2 SWAP1 MSTORE PUSH1 0x40 DUP2 KECCAK256 DUP1 SLOAD DUP5 SWAP3 SWAP1 PUSH2 0x27C SWAP1 DUP5 SWAP1 PUSH2 0x3B7 JUMP JUMPDEST SWAP1 SWAP2 SSTORE POP POP PUSH1 0x1 PUSH1 0x1 PUSH1 0xA0 SHL SUB DUP4 AND PUSH0 SWAP1 DUP2 MSTORE PUSH1 0x20 DUP2 SWAP1 MSTORE PUSH1 0x40 DUP2 KECCAK256 DUP1 SLOAD DUP5 SWAP3 SWAP1 PUSH2 0x2A8 SWAP1 DUP5 SWAP1 PUSH2 0x3CA JUMP JUMPDEST SWAP1 SWAP2 SSTORE POP PUSH1 0x1 SWAP5 SWAP4 POP POP POP POP JUMP JUMPDEST DUP1 CALLDATALOAD PUSH1 0x1 PUSH1 0x1 PUSH1 0xA0 SHL SUB DUP2 AND DUP2 EQ PUSH2 0x2CC JUMPI PUSH0 PUSH0 REVERT JUMPDEST SWAP2 SWAP1 POP JUMP JUMPDEST PUSH0 PUSH0 PUSH1 0x40 DUP4 DUP6 SUB SLT ISZERO PUSH2 0x2E2 JUMPI PUSH0 PUSH0 REVERT JUMPDEST PUSH2 0x2EB DUP4 PUSH2 0x2B6 JUMP JUMPDEST SWAP5 PUSH1 0x20 SWAP4 SWAP1 SWAP4 ADD CALLDATALOAD SWAP4 POP POP POP JUMP JUMPDEST PUSH0 PUSH0 PUSH0 PUSH1 0x60 DUP5 DUP7 SUB SLT ISZERO PUSH2 0x30B JUMPI PUSH0 PUSH0 REVERT JUMPDEST PUSH2 0x314 DUP5 PUSH2 0x2B6 JUMP JUMPDEST SWAP3 POP PUSH2 0x322 PUSH1 0x20 DUP6 ADD PUSH2 0x2B6 JUMP JUMPDEST SWAP3 SWAP6 SWAP3 SWAP5 POP POP POP PUSH1 0x40 SWAP2 SWAP1 SWAP2 ADD CALLDATALOAD SWAP1 JUMP JUMPDEST PUSH0 PUSH1 0x20 DUP3 DUP5 SUB SLT ISZERO PUSH2 0x343 JUMPI PUSH0 PUSH0 REVERT JUMPDEST PUSH2 0x34C DUP3 PUSH2 0x2B6 JUMP JUMPDEST SWAP4 SWAP3 POP POP POP JUMP JUMPDEST PUSH0 PUSH0 PUSH1 0x40 DUP4 DUP6 SUB SLT ISZERO PUSH2 0x364 JUMPI PUSH0 PUSH0 REVERT JUMPDEST PUSH2 0x36D DUP4 PUSH2 0x2B6 JUMP JUMPDEST SWAP2 POP PUSH2 0x37B PUSH1 0x20 DUP5 ADD PUSH2 0x2B6 JUMP JUMPDEST SWAP1 POP SWAP3 POP SWAP3 SWAP1 POP JUMP JUMPDEST PUSH4 0x4E487B71 PUSH1 0xE0 SHL PUSH0 MSTORE PUSH1 0x11 PUSH1 0x4 MSTORE PUSH1 0x24 PUSH0 REVERT JUMPDEST PUSH0 DUP3 PUSH2 0x3B2 JUMPI PUSH4 0x4E487B71 PUSH1 0xE0 SHL PUSH0 MSTORE PUSH1 0x12 PUSH1 0x4 MSTORE PUSH1 0x24 PUSH0 REVERT JUMPDEST POP DIV SWAP1 JUMP JUMPDEST DUP2 DUP2 SUB DUP2 DUP2 GT ISZERO PUSH2 0x145 JUMPI PUSH2 0x145 PUSH2 0x384 JUMP JUMPDEST DUP1 DUP3 ADD DUP1 DUP3 GT ISZERO PUSH2 0x145 JUMPI PUSH2 0x145 PUSH2 0x384 JUMP INVALID LOG2 PUSH5 0x6970667358 0x22 SLT KECCAK256 0x4E 0xB3 EQ DUP5 0xA7 0xED DUP3 SMOD PUSH26 0xA04AC3DE7790F607F4AB5A58B3283EAD77CCAEB174850264736F PUSH13 0x634300081E0033000000000000 "
		},
		"gasEstimates": {
			"creation": {
				"codeDepositCost": "208600",
				"executionCost": "22428",
				"totalCost": "231028"
			},
			"external": {
				"allowance(address,address)": "infinite",
				"approve(address,uint256)": "22630",
				"balanceOf(address)": "2563",
				"mint(address,uint256)": "24738",
				"transfer(address,uint256)": "infinite",
				"transferFrom(address,address,uint256)": "infinite"
			}
		},
		"methodIdentifiers": {
			"allowance(address,address)": "dd62ed3e",
			"approve(address,uint256)": "095ea7b3",
			"balanceOf(address)": "70a08231",
			"mint(address,uint256)": "40c10f19",
			"transfer(address,uint256)": "a9059cbb",
			"transferFrom(address,address,uint256)": "23b872dd"
		}
	},
	"abi": [
		{
			"inputs": [],
			"stateMutability": "nonpayable",
			"type": "constructor"
		},
		{
			"inputs": [
				{
					"internalType": "address",
					"name": "",
					"type": "address"
				},
				{
					"internalType": "address",
					"name": "",
					"type": "address"
				}
			],
			"name": "allowance",
			"outputs": [
				{
					"internalType": "uint256",
					"name": "",
					"type": "uint256"
				}
			],
			"stateMutability": "view",
			"type": "function"
		},
		{
			"inputs": [
				{
					"internalType": "address",
					"name": "spender",
					"type": "address"
				},
				{
					"internalType": "uint256",
					"name": "amount",
					"type": "uint256"
				}
			],
			"name": "approve",
			"outputs": [
				{
					"internalType": "bool",
					"name": "",
					"type": "bool"
				}
			],
			"stateMutability": "nonpayable",
			"type": "function"
		},
		{
			"inputs": [
				{
					"internalType": "address",
					"name": "",
					"type": "address"
				}
			],
			"name": "balanceOf",
			"outputs": [
				{
					"internalType": "uint256",
					"name": "",
					"type": "uint256"
				}
			],
			"stateMutability": "view",
			"type": "function"
		},
		{
			"inputs": [
				{
					"internalType": "address",
					"name": "to",
					"type": "address"
				},
				{
					"internalType": "uint256",
					"name": "amount",
					"type": "uint256"
				}
			],
			"name": "mint",
			"outputs": [],
			"stateMutability": "nonpayable",
			"type": "function"
		},
		{
			"inputs": [
				{
					"internalType": "address",
					"name": "to",
					"type": "address"
				},
				{
					"internalType": "uint256",
					"name": "amount",
					"type": "uint256"
				}
			],
			"name": "transfer",
			"outputs": [
				{
					"internalType": "bool",
					"name": "",
					"type": "bool"
				}
			],
			"stateMutability": "nonpayable",
			"type": "function"
		},
		{
			"inputs": [
				{
					"internalType": "address",
					"name": "from",
					"type": "address"
				},
				{
					"internalType": "address",
					"name": "to",
					"type": "address"
				},
				{
					"internalType": "uint256",
					"name": "amount",
					"type": "uint256"
				}
			],
			"name": "transferFrom",
			"outputs": [
				{
					"internalType": "bool",
					"name": "",
					"type": "bool"
				}
			],
			"stateMutability": "nonpayable",
			"type": "function"
		}
	]
}